{
  "_format": "hh-sol-artifact-1",
  "contractName": "MockCompoundIntegration2",
  "sourceName": "contracts/z_mocks/mix/platform-integrations/MockCompoundIntegration.sol",
  "abi": [
    {
      "anonymous": false,
      "inputs": [
        {
          "indexed": true,
          "internalType": "address",
          "name": "bAsset",
          "type": "address"
        },
        {
          "indexed": false,
          "internalType": "uint256",
          "name": "balance",
          "type": "uint256"
        }
      ],
      "name": "CurrentBalance",
      "type": "event"
    },
    {
      "anonymous": false,
      "inputs": [
        {
          "indexed": true,
          "internalType": "address",
          "name": "_bAsset",
          "type": "address"
        },
        {
          "indexed": false,
          "internalType": "address",
          "name": "_pToken",
          "type": "address"
        },
        {
          "indexed": false,
          "internalType": "uint256",
          "name": "_amount",
          "type": "uint256"
        }
      ],
      "name": "Deposit",
      "type": "event"
    },
    {
      "anonymous": false,
      "inputs": [
        {
          "indexed": true,
          "internalType": "address",
          "name": "_bAsset",
          "type": "address"
        },
        {
          "indexed": false,
          "internalType": "address",
          "name": "_pToken",
          "type": "address"
        }
      ],
      "name": "PTokenAdded",
      "type": "event"
    },
    {
      "anonymous": false,
      "inputs": [
        {
          "indexed": true,
          "internalType": "address",
          "name": "bAsset",
          "type": "address"
        },
        {
          "indexed": false,
          "internalType": "address",
          "name": "pToken",
          "type": "address"
        },
        {
          "indexed": false,
          "internalType": "uint256",
          "name": "totalAmount",
          "type": "uint256"
        },
        {
          "indexed": false,
          "internalType": "uint256",
          "name": "userAmount",
          "type": "uint256"
        }
      ],
      "name": "PlatformWithdrawal",
      "type": "event"
    },
    {
      "anonymous": false,
      "inputs": [
        {
          "indexed": false,
          "internalType": "address",
          "name": "rewardToken",
          "type": "address"
        },
        {
          "indexed": false,
          "internalType": "address",
          "name": "account",
          "type": "address"
        }
      ],
      "name": "RewardTokenApproved",
      "type": "event"
    },
    {
      "anonymous": false,
      "inputs": [
        {
          "indexed": false,
          "internalType": "address",
          "name": "bAsset",
          "type": "address"
        },
        {
          "indexed": false,
          "internalType": "uint256",
          "name": "amount",
          "type": "uint256"
        }
      ],
      "name": "SkippedWithdrawal",
      "type": "event"
    },
    {
      "anonymous": false,
      "inputs": [
        {
          "indexed": true,
          "internalType": "address",
          "name": "_address",
          "type": "address"
        }
      ],
      "name": "Whitelisted",
      "type": "event"
    },
    {
      "anonymous": false,
      "inputs": [
        {
          "indexed": true,
          "internalType": "address",
          "name": "_bAsset",
          "type": "address"
        },
        {
          "indexed": false,
          "internalType": "address",
          "name": "_pToken",
          "type": "address"
        },
        {
          "indexed": false,
          "internalType": "uint256",
          "name": "_amount",
          "type": "uint256"
        }
      ],
      "name": "Withdrawal",
      "type": "event"
    },
    {
      "constant": false,
      "inputs": [],
      "name": "approveRewardToken",
      "outputs": [],
      "payable": false,
      "stateMutability": "nonpayable",
      "type": "function"
    },
    {
      "constant": true,
      "inputs": [
        {
          "internalType": "address",
          "name": "",
          "type": "address"
        }
      ],
      "name": "bAssetToPToken",
      "outputs": [
        {
          "internalType": "address",
          "name": "",
          "type": "address"
        }
      ],
      "payable": false,
      "stateMutability": "view",
      "type": "function"
    },
    {
      "constant": false,
      "inputs": [
        {
          "internalType": "address",
          "name": "",
          "type": "address"
        }
      ],
      "name": "checkBalance",
      "outputs": [
        {
          "internalType": "uint256",
          "name": "balance",
          "type": "uint256"
        }
      ],
      "payable": false,
      "stateMutability": "nonpayable",
      "type": "function"
    },
    {
      "constant": false,
      "inputs": [
        {
          "internalType": "address",
          "name": "_bAsset",
          "type": "address"
        },
        {
          "internalType": "uint256",
          "name": "_amount",
          "type": "uint256"
        },
        {
          "internalType": "bool",
          "name": "_hasTxFee",
          "type": "bool"
        }
      ],
      "name": "deposit",
      "outputs": [
        {
          "internalType": "uint256",
          "name": "quantityDeposited",
          "type": "uint256"
        }
      ],
      "payable": false,
      "stateMutability": "nonpayable",
      "type": "function"
    },
    {
      "constant": false,
      "inputs": [
        {
          "internalType": "address",
          "name": "_nexus",
          "type": "address"
        },
        {
          "internalType": "address[]",
          "name": "_whitelisted",
          "type": "address[]"
        },
        {
          "internalType": "address",
          "name": "_platformAddress",
          "type": "address"
        },
        {
          "internalType": "address[]",
          "name": "_bAssets",
          "type": "address[]"
        },
        {
          "internalType": "address[]",
          "name": "_pTokens",
          "type": "address[]"
        }
      ],
      "name": "initialize",
      "outputs": [],
      "payable": false,
      "stateMutability": "nonpayable",
      "type": "function"
    },
    {
      "constant": false,
      "inputs": [
        {
          "internalType": "address",
          "name": "_bAsset",
          "type": "address"
        }
      ],
      "name": "logBalance",
      "outputs": [
        {
          "internalType": "uint256",
          "name": "balance",
          "type": "uint256"
        }
      ],
      "payable": false,
      "stateMutability": "nonpayable",
      "type": "function"
    },
    {
      "constant": true,
      "inputs": [],
      "name": "nexus",
      "outputs": [
        {
          "internalType": "contract INexus",
          "name": "",
          "type": "address"
        }
      ],
      "payable": false,
      "stateMutability": "view",
      "type": "function"
    },
    {
      "constant": true,
      "inputs": [],
      "name": "platformAddress",
      "outputs": [
        {
          "internalType": "address",
          "name": "",
          "type": "address"
        }
      ],
      "payable": false,
      "stateMutability": "view",
      "type": "function"
    },
    {
      "constant": false,
      "inputs": [],
      "name": "reApproveAllTokens",
      "outputs": [],
      "payable": false,
      "stateMutability": "nonpayable",
      "type": "function"
    },
    {
      "constant": false,
      "inputs": [
        {
          "internalType": "uint256",
          "name": "_bal",
          "type": "uint256"
        }
      ],
      "name": "setCustomBalance",
      "outputs": [],
      "payable": false,
      "stateMutability": "nonpayable",
      "type": "function"
    },
    {
      "constant": false,
      "inputs": [
        {
          "internalType": "address",
          "name": "_bAsset",
          "type": "address"
        },
        {
          "internalType": "address",
          "name": "_pToken",
          "type": "address"
        }
      ],
      "name": "setPTokenAddress",
      "outputs": [],
      "payable": false,
      "stateMutability": "nonpayable",
      "type": "function"
    },
    {
      "constant": true,
      "inputs": [
        {
          "internalType": "address",
          "name": "",
          "type": "address"
        }
      ],
      "name": "whitelist",
      "outputs": [
        {
          "internalType": "bool",
          "name": "",
          "type": "bool"
        }
      ],
      "payable": false,
      "stateMutability": "view",
      "type": "function"
    },
    {
      "constant": false,
      "inputs": [
        {
          "internalType": "address",
          "name": "_receiver",
          "type": "address"
        },
        {
          "internalType": "address",
          "name": "_bAsset",
          "type": "address"
        },
        {
          "internalType": "uint256",
          "name": "_amount",
          "type": "uint256"
        },
        {
          "internalType": "bool",
          "name": "_hasTxFee",
          "type": "bool"
        }
      ],
      "name": "withdraw",
      "outputs": [],
      "payable": false,
      "stateMutability": "nonpayable",
      "type": "function"
    },
    {
      "constant": false,
      "inputs": [
        {
          "internalType": "address",
          "name": "_receiver",
          "type": "address"
        },
        {
          "internalType": "address",
          "name": "_bAsset",
          "type": "address"
        },
        {
          "internalType": "uint256",
          "name": "_amount",
          "type": "uint256"
        },
        {
          "internalType": "uint256",
          "name": "_totalAmount",
          "type": "uint256"
        },
        {
          "internalType": "bool",
          "name": "_hasTxFee",
          "type": "bool"
        }
      ],
      "name": "withdraw",
      "outputs": [],
      "payable": false,
      "stateMutability": "nonpayable",
      "type": "function"
    },
    {
      "constant": false,
      "inputs": [
        {
          "internalType": "address",
          "name": "_receiver",
          "type": "address"
        },
        {
          "internalType": "address",
          "name": "_bAsset",
          "type": "address"
        },
        {
          "internalType": "uint256",
          "name": "_amount",
          "type": "uint256"
        }
      ],
      "name": "withdrawRaw",
      "outputs": [],
      "payable": false,
      "stateMutability": "nonpayable",
      "type": "function"
    }
  ],
  "bytecode": "0x608060405234801561001057600080fd5b506122ac806100206000396000f3fe608060405234801561001057600080fd5b50600436106100f55760003560e01c80639b19251a11610097578063c89fc72f11610066578063c89fc72f146103e4578063db067b1b14610428578063dbe55e561461044e578063e729645414610456576100f5565b80639b19251a14610364578063a3f5c1d21461039e578063a4e28595146103a6578063a755349a146103dc576100f5565b80635f515226116100d35780635f515226146102a157806371308afe146102c757806371c46585146102e4578063934785b714610326576100f5565b80630ed57b3a146100fa57806311505f721461012a5780633edd11281461025b575b600080fd5b6101286004803603604081101561011057600080fd5b506001600160a01b038135811691602001351661045e565b005b610128600480360360a081101561014057600080fd5b6001600160a01b03823516919081019060408101602082013564010000000081111561016b57600080fd5b82018360208201111561017d57600080fd5b8035906020019184602083028401116401000000008311171561019f57600080fd5b919390926001600160a01b03833516926040810190602001356401000000008111156101ca57600080fd5b8201836020820111156101dc57600080fd5b803590602001918460208302840111640100000000831117156101fe57600080fd5b91939092909160208101903564010000000081111561021c57600080fd5b82018360208201111561022e57600080fd5b8035906020019184602083028401116401000000008311171561025057600080fd5b5090925090506104d5565b61028f6004803603606081101561027157600080fd5b506001600160a01b0381351690602081013590604001351515610632565b60408051918252519081900360200190f35b61028f600480360360208110156102b757600080fd5b50356001600160a01b031661094b565b610128600480360360208110156102dd57600080fd5b5035610952565b61030a600480360360208110156102fa57600080fd5b50356001600160a01b0316610957565b604080516001600160a01b039092168252519081900360200190f35b6101286004803603608081101561033c57600080fd5b506001600160a01b038135811691602081013590911690604081013590606001351515610972565b61038a6004803603602081101561037a57600080fd5b50356001600160a01b0316610a41565b604080519115158252519081900360200190f35b61030a610a56565b610128600480360360608110156103bc57600080fd5b506001600160a01b03813581169160208101359091169060400135610a65565b610128610c24565b610128600480360360a08110156103fa57600080fd5b506001600160a01b038135811691602081013590911690604081013590606081013590608001351515610ce9565b61028f6004803603602081101561043e57600080fd5b50356001600160a01b0316610db9565b61030a610e17565b610128610e2b565b610466610fd4565b6001600160a01b0316336001600160a01b0316146104c7576040805162461bcd60e51b81526020600482015260196024820152784f6e6c7920676f7665726e6f722063616e206578656375746560381b604482015290519081900360640190fd5b6104d1828261104a565b5050565b600054610100900460ff16806104ee57506104ee6111b9565b806104fc575060005460ff16155b6105375760405162461bcd60e51b815260040180806020018281038252602e8152602001806121ea602e913960400191505060405180910390fd5b600054610100900460ff16158015610562576000805460ff1961ff0019909116610100171660011790555b61056a6111bf565b6105a7898989808060200260200160405190810160405280939291908181526020018383602002808284376000920191909152506111ce92505050565b6106158686868080602002602001604051908101604052809392919081815260200183836020028082843760009201919091525050604080516020808a0282810182019093528982529093508992508891829185019084908082843760009201919091525061125a92505050565b8015610627576000805461ff00191690555b505050505050505050565b336000908152603c602052604081205460ff16610692576040805162461bcd60e51b81526020600482015260196024820152784e6f7420612077686974656c6973746564206164647265737360381b604482015290519081900360640190fd5b603d5460ff166106d7576040805162461bcd60e51b815260206004820152601f6024820152600080516020612166833981519152604482015290519081900360640190fd5b603d805460ff191690558261072c576040805162461bcd60e51b81526020600482015260166024820152754d757374206465706f73697420736f6d657468696e6760501b604482015290519081900360640190fd5b600061073785611312565b9050839150821561083757600061074d8261137f565b9050816001600160a01b031663a0712d68866040518263ffffffff1660e01b815260040180828152602001915050602060405180830381600087803b15801561079557600080fd5b505af11580156107a9573d6000803e3d6000fd5b505050506040513d60208110156107bf57600080fd5b505115610808576040805162461bcd60e51b815260206004820152601260248201527118d51bdad95b881b5a5b9d0819985a5b195960721b604482015290519081900360640190fd5b60006108138361137f565b905061082e84610829838563ffffffff61149a16565b6114e3565b935050506108f0565b806001600160a01b031663a0712d68856040518263ffffffff1660e01b815260040180828152602001915050602060405180830381600087803b15801561087d57600080fd5b505af1158015610891573d6000803e3d6000fd5b505050506040513d60208110156108a757600080fd5b5051156108f0576040805162461bcd60e51b815260206004820152601260248201527118d51bdad95b881b5a5b9d0819985a5b195960721b604482015290519081900360640190fd5b604080516001600160a01b038381168252602082018590528251908816927f5548c837ab068cf56a2c2479df0882a4922fd203edb7517321831d95078c5f62928290030190a250603d805460ff191660011790559392505050565b5060405490565b604055565b603e602052600090815260409020546001600160a01b031681565b336000908152603c602052604090205460ff166109d2576040805162461bcd60e51b81526020600482015260196024820152784e6f7420612077686974656c6973746564206164647265737360381b604482015290519081900360640190fd5b603d5460ff16610a17576040805162461bcd60e51b815260206004820152601f6024820152600080516020612166833981519152604482015290519081900360640190fd5b603d805460ff19169055610a2e84848480856114f8565b5050603d805460ff191660011790555050565b603c6020526000908152604090205460ff1681565b603b546001600160a01b031681565b336000908152603c602052604090205460ff16610ac5576040805162461bcd60e51b81526020600482015260196024820152784e6f7420612077686974656c6973746564206164647265737360381b604482015290519081900360640190fd5b603d5460ff16610b0a576040805162461bcd60e51b815260206004820152601f6024820152600080516020612166833981519152604482015290519081900360640190fd5b603d805460ff1916905580610b60576040805162461bcd60e51b81526020600482015260176024820152764d75737420776974686472617720736f6d657468696e6760481b604482015290519081900360640190fd5b6001600160a01b038316610bb4576040805162461bcd60e51b8152602060048201526016602482015275135d5cdd081cdc1958da599e481c9958da5c1a595b9d60521b604482015290519081900360640190fd5b610bce6001600160a01b038316848363ffffffff61193916565b60408051600081526020810183905281516001600160a01b038516927f2717ead6b9200dd235aad468c9809ea400fe33ac69b5bfaa6d3e90fc922b6398928290030190a25050603d805460ff1916600117905550565b610c2c610fd4565b6001600160a01b0316336001600160a01b031614610c8d576040805162461bcd60e51b81526020600482015260196024820152784f6e6c7920676f7665726e6f722063616e206578656375746560381b604482015290519081900360640190fd5b603f5460005b818110156104d1576000603f8281548110610caa57fe5b60009182526020808320909101546001600160a01b03908116808452603e90925260409092205490925016610cdf828261198b565b5050600101610c93565b336000908152603c602052604090205460ff16610d49576040805162461bcd60e51b81526020600482015260196024820152784e6f7420612077686974656c6973746564206164647265737360381b604482015290519081900360640190fd5b603d5460ff16610d8e576040805162461bcd60e51b815260206004820152601f6024820152600080516020612166833981519152604482015290519081900360640190fd5b603d805460ff19169055610da585858585856114f8565b5050603d805460ff19166001179055505050565b600080610dc583611312565b9050610dd08161137f565b6040805182815290519193506001600160a01b038516917f0347f4a091558ecd141101481213b2dce62dc4a54c4f8140857e78c93fe366859181900360200190a250919050565b603d5461010090046001600160a01b031681565b610e33610fd4565b6001600160a01b0316336001600160a01b031614610e94576040805162461bcd60e51b81526020600482015260196024820152784f6e6c7920676f7665726e6f722063616e206578656375746560381b604482015290519081900360640190fd5b603b5460408051692634b8bab4b230ba37b960b11b8152815190819003600a0181206385acd64160e01b8252600482015290516000926001600160a01b0316916385acd641916024808301926020929190829003018186803b158015610ef957600080fd5b505afa158015610f0d573d6000803e3d6000fd5b505050506040513d6020811015610f2357600080fd5b505190506001600160a01b038116610f6c5760405162461bcd60e51b81526004018080602001828103825260218152602001806121866021913960400191505060405180910390fd5b73c00e94cb662c3520282e6f5717214004a7f26888610f8b818361198b565b604080516001600160a01b0380841682528416602082015281517f71b4effce66e58c9e4ad29e468e7100f7e8b5d106381fd905a25eee3ea1b6a93929181900390910190a15050565b603b546040805163030d028960e21b815290516000926001600160a01b031691630c340a24916004808301926020929190829003018186803b15801561101957600080fd5b505afa15801561102d573d6000803e3d6000fd5b505050506040513d602081101561104357600080fd5b5051905090565b6001600160a01b038281166000908152603e602052604090205416156110ac576040805162461bcd60e51b81526020600482015260126024820152711c151bdad95b88185b1c9958591e481cd95d60721b604482015290519081900360640190fd5b6001600160a01b038216158015906110cc57506001600160a01b03811615155b611111576040805162461bcd60e51b8152602060048201526011602482015270496e76616c69642061646472657373657360781b604482015290519081900360640190fd5b6001600160a01b038083166000818152603e6020908152604080832080549587166001600160a01b03199687168117909155603f805460018101825594527fc03004e3ce0784bf68186394306849f9b7b1200073105cd9aeb554a1802b58fd909301805490951684179094558351918252925191927fef6485b84315f9b1483beffa32aae9a0596890395e3d7521f1c5fbb51790e76592918290030190a26104d182826119c2565b303b1590565b603d805460ff19166001179055565b6111d7826119cc565b6000815111611225576040805162461bcd60e51b8152602060048201526015602482015274456d7074792077686974656c69737420617272617960581b604482015290519081900360640190fd5b60005b81518110156112555761124d82828151811061124057fe5b6020026020010151611a45565b600101611228565b505050565b603d8054610100600160a81b0319166101006001600160a01b038616021790558151815181146112c8576040805162461bcd60e51b8152602060048201526014602482015273496e76616c696420696e7075742061727261797360601b604482015290519081900360640190fd5b60005b8181101561130b576113038482815181106112e257fe5b60200260200101518483815181106112f657fe5b602002602001015161104a565b6001016112cb565b5050505050565b6001600160a01b038082166000908152603e602052604081205490911680611379576040805162461bcd60e51b815260206004820152601560248201527418d51bdad95b88191bd95cc81b9bdd08195e1a5cdd605a1b604482015290519081900360640190fd5b92915050565b604080516370a0823160e01b8152306004820152905160009182916001600160a01b038516916370a08231916024808301926020929190829003018186803b1580156113ca57600080fd5b505afa1580156113de573d6000803e3d6000fd5b505050506040513d60208110156113f457600080fd5b50516040805163182df0f560e01b815290519192506000916001600160a01b0386169163182df0f5916004808301926020929190829003018186803b15801561143c57600080fd5b505afa158015611450573d6000803e3d6000fd5b505050506040513d602081101561146657600080fd5b50519050611492670de0b6b3a7640000611486848463ffffffff611b4216565b9063ffffffff611b9b16565b949350505050565b60006114dc83836040518060400160405280601e81526020017f536166654d6174683a207375627472616374696f6e206f766572666c6f770000815250611bdd565b9392505050565b60008183116114f257826114dc565b50919050565b60008211611547576040805162461bcd60e51b81526020600482015260176024820152764d75737420776974686472617720736f6d657468696e6760481b604482015290519081900360640190fd5b6001600160a01b03851661159b576040805162461bcd60e51b8152602060048201526016602482015275135d5cdd081cdc1958da599e481c9958da5c1a595b9d60521b604482015290519081900360640190fd5b60006115a685611312565b905060006115b48285611c74565b90508061160657604080516001600160a01b03881681526020810186905281517f2ca0d37ecfc1b8853f4bc276c69586250b3978c1d467c05d6c143966026724ec929181900390910190a1505061130b565b8483156118135784861461164b5760405162461bcd60e51b81526004018080602001828103825260228152602001806121c86022913960400191505060405180910390fd5b604080516370a0823160e01b8152306004820152905188916000916001600160a01b038416916370a08231916024808301926020929190829003018186803b15801561169657600080fd5b505afa1580156116aa573d6000803e3d6000fd5b505050506040513d60208110156116c057600080fd5b50516040805163852a12e360e01b8152600481018b905290519192506001600160a01b0387169163852a12e3916024808201926020929091908290030181600087803b15801561170f57600080fd5b505af1158015611723573d6000803e3d6000fd5b505050506040513d602081101561173957600080fd5b50511561177d576040805162461bcd60e51b815260206004820152600d60248201526c1c995919595b4819985a5b1959609a1b604482015290519081900360640190fd5b604080516370a0823160e01b815230600482015290516000916001600160a01b038516916370a0823191602480820192602092909190829003018186803b1580156117c757600080fd5b505afa1580156117db573d6000803e3d6000fd5b505050506040513d60208110156117f157600080fd5b5051905061180984610829838563ffffffff61149a16565b93505050506118c7565b826001600160a01b031663852a12e3866040518263ffffffff1660e01b815260040180828152602001915050602060405180830381600087803b15801561185957600080fd5b505af115801561186d573d6000803e3d6000fd5b505050506040513d602081101561188357600080fd5b5051156118c7576040805162461bcd60e51b815260206004820152600d60248201526c1c995919595b4819985a5b1959609a1b604482015290519081900360640190fd5b6118e16001600160a01b038816898363ffffffff61193916565b604080516001600160a01b038581168252602082018890528183018990529151918916917fb925ac01b9c34cc156a17a1e3da718f364df34eec9d0c9dc4e59c2bb1e7ba54b9181900360600190a25050505050505050565b604080516001600160a01b038416602482015260448082018490528251808303909101815260649091019091526020810180516001600160e01b031663a9059cbb60e01b179052611255908490611cfa565b6119a66001600160a01b03831682600063ffffffff611eb816565b6104d16001600160a01b0383168260001963ffffffff611eb816565b6104d1828261198b565b6001600160a01b038116611a1f576040805162461bcd60e51b81526020600482015260156024820152744e657875732061646472657373206973207a65726f60581b604482015290519081900360640190fd5b603b80546001600160a01b0319166001600160a01b038316179055611a42611fcb565b50565b6001600160a01b038116611a92576040805162461bcd60e51b815260206004820152600f60248201526e41646472657373206973207a65726f60881b604482015290519081900360640190fd5b6001600160a01b0381166000908152603c602052604090205460ff1615611af6576040805162461bcd60e51b8152602060048201526013602482015272105b1c9958591e481dda1a5d195b1a5cdd1959606a1b604482015290519081900360640190fd5b6001600160a01b0381166000818152603c6020526040808220805460ff19166001179055517faab7954e9d246b167ef88aeddad35209ca2489d95a8aeb59e288d9b19fae5a549190a250565b600082611b5157506000611379565b82820282848281611b5e57fe5b04146114dc5760405162461bcd60e51b81526004018080602001828103825260218152602001806121a76021913960400191505060405180910390fd5b60006114dc83836040518060400160405280601a81526020017f536166654d6174683a206469766973696f6e206279207a65726f0000000000008152506120c7565b60008184841115611c6c5760405162461bcd60e51b81526004018080602001828103825283818151815260200191508051906020019080838360005b83811015611c31578181015183820152602001611c19565b50505050905090810190601f168015611c5e5780820380516001836020036101000a031916815260200191505b509250505060405180910390fd5b505050900390565b600080836001600160a01b031663182df0f56040518163ffffffff1660e01b815260040160206040518083038186803b158015611cb057600080fd5b505afa158015611cc4573d6000803e3d6000fd5b505050506040513d6020811015611cda57600080fd5b505190506114928161148685670de0b6b3a764000063ffffffff611b4216565b611d0c826001600160a01b031661212c565b611d5d576040805162461bcd60e51b815260206004820152601f60248201527f5361666545524332303a2063616c6c20746f206e6f6e2d636f6e747261637400604482015290519081900360640190fd5b60006060836001600160a01b0316836040518082805190602001908083835b60208310611d9b5780518252601f199092019160209182019101611d7c565b6001836020036101000a0380198251168184511680821785525050505050509050019150506000604051808303816000865af19150503d8060008114611dfd576040519150601f19603f3d011682016040523d82523d6000602084013e611e02565b606091505b509150915081611e59576040805162461bcd60e51b815260206004820181905260248201527f5361666545524332303a206c6f772d6c6576656c2063616c6c206661696c6564604482015290519081900360640190fd5b805115611eb257808060200190516020811015611e7557600080fd5b5051611eb25760405162461bcd60e51b815260040180806020018281038252602a815260200180612218602a913960400191505060405180910390fd5b50505050565b801580611f3e575060408051636eb1769f60e11b81523060048201526001600160a01b03848116602483015291519185169163dd62ed3e91604480820192602092909190829003018186803b158015611f1057600080fd5b505afa158015611f24573d6000803e3d6000fd5b505050506040513d6020811015611f3a57600080fd5b5051155b611f795760405162461bcd60e51b81526004018080602001828103825260368152602001806122426036913960400191505060405180910390fd5b604080516001600160a01b038416602482015260448082018490528251808303909101815260649091019091526020810180516001600160e01b031663095ea7b360e01b179052611255908490611cfa565b6040805169476f7665726e616e636560b01b8152815190819003600a9081018220603355665374616b696e6760c81b82528251918290036007908101832060345569283937bc3ca0b236b4b760b11b835283519283900390910182206035556827b930b1b632a43ab160b91b8252825191829003600990810183206036556626b0b730b3b2b960c91b835283519283900390910182206037556f2932b1b7b63630ba32b930b634b9b2b960811b82528251918290036010018220603855682134b6322a37b5b2b760b91b82528251918290030181206039556d29b0bb34b733b9a6b0b730b3b2b960911b8152905190819003600e019020603a55565b600081836121165760405162461bcd60e51b8152602060048201818152835160248401528351909283926044909101919085019080838360008315611c31578181015183820152602001611c19565b50600083858161212257fe5b0495945050505050565b6000813f7fc5d2460186f7233c927e7db2dcc703c0e500b653ca82273b7bfad8045d85a47081811480159061149257505015159291505056fe5265656e7472616e637947756172643a207265656e7472616e742063616c6c004c697175696461746f7220616464726573732063616e6e6f74206265207a65726f536166654d6174683a206d756c7469706c69636174696f6e206f766572666c6f77436163686520696e61637469766520666f7220617373657473207769746820666565436f6e747261637420696e7374616e63652068617320616c7265616479206265656e20696e697469616c697a65645361666545524332303a204552433230206f7065726174696f6e20646964206e6f7420737563636565645361666545524332303a20617070726f76652066726f6d206e6f6e2d7a65726f20746f206e6f6e2d7a65726f20616c6c6f77616e6365a265627a7a72315820fb011f97d937a14bd2fcd815d181461278594b7476c6fa645d7f614d5bd2c42764736f6c63430005100032",
  "linkReferences": {},
  "deployedLinkReferences": {}
}