{
  "_format": "hh-sol-artifact-1",
  "contractName": "MockErroneousConnector1",
  "sourceName": "contracts/z_mocks/savings/MockErroneousConnector1.sol",
  "abi": [
    {
      "inputs": [
        {
          "internalType": "address",
          "name": "_save",
          "type": "address"
        },
        {
          "internalType": "address",
          "name": "_mUSD",
          "type": "address"
        }
      ],
      "payable": false,
      "stateMutability": "nonpayable",
      "type": "constructor"
    },
    {
      "constant": true,
      "inputs": [],
      "name": "checkBalance",
      "outputs": [
        {
          "internalType": "uint256",
          "name": "",
          "type": "uint256"
        }
      ],
      "payable": false,
      "stateMutability": "view",
      "type": "function"
    },
    {
      "constant": false,
      "inputs": [
        {
          "internalType": "uint256",
          "name": "_amount",
          "type": "uint256"
        }
      ],
      "name": "deposit",
      "outputs": [],
      "payable": false,
      "stateMutability": "nonpayable",
      "type": "function"
    },
    {
      "constant": false,
      "inputs": [],
      "name": "poke",
      "outputs": [],
      "payable": false,
      "stateMutability": "nonpayable",
      "type": "function"
    },
    {
      "constant": false,
      "inputs": [
        {
          "internalType": "uint256",
          "name": "_amount",
          "type": "uint256"
        }
      ],
      "name": "withdraw",
      "outputs": [],
      "payable": false,
      "stateMutability": "nonpayable",
      "type": "function"
    },
    {
      "constant": false,
      "inputs": [],
      "name": "withdrawAll",
      "outputs": [],
      "payable": false,
      "stateMutability": "nonpayable",
      "type": "function"
    }
  ],
  "bytecode": "0x608060405234801561001057600080fd5b506040516107943803806107948339818101604052604081101561003357600080fd5b508051602090910151600080546001600160a01b039384166001600160a01b0319918216179091556001805493909216921691909117905561071a8061007a6000396000f3fe608060405234801561001057600080fd5b50600436106100575760003560e01c8063181783581461005c5780632e1a7d4d14610066578063853828b614610083578063b6b55f251461008b578063c71daccb146100a8575b600080fd5b6100646100c2565b005b6100646004803603602081101561007c57600080fd5b5035610127565b6100646101f2565b610064600480360360208110156100a157600080fd5b5035610344565b6100b061049e565b60408051918252519081900360200190f35b6003544290156101225760006100e3600354836104a490919063ffffffff16565b905060006100fc826407620d06ef63ffffffff6104ef16565b905060006101158260025461054890919063ffffffff16565b6002805490910190555050505b600355565b600354429015610187576000610148600354836104a490919063ffffffff16565b90506000610161826407620d06ef63ffffffff6104ef16565b9050600061017a8260025461054890919063ffffffff16565b6002805490910190555050505b60038190556000546001600160a01b031633146101e5576040805162461bcd60e51b81526020600482015260176024820152764f6e6c7920534156452063616e2063616c6c207468697360481b604482015290519081900360640190fd5b5060028054919091039055565b600354429015610252576000610213600354836104a490919063ffffffff16565b9050600061022c826407620d06ef63ffffffff6104ef16565b905060006102458260025461054890919063ffffffff16565b6002805490910190555050505b60038190556000546001600160a01b031633146102b0576040805162461bcd60e51b81526020600482015260176024820152764f6e6c7920534156452063616e2063616c6c207468697360481b604482015290519081900360640190fd5b600154600080546002546040805163a9059cbb60e01b81526001600160a01b039384166004820152602481019290925251919093169263a9059cbb9260448083019360209390929083900390910190829087803b15801561031057600080fd5b505af1158015610324573d6000803e3d6000fd5b505050506040513d602081101561033a57600080fd5b5050600060025550565b6003544290156103a4576000610365600354836104a490919063ffffffff16565b9050600061037e826407620d06ef63ffffffff6104ef16565b905060006103978260025461054890919063ffffffff16565b6002805490910190555050505b60038190556000546001600160a01b03163314610402576040805162461bcd60e51b81526020600482015260176024820152764f6e6c7920534156452063616e2063616c6c207468697360481b604482015290519081900360640190fd5b60015460008054604080516323b872dd60e01b81526001600160a01b03928316600482015230602482015260448101879052905191909316926323b872dd9260648083019360209390929083900390910190829087803b15801561046557600080fd5b505af1158015610479573d6000803e3d6000fd5b505050506040513d602081101561048f57600080fd5b50506002805490920190915550565b60025490565b60006104e683836040518060400160405280601e81526020017f536166654d6174683a207375627472616374696f6e206f766572666c6f77000081525061055d565b90505b92915050565b6000826104fe575060006104e9565b8282028284828161050b57fe5b04146104e65760405162461bcd60e51b81526004018080602001828103825260218152602001806106c56021913960400191505060405180910390fd5b60006104e68383670de0b6b3a76400006105f4565b600081848411156105ec5760405162461bcd60e51b81526004018080602001828103825283818151815260200191508051906020019080838360005b838110156105b1578181015183820152602001610599565b50505050905090810190601f1680156105de5780820380516001836020036101000a031916815260200191505b509250505060405180910390fd5b505050900390565b600080610607858563ffffffff6104ef16565b9050610619818463ffffffff61062216565b95945050505050565b60006104e683836040518060400160405280601a81526020017f536166654d6174683a206469766973696f6e206279207a65726f000000000000815250600081836106ae5760405162461bcd60e51b81526020600482018181528351602484015283519092839260449091019190850190808383600083156105b1578181015183820152602001610599565b5060008385816106ba57fe5b049594505050505056fe536166654d6174683a206d756c7469706c69636174696f6e206f766572666c6f77a265627a7a72315820820f42407ba16310e77a2ed4dae18a73bac64b488ef0c3e99f5b47c71bd74d7864736f6c63430005100032",
  "linkReferences": {},
  "deployedLinkReferences": {}
}