{
  "_format": "hh-sol-artifact-1",
  "contractName": "MintWith1Inch",
  "sourceName": "contracts/z_mocks/integrations/MintWith1Inch.sol",
  "abi": [
    {
      "inputs": [
        {
          "internalType": "address",
          "name": "_oneSplit",
          "type": "address"
        },
        {
          "internalType": "address[]",
          "name": "_mIxs",
          "type": "address[]"
        }
      ],
      "payable": false,
      "stateMutability": "nonpayable",
      "type": "constructor"
    },
    {
      "anonymous": false,
      "inputs": [
        {
          "indexed": true,
          "internalType": "address",
          "name": "mIx",
          "type": "address"
        }
      ],
      "name": "MixAdded",
      "type": "event"
    },
    {
      "anonymous": false,
      "inputs": [
        {
          "indexed": true,
          "internalType": "address",
          "name": "previousOwner",
          "type": "address"
        },
        {
          "indexed": true,
          "internalType": "address",
          "name": "newOwner",
          "type": "address"
        }
      ],
      "name": "OwnershipTransferred",
      "type": "event"
    },
    {
      "constant": false,
      "inputs": [
        {
          "internalType": "address",
          "name": "_mIx",
          "type": "address"
        }
      ],
      "name": "addMix",
      "outputs": [],
      "payable": false,
      "stateMutability": "nonpayable",
      "type": "function"
    },
    {
      "constant": false,
      "inputs": [
        {
          "internalType": "contract IERC20",
          "name": "_srcBasset",
          "type": "address"
        },
        {
          "internalType": "address",
          "name": "_destMix",
          "type": "address"
        },
        {
          "internalType": "uint256",
          "name": "_minBassetUnits",
          "type": "uint256"
        },
        {
          "internalType": "uint256[]",
          "name": "_distribution",
          "type": "uint256[]"
        }
      ],
      "name": "buyAndMint",
      "outputs": [
        {
          "internalType": "uint256",
          "name": "mIxQtyMinted",
          "type": "uint256"
        }
      ],
      "payable": true,
      "stateMutability": "payable",
      "type": "function"
    },
    {
      "constant": false,
      "inputs": [
        {
          "internalType": "address",
          "name": "_mIx",
          "type": "address"
        },
        {
          "internalType": "address[]",
          "name": "_bAssets",
          "type": "address[]"
        }
      ],
      "name": "infiniteApprove",
      "outputs": [],
      "payable": false,
      "stateMutability": "nonpayable",
      "type": "function"
    },
    {
      "constant": true,
      "inputs": [],
      "name": "isOwner",
      "outputs": [
        {
          "internalType": "bool",
          "name": "",
          "type": "bool"
        }
      ],
      "payable": false,
      "stateMutability": "view",
      "type": "function"
    },
    {
      "constant": true,
      "inputs": [
        {
          "internalType": "address",
          "name": "",
          "type": "address"
        }
      ],
      "name": "mIxs",
      "outputs": [
        {
          "internalType": "bool",
          "name": "",
          "type": "bool"
        }
      ],
      "payable": false,
      "stateMutability": "view",
      "type": "function"
    },
    {
      "constant": true,
      "inputs": [],
      "name": "oneSplit",
      "outputs": [
        {
          "internalType": "contract IOneSplit",
          "name": "",
          "type": "address"
        }
      ],
      "payable": false,
      "stateMutability": "view",
      "type": "function"
    },
    {
      "constant": true,
      "inputs": [],
      "name": "owner",
      "outputs": [
        {
          "internalType": "address",
          "name": "",
          "type": "address"
        }
      ],
      "payable": false,
      "stateMutability": "view",
      "type": "function"
    },
    {
      "constant": false,
      "inputs": [],
      "name": "renounceOwnership",
      "outputs": [],
      "payable": false,
      "stateMutability": "nonpayable",
      "type": "function"
    },
    {
      "constant": false,
      "inputs": [
        {
          "internalType": "address",
          "name": "newOwner",
          "type": "address"
        }
      ],
      "name": "transferOwnership",
      "outputs": [],
      "payable": false,
      "stateMutability": "nonpayable",
      "type": "function"
    }
  ],
  "bytecode": "0x60806040523480156200001157600080fd5b506040516200109738038062001097833981810160405260408110156200003757600080fd5b8151602083018051604051929492938301929190846401000000008211156200005f57600080fd5b9083019060208201858111156200007557600080fd5b82518660208202830111640100000000821117156200009357600080fd5b82525081516020918201928201910280838360005b83811015620000c2578181015183820152602001620000a8565b50505050905001604052505050806000620000e26200023660201b60201c565b600080546001600160a01b0319166001600160a01b0383169081178255604051929350917f8be0079c531659141344cd1fd0a4f28419497f9722a3daafe3b4186f6b6457e0908290a350600081511162000176576040805162461bcd60e51b815260206004820152601060248201526f139bc81b525e1cc81c1c9bdd9a59195960821b604482015290519081900360640190fd5b60005b8151811015620001b157620001a88282815181106200019457fe5b60200260200101516200023a60201b60201c565b60010162000179565b50506001600160a01b0382166200020f576040805162461bcd60e51b815260206004820152601560248201527f31696e63682061646472657373206973207a65726f0000000000000000000000604482015290519081900360640190fd5b50600280546001600160a01b0319166001600160a01b03929092169190911790556200035f565b3390565b6001600160a01b03811662000296576040805162461bcd60e51b815260206004820152601360248201527f6d49782061646472657373206973207a65726f00000000000000000000000000604482015290519081900360640190fd5b620002aa816001600160e01b036200034116565b15620002f2576040805162461bcd60e51b81526020600482015260126024820152716d497820616c72656164792065786973747360701b604482015290519081900360640190fd5b6001600160a01b0381166000818152600160208190526040808320805460ff1916909217909155517fcf9373b1a28084b56a4bc6a4fcee562c5f37fd56f868d54916a5df46f3e5a5a49190a250565b6001600160a01b031660009081526001602052604090205460ff1690565b610d28806200036f6000396000f3fe6080604052600436106100865760003560e01c8063715018a611610059578063715018a6146101c55780638da5cb5b146101da5780638f32d59b146101ef578063f2fde38b14610204578063fd24628a1461023757610086565b8063259a6b5d1461008b5780633d7effcf146100d257806343ee21f0146101075780636160d86f14610138575b600080fd5b34801561009757600080fd5b506100be600480360360208110156100ae57600080fd5b50356001600160a01b03166102d9565b604080519115158252519081900360200190f35b3480156100de57600080fd5b50610105600480360360208110156100f557600080fd5b50356001600160a01b03166102ee565b005b34801561011357600080fd5b5061011c610353565b604080516001600160a01b039092168252519081900360200190f35b34801561014457600080fd5b506101056004803603604081101561015b57600080fd5b6001600160a01b03823516919081019060408101602082013564010000000081111561018657600080fd5b82018360208201111561019857600080fd5b803590602001918460208302840111640100000000831117156101ba57600080fd5b509092509050610362565b3480156101d157600080fd5b506101056103b2565b3480156101e657600080fd5b5061011c610455565b3480156101fb57600080fd5b506100be610464565b34801561021057600080fd5b506101056004803603602081101561022757600080fd5b50356001600160a01b0316610488565b6102c76004803603608081101561024d57600080fd5b6001600160a01b0382358116926020810135909116916040820135919081019060808101606082013564010000000081111561028857600080fd5b82018360208201111561029a57600080fd5b803590602001918460208302840111640100000000831117156102bc57600080fd5b5090925090506104ea565b60408051918252519081900360200190f35b60016020526000908152604090205460ff1681565b6102f6610464565b610347576040805162461bcd60e51b815260206004820181905260248201527f4f776e61626c653a2063616c6c6572206973206e6f7420746865206f776e6572604482015290519081900360640190fd5b61035081610774565b50565b6002546001600160a01b031681565b60005b818110156103ac576103a48484848481811061037d57fe5b905060200201356001600160a01b03166001600160a01b031661086490919063ffffffff16565b600101610365565b50505050565b6103ba610464565b61040b576040805162461bcd60e51b815260206004820181905260248201527f4f776e61626c653a2063616c6c6572206973206e6f7420746865206f776e6572604482015290519081900360640190fd5b600080546040516001600160a01b03909116907f8be0079c531659141344cd1fd0a4f28419497f9722a3daafe3b4186f6b6457e0908390a3600080546001600160a01b0319169055565b6000546001600160a01b031690565b600080546001600160a01b031661047961089f565b6001600160a01b031614905090565b610490610464565b6104e1576040805162461bcd60e51b815260206004820181905260248201527f4f776e61626c653a2063616c6c6572206973206e6f7420746865206f776e6572604482015290519081900360640190fd5b610350816108a3565b600080341161052f576040805162461bcd60e51b815260206004820152600c60248201526b115512081b9bdd081cd95b9d60a21b604482015290519081900360640190fd5b61053885610943565b61057b576040805162461bcd60e51b815260206004820152600f60248201526e09cdee840c240ecc2d8d2c840da92f608b1b604482015290519081900360640190fd5b600254604051637153a8af60e11b81526000600482018181526001600160a01b038a811660248501523460448501819052606485018a905260a4850184905260c06084860190815260c48601899052919095169463e2a7515e949093928c9285928c928c928c928892919060e401856020860280828437600081840152601f19601f820116905080830192505050985050505050505050506000604051808303818588803b15801561062c57600080fd5b505af1158015610640573d6000803e3d6000fd5b5050604080516370a0823160e01b81523060048201529051600094506001600160a01b038b1693506370a0823192506024808301926020929190829003018186803b15801561068e57600080fd5b505afa1580156106a2573d6000803e3d6000fd5b505050506040513d60208110156106b857600080fd5b505190506001600160a01b03861663438b1b4b88836106d561089f565b6040518463ffffffff1660e01b815260040180846001600160a01b03166001600160a01b03168152602001838152602001826001600160a01b03166001600160a01b031681526020019350505050602060405180830381600087803b15801561073d57600080fd5b505af1158015610751573d6000803e3d6000fd5b505050506040513d602081101561076757600080fd5b5051979650505050505050565b6001600160a01b0381166107c5576040805162461bcd60e51b81526020600482015260136024820152726d49782061646472657373206973207a65726f60681b604482015290519081900360640190fd5b6107ce81610943565b15610815576040805162461bcd60e51b81526020600482015260126024820152716d497820616c72656164792065786973747360701b604482015290519081900360640190fd5b6001600160a01b0381166000818152600160208190526040808320805460ff1916909217909155517fcf9373b1a28084b56a4bc6a4fcee562c5f37fd56f868d54916a5df46f3e5a5a49190a250565b61087f6001600160a01b03831682600063ffffffff61096116565b61089b6001600160a01b0383168260001963ffffffff61096116565b5050565b3390565b6001600160a01b0381166108e85760405162461bcd60e51b8152600401808060200182810382526026815260200180610c6e6026913960400191505060405180910390fd5b600080546040516001600160a01b03808516939216917f8be0079c531659141344cd1fd0a4f28419497f9722a3daafe3b4186f6b6457e091a3600080546001600160a01b0319166001600160a01b0392909216919091179055565b6001600160a01b031660009081526001602052604090205460ff1690565b8015806109e7575060408051636eb1769f60e11b81523060048201526001600160a01b03848116602483015291519185169163dd62ed3e91604480820192602092909190829003018186803b1580156109b957600080fd5b505afa1580156109cd573d6000803e3d6000fd5b505050506040513d60208110156109e357600080fd5b5051155b610a225760405162461bcd60e51b8152600401808060200182810382526036815260200180610cbe6036913960400191505060405180910390fd5b604080516001600160a01b038416602482015260448082018490528251808303909101815260649091019091526020810180516001600160e01b031663095ea7b360e01b179052610a74908490610a79565b505050565b610a8b826001600160a01b0316610c31565b610adc576040805162461bcd60e51b815260206004820152601f60248201527f5361666545524332303a2063616c6c20746f206e6f6e2d636f6e747261637400604482015290519081900360640190fd5b60006060836001600160a01b0316836040518082805190602001908083835b60208310610b1a5780518252601f199092019160209182019101610afb565b6001836020036101000a0380198251168184511680821785525050505050509050019150506000604051808303816000865af19150503d8060008114610b7c576040519150601f19603f3d011682016040523d82523d6000602084013e610b81565b606091505b509150915081610bd8576040805162461bcd60e51b815260206004820181905260248201527f5361666545524332303a206c6f772d6c6576656c2063616c6c206661696c6564604482015290519081900360640190fd5b8051156103ac57808060200190516020811015610bf457600080fd5b50516103ac5760405162461bcd60e51b815260040180806020018281038252602a815260200180610c94602a913960400191505060405180910390fd5b6000813f7fc5d2460186f7233c927e7db2dcc703c0e500b653ca82273b7bfad8045d85a470818114801590610c6557508115155b94935050505056fe4f776e61626c653a206e6577206f776e657220697320746865207a65726f20616464726573735361666545524332303a204552433230206f7065726174696f6e20646964206e6f7420737563636565645361666545524332303a20617070726f76652066726f6d206e6f6e2d7a65726f20746f206e6f6e2d7a65726f20616c6c6f77616e6365a265627a7a72315820cdb8ea852b400f36c5b2ef579c4fade7613166196c49ec4c504f405d2d53d62d64736f6c63430005100032",
  "linkReferences": {},
  "deployedLinkReferences": {}
}