{
  "_format": "hh-sol-artifact-1",
  "contractName": "MockImplementationV3",
  "sourceName": "contracts/z_mocks/upgradability/MockImplementation.sol",
  "abi": [
    {
      "constant": false,
      "inputs": [],
      "name": "initializeV3",
      "outputs": [],
      "payable": true,
      "stateMutability": "payable",
      "type": "function"
    },
    {
      "constant": true,
      "inputs": [],
      "name": "uintVal",
      "outputs": [
        {
          "internalType": "uint256",
          "name": "",
          "type": "uint256"
        }
      ],
      "payable": false,
      "stateMutability": "view",
      "type": "function"
    },
    {
      "constant": true,
      "inputs": [],
      "name": "version",
      "outputs": [
        {
          "internalType": "string",
          "name": "",
          "type": "string"
        }
      ],
      "payable": false,
      "stateMutability": "view",
      "type": "function"
    }
  ],
  "bytecode": "0x60a060408190526000608081905261001991603391610031565b50600160345534801561002b57600080fd5b506100cc565b828054600181600116156101000203166002900490600052602060002090601f016020900481019282601f1061007257805160ff191683800117855561009f565b8280016001018555821561009f579182015b8281111561009f578251825591602001919060010190610084565b506100ab9291506100af565b5090565b6100c991905b808211156100ab57600081556001016100b5565b90565b6102e8806100db6000396000f3fe6080604052600436106100345760003560e01c806338e454b11461003957806354fd4d50146100435780639a0283ed146100cd575b600080fd5b6100416100f4565b005b34801561004f57600080fd5b50610058610184565b6040805160208082528351818301528351919283929083019185019080838360005b8381101561009257818101518382015260200161007a565b50505050905090810190601f1680156100bf5780820380516001836020036101000a031916815260200191505b509250505060405180910390f35b3480156100d957600080fd5b506100e2610212565b60408051918252519081900360200190f35b6035546001600160a01b03163314610153576040805162461bcd60e51b815260206004820152601b60248201527f4f6e6c792070726f787941646d696e2063616e20657865637574650000000000604482015290519081900360640190fd5b60408051808201909152600280825261563360f01b602090920191825261017c91603391610218565b506004603455565b6033805460408051602060026001851615610100026000190190941693909304601f8101849004840282018401909252818152929183018282801561020a5780601f106101df5761010080835404028352916020019161020a565b820191906000526020600020905b8154815290600101906020018083116101ed57829003601f168201915b505050505081565b60345481565b828054600181600116156101000203166002900490600052602060002090601f016020900481019282601f1061025957805160ff1916838001178555610286565b82800160010185558215610286579182015b8281111561028657825182559160200191906001019061026b565b50610292929150610296565b5090565b6102b091905b80821115610292576000815560010161029c565b9056fea265627a7a7231582014abb27612bafd10b306f2979c71e8c3182527c28c256f68da06f7be84bc243f64736f6c63430005100032",
  "linkReferences": {},
  "deployedLinkReferences": {}
}