{
  "_format": "hh-sol-artifact-1",
  "contractName": "MockImplementationV1",
  "sourceName": "contracts/z_mocks/upgradability/MockImplementation.sol",
  "abi": [
    {
      "constant": false,
      "inputs": [
        {
          "internalType": "address",
          "name": "_proxyAdmin",
          "type": "address"
        }
      ],
      "name": "initialize",
      "outputs": [],
      "payable": false,
      "stateMutability": "nonpayable",
      "type": "function"
    },
    {
      "constant": true,
      "inputs": [],
      "name": "uintVal",
      "outputs": [
        {
          "internalType": "uint256",
          "name": "",
          "type": "uint256"
        }
      ],
      "payable": false,
      "stateMutability": "view",
      "type": "function"
    },
    {
      "constant": true,
      "inputs": [],
      "name": "version",
      "outputs": [
        {
          "internalType": "string",
          "name": "",
          "type": "string"
        }
      ],
      "payable": false,
      "stateMutability": "view",
      "type": "function"
    }
  ],
  "bytecode": "0x60a060408190526000608081905261001991603391610031565b50600160345534801561002b57600080fd5b506100cc565b828054600181600116156101000203166002900490600052602060002090601f016020900481019282601f1061007257805160ff191683800117855561009f565b8280016001018555821561009f579182015b8281111561009f578251825591602001919060010190610084565b506100ab9291506100af565b5090565b6100c991905b808211156100ab57600081556001016100b5565b90565b610388806100db6000396000f3fe608060405234801561001057600080fd5b50600436106100415760003560e01c806354fd4d50146100465780639a0283ed146100c3578063c4d66de8146100dd575b600080fd5b61004e610105565b6040805160208082528351818301528351919283929083019185019080838360005b83811015610088578181015183820152602001610070565b50505050905090810190601f1680156100b55780820380516001836020036101000a031916815260200191505b509250505060405180910390f35b6100cb610193565b60408051918252519081900360200190f35b610103600480360360208110156100f357600080fd5b50356001600160a01b0316610199565b005b6033805460408051602060026001851615610100026000190190941693909304601f8101849004840282018401909252818152929183018282801561018b5780601f106101605761010080835404028352916020019161018b565b820191906000526020600020905b81548152906001019060200180831161016e57829003601f168201915b505050505081565b60345481565b600054610100900460ff16806101b257506101b2610286565b806101c0575060005460ff16155b6101fb5760405162461bcd60e51b815260040180806020018281038252602e815260200180610326602e913960400191505060405180910390fd5b600054610100900460ff16158015610226576000805460ff1961ff0019909116610100171660011790555b60408051808201909152600280825261563160f01b602090920191825261024f9160339161028d565b506002603455603580546001600160a01b0319166001600160a01b0384161790558015610282576000805461ff00191690555b5050565b303b155b90565b828054600181600116156101000203166002900490600052602060002090601f016020900481019282601f106102ce57805160ff19168380011785556102fb565b828001600101855582156102fb579182015b828111156102fb5782518255916020019190600101906102e0565b5061030792915061030b565b5090565b61028a91905b80821115610307576000815560010161031156fe436f6e747261637420696e7374616e63652068617320616c7265616479206265656e20696e697469616c697a6564a265627a7a723158203fa3f3a3dea94037a2ed84a38df07981a1833090d415fec9844b74af0f9c68c864736f6c63430005100032",
  "linkReferences": {},
  "deployedLinkReferences": {}
}