{
  "_format": "hh-sol-artifact-1",
  "contractName": "AaveIntegration",
  "sourceName": "contracts/mix/platform-integrations/AaveIntegration.sol",
  "abi": [
    {
      "anonymous": false,
      "inputs": [
        {
          "indexed": true,
          "internalType": "address",
          "name": "_bAsset",
          "type": "address"
        },
        {
          "indexed": false,
          "internalType": "address",
          "name": "_pToken",
          "type": "address"
        },
        {
          "indexed": false,
          "internalType": "uint256",
          "name": "_amount",
          "type": "uint256"
        }
      ],
      "name": "Deposit",
      "type": "event"
    },
    {
      "anonymous": false,
      "inputs": [
        {
          "indexed": true,
          "internalType": "address",
          "name": "_bAsset",
          "type": "address"
        },
        {
          "indexed": false,
          "internalType": "address",
          "name": "_pToken",
          "type": "address"
        }
      ],
      "name": "PTokenAdded",
      "type": "event"
    },
    {
      "anonymous": false,
      "inputs": [
        {
          "indexed": true,
          "internalType": "address",
          "name": "bAsset",
          "type": "address"
        },
        {
          "indexed": false,
          "internalType": "address",
          "name": "pToken",
          "type": "address"
        },
        {
          "indexed": false,
          "internalType": "uint256",
          "name": "totalAmount",
          "type": "uint256"
        },
        {
          "indexed": false,
          "internalType": "uint256",
          "name": "userAmount",
          "type": "uint256"
        }
      ],
      "name": "PlatformWithdrawal",
      "type": "event"
    },
    {
      "anonymous": false,
      "inputs": [
        {
          "indexed": true,
          "internalType": "address",
          "name": "_address",
          "type": "address"
        }
      ],
      "name": "Whitelisted",
      "type": "event"
    },
    {
      "anonymous": false,
      "inputs": [
        {
          "indexed": true,
          "internalType": "address",
          "name": "_bAsset",
          "type": "address"
        },
        {
          "indexed": false,
          "internalType": "address",
          "name": "_pToken",
          "type": "address"
        },
        {
          "indexed": false,
          "internalType": "uint256",
          "name": "_amount",
          "type": "uint256"
        }
      ],
      "name": "Withdrawal",
      "type": "event"
    },
    {
      "constant": true,
      "inputs": [
        {
          "internalType": "address",
          "name": "",
          "type": "address"
        }
      ],
      "name": "bAssetToPToken",
      "outputs": [
        {
          "internalType": "address",
          "name": "",
          "type": "address"
        }
      ],
      "payable": false,
      "stateMutability": "view",
      "type": "function"
    },
    {
      "constant": false,
      "inputs": [
        {
          "internalType": "address",
          "name": "_bAsset",
          "type": "address"
        }
      ],
      "name": "checkBalance",
      "outputs": [
        {
          "internalType": "uint256",
          "name": "balance",
          "type": "uint256"
        }
      ],
      "payable": false,
      "stateMutability": "nonpayable",
      "type": "function"
    },
    {
      "constant": false,
      "inputs": [
        {
          "internalType": "address",
          "name": "_bAsset",
          "type": "address"
        },
        {
          "internalType": "uint256",
          "name": "_amount",
          "type": "uint256"
        },
        {
          "internalType": "bool",
          "name": "_hasTxFee",
          "type": "bool"
        }
      ],
      "name": "deposit",
      "outputs": [
        {
          "internalType": "uint256",
          "name": "quantityDeposited",
          "type": "uint256"
        }
      ],
      "payable": false,
      "stateMutability": "nonpayable",
      "type": "function"
    },
    {
      "constant": false,
      "inputs": [
        {
          "internalType": "address",
          "name": "_nexus",
          "type": "address"
        },
        {
          "internalType": "address[]",
          "name": "_whitelisted",
          "type": "address[]"
        },
        {
          "internalType": "address",
          "name": "_platformAddress",
          "type": "address"
        },
        {
          "internalType": "address[]",
          "name": "_bAssets",
          "type": "address[]"
        },
        {
          "internalType": "address[]",
          "name": "_pTokens",
          "type": "address[]"
        }
      ],
      "name": "initialize",
      "outputs": [],
      "payable": false,
      "stateMutability": "nonpayable",
      "type": "function"
    },
    {
      "constant": true,
      "inputs": [],
      "name": "nexus",
      "outputs": [
        {
          "internalType": "contract INexus",
          "name": "",
          "type": "address"
        }
      ],
      "payable": false,
      "stateMutability": "view",
      "type": "function"
    },
    {
      "constant": true,
      "inputs": [],
      "name": "platformAddress",
      "outputs": [
        {
          "internalType": "address",
          "name": "",
          "type": "address"
        }
      ],
      "payable": false,
      "stateMutability": "view",
      "type": "function"
    },
    {
      "constant": false,
      "inputs": [],
      "name": "reApproveAllTokens",
      "outputs": [],
      "payable": false,
      "stateMutability": "nonpayable",
      "type": "function"
    },
    {
      "constant": false,
      "inputs": [
        {
          "internalType": "address",
          "name": "_bAsset",
          "type": "address"
        },
        {
          "internalType": "address",
          "name": "_pToken",
          "type": "address"
        }
      ],
      "name": "setPTokenAddress",
      "outputs": [],
      "payable": false,
      "stateMutability": "nonpayable",
      "type": "function"
    },
    {
      "constant": true,
      "inputs": [
        {
          "internalType": "address",
          "name": "",
          "type": "address"
        }
      ],
      "name": "whitelist",
      "outputs": [
        {
          "internalType": "bool",
          "name": "",
          "type": "bool"
        }
      ],
      "payable": false,
      "stateMutability": "view",
      "type": "function"
    },
    {
      "constant": false,
      "inputs": [
        {
          "internalType": "address",
          "name": "_receiver",
          "type": "address"
        },
        {
          "internalType": "address",
          "name": "_bAsset",
          "type": "address"
        },
        {
          "internalType": "uint256",
          "name": "_amount",
          "type": "uint256"
        },
        {
          "internalType": "bool",
          "name": "_hasTxFee",
          "type": "bool"
        }
      ],
      "name": "withdraw",
      "outputs": [],
      "payable": false,
      "stateMutability": "nonpayable",
      "type": "function"
    },
    {
      "constant": false,
      "inputs": [
        {
          "internalType": "address",
          "name": "_receiver",
          "type": "address"
        },
        {
          "internalType": "address",
          "name": "_bAsset",
          "type": "address"
        },
        {
          "internalType": "uint256",
          "name": "_amount",
          "type": "uint256"
        },
        {
          "internalType": "uint256",
          "name": "_totalAmount",
          "type": "uint256"
        },
        {
          "internalType": "bool",
          "name": "_hasTxFee",
          "type": "bool"
        }
      ],
      "name": "withdraw",
      "outputs": [],
      "payable": false,
      "stateMutability": "nonpayable",
      "type": "function"
    },
    {
      "constant": false,
      "inputs": [
        {
          "internalType": "address",
          "name": "_receiver",
          "type": "address"
        },
        {
          "internalType": "address",
          "name": "_bAsset",
          "type": "address"
        },
        {
          "internalType": "uint256",
          "name": "_amount",
          "type": "uint256"
        }
      ],
      "name": "withdrawRaw",
      "outputs": [],
      "payable": false,
      "stateMutability": "nonpayable",
      "type": "function"
    }
  ],
  "bytecode": "0x608060405234801561001057600080fd5b50611da3806100206000396000f3fe608060405234801561001057600080fd5b50600436106100b45760003560e01c80639b19251a116100715780639b19251a14610306578063a3f5c1d214610340578063a4e2859514610348578063a755349a1461037e578063c89fc72f14610386578063dbe55e56146103ca576100b4565b80630ed57b3a146100b957806311505f72146100e95780633edd11281461021a5780635f5152261461026057806371c4658514610286578063934785b7146102c8575b600080fd5b6100e7600480360360408110156100cf57600080fd5b506001600160a01b03813581169160200135166103d2565b005b6100e7600480360360a08110156100ff57600080fd5b6001600160a01b03823516919081019060408101602082013564010000000081111561012a57600080fd5b82018360208201111561013c57600080fd5b8035906020019184602083028401116401000000008311171561015e57600080fd5b919390926001600160a01b038335169260408101906020013564010000000081111561018957600080fd5b82018360208201111561019b57600080fd5b803590602001918460208302840111640100000000831117156101bd57600080fd5b9193909290916020810190356401000000008111156101db57600080fd5b8201836020820111156101ed57600080fd5b8035906020019184602083028401116401000000008311171561020f57600080fd5b509092509050610449565b61024e6004803603606081101561023057600080fd5b506001600160a01b03813516906020810135906040013515156105a6565b60408051918252519081900360200190f35b61024e6004803603602081101561027657600080fd5b50356001600160a01b031661084b565b6102ac6004803603602081101561029c57600080fd5b50356001600160a01b0316610869565b604080516001600160a01b039092168252519081900360200190f35b6100e7600480360360808110156102de57600080fd5b506001600160a01b038135811691602081013590911690604081013590606001351515610884565b61032c6004803603602081101561031c57600080fd5b50356001600160a01b0316610953565b604080519115158252519081900360200190f35b6102ac610968565b6100e76004803603606081101561035e57600080fd5b506001600160a01b03813581169160208101359091169060400135610977565b6100e7610b36565b6100e7600480360360a081101561039c57600080fd5b506001600160a01b038135811691602081013590911690604081013590606081013590608001351515610bf1565b6102ac610cc1565b6103da610cd5565b6001600160a01b0316336001600160a01b03161461043b576040805162461bcd60e51b81526020600482015260196024820152784f6e6c7920676f7665726e6f722063616e206578656375746560381b604482015290519081900360640190fd5b6104458282610d4b565b5050565b600054610100900460ff16806104625750610462610eba565b80610470575060005460ff16155b6104ab5760405162461bcd60e51b815260040180806020018281038252602e815260200180611ce1602e913960400191505060405180910390fd5b600054610100900460ff161580156104d6576000805460ff1961ff0019909116610100171660011790555b6104de610ec0565b61051b89898980806020026020016040519081016040528093929190818152602001838360200280828437600092019190915250610ecf92505050565b6105898686868080602002602001604051908101604052809392919081815260200183836020028082843760009201919091525050604080516020808a02828101820190935289825290935089925088918291850190849080828437600092019190915250610f5692505050565b801561059b576000805461ff00191690555b505050505050505050565b336000908152603c602052604081205460ff16610606576040805162461bcd60e51b81526020600482015260196024820152784e6f7420612077686974656c6973746564206164647265737360381b604482015290519081900360640190fd5b603d5460ff1661064b576040805162461bcd60e51b815260206004820152601f6024820152600080516020611c9f833981519152604482015290519081900360640190fd5b603d805460ff19169055826106a0576040805162461bcd60e51b81526020600482015260166024820152754d757374206465706f73697420736f6d657468696e6760501b604482015290519081900360640190fd5b60006106ab8561100e565b8492509050602483156107715760006106c38361107b565b90506106cd6110f7565b60408051636968703360e11b81526001600160a01b038a81166004830152602482018a905261ffff861660448301529151929091169163d2d0e0669160648082019260009290919082900301818387803b15801561072a57600080fd5b505af115801561073e573d6000803e3d6000fd5b50505050600061074d8461107b565b905061076885610763838563ffffffff6111d616565b611218565b945050506107ef565b6107796110f7565b60408051636968703360e11b81526001600160a01b0389811660048301526024820189905261ffff851660448301529151929091169163d2d0e0669160648082019260009290919082900301818387803b1580156107d657600080fd5b505af11580156107ea573d6000803e3d6000fd5b505050505b604080516001600160a01b038481168252602082018690528251908916927f5548c837ab068cf56a2c2479df0882a4922fd203edb7517321831d95078c5f62928290030190a25050603d805460ff191660011790559392505050565b6000806108578361100e565b90506108628161107b565b9392505050565b603e602052600090815260409020546001600160a01b031681565b336000908152603c602052604090205460ff166108e4576040805162461bcd60e51b81526020600482015260196024820152784e6f7420612077686974656c6973746564206164647265737360381b604482015290519081900360640190fd5b603d5460ff16610929576040805162461bcd60e51b815260206004820152601f6024820152600080516020611c9f833981519152604482015290519081900360640190fd5b603d805460ff19169055610940848484808561122d565b5050603d805460ff191660011790555050565b603c6020526000908152604090205460ff1681565b603b546001600160a01b031681565b336000908152603c602052604090205460ff166109d7576040805162461bcd60e51b81526020600482015260196024820152784e6f7420612077686974656c6973746564206164647265737360381b604482015290519081900360640190fd5b603d5460ff16610a1c576040805162461bcd60e51b815260206004820152601f6024820152600080516020611c9f833981519152604482015290519081900360640190fd5b603d805460ff1916905580610a72576040805162461bcd60e51b81526020600482015260176024820152764d75737420776974686472617720736f6d657468696e6760481b604482015290519081900360640190fd5b6001600160a01b038316610ac6576040805162461bcd60e51b8152602060048201526016602482015275135d5cdd081cdc1958da599e481c9958da5c1a595b9d60521b604482015290519081900360640190fd5b610ae06001600160a01b038316848363ffffffff61150f16565b60408051600081526020810183905281516001600160a01b038516927f2717ead6b9200dd235aad468c9809ea400fe33ac69b5bfaa6d3e90fc922b6398928290030190a25050603d805460ff1916600117905550565b610b3e610cd5565b6001600160a01b0316336001600160a01b031614610b9f576040805162461bcd60e51b81526020600482015260196024820152784f6e6c7920676f7665726e6f722063616e206578656375746560381b604482015290519081900360640190fd5b603f546000610bac611561565b905060005b82811015610bec57610be4603f8281548110610bc957fe5b6000918252602090912001546001600160a01b03168361163b565b600101610bb1565b505050565b336000908152603c602052604090205460ff16610c51576040805162461bcd60e51b81526020600482015260196024820152784e6f7420612077686974656c6973746564206164647265737360381b604482015290519081900360640190fd5b603d5460ff16610c96576040805162461bcd60e51b815260206004820152601f6024820152600080516020611c9f833981519152604482015290519081900360640190fd5b603d805460ff19169055610cad858585858561122d565b5050603d805460ff19166001179055505050565b603d5461010090046001600160a01b031681565b603b546040805163030d028960e21b815290516000926001600160a01b031691630c340a24916004808301926020929190829003018186803b158015610d1a57600080fd5b505afa158015610d2e573d6000803e3d6000fd5b505050506040513d6020811015610d4457600080fd5b5051905090565b6001600160a01b038281166000908152603e60205260409020541615610dad576040805162461bcd60e51b81526020600482015260126024820152711c151bdad95b88185b1c9958591e481cd95d60721b604482015290519081900360640190fd5b6001600160a01b03821615801590610dcd57506001600160a01b03811615155b610e12576040805162461bcd60e51b8152602060048201526011602482015270496e76616c69642061646472657373657360781b604482015290519081900360640190fd5b6001600160a01b038083166000818152603e6020908152604080832080549587166001600160a01b03199687168117909155603f805460018101825594527fc03004e3ce0784bf68186394306849f9b7b1200073105cd9aeb554a1802b58fd909301805490951684179094558351918252925191927fef6485b84315f9b1483beffa32aae9a0596890395e3d7521f1c5fbb51790e76592918290030190a26104458282611672565b303b1590565b603d805460ff19166001179055565b610ed882611688565b6000815111610f26576040805162461bcd60e51b8152602060048201526015602482015274456d7074792077686974656c69737420617272617960581b604482015290519081900360640190fd5b60005b8151811015610bec57610f4e828281518110610f4157fe5b6020026020010151611701565b600101610f29565b603d8054610100600160a81b0319166101006001600160a01b03861602179055815181518114610fc4576040805162461bcd60e51b8152602060048201526014602482015273496e76616c696420696e7075742061727261797360601b604482015290519081900360640190fd5b60005b8181101561100757610fff848281518110610fde57fe5b6020026020010151848381518110610ff257fe5b6020026020010151610d4b565b600101610fc7565b5050505050565b6001600160a01b038082166000908152603e602052604081205490911680611075576040805162461bcd60e51b815260206004820152601560248201527418551bdad95b88191bd95cc81b9bdd08195e1a5cdd605a1b604482015290519081900360640190fd5b92915050565b604080516370a0823160e01b815230600482015290516000916001600160a01b038416916370a0823191602480820192602092909190829003018186803b1580156110c557600080fd5b505afa1580156110d9573d6000803e3d6000fd5b505050506040513d60208110156110ef57600080fd5b505192915050565b600080603d60019054906101000a90046001600160a01b03166001600160a01b0316630261bf8b6040518163ffffffff1660e01b815260040160206040518083038186803b15801561114857600080fd5b505afa15801561115c573d6000803e3d6000fd5b505050506040513d602081101561117257600080fd5b505190506001600160a01b0381166111d1576040805162461bcd60e51b815260206004820152601b60248201527f4c656e64696e6720706f6f6c20646f6573206e6f742065786973740000000000604482015290519081900360640190fd5b905090565b600061086283836040518060400160405280601e81526020017f536166654d6174683a207375627472616374696f6e206f766572666c6f7700008152506117fe565b60008183116112275782610862565b50919050565b6000821161127c576040805162461bcd60e51b81526020600482015260176024820152764d75737420776974686472617720736f6d657468696e6760481b604482015290519081900360640190fd5b60006112878561100e565b905083821561143f578385146112ce5760405162461bcd60e51b8152600401808060200182810382526022815260200180611cbf6022913960400191505060405180910390fd5b604080516370a0823160e01b8152306004820152905187916000916001600160a01b038416916370a08231916024808301926020929190829003018186803b15801561131957600080fd5b505afa15801561132d573d6000803e3d6000fd5b505050506040513d602081101561134357600080fd5b50516040805163db006a7560e01b8152600481018a905290519192506001600160a01b0386169163db006a759160248082019260009290919082900301818387803b15801561139157600080fd5b505af11580156113a5573d6000803e3d6000fd5b5050604080516370a0823160e01b81523060048201529051600093506001600160a01b03861692506370a0823191602480820192602092909190829003018186803b1580156113f357600080fd5b505afa158015611407573d6000803e3d6000fd5b505050506040513d602081101561141d57600080fd5b5051905061143584610763838563ffffffff6111d616565b935050505061149e565b816001600160a01b031663db006a75856040518263ffffffff1660e01b815260040180828152602001915050600060405180830381600087803b15801561148557600080fd5b505af1158015611499573d6000803e3d6000fd5b505050505b6114b86001600160a01b038716888363ffffffff61150f16565b604080516001600160a01b038481168252602082018790528183018490529151918816917fb925ac01b9c34cc156a17a1e3da718f364df34eec9d0c9dc4e59c2bb1e7ba54b9181900360600190a250505050505050565b604080516001600160a01b038416602482015260448082018490528251808303909101815260649091019091526020810180516001600160e01b031663a9059cbb60e01b179052610bec908490611895565b600080603d60019054906101000a90046001600160a01b03166001600160a01b031663ed6ff7606040518163ffffffff1660e01b815260040160206040518083038186803b1580156115b257600080fd5b505afa1580156115c6573d6000803e3d6000fd5b505050506040513d60208110156115dc57600080fd5b505190506001600160a01b0381166111d1576040805162461bcd60e51b815260206004820181905260248201527f4c656e64696e6720706f6f6c20636f726520646f6573206e6f74206578697374604482015290519081900360640190fd5b6116566001600160a01b03831682600063ffffffff611a5316565b6104456001600160a01b0383168260001963ffffffff611a5316565b600061167c611561565b9050610bec838261163b565b6001600160a01b0381166116db576040805162461bcd60e51b81526020600482015260156024820152744e657875732061646472657373206973207a65726f60581b604482015290519081900360640190fd5b603b80546001600160a01b0319166001600160a01b0383161790556116fe611b66565b50565b6001600160a01b03811661174e576040805162461bcd60e51b815260206004820152600f60248201526e41646472657373206973207a65726f60881b604482015290519081900360640190fd5b6001600160a01b0381166000908152603c602052604090205460ff16156117b2576040805162461bcd60e51b8152602060048201526013602482015272105b1c9958591e481dda1a5d195b1a5cdd1959606a1b604482015290519081900360640190fd5b6001600160a01b0381166000818152603c6020526040808220805460ff19166001179055517faab7954e9d246b167ef88aeddad35209ca2489d95a8aeb59e288d9b19fae5a549190a250565b6000818484111561188d5760405162461bcd60e51b81526004018080602001828103825283818151815260200191508051906020019080838360005b8381101561185257818101518382015260200161183a565b50505050905090810190601f16801561187f5780820380516001836020036101000a031916815260200191505b509250505060405180910390fd5b505050900390565b6118a7826001600160a01b0316611c62565b6118f8576040805162461bcd60e51b815260206004820152601f60248201527f5361666545524332303a2063616c6c20746f206e6f6e2d636f6e747261637400604482015290519081900360640190fd5b60006060836001600160a01b0316836040518082805190602001908083835b602083106119365780518252601f199092019160209182019101611917565b6001836020036101000a0380198251168184511680821785525050505050509050019150506000604051808303816000865af19150503d8060008114611998576040519150601f19603f3d011682016040523d82523d6000602084013e61199d565b606091505b5091509150816119f4576040805162461bcd60e51b815260206004820181905260248201527f5361666545524332303a206c6f772d6c6576656c2063616c6c206661696c6564604482015290519081900360640190fd5b805115611a4d57808060200190516020811015611a1057600080fd5b5051611a4d5760405162461bcd60e51b815260040180806020018281038252602a815260200180611d0f602a913960400191505060405180910390fd5b50505050565b801580611ad9575060408051636eb1769f60e11b81523060048201526001600160a01b03848116602483015291519185169163dd62ed3e91604480820192602092909190829003018186803b158015611aab57600080fd5b505afa158015611abf573d6000803e3d6000fd5b505050506040513d6020811015611ad557600080fd5b5051155b611b145760405162461bcd60e51b8152600401808060200182810382526036815260200180611d396036913960400191505060405180910390fd5b604080516001600160a01b038416602482015260448082018490528251808303909101815260649091019091526020810180516001600160e01b031663095ea7b360e01b179052610bec908490611895565b6040805169476f7665726e616e636560b01b8152815190819003600a9081018220603355665374616b696e6760c81b82528251918290036007908101832060345569283937bc3ca0b236b4b760b11b835283519283900390910182206035556827b930b1b632a43ab160b91b8252825191829003600990810183206036556626b0b730b3b2b960c91b835283519283900390910182206037556f2932b1b7b63630ba32b930b634b9b2b960811b82528251918290036010018220603855682134b6322a37b5b2b760b91b82528251918290030181206039556d29b0bb34b733b9a6b0b730b3b2b960911b8152905190819003600e019020603a55565b6000813f7fc5d2460186f7233c927e7db2dcc703c0e500b653ca82273b7bfad8045d85a470818114801590611c9657508115155b94935050505056fe5265656e7472616e637947756172643a207265656e7472616e742063616c6c00436163686520696e61637469766520666f7220617373657473207769746820666565436f6e747261637420696e7374616e63652068617320616c7265616479206265656e20696e697469616c697a65645361666545524332303a204552433230206f7065726174696f6e20646964206e6f7420737563636565645361666545524332303a20617070726f76652066726f6d206e6f6e2d7a65726f20746f206e6f6e2d7a65726f20616c6c6f77616e6365a265627a7a723158202f2eafc4f996b7785749d9af3960d22f5afe53de324e60ef1992701d6e36552c64736f6c63430005100032",
  "linkReferences": {},
  "deployedLinkReferences": {}
}