{
  "_format": "hh-sol-artifact-1",
  "contractName": "MockRewardsDistributionRecipient",
  "sourceName": "contracts/z_mocks/rewards/MockRewardsDistributionRecipient.sol",
  "abi": [
    {
      "inputs": [
        {
          "internalType": "contract IERC20",
          "name": "_rewardToken",
          "type": "address"
        }
      ],
      "payable": false,
      "stateMutability": "nonpayable",
      "type": "constructor"
    },
    {
      "constant": true,
      "inputs": [],
      "name": "getRewardToken",
      "outputs": [
        {
          "internalType": "contract IERC20",
          "name": "",
          "type": "address"
        }
      ],
      "payable": false,
      "stateMutability": "view",
      "type": "function"
    },
    {
      "constant": false,
      "inputs": [
        {
          "internalType": "uint256",
          "name": "reward",
          "type": "uint256"
        }
      ],
      "name": "notifyRewardAmount",
      "outputs": [],
      "payable": false,
      "stateMutability": "nonpayable",
      "type": "function"
    },
    {
      "constant": true,
      "inputs": [],
      "name": "rewardToken",
      "outputs": [
        {
          "internalType": "contract IERC20",
          "name": "",
          "type": "address"
        }
      ],
      "payable": false,
      "stateMutability": "view",
      "type": "function"
    }
  ],
  "bytecode": "0x608060405234801561001057600080fd5b5060405161013f38038061013f8339818101604052602081101561003357600080fd5b5051600080546001600160a01b039092166001600160a01b031990921691909117905560db806100646000396000f3fe6080604052348015600f57600080fd5b5060043610603c5760003560e01c80633c6b16ab14604157806369940d7914605d578063f7c618c114607f575b600080fd5b605b60048036036020811015605557600080fd5b50356085565b005b60636088565b604080516001600160a01b039092168252519081900360200190f35b60636097565b50565b6000546001600160a01b031690565b6000546001600160a01b03168156fea265627a7a72315820049752f4da06c84483f6fe971245c14aebb9bec5eab217afe8fbcd5b6f58a7ee64736f6c63430005100032",
  "linkReferences": {},
  "deployedLinkReferences": {}
}