{
  "_format": "hh-sol-artifact-1",
  "contractName": "MockAaveIntegration",
  "sourceName": "contracts/z_mocks/mix/platform-integrations/MockAave.sol",
  "abi": [
    {
      "anonymous": false,
      "inputs": [
        {
          "indexed": true,
          "internalType": "address",
          "name": "_bAsset",
          "type": "address"
        },
        {
          "indexed": false,
          "internalType": "address",
          "name": "_pToken",
          "type": "address"
        },
        {
          "indexed": false,
          "internalType": "uint256",
          "name": "_amount",
          "type": "uint256"
        }
      ],
      "name": "Deposit",
      "type": "event"
    },
    {
      "anonymous": false,
      "inputs": [
        {
          "indexed": true,
          "internalType": "address",
          "name": "_bAsset",
          "type": "address"
        },
        {
          "indexed": false,
          "internalType": "address",
          "name": "_pToken",
          "type": "address"
        }
      ],
      "name": "PTokenAdded",
      "type": "event"
    },
    {
      "anonymous": false,
      "inputs": [
        {
          "indexed": true,
          "internalType": "address",
          "name": "bAsset",
          "type": "address"
        },
        {
          "indexed": false,
          "internalType": "address",
          "name": "pToken",
          "type": "address"
        },
        {
          "indexed": false,
          "internalType": "uint256",
          "name": "totalAmount",
          "type": "uint256"
        },
        {
          "indexed": false,
          "internalType": "uint256",
          "name": "userAmount",
          "type": "uint256"
        }
      ],
      "name": "PlatformWithdrawal",
      "type": "event"
    },
    {
      "anonymous": false,
      "inputs": [
        {
          "indexed": true,
          "internalType": "address",
          "name": "_address",
          "type": "address"
        }
      ],
      "name": "Whitelisted",
      "type": "event"
    },
    {
      "anonymous": false,
      "inputs": [
        {
          "indexed": true,
          "internalType": "address",
          "name": "_bAsset",
          "type": "address"
        },
        {
          "indexed": false,
          "internalType": "address",
          "name": "_pToken",
          "type": "address"
        },
        {
          "indexed": false,
          "internalType": "uint256",
          "name": "_amount",
          "type": "uint256"
        }
      ],
      "name": "Withdrawal",
      "type": "event"
    },
    {
      "constant": true,
      "inputs": [
        {
          "internalType": "address",
          "name": "",
          "type": "address"
        }
      ],
      "name": "bAssetToPToken",
      "outputs": [
        {
          "internalType": "address",
          "name": "",
          "type": "address"
        }
      ],
      "payable": false,
      "stateMutability": "view",
      "type": "function"
    },
    {
      "constant": false,
      "inputs": [
        {
          "internalType": "address",
          "name": "_bAsset",
          "type": "address"
        }
      ],
      "name": "checkBalance",
      "outputs": [
        {
          "internalType": "uint256",
          "name": "balance",
          "type": "uint256"
        }
      ],
      "payable": false,
      "stateMutability": "nonpayable",
      "type": "function"
    },
    {
      "constant": false,
      "inputs": [
        {
          "internalType": "address",
          "name": "_bAsset",
          "type": "address"
        },
        {
          "internalType": "uint256",
          "name": "_amount",
          "type": "uint256"
        },
        {
          "internalType": "bool",
          "name": "_hasTxFee",
          "type": "bool"
        }
      ],
      "name": "deposit",
      "outputs": [
        {
          "internalType": "uint256",
          "name": "quantityDeposited",
          "type": "uint256"
        }
      ],
      "payable": false,
      "stateMutability": "nonpayable",
      "type": "function"
    },
    {
      "constant": true,
      "inputs": [],
      "name": "getBassetsMapped",
      "outputs": [
        {
          "internalType": "address[]",
          "name": "bassets",
          "type": "address[]"
        }
      ],
      "payable": false,
      "stateMutability": "view",
      "type": "function"
    },
    {
      "constant": false,
      "inputs": [
        {
          "internalType": "address",
          "name": "_nexus",
          "type": "address"
        },
        {
          "internalType": "address[]",
          "name": "_whitelisted",
          "type": "address[]"
        },
        {
          "internalType": "address",
          "name": "_platformAddress",
          "type": "address"
        },
        {
          "internalType": "address[]",
          "name": "_bAssets",
          "type": "address[]"
        },
        {
          "internalType": "address[]",
          "name": "_pTokens",
          "type": "address[]"
        }
      ],
      "name": "initialize",
      "outputs": [],
      "payable": false,
      "stateMutability": "nonpayable",
      "type": "function"
    },
    {
      "constant": true,
      "inputs": [
        {
          "internalType": "address",
          "name": "_bAsset",
          "type": "address"
        }
      ],
      "name": "logBalance",
      "outputs": [
        {
          "internalType": "uint256",
          "name": "balance",
          "type": "uint256"
        }
      ],
      "payable": false,
      "stateMutability": "view",
      "type": "function"
    },
    {
      "constant": true,
      "inputs": [],
      "name": "nexus",
      "outputs": [
        {
          "internalType": "contract INexus",
          "name": "",
          "type": "address"
        }
      ],
      "payable": false,
      "stateMutability": "view",
      "type": "function"
    },
    {
      "constant": true,
      "inputs": [],
      "name": "platformAddress",
      "outputs": [
        {
          "internalType": "address",
          "name": "",
          "type": "address"
        }
      ],
      "payable": false,
      "stateMutability": "view",
      "type": "function"
    },
    {
      "constant": false,
      "inputs": [],
      "name": "reApproveAllTokens",
      "outputs": [],
      "payable": false,
      "stateMutability": "nonpayable",
      "type": "function"
    },
    {
      "constant": false,
      "inputs": [
        {
          "internalType": "address",
          "name": "_bAsset",
          "type": "address"
        },
        {
          "internalType": "address",
          "name": "_pToken",
          "type": "address"
        }
      ],
      "name": "setPTokenAddress",
      "outputs": [],
      "payable": false,
      "stateMutability": "nonpayable",
      "type": "function"
    },
    {
      "constant": true,
      "inputs": [
        {
          "internalType": "address",
          "name": "",
          "type": "address"
        }
      ],
      "name": "whitelist",
      "outputs": [
        {
          "internalType": "bool",
          "name": "",
          "type": "bool"
        }
      ],
      "payable": false,
      "stateMutability": "view",
      "type": "function"
    },
    {
      "constant": false,
      "inputs": [
        {
          "internalType": "address",
          "name": "_receiver",
          "type": "address"
        },
        {
          "internalType": "address",
          "name": "_bAsset",
          "type": "address"
        },
        {
          "internalType": "uint256",
          "name": "_amount",
          "type": "uint256"
        },
        {
          "internalType": "bool",
          "name": "_hasTxFee",
          "type": "bool"
        }
      ],
      "name": "withdraw",
      "outputs": [],
      "payable": false,
      "stateMutability": "nonpayable",
      "type": "function"
    },
    {
      "constant": false,
      "inputs": [
        {
          "internalType": "address",
          "name": "_receiver",
          "type": "address"
        },
        {
          "internalType": "address",
          "name": "_bAsset",
          "type": "address"
        },
        {
          "internalType": "uint256",
          "name": "_amount",
          "type": "uint256"
        },
        {
          "internalType": "uint256",
          "name": "_totalAmount",
          "type": "uint256"
        },
        {
          "internalType": "bool",
          "name": "_hasTxFee",
          "type": "bool"
        }
      ],
      "name": "withdraw",
      "outputs": [],
      "payable": false,
      "stateMutability": "nonpayable",
      "type": "function"
    },
    {
      "constant": false,
      "inputs": [
        {
          "internalType": "address",
          "name": "_receiver",
          "type": "address"
        },
        {
          "internalType": "address",
          "name": "_bAsset",
          "type": "address"
        },
        {
          "internalType": "uint256",
          "name": "_amount",
          "type": "uint256"
        }
      ],
      "name": "withdrawRaw",
      "outputs": [],
      "payable": false,
      "stateMutability": "nonpayable",
      "type": "function"
    }
  ],
  "bytecode": "0x608060405234801561001057600080fd5b50611e93806100206000396000f3fe608060405234801561001057600080fd5b50600436106100ea5760003560e01c80639b19251a1161008c578063a755349a11610066578063a755349a1461040c578063c89fc72f14610414578063db067b1b146102ee578063dbe55e5614610458576100ea565b80639b19251a14610394578063a3f5c1d2146103ce578063a4e28595146103d6576100ea565b80633edd1128116100c85780633edd1128146102a85780635f515226146102ee57806371c4658514610314578063934785b714610356576100ea565b80630ed57b3a146100ef57806311505f721461011f578063226559aa14610250575b600080fd5b61011d6004803603604081101561010557600080fd5b506001600160a01b0381358116916020013516610460565b005b61011d600480360360a081101561013557600080fd5b6001600160a01b03823516919081019060408101602082013564010000000081111561016057600080fd5b82018360208201111561017257600080fd5b8035906020019184602083028401116401000000008311171561019457600080fd5b919390926001600160a01b03833516926040810190602001356401000000008111156101bf57600080fd5b8201836020820111156101d157600080fd5b803590602001918460208302840111640100000000831117156101f357600080fd5b91939092909160208101903564010000000081111561021157600080fd5b82018360208201111561022357600080fd5b8035906020019184602083028401116401000000008311171561024557600080fd5b5090925090506104d7565b610258610634565b60408051602080825283518183015283519192839290830191858101910280838360005b8381101561029457818101518382015260200161027c565b505050509050019250505060405180910390f35b6102dc600480360360608110156102be57600080fd5b506001600160a01b0381351690602081013590604001351515610696565b60408051918252519081900360200190f35b6102dc6004803603602081101561030457600080fd5b50356001600160a01b031661093b565b61033a6004803603602081101561032a57600080fd5b50356001600160a01b0316610959565b604080516001600160a01b039092168252519081900360200190f35b61011d6004803603608081101561036c57600080fd5b506001600160a01b038135811691602081013590911690604081013590606001351515610974565b6103ba600480360360208110156103aa57600080fd5b50356001600160a01b0316610a43565b604080519115158252519081900360200190f35b61033a610a58565b61011d600480360360608110156103ec57600080fd5b506001600160a01b03813581169160208101359091169060400135610a67565b61011d610c26565b61011d600480360360a081101561042a57600080fd5b506001600160a01b038135811691602081013590911690604081013590606081013590608001351515610ce1565b61033a610db1565b610468610dc5565b6001600160a01b0316336001600160a01b0316146104c9576040805162461bcd60e51b81526020600482015260196024820152784f6e6c7920676f7665726e6f722063616e206578656375746560381b604482015290519081900360640190fd5b6104d38282610e3b565b5050565b600054610100900460ff16806104f057506104f0610faa565b806104fe575060005460ff16155b6105395760405162461bcd60e51b815260040180806020018281038252602e815260200180611dd1602e913960400191505060405180910390fd5b600054610100900460ff16158015610564576000805460ff1961ff0019909116610100171660011790555b61056c610fb0565b6105a989898980806020026020016040519081016040528093929190818152602001838360200280828437600092019190915250610fbf92505050565b6106178686868080602002602001604051908101604052809392919081815260200183836020028082843760009201919091525050604080516020808a0282810182019093528982529093508992508891829185019084908082843760009201919091525061104692505050565b8015610629576000805461ff00191690555b505050505050505050565b6060603f80548060200260200160405190810160405280929190818152602001828054801561068c57602002820191906000526020600020905b81546001600160a01b0316815260019091019060200180831161066e575b5050505050905090565b336000908152603c602052604081205460ff166106f6576040805162461bcd60e51b81526020600482015260196024820152784e6f7420612077686974656c6973746564206164647265737360381b604482015290519081900360640190fd5b603d5460ff1661073b576040805162461bcd60e51b815260206004820152601f6024820152600080516020611d8f833981519152604482015290519081900360640190fd5b603d805460ff1916905582610790576040805162461bcd60e51b81526020600482015260166024820152754d757374206465706f73697420736f6d657468696e6760501b604482015290519081900360640190fd5b600061079b856110fe565b8492509050602483156108615760006107b38361116b565b90506107bd6111e7565b60408051636968703360e11b81526001600160a01b038a81166004830152602482018a905261ffff861660448301529151929091169163d2d0e0669160648082019260009290919082900301818387803b15801561081a57600080fd5b505af115801561082e573d6000803e3d6000fd5b50505050600061083d8461116b565b905061085885610853838563ffffffff6112c616565b611308565b945050506108df565b6108696111e7565b60408051636968703360e11b81526001600160a01b0389811660048301526024820189905261ffff851660448301529151929091169163d2d0e0669160648082019260009290919082900301818387803b1580156108c657600080fd5b505af11580156108da573d6000803e3d6000fd5b505050505b604080516001600160a01b038481168252602082018690528251908916927f5548c837ab068cf56a2c2479df0882a4922fd203edb7517321831d95078c5f62928290030190a25050603d805460ff191660011790559392505050565b600080610947836110fe565b90506109528161116b565b9392505050565b603e602052600090815260409020546001600160a01b031681565b336000908152603c602052604090205460ff166109d4576040805162461bcd60e51b81526020600482015260196024820152784e6f7420612077686974656c6973746564206164647265737360381b604482015290519081900360640190fd5b603d5460ff16610a19576040805162461bcd60e51b815260206004820152601f6024820152600080516020611d8f833981519152604482015290519081900360640190fd5b603d805460ff19169055610a30848484808561131d565b5050603d805460ff191660011790555050565b603c6020526000908152604090205460ff1681565b603b546001600160a01b031681565b336000908152603c602052604090205460ff16610ac7576040805162461bcd60e51b81526020600482015260196024820152784e6f7420612077686974656c6973746564206164647265737360381b604482015290519081900360640190fd5b603d5460ff16610b0c576040805162461bcd60e51b815260206004820152601f6024820152600080516020611d8f833981519152604482015290519081900360640190fd5b603d805460ff1916905580610b62576040805162461bcd60e51b81526020600482015260176024820152764d75737420776974686472617720736f6d657468696e6760481b604482015290519081900360640190fd5b6001600160a01b038316610bb6576040805162461bcd60e51b8152602060048201526016602482015275135d5cdd081cdc1958da599e481c9958da5c1a595b9d60521b604482015290519081900360640190fd5b610bd06001600160a01b038316848363ffffffff6115ff16565b60408051600081526020810183905281516001600160a01b038516927f2717ead6b9200dd235aad468c9809ea400fe33ac69b5bfaa6d3e90fc922b6398928290030190a25050603d805460ff1916600117905550565b610c2e610dc5565b6001600160a01b0316336001600160a01b031614610c8f576040805162461bcd60e51b81526020600482015260196024820152784f6e6c7920676f7665726e6f722063616e206578656375746560381b604482015290519081900360640190fd5b603f546000610c9c611651565b905060005b82811015610cdc57610cd4603f8281548110610cb957fe5b6000918252602090912001546001600160a01b03168361172b565b600101610ca1565b505050565b336000908152603c602052604090205460ff16610d41576040805162461bcd60e51b81526020600482015260196024820152784e6f7420612077686974656c6973746564206164647265737360381b604482015290519081900360640190fd5b603d5460ff16610d86576040805162461bcd60e51b815260206004820152601f6024820152600080516020611d8f833981519152604482015290519081900360640190fd5b603d805460ff19169055610d9d858585858561131d565b5050603d805460ff19166001179055505050565b603d5461010090046001600160a01b031681565b603b546040805163030d028960e21b815290516000926001600160a01b031691630c340a24916004808301926020929190829003018186803b158015610e0a57600080fd5b505afa158015610e1e573d6000803e3d6000fd5b505050506040513d6020811015610e3457600080fd5b5051905090565b6001600160a01b038281166000908152603e60205260409020541615610e9d576040805162461bcd60e51b81526020600482015260126024820152711c151bdad95b88185b1c9958591e481cd95d60721b604482015290519081900360640190fd5b6001600160a01b03821615801590610ebd57506001600160a01b03811615155b610f02576040805162461bcd60e51b8152602060048201526011602482015270496e76616c69642061646472657373657360781b604482015290519081900360640190fd5b6001600160a01b038083166000818152603e6020908152604080832080549587166001600160a01b03199687168117909155603f805460018101825594527fc03004e3ce0784bf68186394306849f9b7b1200073105cd9aeb554a1802b58fd909301805490951684179094558351918252925191927fef6485b84315f9b1483beffa32aae9a0596890395e3d7521f1c5fbb51790e76592918290030190a26104d38282611762565b303b1590565b603d805460ff19166001179055565b610fc882611778565b6000815111611016576040805162461bcd60e51b8152602060048201526015602482015274456d7074792077686974656c69737420617272617960581b604482015290519081900360640190fd5b60005b8151811015610cdc5761103e82828151811061103157fe5b60200260200101516117f1565b600101611019565b603d8054610100600160a81b0319166101006001600160a01b038616021790558151815181146110b4576040805162461bcd60e51b8152602060048201526014602482015273496e76616c696420696e7075742061727261797360601b604482015290519081900360640190fd5b60005b818110156110f7576110ef8482815181106110ce57fe5b60200260200101518483815181106110e257fe5b6020026020010151610e3b565b6001016110b7565b5050505050565b6001600160a01b038082166000908152603e602052604081205490911680611165576040805162461bcd60e51b815260206004820152601560248201527418551bdad95b88191bd95cc81b9bdd08195e1a5cdd605a1b604482015290519081900360640190fd5b92915050565b604080516370a0823160e01b815230600482015290516000916001600160a01b038416916370a0823191602480820192602092909190829003018186803b1580156111b557600080fd5b505afa1580156111c9573d6000803e3d6000fd5b505050506040513d60208110156111df57600080fd5b505192915050565b600080603d60019054906101000a90046001600160a01b03166001600160a01b0316630261bf8b6040518163ffffffff1660e01b815260040160206040518083038186803b15801561123857600080fd5b505afa15801561124c573d6000803e3d6000fd5b505050506040513d602081101561126257600080fd5b505190506001600160a01b0381166112c1576040805162461bcd60e51b815260206004820152601b60248201527f4c656e64696e6720706f6f6c20646f6573206e6f742065786973740000000000604482015290519081900360640190fd5b905090565b600061095283836040518060400160405280601e81526020017f536166654d6174683a207375627472616374696f6e206f766572666c6f7700008152506118ee565b60008183116113175782610952565b50919050565b6000821161136c576040805162461bcd60e51b81526020600482015260176024820152764d75737420776974686472617720736f6d657468696e6760481b604482015290519081900360640190fd5b6000611377856110fe565b905083821561152f578385146113be5760405162461bcd60e51b8152600401808060200182810382526022815260200180611daf6022913960400191505060405180910390fd5b604080516370a0823160e01b8152306004820152905187916000916001600160a01b038416916370a08231916024808301926020929190829003018186803b15801561140957600080fd5b505afa15801561141d573d6000803e3d6000fd5b505050506040513d602081101561143357600080fd5b50516040805163db006a7560e01b8152600481018a905290519192506001600160a01b0386169163db006a759160248082019260009290919082900301818387803b15801561148157600080fd5b505af1158015611495573d6000803e3d6000fd5b5050604080516370a0823160e01b81523060048201529051600093506001600160a01b03861692506370a0823191602480820192602092909190829003018186803b1580156114e357600080fd5b505afa1580156114f7573d6000803e3d6000fd5b505050506040513d602081101561150d57600080fd5b5051905061152584610853838563ffffffff6112c616565b935050505061158e565b816001600160a01b031663db006a75856040518263ffffffff1660e01b815260040180828152602001915050600060405180830381600087803b15801561157557600080fd5b505af1158015611589573d6000803e3d6000fd5b505050505b6115a86001600160a01b038716888363ffffffff6115ff16565b604080516001600160a01b038481168252602082018790528183018490529151918816917fb925ac01b9c34cc156a17a1e3da718f364df34eec9d0c9dc4e59c2bb1e7ba54b9181900360600190a250505050505050565b604080516001600160a01b038416602482015260448082018490528251808303909101815260649091019091526020810180516001600160e01b031663a9059cbb60e01b179052610cdc908490611985565b600080603d60019054906101000a90046001600160a01b03166001600160a01b031663ed6ff7606040518163ffffffff1660e01b815260040160206040518083038186803b1580156116a257600080fd5b505afa1580156116b6573d6000803e3d6000fd5b505050506040513d60208110156116cc57600080fd5b505190506001600160a01b0381166112c1576040805162461bcd60e51b815260206004820181905260248201527f4c656e64696e6720706f6f6c20636f726520646f6573206e6f74206578697374604482015290519081900360640190fd5b6117466001600160a01b03831682600063ffffffff611b4316565b6104d36001600160a01b0383168260001963ffffffff611b4316565b600061176c611651565b9050610cdc838261172b565b6001600160a01b0381166117cb576040805162461bcd60e51b81526020600482015260156024820152744e657875732061646472657373206973207a65726f60581b604482015290519081900360640190fd5b603b80546001600160a01b0319166001600160a01b0383161790556117ee611c56565b50565b6001600160a01b03811661183e576040805162461bcd60e51b815260206004820152600f60248201526e41646472657373206973207a65726f60881b604482015290519081900360640190fd5b6001600160a01b0381166000908152603c602052604090205460ff16156118a2576040805162461bcd60e51b8152602060048201526013602482015272105b1c9958591e481dda1a5d195b1a5cdd1959606a1b604482015290519081900360640190fd5b6001600160a01b0381166000818152603c6020526040808220805460ff19166001179055517faab7954e9d246b167ef88aeddad35209ca2489d95a8aeb59e288d9b19fae5a549190a250565b6000818484111561197d5760405162461bcd60e51b81526004018080602001828103825283818151815260200191508051906020019080838360005b8381101561194257818101518382015260200161192a565b50505050905090810190601f16801561196f5780820380516001836020036101000a031916815260200191505b509250505060405180910390fd5b505050900390565b611997826001600160a01b0316611d52565b6119e8576040805162461bcd60e51b815260206004820152601f60248201527f5361666545524332303a2063616c6c20746f206e6f6e2d636f6e747261637400604482015290519081900360640190fd5b60006060836001600160a01b0316836040518082805190602001908083835b60208310611a265780518252601f199092019160209182019101611a07565b6001836020036101000a0380198251168184511680821785525050505050509050019150506000604051808303816000865af19150503d8060008114611a88576040519150601f19603f3d011682016040523d82523d6000602084013e611a8d565b606091505b509150915081611ae4576040805162461bcd60e51b815260206004820181905260248201527f5361666545524332303a206c6f772d6c6576656c2063616c6c206661696c6564604482015290519081900360640190fd5b805115611b3d57808060200190516020811015611b0057600080fd5b5051611b3d5760405162461bcd60e51b815260040180806020018281038252602a815260200180611dff602a913960400191505060405180910390fd5b50505050565b801580611bc9575060408051636eb1769f60e11b81523060048201526001600160a01b03848116602483015291519185169163dd62ed3e91604480820192602092909190829003018186803b158015611b9b57600080fd5b505afa158015611baf573d6000803e3d6000fd5b505050506040513d6020811015611bc557600080fd5b5051155b611c045760405162461bcd60e51b8152600401808060200182810382526036815260200180611e296036913960400191505060405180910390fd5b604080516001600160a01b038416602482015260448082018490528251808303909101815260649091019091526020810180516001600160e01b031663095ea7b360e01b179052610cdc908490611985565b6040805169476f7665726e616e636560b01b8152815190819003600a9081018220603355665374616b696e6760c81b82528251918290036007908101832060345569283937bc3ca0b236b4b760b11b835283519283900390910182206035556827b930b1b632a43ab160b91b8252825191829003600990810183206036556626b0b730b3b2b960c91b835283519283900390910182206037556f2932b1b7b63630ba32b930b634b9b2b960811b82528251918290036010018220603855682134b6322a37b5b2b760b91b82528251918290030181206039556d29b0bb34b733b9a6b0b730b3b2b960911b8152905190819003600e019020603a55565b6000813f7fc5d2460186f7233c927e7db2dcc703c0e500b653ca82273b7bfad8045d85a470818114801590611d8657508115155b94935050505056fe5265656e7472616e637947756172643a207265656e7472616e742063616c6c00436163686520696e61637469766520666f7220617373657473207769746820666565436f6e747261637420696e7374616e63652068617320616c7265616479206265656e20696e697469616c697a65645361666545524332303a204552433230206f7065726174696f6e20646964206e6f7420737563636565645361666545524332303a20617070726f76652066726f6d206e6f6e2d7a65726f20746f206e6f6e2d7a65726f20616c6c6f77616e6365a265627a7a72315820fd1ef450a9d1a553902b4add88728248edf48b6ad630714c9060eb71ee76364d64736f6c63430005100032",
  "linkReferences": {},
  "deployedLinkReferences": {}
}