{
  "_format": "hh-sol-artifact-1",
  "contractName": "MockAaveV2",
  "sourceName": "contracts/z_mocks/mix/platform-integrations/MockAave.sol",
  "abi": [
    {
      "constant": false,
      "inputs": [
        {
          "internalType": "address",
          "name": "_aToken",
          "type": "address"
        },
        {
          "internalType": "address",
          "name": "_underlying",
          "type": "address"
        }
      ],
      "name": "addAToken",
      "outputs": [],
      "payable": false,
      "stateMutability": "nonpayable",
      "type": "function"
    },
    {
      "constant": false,
      "inputs": [],
      "name": "breakLendingPools",
      "outputs": [],
      "payable": false,
      "stateMutability": "nonpayable",
      "type": "function"
    },
    {
      "constant": false,
      "inputs": [
        {
          "internalType": "address",
          "name": "_reserve",
          "type": "address"
        },
        {
          "internalType": "uint256",
          "name": "_amount",
          "type": "uint256"
        },
        {
          "internalType": "address",
          "name": "",
          "type": "address"
        },
        {
          "internalType": "uint16",
          "name": "",
          "type": "uint16"
        }
      ],
      "name": "deposit",
      "outputs": [],
      "payable": false,
      "stateMutability": "nonpayable",
      "type": "function"
    },
    {
      "constant": true,
      "inputs": [],
      "name": "getLendingPool",
      "outputs": [
        {
          "internalType": "address",
          "name": "",
          "type": "address"
        }
      ],
      "payable": false,
      "stateMutability": "view",
      "type": "function"
    },
    {
      "constant": false,
      "inputs": [
        {
          "internalType": "address",
          "name": "reserve",
          "type": "address"
        },
        {
          "internalType": "uint256",
          "name": "amount",
          "type": "uint256"
        },
        {
          "internalType": "address",
          "name": "to",
          "type": "address"
        }
      ],
      "name": "withdraw",
      "outputs": [],
      "payable": false,
      "stateMutability": "nonpayable",
      "type": "function"
    }
  ],
  "bytecode": "0x608060405260018054306001600160a01b0319918216811790925560028054909116909117905534801561003257600080fd5b50610c44806100426000396000f3fe608060405234801561001057600080fd5b50600436106100575760003560e01c80630261bf8b1461005c578063180326ba1461008057806369328dec1461008a578063811711c7146100c0578063e8eda9df146100ee575b600080fd5b61006461012d565b604080516001600160a01b039092168252519081900360200190f35b61008861013c565b005b610088600480360360608110156100a057600080fd5b506001600160a01b0381358116916020810135916040909101351661015a565b610088600480360360408110156100d657600080fd5b506001600160a01b0381358116916020013516610260565b6100886004803603608081101561010457600080fd5b5080356001600160a01b0390811691602081013591604082013516906060013561ffff1661029a565b6001546001600160a01b031690565b600180546001600160a01b0319908116909155600280549091169055565b6001600160a01b03808416600090815260208190526040808220548151632770a7eb60e21b8152336004820152602481018790529151931692639dc29fac9260448084019391929182900301818387803b1580156101b757600080fd5b505af11580156101cb573d6000803e3d6000fd5b50505050826001600160a01b031663a9059cbb82846040518363ffffffff1660e01b815260040180836001600160a01b03166001600160a01b0316815260200182815260200192505050602060405180830381600087803b15801561022f57600080fd5b505af1158015610243573d6000803e3d6000fd5b505050506040513d602081101561025957600080fd5b5050505050565b61026a818361047c565b6001600160a01b0390811660009081526020819052604090208054919092166001600160a01b0319909116179055565b6001600160a01b038085166000908152602081815260408083205481516370a0823160e01b81523360048201529151939416926370a0823192602480840193919291829003018186803b1580156102f057600080fd5b505afa158015610304573d6000803e3d6000fd5b505050506040513d602081101561031a57600080fd5b505190506512309ce54000600061034f670de0b6b3a7640000610343858563ffffffff6104b716565b9063ffffffff61051916565b6001600160a01b038089166000908152602081815260408083205481516340c10f1960e01b8152336004820152602481018790529151959650909316936340c10f1993604480820194918390030190829087803b1580156103af57600080fd5b505af11580156103c3573d6000803e3d6000fd5b505050506040513d60208110156103d957600080fd5b506103ea905033308960018a61055b565b506001600160a01b038088166000908152602081815260408083205481516340c10f1960e01b8152336004820152602481018c905291519416936340c10f1993604480840194938390030190829087803b15801561044757600080fd5b505af115801561045b573d6000803e3d6000fd5b505050506040513d602081101561047157600080fd5b505050505050505050565b6104976001600160a01b03831682600063ffffffff6106cf16565b6104b36001600160a01b0383168260001963ffffffff6106cf16565b5050565b6000826104c657506000610513565b828202828482816104d357fe5b04146105105760405162461bcd60e51b8152600401808060200182810382526021815260200180610b8f6021913960400191505060405180910390fd5b90505b92915050565b600061051083836040518060400160405280601a81526020017f536166654d6174683a206469766973696f6e206279207a65726f0000000000008152506107e7565b8082156106ab576000846001600160a01b03166370a08231876040518263ffffffff1660e01b815260040180826001600160a01b03166001600160a01b0316815260200191505060206040518083038186803b1580156105ba57600080fd5b505afa1580156105ce573d6000803e3d6000fd5b505050506040513d60208110156105e457600080fd5b505190506106036001600160a01b03861688888663ffffffff61088916565b6000856001600160a01b03166370a08231886040518263ffffffff1660e01b815260040180826001600160a01b03166001600160a01b0316815260200191505060206040518083038186803b15801561065b57600080fd5b505afa15801561066f573d6000803e3d6000fd5b505050506040513d602081101561068557600080fd5b505190506106a28461069d838563ffffffff6108e916565b61092b565b925050506106c6565b6106c66001600160a01b03851687878563ffffffff61088916565b95945050505050565b801580610755575060408051636eb1769f60e11b81523060048201526001600160a01b03848116602483015291519185169163dd62ed3e91604480820192602092909190829003018186803b15801561072757600080fd5b505afa15801561073b573d6000803e3d6000fd5b505050506040513d602081101561075157600080fd5b5051155b6107905760405162461bcd60e51b8152600401808060200182810382526036815260200180610bda6036913960400191505060405180910390fd5b604080516001600160a01b038416602482015260448082018490528251808303909101815260649091019091526020810180516001600160e01b031663095ea7b360e01b1790526107e2908490610940565b505050565b600081836108735760405162461bcd60e51b81526004018080602001828103825283818151815260200191508051906020019080838360005b83811015610838578181015183820152602001610820565b50505050905090810190601f1680156108655780820380516001836020036101000a031916815260200191505b509250505060405180910390fd5b50600083858161087f57fe5b0495945050505050565b604080516001600160a01b0385811660248301528416604482015260648082018490528251808303909101815260849091019091526020810180516001600160e01b03166323b872dd60e01b1790526108e3908590610940565b50505050565b600061051083836040518060400160405280601e81526020017f536166654d6174683a207375627472616374696f6e206f766572666c6f770000815250610af8565b600081831161093a5782610510565b50919050565b610952826001600160a01b0316610b52565b6109a3576040805162461bcd60e51b815260206004820152601f60248201527f5361666545524332303a2063616c6c20746f206e6f6e2d636f6e747261637400604482015290519081900360640190fd5b60006060836001600160a01b0316836040518082805190602001908083835b602083106109e15780518252601f1990920191602091820191016109c2565b6001836020036101000a0380198251168184511680821785525050505050509050019150506000604051808303816000865af19150503d8060008114610a43576040519150601f19603f3d011682016040523d82523d6000602084013e610a48565b606091505b509150915081610a9f576040805162461bcd60e51b815260206004820181905260248201527f5361666545524332303a206c6f772d6c6576656c2063616c6c206661696c6564604482015290519081900360640190fd5b8051156108e357808060200190516020811015610abb57600080fd5b50516108e35760405162461bcd60e51b815260040180806020018281038252602a815260200180610bb0602a913960400191505060405180910390fd5b60008184841115610b4a5760405162461bcd60e51b8152602060048201818152835160248401528351909283926044909101919085019080838360008315610838578181015183820152602001610820565b505050900390565b6000813f7fc5d2460186f7233c927e7db2dcc703c0e500b653ca82273b7bfad8045d85a470818114801590610b8657508115155b94935050505056fe536166654d6174683a206d756c7469706c69636174696f6e206f766572666c6f775361666545524332303a204552433230206f7065726174696f6e20646964206e6f7420737563636565645361666545524332303a20617070726f76652066726f6d206e6f6e2d7a65726f20746f206e6f6e2d7a65726f20616c6c6f77616e6365a265627a7a723158205c1abac5f3b6f5c47f3ce6b6f79cc76a2538f5c02f2b05100c2d64f9150ca7be64736f6c63430005100032",
  "linkReferences": {},
  "deployedLinkReferences": {}
}