{
  "_format": "hh-sol-artifact-1",
  "contractName": "MockAToken",
  "sourceName": "contracts/z_mocks/mix/platform-integrations/MockAave.sol",
  "abi": [
    {
      "inputs": [
        {
          "internalType": "address",
          "name": "_lendingPool",
          "type": "address"
        },
        {
          "internalType": "contract IERC20",
          "name": "_underlyingToken",
          "type": "address"
        }
      ],
      "payable": false,
      "stateMutability": "nonpayable",
      "type": "constructor"
    },
    {
      "anonymous": false,
      "inputs": [
        {
          "indexed": true,
          "internalType": "address",
          "name": "owner",
          "type": "address"
        },
        {
          "indexed": true,
          "internalType": "address",
          "name": "spender",
          "type": "address"
        },
        {
          "indexed": false,
          "internalType": "uint256",
          "name": "value",
          "type": "uint256"
        }
      ],
      "name": "Approval",
      "type": "event"
    },
    {
      "anonymous": false,
      "inputs": [
        {
          "indexed": true,
          "internalType": "address",
          "name": "account",
          "type": "address"
        }
      ],
      "name": "MinterAdded",
      "type": "event"
    },
    {
      "anonymous": false,
      "inputs": [
        {
          "indexed": true,
          "internalType": "address",
          "name": "account",
          "type": "address"
        }
      ],
      "name": "MinterRemoved",
      "type": "event"
    },
    {
      "anonymous": false,
      "inputs": [
        {
          "indexed": true,
          "internalType": "address",
          "name": "from",
          "type": "address"
        },
        {
          "indexed": true,
          "internalType": "address",
          "name": "to",
          "type": "address"
        },
        {
          "indexed": false,
          "internalType": "uint256",
          "name": "value",
          "type": "uint256"
        }
      ],
      "name": "Transfer",
      "type": "event"
    },
    {
      "constant": false,
      "inputs": [
        {
          "internalType": "address",
          "name": "account",
          "type": "address"
        }
      ],
      "name": "addMinter",
      "outputs": [],
      "payable": false,
      "stateMutability": "nonpayable",
      "type": "function"
    },
    {
      "constant": true,
      "inputs": [
        {
          "internalType": "address",
          "name": "owner",
          "type": "address"
        },
        {
          "internalType": "address",
          "name": "spender",
          "type": "address"
        }
      ],
      "name": "allowance",
      "outputs": [
        {
          "internalType": "uint256",
          "name": "",
          "type": "uint256"
        }
      ],
      "payable": false,
      "stateMutability": "view",
      "type": "function"
    },
    {
      "constant": false,
      "inputs": [
        {
          "internalType": "address",
          "name": "spender",
          "type": "address"
        },
        {
          "internalType": "uint256",
          "name": "amount",
          "type": "uint256"
        }
      ],
      "name": "approve",
      "outputs": [
        {
          "internalType": "bool",
          "name": "",
          "type": "bool"
        }
      ],
      "payable": false,
      "stateMutability": "nonpayable",
      "type": "function"
    },
    {
      "constant": true,
      "inputs": [
        {
          "internalType": "address",
          "name": "account",
          "type": "address"
        }
      ],
      "name": "balanceOf",
      "outputs": [
        {
          "internalType": "uint256",
          "name": "",
          "type": "uint256"
        }
      ],
      "payable": false,
      "stateMutability": "view",
      "type": "function"
    },
    {
      "constant": false,
      "inputs": [
        {
          "internalType": "address",
          "name": "spender",
          "type": "address"
        },
        {
          "internalType": "uint256",
          "name": "subtractedValue",
          "type": "uint256"
        }
      ],
      "name": "decreaseAllowance",
      "outputs": [
        {
          "internalType": "bool",
          "name": "",
          "type": "bool"
        }
      ],
      "payable": false,
      "stateMutability": "nonpayable",
      "type": "function"
    },
    {
      "constant": false,
      "inputs": [
        {
          "internalType": "address",
          "name": "spender",
          "type": "address"
        },
        {
          "internalType": "uint256",
          "name": "addedValue",
          "type": "uint256"
        }
      ],
      "name": "increaseAllowance",
      "outputs": [
        {
          "internalType": "bool",
          "name": "",
          "type": "bool"
        }
      ],
      "payable": false,
      "stateMutability": "nonpayable",
      "type": "function"
    },
    {
      "constant": true,
      "inputs": [
        {
          "internalType": "address",
          "name": "account",
          "type": "address"
        }
      ],
      "name": "isMinter",
      "outputs": [
        {
          "internalType": "bool",
          "name": "",
          "type": "bool"
        }
      ],
      "payable": false,
      "stateMutability": "view",
      "type": "function"
    },
    {
      "constant": true,
      "inputs": [],
      "name": "lendingPool",
      "outputs": [
        {
          "internalType": "address",
          "name": "",
          "type": "address"
        }
      ],
      "payable": false,
      "stateMutability": "view",
      "type": "function"
    },
    {
      "constant": false,
      "inputs": [
        {
          "internalType": "address",
          "name": "account",
          "type": "address"
        },
        {
          "internalType": "uint256",
          "name": "amount",
          "type": "uint256"
        }
      ],
      "name": "mint",
      "outputs": [
        {
          "internalType": "bool",
          "name": "",
          "type": "bool"
        }
      ],
      "payable": false,
      "stateMutability": "nonpayable",
      "type": "function"
    },
    {
      "constant": false,
      "inputs": [
        {
          "internalType": "uint256",
          "name": "_amount",
          "type": "uint256"
        }
      ],
      "name": "redeem",
      "outputs": [],
      "payable": false,
      "stateMutability": "nonpayable",
      "type": "function"
    },
    {
      "constant": false,
      "inputs": [],
      "name": "renounceMinter",
      "outputs": [],
      "payable": false,
      "stateMutability": "nonpayable",
      "type": "function"
    },
    {
      "constant": true,
      "inputs": [],
      "name": "totalSupply",
      "outputs": [
        {
          "internalType": "uint256",
          "name": "",
          "type": "uint256"
        }
      ],
      "payable": false,
      "stateMutability": "view",
      "type": "function"
    },
    {
      "constant": false,
      "inputs": [
        {
          "internalType": "address",
          "name": "recipient",
          "type": "address"
        },
        {
          "internalType": "uint256",
          "name": "amount",
          "type": "uint256"
        }
      ],
      "name": "transfer",
      "outputs": [
        {
          "internalType": "bool",
          "name": "",
          "type": "bool"
        }
      ],
      "payable": false,
      "stateMutability": "nonpayable",
      "type": "function"
    },
    {
      "constant": false,
      "inputs": [
        {
          "internalType": "address",
          "name": "sender",
          "type": "address"
        },
        {
          "internalType": "address",
          "name": "recipient",
          "type": "address"
        },
        {
          "internalType": "uint256",
          "name": "amount",
          "type": "uint256"
        }
      ],
      "name": "transferFrom",
      "outputs": [
        {
          "internalType": "bool",
          "name": "",
          "type": "bool"
        }
      ],
      "payable": false,
      "stateMutability": "nonpayable",
      "type": "function"
    },
    {
      "constant": true,
      "inputs": [],
      "name": "underlyingToken",
      "outputs": [
        {
          "internalType": "contract IERC20",
          "name": "",
          "type": "address"
        }
      ],
      "payable": false,
      "stateMutability": "view",
      "type": "function"
    }
  ],
  "bytecode": "0x60806040523480156200001157600080fd5b50604051620014d1380380620014d1833981810160405260408110156200003757600080fd5b50805160209091015162000066620000576001600160e01b03620000b216565b6001600160e01b03620000b616565b600480546001600160a01b038085166001600160a01b0319928316179092556005805492841692909116919091179055620000aa826001600160e01b036200010816565b50506200029b565b3390565b620000d18160036200018260201b62000ca01790919060201c565b6040516001600160a01b038216907f6ae172837ea30b801fbfcdd4108aa1d5bf8ff775444fd70256b44e6bf3dfc3f690600090a250565b6200012e6200011f6001600160e01b03620000b216565b6001600160e01b036200020f16565b6200016b5760405162461bcd60e51b81526004018080602001828103825260308152602001806200147f6030913960400191505060405180910390fd5b6200017f816001600160e01b03620000b616565b50565b6200019782826001600160e01b036200023216565b15620001ea576040805162461bcd60e51b815260206004820152601f60248201527f526f6c65733a206163636f756e7420616c72656164792068617320726f6c6500604482015290519081900360640190fd5b6001600160a01b0316600090815260209190915260409020805460ff19166001179055565b60006200022c8260036200023260201b62000add1790919060201c565b92915050565b60006001600160a01b0382166200027b5760405162461bcd60e51b8152600401808060200182810382526022815260200180620014af6022913960400191505060405180910390fd5b506001600160a01b03166000908152602091909152604090205460ff1690565b6111d480620002ab6000396000f3fe608060405234801561001057600080fd5b50600436106100f55760003560e01c8063983b2d5611610097578063a9059cbb11610066578063a9059cbb14610290578063aa271e1a146102bc578063db006a75146102e2578063dd62ed3e146102ff576100f5565b8063983b2d561461022c5780639865027514610254578063a457c2d71461025c578063a59a997314610288576100f5565b80632495a599116100d35780632495a5991461018a57806339509351146101ae57806340c10f19146101da57806370a0823114610206576100f5565b8063095ea7b3146100fa57806318160ddd1461013a57806323b872dd14610154575b600080fd5b6101266004803603604081101561011057600080fd5b506001600160a01b03813516906020013561032d565b604080519115158252519081900360200190f35b61014261034a565b60408051918252519081900360200190f35b6101266004803603606081101561016a57600080fd5b506001600160a01b03813581169160208101359091169060400135610350565b6101926103dd565b604080516001600160a01b039092168252519081900360200190f35b610126600480360360408110156101c457600080fd5b506001600160a01b0381351690602001356103ec565b610126600480360360408110156101f057600080fd5b506001600160a01b038135169060200135610440565b6101426004803603602081101561021c57600080fd5b50356001600160a01b0316610497565b6102526004803603602081101561024257600080fd5b50356001600160a01b03166104b2565b005b610252610504565b6101266004803603604081101561027257600080fd5b506001600160a01b038135169060200135610516565b610192610584565b610126600480360360408110156102a657600080fd5b506001600160a01b038135169060200135610593565b610126600480360360208110156102d257600080fd5b50356001600160a01b03166105a7565b610252600480360360208110156102f857600080fd5b50356105c0565b6101426004803603604081101561031557600080fd5b506001600160a01b03813581169160200135166105ee565b600061034161033a610619565b848461061d565b50600192915050565b60025490565b600061035d848484610709565b6103d384610369610619565b6103ce8560405180606001604052806028815260200161109d602891396001600160a01b038a166000908152600160205260408120906103a7610619565b6001600160a01b03168152602081019190915260400160002054919063ffffffff61086516565b61061d565b5060019392505050565b6005546001600160a01b031681565b60006103416103f9610619565b846103ce856001600061040a610619565b6001600160a01b03908116825260208083019390935260409182016000908120918c16815292529020549063ffffffff6108fc16565b600061045261044d610619565b6105a7565b61048d5760405162461bcd60e51b815260040180806020018281038252603081526020018061104c6030913960400191505060405180910390fd5b610341838361095d565b6001600160a01b031660009081526020819052604090205490565b6104bd61044d610619565b6104f85760405162461bcd60e51b815260040180806020018281038252603081526020018061104c6030913960400191505060405180910390fd5b61050181610a4d565b50565b61051461050f610619565b610a95565b565b6000610341610523610619565b846103ce8560405180606001604052806025815260200161117b602591396001600061054d610619565b6001600160a01b03908116825260208083019390935260409182016000908120918d1681529252902054919063ffffffff61086516565b6004546001600160a01b031681565b60006103416105a0610619565b8484610709565b60006105ba60038363ffffffff610add16565b92915050565b6105ca3382610b44565b600454600554610501916001600160a01b039182169116338463ffffffff610c4016565b6001600160a01b03918216600090815260016020908152604080832093909416825291909152205490565b3390565b6001600160a01b0383166106625760405162461bcd60e51b815260040180806020018281038252602481526020018061112d6024913960400191505060405180910390fd5b6001600160a01b0382166106a75760405162461bcd60e51b81526004018080602001828103825260228152602001806110046022913960400191505060405180910390fd5b6001600160a01b03808416600081815260016020908152604080832094871680845294825291829020859055815185815291517f8c5be1e5ebec7d5bd14f71427d1e84f3dd0314c0f7b2291e5b200ac8c7c3b9259281900390910190a3505050565b6001600160a01b03831661074e5760405162461bcd60e51b81526004018080602001828103825260258152602001806111086025913960400191505060405180910390fd5b6001600160a01b0382166107935760405162461bcd60e51b8152600401808060200182810382526023815260200180610fbf6023913960400191505060405180910390fd5b6107d681604051806060016040528060268152602001611026602691396001600160a01b038616600090815260208190526040902054919063ffffffff61086516565b6001600160a01b03808516600090815260208190526040808220939093559084168152205461080b908263ffffffff6108fc16565b6001600160a01b038084166000818152602081815260409182902094909455805185815290519193928716927fddf252ad1be2c89b69c2b068fc378daa952ba7f163c4a11628f55a4df523b3ef92918290030190a3505050565b600081848411156108f45760405162461bcd60e51b81526004018080602001828103825283818151815260200191508051906020019080838360005b838110156108b95781810151838201526020016108a1565b50505050905090810190601f1680156108e65780820380516001836020036101000a031916815260200191505b509250505060405180910390fd5b505050900390565b600082820183811015610956576040805162461bcd60e51b815260206004820152601b60248201527f536166654d6174683a206164646974696f6e206f766572666c6f770000000000604482015290519081900360640190fd5b9392505050565b6001600160a01b0382166109b8576040805162461bcd60e51b815260206004820152601f60248201527f45524332303a206d696e7420746f20746865207a65726f206164647265737300604482015290519081900360640190fd5b6002546109cb908263ffffffff6108fc16565b6002556001600160a01b0382166000908152602081905260409020546109f7908263ffffffff6108fc16565b6001600160a01b0383166000818152602081815260408083209490945583518581529351929391927fddf252ad1be2c89b69c2b068fc378daa952ba7f163c4a11628f55a4df523b3ef9281900390910190a35050565b610a5e60038263ffffffff610ca016565b6040516001600160a01b038216907f6ae172837ea30b801fbfcdd4108aa1d5bf8ff775444fd70256b44e6bf3dfc3f690600090a250565b610aa660038263ffffffff610d2116565b6040516001600160a01b038216907fe94479a9f7e1952cc78f2d6baab678adc1b772d936c6583def489e524cb6669290600090a250565b60006001600160a01b038216610b245760405162461bcd60e51b81526004018080602001828103825260228152602001806110c56022913960400191505060405180910390fd5b506001600160a01b03166000908152602091909152604090205460ff1690565b6001600160a01b038216610b895760405162461bcd60e51b81526004018080602001828103825260218152602001806110e76021913960400191505060405180910390fd5b610bcc81604051806060016040528060228152602001610fe2602291396001600160a01b038516600090815260208190526040902054919063ffffffff61086516565b6001600160a01b038316600090815260208190526040902055600254610bf8908263ffffffff610d8816565b6002556040805182815290516000916001600160a01b038516917fddf252ad1be2c89b69c2b068fc378daa952ba7f163c4a11628f55a4df523b3ef9181900360200190a35050565b604080516001600160a01b0385811660248301528416604482015260648082018490528251808303909101815260849091019091526020810180516001600160e01b03166323b872dd60e01b179052610c9a908590610dca565b50505050565b610caa8282610add565b15610cfc576040805162461bcd60e51b815260206004820152601f60248201527f526f6c65733a206163636f756e7420616c72656164792068617320726f6c6500604482015290519081900360640190fd5b6001600160a01b0316600090815260209190915260409020805460ff19166001179055565b610d2b8282610add565b610d665760405162461bcd60e51b815260040180806020018281038252602181526020018061107c6021913960400191505060405180910390fd5b6001600160a01b0316600090815260209190915260409020805460ff19169055565b600061095683836040518060400160405280601e81526020017f536166654d6174683a207375627472616374696f6e206f766572666c6f770000815250610865565b610ddc826001600160a01b0316610f82565b610e2d576040805162461bcd60e51b815260206004820152601f60248201527f5361666545524332303a2063616c6c20746f206e6f6e2d636f6e747261637400604482015290519081900360640190fd5b60006060836001600160a01b0316836040518082805190602001908083835b60208310610e6b5780518252601f199092019160209182019101610e4c565b6001836020036101000a0380198251168184511680821785525050505050509050019150506000604051808303816000865af19150503d8060008114610ecd576040519150601f19603f3d011682016040523d82523d6000602084013e610ed2565b606091505b509150915081610f29576040805162461bcd60e51b815260206004820181905260248201527f5361666545524332303a206c6f772d6c6576656c2063616c6c206661696c6564604482015290519081900360640190fd5b805115610c9a57808060200190516020811015610f4557600080fd5b5051610c9a5760405162461bcd60e51b815260040180806020018281038252602a815260200180611151602a913960400191505060405180910390fd5b6000813f7fc5d2460186f7233c927e7db2dcc703c0e500b653ca82273b7bfad8045d85a470818114801590610fb657508115155b94935050505056fe45524332303a207472616e7366657220746f20746865207a65726f206164647265737345524332303a206275726e20616d6f756e7420657863656564732062616c616e636545524332303a20617070726f766520746f20746865207a65726f206164647265737345524332303a207472616e7366657220616d6f756e7420657863656564732062616c616e63654d696e746572526f6c653a2063616c6c657220646f6573206e6f74206861766520746865204d696e74657220726f6c65526f6c65733a206163636f756e7420646f6573206e6f74206861766520726f6c6545524332303a207472616e7366657220616d6f756e74206578636565647320616c6c6f77616e6365526f6c65733a206163636f756e7420697320746865207a65726f206164647265737345524332303a206275726e2066726f6d20746865207a65726f206164647265737345524332303a207472616e736665722066726f6d20746865207a65726f206164647265737345524332303a20617070726f76652066726f6d20746865207a65726f20616464726573735361666545524332303a204552433230206f7065726174696f6e20646964206e6f74207375636365656445524332303a2064656372656173656420616c6c6f77616e63652062656c6f77207a65726fa265627a7a723158202d493a5de342231cbd7ce754dc981bd10804443d2ccfea991f78aeea35c3e69e64736f6c634300051000324d696e746572526f6c653a2063616c6c657220646f6573206e6f74206861766520746865204d696e74657220726f6c65526f6c65733a206163636f756e7420697320746865207a65726f2061646472657373",
  "linkReferences": {},
  "deployedLinkReferences": {}
}