{
  "_format": "hh-sol-artifact-1",
  "contractName": "MockAaveV1",
  "sourceName": "contracts/z_mocks/mix/platform-integrations/MockAave.sol",
  "abi": [
    {
      "constant": false,
      "inputs": [
        {
          "internalType": "address",
          "name": "_aToken",
          "type": "address"
        },
        {
          "internalType": "address",
          "name": "_underlying",
          "type": "address"
        }
      ],
      "name": "addAToken",
      "outputs": [],
      "payable": false,
      "stateMutability": "nonpayable",
      "type": "function"
    },
    {
      "constant": false,
      "inputs": [],
      "name": "breakLendingPools",
      "outputs": [],
      "payable": false,
      "stateMutability": "nonpayable",
      "type": "function"
    },
    {
      "constant": false,
      "inputs": [
        {
          "internalType": "address",
          "name": "_reserve",
          "type": "address"
        },
        {
          "internalType": "uint256",
          "name": "_amount",
          "type": "uint256"
        },
        {
          "internalType": "uint16",
          "name": "",
          "type": "uint16"
        }
      ],
      "name": "deposit",
      "outputs": [],
      "payable": false,
      "stateMutability": "nonpayable",
      "type": "function"
    },
    {
      "constant": true,
      "inputs": [],
      "name": "getLendingPool",
      "outputs": [
        {
          "internalType": "address",
          "name": "",
          "type": "address"
        }
      ],
      "payable": false,
      "stateMutability": "view",
      "type": "function"
    },
    {
      "constant": true,
      "inputs": [],
      "name": "getLendingPoolCore",
      "outputs": [
        {
          "internalType": "address payable",
          "name": "",
          "type": "address"
        }
      ],
      "payable": false,
      "stateMutability": "view",
      "type": "function"
    },
    {
      "constant": false,
      "inputs": [
        {
          "internalType": "address payable",
          "name": "_new",
          "type": "address"
        }
      ],
      "name": "migrateLendingPools",
      "outputs": [],
      "payable": false,
      "stateMutability": "nonpayable",
      "type": "function"
    }
  ],
  "bytecode": "0x608060405260018054306001600160a01b0319918216811790925560028054909116909117905534801561003257600080fd5b50610b72806100426000396000f3fe608060405234801561001057600080fd5b50600436106100625760003560e01c80630261bf8b14610067578063180326ba1461008b578063811711c71461009557806397ffdf8e146100c3578063d2d0e066146100e9578063ed6ff7601461011f575b600080fd5b61006f610127565b604080516001600160a01b039092168252519081900360200190f35b610093610136565b005b610093600480360360408110156100ab57600080fd5b506001600160a01b0381358116916020013516610154565b610093600480360360208110156100d957600080fd5b50356001600160a01b031661018e565b610093600480360360608110156100ff57600080fd5b5080356001600160a01b0316906020810135906040013561ffff166101ba565b61006f61039b565b6001546001600160a01b031690565b600180546001600160a01b0319908116909155600280549091169055565b61015e81836103aa565b6001600160a01b0390811660009081526020819052604090208054919092166001600160a01b0319909116179055565b600180546001600160a01b039092166001600160a01b0319928316811790915560028054909216179055565b6001600160a01b038084166000908152602081815260408083205481516370a0823160e01b81523360048201529151939416926370a0823192602480840193919291829003018186803b15801561021057600080fd5b505afa158015610224573d6000803e3d6000fd5b505050506040513d602081101561023a57600080fd5b505190506512309ce54000600061026f670de0b6b3a7640000610263858563ffffffff6103e516565b9063ffffffff61044716565b6001600160a01b038088166000908152602081815260408083205481516340c10f1960e01b8152336004820152602481018790529151959650909316936340c10f1993604480820194918390030190829087803b1580156102cf57600080fd5b505af11580156102e3573d6000803e3d6000fd5b505050506040513d60208110156102f957600080fd5b5061030a9050333088600189610489565b506001600160a01b038087166000908152602081815260408083205481516340c10f1960e01b8152336004820152602481018b905291519416936340c10f1993604480840194938390030190829087803b15801561036757600080fd5b505af115801561037b573d6000803e3d6000fd5b505050506040513d602081101561039157600080fd5b5050505050505050565b6002546001600160a01b031690565b6103c56001600160a01b03831682600063ffffffff6105fd16565b6103e16001600160a01b0383168260001963ffffffff6105fd16565b5050565b6000826103f457506000610441565b8282028284828161040157fe5b041461043e5760405162461bcd60e51b8152600401808060200182810382526021815260200180610abd6021913960400191505060405180910390fd5b90505b92915050565b600061043e83836040518060400160405280601a81526020017f536166654d6174683a206469766973696f6e206279207a65726f000000000000815250610715565b8082156105d9576000846001600160a01b03166370a08231876040518263ffffffff1660e01b815260040180826001600160a01b03166001600160a01b0316815260200191505060206040518083038186803b1580156104e857600080fd5b505afa1580156104fc573d6000803e3d6000fd5b505050506040513d602081101561051257600080fd5b505190506105316001600160a01b03861688888663ffffffff6107b716565b6000856001600160a01b03166370a08231886040518263ffffffff1660e01b815260040180826001600160a01b03166001600160a01b0316815260200191505060206040518083038186803b15801561058957600080fd5b505afa15801561059d573d6000803e3d6000fd5b505050506040513d60208110156105b357600080fd5b505190506105d0846105cb838563ffffffff61081716565b610859565b925050506105f4565b6105f46001600160a01b03851687878563ffffffff6107b716565b95945050505050565b801580610683575060408051636eb1769f60e11b81523060048201526001600160a01b03848116602483015291519185169163dd62ed3e91604480820192602092909190829003018186803b15801561065557600080fd5b505afa158015610669573d6000803e3d6000fd5b505050506040513d602081101561067f57600080fd5b5051155b6106be5760405162461bcd60e51b8152600401808060200182810382526036815260200180610b086036913960400191505060405180910390fd5b604080516001600160a01b038416602482015260448082018490528251808303909101815260649091019091526020810180516001600160e01b031663095ea7b360e01b17905261071090849061086e565b505050565b600081836107a15760405162461bcd60e51b81526004018080602001828103825283818151815260200191508051906020019080838360005b8381101561076657818101518382015260200161074e565b50505050905090810190601f1680156107935780820380516001836020036101000a031916815260200191505b509250505060405180910390fd5b5060008385816107ad57fe5b0495945050505050565b604080516001600160a01b0385811660248301528416604482015260648082018490528251808303909101815260849091019091526020810180516001600160e01b03166323b872dd60e01b17905261081190859061086e565b50505050565b600061043e83836040518060400160405280601e81526020017f536166654d6174683a207375627472616374696f6e206f766572666c6f770000815250610a26565b6000818311610868578261043e565b50919050565b610880826001600160a01b0316610a80565b6108d1576040805162461bcd60e51b815260206004820152601f60248201527f5361666545524332303a2063616c6c20746f206e6f6e2d636f6e747261637400604482015290519081900360640190fd5b60006060836001600160a01b0316836040518082805190602001908083835b6020831061090f5780518252601f1990920191602091820191016108f0565b6001836020036101000a0380198251168184511680821785525050505050509050019150506000604051808303816000865af19150503d8060008114610971576040519150601f19603f3d011682016040523d82523d6000602084013e610976565b606091505b5091509150816109cd576040805162461bcd60e51b815260206004820181905260248201527f5361666545524332303a206c6f772d6c6576656c2063616c6c206661696c6564604482015290519081900360640190fd5b805115610811578080602001905160208110156109e957600080fd5b50516108115760405162461bcd60e51b815260040180806020018281038252602a815260200180610ade602a913960400191505060405180910390fd5b60008184841115610a785760405162461bcd60e51b815260206004820181815283516024840152835190928392604490910191908501908083836000831561076657818101518382015260200161074e565b505050900390565b6000813f7fc5d2460186f7233c927e7db2dcc703c0e500b653ca82273b7bfad8045d85a470818114801590610ab457508115155b94935050505056fe536166654d6174683a206d756c7469706c69636174696f6e206f766572666c6f775361666545524332303a204552433230206f7065726174696f6e20646964206e6f7420737563636565645361666545524332303a20617070726f76652066726f6d206e6f6e2d7a65726f20746f206e6f6e2d7a65726f20616c6c6f77616e6365a265627a7a72315820e21d6f94c89081fb373bf02e28f5cdc46fd5fca3cfc520f1f7a06371ec0e8cd364736f6c63430005100032",
  "linkReferences": {},
  "deployedLinkReferences": {}
}