{
  "_format": "hh-sol-artifact-1",
  "contractName": "MockATokenV2",
  "sourceName": "contracts/z_mocks/mix/platform-integrations/MockAave.sol",
  "abi": [
    {
      "inputs": [
        {
          "internalType": "address",
          "name": "_lendingPool",
          "type": "address"
        },
        {
          "internalType": "contract IERC20",
          "name": "_underlyingToken",
          "type": "address"
        }
      ],
      "payable": false,
      "stateMutability": "nonpayable",
      "type": "constructor"
    },
    {
      "anonymous": false,
      "inputs": [
        {
          "indexed": true,
          "internalType": "address",
          "name": "owner",
          "type": "address"
        },
        {
          "indexed": true,
          "internalType": "address",
          "name": "spender",
          "type": "address"
        },
        {
          "indexed": false,
          "internalType": "uint256",
          "name": "value",
          "type": "uint256"
        }
      ],
      "name": "Approval",
      "type": "event"
    },
    {
      "anonymous": false,
      "inputs": [
        {
          "indexed": true,
          "internalType": "address",
          "name": "account",
          "type": "address"
        }
      ],
      "name": "MinterAdded",
      "type": "event"
    },
    {
      "anonymous": false,
      "inputs": [
        {
          "indexed": true,
          "internalType": "address",
          "name": "account",
          "type": "address"
        }
      ],
      "name": "MinterRemoved",
      "type": "event"
    },
    {
      "anonymous": false,
      "inputs": [
        {
          "indexed": true,
          "internalType": "address",
          "name": "from",
          "type": "address"
        },
        {
          "indexed": true,
          "internalType": "address",
          "name": "to",
          "type": "address"
        },
        {
          "indexed": false,
          "internalType": "uint256",
          "name": "value",
          "type": "uint256"
        }
      ],
      "name": "Transfer",
      "type": "event"
    },
    {
      "constant": false,
      "inputs": [
        {
          "internalType": "address",
          "name": "account",
          "type": "address"
        }
      ],
      "name": "addMinter",
      "outputs": [],
      "payable": false,
      "stateMutability": "nonpayable",
      "type": "function"
    },
    {
      "constant": true,
      "inputs": [
        {
          "internalType": "address",
          "name": "owner",
          "type": "address"
        },
        {
          "internalType": "address",
          "name": "spender",
          "type": "address"
        }
      ],
      "name": "allowance",
      "outputs": [
        {
          "internalType": "uint256",
          "name": "",
          "type": "uint256"
        }
      ],
      "payable": false,
      "stateMutability": "view",
      "type": "function"
    },
    {
      "constant": false,
      "inputs": [
        {
          "internalType": "address",
          "name": "spender",
          "type": "address"
        },
        {
          "internalType": "uint256",
          "name": "amount",
          "type": "uint256"
        }
      ],
      "name": "approve",
      "outputs": [
        {
          "internalType": "bool",
          "name": "",
          "type": "bool"
        }
      ],
      "payable": false,
      "stateMutability": "nonpayable",
      "type": "function"
    },
    {
      "constant": true,
      "inputs": [
        {
          "internalType": "address",
          "name": "account",
          "type": "address"
        }
      ],
      "name": "balanceOf",
      "outputs": [
        {
          "internalType": "uint256",
          "name": "",
          "type": "uint256"
        }
      ],
      "payable": false,
      "stateMutability": "view",
      "type": "function"
    },
    {
      "constant": false,
      "inputs": [
        {
          "internalType": "address",
          "name": "user",
          "type": "address"
        },
        {
          "internalType": "uint256",
          "name": "amount",
          "type": "uint256"
        }
      ],
      "name": "burn",
      "outputs": [],
      "payable": false,
      "stateMutability": "nonpayable",
      "type": "function"
    },
    {
      "constant": false,
      "inputs": [
        {
          "internalType": "address",
          "name": "spender",
          "type": "address"
        },
        {
          "internalType": "uint256",
          "name": "subtractedValue",
          "type": "uint256"
        }
      ],
      "name": "decreaseAllowance",
      "outputs": [
        {
          "internalType": "bool",
          "name": "",
          "type": "bool"
        }
      ],
      "payable": false,
      "stateMutability": "nonpayable",
      "type": "function"
    },
    {
      "constant": false,
      "inputs": [
        {
          "internalType": "address",
          "name": "spender",
          "type": "address"
        },
        {
          "internalType": "uint256",
          "name": "addedValue",
          "type": "uint256"
        }
      ],
      "name": "increaseAllowance",
      "outputs": [
        {
          "internalType": "bool",
          "name": "",
          "type": "bool"
        }
      ],
      "payable": false,
      "stateMutability": "nonpayable",
      "type": "function"
    },
    {
      "constant": true,
      "inputs": [
        {
          "internalType": "address",
          "name": "account",
          "type": "address"
        }
      ],
      "name": "isMinter",
      "outputs": [
        {
          "internalType": "bool",
          "name": "",
          "type": "bool"
        }
      ],
      "payable": false,
      "stateMutability": "view",
      "type": "function"
    },
    {
      "constant": true,
      "inputs": [],
      "name": "lendingPool",
      "outputs": [
        {
          "internalType": "address",
          "name": "",
          "type": "address"
        }
      ],
      "payable": false,
      "stateMutability": "view",
      "type": "function"
    },
    {
      "constant": false,
      "inputs": [
        {
          "internalType": "address",
          "name": "account",
          "type": "address"
        },
        {
          "internalType": "uint256",
          "name": "amount",
          "type": "uint256"
        }
      ],
      "name": "mint",
      "outputs": [
        {
          "internalType": "bool",
          "name": "",
          "type": "bool"
        }
      ],
      "payable": false,
      "stateMutability": "nonpayable",
      "type": "function"
    },
    {
      "constant": false,
      "inputs": [],
      "name": "renounceMinter",
      "outputs": [],
      "payable": false,
      "stateMutability": "nonpayable",
      "type": "function"
    },
    {
      "constant": true,
      "inputs": [],
      "name": "totalSupply",
      "outputs": [
        {
          "internalType": "uint256",
          "name": "",
          "type": "uint256"
        }
      ],
      "payable": false,
      "stateMutability": "view",
      "type": "function"
    },
    {
      "constant": false,
      "inputs": [
        {
          "internalType": "address",
          "name": "recipient",
          "type": "address"
        },
        {
          "internalType": "uint256",
          "name": "amount",
          "type": "uint256"
        }
      ],
      "name": "transfer",
      "outputs": [
        {
          "internalType": "bool",
          "name": "",
          "type": "bool"
        }
      ],
      "payable": false,
      "stateMutability": "nonpayable",
      "type": "function"
    },
    {
      "constant": false,
      "inputs": [
        {
          "internalType": "address",
          "name": "sender",
          "type": "address"
        },
        {
          "internalType": "address",
          "name": "recipient",
          "type": "address"
        },
        {
          "internalType": "uint256",
          "name": "amount",
          "type": "uint256"
        }
      ],
      "name": "transferFrom",
      "outputs": [
        {
          "internalType": "bool",
          "name": "",
          "type": "bool"
        }
      ],
      "payable": false,
      "stateMutability": "nonpayable",
      "type": "function"
    },
    {
      "constant": true,
      "inputs": [],
      "name": "underlyingToken",
      "outputs": [
        {
          "internalType": "contract IERC20",
          "name": "",
          "type": "address"
        }
      ],
      "payable": false,
      "stateMutability": "view",
      "type": "function"
    }
  ],
  "bytecode": "0x60806040523480156200001157600080fd5b506040516200124238038062001242833981810160405260408110156200003757600080fd5b50805160209091015162000066620000576001600160e01b03620000b216565b6001600160e01b03620000b616565b600480546001600160a01b038085166001600160a01b0319928316179092556005805492841692909116919091179055620000aa826001600160e01b036200010816565b50506200029b565b3390565b620000d18160036200018260201b62000c2f1790919060201c565b6040516001600160a01b038216907f6ae172837ea30b801fbfcdd4108aa1d5bf8ff775444fd70256b44e6bf3dfc3f690600090a250565b6200012e6200011f6001600160e01b03620000b216565b6001600160e01b036200020f16565b6200016b5760405162461bcd60e51b8152600401808060200182810382526030815260200180620011f06030913960400191505060405180910390fd5b6200017f816001600160e01b03620000b616565b50565b6200019782826001600160e01b036200023216565b15620001ea576040805162461bcd60e51b815260206004820152601f60248201527f526f6c65733a206163636f756e7420616c72656164792068617320726f6c6500604482015290519081900360640190fd5b6001600160a01b0316600090815260209190915260409020805460ff19166001179055565b60006200022c8260036200023260201b62000bc81790919060201c565b92915050565b60006001600160a01b0382166200027b5760405162461bcd60e51b8152600401808060200182810382526022815260200180620012206022913960400191505060405180910390fd5b506001600160a01b03166000908152602091909152604090205460ff1690565b610f4580620002ab6000396000f3fe608060405234801561001057600080fd5b50600436106100f55760003560e01c8063983b2d5611610097578063a59a997311610066578063a59a9973146102b4578063a9059cbb146102bc578063aa271e1a146102e8578063dd62ed3e1461030e576100f5565b8063983b2d561461022c57806398650275146102545780639dc29fac1461025c578063a457c2d714610288576100f5565b80632495a599116100d35780632495a5991461018a57806339509351146101ae57806340c10f19146101da57806370a0823114610206576100f5565b8063095ea7b3146100fa57806318160ddd1461013a57806323b872dd14610154575b600080fd5b6101266004803603604081101561011057600080fd5b506001600160a01b03813516906020013561033c565b604080519115158252519081900360200190f35b610142610359565b60408051918252519081900360200190f35b6101266004803603606081101561016a57600080fd5b506001600160a01b0381358116916020810135909116906040013561035f565b6101926103ec565b604080516001600160a01b039092168252519081900360200190f35b610126600480360360408110156101c457600080fd5b506001600160a01b0381351690602001356103fb565b610126600480360360408110156101f057600080fd5b506001600160a01b03813516906020013561044f565b6101426004803603602081101561021c57600080fd5b50356001600160a01b03166104a6565b6102526004803603602081101561024257600080fd5b50356001600160a01b03166104c1565b005b610252610513565b6102526004803603604081101561027257600080fd5b506001600160a01b038135169060200135610525565b6101266004803603604081101561029e57600080fd5b506001600160a01b038135169060200135610533565b6101926105a1565b610126600480360360408110156102d257600080fd5b506001600160a01b0381351690602001356105b0565b610126600480360360208110156102fe57600080fd5b50356001600160a01b03166105c4565b6101426004803603604081101561032457600080fd5b506001600160a01b03813581169160200135166105dd565b6000610350610349610608565b848461060c565b50600192915050565b60025490565b600061036c8484846106f8565b6103e284610378610608565b6103dd85604051806060016040528060288152602001610e38602891396001600160a01b038a166000908152600160205260408120906103b6610608565b6001600160a01b03168152602081019190915260400160002054919063ffffffff61085416565b61060c565b5060019392505050565b6005546001600160a01b031681565b6000610350610408610608565b846103dd8560016000610419610608565b6001600160a01b03908116825260208083019390935260409182016000908120918c16815292529020549063ffffffff6108eb16565b600061046161045c610608565b6105c4565b61049c5760405162461bcd60e51b8152600401808060200182810382526030815260200180610de76030913960400191505060405180910390fd5b610350838361094c565b6001600160a01b031660009081526020819052604090205490565b6104cc61045c610608565b6105075760405162461bcd60e51b8152600401808060200182810382526030815260200180610de76030913960400191505060405180910390fd5b61051081610a3c565b50565b61052361051e610608565b610a84565b565b61052f8282610acc565b5050565b6000610350610540610608565b846103dd85604051806060016040528060258152602001610eec602591396001600061056a610608565b6001600160a01b03908116825260208083019390935260409182016000908120918d1681529252902054919063ffffffff61085416565b6004546001600160a01b031681565b60006103506105bd610608565b84846106f8565b60006105d760038363ffffffff610bc816565b92915050565b6001600160a01b03918216600090815260016020908152604080832093909416825291909152205490565b3390565b6001600160a01b0383166106515760405162461bcd60e51b8152600401808060200182810382526024815260200180610ec86024913960400191505060405180910390fd5b6001600160a01b0382166106965760405162461bcd60e51b8152600401808060200182810382526022815260200180610d9f6022913960400191505060405180910390fd5b6001600160a01b03808416600081815260016020908152604080832094871680845294825291829020859055815185815291517f8c5be1e5ebec7d5bd14f71427d1e84f3dd0314c0f7b2291e5b200ac8c7c3b9259281900390910190a3505050565b6001600160a01b03831661073d5760405162461bcd60e51b8152600401808060200182810382526025815260200180610ea36025913960400191505060405180910390fd5b6001600160a01b0382166107825760405162461bcd60e51b8152600401808060200182810382526023815260200180610d5a6023913960400191505060405180910390fd5b6107c581604051806060016040528060268152602001610dc1602691396001600160a01b038616600090815260208190526040902054919063ffffffff61085416565b6001600160a01b0380851660009081526020819052604080822093909355908416815220546107fa908263ffffffff6108eb16565b6001600160a01b038084166000818152602081815260409182902094909455805185815290519193928716927fddf252ad1be2c89b69c2b068fc378daa952ba7f163c4a11628f55a4df523b3ef92918290030190a3505050565b600081848411156108e35760405162461bcd60e51b81526004018080602001828103825283818151815260200191508051906020019080838360005b838110156108a8578181015183820152602001610890565b50505050905090810190601f1680156108d55780820380516001836020036101000a031916815260200191505b509250505060405180910390fd5b505050900390565b600082820183811015610945576040805162461bcd60e51b815260206004820152601b60248201527f536166654d6174683a206164646974696f6e206f766572666c6f770000000000604482015290519081900360640190fd5b9392505050565b6001600160a01b0382166109a7576040805162461bcd60e51b815260206004820152601f60248201527f45524332303a206d696e7420746f20746865207a65726f206164647265737300604482015290519081900360640190fd5b6002546109ba908263ffffffff6108eb16565b6002556001600160a01b0382166000908152602081905260409020546109e6908263ffffffff6108eb16565b6001600160a01b0383166000818152602081815260408083209490945583518581529351929391927fddf252ad1be2c89b69c2b068fc378daa952ba7f163c4a11628f55a4df523b3ef9281900390910190a35050565b610a4d60038263ffffffff610c2f16565b6040516001600160a01b038216907f6ae172837ea30b801fbfcdd4108aa1d5bf8ff775444fd70256b44e6bf3dfc3f690600090a250565b610a9560038263ffffffff610cb016565b6040516001600160a01b038216907fe94479a9f7e1952cc78f2d6baab678adc1b772d936c6583def489e524cb6669290600090a250565b6001600160a01b038216610b115760405162461bcd60e51b8152600401808060200182810382526021815260200180610e826021913960400191505060405180910390fd5b610b5481604051806060016040528060228152602001610d7d602291396001600160a01b038516600090815260208190526040902054919063ffffffff61085416565b6001600160a01b038316600090815260208190526040902055600254610b80908263ffffffff610d1716565b6002556040805182815290516000916001600160a01b038516917fddf252ad1be2c89b69c2b068fc378daa952ba7f163c4a11628f55a4df523b3ef9181900360200190a35050565b60006001600160a01b038216610c0f5760405162461bcd60e51b8152600401808060200182810382526022815260200180610e606022913960400191505060405180910390fd5b506001600160a01b03166000908152602091909152604090205460ff1690565b610c398282610bc8565b15610c8b576040805162461bcd60e51b815260206004820152601f60248201527f526f6c65733a206163636f756e7420616c72656164792068617320726f6c6500604482015290519081900360640190fd5b6001600160a01b0316600090815260209190915260409020805460ff19166001179055565b610cba8282610bc8565b610cf55760405162461bcd60e51b8152600401808060200182810382526021815260200180610e176021913960400191505060405180910390fd5b6001600160a01b0316600090815260209190915260409020805460ff19169055565b600061094583836040518060400160405280601e81526020017f536166654d6174683a207375627472616374696f6e206f766572666c6f77000081525061085456fe45524332303a207472616e7366657220746f20746865207a65726f206164647265737345524332303a206275726e20616d6f756e7420657863656564732062616c616e636545524332303a20617070726f766520746f20746865207a65726f206164647265737345524332303a207472616e7366657220616d6f756e7420657863656564732062616c616e63654d696e746572526f6c653a2063616c6c657220646f6573206e6f74206861766520746865204d696e74657220726f6c65526f6c65733a206163636f756e7420646f6573206e6f74206861766520726f6c6545524332303a207472616e7366657220616d6f756e74206578636565647320616c6c6f77616e6365526f6c65733a206163636f756e7420697320746865207a65726f206164647265737345524332303a206275726e2066726f6d20746865207a65726f206164647265737345524332303a207472616e736665722066726f6d20746865207a65726f206164647265737345524332303a20617070726f76652066726f6d20746865207a65726f206164647265737345524332303a2064656372656173656420616c6c6f77616e63652062656c6f77207a65726fa265627a7a723158208cf305dca64b85a5a9acdf0fedb585a8c4fe3d73b5214d0c4b5aee2c696044d164736f6c634300051000324d696e746572526f6c653a2063616c6c657220646f6573206e6f74206861766520746865204d696e74657220726f6c65526f6c65733a206163636f756e7420697320746865207a65726f2061646472657373",
  "linkReferences": {},
  "deployedLinkReferences": {}
}