{
  "_format": "hh-sol-artifact-1",
  "contractName": "MockConnector",
  "sourceName": "contracts/z_mocks/savings/MockConnector.sol",
  "abi": [
    {
      "inputs": [
        {
          "internalType": "address",
          "name": "_save",
          "type": "address"
        },
        {
          "internalType": "address",
          "name": "_mUSD",
          "type": "address"
        }
      ],
      "payable": false,
      "stateMutability": "nonpayable",
      "type": "constructor"
    },
    {
      "constant": true,
      "inputs": [],
      "name": "checkBalance",
      "outputs": [
        {
          "internalType": "uint256",
          "name": "",
          "type": "uint256"
        }
      ],
      "payable": false,
      "stateMutability": "view",
      "type": "function"
    },
    {
      "constant": false,
      "inputs": [
        {
          "internalType": "uint256",
          "name": "_amount",
          "type": "uint256"
        }
      ],
      "name": "deposit",
      "outputs": [],
      "payable": false,
      "stateMutability": "nonpayable",
      "type": "function"
    },
    {
      "constant": false,
      "inputs": [
        {
          "internalType": "uint256",
          "name": "_amount",
          "type": "uint256"
        }
      ],
      "name": "withdraw",
      "outputs": [],
      "payable": false,
      "stateMutability": "nonpayable",
      "type": "function"
    },
    {
      "constant": false,
      "inputs": [],
      "name": "withdrawAll",
      "outputs": [],
      "payable": false,
      "stateMutability": "nonpayable",
      "type": "function"
    }
  ],
  "bytecode": "0x608060405234801561001057600080fd5b506040516105803803806105808339818101604052604081101561003357600080fd5b508051602090910151600080546001600160a01b039384166001600160a01b031991821617909155600180549390921692169190911790556105068061007a6000396000f3fe608060405234801561001057600080fd5b506004361061004c5760003560e01c80632e1a7d4d14610051578063853828b614610070578063b6b55f2514610078578063c71daccb14610095575b600080fd5b61006e6004803603602081101561006757600080fd5b50356100af565b005b61006e6101aa565b61006e6004803603602081101561008e57600080fd5b5035610296565b61009d610391565b60408051918252519081900360200190f35b6000546001600160a01b03163314610108576040805162461bcd60e51b81526020600482015260176024820152764f6e6c7920534156452063616e2063616c6c207468697360481b604482015290519081900360640190fd5b600154600080546040805163a9059cbb60e01b81526001600160a01b039283166004820152602481018690529051919093169263a9059cbb9260448083019360209390929083900390910190829087803b15801561016557600080fd5b505af1158015610179573d6000803e3d6000fd5b505050506040513d602081101561018f57600080fd5b50506002546101a4908263ffffffff61039716565b60025550565b6000546001600160a01b03163314610203576040805162461bcd60e51b81526020600482015260176024820152764f6e6c7920534156452063616e2063616c6c207468697360481b604482015290519081900360640190fd5b600154600080546002546040805163a9059cbb60e01b81526001600160a01b039384166004820152602481019290925251919093169263a9059cbb9260448083019360209390929083900390910190829087803b15801561026357600080fd5b505af1158015610277573d6000803e3d6000fd5b505050506040513d602081101561028d57600080fd5b50506000600255565b6000546001600160a01b031633146102ef576040805162461bcd60e51b81526020600482015260176024820152764f6e6c7920534156452063616e2063616c6c207468697360481b604482015290519081900360640190fd5b60015460008054604080516323b872dd60e01b81526001600160a01b03928316600482015230602482015260448101869052905191909316926323b872dd9260648083019360209390929083900390910190829087803b15801561035257600080fd5b505af1158015610366573d6000803e3d6000fd5b505050506040513d602081101561037c57600080fd5b50506002546101a4908263ffffffff6103e016565b60025490565b60006103d983836040518060400160405280601e81526020017f536166654d6174683a207375627472616374696f6e206f766572666c6f77000081525061043a565b9392505050565b6000828201838110156103d9576040805162461bcd60e51b815260206004820152601b60248201527f536166654d6174683a206164646974696f6e206f766572666c6f770000000000604482015290519081900360640190fd5b600081848411156104c95760405162461bcd60e51b81526004018080602001828103825283818151815260200191508051906020019080838360005b8381101561048e578181015183820152602001610476565b50505050905090810190601f1680156104bb5780820380516001836020036101000a031916815260200191505b509250505060405180910390fd5b50505090039056fea265627a7a72315820efc22a01b38cafa6485aff2bf5a740d867b5c7a15b02f076523cd116cef761ea64736f6c63430005100032",
  "linkReferences": {},
  "deployedLinkReferences": {}
}