{
  "_format": "hh-sol-artifact-1",
  "contractName": "Ejector",
  "sourceName": "contracts/z_mocks/governance/Ejector.sol",
  "abi": [
    {
      "inputs": [
        {
          "internalType": "contract IIncentivisedVotingLockup",
          "name": "_votingLockup",
          "type": "address"
        }
      ],
      "payable": false,
      "stateMutability": "nonpayable",
      "type": "constructor"
    },
    {
      "constant": false,
      "inputs": [
        {
          "internalType": "address[]",
          "name": "_users",
          "type": "address[]"
        }
      ],
      "name": "ejectMany",
      "outputs": [],
      "payable": false,
      "stateMutability": "nonpayable",
      "type": "function"
    },
    {
      "constant": true,
      "inputs": [],
      "name": "votingLockup",
      "outputs": [
        {
          "internalType": "contract IIncentivisedVotingLockup",
          "name": "",
          "type": "address"
        }
      ],
      "payable": false,
      "stateMutability": "view",
      "type": "function"
    }
  ],
  "bytecode": "0x608060405234801561001057600080fd5b506040516102253803806102258339818101604052602081101561003357600080fd5b5051600080546001600160a01b039092166001600160a01b03199092169190911790556101c0806100656000396000f3fe608060405234801561001057600080fd5b50600436106100365760003560e01c806323b41dc81461003b578063da64e44f146100ad575b600080fd5b6100ab6004803603602081101561005157600080fd5b81019060208101813564010000000081111561006c57600080fd5b82018360208201111561007e57600080fd5b803590602001918460208302840111640100000000831117156100a057600080fd5b5090925090506100d1565b005b6100b561017c565b604080516001600160a01b039092168252519081900360200190f35b8060005b81811015610176576000546001600160a01b031663901d13e28585848181106100fa57fe5b905060200201356001600160a01b03166040518263ffffffff1660e01b815260040180826001600160a01b03166001600160a01b03168152602001915050600060405180830381600087803b15801561015257600080fd5b505af1158015610166573d6000803e3d6000fd5b5050600190920191506100d59050565b50505050565b6000546001600160a01b03168156fea265627a7a723158204882caa93678af404f101ef8fb21d9fcec5830767a30b1d215e588e0ecee524564736f6c63430005100032",
  "linkReferences": {},
  "deployedLinkReferences": {}
}