{
  "_format": "hh-sol-artifact-1",
  "contractName": "AaveIntegrationV3",
  "sourceName": "contracts/z_mocks/mix/platform-integrations/MockUpgradedAaveIntegration.sol",
  "abi": [
    {
      "anonymous": false,
      "inputs": [
        {
          "indexed": true,
          "internalType": "address",
          "name": "_bAsset",
          "type": "address"
        },
        {
          "indexed": false,
          "internalType": "address",
          "name": "_pToken",
          "type": "address"
        },
        {
          "indexed": false,
          "internalType": "uint256",
          "name": "_amount",
          "type": "uint256"
        }
      ],
      "name": "Deposit",
      "type": "event"
    },
    {
      "anonymous": false,
      "inputs": [
        {
          "indexed": true,
          "internalType": "address",
          "name": "_bAsset",
          "type": "address"
        },
        {
          "indexed": false,
          "internalType": "address",
          "name": "_pToken",
          "type": "address"
        }
      ],
      "name": "PTokenAdded",
      "type": "event"
    },
    {
      "anonymous": false,
      "inputs": [
        {
          "indexed": true,
          "internalType": "address",
          "name": "bAsset",
          "type": "address"
        },
        {
          "indexed": false,
          "internalType": "address",
          "name": "pToken",
          "type": "address"
        },
        {
          "indexed": false,
          "internalType": "uint256",
          "name": "totalAmount",
          "type": "uint256"
        },
        {
          "indexed": false,
          "internalType": "uint256",
          "name": "userAmount",
          "type": "uint256"
        }
      ],
      "name": "PlatformWithdrawal",
      "type": "event"
    },
    {
      "anonymous": false,
      "inputs": [
        {
          "indexed": true,
          "internalType": "address",
          "name": "_address",
          "type": "address"
        }
      ],
      "name": "Whitelisted",
      "type": "event"
    },
    {
      "anonymous": false,
      "inputs": [
        {
          "indexed": true,
          "internalType": "address",
          "name": "_bAsset",
          "type": "address"
        },
        {
          "indexed": false,
          "internalType": "address",
          "name": "_pToken",
          "type": "address"
        },
        {
          "indexed": false,
          "internalType": "uint256",
          "name": "_amount",
          "type": "uint256"
        }
      ],
      "name": "Withdrawal",
      "type": "event"
    },
    {
      "constant": true,
      "inputs": [
        {
          "internalType": "address",
          "name": "",
          "type": "address"
        }
      ],
      "name": "bAssetToPToken",
      "outputs": [
        {
          "internalType": "address",
          "name": "",
          "type": "address"
        }
      ],
      "payable": false,
      "stateMutability": "view",
      "type": "function"
    },
    {
      "constant": false,
      "inputs": [
        {
          "internalType": "address",
          "name": "_bAsset",
          "type": "address"
        }
      ],
      "name": "checkBalance",
      "outputs": [
        {
          "internalType": "uint256",
          "name": "balance",
          "type": "uint256"
        }
      ],
      "payable": false,
      "stateMutability": "nonpayable",
      "type": "function"
    },
    {
      "constant": true,
      "inputs": [
        {
          "internalType": "address",
          "name": "_bAsset",
          "type": "address"
        }
      ],
      "name": "checkBalanceView",
      "outputs": [
        {
          "internalType": "uint256",
          "name": "balance",
          "type": "uint256"
        }
      ],
      "payable": false,
      "stateMutability": "view",
      "type": "function"
    },
    {
      "constant": false,
      "inputs": [
        {
          "internalType": "address",
          "name": "_bAsset",
          "type": "address"
        },
        {
          "internalType": "uint256",
          "name": "_amount",
          "type": "uint256"
        },
        {
          "internalType": "bool",
          "name": "_hasTxFee",
          "type": "bool"
        }
      ],
      "name": "deposit",
      "outputs": [
        {
          "internalType": "uint256",
          "name": "quantityDeposited",
          "type": "uint256"
        }
      ],
      "payable": false,
      "stateMutability": "nonpayable",
      "type": "function"
    },
    {
      "constant": false,
      "inputs": [
        {
          "internalType": "address",
          "name": "_nexus",
          "type": "address"
        },
        {
          "internalType": "address[]",
          "name": "_whitelisted",
          "type": "address[]"
        },
        {
          "internalType": "address",
          "name": "_platformAddress",
          "type": "address"
        },
        {
          "internalType": "address[]",
          "name": "_bAssets",
          "type": "address[]"
        },
        {
          "internalType": "address[]",
          "name": "_pTokens",
          "type": "address[]"
        }
      ],
      "name": "initialize",
      "outputs": [],
      "payable": false,
      "stateMutability": "nonpayable",
      "type": "function"
    },
    {
      "constant": false,
      "inputs": [],
      "name": "initializeNewUint",
      "outputs": [],
      "payable": false,
      "stateMutability": "nonpayable",
      "type": "function"
    },
    {
      "constant": true,
      "inputs": [],
      "name": "newUint",
      "outputs": [
        {
          "internalType": "uint256",
          "name": "",
          "type": "uint256"
        }
      ],
      "payable": false,
      "stateMutability": "view",
      "type": "function"
    },
    {
      "constant": true,
      "inputs": [],
      "name": "nexus",
      "outputs": [
        {
          "internalType": "contract INexus",
          "name": "",
          "type": "address"
        }
      ],
      "payable": false,
      "stateMutability": "view",
      "type": "function"
    },
    {
      "constant": true,
      "inputs": [],
      "name": "platformAddress",
      "outputs": [
        {
          "internalType": "address",
          "name": "",
          "type": "address"
        }
      ],
      "payable": false,
      "stateMutability": "view",
      "type": "function"
    },
    {
      "constant": false,
      "inputs": [],
      "name": "reApproveAllTokens",
      "outputs": [],
      "payable": false,
      "stateMutability": "nonpayable",
      "type": "function"
    },
    {
      "constant": false,
      "inputs": [
        {
          "internalType": "address",
          "name": "",
          "type": "address"
        },
        {
          "internalType": "address",
          "name": "",
          "type": "address"
        }
      ],
      "name": "setPTokenAddress",
      "outputs": [],
      "payable": false,
      "stateMutability": "nonpayable",
      "type": "function"
    },
    {
      "constant": true,
      "inputs": [
        {
          "internalType": "address",
          "name": "",
          "type": "address"
        }
      ],
      "name": "whitelist",
      "outputs": [
        {
          "internalType": "bool",
          "name": "",
          "type": "bool"
        }
      ],
      "payable": false,
      "stateMutability": "view",
      "type": "function"
    },
    {
      "constant": false,
      "inputs": [
        {
          "internalType": "address",
          "name": "_receiver",
          "type": "address"
        },
        {
          "internalType": "address",
          "name": "_bAsset",
          "type": "address"
        },
        {
          "internalType": "uint256",
          "name": "_amount",
          "type": "uint256"
        },
        {
          "internalType": "bool",
          "name": "",
          "type": "bool"
        }
      ],
      "name": "withdraw",
      "outputs": [],
      "payable": false,
      "stateMutability": "nonpayable",
      "type": "function"
    },
    {
      "constant": false,
      "inputs": [
        {
          "internalType": "address",
          "name": "_receiver",
          "type": "address"
        },
        {
          "internalType": "address",
          "name": "_bAsset",
          "type": "address"
        },
        {
          "internalType": "uint256",
          "name": "_amount",
          "type": "uint256"
        },
        {
          "internalType": "uint256",
          "name": "_totalAmount",
          "type": "uint256"
        },
        {
          "internalType": "bool",
          "name": "",
          "type": "bool"
        }
      ],
      "name": "withdraw",
      "outputs": [],
      "payable": false,
      "stateMutability": "nonpayable",
      "type": "function"
    },
    {
      "constant": false,
      "inputs": [
        {
          "internalType": "address",
          "name": "_receiver",
          "type": "address"
        },
        {
          "internalType": "address",
          "name": "_bAsset",
          "type": "address"
        },
        {
          "internalType": "uint256",
          "name": "_amount",
          "type": "uint256"
        }
      ],
      "name": "withdrawRaw",
      "outputs": [],
      "payable": false,
      "stateMutability": "nonpayable",
      "type": "function"
    }
  ],
  "bytecode": "0x6080604052600160405534801561001557600080fd5b50611a04806100256000396000f3fe608060405234801561001057600080fd5b50600436106100f55760003560e01c8063a3f5c1d211610097578063c49c43ac11610066578063c49c43ac146103cf578063c89fc72f146103f5578063dbe55e5614610439578063f9bf772814610441576100f5565b8063a3f5c1d214610381578063a4e2859514610389578063a66a6a9d146103bf578063a755349a146103c7576100f5565b80635f515226116100d35780635f515226146102a157806371c46585146102c7578063934785b7146103095780639b19251a14610347576100f5565b80630ed57b3a146100fa57806311505f721461012a5780633edd11281461025b575b600080fd5b6101286004803603604081101561011057600080fd5b506001600160a01b0381358116916020013516610449565b005b610128600480360360a081101561014057600080fd5b6001600160a01b03823516919081019060408101602082013564010000000081111561016b57600080fd5b82018360208201111561017d57600080fd5b8035906020019184602083028401116401000000008311171561019f57600080fd5b919390926001600160a01b03833516926040810190602001356401000000008111156101ca57600080fd5b8201836020820111156101dc57600080fd5b803590602001918460208302840111640100000000831117156101fe57600080fd5b91939092909160208101903564010000000081111561021c57600080fd5b82018360208201111561022e57600080fd5b8035906020019184602083028401116401000000008311171561025057600080fd5b5090925090506104ff565b61028f6004803603606081101561027157600080fd5b506001600160a01b038135169060208101359060400135151561065c565b60408051918252519081900360200190f35b61028f600480360360208110156102b757600080fd5b50356001600160a01b031661085b565b6102ed600480360360208110156102dd57600080fd5b50356001600160a01b031661088a565b604080516001600160a01b039092168252519081900360200190f35b6101286004803603608081101561031f57600080fd5b506001600160a01b0381358116916020810135909116906040810135906060013515156108a5565b61036d6004803603602081101561035d57600080fd5b50356001600160a01b0316610919565b604080519115158252519081900360200190f35b6102ed61092e565b6101286004803603606081101561039f57600080fd5b506001600160a01b0381358116916020810135909116906040013561093d565b6101286109a0565b610128610a14565b61028f600480360360208110156103e557600080fd5b50356001600160a01b0316610acf565b610128600480360360a081101561040b57600080fd5b506001600160a01b038135811691602081013590911690604081013590606081013590608001351515610ae6565b6102ed610b5b565b61028f610b6f565b610451610b75565b6001600160a01b0316336001600160a01b0316146104b2576040805162461bcd60e51b81526020600482015260196024820152784f6e6c7920676f7665726e6f722063616e206578656375746560381b604482015290519081900360640190fd5b6040805162461bcd60e51b815260206004820152601f60248201527f4e6f7420616c6c6f77656420746f20616464206d6f72652070546f6b656e7300604482015290519081900360640190fd5b600054610100900460ff16806105185750610518610beb565b80610526575060005460ff16155b6105615760405162461bcd60e51b815260040180806020018281038252602e815260200180611942602e913960400191505060405180910390fd5b600054610100900460ff1615801561058c576000805460ff1961ff0019909116610100171660011790555b610594610bf1565b6105d189898980806020026020016040519081016040528093929190818152602001838360200280828437600092019190915250610c0092505050565b61063f8686868080602002602001604051908101604052809392919081815260200183836020028082843760009201919091525050604080516020808a02828101820190935289825290935089925088918291850190849080828437600092019190915250610c8792505050565b8015610651576000805461ff00191690555b505050505050505050565b336000908152603c602052604081205460ff166106bc576040805162461bcd60e51b81526020600482015260196024820152784e6f7420612077686974656c6973746564206164647265737360381b604482015290519081900360640190fd5b60006106c785610d38565b849250905061270f831561078e5760006106e083610da5565b90506106ea610e21565b60408051636968703360e11b81526001600160a01b038a81166004830152602482018a905261ffff861660448301529151929091169163d2d0e0669160648082019260009290919082900301818387803b15801561074757600080fd5b505af115801561075b573d6000803e3d6000fd5b50505050600061076a84610da5565b905061078585610780838563ffffffff610f0016565b610f42565b9450505061080c565b610796610e21565b60408051636968703360e11b81526001600160a01b0389811660048301526024820189905261ffff851660448301529151929091169163d2d0e0669160648082019260009290919082900301818387803b1580156107f357600080fd5b505af1158015610807573d6000803e3d6000fd5b505050505b604080516001600160a01b038481168252602082018690528251908916927f5548c837ab068cf56a2c2479df0882a4922fd203edb7517321831d95078c5f62928290030190a250509392505050565b60008061086783610d38565b9050610883606461087783610da5565b9063ffffffff610f5716565b9392505050565b603e602052600090815260409020546001600160a01b031681565b336000908152603c602052604090205460ff16610905576040805162461bcd60e51b81526020600482015260196024820152784e6f7420612077686974656c6973746564206164647265737360381b604482015290519081900360640190fd5b610913848484856001610fb1565b50505050565b603c6020526000908152604090205460ff1681565b603b546001600160a01b031681565b6109576001600160a01b038316848363ffffffff61107f16565b60408051600081526020810183905281516001600160a01b038516927f2717ead6b9200dd235aad468c9809ea400fe33ac69b5bfaa6d3e90fc922b6398928290030190a2505050565b6109a86110d1565b6001600160a01b0316336001600160a01b031614610a0d576040805162461bcd60e51b815260206004820152601b60248201527f4f6e6c792050726f787941646d696e2063616e20657865637574650000000000604482015290519081900360640190fd5b6001604055565b610a1c610b75565b6001600160a01b0316336001600160a01b031614610a7d576040805162461bcd60e51b81526020600482015260196024820152784f6e6c7920676f7665726e6f722063616e206578656375746560381b604482015290519081900360640190fd5b603f546000610a8a611120565b905060005b82811015610aca57610ac2603f8281548110610aa757fe5b6000918252602090912001546001600160a01b031683611171565b600101610a8f565b505050565b600080610adb83610d38565b905061088381610da5565b336000908152603c602052604090205460ff16610b46576040805162461bcd60e51b81526020600482015260196024820152784e6f7420612077686974656c6973746564206164647265737360381b604482015290519081900360640190fd5b610b54858585856001610fb1565b5050505050565b603d5461010090046001600160a01b031681565b60405481565b603b546040805163030d028960e21b815290516000926001600160a01b031691630c340a24916004808301926020929190829003018186803b158015610bba57600080fd5b505afa158015610bce573d6000803e3d6000fd5b505050506040513d6020811015610be457600080fd5b5051905090565b303b1590565b603d805460ff19166001179055565b610c09826111ac565b6000815111610c57576040805162461bcd60e51b8152602060048201526015602482015274456d7074792077686974656c69737420617272617960581b604482015290519081900360640190fd5b60005b8151811015610aca57610c7f828281518110610c7257fe5b6020026020010151611225565b600101610c5a565b603d8054610100600160a81b0319166101006001600160a01b03861602179055815181518114610cf5576040805162461bcd60e51b8152602060048201526014602482015273496e76616c696420696e7075742061727261797360601b604482015290519081900360640190fd5b60005b81811015610b5457610d30848281518110610d0f57fe5b6020026020010151848381518110610d2357fe5b6020026020010151611322565b600101610cf8565b6001600160a01b038082166000908152603e602052604081205490911680610d9f576040805162461bcd60e51b815260206004820152601560248201527418551bdad95b88191bd95cc81b9bdd08195e1a5cdd605a1b604482015290519081900360640190fd5b92915050565b604080516370a0823160e01b815230600482015290516000916001600160a01b038416916370a0823191602480820192602092909190829003018186803b158015610def57600080fd5b505afa158015610e03573d6000803e3d6000fd5b505050506040513d6020811015610e1957600080fd5b505192915050565b600080603d60019054906101000a90046001600160a01b03166001600160a01b0316630261bf8b6040518163ffffffff1660e01b815260040160206040518083038186803b158015610e7257600080fd5b505afa158015610e86573d6000803e3d6000fd5b505050506040513d6020811015610e9c57600080fd5b505190506001600160a01b038116610efb576040805162461bcd60e51b815260206004820152601b60248201527f4c656e64696e6720706f6f6c20646f6573206e6f742065786973740000000000604482015290519081900360640190fd5b905090565b600061088383836040518060400160405280601e81526020017f536166654d6174683a207375627472616374696f6e206f766572666c6f770000815250611491565b6000818311610f515782610883565b50919050565b600082820183811015610883576040805162461bcd60e51b815260206004820152601b60248201527f536166654d6174683a206164646974696f6e206f766572666c6f770000000000604482015290519081900360640190fd5b6000610fbc85610d38565b9050806001600160a01b031663db006a75846040518263ffffffff1660e01b815260040180828152602001915050600060405180830381600087803b15801561100457600080fd5b505af1158015611018573d6000803e3d6000fd5b50611031925050506001600160a01b038616878661107f565b604080516001600160a01b038381168252602082018790528251908816927f2717ead6b9200dd235aad468c9809ea400fe33ac69b5bfaa6d3e90fc922b6398928290030190a2505050505050565b604080516001600160a01b038416602482015260448082018490528251808303909101815260649091019091526020810180516001600160e01b031663a9059cbb60e01b179052610aca908490611528565b603b54603554604080516385acd64160e01b81526004810192909252516000926001600160a01b0316916385acd641916024808301926020929190829003018186803b158015610bba57600080fd5b600080603d60019054906101000a90046001600160a01b03166001600160a01b031663ed6ff7606040518163ffffffff1660e01b815260040160206040518083038186803b158015610e7257600080fd5b61118c6001600160a01b03831682600063ffffffff6116e016565b6111a86001600160a01b0383168260001963ffffffff6116e016565b5050565b6001600160a01b0381166111ff576040805162461bcd60e51b81526020600482015260156024820152744e657875732061646472657373206973207a65726f60581b604482015290519081900360640190fd5b603b80546001600160a01b0319166001600160a01b0383161790556112226117f3565b50565b6001600160a01b038116611272576040805162461bcd60e51b815260206004820152600f60248201526e41646472657373206973207a65726f60881b604482015290519081900360640190fd5b6001600160a01b0381166000908152603c602052604090205460ff16156112d6576040805162461bcd60e51b8152602060048201526013602482015272105b1c9958591e481dda1a5d195b1a5cdd1959606a1b604482015290519081900360640190fd5b6001600160a01b0381166000818152603c6020526040808220805460ff19166001179055517faab7954e9d246b167ef88aeddad35209ca2489d95a8aeb59e288d9b19fae5a549190a250565b6001600160a01b038281166000908152603e60205260409020541615611384576040805162461bcd60e51b81526020600482015260126024820152711c151bdad95b88185b1c9958591e481cd95d60721b604482015290519081900360640190fd5b6001600160a01b038216158015906113a457506001600160a01b03811615155b6113e9576040805162461bcd60e51b8152602060048201526011602482015270496e76616c69642061646472657373657360781b604482015290519081900360640190fd5b6001600160a01b038083166000818152603e6020908152604080832080549587166001600160a01b03199687168117909155603f805460018101825594527fc03004e3ce0784bf68186394306849f9b7b1200073105cd9aeb554a1802b58fd909301805490951684179094558351918252925191927fef6485b84315f9b1483beffa32aae9a0596890395e3d7521f1c5fbb51790e76592918290030190a26111a882826118ef565b600081848411156115205760405162461bcd60e51b81526004018080602001828103825283818151815260200191508051906020019080838360005b838110156114e55781810151838201526020016114cd565b50505050905090810190601f1680156115125780820380516001836020036101000a031916815260200191505b509250505060405180910390fd5b505050900390565b61153a826001600160a01b0316611905565b61158b576040805162461bcd60e51b815260206004820152601f60248201527f5361666545524332303a2063616c6c20746f206e6f6e2d636f6e747261637400604482015290519081900360640190fd5b60006060836001600160a01b0316836040518082805190602001908083835b602083106115c95780518252601f1990920191602091820191016115aa565b6001836020036101000a0380198251168184511680821785525050505050509050019150506000604051808303816000865af19150503d806000811461162b576040519150601f19603f3d011682016040523d82523d6000602084013e611630565b606091505b509150915081611687576040805162461bcd60e51b815260206004820181905260248201527f5361666545524332303a206c6f772d6c6576656c2063616c6c206661696c6564604482015290519081900360640190fd5b805115610913578080602001905160208110156116a357600080fd5b50516109135760405162461bcd60e51b815260040180806020018281038252602a815260200180611970602a913960400191505060405180910390fd5b801580611766575060408051636eb1769f60e11b81523060048201526001600160a01b03848116602483015291519185169163dd62ed3e91604480820192602092909190829003018186803b15801561173857600080fd5b505afa15801561174c573d6000803e3d6000fd5b505050506040513d602081101561176257600080fd5b5051155b6117a15760405162461bcd60e51b815260040180806020018281038252603681526020018061199a6036913960400191505060405180910390fd5b604080516001600160a01b038416602482015260448082018490528251808303909101815260649091019091526020810180516001600160e01b031663095ea7b360e01b179052610aca908490611528565b6040805169476f7665726e616e636560b01b8152815190819003600a9081018220603355665374616b696e6760c81b82528251918290036007908101832060345569283937bc3ca0b236b4b760b11b835283519283900390910182206035556827b930b1b632a43ab160b91b8252825191829003600990810183206036556626b0b730b3b2b960c91b835283519283900390910182206037556f2932b1b7b63630ba32b930b634b9b2b960811b82528251918290036010018220603855682134b6322a37b5b2b760b91b82528251918290030181206039556d29b0bb34b733b9a6b0b730b3b2b960911b8152905190819003600e019020603a55565b60006118f9611120565b9050610aca8382611171565b6000813f7fc5d2460186f7233c927e7db2dcc703c0e500b653ca82273b7bfad8045d85a47081811480159061193957508115155b94935050505056fe436f6e747261637420696e7374616e63652068617320616c7265616479206265656e20696e697469616c697a65645361666545524332303a204552433230206f7065726174696f6e20646964206e6f7420737563636565645361666545524332303a20617070726f76652066726f6d206e6f6e2d7a65726f20746f206e6f6e2d7a65726f20616c6c6f77616e6365a265627a7a7231582072fe06522bd98f4184fb5740f97e304d44fe0ddd69591b2ac2b7a6b18bc5639b64736f6c63430005100032",
  "linkReferences": {},
  "deployedLinkReferences": {}
}