{
  "_format": "hh-sol-artifact-1",
  "contractName": "MockRevenueRecipient",
  "sourceName": "contracts/z_mocks/savings/MockRevenueRecipient.sol",
  "abi": [
    {
      "constant": false,
      "inputs": [
        {
          "internalType": "address",
          "name": "_mIx",
          "type": "address"
        },
        {
          "internalType": "uint256",
          "name": "_amount",
          "type": "uint256"
        }
      ],
      "name": "notifyRedistributionAmount",
      "outputs": [],
      "payable": false,
      "stateMutability": "nonpayable",
      "type": "function"
    }
  ],
  "bytecode": "0x608060405234801561001057600080fd5b5061010f806100206000396000f3fe6080604052348015600f57600080fd5b506004361060285760003560e01c8063706d018614602d575b600080fd5b605660048036036040811015604157600080fd5b506001600160a01b0381351690602001356058565b005b604080516323b872dd60e01b81523360048201523060248201526044810183905290516001600160a01b038416916323b872dd9160648083019260209291908290030181600087803b15801560ac57600080fd5b505af115801560bf573d6000803e3d6000fd5b505050506040513d602081101560d457600080fd5b5050505056fea265627a7a723158203e88b2fcf11dcaedb883fec2d216b7e4524d157a94e6854f54b4fd0b44f444ad64736f6c63430005100032",
  "linkReferences": {},
  "deployedLinkReferences": {}
}