{
  "_format": "hh-sol-artifact-1",
  "contractName": "BoostedTokenWrapper",
  "sourceName": "contracts/savings/BoostedTokenWrapper.sol",
  "abi": [
    {
      "constant": true,
      "inputs": [
        {
          "internalType": "address",
          "name": "_account",
          "type": "address"
        }
      ],
      "name": "balanceOf",
      "outputs": [
        {
          "internalType": "uint256",
          "name": "",
          "type": "uint256"
        }
      ],
      "payable": false,
      "stateMutability": "view",
      "type": "function"
    },
    {
      "constant": true,
      "inputs": [
        {
          "internalType": "address",
          "name": "_account",
          "type": "address"
        }
      ],
      "name": "getBoost",
      "outputs": [
        {
          "internalType": "uint256",
          "name": "",
          "type": "uint256"
        }
      ],
      "payable": false,
      "stateMutability": "view",
      "type": "function"
    },
    {
      "constant": true,
      "inputs": [
        {
          "internalType": "address",
          "name": "_account",
          "type": "address"
        }
      ],
      "name": "rawBalanceOf",
      "outputs": [
        {
          "internalType": "uint256",
          "name": "",
          "type": "uint256"
        }
      ],
      "payable": false,
      "stateMutability": "view",
      "type": "function"
    },
    {
      "constant": true,
      "inputs": [],
      "name": "stakingContract",
      "outputs": [
        {
          "internalType": "contract IIncentivisedVotingLockup",
          "name": "",
          "type": "address"
        }
      ],
      "payable": false,
      "stateMutability": "view",
      "type": "function"
    },
    {
      "constant": true,
      "inputs": [],
      "name": "stakingToken",
      "outputs": [
        {
          "internalType": "contract IERC20",
          "name": "",
          "type": "address"
        }
      ],
      "payable": false,
      "stateMutability": "view",
      "type": "function"
    },
    {
      "constant": true,
      "inputs": [],
      "name": "totalSupply",
      "outputs": [
        {
          "internalType": "uint256",
          "name": "",
          "type": "uint256"
        }
      ],
      "payable": false,
      "stateMutability": "view",
      "type": "function"
    }
  ],
  "bytecode": "0x608060405234801561001057600080fd5b50610371806100206000396000f3fe608060405234801561001057600080fd5b50600436106100625760003560e01c806312064c341461006757806318160ddd1461009f57806367ba3d90146100a757806370a08231146100cd57806372f702f3146100f3578063ee99205c14610117575b600080fd5b61008d6004803603602081101561007d57600080fd5b50356001600160a01b031661011f565b60408051918252519081900360200190f35b61008d61013a565b61008d600480360360208110156100bd57600080fd5b50356001600160a01b0316610140565b61008d600480360360208110156100e357600080fd5b50356001600160a01b0316610169565b6100fb610184565b604080516001600160a01b039092168252519081900360200190f35b6100fb610198565b6001600160a01b031660009081526004602052604090205490565b60025490565b600061016361014e8361011f565b61015784610169565b9063ffffffff6101a716565b92915050565b6001600160a01b031660009081526003602052604090205490565b60005461010090046001600160a01b031681565b6001546001600160a01b031681565b6000806101c284670de0b6b3a764000063ffffffff6101dc16565b90506101d4818463ffffffff61023c16565b949350505050565b6000826101eb57506000610163565b828202828482816101f857fe5b04146102355760405162461bcd60e51b815260040180806020018281038252602181526020018061031c6021913960400191505060405180910390fd5b9392505050565b600061023583836040518060400160405280601a81526020017f536166654d6174683a206469766973696f6e206279207a65726f000000000000815250600081836103055760405162461bcd60e51b81526004018080602001828103825283818151815260200191508051906020019080838360005b838110156102ca5781810151838201526020016102b2565b50505050905090810190601f1680156102f75780820380516001836020036101000a031916815260200191505b509250505060405180910390fd5b50600083858161031157fe5b049594505050505056fe536166654d6174683a206d756c7469706c69636174696f6e206f766572666c6f77a265627a7a723158201258f8f160696f7a48f80655cffa527793666198b43da1e438a292fd6c9289bc64736f6c63430005100032",
  "linkReferences": {},
  "deployedLinkReferences": {}
}