{
  "_format": "hh-sol-artifact-1",
  "contractName": "ClaimableGovernor",
  "sourceName": "contracts/governance/ClaimableGovernor.sol",
  "abi": [
    {
      "inputs": [
        {
          "internalType": "address",
          "name": "_governorAddr",
          "type": "address"
        }
      ],
      "payable": false,
      "stateMutability": "nonpayable",
      "type": "constructor"
    },
    {
      "anonymous": false,
      "inputs": [
        {
          "indexed": true,
          "internalType": "address",
          "name": "governor",
          "type": "address"
        },
        {
          "indexed": true,
          "internalType": "address",
          "name": "proposed",
          "type": "address"
        }
      ],
      "name": "GovernorChangeCancelled",
      "type": "event"
    },
    {
      "anonymous": false,
      "inputs": [
        {
          "indexed": true,
          "internalType": "address",
          "name": "proposedGovernor",
          "type": "address"
        }
      ],
      "name": "GovernorChangeClaimed",
      "type": "event"
    },
    {
      "anonymous": false,
      "inputs": [
        {
          "indexed": true,
          "internalType": "address",
          "name": "governor",
          "type": "address"
        },
        {
          "indexed": true,
          "internalType": "address",
          "name": "proposed",
          "type": "address"
        }
      ],
      "name": "GovernorChangeRequested",
      "type": "event"
    },
    {
      "anonymous": false,
      "inputs": [
        {
          "indexed": true,
          "internalType": "address",
          "name": "previousGovernor",
          "type": "address"
        },
        {
          "indexed": true,
          "internalType": "address",
          "name": "newGovernor",
          "type": "address"
        }
      ],
      "name": "GovernorChanged",
      "type": "event"
    },
    {
      "constant": false,
      "inputs": [],
      "name": "cancelGovernorChange",
      "outputs": [],
      "payable": false,
      "stateMutability": "nonpayable",
      "type": "function"
    },
    {
      "constant": false,
      "inputs": [
        {
          "internalType": "address",
          "name": "",
          "type": "address"
        }
      ],
      "name": "changeGovernor",
      "outputs": [],
      "payable": false,
      "stateMutability": "nonpayable",
      "type": "function"
    },
    {
      "constant": false,
      "inputs": [],
      "name": "claimGovernorChange",
      "outputs": [],
      "payable": false,
      "stateMutability": "nonpayable",
      "type": "function"
    },
    {
      "constant": true,
      "inputs": [],
      "name": "governor",
      "outputs": [
        {
          "internalType": "address",
          "name": "",
          "type": "address"
        }
      ],
      "payable": false,
      "stateMutability": "view",
      "type": "function"
    },
    {
      "constant": true,
      "inputs": [],
      "name": "isGovernor",
      "outputs": [
        {
          "internalType": "bool",
          "name": "",
          "type": "bool"
        }
      ],
      "payable": false,
      "stateMutability": "view",
      "type": "function"
    },
    {
      "constant": true,
      "inputs": [],
      "name": "proposedGovernor",
      "outputs": [
        {
          "internalType": "address",
          "name": "",
          "type": "address"
        }
      ],
      "payable": false,
      "stateMutability": "view",
      "type": "function"
    },
    {
      "constant": false,
      "inputs": [
        {
          "internalType": "address",
          "name": "_proposedGovernor",
          "type": "address"
        }
      ],
      "name": "requestGovernorChange",
      "outputs": [],
      "payable": false,
      "stateMutability": "nonpayable",
      "type": "function"
    }
  ],
  "bytecode": "0x6080604052600180546001600160a01b031916905534801561002057600080fd5b5060405161078e38038061078e8339818101604052602081101561004357600080fd5b5051600080546001600160a01b03191633178082556040516001600160a01b0391909116919060008051602061076e833981519152908290a361008e816001600160e01b0361009416565b50610138565b6001600160a01b0381166100ef576040805162461bcd60e51b815260206004820152601f60248201527f474f563a206e657720476f7665726e6f72206973206164647265737328302900604482015290519081900360640190fd5b600080546040516001600160a01b038085169392169160008051602061076e83398151915291a3600080546001600160a01b0319166001600160a01b0392909216919091179055565b610627806101476000396000f3fe608060405234801561001057600080fd5b506004361061007d5760003560e01c80638c33c19c1161005b5780638c33c19c146100d6578063ad339d7a146100de578063c7af3352146100e6578063e4c0aaf4146101025761007d565b8063099c47bc146100825780630c340a24146100aa5780638a11a370146100ce575b600080fd5b6100a86004803603602081101561009857600080fd5b50356001600160a01b0316610128565b005b6100b2610298565b604080516001600160a01b039092168252519081900360200190f35b6100b26102a7565b6100a86102b6565b6100a86103c7565b6100ee610485565b604080519115158252519081900360200190f35b6100a86004803603602081101561011857600080fd5b50356001600160a01b0316610496565b610130610485565b610181576040805162461bcd60e51b815260206004820152601f60248201527f474f563a2063616c6c6572206973206e6f742074686520476f7665726e6f7200604482015290519081900360640190fd5b6001600160a01b0381166101dc576040805162461bcd60e51b815260206004820152601f60248201527f50726f706f73656420676f7665726e6f72206973206164647265737328302900604482015290519081900360640190fd5b6001546001600160a01b03161561023a576040805162461bcd60e51b815260206004820152601d60248201527f50726f706f73656420676f7665726e6f7220616c726561647920736574000000604482015290519081900360640190fd5b600180546001600160a01b0319166001600160a01b038316908117909155610260610298565b6001600160a01b03167fa48c163cc46eb28aba8bdb525da18f15a83020cc18f439c933d79ea3ad9b50bb60405160405180910390a350565b6000546001600160a01b031690565b6001546001600160a01b031681565b6102be610485565b61030f576040805162461bcd60e51b815260206004820152601f60248201527f474f563a2063616c6c6572206973206e6f742074686520476f7665726e6f7200604482015290519081900360640190fd5b6001546001600160a01b031661036c576040805162461bcd60e51b815260206004820152601960248201527f50726f706f73656420476f7665726e6f72206e6f742073657400000000000000604482015290519081900360640190fd5b6001546001600160a01b0316610380610298565b6001600160a01b03167f2f7bb10f75b8694ea78291d7ca4c9f2a75bc45f0f97046164ad3ee984bdf4bba60405160405180910390a3600180546001600160a01b0319169055565b6001546001600160a01b03163314610426576040805162461bcd60e51b815260206004820152601f60248201527f53656e646572206973206e6f742070726f706f73656420676f7665726e6f7200604482015290519081900360640190fd5b60015461043b906001600160a01b031661053c565b6001546040516001600160a01b03909116907f0ad714cb5607f3b529b5d3292190925ae992a77b291e39ec09c390d4787896ba90600090a2600180546001600160a01b0319169055565b6000546001600160a01b0316331490565b61049e610485565b6104ef576040805162461bcd60e51b815260206004820152601f60248201527f474f563a2063616c6c6572206973206e6f742074686520476f7665726e6f7200604482015290519081900360640190fd5b6040805162461bcd60e51b815260206004820152601960248201527f446972656374206368616e6765206e6f7420616c6c6f77656400000000000000604482015290519081900360640190fd5b6001600160a01b038116610597576040805162461bcd60e51b815260206004820152601f60248201527f474f563a206e657720476f7665726e6f72206973206164647265737328302900604482015290519081900360640190fd5b600080546040516001600160a01b03808516939216917fde4b3f61490b74c0ed6237523974fe299126bbbf8a8a7482fd220104c59b0c8491a3600080546001600160a01b0319166001600160a01b039290921691909117905556fea265627a7a723158208f6b290246b3ef3e5c116a2861a071ff01cfa6efe332508178331b2c4ed487ee64736f6c63430005100032de4b3f61490b74c0ed6237523974fe299126bbbf8a8a7482fd220104c59b0c84",
  "linkReferences": {},
  "deployedLinkReferences": {}
}