{
  "_format": "hh-sol-artifact-1",
  "contractName": "MockBasketManager1",
  "sourceName": "contracts/z_mocks/mix/MockBasketManager.sol",
  "abi": [
    {
      "inputs": [
        {
          "internalType": "address",
          "name": "_bAsset",
          "type": "address"
        }
      ],
      "payable": false,
      "stateMutability": "nonpayable",
      "type": "constructor"
    },
    {
      "anonymous": false,
      "inputs": [],
      "name": "BasketStatusChanged",
      "type": "event"
    },
    {
      "anonymous": false,
      "inputs": [
        {
          "indexed": false,
          "internalType": "address[]",
          "name": "bAssets",
          "type": "address[]"
        },
        {
          "indexed": false,
          "internalType": "uint256[]",
          "name": "maxWeights",
          "type": "uint256[]"
        }
      ],
      "name": "BasketWeightsUpdated",
      "type": "event"
    },
    {
      "anonymous": false,
      "inputs": [
        {
          "indexed": true,
          "internalType": "address",
          "name": "bAsset",
          "type": "address"
        },
        {
          "indexed": false,
          "internalType": "address",
          "name": "integrator",
          "type": "address"
        }
      ],
      "name": "BassetAdded",
      "type": "event"
    },
    {
      "anonymous": false,
      "inputs": [
        {
          "indexed": true,
          "internalType": "address",
          "name": "bAsset",
          "type": "address"
        }
      ],
      "name": "BassetRemoved",
      "type": "event"
    },
    {
      "anonymous": false,
      "inputs": [
        {
          "indexed": true,
          "internalType": "address",
          "name": "bAsset",
          "type": "address"
        },
        {
          "indexed": false,
          "internalType": "enum MixStructs.BassetStatus",
          "name": "status",
          "type": "uint8"
        }
      ],
      "name": "BassetStatusChanged",
      "type": "event"
    },
    {
      "anonymous": false,
      "inputs": [
        {
          "indexed": false,
          "internalType": "address[]",
          "name": "bAssets",
          "type": "address[]"
        },
        {
          "indexed": false,
          "internalType": "address",
          "name": "newIntegrator",
          "type": "address"
        }
      ],
      "name": "BassetsMigrated",
      "type": "event"
    },
    {
      "anonymous": false,
      "inputs": [
        {
          "indexed": false,
          "internalType": "address",
          "name": "account",
          "type": "address"
        }
      ],
      "name": "Paused",
      "type": "event"
    },
    {
      "anonymous": false,
      "inputs": [
        {
          "indexed": true,
          "internalType": "address",
          "name": "bAsset",
          "type": "address"
        },
        {
          "indexed": false,
          "internalType": "bool",
          "name": "enabled",
          "type": "bool"
        }
      ],
      "name": "TransferFeeEnabled",
      "type": "event"
    },
    {
      "anonymous": false,
      "inputs": [
        {
          "indexed": false,
          "internalType": "address",
          "name": "account",
          "type": "address"
        }
      ],
      "name": "Unpaused",
      "type": "event"
    },
    {
      "constant": false,
      "inputs": [
        {
          "internalType": "address",
          "name": "_bAsset",
          "type": "address"
        },
        {
          "internalType": "address",
          "name": "_integration",
          "type": "address"
        },
        {
          "internalType": "bool",
          "name": "_isTransferFeeCharged",
          "type": "bool"
        }
      ],
      "name": "addBasset",
      "outputs": [
        {
          "internalType": "uint8",
          "name": "index",
          "type": "uint8"
        }
      ],
      "payable": false,
      "stateMutability": "nonpayable",
      "type": "function"
    },
    {
      "constant": true,
      "inputs": [],
      "name": "basket",
      "outputs": [
        {
          "internalType": "uint8",
          "name": "maxBassets",
          "type": "uint8"
        },
        {
          "internalType": "bool",
          "name": "undergoingRecol",
          "type": "bool"
        },
        {
          "internalType": "bool",
          "name": "failed",
          "type": "bool"
        },
        {
          "internalType": "uint256",
          "name": "collateralisationRatio",
          "type": "uint256"
        }
      ],
      "payable": false,
      "stateMutability": "view",
      "type": "function"
    },
    {
      "constant": false,
      "inputs": [],
      "name": "collectInterest",
      "outputs": [
        {
          "internalType": "uint256",
          "name": "interestCollected",
          "type": "uint256"
        },
        {
          "internalType": "uint256[]",
          "name": "gains",
          "type": "uint256[]"
        }
      ],
      "payable": false,
      "stateMutability": "nonpayable",
      "type": "function"
    },
    {
      "constant": false,
      "inputs": [
        {
          "internalType": "uint8",
          "name": "_bAssetIndex",
          "type": "uint8"
        },
        {
          "internalType": "address",
          "name": "",
          "type": "address"
        },
        {
          "internalType": "uint256",
          "name": "_decreaseAmount",
          "type": "uint256"
        }
      ],
      "name": "decreaseVaultBalance",
      "outputs": [],
      "payable": false,
      "stateMutability": "nonpayable",
      "type": "function"
    },
    {
      "constant": false,
      "inputs": [
        {
          "internalType": "uint8[]",
          "name": "_bAssetIndices",
          "type": "uint8[]"
        },
        {
          "internalType": "address[]",
          "name": "",
          "type": "address[]"
        },
        {
          "internalType": "uint256[]",
          "name": "_decreaseAmount",
          "type": "uint256[]"
        }
      ],
      "name": "decreaseVaultBalances",
      "outputs": [],
      "payable": false,
      "stateMutability": "nonpayable",
      "type": "function"
    },
    {
      "constant": false,
      "inputs": [
        {
          "internalType": "address",
          "name": "_bAsset",
          "type": "address"
        }
      ],
      "name": "failBasset",
      "outputs": [],
      "payable": false,
      "stateMutability": "nonpayable",
      "type": "function"
    },
    {
      "constant": true,
      "inputs": [],
      "name": "getBasket",
      "outputs": [
        {
          "components": [
            {
              "components": [
                {
                  "internalType": "address",
                  "name": "addr",
                  "type": "address"
                },
                {
                  "internalType": "enum MixStructs.BassetStatus",
                  "name": "status",
                  "type": "uint8"
                },
                {
                  "internalType": "bool",
                  "name": "isTransferFeeCharged",
                  "type": "bool"
                },
                {
                  "internalType": "uint256",
                  "name": "ratio",
                  "type": "uint256"
                },
                {
                  "internalType": "uint256",
                  "name": "maxWeight",
                  "type": "uint256"
                },
                {
                  "internalType": "uint256",
                  "name": "vaultBalance",
                  "type": "uint256"
                }
              ],
              "internalType": "struct MixStructs.Basset[]",
              "name": "bassets",
              "type": "tuple[]"
            },
            {
              "internalType": "uint8",
              "name": "maxBassets",
              "type": "uint8"
            },
            {
              "internalType": "bool",
              "name": "undergoingRecol",
              "type": "bool"
            },
            {
              "internalType": "bool",
              "name": "failed",
              "type": "bool"
            },
            {
              "internalType": "uint256",
              "name": "collateralisationRatio",
              "type": "uint256"
            }
          ],
          "internalType": "struct MixStructs.Basket",
          "name": "b",
          "type": "tuple"
        }
      ],
      "payable": false,
      "stateMutability": "view",
      "type": "function"
    },
    {
      "constant": true,
      "inputs": [
        {
          "internalType": "address",
          "name": "_bAsset",
          "type": "address"
        }
      ],
      "name": "getBasset",
      "outputs": [
        {
          "components": [
            {
              "internalType": "address",
              "name": "addr",
              "type": "address"
            },
            {
              "internalType": "enum MixStructs.BassetStatus",
              "name": "status",
              "type": "uint8"
            },
            {
              "internalType": "bool",
              "name": "isTransferFeeCharged",
              "type": "bool"
            },
            {
              "internalType": "uint256",
              "name": "ratio",
              "type": "uint256"
            },
            {
              "internalType": "uint256",
              "name": "maxWeight",
              "type": "uint256"
            },
            {
              "internalType": "uint256",
              "name": "vaultBalance",
              "type": "uint256"
            }
          ],
          "internalType": "struct MixStructs.Basset",
          "name": "bAsset",
          "type": "tuple"
        }
      ],
      "payable": false,
      "stateMutability": "view",
      "type": "function"
    },
    {
      "constant": true,
      "inputs": [
        {
          "internalType": "address",
          "name": "_bAsset",
          "type": "address"
        }
      ],
      "name": "getBassetIntegrator",
      "outputs": [
        {
          "internalType": "address",
          "name": "integrator",
          "type": "address"
        }
      ],
      "payable": false,
      "stateMutability": "view",
      "type": "function"
    },
    {
      "constant": true,
      "inputs": [],
      "name": "getBassets",
      "outputs": [
        {
          "components": [
            {
              "internalType": "address",
              "name": "addr",
              "type": "address"
            },
            {
              "internalType": "enum MixStructs.BassetStatus",
              "name": "status",
              "type": "uint8"
            },
            {
              "internalType": "bool",
              "name": "isTransferFeeCharged",
              "type": "bool"
            },
            {
              "internalType": "uint256",
              "name": "ratio",
              "type": "uint256"
            },
            {
              "internalType": "uint256",
              "name": "maxWeight",
              "type": "uint256"
            },
            {
              "internalType": "uint256",
              "name": "vaultBalance",
              "type": "uint256"
            }
          ],
          "internalType": "struct MixStructs.Basset[]",
          "name": "bAssets",
          "type": "tuple[]"
        },
        {
          "internalType": "uint256",
          "name": "len",
          "type": "uint256"
        }
      ],
      "payable": false,
      "stateMutability": "view",
      "type": "function"
    },
    {
      "constant": false,
      "inputs": [
        {
          "internalType": "address",
          "name": "_bAsset",
          "type": "address"
        },
        {
          "internalType": "bool",
          "name": "_belowPeg",
          "type": "bool"
        }
      ],
      "name": "handlePegLoss",
      "outputs": [
        {
          "internalType": "bool",
          "name": "alreadyActioned",
          "type": "bool"
        }
      ],
      "payable": false,
      "stateMutability": "nonpayable",
      "type": "function"
    },
    {
      "constant": false,
      "inputs": [
        {
          "internalType": "uint8",
          "name": "_bAssetIndex",
          "type": "uint8"
        },
        {
          "internalType": "address",
          "name": "",
          "type": "address"
        },
        {
          "internalType": "uint256",
          "name": "_increaseAmount",
          "type": "uint256"
        }
      ],
      "name": "increaseVaultBalance",
      "outputs": [],
      "payable": false,
      "stateMutability": "nonpayable",
      "type": "function"
    },
    {
      "constant": false,
      "inputs": [
        {
          "internalType": "uint8[]",
          "name": "_bAssetIndices",
          "type": "uint8[]"
        },
        {
          "internalType": "address[]",
          "name": "",
          "type": "address[]"
        },
        {
          "internalType": "uint256[]",
          "name": "_increaseAmount",
          "type": "uint256[]"
        }
      ],
      "name": "increaseVaultBalances",
      "outputs": [],
      "payable": false,
      "stateMutability": "nonpayable",
      "type": "function"
    },
    {
      "constant": false,
      "inputs": [
        {
          "internalType": "address",
          "name": "_nexus",
          "type": "address"
        },
        {
          "internalType": "address",
          "name": "_mIx",
          "type": "address"
        },
        {
          "internalType": "address[]",
          "name": "_bAssets",
          "type": "address[]"
        },
        {
          "internalType": "address[]",
          "name": "_integrators",
          "type": "address[]"
        },
        {
          "internalType": "uint256[]",
          "name": "_weights",
          "type": "uint256[]"
        },
        {
          "internalType": "bool[]",
          "name": "_hasTransferFees",
          "type": "bool[]"
        }
      ],
      "name": "initialize",
      "outputs": [],
      "payable": false,
      "stateMutability": "nonpayable",
      "type": "function"
    },
    {
      "constant": true,
      "inputs": [
        {
          "internalType": "uint256",
          "name": "",
          "type": "uint256"
        }
      ],
      "name": "integrations",
      "outputs": [
        {
          "internalType": "address",
          "name": "",
          "type": "address"
        }
      ],
      "payable": false,
      "stateMutability": "view",
      "type": "function"
    },
    {
      "constant": true,
      "inputs": [],
      "name": "mIx",
      "outputs": [
        {
          "internalType": "address",
          "name": "",
          "type": "address"
        }
      ],
      "payable": false,
      "stateMutability": "view",
      "type": "function"
    },
    {
      "constant": false,
      "inputs": [
        {
          "internalType": "address[]",
          "name": "_bAssets",
          "type": "address[]"
        },
        {
          "internalType": "address",
          "name": "_newIntegration",
          "type": "address"
        }
      ],
      "name": "migrateBassets",
      "outputs": [],
      "payable": false,
      "stateMutability": "nonpayable",
      "type": "function"
    },
    {
      "constant": false,
      "inputs": [
        {
          "internalType": "address",
          "name": "_bAsset",
          "type": "address"
        }
      ],
      "name": "negateIsolation",
      "outputs": [],
      "payable": false,
      "stateMutability": "nonpayable",
      "type": "function"
    },
    {
      "constant": true,
      "inputs": [],
      "name": "nexus",
      "outputs": [
        {
          "internalType": "contract INexus",
          "name": "",
          "type": "address"
        }
      ],
      "payable": false,
      "stateMutability": "view",
      "type": "function"
    },
    {
      "constant": false,
      "inputs": [],
      "name": "pause",
      "outputs": [],
      "payable": false,
      "stateMutability": "nonpayable",
      "type": "function"
    },
    {
      "constant": true,
      "inputs": [],
      "name": "paused",
      "outputs": [
        {
          "internalType": "bool",
          "name": "",
          "type": "bool"
        }
      ],
      "payable": false,
      "stateMutability": "view",
      "type": "function"
    },
    {
      "constant": false,
      "inputs": [
        {
          "internalType": "address",
          "name": "",
          "type": "address"
        },
        {
          "internalType": "uint256",
          "name": "",
          "type": "uint256"
        },
        {
          "internalType": "bool",
          "name": "",
          "type": "bool"
        }
      ],
      "name": "prepareForgeBasset",
      "outputs": [
        {
          "internalType": "bool",
          "name": "isValid",
          "type": "bool"
        },
        {
          "components": [
            {
              "components": [
                {
                  "internalType": "address",
                  "name": "addr",
                  "type": "address"
                },
                {
                  "internalType": "enum MixStructs.BassetStatus",
                  "name": "status",
                  "type": "uint8"
                },
                {
                  "internalType": "bool",
                  "name": "isTransferFeeCharged",
                  "type": "bool"
                },
                {
                  "internalType": "uint256",
                  "name": "ratio",
                  "type": "uint256"
                },
                {
                  "internalType": "uint256",
                  "name": "maxWeight",
                  "type": "uint256"
                },
                {
                  "internalType": "uint256",
                  "name": "vaultBalance",
                  "type": "uint256"
                }
              ],
              "internalType": "struct MixStructs.Basset",
              "name": "bAsset",
              "type": "tuple"
            },
            {
              "internalType": "address",
              "name": "integrator",
              "type": "address"
            },
            {
              "internalType": "uint8",
              "name": "index",
              "type": "uint8"
            }
          ],
          "internalType": "struct MixStructs.BassetDetails",
          "name": "bInfo",
          "type": "tuple"
        }
      ],
      "payable": false,
      "stateMutability": "nonpayable",
      "type": "function"
    },
    {
      "constant": false,
      "inputs": [
        {
          "internalType": "address[]",
          "name": "",
          "type": "address[]"
        },
        {
          "internalType": "uint256[]",
          "name": "",
          "type": "uint256[]"
        },
        {
          "internalType": "bool",
          "name": "",
          "type": "bool"
        }
      ],
      "name": "prepareForgeBassets",
      "outputs": [
        {
          "components": [
            {
              "internalType": "bool",
              "name": "isValid",
              "type": "bool"
            },
            {
              "components": [
                {
                  "internalType": "address",
                  "name": "addr",
                  "type": "address"
                },
                {
                  "internalType": "enum MixStructs.BassetStatus",
                  "name": "status",
                  "type": "uint8"
                },
                {
                  "internalType": "bool",
                  "name": "isTransferFeeCharged",
                  "type": "bool"
                },
                {
                  "internalType": "uint256",
                  "name": "ratio",
                  "type": "uint256"
                },
                {
                  "internalType": "uint256",
                  "name": "maxWeight",
                  "type": "uint256"
                },
                {
                  "internalType": "uint256",
                  "name": "vaultBalance",
                  "type": "uint256"
                }
              ],
              "internalType": "struct MixStructs.Basset[]",
              "name": "bAssets",
              "type": "tuple[]"
            },
            {
              "internalType": "address[]",
              "name": "integrators",
              "type": "address[]"
            },
            {
              "internalType": "uint8[]",
              "name": "indexes",
              "type": "uint8[]"
            }
          ],
          "internalType": "struct MixStructs.ForgePropsMulti",
          "name": "props",
          "type": "tuple"
        }
      ],
      "payable": false,
      "stateMutability": "nonpayable",
      "type": "function"
    },
    {
      "constant": true,
      "inputs": [
        {
          "internalType": "address[]",
          "name": "_bAssets",
          "type": "address[]"
        }
      ],
      "name": "prepareRedeemBassets",
      "outputs": [
        {
          "components": [
            {
              "internalType": "bool",
              "name": "isValid",
              "type": "bool"
            },
            {
              "components": [
                {
                  "internalType": "address",
                  "name": "addr",
                  "type": "address"
                },
                {
                  "internalType": "enum MixStructs.BassetStatus",
                  "name": "status",
                  "type": "uint8"
                },
                {
                  "internalType": "bool",
                  "name": "isTransferFeeCharged",
                  "type": "bool"
                },
                {
                  "internalType": "uint256",
                  "name": "ratio",
                  "type": "uint256"
                },
                {
                  "internalType": "uint256",
                  "name": "maxWeight",
                  "type": "uint256"
                },
                {
                  "internalType": "uint256",
                  "name": "vaultBalance",
                  "type": "uint256"
                }
              ],
              "internalType": "struct MixStructs.Basset[]",
              "name": "allBassets",
              "type": "tuple[]"
            },
            {
              "components": [
                {
                  "internalType": "address",
                  "name": "addr",
                  "type": "address"
                },
                {
                  "internalType": "enum MixStructs.BassetStatus",
                  "name": "status",
                  "type": "uint8"
                },
                {
                  "internalType": "bool",
                  "name": "isTransferFeeCharged",
                  "type": "bool"
                },
                {
                  "internalType": "uint256",
                  "name": "ratio",
                  "type": "uint256"
                },
                {
                  "internalType": "uint256",
                  "name": "maxWeight",
                  "type": "uint256"
                },
                {
                  "internalType": "uint256",
                  "name": "vaultBalance",
                  "type": "uint256"
                }
              ],
              "internalType": "struct MixStructs.Basset[]",
              "name": "bAssets",
              "type": "tuple[]"
            },
            {
              "internalType": "address[]",
              "name": "integrators",
              "type": "address[]"
            },
            {
              "internalType": "uint8[]",
              "name": "indexes",
              "type": "uint8[]"
            }
          ],
          "internalType": "struct MixStructs.RedeemProps",
          "name": "props",
          "type": "tuple"
        }
      ],
      "payable": false,
      "stateMutability": "view",
      "type": "function"
    },
    {
      "constant": true,
      "inputs": [],
      "name": "prepareRedeemMulti",
      "outputs": [
        {
          "components": [
            {
              "internalType": "uint256",
              "name": "colRatio",
              "type": "uint256"
            },
            {
              "components": [
                {
                  "internalType": "address",
                  "name": "addr",
                  "type": "address"
                },
                {
                  "internalType": "enum MixStructs.BassetStatus",
                  "name": "status",
                  "type": "uint8"
                },
                {
                  "internalType": "bool",
                  "name": "isTransferFeeCharged",
                  "type": "bool"
                },
                {
                  "internalType": "uint256",
                  "name": "ratio",
                  "type": "uint256"
                },
                {
                  "internalType": "uint256",
                  "name": "maxWeight",
                  "type": "uint256"
                },
                {
                  "internalType": "uint256",
                  "name": "vaultBalance",
                  "type": "uint256"
                }
              ],
              "internalType": "struct MixStructs.Basset[]",
              "name": "bAssets",
              "type": "tuple[]"
            },
            {
              "internalType": "address[]",
              "name": "integrators",
              "type": "address[]"
            },
            {
              "internalType": "uint8[]",
              "name": "indexes",
              "type": "uint8[]"
            }
          ],
          "internalType": "struct MixStructs.RedeemPropsMulti",
          "name": "props",
          "type": "tuple"
        }
      ],
      "payable": false,
      "stateMutability": "view",
      "type": "function"
    },
    {
      "constant": true,
      "inputs": [
        {
          "internalType": "address",
          "name": "_input",
          "type": "address"
        },
        {
          "internalType": "address",
          "name": "_output",
          "type": "address"
        },
        {
          "internalType": "bool",
          "name": "_isMint",
          "type": "bool"
        }
      ],
      "name": "prepareSwapBassets",
      "outputs": [
        {
          "internalType": "bool",
          "name": "",
          "type": "bool"
        },
        {
          "internalType": "string",
          "name": "",
          "type": "string"
        },
        {
          "components": [
            {
              "components": [
                {
                  "internalType": "address",
                  "name": "addr",
                  "type": "address"
                },
                {
                  "internalType": "enum MixStructs.BassetStatus",
                  "name": "status",
                  "type": "uint8"
                },
                {
                  "internalType": "bool",
                  "name": "isTransferFeeCharged",
                  "type": "bool"
                },
                {
                  "internalType": "uint256",
                  "name": "ratio",
                  "type": "uint256"
                },
                {
                  "internalType": "uint256",
                  "name": "maxWeight",
                  "type": "uint256"
                },
                {
                  "internalType": "uint256",
                  "name": "vaultBalance",
                  "type": "uint256"
                }
              ],
              "internalType": "struct MixStructs.Basset",
              "name": "bAsset",
              "type": "tuple"
            },
            {
              "internalType": "address",
              "name": "integrator",
              "type": "address"
            },
            {
              "internalType": "uint8",
              "name": "index",
              "type": "uint8"
            }
          ],
          "internalType": "struct MixStructs.BassetDetails",
          "name": "",
          "type": "tuple"
        },
        {
          "components": [
            {
              "components": [
                {
                  "internalType": "address",
                  "name": "addr",
                  "type": "address"
                },
                {
                  "internalType": "enum MixStructs.BassetStatus",
                  "name": "status",
                  "type": "uint8"
                },
                {
                  "internalType": "bool",
                  "name": "isTransferFeeCharged",
                  "type": "bool"
                },
                {
                  "internalType": "uint256",
                  "name": "ratio",
                  "type": "uint256"
                },
                {
                  "internalType": "uint256",
                  "name": "maxWeight",
                  "type": "uint256"
                },
                {
                  "internalType": "uint256",
                  "name": "vaultBalance",
                  "type": "uint256"
                }
              ],
              "internalType": "struct MixStructs.Basset",
              "name": "bAsset",
              "type": "tuple"
            },
            {
              "internalType": "address",
              "name": "integrator",
              "type": "address"
            },
            {
              "internalType": "uint8",
              "name": "index",
              "type": "uint8"
            }
          ],
          "internalType": "struct MixStructs.BassetDetails",
          "name": "",
          "type": "tuple"
        }
      ],
      "payable": false,
      "stateMutability": "view",
      "type": "function"
    },
    {
      "constant": false,
      "inputs": [
        {
          "internalType": "address",
          "name": "_assetToRemove",
          "type": "address"
        }
      ],
      "name": "removeBasset",
      "outputs": [],
      "payable": false,
      "stateMutability": "nonpayable",
      "type": "function"
    },
    {
      "constant": false,
      "inputs": [
        {
          "internalType": "address[]",
          "name": "_bAssets",
          "type": "address[]"
        },
        {
          "internalType": "uint256[]",
          "name": "_weights",
          "type": "uint256[]"
        }
      ],
      "name": "setBasketWeights",
      "outputs": [],
      "payable": false,
      "stateMutability": "nonpayable",
      "type": "function"
    },
    {
      "constant": false,
      "inputs": [
        {
          "internalType": "address",
          "name": "_bAsset",
          "type": "address"
        },
        {
          "internalType": "bool",
          "name": "_flag",
          "type": "bool"
        }
      ],
      "name": "setTransferFeesFlag",
      "outputs": [],
      "payable": false,
      "stateMutability": "nonpayable",
      "type": "function"
    },
    {
      "constant": false,
      "inputs": [],
      "name": "unpause",
      "outputs": [],
      "payable": false,
      "stateMutability": "nonpayable",
      "type": "function"
    }
  ],
  "bytecode": "0x6080604052603b805460ff60a01b191690553480156200001e57600080fd5b5060405162005c2d38038062005c2d833981016040819052620000419162000145565b6040805160c081019091526001600160a01b03821681526020810160018152602001600015158152602001620000816200012a60201b620029881760201c565b8152600060208083018290526040909201528151604280546001600160a01b0319166001600160a01b0390921691909117808255918301519091829060ff60a01b1916600160a01b836007811115620000d657fe5b021790555060408201518154901515600160a81b0260ff60a81b19909116178155606082015160018201556080820151600282015560a09091015160039091015550670de0b6b3a7640000603f556200019a565b6305f5e10090565b80516200013f8162000180565b92915050565b6000602082840312156200015857600080fd5b600062000166848462000132565b949350505050565b60006001600160a01b0382166200013f565b6200018b816200016e565b81146200019757600080fd5b50565b615a8380620001aa6000396000f3fe608060405234801561001057600080fd5b50600436106101d95760003560e01c8063905e891411610104578063c0e46a2f116100a2578063dc686c8c11610071578063dc686c8c1461042e578063edc832b314610441578063f8085f1014610459578063fc94058e14610461576101d9565b8063c0e46a2f146103d3578063c4a80a2a146103f3578063cd6ef2b014610406578063d5e1d2791461041b576101d9565b8063a3f5c1d2116100de578063a3f5c1d214610377578063a59824c51461038c578063bdfbe29c1461039f578063bf9ca02d146103b2576101d9565b8063905e891414610331578063969642b9146103445780639d01cd3514610357576101d9565b80633f4ba83a1161017c5780636fb3e89c1161014b5780636fb3e89c146102e3578063790bde32146102f65780638456cb591461031657806388a90f511461031e576101d9565b80633f4ba83a1461029e57806343ae78be146102a65780635c975abb146102bb5780635d16cf42146102d0576101d9565b80631d3ce398116101b85780631d3ce3981461022f5780632a2fab22146102455780632bf596cf1461025b5780633e37bcbc1461027e576101d9565b80629e328b146101de57806309f2a983146102075780630b2d85011461021c575b600080fd5b6101f16101ec3660046140df565b610474565b6040516101fe9190615920565b60405180910390f35b61021a610215366004613fad565b610523565b005b61021a61022a366004614223565b6105c9565b61023761069d565b6040516101fe92919061556b565b61024d6106b1565b6040516101fe929190615900565b61026e6102693660046140df565b610a23565b6040516101fe9493929190615599565b61029161028c366004613fad565b610dab565b6040516101fe91906158bf565b61021a610de9565b6102ae610e91565b6040516101fe91906158de565b6102c3611017565b6040516101fe919061558b565b61021a6102de366004614467565b611027565b61021a6102f13660046141d9565b6110fb565b6103096103043660046143ef565b6116fb565b6040516101fe9190615469565b61021a611722565b61021a61032c366004614315565b6117c7565b6102c361033f36600461412c565b6118e5565b61021a610352366004613fad565b611a93565b61036a610365366004614291565b611c04565b6040516101fe91906158cd565b61037f611d93565b6040516101fe9190615601565b61021a61039a366004613fad565b611da2565b61021a6103ad36600461412c565b611e91565b6103c56103c0366004614166565b6120d7565b6040516101fe9291906155d7565b6103e66103e1366004614198565b612193565b6040516101fe91906158ef565b610309610401366004613fad565b612361565b61040e6123bd565b6040516101fe91906158ae565b61021a610429366004614315565b6124dc565b61021a61043c366004614467565b612626565b6104496126c6565b6040516101fe949392919061592e565b6103096126e8565b61021a61046f366004613fe9565b6126f7565b600061047e612906565b6001600160a01b0316336001600160a01b0316146104b75760405162461bcd60e51b81526004016104ae9061572e565b60405180910390fd5b603e5462010000900460ff16156104e05760405162461bcd60e51b81526004016104ae906157ee565b603e54610100900460ff16156105085760405162461bcd60e51b81526004016104ae906156ae565b61051b8484610515612988565b85612990565b949350505050565b603e5462010000900460ff161561054c5760405162461bcd60e51b81526004016104ae906157ee565b603e54610100900460ff16156105745760405162461bcd60e51b81526004016104ae906156ae565b3361057d612cb2565b6001600160a01b031614806105a1575033610596612906565b6001600160a01b0316145b6105bd5760405162461bcd60e51b81526004016104ae9061571e565b6105c681612cfd565b50565b6105d1612906565b6001600160a01b0316336001600160a01b0316146106015760405162461bcd60e51b81526004016104ae9061572e565b603e5462010000900460ff161561062a5760405162461bcd60e51b81526004016104ae906157ee565b61069784848080602002602001604051908101604052809392919081815260200183836020028082843760009201919091525050604080516020808802828101820190935287825290935087925086918291850190849080828437600092018290525092506131c7915050565b50505050565b606060006106a9613385565b915091509091565b603c546000906060906001600160a01b031633146106e15760405162461bcd60e51b81526004016104ae9061564e565b603b54600160a01b900460ff161561070b5760405162461bcd60e51b81526004016104ae9061574e565b603e5462010000900460ff16156107345760405162461bcd60e51b81526004016104ae906157ee565b603b54600160a81b900460ff1661075d5760405162461bcd60e51b81526004016104ae9061585e565b603b805460ff60a81b1916905560606000610776613385565b91509150806040519080825280602002602001820160405280156107a4578160200160208202803883390190505b50600094509250835b818160ff161015610a09576107c0613dfc565b838260ff16815181106107cf57fe5b60200260200101519050600081600001519050600060418460ff16815481106107f457fe5b6000918252602082200154604051632fa8a91360e11b81526001600160a01b0390911692508290635f5152269061082f908690600401615469565b602060405180830381600087803b15801561084957600080fd5b505af115801561085d573d6000803e3d6000fd5b505050506040513d601f19601f82011682018060405250610881919081019061440d565b604085015190915060009061090f576040516370a0823160e01b81526001600160a01b038516906370a08231906108bc908690600401615469565b60206040518083038186803b1580156108d457600080fd5b505afa1580156108e8573d6000803e3d6000fd5b505050506040513d601f19601f8201168201806040525061090c919081019061440d565b90505b6000610921838363ffffffff61346616565b60a08701519091508082118015610947575060018760200151600781111561094557fe5b145b156109d85781603d6000018960ff168154811061096057fe5b60009182526020822060036004909202010191909155610986838363ffffffff61349216565b9050808c8a60ff168151811061099857fe5b60200260200101818152505060006109bd8960600151836134d490919063ffffffff16565b90506109cf8e8263ffffffff61346616565b9d5050506109f6565b60008b8960ff16815181106109e957fe5b6020026020010181815250505b5050600190950194506107ad9350505050565b5050603b805460ff60a81b1916600160a81b179055509091565b60006060610a2f613e35565b610a37613e35565b603b54600160a01b900460ff1615610a615760405162461bcd60e51b81526004016104ae9061574e565b610a69613e35565b610a71613e35565b603e5462010000900460ff1680610a8f5750603e54610100900460ff165b15610ad85760408051808201909152601b81527f4261736b657420697320756e646572676f696e67206368616e6765000000000060208201526000965094509092509050610da2565b600080610ae48b6134e5565b9150915081610b3357505060408051808201909152601a81527f496e70757420617373657420646f6573206e6f7420657869737400000000000060208201526000965094509092509050610da2565b6040518060600160405280603d6000018360ff1681548110610b5157fe5b60009182526020918290206040805160c0810190915260049092020180546001600160a01b0381168352919290919083019060ff600160a01b909104166007811115610b9957fe5b6007811115610ba457fe5b81526020016000820160159054906101000a900460ff161515151581526020016001820154815260200160028201548152602001600382015481525050815260200160418360ff1681548110610bf657fe5b600091825260209182902001546001600160a01b0316825260ff841691015293508815610c3e5750506040805160208101909152600081526001965094509092509050610da2565b600080610c4a8c6134e5565b9150915081610c9d57505060408051808201909152601b81527f4f757470757420617373657420646f6573206e6f7420657869737400000000006020820152600098509650929450909250610da2915050565b6040518060600160405280603d6000018360ff1681548110610cbb57fe5b60009182526020918290206040805160c0810190915260049092020180546001600160a01b0381168352919290919083019060ff600160a01b909104166007811115610d0357fe5b6007811115610d0e57fe5b81526020016000820160159054906101000a900460ff161515151581526020016001820154815260200160028201548152602001600382015481525050815260200160418360ff1681548110610d6057fe5b60009182526020808320909101546001600160a01b0316835260ff90941691840191909152604080519384019052825260019a50909850949650939450505050505b93509350935093565b610db3613dfc565b600080610dbf846134e5565b9150915081610de05760405162461bcd60e51b81526004016104ae9061579e565b61051b81613563565b610df1612906565b6001600160a01b0316336001600160a01b031614610e215760405162461bcd60e51b81526004016104ae9061572e565b603b54600160a01b900460ff16610e4a5760405162461bcd60e51b81526004016104ae9061563e565b603b805460ff60a01b191690556040517f5db9ee0a495bf2e6ff9c91a7834c1ba4fdd244a5e8aa4e537bd38aeae4b073aa90610e87903390615477565b60405180910390a1565b610e99613e5c565b603b54600160a01b900460ff1615610ec35760405162461bcd60e51b81526004016104ae9061574e565b603e54610100900460ff1615610eeb5760405162461bcd60e51b81526004016104ae906156ae565b60606000610ef7613385565b91509150606081604051908082528060200260200182016040528015610f27578160200160208202803883390190505b509050606082604051908082528060200260200182016040528015610f56578160200160208202803883390190505b50905060005b838160ff161015610fee5760418160ff1681548110610f7757fe5b9060005260206000200160009054906101000a90046001600160a01b0316838260ff1681518110610fa457fe5b60200260200101906001600160a01b031690816001600160a01b03168152505080828260ff1681518110610fd457fe5b60ff90921660209283029190910190910152600101610f5c565b5060408051608081018252603f5481526020810195909552840191909152606083015250919050565b603b54600160a01b900460ff1690565b603c546001600160a01b031633146110515760405162461bcd60e51b81526004016104ae9061564e565b603b54600160a81b900460ff1661107a5760405162461bcd60e51b81526004016104ae9061585e565b603b805460ff60a81b19169055603d80546110be91839160ff871690811061109e57fe5b90600052602060002090600402016003015461349290919063ffffffff16565b603d805460ff86169081106110cf57fe5b60009182526020909120600360049092020101555050603b805460ff60a81b1916600160a81b17905550565b611103612906565b6001600160a01b0316336001600160a01b0316146111335760405162461bcd60e51b81526004016104ae9061572e565b81806111515760405162461bcd60e51b81526004016104ae9061565e565b60005b818110156116b957600085858381811061116a57fe5b905060200201602061117f9190810190613fad565b905060008061118d836134e5565b91509150816111ae5760405162461bcd60e51b81526004016104ae9061584e565b603d805460ff83169081106111bf57fe5b6000918252602090912060049091020154600160a81b900460ff16156111f75760405162461bcd60e51b81526004016104ae9061573e565b600060418260ff168154811061120957fe5b6000918252602090912001546001600160a01b03908116915087168114156112435760405162461bcd60e51b81526004016104ae9061583e565b6040516370a0823160e01b81526000906001600160a01b038616906370a0823190611272908590600401615469565b60206040518083038186803b15801561128a57600080fd5b505afa15801561129e573d6000803e3d6000fd5b505050506040513d601f19601f820116820180604052506112c2919081019061440d565b90506000826001600160a01b0316635f515226876040518263ffffffff1660e01b81526004016112f29190615469565b602060405180830381600087803b15801561130c57600080fd5b505af1158015611320573d6000803e3d6000fd5b505050506040513d601f19601f82011682018060405250611344919081019061440d565b905080156113b25760405163934785b760e01b81526001600160a01b0384169063934785b79061137f9030908a9086906000906004016154ad565b600060405180830381600087803b15801561139957600080fd5b505af11580156113ad573d6000803e3d6000fd5b505050505b811561141b5760405163a4e2859560e01b81526001600160a01b0384169063a4e28595906113e89030908a908790600401615485565b600060405180830381600087803b15801561140257600080fd5b505af1158015611416573d6000803e3d6000fd5b505050505b600061142d828463ffffffff61346616565b90508960418660ff168154811061144057fe5b600091825260209091200180546001600160a01b0319166001600160a01b039283161790556114729088168b8361360a565b6040516307dba22560e31b81528a906001600160a01b03821690633edd1128906114a5908b9087906000906004016154fd565b602060405180830381600087803b1580156114bf57600080fd5b505af11580156114d3573d6000803e3d6000fd5b505050506040513d601f19601f820116820180604052506114f7919081019061440d565b50604051632fa8a91360e11b81526000906001600160a01b03831690635f51522690611527908c90600401615469565b602060405180830381600087803b15801561154157600080fd5b505af1158015611555573d6000803e3d6000fd5b505050506040513d601f19601f82011682018060405250611579919081019061440d565b90506000896001600160a01b03166370a08231846040518263ffffffff1660e01b81526004016115a99190615469565b60206040518083038186803b1580156115c157600080fd5b505afa1580156115d5573d6000803e3d6000fd5b505050506040513d601f19601f820116820180604052506115f9919081019061440d565b9050670de111a6b7de4000670de05bc096e9c00061161d878263ffffffff61366816565b841015801561163b5750611637878363ffffffff61366816565b8411155b6116575760405162461bcd60e51b81526004016104ae9061570e565b611667888263ffffffff61366816565b83101580156116855750611681888363ffffffff61366816565b8311155b6116a15760405162461bcd60e51b81526004016104ae9061570e565b50506001909a01995061115498505050505050505050565b507f407ca8e939a25b34f290fb7f4d3b0d85d03f13313dc34a6a15bbd91492cfa2498484846040516116ed93929190615525565b60405180910390a150505050565b6041818154811061170857fe5b6000918252602090912001546001600160a01b0316905081565b61172a612906565b6001600160a01b0316336001600160a01b03161461175a5760405162461bcd60e51b81526004016104ae9061572e565b603b54600160a01b900460ff16156117845760405162461bcd60e51b81526004016104ae9061574e565b603b805460ff60a01b1916600160a01b1790556040517f62e78cea01bee320cd4e420270b5ea74000d11b0c9f74754ebdbfc544b05a25890610e87903390615477565b603c546001600160a01b031633146117f15760405162461bcd60e51b81526004016104ae9061564e565b603b54600160a81b900460ff1661181a5760405162461bcd60e51b81526004016104ae9061585e565b603b805460ff60a81b191690558460005b818110156118c85761187c84848381811061184257fe5b90506020020135603d6000018a8a8581811061185a57fe5b905060200201602061186f919081019061442b565b60ff168154811061109e57fe5b603d89898481811061188a57fe5b905060200201602061189f919081019061442b565b60ff16815481106118ac57fe5b600091825260209091206003600490920201015560010161182b565b5050603b805460ff60a81b1916600160a81b179055505050505050565b6000336118f0612cb2565b6001600160a01b03161480611914575033611909612906565b6001600160a01b0316145b6119305760405162461bcd60e51b81526004016104ae9061571e565b603e5462010000900460ff16156119595760405162461bcd60e51b81526004016104ae906157ee565b600080611965856134e5565b60ff1691509150816119895760405162461bcd60e51b81526004016104ae906156fe565b6000603d600001828154811061199b57fe5b6000918252602082206004909102015460ff600160a01b909104169150856119c45760036119c7565b60025b90508060078111156119d557fe5b8260078111156119e157fe5b14806119f157506119f18261367d565b15611a03576001945050505050611a8d565b80603d6000018481548110611a1457fe5b60009182526020909120600490910201805460ff60a01b1916600160a01b836007811115611a3e57fe5b0217905550866001600160a01b03167f4fd6d64c6e0a8165ba76233d6e3d0cdc923400a6a06842cd8852e04892fc9e4e82604051611a7c919061560f565b60405180910390a260009450505050505b92915050565b33611a9c612cb2565b6001600160a01b03161480611ac0575033611ab5612906565b6001600160a01b0316145b611adc5760405162461bcd60e51b81526004016104ae9061571e565b600080611ae8836134e5565b60ff169150915081611b0c5760405162461bcd60e51b81526004016104ae9061579e565b6000603d6000018281548110611b1e57fe5b6000918252602090912060049091020154600160a01b900460ff1690506002816007811115611b4957fe5b1480611b6057506003816007811115611b5e57fe5b145b80611b7657506004816007811115611b7457fe5b145b15610697576001603d6000018381548110611b8d57fe5b60009182526020909120600490910201805460ff60a01b1916600160a01b836007811115611bb757fe5b0217905550836001600160a01b03167f4fd6d64c6e0a8165ba76233d6e3d0cdc923400a6a06842cd8852e04892fc9e4e6001604051611bf6919061560f565b60405180910390a250505050565b611c0c613e84565b604080516001808252818301909252606091816020015b611c2b613dfc565b815260200190600190039081611c2357505060408051600180825281830190925291925060609190602080830190803883395050604080516001808252818301909252929350606092915060208083019080388339019050506040805160c08101909152604280546001600160a01b03811683529293509091602083019060ff600160a01b909104166007811115611cbf57fe5b6007811115611cca57fe5b81528154600160a81b900460ff1615156020820152600182015460408201526002820154606082015260039091015460809091015283518490600090611d0c57fe5b6020026020010181905250600082600081518110611d2657fe5b60200260200101906001600160a01b031690816001600160a01b031681525050600081600081518110611d5557fe5b60ff90921660209283029190910182015260408051608081018252600081529182019490945292830191909152606082015290505b95945050505050565b603b546001600160a01b031681565b611daa612906565b6001600160a01b0316336001600160a01b031614611dda5760405162461bcd60e51b81526004016104ae9061572e565b600080611de6836134e5565b60ff169150915081611e0a5760405162461bcd60e51b81526004016104ae9061579e565b6000603d6000018281548110611e1c57fe5b6000918252602090912060049091020154600160a01b900460ff1690506002816007811115611e4757fe5b1480611e5e57506003816007811115611e5c57fe5b145b611e7a5760405162461bcd60e51b81526004016104ae906156ee565b5050603e805462ff00001916620100001790555050565b33611e9a612cb2565b6001600160a01b03161480611ebe575033611eb3612906565b6001600160a01b0316145b611eda5760405162461bcd60e51b81526004016104ae9061571e565b600080611ee6846134e5565b9150915081611f075760405162461bcd60e51b81526004016104ae9061584e565b82603d6000018260ff1681548110611f1b57fe5b600091825260209091206004909102018054911515600160a81b0260ff60a81b19909216919091179055821561209e576000846001600160a01b03166370a0823160418460ff1681548110611f6c57fe5b6000918252602090912001546040516001600160e01b031960e084901b168152611fa2916001600160a01b031690600401615469565b60206040518083038186803b158015611fba57600080fd5b505afa158015611fce573d6000803e3d6000fd5b505050506040513d601f19601f82011682018060405250611ff2919081019061440d565b9050801561209c5760418260ff168154811061200a57fe5b6000918252602090912001546040516307dba22560e31b81526001600160a01b0390911690633edd11289061204890889085906001906004016154fd565b602060405180830381600087803b15801561206257600080fd5b505af1158015612076573d6000803e3d6000fd5b505050506040513d601f19601f8201168201806040525061209a919081019061440d565b505b505b836001600160a01b03167ff1d30c51cc85d5f31324e582df608abdbb328479127c2d9c7e70666cbc611c7c84604051611bf6919061558b565b60006120e1613e35565b604080516101208101909152604280546001600160a01b03811660608401908152839290916080840190600160a01b900460ff16600781111561212057fe5b600781111561212b57fe5b81526020016000820160159054906101000a900460ff161515151581526020016001820154815260200160028201548152602001600382015481525050815260200160006001600160a01b03168152602001600060ff16815250905060009150935093915050565b61219b613eae565b603b54600160a01b900460ff16156121c55760405162461bcd60e51b81526004016104ae9061574e565b603e54610100900460ff16156121ed5760405162461bcd60e51b81526004016104ae906156ae565b603e5462010000900460ff16156122165760405162461bcd60e51b81526004016104ae906157ee565b60608060606122578686808060200260200160405190810160405280939291908181526020018383602002808284376000920191909152506136d092505050565b9250925092506040518060a00160405280600115158152602001603d600001805480602002602001604051908101604052809291908181526020016000905b8282101561233d5760008481526020908190206040805160c081019091526004850290910180546001600160a01b03811683529192909190830190600160a01b900460ff1660078111156122e657fe5b60078111156122f157fe5b81526020016000820160159054906101000a900460ff16151515158152602001600182015481526020016002820154815260200160038201548152505081526020019060010190612296565b50505050815260200184815260200182815260200183815250935050505092915050565b600080600061236f846134e5565b91509150816123905760405162461bcd60e51b81526004016104ae9061579e565b60418160ff16815481106123a057fe5b6000918252602090912001546001600160a01b0316949350505050565b6123c5613edf565b60408051603d805460c0602082028401810190945260a083018181529293919284929091849160009085015b828210156124985760008481526020908190206040805160c081019091526004850290910180546001600160a01b03811683529192909190830190600160a01b900460ff16600781111561244157fe5b600781111561244c57fe5b81526020016000820160159054906101000a900460ff161515151581526020016001820154815260200160028201548152602001600382015481525050815260200190600101906123f1565b50505090825250600182015460ff80821660208401526101008204811615156040840152620100009091041615156060820152600290910154608090910152905090565b603c546001600160a01b031633146125065760405162461bcd60e51b81526004016104ae9061564e565b603e5462010000900460ff161561252f5760405162461bcd60e51b81526004016104ae906157ee565b603b54600160a81b900460ff166125585760405162461bcd60e51b81526004016104ae9061585e565b603b805460ff60a81b191690558460005b818110156118c8576125da84848381811061258057fe5b90506020020135603d6000018a8a8581811061259857fe5b90506020020160206125ad919081019061442b565b60ff16815481106125ba57fe5b90600052602060002090600402016003015461346690919063ffffffff16565b603d8989848181106125e857fe5b90506020020160206125fd919081019061442b565b60ff168154811061260a57fe5b6000918252602090912060036004909202010155600101612569565b603c546001600160a01b031633146126505760405162461bcd60e51b81526004016104ae9061564e565b603e5462010000900460ff16156126795760405162461bcd60e51b81526004016104ae906157ee565b603b54600160a81b900460ff166126a25760405162461bcd60e51b81526004016104ae9061585e565b603b805460ff60a81b19169055603d80546110be91839160ff87169081106125ba57fe5b603e54603f5460ff808316926101008104821692620100009091049091169084565b603c546001600160a01b031681565b600054610100900460ff1680612710575061271061397b565b8061271e575060005460ff16155b61273a5760405162461bcd60e51b81526004016104ae906157ce565b600054610100900460ff16158015612765576000805460ff1961ff0019909116610100171660011790555b61276d613981565b6127768b613996565b6001600160a01b038a1661279c5760405162461bcd60e51b81526004016104ae9061582e565b876127b95760405162461bcd60e51b81526004016104ae9061580e565b603c80546001600160a01b038c166001600160a01b0319909116179055603e805460ff1916600a179055670de0b6b3a7640000603f5560005b888110156128765761286d8a8a8381811061280957fe5b905060200201602061281e9190810190613fad565b89898481811061282a57fe5b905060200201602061283f9190810190613fad565b612847612988565b87878681811061285357fe5b905060200201602061286891908101906143b3565b612990565b506001016127f2565b506128e789898080602002602001604051908101604052809392919081815260200183836020028082843760009201919091525050604080516020808b0282810182019093528a82529093508a925089918291850190849080828437600092019190915250600192506131c7915050565b80156128f9576000805461ff00191690555b5050505050505050505050565b603b546040805163030d028960e21b815290516000926001600160a01b031691630c340a24916004808301926020929190829003018186803b15801561294b57600080fd5b505afa15801561295f573d6000803e3d6000fd5b505050506040513d601f19601f820116820180604052506129839190810190613fcb565b905090565b6305f5e10090565b60006001600160a01b0385166129b85760405162461bcd60e51b81526004016104ae906157ae565b6001600160a01b0384166129de5760405162461bcd60e51b81526004016104ae9061586e565b620f424083101580156129f657506402540be4008311155b612a125760405162461bcd60e51b81526004016104ae906156de565b6000612a1d866134e5565b5090508015612a3e5760405162461bcd60e51b81526004016104ae9061577e565b604051632fa8a91360e11b81526001600160a01b03861690635f51522690612a6a908990600401615469565b602060405180830381600087803b158015612a8457600080fd5b505af1158015612a98573d6000803e3d6000fd5b505050506040513d601f19601f82011682018060405250612abc919081019061440d565b506000612ac8876139af565b90506000612add60128363ffffffff61349216565b90506000612af587600a84900a63ffffffff613a5616565b603d54603e549192509060ff90811690821610612b245760405162461bcd60e51b81526004016104ae9061575e565b6001600160a01b038a8116600081815260406020818152818320805460ff191660ff88161790556041805460018181018355919094527f7c9785e8241615bc80415d89775984a1337d15dc1bf4ce50f41988b2a2b336a790930180546001600160a01b031916958f1695909517909455805160c08101909152918252603d92820190815289151560208083019190915260408201869052600060608301819052608090920182905283546001810180865594835291819020835160049093020180546001600160a01b0319166001600160a01b03909316929092178083559083015190829060ff60a01b1916600160a01b836007811115612c2157fe5b02179055506040828101518254901515600160a81b0260ff60a81b19909116178255606083015160018301556080830151600283015560a090920151600390910155516001600160a01b038c1691507fc5841a71c957e4395ad5f2efb03673e584498cce9790cce25bf59e92094dbd3090612c9d908c90615469565b60405180910390a29998505050505050505050565b603b546037546040516385acd64160e01b81526000926001600160a01b0316916385acd64191612ce591906004016155f3565b60206040518083038186803b15801561294b57600080fd5b600080612d09836134e5565b9150915081612d2a5760405162461bcd60e51b81526004016104ae9061584e565b603d54612d35613dfc565b603d805460ff8516908110612d4657fe5b60009182526020918290206040805160c0810190915260049092020180546001600160a01b0381168352919290919083019060ff600160a01b909104166007811115612d8e57fe5b6007811115612d9957fe5b81528154600160a81b900460ff1615156020820152600182015460408201526002820154606082015260039091015460809182015281015190915015612df15760405162461bcd60e51b81526004016104ae9061589e565b60a081015115612e135760405162461bcd60e51b81526004016104ae906156be565b600581602001516007811115612e2557fe5b1415612e435760405162461bcd60e51b81526004016104ae9061569e565b6000612e5683600163ffffffff61349216565b90508060ff168460ff161415612efb57603d805480612e7157fe5b6000828152602080822060046000199094019384020180546001600160b01b03191681556001810183905560028101839055600301829055919092556001600160a01b03881682526040908190529020805460ff191690556041805480612ed457fe5b600082815260209020810160001990810180546001600160a01b0319169055019055613188565b603d805460ff8316908110612f0c57fe5b9060005260206000209060040201603d6000018560ff1681548110612f2d57fe5b60009182526020909120825460049092020180546001600160a01b0319166001600160a01b0390921691909117808255825460ff600160a01b918290041691839160ff60a01b1990911690836007811115612f8457fe5b02179055508154815460ff60a81b1916600160a81b9182900460ff1615159091021781556001808301549082015560028083015490820155600391820154910155603d805480612fd057fe5b60008281526020812060046000199093019283020180546001600160b01b0319168155600181018290556002810182905560030155905561300f613dfc565b603d805460ff871690811061302057fe5b60009182526020918290206040805160c0810190915260049092020180546001600160a01b0381168352919290919083019060ff600160a01b90910416600781111561306857fe5b600781111561307357fe5b81528154600160a81b900460ff90811615156020808401919091526001840154604080850191909152600285015460608501526003909401546080909301929092526001600160a01b038b8116600090815292849052838320805460ff199081169091558551909116835292909120805490921688821617909155604180549293509190841690811061310257fe5b600091825260209091200154604180546001600160a01b039092169160ff881690811061312b57fe5b9060005260206000200160006101000a8154816001600160a01b0302191690836001600160a01b03160217905550604180548061316457fe5b600082815260209020810160001990810180546001600160a01b0319169055019055505b81516040516001600160a01b03909116907f1e5281bbecf5c15104f9e35265dbe738c1cd2597613cbf4a0a51713448bc13b990600090a2505050505050565b8251806131e65760405162461bcd60e51b81526004016104ae9061566e565b825181146132065760405162461bcd60e51b81526004016104ae906157fe565b60005b818110156133465760008061323087848151811061322357fe5b60200260200101516134e5565b91509150816132515760405162461bcd60e51b81526004016104ae9061579e565b613259613dfc565b61326282613563565b9050600087858151811061327257fe5b602002602001015190506001600781111561328957fe5b8260200151600781111561329957fe5b14156132f557670de0b6b3a76400008111156132c75760405162461bcd60e51b81526004016104ae9061568e565b80603d6000018460ff16815481106132db57fe5b906000526020600020906004020160020181905550613336565b603d805460ff851690811061330657fe5b90600052602060002090600402016002015481146133365760405162461bcd60e51b81526004016104ae906157be565b5050600190920191506132099050565b508161335457613354613a90565b7fbe2adf2902216365c5c656d48909da65fad401f809e4351cdbcfcac40674566984846040516116ed929190615546565b60606000603d600001805480602002602001604051908101604052809291908181526020016000905b828210156134555760008481526020908190206040805160c081019091526004850290910180546001600160a01b03811683529192909190830190600160a01b900460ff1660078111156133fe57fe5b600781111561340957fe5b81526020016000820160159054906101000a900460ff161515151581526020016001820154815260200160028201548152602001600382015481525050815260200190600101906133ae565b5050603d5492959294509192505050565b60008282018381101561348b5760405162461bcd60e51b81526004016104ae9061567e565b9392505050565b600061348b83836040518060400160405280601e81526020017f536166654d6174683a207375627472616374696f6e206f766572666c6f770000815250613b1e565b600061348b83836305f5e100613b4a565b6001600160a01b03811660009081526040602081905281205460ff168061355957603d546135185750600090508061355e565b826001600160a01b0316603d60000160008154811061353357fe5b600091825260208220600490910201546001600160a01b0316919091149250905061355e565b600191505b915091565b61356b613dfc565b603d805460ff841690811061357c57fe5b60009182526020918290206040805160c0810190915260049092020180546001600160a01b0381168352919290919083019060ff600160a01b9091041660078111156135c457fe5b60078111156135cf57fe5b81528154600160a81b900460ff1615156020820152600182015460408201526002820154606082015260039091015460809091015292915050565b60405161366390849063a9059cbb60e01b9061362c90869086906024016154e2565b60408051601f198184030181529190526020810180516001600160e01b03166001600160e01b031990931692909217909152613b6f565b505050565b600061348b8383670de0b6b3a7640000613b4a565b6000600582600781111561368d57fe5b14806136a4575060068260078111156136a257fe5b145b806136ba575060078260078111156136b857fe5b145b156136c7575060016136cb565b5060005b919050565b60608060606000845190508060ff1660405190808252806020026020018201604052801561371857816020015b613705613dfc565b8152602001906001900390816136fd5790505b5093508060ff16604051908082528060200260200182016040528015613748578160200160208202803883390190505b5091508060ff16604051908082528060200260200182016040528015613778578160200160208202803883390190505b50925060005b8160ff168160ff161015613972576000868260ff168151811061379d57fe5b6020026020010151905060008260010190505b8360ff168160ff16101561380e57878160ff16815181106137cd57fe5b60200260200101516001600160a01b0316826001600160a01b031614156138065760405162461bcd60e51b81526004016104ae906157de565b6001016137b0565b5060008061381b836134e5565b915091508161383c5760405162461bcd60e51b81526004016104ae9061579e565b80878560ff168151811061384c57fe5b60ff9283166020918202929092010152603d80549091831690811061386d57fe5b60009182526020918290206040805160c0810190915260049092020180546001600160a01b0381168352919290919083019060ff600160a01b9091041660078111156138b557fe5b60078111156138c057fe5b8152815460ff600160a81b909104811615156020830152600183015460408301526002830154606083015260039092015460809091015289518a91871690811061390657fe5b602002602001018190525060418160ff168154811061392157fe5b9060005260206000200160009054906101000a90046001600160a01b0316868560ff168151811061394e57fe5b6001600160a01b03929092166020928302919091019091015250505060010161377e565b50509193909250565b303b1590565b603b805460ff60a81b1916600160a81b179055565b61399f81613c54565b50603b805460ff60a01b19169055565b600080826001600160a01b031663313ce5676040518163ffffffff1660e01b815260040160206040518083038186803b1580156139eb57600080fd5b505afa1580156139ff573d6000803e3d6000fd5b505050506040513d601f19601f82011682018060405250613a239190810190614449565b60ff16905060048110158015613a3a575060128111155b611a8d5760405162461bcd60e51b81526004016104ae9061576e565b600082613a6557506000611a8d565b82820282848281613a7257fe5b041461348b5760405162461bcd60e51b81526004016104ae9061578e565b603d546000805b82811015613add57613ad3603d6000018281548110613ab257fe5b9060005260206000209060040201600201548361346690919063ffffffff16565b9150600101613a97565b50670de0b6b3a76400008110158015613afe5750673782dace9d9000008111155b613b1a5760405162461bcd60e51b81526004016104ae9061587e565b5050565b60008184841115613b425760405162461bcd60e51b81526004016104ae919061561d565b505050900390565b600080613b5d858563ffffffff613a5616565b9050611d8a818463ffffffff613c9d16565b613b81826001600160a01b0316613cdf565b613b9d5760405162461bcd60e51b81526004016104ae9061588e565b60006060836001600160a01b031683604051613bb99190615405565b6000604051808303816000865af19150503d8060008114613bf6576040519150601f19603f3d011682016040523d82523d6000602084013e613bfb565b606091505b509150915081613c1d5760405162461bcd60e51b81526004016104ae906156ce565b8051156106975780806020019051613c3891908101906143d1565b6106975760405162461bcd60e51b81526004016104ae9061581e565b6001600160a01b038116613c7a5760405162461bcd60e51b81526004016104ae9061562e565b603b80546001600160a01b0319166001600160a01b0383161790556105c6613d18565b600061348b83836040518060400160405280601a81526020017f536166654d6174683a206469766973696f6e206279207a65726f000000000000815250613dc5565b6000813f7fc5d2460186f7233c927e7db2dcc703c0e500b653ca82273b7bfad8045d85a47081811480159061051b575050151592915050565b604051613d2490615448565b604051908190038120603355613d399061541c565b604051908190038120603455613d4e90615453565b604051908190038120603555613d639061543d565b604051908190038120603655613d7890615432565b604051908190038120603755613d8d90615427565b604051908190038120603855613da29061545e565b604051908190038120603955613db790615411565b604051908190039020603a55565b60008183613de65760405162461bcd60e51b81526004016104ae919061561d565b506000838581613df257fe5b0495945050505050565b6040805160c081019091526000808252602082019081526020016000151581526020016000815260200160008152602001600081525090565b6040518060600160405280613e48613dfc565b815260006020820181905260409091015290565b6040518060800160405280600081526020016060815260200160608152602001606081525090565b60405180608001604052806000151581526020016060815260200160608152602001606081525090565b6040518060a00160405280600015158152602001606081526020016060815260200160608152602001606081525090565b6040805160a08101825260608082526000602083018190529282018390528101829052608081019190915290565b8035611a8d81615a11565b8051611a8d81615a11565b60008083601f840112613f3557600080fd5b5081356001600160401b03811115613f4c57600080fd5b602083019150836020820283011115613f6457600080fd5b9250929050565b8035611a8d81615a25565b8051611a8d81615a25565b8035611a8d81615a2e565b8051611a8d81615a2e565b8035611a8d81615a37565b8051611a8d81615a37565b600060208284031215613fbf57600080fd5b600061051b8484613f0d565b600060208284031215613fdd57600080fd5b600061051b8484613f18565b60008060008060008060008060008060c08b8d03121561400857600080fd5b60006140148d8d613f0d565b9a505060206140258d828e01613f0d565b99505060408b01356001600160401b0381111561404157600080fd5b61404d8d828e01613f23565b985098505060608b01356001600160401b0381111561406b57600080fd5b6140778d828e01613f23565b965096505060808b01356001600160401b0381111561409557600080fd5b6140a18d828e01613f23565b945094505060a08b01356001600160401b038111156140bf57600080fd5b6140cb8d828e01613f23565b92509250509295989b9194979a5092959850565b6000806000606084860312156140f457600080fd5b60006141008686613f0d565b935050602061411186828701613f0d565b925050604061412286828701613f6b565b9150509250925092565b6000806040838503121561413f57600080fd5b600061414b8585613f0d565b925050602061415c85828601613f6b565b9150509250929050565b60008060006060848603121561417b57600080fd5b60006141878686613f0d565b935050602061411186828701613f81565b600080602083850312156141ab57600080fd5b82356001600160401b038111156141c157600080fd5b6141cd85828601613f23565b92509250509250929050565b6000806000604084860312156141ee57600080fd5b83356001600160401b0381111561420457600080fd5b61421086828701613f23565b9350935050602061412286828701613f0d565b6000806000806040858703121561423957600080fd5b84356001600160401b0381111561424f57600080fd5b61425b87828801613f23565b945094505060208501356001600160401b0381111561427957600080fd5b61428587828801613f23565b95989497509550505050565b6000806000806000606086880312156142a957600080fd5b85356001600160401b038111156142bf57600080fd5b6142cb88828901613f23565b955095505060208601356001600160401b038111156142e957600080fd5b6142f588828901613f23565b9350935050604061430888828901613f6b565b9150509295509295909350565b6000806000806000806060878903121561432e57600080fd5b86356001600160401b0381111561434457600080fd5b61435089828a01613f23565b965096505060208701356001600160401b0381111561436e57600080fd5b61437a89828a01613f23565b945094505060408701356001600160401b0381111561439857600080fd5b6143a489828a01613f23565b92509250509295509295509295565b6000602082840312156143c557600080fd5b600061051b8484613f6b565b6000602082840312156143e357600080fd5b600061051b8484613f76565b60006020828403121561440157600080fd5b600061051b8484613f81565b60006020828403121561441f57600080fd5b600061051b8484613f8c565b60006020828403121561443d57600080fd5b600061051b8484613f97565b60006020828403121561445b57600080fd5b600061051b8484613fa2565b60008060006060848603121561447c57600080fd5b60006144888686613f97565b935050602061449986828701613f0d565b925050604061412286828701613f81565b60006144b683836144f9565b505060200190565b60006144ca838361529e565b505060c00190565b60006144b68383614737565b60006144b683836153fc565b6144f3816159b4565b82525050565b6144f381615988565b600061450e8385615970565b935061451982615963565b8060005b8581101561454f5761452f8284615979565b61453988826144aa565b975061454483615966565b92505060010161451d565b509495945050505050565b60006145658261596c565b61456f8185615970565b935061457a83615966565b8060005b8381101561454f57815161459288826144aa565b975061459d83615966565b92505060010161457e565b60006145b38261596c565b6145bd8185615970565b93506145c883615966565b8060005b8381101561454f5781516145e088826144aa565b97506145eb83615966565b9250506001016145cc565b60006146018261596c565b61460b8185615970565b935061461683615966565b8060005b8381101561454f57815161462e88826144be565b975061463983615966565b92505060010161461a565b600061464f8261596c565b6146598185615970565b935061466483615966565b8060005b8381101561454f57815161467c88826144be565b975061468783615966565b925050600101614668565b600061469d8261596c565b6146a78185615970565b93506146b283615966565b8060005b8381101561454f5781516146ca88826144d2565b97506146d583615966565b9250506001016146b6565b60006146eb8261596c565b6146f58185615970565b935061470083615966565b8060005b8381101561454f57815161471888826144de565b975061472383615966565b925050600101614704565b6144f381615993565b6144f381615963565b600061474b8261596c565b61475581856136cb565b93506147658185602086016159d1565b9290920192915050565b6144f3816159bb565b6144f3816159c6565b600061478c8261596c565b6147968185615970565b93506147a68185602086016159d1565b6147af816159fd565b9093019392505050565b60006147c6601583615970565b744e657875732061646472657373206973207a65726f60581b815260200192915050565b60006147f7601483615970565b7314185d5cd8589b194e881b9bdd081c185d5cd95960621b815260200192915050565b6000614827601583615970565b7409aeae6e840c4ca40c6c2d8d8cac840c4f240da92f605b1b815260200192915050565b6000614858600e836136cb565b6d29b0bb34b733b9a6b0b730b3b2b960911b8152600e0192915050565b6000614882601983615970565b7f4d757374206d69677261746520736f6d65206241737365747300000000000000815260200192915050565b60006148bb601a83615970565b7f456d707479206241737365747320617272617920706173736564000000000000815260200192915050565b60006148f46007836136cb565b665374616b696e6760c81b815260070192915050565b6000614917601b83615970565b7f536166654d6174683a206164646974696f6e206f766572666c6f770000000000815260200192915050565b6000614950601c83615970565b7f417373657420776569676874206d757374206265203c3d203130302500000000815260200192915050565b6000614989601583615970565b74624173736574206d7573742062652061637469766560581b815260200192915050565b60006149ba602283615970565b7f4e6f20624173736574732063616e20626520756e646572676f696e67207265638152611bdb60f21b602082015260400192915050565b60006149fe601a83615970565b7f624173736574207661756c74206d75737420626520656d707479000000000000815260200192915050565b6000614a376010836136cb565b6f2932b1b7b63630ba32b930b634b9b2b960811b815260100192915050565b6000614a63602083615970565b7f5361666545524332303a206c6f772d6c6576656c2063616c6c206661696c6564815260200192915050565b6000614a9c600f83615970565b6e4d4d206f7574206f662072616e676560881b815260200192915050565b6000614ac7601783615970565b7f624173736574206d757374206265206166666563746564000000000000000000815260200192915050565b6000614b00601b83615970565b7f624173736574206d75737420657869737420696e204261736b65740000000000815260200192915050565b6000614b39601983615970565b7f4d757374207472616e736665722066756c6c20616d6f756e7400000000000000815260200192915050565b6000614b72601b83615970565b7f4d757374206265206d616e61676572206f7220676f7665726e6f720000000000815260200192915050565b6000614bab601983615970565b7f4f6e6c7920676f7665726e6f722063616e206578656375746500000000000000815260200192915050565b6000614be4602483615970565b7f43616e6e6f74206d6967726174652062417373657473207769746820786665728152632066656560e01b602082015260400192915050565b6000614c2a601083615970565b6f14185d5cd8589b194e881c185d5cd95960821b815260200192915050565b6000614c566007836136cb565b6626b0b730b3b2b960c91b815260070192915050565b6000614c79601583615970565b7413585e0818905cdcd95d1cc81a5b8810985cdad95d605a1b815260200192915050565b6000614caa602983615970565b7f546f6b656e206d75737420686176652073756666696369656e7420646563696d815268616c20706c6163657360b81b602082015260400192915050565b6000614cf5601f83615970565b7f62417373657420616c72656164792065786973747320696e204261736b657400815260200192915050565b6000614d2e6009836136cb565b6827b930b1b632a43ab160b91b815260090192915050565b6000614d53602183615970565b7f536166654d6174683a206d756c7469706c69636174696f6e206f766572666c6f8152607760f81b602082015260400192915050565b6000614d96601183615970565b7018905cdcd95d081b5d5cdd08195e1a5cdd607a1b815260200192915050565b6000614dc3600a836136cb565b69476f7665726e616e636560b01b8152600a0192915050565b6000614de9601c83615970565b7f6241737365742061646472657373206d7573742062652076616c696400000000815260200192915050565b6000614e22600a836136cb565b69283937bc3ca0b236b4b760b11b8152600a0192915050565b6000614e48601f83615970565b7f41666665637465642062417373657473206d7573742062652073746174696300815260200192915050565b6000614e81602e83615970565b7f436f6e747261637420696e7374616e63652068617320616c726561647920626581526d195b881a5b9a5d1a585b1a5e995960921b602082015260400192915050565b6000614ed1601783615970565b7f4d7573742068617665206e6f206475706c696361746573000000000000000000815260200192915050565b6000614f0a601483615970565b734261736b6574206d75737420626520616c69766560601b815260200192915050565b6000614f3a601e83615970565b7f4d757374206265206d61746368696e6720624173736574206172726179730000815260200192915050565b6000614f73602183615970565b7f4d75737420696e697469616c697365207769746820736f6d65206241737365748152607360f81b602082015260400192915050565b6000614fb6602a83615970565b7f5361666545524332303a204552433230206f7065726174696f6e20646964206e8152691bdd081cdd58d8d9595960b21b602082015260400192915050565b6000615002601383615970565b726d49782061646472657373206973207a65726f60681b815260200192915050565b6000615031601f83615970565b7f4d757374207472616e7366657220746f206e657720696e7465677261746f7200815260200192915050565b600061506a601583615970565b7418905cdcd95d08191bd95cc81b9bdd08195e1a5cdd605a1b815260200192915050565b600061509b601f83615970565b7f5265656e7472616e637947756172643a207265656e7472616e742063616c6c00815260200192915050565b60006150d4602183615970565b7f496e746567726174696f6e2061646472657373206d7573742062652076616c698152601960fa1b602082015260400192915050565b6000615117602783615970565b7f4261736b657420776569676874206d757374206265203e3d20313030202626208152663c3d203430302560c81b602082015260400192915050565b60006151606009836136cb565b682134b6322a37b5b2b760b91b815260090192915050565b6000615185601f83615970565b7f5361666545524332303a2063616c6c20746f206e6f6e2d636f6e747261637400815260200192915050565b60006151be602583615970565b7f624173736574206d7573742068617665206120746172676574207765696768748152640206f6620360dc1b602082015260400192915050565b805160a0808452600091908401906152108282614644565b915050602083015161522560208601826153fc565b506040830151615238604086018261472e565b50606083015161524b606086018261472e565b50608083015161525e6080860182614737565b509392505050565b8051610100830190615278848261529e565b50602082015161528b60c08501826144f9565b50604082015161069760e08501826153fc565b805160c08301906152af84826144f9565b5060208201516152c26020850182614778565b5060408201516152d5604085018261472e565b5060608201516152e86060850182614737565b5060808201516152fb6080850182614737565b5060a082015161069760a0850182614737565b80516000906080840190615322858261472e565b506020830151848203602086015261533a8282614644565b9150506040830151848203604086015261535482826145a8565b91505060608301518482036060860152611d8a82826146e0565b805160009060808401906153228582614737565b805160009060a0840190615396858261472e565b50602083015184820360208601526153ae8282614644565b915050604083015184820360408601526153c88282614644565b915050606083015184820360608601526153e282826145a8565b91505060808301518482036080860152611d8a82826146e0565b6144f3816159ae565b600061348b8284614740565b6000611a8d8261484b565b6000611a8d826148e7565b6000611a8d82614a2a565b6000611a8d82614c49565b6000611a8d82614d21565b6000611a8d82614db6565b6000611a8d82614e15565b6000611a8d82615153565b60208101611a8d82846144f9565b60208101611a8d82846144ea565b6060810161549382866144f9565b6154a060208301856144f9565b61051b6040830184614737565b608081016154bb82876144f9565b6154c860208301866144f9565b6154d56040830185614737565b611d8a606083018461472e565b604081016154f082856144f9565b61348b6020830184614737565b6060810161550b82866144f9565b6155186020830185614737565b61051b604083018461472e565b60408082528101615537818587614502565b905061051b60208301846144f9565b60408082528101615557818561455a565b9050818103602083015261051b8184614692565b6040808252810161557c81856145f6565b905061348b6020830184614737565b60208101611a8d828461472e565b61024081016155a8828761472e565b81810360208301526155ba8186614781565b90506155c96040830185615266565b611d8a610140830184615266565b61012081016155e6828561472e565b61348b6020830184615266565b60208101611a8d8284614737565b60208101611a8d828461476f565b60208101611a8d8284614778565b6020808252810161348b8184614781565b60208082528101611a8d816147b9565b60208082528101611a8d816147ea565b60208082528101611a8d8161481a565b60208082528101611a8d81614875565b60208082528101611a8d816148ae565b60208082528101611a8d8161490a565b60208082528101611a8d81614943565b60208082528101611a8d8161497c565b60208082528101611a8d816149ad565b60208082528101611a8d816149f1565b60208082528101611a8d81614a56565b60208082528101611a8d81614a8f565b60208082528101611a8d81614aba565b60208082528101611a8d81614af3565b60208082528101611a8d81614b2c565b60208082528101611a8d81614b65565b60208082528101611a8d81614b9e565b60208082528101611a8d81614bd7565b60208082528101611a8d81614c1d565b60208082528101611a8d81614c6c565b60208082528101611a8d81614c9d565b60208082528101611a8d81614ce8565b60208082528101611a8d81614d46565b60208082528101611a8d81614d89565b60208082528101611a8d81614ddc565b60208082528101611a8d81614e3b565b60208082528101611a8d81614e74565b60208082528101611a8d81614ec4565b60208082528101611a8d81614efd565b60208082528101611a8d81614f2d565b60208082528101611a8d81614f66565b60208082528101611a8d81614fa9565b60208082528101611a8d81614ff5565b60208082528101611a8d81615024565b60208082528101611a8d8161505d565b60208082528101611a8d8161508e565b60208082528101611a8d816150c7565b60208082528101611a8d8161510a565b60208082528101611a8d81615178565b60208082528101611a8d816151b1565b6020808252810161348b81846151f8565b60c08101611a8d828461529e565b6020808252810161348b818461530e565b6020808252810161348b818461536e565b6020808252810161348b8184615382565b6040810161590e8285614737565b818103602083015261051b8184614692565b60208101611a8d82846153fc565b6080810161593c82876153fc565b615949602083018661472e565b615956604083018561472e565b611d8a6060830184614737565b90565b60200190565b5190565b90815260200190565b600061348b6020840184613f0d565b6000611a8d826159a2565b151590565b806136cb81615a07565b6001600160a01b031690565b60ff1690565b6000611a8d825b6000611a8d82615988565b6000611a8d82615998565b60005b838110156159ec5781810151838201526020016159d4565b838111156106975750506000910152565b601f01601f191690565b600881106105c657fe5b615a1a81615988565b81146105c657600080fd5b615a1a81615993565b615a1a81615963565b615a1a816159ae56fea365627a7a723158203725c53fbbeed73e60b426db6b6610c7916c775bf2e1f94e9e454bef57158fad6c6578706572696d656e74616cf564736f6c63430005100040",
  "linkReferences": {},
  "deployedLinkReferences": {}
}