{
  "_format": "hh-sol-artifact-1",
  "contractName": "MockRoot",
  "sourceName": "contracts/z_mocks/shared/MockRoot.sol",
  "abi": [
    {
      "constant": true,
      "inputs": [
        {
          "internalType": "uint256",
          "name": "r",
          "type": "uint256"
        }
      ],
      "name": "sqrt",
      "outputs": [
        {
          "internalType": "uint256",
          "name": "",
          "type": "uint256"
        }
      ],
      "payable": false,
      "stateMutability": "pure",
      "type": "function"
    }
  ],
  "bytecode": "0x608060405234801561001057600080fd5b5061024d806100206000396000f3fe608060405234801561001057600080fd5b506004361061002b5760003560e01c8063677342ce14610030575b600080fd5b61004d6004803603602081101561004657600080fd5b503561005f565b60408051918252519081900360200190f35b600061006a82610070565b92915050565b600080610095600261008985600163ffffffff6100d816565b9063ffffffff61013916565b90508291505b818110156100d2579050806100cb6002610089836100bf878263ffffffff61013916565b9063ffffffff6100d816565b905061009b565b50919050565b600082820183811015610132576040805162461bcd60e51b815260206004820152601b60248201527f536166654d6174683a206164646974696f6e206f766572666c6f770000000000604482015290519081900360640190fd5b9392505050565b600061013283836040518060400160405280601a81526020017f536166654d6174683a206469766973696f6e206279207a65726f000000000000815250600081836102025760405162461bcd60e51b81526004018080602001828103825283818151815260200191508051906020019080838360005b838110156101c75781810151838201526020016101af565b50505050905090810190601f1680156101f45780820380516001836020036101000a031916815260200191505b509250505060405180910390fd5b50600083858161020e57fe5b049594505050505056fea265627a7a72315820fa9970dc535e4860e014b96d95948fe466d76c795a70d0efea76962a830caf3964736f6c63430005100032",
  "linkReferences": {},
  "deployedLinkReferences": {}
}