{
  "_format": "hh-sol-artifact-1",
  "contractName": "PublicStableMath",
  "sourceName": "contracts/z_mocks/shared/PublicStableMath.sol",
  "abi": [
    {
      "constant": true,
      "inputs": [
        {
          "internalType": "uint256",
          "name": "x",
          "type": "uint256"
        },
        {
          "internalType": "uint256",
          "name": "upperBound",
          "type": "uint256"
        }
      ],
      "name": "clamp",
      "outputs": [
        {
          "internalType": "uint256",
          "name": "",
          "type": "uint256"
        }
      ],
      "payable": false,
      "stateMutability": "pure",
      "type": "function"
    },
    {
      "constant": true,
      "inputs": [
        {
          "internalType": "uint256",
          "name": "x",
          "type": "uint256"
        },
        {
          "internalType": "uint256",
          "name": "y",
          "type": "uint256"
        }
      ],
      "name": "divPrecisely",
      "outputs": [
        {
          "internalType": "uint256",
          "name": "",
          "type": "uint256"
        }
      ],
      "payable": false,
      "stateMutability": "pure",
      "type": "function"
    },
    {
      "constant": true,
      "inputs": [
        {
          "internalType": "uint256",
          "name": "x",
          "type": "uint256"
        },
        {
          "internalType": "uint256",
          "name": "ratio",
          "type": "uint256"
        }
      ],
      "name": "divRatioPrecisely",
      "outputs": [
        {
          "internalType": "uint256",
          "name": "",
          "type": "uint256"
        }
      ],
      "payable": false,
      "stateMutability": "pure",
      "type": "function"
    },
    {
      "constant": true,
      "inputs": [],
      "name": "getFullScale",
      "outputs": [
        {
          "internalType": "uint256",
          "name": "",
          "type": "uint256"
        }
      ],
      "payable": false,
      "stateMutability": "pure",
      "type": "function"
    },
    {
      "constant": true,
      "inputs": [],
      "name": "getRatioScale",
      "outputs": [
        {
          "internalType": "uint256",
          "name": "",
          "type": "uint256"
        }
      ],
      "payable": false,
      "stateMutability": "pure",
      "type": "function"
    },
    {
      "constant": true,
      "inputs": [
        {
          "internalType": "uint256",
          "name": "x",
          "type": "uint256"
        },
        {
          "internalType": "uint256",
          "name": "y",
          "type": "uint256"
        }
      ],
      "name": "max",
      "outputs": [
        {
          "internalType": "uint256",
          "name": "",
          "type": "uint256"
        }
      ],
      "payable": false,
      "stateMutability": "pure",
      "type": "function"
    },
    {
      "constant": true,
      "inputs": [
        {
          "internalType": "uint256",
          "name": "x",
          "type": "uint256"
        },
        {
          "internalType": "uint256",
          "name": "y",
          "type": "uint256"
        }
      ],
      "name": "min",
      "outputs": [
        {
          "internalType": "uint256",
          "name": "",
          "type": "uint256"
        }
      ],
      "payable": false,
      "stateMutability": "pure",
      "type": "function"
    },
    {
      "constant": true,
      "inputs": [
        {
          "internalType": "uint256",
          "name": "x",
          "type": "uint256"
        },
        {
          "internalType": "uint256",
          "name": "ratio",
          "type": "uint256"
        }
      ],
      "name": "mulRatioTruncate",
      "outputs": [
        {
          "internalType": "uint256",
          "name": "",
          "type": "uint256"
        }
      ],
      "payable": false,
      "stateMutability": "pure",
      "type": "function"
    },
    {
      "constant": true,
      "inputs": [
        {
          "internalType": "uint256",
          "name": "x",
          "type": "uint256"
        },
        {
          "internalType": "uint256",
          "name": "ratio",
          "type": "uint256"
        }
      ],
      "name": "mulRatioTruncateCeil",
      "outputs": [
        {
          "internalType": "uint256",
          "name": "",
          "type": "uint256"
        }
      ],
      "payable": false,
      "stateMutability": "pure",
      "type": "function"
    },
    {
      "constant": true,
      "inputs": [
        {
          "internalType": "uint256",
          "name": "x",
          "type": "uint256"
        },
        {
          "internalType": "uint256",
          "name": "y",
          "type": "uint256"
        }
      ],
      "name": "mulTruncate",
      "outputs": [
        {
          "internalType": "uint256",
          "name": "",
          "type": "uint256"
        }
      ],
      "payable": false,
      "stateMutability": "pure",
      "type": "function"
    },
    {
      "constant": true,
      "inputs": [
        {
          "internalType": "uint256",
          "name": "x",
          "type": "uint256"
        },
        {
          "internalType": "uint256",
          "name": "y",
          "type": "uint256"
        }
      ],
      "name": "mulTruncateCeil",
      "outputs": [
        {
          "internalType": "uint256",
          "name": "",
          "type": "uint256"
        }
      ],
      "payable": false,
      "stateMutability": "pure",
      "type": "function"
    },
    {
      "constant": true,
      "inputs": [
        {
          "internalType": "uint256",
          "name": "x",
          "type": "uint256"
        },
        {
          "internalType": "uint256",
          "name": "y",
          "type": "uint256"
        },
        {
          "internalType": "uint256",
          "name": "scale",
          "type": "uint256"
        }
      ],
      "name": "mulTruncateScale",
      "outputs": [
        {
          "internalType": "uint256",
          "name": "",
          "type": "uint256"
        }
      ],
      "payable": false,
      "stateMutability": "pure",
      "type": "function"
    },
    {
      "constant": true,
      "inputs": [
        {
          "internalType": "uint256",
          "name": "x",
          "type": "uint256"
        }
      ],
      "name": "scaleInteger",
      "outputs": [
        {
          "internalType": "uint256",
          "name": "",
          "type": "uint256"
        }
      ],
      "payable": false,
      "stateMutability": "pure",
      "type": "function"
    }
  ],
  "bytecode": "0x608060405234801561001057600080fd5b50610745806100206000396000f3fe608060405234801561001057600080fd5b50600436106100cf5760003560e01c80637ae2b5c71161008c578063c1c40a3311610066578063c1c40a3314610206578063d472b90c14610229578063d63a4d5c146101a3578063e44b560a14610231576100cf565b80637ae2b5c7146101a35780638f8a618a146101c65780639e7bde52146101e9576100cf565b806309444a4c146100d45780630b6ab2f0146100ee578063320b5c64146101115780633519a77e146101345780636d5433e6146101575780637473708e1461017a575b600080fd5b6100dc610254565b60408051918252519081900360200190f35b6100dc6004803603604081101561010457600080fd5b5080359060200135610263565b6100dc6004803603604081101561012757600080fd5b508035906020013561027e565b6100dc6004803603604081101561014a57600080fd5b5080359060200135610290565b6100dc6004803603604081101561016d57600080fd5b50803590602001356102a2565b6100dc6004803603606081101561019057600080fd5b50803590602081013590604001356102b4565b6100dc600480360360408110156101b957600080fd5b50803590602001356102cf565b6100dc600480360360408110156101dc57600080fd5b50803590602001356102e1565b6100dc600480360360208110156101ff57600080fd5b50356102f3565b6100dc6004803603604081101561021c57600080fd5b50803590602001356102fe565b6100dc610310565b6100dc6004803603604081101561024757600080fd5b508035906020013561031a565b600061025e61032c565b905090565b6000610275838363ffffffff61033816565b90505b92915050565b6000610275838363ffffffff61036516565b6000610275838363ffffffff61037616565b6000610275838363ffffffff6103d116565b60006102c784848463ffffffff6103e716565b949350505050565b6000610275838363ffffffff61040c16565b6000610275838363ffffffff61042116565b600061027882610436565b6000610275838363ffffffff61045016565b600061025e61049d565b6000610275838363ffffffff6104a516565b670de0b6b3a764000090565b60008061035384670de0b6b3a764000063ffffffff6104bc16565b90506102c7818463ffffffff61051516565b600061027583836305f5e1006103e7565b600080610389848463ffffffff6104bc16565b905060006103b26103a56305f5e100600163ffffffff61055716565b839063ffffffff61059916565b90506103c8816305f5e10063ffffffff61051516565b95945050505050565b60008183116103e05781610275565b5090919050565b6000806103fa858563ffffffff6104bc16565b90506103c8818463ffffffff61051516565b600081831161041b5782610275565b50919050565b60006102758383670de0b6b3a76400006103e7565b600061027882670de0b6b3a764000063ffffffff6104bc16565b600080610463848463ffffffff6104bc16565b905060006104836103a5670de0b6b3a7640000600163ffffffff61055716565b90506103c881670de0b6b3a764000063ffffffff61051516565b6305f5e10090565b600080610353846305f5e10063ffffffff6104bc16565b6000826104cb57506000610278565b828202828482816104d857fe5b04146102755760405162461bcd60e51b81526004018080602001828103825260218152602001806106f06021913960400191505060405180910390fd5b600061027583836040518060400160405280601a81526020017f536166654d6174683a206469766973696f6e206279207a65726f0000000000008152506105f3565b600061027583836040518060400160405280601e81526020017f536166654d6174683a207375627472616374696f6e206f766572666c6f770000815250610695565b600082820183811015610275576040805162461bcd60e51b815260206004820152601b60248201527f536166654d6174683a206164646974696f6e206f766572666c6f770000000000604482015290519081900360640190fd5b6000818361067f5760405162461bcd60e51b81526004018080602001828103825283818151815260200191508051906020019080838360005b8381101561064457818101518382015260200161062c565b50505050905090810190601f1680156106715780820380516001836020036101000a031916815260200191505b509250505060405180910390fd5b50600083858161068b57fe5b0495945050505050565b600081848411156106e75760405162461bcd60e51b815260206004820181815283516024840152835190928392604490910191908501908083836000831561064457818101518382015260200161062c565b50505090039056fe536166654d6174683a206d756c7469706c69636174696f6e206f766572666c6f77a265627a7a72315820b0916fbc9d71513980e8481fbdc68e2f9ff1e2a3fe850b1f721a8c73e6531ff764736f6c63430005100032",
  "linkReferences": {},
  "deployedLinkReferences": {}
}