{
  "_format": "hh-sol-artifact-1",
  "contractName": "SignedSafeMath128Mock",
  "sourceName": "contracts/z_mocks/shared/SignedSafeMath128Mock.sol",
  "abi": [
    {
      "constant": true,
      "inputs": [
        {
          "internalType": "int128",
          "name": "a",
          "type": "int128"
        },
        {
          "internalType": "int128",
          "name": "b",
          "type": "int128"
        }
      ],
      "name": "add",
      "outputs": [
        {
          "internalType": "int128",
          "name": "",
          "type": "int128"
        }
      ],
      "payable": false,
      "stateMutability": "pure",
      "type": "function"
    },
    {
      "constant": true,
      "inputs": [
        {
          "internalType": "int128",
          "name": "a",
          "type": "int128"
        },
        {
          "internalType": "int128",
          "name": "b",
          "type": "int128"
        }
      ],
      "name": "div",
      "outputs": [
        {
          "internalType": "int128",
          "name": "",
          "type": "int128"
        }
      ],
      "payable": false,
      "stateMutability": "pure",
      "type": "function"
    },
    {
      "constant": true,
      "inputs": [
        {
          "internalType": "int128",
          "name": "a",
          "type": "int128"
        },
        {
          "internalType": "int128",
          "name": "b",
          "type": "int128"
        }
      ],
      "name": "mul",
      "outputs": [
        {
          "internalType": "int128",
          "name": "",
          "type": "int128"
        }
      ],
      "payable": false,
      "stateMutability": "pure",
      "type": "function"
    },
    {
      "constant": true,
      "inputs": [
        {
          "internalType": "int128",
          "name": "a",
          "type": "int128"
        },
        {
          "internalType": "int128",
          "name": "b",
          "type": "int128"
        }
      ],
      "name": "sub",
      "outputs": [
        {
          "internalType": "int128",
          "name": "",
          "type": "int128"
        }
      ],
      "payable": false,
      "stateMutability": "pure",
      "type": "function"
    }
  ],
  "bytecode": "0x608060405234801561001057600080fd5b50610498806100206000396000f3fe608060405234801561001057600080fd5b506004361061004c5760003560e01c806325f39a6314610051578063340ced8c14610094578063a0c9f93b146100be578063b6972146146100e8575b600080fd5b61007b6004803603604081101561006757600080fd5b508035600f90810b9160200135900b610112565b60408051600f92830b90920b8252519081900360200190f35b61007b600480360360408110156100aa57600080fd5b508035600f90810b9160200135900b610127565b61007b600480360360408110156100d457600080fd5b508035600f90810b9160200135900b610133565b61007b600480360360408110156100fe57600080fd5b508035600f90810b9160200135900b61013f565b600061011e838361014b565b90505b92915050565b600061011e838361021b565b600061011e8383610293565b600061011e838361030b565b600081600f0b600014156101a6576040805162461bcd60e51b815260206004820181905260248201527f5369676e6564536166654d6174683a206469766973696f6e206279207a65726f604482015290519081900360640190fd5b81600f0b6000191480156101c55750600f83900b60016001607f1b0319145b156102015760405162461bcd60e51b81526004018080602001828103825260218152602001806103f86021913960400191505060405180910390fd5b600082600f0b84600f0b8161021257fe5b05949350505050565b6000828201600f83900b821380159061023a575083600f0b81600f0b12155b806102585750600083600f0b128015610258575083600f0b81600f0b125b61011e5760405162461bcd60e51b81526004018080602001828103825260218152602001806103d76021913960400191505060405180910390fd5b6000818303600f83900b82138015906102b2575083600f0b81600f0b13155b806102d05750600083600f0b1280156102d0575083600f0b81600f0b135b61011e5760405162461bcd60e51b81526004018080602001828103825260248152602001806104406024913960400191505060405180910390fd5b600082600f0b6000141561032157506000610121565b82600f0b6000191480156103405750600f82900b60016001607f1b0319145b1561037c5760405162461bcd60e51b81526004018080602001828103825260278152602001806104196027913960400191505060405180910390fd5b6000828402905082600f0b84600f0b82600f0b8161039657fe5b05600f0b1461011e5760405162461bcd60e51b81526004018080602001828103825260278152602001806104196027913960400191505060405180910390fdfe5369676e6564536166654d6174683a206164646974696f6e206f766572666c6f775369676e6564536166654d6174683a206469766973696f6e206f766572666c6f775369676e6564536166654d6174683a206d756c7469706c69636174696f6e206f766572666c6f775369676e6564536166654d6174683a207375627472616374696f6e206f766572666c6f77a265627a7a723158208a2c481bbbbcc6f00aeaec66922d506a5e08e9c347f48a0a8e5fc080e91cbd8c64736f6c63430005100032",
  "linkReferences": {},
  "deployedLinkReferences": {}
}