{
  "_format": "hh-sol-artifact-1",
  "contractName": "MintWithKyber",
  "sourceName": "contracts/z_mocks/integrations/MintWithKyber.sol",
  "abi": [
    {
      "inputs": [
        {
          "internalType": "address",
          "name": "_kyberNetworkProxy",
          "type": "address"
        },
        {
          "internalType": "address[]",
          "name": "_mIxs",
          "type": "address[]"
        }
      ],
      "payable": false,
      "stateMutability": "nonpayable",
      "type": "constructor"
    },
    {
      "anonymous": false,
      "inputs": [
        {
          "indexed": true,
          "internalType": "address",
          "name": "mIx",
          "type": "address"
        }
      ],
      "name": "MixAdded",
      "type": "event"
    },
    {
      "anonymous": false,
      "inputs": [
        {
          "indexed": true,
          "internalType": "address",
          "name": "previousOwner",
          "type": "address"
        },
        {
          "indexed": true,
          "internalType": "address",
          "name": "newOwner",
          "type": "address"
        }
      ],
      "name": "OwnershipTransferred",
      "type": "event"
    },
    {
      "constant": true,
      "inputs": [],
      "name": "FEE_COLLECTION_ADDRESS",
      "outputs": [
        {
          "internalType": "address",
          "name": "",
          "type": "address"
        }
      ],
      "payable": false,
      "stateMutability": "view",
      "type": "function"
    },
    {
      "constant": false,
      "inputs": [
        {
          "internalType": "address",
          "name": "_mIx",
          "type": "address"
        }
      ],
      "name": "addMix",
      "outputs": [],
      "payable": false,
      "stateMutability": "nonpayable",
      "type": "function"
    },
    {
      "constant": false,
      "inputs": [
        {
          "internalType": "address",
          "name": "_srcBasset",
          "type": "address"
        },
        {
          "internalType": "address",
          "name": "_destMix",
          "type": "address"
        },
        {
          "internalType": "uint256",
          "name": "_amountOfBasset",
          "type": "uint256"
        }
      ],
      "name": "buyAndMintGivenMix",
      "outputs": [
        {
          "internalType": "uint256",
          "name": "mIxQtyMinted",
          "type": "uint256"
        }
      ],
      "payable": true,
      "stateMutability": "payable",
      "type": "function"
    },
    {
      "constant": false,
      "inputs": [
        {
          "internalType": "address",
          "name": "_srcBasset",
          "type": "address"
        },
        {
          "internalType": "address",
          "name": "_destMix",
          "type": "address"
        }
      ],
      "name": "buyAndMintMaxMix",
      "outputs": [
        {
          "internalType": "uint256",
          "name": "mIxQtyMinted",
          "type": "uint256"
        }
      ],
      "payable": true,
      "stateMutability": "payable",
      "type": "function"
    },
    {
      "constant": false,
      "inputs": [
        {
          "internalType": "address[]",
          "name": "_srcBassets",
          "type": "address[]"
        },
        {
          "internalType": "uint256[]",
          "name": "_ethAmount",
          "type": "uint256[]"
        },
        {
          "internalType": "address",
          "name": "_destMix",
          "type": "address"
        }
      ],
      "name": "buyAndMintMulti",
      "outputs": [
        {
          "internalType": "uint256",
          "name": "mIxQtyMinted",
          "type": "uint256"
        }
      ],
      "payable": true,
      "stateMutability": "payable",
      "type": "function"
    },
    {
      "constant": false,
      "inputs": [
        {
          "internalType": "address",
          "name": "_mIx",
          "type": "address"
        },
        {
          "internalType": "address[]",
          "name": "_bAssets",
          "type": "address[]"
        }
      ],
      "name": "infiniteApprove",
      "outputs": [],
      "payable": false,
      "stateMutability": "nonpayable",
      "type": "function"
    },
    {
      "constant": true,
      "inputs": [],
      "name": "isOwner",
      "outputs": [
        {
          "internalType": "bool",
          "name": "",
          "type": "bool"
        }
      ],
      "payable": false,
      "stateMutability": "view",
      "type": "function"
    },
    {
      "constant": true,
      "inputs": [],
      "name": "kyberNetworkProxy",
      "outputs": [
        {
          "internalType": "contract KyberNetworkProxyInterface",
          "name": "",
          "type": "address"
        }
      ],
      "payable": false,
      "stateMutability": "view",
      "type": "function"
    },
    {
      "constant": true,
      "inputs": [
        {
          "internalType": "address",
          "name": "",
          "type": "address"
        }
      ],
      "name": "mIxs",
      "outputs": [
        {
          "internalType": "bool",
          "name": "",
          "type": "bool"
        }
      ],
      "payable": false,
      "stateMutability": "view",
      "type": "function"
    },
    {
      "constant": true,
      "inputs": [],
      "name": "owner",
      "outputs": [
        {
          "internalType": "address",
          "name": "",
          "type": "address"
        }
      ],
      "payable": false,
      "stateMutability": "view",
      "type": "function"
    },
    {
      "constant": false,
      "inputs": [],
      "name": "renounceOwnership",
      "outputs": [],
      "payable": false,
      "stateMutability": "nonpayable",
      "type": "function"
    },
    {
      "constant": false,
      "inputs": [
        {
          "internalType": "address",
          "name": "newOwner",
          "type": "address"
        }
      ],
      "name": "transferOwnership",
      "outputs": [],
      "payable": false,
      "stateMutability": "nonpayable",
      "type": "function"
    }
  ],
  "bytecode": "0x60806040523480156200001157600080fd5b5060405162001b8338038062001b83833981810160405260408110156200003757600080fd5b8151602083018051604051929492938301929190846401000000008211156200005f57600080fd5b9083019060208201858111156200007557600080fd5b82518660208202830111640100000000821117156200009357600080fd5b82525081516020918201928201910280838360005b83811015620000c2578181015183820152602001620000a8565b50505050905001604052505050806000620000e26200024960201b60201c565b600080546001600160a01b0319166001600160a01b0383169081178255604051929350917f8be0079c531659141344cd1fd0a4f28419497f9722a3daafe3b4186f6b6457e0908290a350600081511162000176576040805162461bcd60e51b815260206004820152601060248201526f139bc81b525e1cc81c1c9bdd9a59195960821b604482015290519081900360640190fd5b60005b8151811015620001b157620001a88282815181106200019457fe5b60200260200101516200024d60201b60201c565b60010162000179565b50506002805460ff191660011790556001600160a01b0382166200021c576040805162461bcd60e51b815260206004820152601b60248201527f4b796265722070726f78792061646472657373206973207a65726f0000000000604482015290519081900360640190fd5b50600280546001600160a01b0390921661010002610100600160a81b031990921691909117905562000372565b3390565b6001600160a01b038116620002a9576040805162461bcd60e51b815260206004820152601360248201527f6d49782061646472657373206973207a65726f00000000000000000000000000604482015290519081900360640190fd5b620002bd816001600160e01b036200035416565b1562000305576040805162461bcd60e51b81526020600482015260126024820152716d497820616c72656164792065786973747360701b604482015290519081900360640190fd5b6001600160a01b0381166000818152600160208190526040808320805460ff1916909217909155517fcf9373b1a28084b56a4bc6a4fcee562c5f37fd56f868d54916a5df46f3e5a5a49190a250565b6001600160a01b031660009081526001602052604090205460ff1690565b61180180620003826000396000f3fe6080604052600436106100a75760003560e01c80638da5cb5b116100645780638da5cb5b146102d55780638f32d59b14610306578063a11f32921461031b578063a3a02a3214610330578063d77366a414610366578063f2fde38b1461037b576100a7565b8063259a6b5d146100ac578063265fcf26146100f35780633d7effcf146101d0578063499ca1c8146102055780636160d86f14610233578063715018a6146102c0575b600080fd5b3480156100b857600080fd5b506100df600480360360208110156100cf57600080fd5b50356001600160a01b03166103ae565b604080519115158252519081900360200190f35b6101be6004803603606081101561010957600080fd5b81019060208101813564010000000081111561012457600080fd5b82018360208201111561013657600080fd5b8035906020019184602083028401116401000000008311171561015857600080fd5b91939092909160208101903564010000000081111561017657600080fd5b82018360208201111561018857600080fd5b803590602001918460208302840111640100000000831117156101aa57600080fd5b9193509150356001600160a01b03166103c3565b60408051918252519081900360200190f35b3480156101dc57600080fd5b50610203600480360360208110156101f357600080fd5b50356001600160a01b03166105e0565b005b6101be6004803603604081101561021b57600080fd5b506001600160a01b0381358116916020013516610645565b34801561023f57600080fd5b506102036004803603604081101561025657600080fd5b6001600160a01b03823516919081019060408101602082013564010000000081111561028157600080fd5b82018360208201111561029357600080fd5b803590602001918460208302840111640100000000831117156102b557600080fd5b50909250905061075d565b3480156102cc57600080fd5b506102036107ad565b3480156102e157600080fd5b506102ea610850565b604080516001600160a01b039092168252519081900360200190f35b34801561031257600080fd5b506100df61085f565b34801561032757600080fd5b506102ea610883565b6101be6004803603606081101561034657600080fd5b506001600160a01b03813581169160208101359091169060400135610888565b34801561037257600080fd5b506102ea610a7c565b34801561038757600080fd5b506102036004803603602081101561039e57600080fd5b50356001600160a01b0316610a90565b60016020526000908152604090205460ff1681565b60025460009060ff1661041d576040805162461bcd60e51b815260206004820152601f60248201527f5265656e7472616e637947756172643a207265656e7472616e742063616c6c00604482015290519081900360640190fd5b6002805460ff1916905534610468576040805162461bcd60e51b815260206004820152600c60248201526b115512081b9bdd081cd95b9d60a21b604482015290519081900360640190fd5b84806104b0576040805162461bcd60e51b8152602060048201526012602482015271139bc8185c9c985e4819185d18481cd95b9d60721b604482015290519081900360640190fd5b808414610504576040805162461bcd60e51b815260206004820152601860248201527f4172726179206c656e677468206e6f74206d6174636865640000000000000000604482015290519081900360640190fd5b61050d83610af2565b610550576040805162461bcd60e51b815260206004820152600f60248201526e09cdee840c240ecc2d8d2c840da92f608b1b604482015290519081900360640190fd5b6105c887878080602002602001604051908101604052809392919081815260200183836020028082843760009201919091525050604080516020808b0282810182019093528a82529093508a9250899182918501908490808284376000920191909152508892506105c39150610b109050565b610b14565b6002805460ff19166001179055979650505050505050565b6105e861085f565b610639576040805162461bcd60e51b815260206004820181905260248201527f4f776e61626c653a2063616c6c6572206973206e6f7420746865206f776e6572604482015290519081900360640190fd5b61064281610cbc565b50565b60025460009060ff1661069f576040805162461bcd60e51b815260206004820152601f60248201527f5265656e7472616e637947756172643a207265656e7472616e742063616c6c00604482015290519081900360640190fd5b6002805460ff19169055346106ea576040805162461bcd60e51b815260206004820152600c60248201526b115512081b9bdd081cd95b9d60a21b604482015290519081900360640190fd5b6106f382610af2565b610736576040805162461bcd60e51b815260206004820152600f60248201526e09cdee840c240ecc2d8d2c840da92f608b1b604482015290519081900360640190fd5b610749838334610744610b10565b610dac565b6002805460ff191660011790559392505050565b60005b818110156107a75761079f8484848481811061077857fe5b905060200201356001600160a01b03166001600160a01b0316610e1790919063ffffffff16565b600101610760565b50505050565b6107b561085f565b610806576040805162461bcd60e51b815260206004820181905260248201527f4f776e61626c653a2063616c6c6572206973206e6f7420746865206f776e6572604482015290519081900360640190fd5b600080546040516001600160a01b03909116907f8be0079c531659141344cd1fd0a4f28419497f9722a3daafe3b4186f6b6457e0908390a3600080546001600160a01b0319169055565b6000546001600160a01b031690565b600080546001600160a01b0316610874610b10565b6001600160a01b031614905090565b600081565b60025460009060ff166108e2576040805162461bcd60e51b815260206004820152601f60248201527f5265656e7472616e637947756172643a207265656e7472616e742063616c6c00604482015290519081900360640190fd5b6002805460ff191690556108f583610af2565b610938576040805162461bcd60e51b815260206004820152600f60248201526e09cdee840c240ecc2d8d2c840da92f608b1b604482015290519081900360640190fd5b6002546040805163809a9e5560e01b81526001600160a01b03878116600483015273eeeeeeeeeeeeeeeeeeeeeeeeeeeeeeeeeeeeeeee602483015260448201869052825160009461010090049091169263809a9e559260648082019391829003018186803b1580156109a957600080fd5b505afa1580156109bd573d6000803e3d6000fd5b505050506040513d60408110156109d357600080fd5b5051905060006109e9848363ffffffff610e5216565b905080341015610a36576040805162461bcd60e51b8152602060048201526013602482015272139bdd08195b9bdd59da08115512081cd95b9d606a1b604482015290519081900360640190fd5b610a44868683610744610b10565b9250610a66610a59348363ffffffff610e7016565b339063ffffffff610eb216565b50506002805460ff191660011790559392505050565b60025461010090046001600160a01b031681565b610a9861085f565b610ae9576040805162461bcd60e51b815260206004820181905260248201527f4f776e61626c653a2063616c6c6572206973206e6f7420746865206f776e6572604482015290519081900360640190fd5b61064281610f9c565b6001600160a01b031660009081526001602052604090205460ff1690565b3390565b600060608551604051908082528060200260200182016040528015610b43578160200160208202803883390190505b50905060005b8651811015610ba157610b82878281518110610b6157fe5b6020026020010151878381518110610b7557fe5b602002602001015161103c565b828281518110610b8e57fe5b6020908102919091010152600101610b49565b50836001600160a01b03166384f9378a8783866040518463ffffffff1660e01b8152600401808060200180602001846001600160a01b03166001600160a01b03168152602001838103835286818151815260200191508051906020019060200280838360005b83811015610c1f578181015183820152602001610c07565b50505050905001838103825285818151815260200191508051906020019060200280838360005b83811015610c5e578181015183820152602001610c46565b5050505090500195505050505050602060405180830381600087803b158015610c8657600080fd5b505af1158015610c9a573d6000803e3d6000fd5b505050506040513d6020811015610cb057600080fd5b50519695505050505050565b6001600160a01b038116610d0d576040805162461bcd60e51b81526020600482015260136024820152726d49782061646472657373206973207a65726f60681b604482015290519081900360640190fd5b610d1681610af2565b15610d5d576040805162461bcd60e51b81526020600482015260126024820152716d497820616c72656164792065786973747360701b604482015290519081900360640190fd5b6001600160a01b0381166000818152600160208190526040808320805460ff1916909217909155517fcf9373b1a28084b56a4bc6a4fcee562c5f37fd56f868d54916a5df46f3e5a5a49190a250565b600080610db9868561103c565b6040805163438b1b4b60e01b81526001600160a01b03898116600483015260248201849052868116604483015291519293509087169163438b1b4b916064808201926020929091908290030181600087803b158015610c8657600080fd5b610e326001600160a01b03831682600063ffffffff61121f16565b610e4e6001600160a01b0383168260001963ffffffff61121f16565b5050565b6000610e678383670de0b6b3a7640000611332565b90505b92915050565b6000610e6783836040518060400160405280601e81526020017f536166654d6174683a207375627472616374696f6e206f766572666c6f770000815250611360565b80471015610f07576040805162461bcd60e51b815260206004820152601d60248201527f416464726573733a20696e73756666696369656e742062616c616e6365000000604482015290519081900360640190fd5b6040516000906001600160a01b0384169083908381818185875af1925050503d8060008114610f52576040519150601f19603f3d011682016040523d82523d6000602084013e610f57565b606091505b5050905080610f975760405162461bcd60e51b815260040180806020018281038252603a815260200180611712603a913960400191505060405180910390fd5b505050565b6001600160a01b038116610fe15760405162461bcd60e51b81526004018080602001828103825260268152602001806116ec6026913960400191505060405180910390fd5b600080546040516001600160a01b03808516939216917f8be0079c531659141344cd1fd0a4f28419497f9722a3daafe3b4186f6b6457e091a3600080546001600160a01b0319166001600160a01b0392909216919091179055565b600254604080516329589f6160e01b815273eeeeeeeeeeeeeeeeeeeeeeeeeeeeeeeeeeeeeeee6004820152602481018490526001600160a01b038581166044830152306064830152600160ff1b6084830152600060a4830181905260c4830181905261010060e484018190526101048401829052935190949390930416916329589f6191859161014480830192602092919082900301818588803b1580156110e357600080fd5b505af11580156110f7573d6000803e3d6000fd5b50505050506040513d602081101561110e57600080fd5b5051905080611157576040805162461bcd60e51b815260206004820152601060248201526f139bc818905cdcd95d081b5a5b9d195960821b604482015290519081900360640190fd5b604080516370a0823160e01b8152306004820152905182916001600160a01b038616916370a0823191602480820192602092909190829003018186803b1580156111a057600080fd5b505afa1580156111b4573d6000803e3d6000fd5b505050506040513d60208110156111ca57600080fd5b50511015610e6a576040805162461bcd60e51b815260206004820152601960248201527f62417373657420746f6b656e206e6f7420726563656976656400000000000000604482015290519081900360640190fd5b8015806112a5575060408051636eb1769f60e11b81523060048201526001600160a01b03848116602483015291519185169163dd62ed3e91604480820192602092909190829003018186803b15801561127757600080fd5b505afa15801561128b573d6000803e3d6000fd5b505050506040513d60208110156112a157600080fd5b5051155b6112e05760405162461bcd60e51b81526004018080602001828103825260368152602001806117976036913960400191505060405180910390fd5b604080516001600160a01b038416602482015260448082018490528251808303909101815260649091019091526020810180516001600160e01b031663095ea7b360e01b179052610f979084906113f7565b600080611345858563ffffffff6115af16565b9050611357818463ffffffff61160816565b95945050505050565b600081848411156113ef5760405162461bcd60e51b81526004018080602001828103825283818151815260200191508051906020019080838360005b838110156113b457818101518382015260200161139c565b50505050905090810190601f1680156113e15780820380516001836020036101000a031916815260200191505b509250505060405180910390fd5b505050900390565b611409826001600160a01b031661164a565b61145a576040805162461bcd60e51b815260206004820152601f60248201527f5361666545524332303a2063616c6c20746f206e6f6e2d636f6e747261637400604482015290519081900360640190fd5b60006060836001600160a01b0316836040518082805190602001908083835b602083106114985780518252601f199092019160209182019101611479565b6001836020036101000a0380198251168184511680821785525050505050509050019150506000604051808303816000865af19150503d80600081146114fa576040519150601f19603f3d011682016040523d82523d6000602084013e6114ff565b606091505b509150915081611556576040805162461bcd60e51b815260206004820181905260248201527f5361666545524332303a206c6f772d6c6576656c2063616c6c206661696c6564604482015290519081900360640190fd5b8051156107a75780806020019051602081101561157257600080fd5b50516107a75760405162461bcd60e51b815260040180806020018281038252602a81526020018061176d602a913960400191505060405180910390fd5b6000826115be57506000610e6a565b828202828482816115cb57fe5b0414610e675760405162461bcd60e51b815260040180806020018281038252602181526020018061174c6021913960400191505060405180910390fd5b6000610e6783836040518060400160405280601a81526020017f536166654d6174683a206469766973696f6e206279207a65726f000000000000815250611686565b6000813f7fc5d2460186f7233c927e7db2dcc703c0e500b653ca82273b7bfad8045d85a47081811480159061167e57508115155b949350505050565b600081836116d55760405162461bcd60e51b81526020600482018181528351602484015283519092839260449091019190850190808383600083156113b457818101518382015260200161139c565b5060008385816116e157fe5b049594505050505056fe4f776e61626c653a206e6577206f776e657220697320746865207a65726f2061646472657373416464726573733a20756e61626c6520746f2073656e642076616c75652c20726563697069656e74206d61792068617665207265766572746564536166654d6174683a206d756c7469706c69636174696f6e206f766572666c6f775361666545524332303a204552433230206f7065726174696f6e20646964206e6f7420737563636565645361666545524332303a20617070726f76652066726f6d206e6f6e2d7a65726f20746f206e6f6e2d7a65726f20616c6c6f77616e6365a265627a7a723158207db2ca52e37e8549ca3bf8c6248d184fe2a3ede2be5ffad155ae635e16060d2b64736f6c63430005100032",
  "linkReferences": {},
  "deployedLinkReferences": {}
}