{
  "_format": "hh-sol-artifact-1",
  "contractName": "CompoundIntegration",
  "sourceName": "contracts/mix/platform-integrations/CompoundIntegration.sol",
  "abi": [
    {
      "anonymous": false,
      "inputs": [
        {
          "indexed": true,
          "internalType": "address",
          "name": "_bAsset",
          "type": "address"
        },
        {
          "indexed": false,
          "internalType": "address",
          "name": "_pToken",
          "type": "address"
        },
        {
          "indexed": false,
          "internalType": "uint256",
          "name": "_amount",
          "type": "uint256"
        }
      ],
      "name": "Deposit",
      "type": "event"
    },
    {
      "anonymous": false,
      "inputs": [
        {
          "indexed": true,
          "internalType": "address",
          "name": "_bAsset",
          "type": "address"
        },
        {
          "indexed": false,
          "internalType": "address",
          "name": "_pToken",
          "type": "address"
        }
      ],
      "name": "PTokenAdded",
      "type": "event"
    },
    {
      "anonymous": false,
      "inputs": [
        {
          "indexed": true,
          "internalType": "address",
          "name": "bAsset",
          "type": "address"
        },
        {
          "indexed": false,
          "internalType": "address",
          "name": "pToken",
          "type": "address"
        },
        {
          "indexed": false,
          "internalType": "uint256",
          "name": "totalAmount",
          "type": "uint256"
        },
        {
          "indexed": false,
          "internalType": "uint256",
          "name": "userAmount",
          "type": "uint256"
        }
      ],
      "name": "PlatformWithdrawal",
      "type": "event"
    },
    {
      "anonymous": false,
      "inputs": [
        {
          "indexed": false,
          "internalType": "address",
          "name": "rewardToken",
          "type": "address"
        },
        {
          "indexed": false,
          "internalType": "address",
          "name": "account",
          "type": "address"
        }
      ],
      "name": "RewardTokenApproved",
      "type": "event"
    },
    {
      "anonymous": false,
      "inputs": [
        {
          "indexed": false,
          "internalType": "address",
          "name": "bAsset",
          "type": "address"
        },
        {
          "indexed": false,
          "internalType": "uint256",
          "name": "amount",
          "type": "uint256"
        }
      ],
      "name": "SkippedWithdrawal",
      "type": "event"
    },
    {
      "anonymous": false,
      "inputs": [
        {
          "indexed": true,
          "internalType": "address",
          "name": "_address",
          "type": "address"
        }
      ],
      "name": "Whitelisted",
      "type": "event"
    },
    {
      "anonymous": false,
      "inputs": [
        {
          "indexed": true,
          "internalType": "address",
          "name": "_bAsset",
          "type": "address"
        },
        {
          "indexed": false,
          "internalType": "address",
          "name": "_pToken",
          "type": "address"
        },
        {
          "indexed": false,
          "internalType": "uint256",
          "name": "_amount",
          "type": "uint256"
        }
      ],
      "name": "Withdrawal",
      "type": "event"
    },
    {
      "constant": false,
      "inputs": [],
      "name": "approveRewardToken",
      "outputs": [],
      "payable": false,
      "stateMutability": "nonpayable",
      "type": "function"
    },
    {
      "constant": true,
      "inputs": [
        {
          "internalType": "address",
          "name": "",
          "type": "address"
        }
      ],
      "name": "bAssetToPToken",
      "outputs": [
        {
          "internalType": "address",
          "name": "",
          "type": "address"
        }
      ],
      "payable": false,
      "stateMutability": "view",
      "type": "function"
    },
    {
      "constant": false,
      "inputs": [
        {
          "internalType": "address",
          "name": "_bAsset",
          "type": "address"
        }
      ],
      "name": "checkBalance",
      "outputs": [
        {
          "internalType": "uint256",
          "name": "balance",
          "type": "uint256"
        }
      ],
      "payable": false,
      "stateMutability": "nonpayable",
      "type": "function"
    },
    {
      "constant": false,
      "inputs": [
        {
          "internalType": "address",
          "name": "_bAsset",
          "type": "address"
        },
        {
          "internalType": "uint256",
          "name": "_amount",
          "type": "uint256"
        },
        {
          "internalType": "bool",
          "name": "_hasTxFee",
          "type": "bool"
        }
      ],
      "name": "deposit",
      "outputs": [
        {
          "internalType": "uint256",
          "name": "quantityDeposited",
          "type": "uint256"
        }
      ],
      "payable": false,
      "stateMutability": "nonpayable",
      "type": "function"
    },
    {
      "constant": false,
      "inputs": [
        {
          "internalType": "address",
          "name": "_nexus",
          "type": "address"
        },
        {
          "internalType": "address[]",
          "name": "_whitelisted",
          "type": "address[]"
        },
        {
          "internalType": "address",
          "name": "_platformAddress",
          "type": "address"
        },
        {
          "internalType": "address[]",
          "name": "_bAssets",
          "type": "address[]"
        },
        {
          "internalType": "address[]",
          "name": "_pTokens",
          "type": "address[]"
        }
      ],
      "name": "initialize",
      "outputs": [],
      "payable": false,
      "stateMutability": "nonpayable",
      "type": "function"
    },
    {
      "constant": true,
      "inputs": [],
      "name": "nexus",
      "outputs": [
        {
          "internalType": "contract INexus",
          "name": "",
          "type": "address"
        }
      ],
      "payable": false,
      "stateMutability": "view",
      "type": "function"
    },
    {
      "constant": true,
      "inputs": [],
      "name": "platformAddress",
      "outputs": [
        {
          "internalType": "address",
          "name": "",
          "type": "address"
        }
      ],
      "payable": false,
      "stateMutability": "view",
      "type": "function"
    },
    {
      "constant": false,
      "inputs": [],
      "name": "reApproveAllTokens",
      "outputs": [],
      "payable": false,
      "stateMutability": "nonpayable",
      "type": "function"
    },
    {
      "constant": false,
      "inputs": [
        {
          "internalType": "address",
          "name": "_bAsset",
          "type": "address"
        },
        {
          "internalType": "address",
          "name": "_pToken",
          "type": "address"
        }
      ],
      "name": "setPTokenAddress",
      "outputs": [],
      "payable": false,
      "stateMutability": "nonpayable",
      "type": "function"
    },
    {
      "constant": true,
      "inputs": [
        {
          "internalType": "address",
          "name": "",
          "type": "address"
        }
      ],
      "name": "whitelist",
      "outputs": [
        {
          "internalType": "bool",
          "name": "",
          "type": "bool"
        }
      ],
      "payable": false,
      "stateMutability": "view",
      "type": "function"
    },
    {
      "constant": false,
      "inputs": [
        {
          "internalType": "address",
          "name": "_receiver",
          "type": "address"
        },
        {
          "internalType": "address",
          "name": "_bAsset",
          "type": "address"
        },
        {
          "internalType": "uint256",
          "name": "_amount",
          "type": "uint256"
        },
        {
          "internalType": "bool",
          "name": "_hasTxFee",
          "type": "bool"
        }
      ],
      "name": "withdraw",
      "outputs": [],
      "payable": false,
      "stateMutability": "nonpayable",
      "type": "function"
    },
    {
      "constant": false,
      "inputs": [
        {
          "internalType": "address",
          "name": "_receiver",
          "type": "address"
        },
        {
          "internalType": "address",
          "name": "_bAsset",
          "type": "address"
        },
        {
          "internalType": "uint256",
          "name": "_amount",
          "type": "uint256"
        },
        {
          "internalType": "uint256",
          "name": "_totalAmount",
          "type": "uint256"
        },
        {
          "internalType": "bool",
          "name": "_hasTxFee",
          "type": "bool"
        }
      ],
      "name": "withdraw",
      "outputs": [],
      "payable": false,
      "stateMutability": "nonpayable",
      "type": "function"
    },
    {
      "constant": false,
      "inputs": [
        {
          "internalType": "address",
          "name": "_receiver",
          "type": "address"
        },
        {
          "internalType": "address",
          "name": "_bAsset",
          "type": "address"
        },
        {
          "internalType": "uint256",
          "name": "_amount",
          "type": "uint256"
        }
      ],
      "name": "withdrawRaw",
      "outputs": [],
      "payable": false,
      "stateMutability": "nonpayable",
      "type": "function"
    }
  ],
  "bytecode": "0x608060405234801561001057600080fd5b506121f0806100206000396000f3fe608060405234801561001057600080fd5b50600436106100cf5760003560e01c80639b19251a1161008c578063a755349a11610066578063a755349a14610399578063c89fc72f146103a1578063dbe55e56146103e5578063e7296454146103ed576100cf565b80639b19251a14610321578063a3f5c1d21461035b578063a4e2859514610363576100cf565b80630ed57b3a146100d457806311505f72146101045780633edd1128146102355780635f5152261461027b57806371c46585146102a1578063934785b7146102e3575b600080fd5b610102600480360360408110156100ea57600080fd5b506001600160a01b03813581169160200135166103f5565b005b610102600480360360a081101561011a57600080fd5b6001600160a01b03823516919081019060408101602082013564010000000081111561014557600080fd5b82018360208201111561015757600080fd5b8035906020019184602083028401116401000000008311171561017957600080fd5b919390926001600160a01b03833516926040810190602001356401000000008111156101a457600080fd5b8201836020820111156101b657600080fd5b803590602001918460208302840111640100000000831117156101d857600080fd5b9193909290916020810190356401000000008111156101f657600080fd5b82018360208201111561020857600080fd5b8035906020019184602083028401116401000000008311171561022a57600080fd5b50909250905061046c565b6102696004803603606081101561024b57600080fd5b506001600160a01b03813516906020810135906040013515156105c9565b60408051918252519081900360200190f35b6102696004803603602081101561029157600080fd5b50356001600160a01b03166108e2565b6102c7600480360360208110156102b757600080fd5b50356001600160a01b0316610900565b604080516001600160a01b039092168252519081900360200190f35b610102600480360360808110156102f957600080fd5b506001600160a01b03813581169160208101359091169060408101359060600135151561091b565b6103476004803603602081101561033757600080fd5b50356001600160a01b03166109ea565b604080519115158252519081900360200190f35b6102c76109ff565b6101026004803603606081101561037957600080fd5b506001600160a01b03813581169160208101359091169060400135610a0e565b610102610bcd565b610102600480360360a08110156103b757600080fd5b506001600160a01b038135811691602081013590911690604081013590606081013590608001351515610c92565b6102c7610d62565b610102610d76565b6103fd610f1f565b6001600160a01b0316336001600160a01b03161461045e576040805162461bcd60e51b81526020600482015260196024820152784f6e6c7920676f7665726e6f722063616e206578656375746560381b604482015290519081900360640190fd5b6104688282610f95565b5050565b600054610100900460ff16806104855750610485611104565b80610493575060005460ff16155b6104ce5760405162461bcd60e51b815260040180806020018281038252602e81526020018061212e602e913960400191505060405180910390fd5b600054610100900460ff161580156104f9576000805460ff1961ff0019909116610100171660011790555b61050161110a565b61053e8989898080602002602001604051908101604052809392919081815260200183836020028082843760009201919091525061111992505050565b6105ac8686868080602002602001604051908101604052809392919081815260200183836020028082843760009201919091525050604080516020808a028281018201909352898252909350899250889182918501908490808284376000920191909152506111a592505050565b80156105be576000805461ff00191690555b505050505050505050565b336000908152603c602052604081205460ff16610629576040805162461bcd60e51b81526020600482015260196024820152784e6f7420612077686974656c6973746564206164647265737360381b604482015290519081900360640190fd5b603d5460ff1661066e576040805162461bcd60e51b815260206004820152601f60248201526000805160206120aa833981519152604482015290519081900360640190fd5b603d805460ff19169055826106c3576040805162461bcd60e51b81526020600482015260166024820152754d757374206465706f73697420736f6d657468696e6760501b604482015290519081900360640190fd5b60006106ce8561125d565b905083915082156107ce5760006106e4826112ca565b9050816001600160a01b031663a0712d68866040518263ffffffff1660e01b815260040180828152602001915050602060405180830381600087803b15801561072c57600080fd5b505af1158015610740573d6000803e3d6000fd5b505050506040513d602081101561075657600080fd5b50511561079f576040805162461bcd60e51b815260206004820152601260248201527118d51bdad95b881b5a5b9d0819985a5b195960721b604482015290519081900360640190fd5b60006107aa836112ca565b90506107c5846107c0838563ffffffff6113e516565b611427565b93505050610887565b806001600160a01b031663a0712d68856040518263ffffffff1660e01b815260040180828152602001915050602060405180830381600087803b15801561081457600080fd5b505af1158015610828573d6000803e3d6000fd5b505050506040513d602081101561083e57600080fd5b505115610887576040805162461bcd60e51b815260206004820152601260248201527118d51bdad95b881b5a5b9d0819985a5b195960721b604482015290519081900360640190fd5b604080516001600160a01b038381168252602082018590528251908816927f5548c837ab068cf56a2c2479df0882a4922fd203edb7517321831d95078c5f62928290030190a250603d805460ff191660011790559392505050565b6000806108ee8361125d565b90506108f9816112ca565b9392505050565b603e602052600090815260409020546001600160a01b031681565b336000908152603c602052604090205460ff1661097b576040805162461bcd60e51b81526020600482015260196024820152784e6f7420612077686974656c6973746564206164647265737360381b604482015290519081900360640190fd5b603d5460ff166109c0576040805162461bcd60e51b815260206004820152601f60248201526000805160206120aa833981519152604482015290519081900360640190fd5b603d805460ff191690556109d7848484808561143c565b5050603d805460ff191660011790555050565b603c6020526000908152604090205460ff1681565b603b546001600160a01b031681565b336000908152603c602052604090205460ff16610a6e576040805162461bcd60e51b81526020600482015260196024820152784e6f7420612077686974656c6973746564206164647265737360381b604482015290519081900360640190fd5b603d5460ff16610ab3576040805162461bcd60e51b815260206004820152601f60248201526000805160206120aa833981519152604482015290519081900360640190fd5b603d805460ff1916905580610b09576040805162461bcd60e51b81526020600482015260176024820152764d75737420776974686472617720736f6d657468696e6760481b604482015290519081900360640190fd5b6001600160a01b038316610b5d576040805162461bcd60e51b8152602060048201526016602482015275135d5cdd081cdc1958da599e481c9958da5c1a595b9d60521b604482015290519081900360640190fd5b610b776001600160a01b038316848363ffffffff61187d16565b60408051600081526020810183905281516001600160a01b038516927f2717ead6b9200dd235aad468c9809ea400fe33ac69b5bfaa6d3e90fc922b6398928290030190a25050603d805460ff1916600117905550565b610bd5610f1f565b6001600160a01b0316336001600160a01b031614610c36576040805162461bcd60e51b81526020600482015260196024820152784f6e6c7920676f7665726e6f722063616e206578656375746560381b604482015290519081900360640190fd5b603f5460005b81811015610468576000603f8281548110610c5357fe5b60009182526020808320909101546001600160a01b03908116808452603e90925260409092205490925016610c8882826118cf565b5050600101610c3c565b336000908152603c602052604090205460ff16610cf2576040805162461bcd60e51b81526020600482015260196024820152784e6f7420612077686974656c6973746564206164647265737360381b604482015290519081900360640190fd5b603d5460ff16610d37576040805162461bcd60e51b815260206004820152601f60248201526000805160206120aa833981519152604482015290519081900360640190fd5b603d805460ff19169055610d4e858585858561143c565b5050603d805460ff19166001179055505050565b603d5461010090046001600160a01b031681565b610d7e610f1f565b6001600160a01b0316336001600160a01b031614610ddf576040805162461bcd60e51b81526020600482015260196024820152784f6e6c7920676f7665726e6f722063616e206578656375746560381b604482015290519081900360640190fd5b603b5460408051692634b8bab4b230ba37b960b11b8152815190819003600a0181206385acd64160e01b8252600482015290516000926001600160a01b0316916385acd641916024808301926020929190829003018186803b158015610e4457600080fd5b505afa158015610e58573d6000803e3d6000fd5b505050506040513d6020811015610e6e57600080fd5b505190506001600160a01b038116610eb75760405162461bcd60e51b81526004018080602001828103825260218152602001806120ca6021913960400191505060405180910390fd5b73c00e94cb662c3520282e6f5717214004a7f26888610ed681836118cf565b604080516001600160a01b0380841682528416602082015281517f71b4effce66e58c9e4ad29e468e7100f7e8b5d106381fd905a25eee3ea1b6a93929181900390910190a15050565b603b546040805163030d028960e21b815290516000926001600160a01b031691630c340a24916004808301926020929190829003018186803b158015610f6457600080fd5b505afa158015610f78573d6000803e3d6000fd5b505050506040513d6020811015610f8e57600080fd5b5051905090565b6001600160a01b038281166000908152603e60205260409020541615610ff7576040805162461bcd60e51b81526020600482015260126024820152711c151bdad95b88185b1c9958591e481cd95d60721b604482015290519081900360640190fd5b6001600160a01b0382161580159061101757506001600160a01b03811615155b61105c576040805162461bcd60e51b8152602060048201526011602482015270496e76616c69642061646472657373657360781b604482015290519081900360640190fd5b6001600160a01b038083166000818152603e6020908152604080832080549587166001600160a01b03199687168117909155603f805460018101825594527fc03004e3ce0784bf68186394306849f9b7b1200073105cd9aeb554a1802b58fd909301805490951684179094558351918252925191927fef6485b84315f9b1483beffa32aae9a0596890395e3d7521f1c5fbb51790e76592918290030190a26104688282611906565b303b1590565b603d805460ff19166001179055565b61112282611910565b6000815111611170576040805162461bcd60e51b8152602060048201526015602482015274456d7074792077686974656c69737420617272617960581b604482015290519081900360640190fd5b60005b81518110156111a05761119882828151811061118b57fe5b6020026020010151611989565b600101611173565b505050565b603d8054610100600160a81b0319166101006001600160a01b03861602179055815181518114611213576040805162461bcd60e51b8152602060048201526014602482015273496e76616c696420696e7075742061727261797360601b604482015290519081900360640190fd5b60005b818110156112565761124e84828151811061122d57fe5b602002602001015184838151811061124157fe5b6020026020010151610f95565b600101611216565b5050505050565b6001600160a01b038082166000908152603e6020526040812054909116806112c4576040805162461bcd60e51b815260206004820152601560248201527418d51bdad95b88191bd95cc81b9bdd08195e1a5cdd605a1b604482015290519081900360640190fd5b92915050565b604080516370a0823160e01b8152306004820152905160009182916001600160a01b038516916370a08231916024808301926020929190829003018186803b15801561131557600080fd5b505afa158015611329573d6000803e3d6000fd5b505050506040513d602081101561133f57600080fd5b50516040805163182df0f560e01b815290519192506000916001600160a01b0386169163182df0f5916004808301926020929190829003018186803b15801561138757600080fd5b505afa15801561139b573d6000803e3d6000fd5b505050506040513d60208110156113b157600080fd5b505190506113dd670de0b6b3a76400006113d1848463ffffffff611a8616565b9063ffffffff611adf16565b949350505050565b60006108f983836040518060400160405280601e81526020017f536166654d6174683a207375627472616374696f6e206f766572666c6f770000815250611b21565b600081831161143657826108f9565b50919050565b6000821161148b576040805162461bcd60e51b81526020600482015260176024820152764d75737420776974686472617720736f6d657468696e6760481b604482015290519081900360640190fd5b6001600160a01b0385166114df576040805162461bcd60e51b8152602060048201526016602482015275135d5cdd081cdc1958da599e481c9958da5c1a595b9d60521b604482015290519081900360640190fd5b60006114ea8561125d565b905060006114f88285611bb8565b90508061154a57604080516001600160a01b03881681526020810186905281517f2ca0d37ecfc1b8853f4bc276c69586250b3978c1d467c05d6c143966026724ec929181900390910190a15050611256565b8483156117575784861461158f5760405162461bcd60e51b815260040180806020018281038252602281526020018061210c6022913960400191505060405180910390fd5b604080516370a0823160e01b8152306004820152905188916000916001600160a01b038416916370a08231916024808301926020929190829003018186803b1580156115da57600080fd5b505afa1580156115ee573d6000803e3d6000fd5b505050506040513d602081101561160457600080fd5b50516040805163852a12e360e01b8152600481018b905290519192506001600160a01b0387169163852a12e3916024808201926020929091908290030181600087803b15801561165357600080fd5b505af1158015611667573d6000803e3d6000fd5b505050506040513d602081101561167d57600080fd5b5051156116c1576040805162461bcd60e51b815260206004820152600d60248201526c1c995919595b4819985a5b1959609a1b604482015290519081900360640190fd5b604080516370a0823160e01b815230600482015290516000916001600160a01b038516916370a0823191602480820192602092909190829003018186803b15801561170b57600080fd5b505afa15801561171f573d6000803e3d6000fd5b505050506040513d602081101561173557600080fd5b5051905061174d846107c0838563ffffffff6113e516565b935050505061180b565b826001600160a01b031663852a12e3866040518263ffffffff1660e01b815260040180828152602001915050602060405180830381600087803b15801561179d57600080fd5b505af11580156117b1573d6000803e3d6000fd5b505050506040513d60208110156117c757600080fd5b50511561180b576040805162461bcd60e51b815260206004820152600d60248201526c1c995919595b4819985a5b1959609a1b604482015290519081900360640190fd5b6118256001600160a01b038816898363ffffffff61187d16565b604080516001600160a01b038581168252602082018890528183018990529151918916917fb925ac01b9c34cc156a17a1e3da718f364df34eec9d0c9dc4e59c2bb1e7ba54b9181900360600190a25050505050505050565b604080516001600160a01b038416602482015260448082018490528251808303909101815260649091019091526020810180516001600160e01b031663a9059cbb60e01b1790526111a0908490611c3e565b6118ea6001600160a01b03831682600063ffffffff611dfc16565b6104686001600160a01b0383168260001963ffffffff611dfc16565b61046882826118cf565b6001600160a01b038116611963576040805162461bcd60e51b81526020600482015260156024820152744e657875732061646472657373206973207a65726f60581b604482015290519081900360640190fd5b603b80546001600160a01b0319166001600160a01b038316179055611986611f0f565b50565b6001600160a01b0381166119d6576040805162461bcd60e51b815260206004820152600f60248201526e41646472657373206973207a65726f60881b604482015290519081900360640190fd5b6001600160a01b0381166000908152603c602052604090205460ff1615611a3a576040805162461bcd60e51b8152602060048201526013602482015272105b1c9958591e481dda1a5d195b1a5cdd1959606a1b604482015290519081900360640190fd5b6001600160a01b0381166000818152603c6020526040808220805460ff19166001179055517faab7954e9d246b167ef88aeddad35209ca2489d95a8aeb59e288d9b19fae5a549190a250565b600082611a95575060006112c4565b82820282848281611aa257fe5b04146108f95760405162461bcd60e51b81526004018080602001828103825260218152602001806120eb6021913960400191505060405180910390fd5b60006108f983836040518060400160405280601a81526020017f536166654d6174683a206469766973696f6e206279207a65726f00000000000081525061200b565b60008184841115611bb05760405162461bcd60e51b81526004018080602001828103825283818151815260200191508051906020019080838360005b83811015611b75578181015183820152602001611b5d565b50505050905090810190601f168015611ba25780820380516001836020036101000a031916815260200191505b509250505060405180910390fd5b505050900390565b600080836001600160a01b031663182df0f56040518163ffffffff1660e01b815260040160206040518083038186803b158015611bf457600080fd5b505afa158015611c08573d6000803e3d6000fd5b505050506040513d6020811015611c1e57600080fd5b505190506113dd816113d185670de0b6b3a764000063ffffffff611a8616565b611c50826001600160a01b0316612070565b611ca1576040805162461bcd60e51b815260206004820152601f60248201527f5361666545524332303a2063616c6c20746f206e6f6e2d636f6e747261637400604482015290519081900360640190fd5b60006060836001600160a01b0316836040518082805190602001908083835b60208310611cdf5780518252601f199092019160209182019101611cc0565b6001836020036101000a0380198251168184511680821785525050505050509050019150506000604051808303816000865af19150503d8060008114611d41576040519150601f19603f3d011682016040523d82523d6000602084013e611d46565b606091505b509150915081611d9d576040805162461bcd60e51b815260206004820181905260248201527f5361666545524332303a206c6f772d6c6576656c2063616c6c206661696c6564604482015290519081900360640190fd5b805115611df657808060200190516020811015611db957600080fd5b5051611df65760405162461bcd60e51b815260040180806020018281038252602a81526020018061215c602a913960400191505060405180910390fd5b50505050565b801580611e82575060408051636eb1769f60e11b81523060048201526001600160a01b03848116602483015291519185169163dd62ed3e91604480820192602092909190829003018186803b158015611e5457600080fd5b505afa158015611e68573d6000803e3d6000fd5b505050506040513d6020811015611e7e57600080fd5b5051155b611ebd5760405162461bcd60e51b81526004018080602001828103825260368152602001806121866036913960400191505060405180910390fd5b604080516001600160a01b038416602482015260448082018490528251808303909101815260649091019091526020810180516001600160e01b031663095ea7b360e01b1790526111a0908490611c3e565b6040805169476f7665726e616e636560b01b8152815190819003600a9081018220603355665374616b696e6760c81b82528251918290036007908101832060345569283937bc3ca0b236b4b760b11b835283519283900390910182206035556827b930b1b632a43ab160b91b8252825191829003600990810183206036556626b0b730b3b2b960c91b835283519283900390910182206037556f2932b1b7b63630ba32b930b634b9b2b960811b82528251918290036010018220603855682134b6322a37b5b2b760b91b82528251918290030181206039556d29b0bb34b733b9a6b0b730b3b2b960911b8152905190819003600e019020603a55565b6000818361205a5760405162461bcd60e51b8152602060048201818152835160248401528351909283926044909101919085019080838360008315611b75578181015183820152602001611b5d565b50600083858161206657fe5b0495945050505050565b6000813f7fc5d2460186f7233c927e7db2dcc703c0e500b653ca82273b7bfad8045d85a4708181148015906113dd57505015159291505056fe5265656e7472616e637947756172643a207265656e7472616e742063616c6c004c697175696461746f7220616464726573732063616e6e6f74206265207a65726f536166654d6174683a206d756c7469706c69636174696f6e206f766572666c6f77436163686520696e61637469766520666f7220617373657473207769746820666565436f6e747261637420696e7374616e63652068617320616c7265616479206265656e20696e697469616c697a65645361666545524332303a204552433230206f7065726174696f6e20646964206e6f7420737563636565645361666545524332303a20617070726f76652066726f6d206e6f6e2d7a65726f20746f206e6f6e2d7a65726f20616c6c6f77616e6365a265627a7a723158206b593c9819013fbf3d6216b5e78e288c70f09e9d128236574a3c08012e40d70864736f6c63430005100032",
  "linkReferences": {},
  "deployedLinkReferences": {}
}