{
  "_format": "hh-sol-artifact-1",
  "contractName": "MockInitializableModule",
  "sourceName": "contracts/z_mocks/shared/MockInitializableModule.sol",
  "abi": [
    {
      "constant": true,
      "inputs": [],
      "name": "bildToken",
      "outputs": [
        {
          "internalType": "address",
          "name": "",
          "type": "address"
        }
      ],
      "payable": false,
      "stateMutability": "view",
      "type": "function"
    },
    {
      "constant": true,
      "inputs": [],
      "name": "governance",
      "outputs": [
        {
          "internalType": "address",
          "name": "",
          "type": "address"
        }
      ],
      "payable": false,
      "stateMutability": "view",
      "type": "function"
    },
    {
      "constant": true,
      "inputs": [],
      "name": "governor",
      "outputs": [
        {
          "internalType": "address",
          "name": "",
          "type": "address"
        }
      ],
      "payable": false,
      "stateMutability": "view",
      "type": "function"
    },
    {
      "constant": false,
      "inputs": [
        {
          "internalType": "address",
          "name": "_nexus",
          "type": "address"
        }
      ],
      "name": "initialize",
      "outputs": [],
      "payable": false,
      "stateMutability": "nonpayable",
      "type": "function"
    },
    {
      "constant": true,
      "inputs": [],
      "name": "manager",
      "outputs": [
        {
          "internalType": "address",
          "name": "",
          "type": "address"
        }
      ],
      "payable": false,
      "stateMutability": "view",
      "type": "function"
    },
    {
      "constant": true,
      "inputs": [],
      "name": "nexus",
      "outputs": [
        {
          "internalType": "contract INexus",
          "name": "",
          "type": "address"
        }
      ],
      "payable": false,
      "stateMutability": "view",
      "type": "function"
    },
    {
      "constant": true,
      "inputs": [],
      "name": "oracleHub",
      "outputs": [
        {
          "internalType": "address",
          "name": "",
          "type": "address"
        }
      ],
      "payable": false,
      "stateMutability": "view",
      "type": "function"
    },
    {
      "constant": true,
      "inputs": [],
      "name": "proxyAdmin",
      "outputs": [
        {
          "internalType": "address",
          "name": "",
          "type": "address"
        }
      ],
      "payable": false,
      "stateMutability": "view",
      "type": "function"
    },
    {
      "constant": true,
      "inputs": [],
      "name": "recollateraliser",
      "outputs": [
        {
          "internalType": "address",
          "name": "",
          "type": "address"
        }
      ],
      "payable": false,
      "stateMutability": "view",
      "type": "function"
    },
    {
      "constant": true,
      "inputs": [],
      "name": "savingsManager",
      "outputs": [
        {
          "internalType": "address",
          "name": "",
          "type": "address"
        }
      ],
      "payable": false,
      "stateMutability": "view",
      "type": "function"
    },
    {
      "constant": false,
      "inputs": [],
      "name": "shouldAllowOnlyGovernance",
      "outputs": [],
      "payable": false,
      "stateMutability": "nonpayable",
      "type": "function"
    },
    {
      "constant": false,
      "inputs": [],
      "name": "shouldAllowOnlyGovernor",
      "outputs": [],
      "payable": false,
      "stateMutability": "nonpayable",
      "type": "function"
    },
    {
      "constant": false,
      "inputs": [],
      "name": "shouldAllowOnlyManager",
      "outputs": [],
      "payable": false,
      "stateMutability": "nonpayable",
      "type": "function"
    },
    {
      "constant": false,
      "inputs": [],
      "name": "shouldAllowOnlyProxyAdmin",
      "outputs": [],
      "payable": false,
      "stateMutability": "nonpayable",
      "type": "function"
    },
    {
      "constant": true,
      "inputs": [],
      "name": "staking",
      "outputs": [
        {
          "internalType": "address",
          "name": "",
          "type": "address"
        }
      ],
      "payable": false,
      "stateMutability": "view",
      "type": "function"
    },
    {
      "constant": true,
      "inputs": [],
      "name": "temp",
      "outputs": [
        {
          "internalType": "uint256",
          "name": "",
          "type": "uint256"
        }
      ],
      "payable": false,
      "stateMutability": "view",
      "type": "function"
    }
  ],
  "bytecode": "0x608060405234801561001057600080fd5b506109b2806100206000396000f3fe608060405234801561001057600080fd5b50600436106101005760003560e01c80635aa6e67511610097578063a3f5c1d211610066578063a3f5c1d214610195578063bcfb90121461019d578063c4d66de8146101a5578063d6a4bffc146101cb57610100565b80635aa6e67514610163578063673402e51461016b57806373d62b4614610185578063a0f60ec21461018d57610100565b80633e47158c116100d35780633e47158c14610143578063410c34b71461014b578063481c6a75146101535780634cf088d91461015b57610100565b806308484f21146101055780630c340a24146101295780630d0181d414610131578063212e46b61461013b575b600080fd5b61010d6101d3565b604080516001600160a01b039092168252519081900360200190f35b61010d6101e2565b6101396101ec565b005b610139610260565b61010d6102f7565b610139610301565b61010d610375565b61010d61037f565b61010d610389565b610173610393565b60408051918252519081900360200190f35b61010d610399565b61010d6103a3565b61010d6103ad565b6101396103bc565b610139600480360360208110156101bb57600080fd5b50356001600160a01b0316610430565b61010d6104dc565b60006101dd6104e6565b905090565b60006101dd610566565b6101f46105ab565b6001600160a01b0316336001600160a01b031614610259576040805162461bcd60e51b815260206004820152601860248201527f4f6e6c79206d616e616765722063616e20657865637574650000000000000000604482015290519081900360640190fd5b6003603c55565b610268610566565b6001600160a01b0316336001600160a01b0316148061029f575061028a6105fa565b6001600160a01b0316336001600160a01b0316145b6102f0576040805162461bcd60e51b815260206004820152601b60248201527f4f6e6c7920676f7665726e616e63652063616e20657865637574650000000000604482015290519081900360640190fd5b6002603c55565b60006101dd610649565b610309610566565b6001600160a01b0316336001600160a01b03161461036e576040805162461bcd60e51b815260206004820152601960248201527f4f6e6c7920676f7665726e6f722063616e206578656375746500000000000000604482015290519081900360640190fd5b6001603c55565b60006101dd6105ab565b60006101dd610698565b60006101dd6105fa565b603c5481565b60006101dd6106e7565b60006101dd610736565b603b546001600160a01b031681565b6103c4610649565b6001600160a01b0316336001600160a01b031614610429576040805162461bcd60e51b815260206004820152601b60248201527f4f6e6c792050726f787941646d696e2063616e20657865637574650000000000604482015290519081900360640190fd5b6004603c55565b600054610100900460ff16806104495750610449610785565b80610457575060005460ff16155b6104925760405162461bcd60e51b815260040180806020018281038252602e815260200180610950602e913960400191505060405180910390fd5b600054610100900460ff161580156104bd576000805460ff1961ff0019909116610100171660011790555b6104c68261078b565b80156104d8576000805461ff00191690555b5050565b60006101dd610804565b603b54603854604080516385acd64160e01b81526004810192909252516000926001600160a01b0316916385acd641916024808301926020929190829003018186803b15801561053557600080fd5b505afa158015610549573d6000803e3d6000fd5b505050506040513d602081101561055f57600080fd5b5051905090565b603b546040805163030d028960e21b815290516000926001600160a01b031691630c340a24916004808301926020929190829003018186803b15801561053557600080fd5b603b54603754604080516385acd64160e01b81526004810192909252516000926001600160a01b0316916385acd641916024808301926020929190829003018186803b15801561053557600080fd5b603b54603354604080516385acd64160e01b81526004810192909252516000926001600160a01b0316916385acd641916024808301926020929190829003018186803b15801561053557600080fd5b603b54603554604080516385acd64160e01b81526004810192909252516000926001600160a01b0316916385acd641916024808301926020929190829003018186803b15801561053557600080fd5b603b54603454604080516385acd64160e01b81526004810192909252516000926001600160a01b0316916385acd641916024808301926020929190829003018186803b15801561053557600080fd5b603b54603654604080516385acd64160e01b81526004810192909252516000926001600160a01b0316916385acd641916024808301926020929190829003018186803b15801561053557600080fd5b603b54603a54604080516385acd64160e01b81526004810192909252516000926001600160a01b0316916385acd641916024808301926020929190829003018186803b15801561053557600080fd5b303b1590565b6001600160a01b0381166107de576040805162461bcd60e51b81526020600482015260156024820152744e657875732061646472657373206973207a65726f60581b604482015290519081900360640190fd5b603b80546001600160a01b0319166001600160a01b038316179055610801610853565b50565b603b54603954604080516385acd64160e01b81526004810192909252516000926001600160a01b0316916385acd641916024808301926020929190829003018186803b15801561053557600080fd5b6040805169476f7665726e616e636560b01b8152815190819003600a9081018220603355665374616b696e6760c81b82528251918290036007908101832060345569283937bc3ca0b236b4b760b11b835283519283900390910182206035556827b930b1b632a43ab160b91b8252825191829003600990810183206036556626b0b730b3b2b960c91b835283519283900390910182206037556f2932b1b7b63630ba32b930b634b9b2b960811b82528251918290036010018220603855682134b6322a37b5b2b760b91b82528251918290030181206039556d29b0bb34b733b9a6b0b730b3b2b960911b8152905190819003600e019020603a5556fe436f6e747261637420696e7374616e63652068617320616c7265616479206265656e20696e697469616c697a6564a265627a7a723158207a3e8b359cf5f5aae126853891beb07ee0daf902860136fffbaf10fdb769693864736f6c63430005100032",
  "linkReferences": {},
  "deployedLinkReferences": {}
}