{
  "contractName": "AaveV2Integration",
  "abi": [
    {
      "anonymous": false,
      "inputs": [
        {
          "indexed": true,
          "internalType": "address",
          "name": "_bAsset",
          "type": "address"
        },
        {
          "indexed": false,
          "internalType": "address",
          "name": "_pToken",
          "type": "address"
        },
        {
          "indexed": false,
          "internalType": "uint256",
          "name": "_amount",
          "type": "uint256"
        }
      ],
      "name": "Deposit",
      "type": "event"
    },
    {
      "anonymous": false,
      "inputs": [
        {
          "indexed": true,
          "internalType": "address",
          "name": "_bAsset",
          "type": "address"
        },
        {
          "indexed": false,
          "internalType": "address",
          "name": "_pToken",
          "type": "address"
        }
      ],
      "name": "PTokenAdded",
      "type": "event"
    },
    {
      "anonymous": false,
      "inputs": [
        {
          "indexed": true,
          "internalType": "address",
          "name": "bAsset",
          "type": "address"
        },
        {
          "indexed": false,
          "internalType": "address",
          "name": "pToken",
          "type": "address"
        },
        {
          "indexed": false,
          "internalType": "uint256",
          "name": "totalAmount",
          "type": "uint256"
        },
        {
          "indexed": false,
          "internalType": "uint256",
          "name": "userAmount",
          "type": "uint256"
        }
      ],
      "name": "PlatformWithdrawal",
      "type": "event"
    },
    {
      "anonymous": false,
      "inputs": [
        {
          "indexed": false,
          "internalType": "address",
          "name": "rewardToken",
          "type": "address"
        },
        {
          "indexed": false,
          "internalType": "address",
          "name": "account",
          "type": "address"
        }
      ],
      "name": "RewardTokenApproved",
      "type": "event"
    },
    {
      "anonymous": false,
      "inputs": [
        {
          "indexed": true,
          "internalType": "address",
          "name": "_address",
          "type": "address"
        }
      ],
      "name": "Whitelisted",
      "type": "event"
    },
    {
      "anonymous": false,
      "inputs": [
        {
          "indexed": true,
          "internalType": "address",
          "name": "_bAsset",
          "type": "address"
        },
        {
          "indexed": false,
          "internalType": "address",
          "name": "_pToken",
          "type": "address"
        },
        {
          "indexed": false,
          "internalType": "uint256",
          "name": "_amount",
          "type": "uint256"
        }
      ],
      "name": "Withdrawal",
      "type": "event"
    },
    {
      "constant": true,
      "inputs": [
        {
          "internalType": "address",
          "name": "",
          "type": "address"
        }
      ],
      "name": "bAssetToPToken",
      "outputs": [
        {
          "internalType": "address",
          "name": "",
          "type": "address"
        }
      ],
      "payable": false,
      "stateMutability": "view",
      "type": "function"
    },
    {
      "constant": false,
      "inputs": [
        {
          "internalType": "address",
          "name": "_nexus",
          "type": "address"
        },
        {
          "internalType": "address[]",
          "name": "_whitelisted",
          "type": "address[]"
        },
        {
          "internalType": "address",
          "name": "_platformAddress",
          "type": "address"
        },
        {
          "internalType": "address[]",
          "name": "_bAssets",
          "type": "address[]"
        },
        {
          "internalType": "address[]",
          "name": "_pTokens",
          "type": "address[]"
        }
      ],
      "name": "initialize",
      "outputs": [],
      "payable": false,
      "stateMutability": "nonpayable",
      "type": "function"
    },
    {
      "constant": true,
      "inputs": [],
      "name": "nexus",
      "outputs": [
        {
          "internalType": "contract INexus",
          "name": "",
          "type": "address"
        }
      ],
      "payable": false,
      "stateMutability": "view",
      "type": "function"
    },
    {
      "constant": true,
      "inputs": [],
      "name": "platformAddress",
      "outputs": [
        {
          "internalType": "address",
          "name": "",
          "type": "address"
        }
      ],
      "payable": false,
      "stateMutability": "view",
      "type": "function"
    },
    {
      "constant": false,
      "inputs": [
        {
          "internalType": "address",
          "name": "_bAsset",
          "type": "address"
        },
        {
          "internalType": "address",
          "name": "_pToken",
          "type": "address"
        }
      ],
      "name": "setPTokenAddress",
      "outputs": [],
      "payable": false,
      "stateMutability": "nonpayable",
      "type": "function"
    },
    {
      "constant": true,
      "inputs": [
        {
          "internalType": "address",
          "name": "",
          "type": "address"
        }
      ],
      "name": "whitelist",
      "outputs": [
        {
          "internalType": "bool",
          "name": "",
          "type": "bool"
        }
      ],
      "payable": false,
      "stateMutability": "view",
      "type": "function"
    },
    {
      "constant": false,
      "inputs": [],
      "name": "approveRewardToken",
      "outputs": [],
      "payable": false,
      "stateMutability": "nonpayable",
      "type": "function"
    },
    {
      "constant": false,
      "inputs": [
        {
          "internalType": "address",
          "name": "_bAsset",
          "type": "address"
        },
        {
          "internalType": "uint256",
          "name": "_amount",
          "type": "uint256"
        },
        {
          "internalType": "bool",
          "name": "_hasTxFee",
          "type": "bool"
        }
      ],
      "name": "deposit",
      "outputs": [
        {
          "internalType": "uint256",
          "name": "quantityDeposited",
          "type": "uint256"
        }
      ],
      "payable": false,
      "stateMutability": "nonpayable",
      "type": "function"
    },
    {
      "constant": false,
      "inputs": [
        {
          "internalType": "address",
          "name": "_receiver",
          "type": "address"
        },
        {
          "internalType": "address",
          "name": "_bAsset",
          "type": "address"
        },
        {
          "internalType": "uint256",
          "name": "_amount",
          "type": "uint256"
        },
        {
          "internalType": "bool",
          "name": "_hasTxFee",
          "type": "bool"
        }
      ],
      "name": "withdraw",
      "outputs": [],
      "payable": false,
      "stateMutability": "nonpayable",
      "type": "function"
    },
    {
      "constant": false,
      "inputs": [
        {
          "internalType": "address",
          "name": "_receiver",
          "type": "address"
        },
        {
          "internalType": "address",
          "name": "_bAsset",
          "type": "address"
        },
        {
          "internalType": "uint256",
          "name": "_amount",
          "type": "uint256"
        },
        {
          "internalType": "uint256",
          "name": "_totalAmount",
          "type": "uint256"
        },
        {
          "internalType": "bool",
          "name": "_hasTxFee",
          "type": "bool"
        }
      ],
      "name": "withdraw",
      "outputs": [],
      "payable": false,
      "stateMutability": "nonpayable",
      "type": "function"
    },
    {
      "constant": false,
      "inputs": [
        {
          "internalType": "address",
          "name": "_receiver",
          "type": "address"
        },
        {
          "internalType": "address",
          "name": "_bAsset",
          "type": "address"
        },
        {
          "internalType": "uint256",
          "name": "_amount",
          "type": "uint256"
        }
      ],
      "name": "withdrawRaw",
      "outputs": [],
      "payable": false,
      "stateMutability": "nonpayable",
      "type": "function"
    },
    {
      "constant": false,
      "inputs": [
        {
          "internalType": "address",
          "name": "_bAsset",
          "type": "address"
        }
      ],
      "name": "checkBalance",
      "outputs": [
        {
          "internalType": "uint256",
          "name": "balance",
          "type": "uint256"
        }
      ],
      "payable": false,
      "stateMutability": "nonpayable",
      "type": "function"
    },
    {
      "constant": false,
      "inputs": [],
      "name": "reApproveAllTokens",
      "outputs": [],
      "payable": false,
      "stateMutability": "nonpayable",
      "type": "function"
    }
  ],
  "bytecode": "0x608060405234801561001057600080fd5b50611dd9806100206000396000f3fe608060405234801561001057600080fd5b50600436106100cf5760003560e01c80639b19251a1161008c578063a755349a11610066578063a755349a14610399578063c89fc72f146103a1578063dbe55e56146103e5578063e7296454146103ed576100cf565b80639b19251a14610321578063a3f5c1d21461035b578063a4e2859514610363576100cf565b80630ed57b3a146100d457806311505f72146101045780633edd1128146102355780635f5152261461027b57806371c46585146102a1578063934785b7146102e3575b600080fd5b610102600480360360408110156100ea57600080fd5b506001600160a01b03813581169160200135166103f5565b005b610102600480360360a081101561011a57600080fd5b6001600160a01b03823516919081019060408101602082013564010000000081111561014557600080fd5b82018360208201111561015757600080fd5b8035906020019184602083028401116401000000008311171561017957600080fd5b919390926001600160a01b03833516926040810190602001356401000000008111156101a457600080fd5b8201836020820111156101b657600080fd5b803590602001918460208302840111640100000000831117156101d857600080fd5b9193909290916020810190356401000000008111156101f657600080fd5b82018360208201111561020857600080fd5b8035906020019184602083028401116401000000008311171561022a57600080fd5b50909250905061046c565b6102696004803603606081101561024b57600080fd5b506001600160a01b03813516906020810135906040013515156105c9565b60408051918252519081900360200190f35b6102696004803603602081101561029157600080fd5b50356001600160a01b031661086f565b6102c7600480360360208110156102b757600080fd5b50356001600160a01b031661088d565b604080516001600160a01b039092168252519081900360200190f35b610102600480360360808110156102f957600080fd5b506001600160a01b0381358116916020810135909116906040810135906060013515156108a8565b6103476004803603602081101561033757600080fd5b50356001600160a01b0316610977565b604080519115158252519081900360200190f35b6102c761098c565b6101026004803603606081101561037957600080fd5b506001600160a01b0381358116916020810135909116906040013561099b565b610102610b5a565b610102600480360360a08110156103b757600080fd5b506001600160a01b038135811691602081013590911690604081013590606081013590608001351515610c15565b6102c7610ce5565b610102610cf9565b6103fd610ea2565b6001600160a01b0316336001600160a01b03161461045e576040805162461bcd60e51b81526020600482015260196024820152784f6e6c7920676f7665726e6f722063616e206578656375746560381b604482015290519081900360640190fd5b6104688282610f18565b5050565b600054610100900460ff16806104855750610485611087565b80610493575060005460ff16155b6104ce5760405162461bcd60e51b815260040180806020018281038252602e815260200180611d17602e913960400191505060405180910390fd5b600054610100900460ff161580156104f9576000805460ff1961ff0019909116610100171660011790555b61050161108d565b61053e8989898080602002602001604051908101604052809392919081815260200183836020028082843760009201919091525061109c92505050565b6105ac8686868080602002602001604051908101604052809392919081815260200183836020028082843760009201919091525050604080516020808a0282810182019093528982529093508992508891829185019084908082843760009201919091525061112392505050565b80156105be576000805461ff00191690555b505050505050505050565b336000908152603c602052604081205460ff16610629576040805162461bcd60e51b81526020600482015260196024820152784e6f7420612077686974656c6973746564206164647265737360381b604482015290519081900360640190fd5b603d5460ff1661066e576040805162461bcd60e51b815260206004820152601f6024820152600080516020611cb4833981519152604482015290519081900360640190fd5b603d805460ff19169055826106c3576040805162461bcd60e51b81526020600482015260166024820152754d757374206465706f73697420736f6d657468696e6760501b604482015290519081900360640190fd5b60006106ce856111db565b905083915082156107945760006106e482611248565b90506106ee6112c4565b6040805163e8eda9df60e01b81526001600160a01b03898116600483015260248281018a905230604484015260648301529151929091169163e8eda9df9160848082019260009290919082900301818387803b15801561074d57600080fd5b505af1158015610761573d6000803e3d6000fd5b50505050600061077083611248565b905061078b84610786838563ffffffff6113a316565b6113e5565b93505050610814565b61079c6112c4565b6040805163e8eda9df60e01b81526001600160a01b038881166004830152602482810189905230604484015260648301529151929091169163e8eda9df9160848082019260009290919082900301818387803b1580156107fb57600080fd5b505af115801561080f573d6000803e3d6000fd5b505050505b604080516001600160a01b038381168252602082018590528251908816927f5548c837ab068cf56a2c2479df0882a4922fd203edb7517321831d95078c5f62928290030190a250603d805460ff191660011790559392505050565b60008061087b836111db565b905061088681611248565b9392505050565b603e602052600090815260409020546001600160a01b031681565b336000908152603c602052604090205460ff16610908576040805162461bcd60e51b81526020600482015260196024820152784e6f7420612077686974656c6973746564206164647265737360381b604482015290519081900360640190fd5b603d5460ff1661094d576040805162461bcd60e51b815260206004820152601f6024820152600080516020611cb4833981519152604482015290519081900360640190fd5b603d805460ff1916905561096484848480856113fa565b5050603d805460ff191660011790555050565b603c6020526000908152604090205460ff1681565b603b546001600160a01b031681565b336000908152603c602052604090205460ff166109fb576040805162461bcd60e51b81526020600482015260196024820152784e6f7420612077686974656c6973746564206164647265737360381b604482015290519081900360640190fd5b603d5460ff16610a40576040805162461bcd60e51b815260206004820152601f6024820152600080516020611cb4833981519152604482015290519081900360640190fd5b603d805460ff1916905580610a96576040805162461bcd60e51b81526020600482015260176024820152764d75737420776974686472617720736f6d657468696e6760481b604482015290519081900360640190fd5b6001600160a01b038316610aea576040805162461bcd60e51b8152602060048201526016602482015275135d5cdd081cdc1958da599e481c9958da5c1a595b9d60521b604482015290519081900360640190fd5b610b046001600160a01b038316848363ffffffff6115fe16565b60408051600081526020810183905281516001600160a01b038516927f2717ead6b9200dd235aad468c9809ea400fe33ac69b5bfaa6d3e90fc922b6398928290030190a25050603d805460ff1916600117905550565b610b62610ea2565b6001600160a01b0316336001600160a01b031614610bc3576040805162461bcd60e51b81526020600482015260196024820152784f6e6c7920676f7665726e6f722063616e206578656375746560381b604482015290519081900360640190fd5b603f546000610bd06112c4565b905060005b82811015610c1057610c08603f8281548110610bed57fe5b6000918252602090912001546001600160a01b031683611650565b600101610bd5565b505050565b336000908152603c602052604090205460ff16610c75576040805162461bcd60e51b81526020600482015260196024820152784e6f7420612077686974656c6973746564206164647265737360381b604482015290519081900360640190fd5b603d5460ff16610cba576040805162461bcd60e51b815260206004820152601f6024820152600080516020611cb4833981519152604482015290519081900360640190fd5b603d805460ff19169055610cd185858585856113fa565b5050603d805460ff19166001179055505050565b603d5461010090046001600160a01b031681565b610d01610ea2565b6001600160a01b0316336001600160a01b031614610d62576040805162461bcd60e51b81526020600482015260196024820152784f6e6c7920676f7665726e6f722063616e206578656375746560381b604482015290519081900360640190fd5b603b5460408051692634b8bab4b230ba37b960b11b8152815190819003600a0181206385acd64160e01b8252600482015290516000926001600160a01b0316916385acd641916024808301926020929190829003018186803b158015610dc757600080fd5b505afa158015610ddb573d6000803e3d6000fd5b505050506040513d6020811015610df157600080fd5b505190506001600160a01b038116610e3a5760405162461bcd60e51b8152600401808060200182810382526021815260200180611cd46021913960400191505060405180910390fd5b737fc66500c84a76ad7e9c93437bfc5ac33e2ddae9610e598183611650565b604080516001600160a01b0380841682528416602082015281517f71b4effce66e58c9e4ad29e468e7100f7e8b5d106381fd905a25eee3ea1b6a93929181900390910190a15050565b603b546040805163030d028960e21b815290516000926001600160a01b031691630c340a24916004808301926020929190829003018186803b158015610ee757600080fd5b505afa158015610efb573d6000803e3d6000fd5b505050506040513d6020811015610f1157600080fd5b5051905090565b6001600160a01b038281166000908152603e60205260409020541615610f7a576040805162461bcd60e51b81526020600482015260126024820152711c151bdad95b88185b1c9958591e481cd95d60721b604482015290519081900360640190fd5b6001600160a01b03821615801590610f9a57506001600160a01b03811615155b610fdf576040805162461bcd60e51b8152602060048201526011602482015270496e76616c69642061646472657373657360781b604482015290519081900360640190fd5b6001600160a01b038083166000818152603e6020908152604080832080549587166001600160a01b03199687168117909155603f805460018101825594527fc03004e3ce0784bf68186394306849f9b7b1200073105cd9aeb554a1802b58fd909301805490951684179094558351918252925191927fef6485b84315f9b1483beffa32aae9a0596890395e3d7521f1c5fbb51790e76592918290030190a26104688282611687565b303b1590565b603d805460ff19166001179055565b6110a58261169d565b60008151116110f3576040805162461bcd60e51b8152602060048201526015602482015274456d7074792077686974656c69737420617272617960581b604482015290519081900360640190fd5b60005b8151811015610c105761111b82828151811061110e57fe5b6020026020010151611716565b6001016110f6565b603d8054610100600160a81b0319166101006001600160a01b03861602179055815181518114611191576040805162461bcd60e51b8152602060048201526014602482015273496e76616c696420696e7075742061727261797360601b604482015290519081900360640190fd5b60005b818110156111d4576111cc8482815181106111ab57fe5b60200260200101518483815181106111bf57fe5b6020026020010151610f18565b600101611194565b5050505050565b6001600160a01b038082166000908152603e602052604081205490911680611242576040805162461bcd60e51b815260206004820152601560248201527418551bdad95b88191bd95cc81b9bdd08195e1a5cdd605a1b604482015290519081900360640190fd5b92915050565b604080516370a0823160e01b815230600482015290516000916001600160a01b038416916370a0823191602480820192602092909190829003018186803b15801561129257600080fd5b505afa1580156112a6573d6000803e3d6000fd5b505050506040513d60208110156112bc57600080fd5b505192915050565b600080603d60019054906101000a90046001600160a01b03166001600160a01b0316630261bf8b6040518163ffffffff1660e01b815260040160206040518083038186803b15801561131557600080fd5b505afa158015611329573d6000803e3d6000fd5b505050506040513d602081101561133f57600080fd5b505190506001600160a01b03811661139e576040805162461bcd60e51b815260206004820152601b60248201527f4c656e64696e6720706f6f6c20646f6573206e6f742065786973740000000000604482015290519081900360640190fd5b905090565b600061088683836040518060400160405280601e81526020017f536166654d6174683a207375627472616374696f6e206f766572666c6f770000815250611813565b60008183116113f45782610886565b50919050565b60008211611449576040805162461bcd60e51b81526020600482015260176024820152764d75737420776974686472617720736f6d657468696e6760481b604482015290519081900360640190fd5b6000611454856111db565b9050811561151a5782841461149a5760405162461bcd60e51b8152600401808060200182810382526022815260200180611cf56022913960400191505060405180910390fd5b6114a26112c4565b60408051631a4ca37b60e21b81526001600160a01b038881166004830152602482018890528981166044830152915192909116916369328dec9160648082019260009290919082900301818387803b1580156114fd57600080fd5b505af1158015611511573d6000803e3d6000fd5b505050506115a8565b6115226112c4565b60408051631a4ca37b60e21b81526001600160a01b03888116600483015260248201879052306044830152915192909116916369328dec9160648082019260009290919082900301818387803b15801561157b57600080fd5b505af115801561158f573d6000803e3d6000fd5b506115a8925050506001600160a01b03861687866115fe565b604080516001600160a01b038381168252602082018690528183018790529151918716917fb925ac01b9c34cc156a17a1e3da718f364df34eec9d0c9dc4e59c2bb1e7ba54b9181900360600190a2505050505050565b604080516001600160a01b038416602482015260448082018490528251808303909101815260649091019091526020810180516001600160e01b031663a9059cbb60e01b179052610c109084906118aa565b61166b6001600160a01b03831682600063ffffffff611a6816565b6104686001600160a01b0383168260001963ffffffff611a6816565b60006116916112c4565b9050610c108382611650565b6001600160a01b0381166116f0576040805162461bcd60e51b81526020600482015260156024820152744e657875732061646472657373206973207a65726f60581b604482015290519081900360640190fd5b603b80546001600160a01b0319166001600160a01b038316179055611713611b7b565b50565b6001600160a01b038116611763576040805162461bcd60e51b815260206004820152600f60248201526e41646472657373206973207a65726f60881b604482015290519081900360640190fd5b6001600160a01b0381166000908152603c602052604090205460ff16156117c7576040805162461bcd60e51b8152602060048201526013602482015272105b1c9958591e481dda1a5d195b1a5cdd1959606a1b604482015290519081900360640190fd5b6001600160a01b0381166000818152603c6020526040808220805460ff19166001179055517faab7954e9d246b167ef88aeddad35209ca2489d95a8aeb59e288d9b19fae5a549190a250565b600081848411156118a25760405162461bcd60e51b81526004018080602001828103825283818151815260200191508051906020019080838360005b8381101561186757818101518382015260200161184f565b50505050905090810190601f1680156118945780820380516001836020036101000a031916815260200191505b509250505060405180910390fd5b505050900390565b6118bc826001600160a01b0316611c77565b61190d576040805162461bcd60e51b815260206004820152601f60248201527f5361666545524332303a2063616c6c20746f206e6f6e2d636f6e747261637400604482015290519081900360640190fd5b60006060836001600160a01b0316836040518082805190602001908083835b6020831061194b5780518252601f19909201916020918201910161192c565b6001836020036101000a0380198251168184511680821785525050505050509050019150506000604051808303816000865af19150503d80600081146119ad576040519150601f19603f3d011682016040523d82523d6000602084013e6119b2565b606091505b509150915081611a09576040805162461bcd60e51b815260206004820181905260248201527f5361666545524332303a206c6f772d6c6576656c2063616c6c206661696c6564604482015290519081900360640190fd5b805115611a6257808060200190516020811015611a2557600080fd5b5051611a625760405162461bcd60e51b815260040180806020018281038252602a815260200180611d45602a913960400191505060405180910390fd5b50505050565b801580611aee575060408051636eb1769f60e11b81523060048201526001600160a01b03848116602483015291519185169163dd62ed3e91604480820192602092909190829003018186803b158015611ac057600080fd5b505afa158015611ad4573d6000803e3d6000fd5b505050506040513d6020811015611aea57600080fd5b5051155b611b295760405162461bcd60e51b8152600401808060200182810382526036815260200180611d6f6036913960400191505060405180910390fd5b604080516001600160a01b038416602482015260448082018490528251808303909101815260649091019091526020810180516001600160e01b031663095ea7b360e01b179052610c109084906118aa565b6040805169476f7665726e616e636560b01b8152815190819003600a9081018220603355665374616b696e6760c81b82528251918290036007908101832060345569283937bc3ca0b236b4b760b11b835283519283900390910182206035556827b930b1b632a43ab160b91b8252825191829003600990810183206036556626b0b730b3b2b960c91b835283519283900390910182206037556f2932b1b7b63630ba32b930b634b9b2b960811b82528251918290036010018220603855682134b6322a37b5b2b760b91b82528251918290030181206039556d29b0bb34b733b9a6b0b730b3b2b960911b8152905190819003600e019020603a55565b6000813f7fc5d2460186f7233c927e7db2dcc703c0e500b653ca82273b7bfad8045d85a470818114801590611cab57508115155b94935050505056fe5265656e7472616e637947756172643a207265656e7472616e742063616c6c004c697175696461746f7220616464726573732063616e6e6f74206265207a65726f436163686520696e61637469766520666f7220617373657473207769746820666565436f6e747261637420696e7374616e63652068617320616c7265616479206265656e20696e697469616c697a65645361666545524332303a204552433230206f7065726174696f6e20646964206e6f7420737563636565645361666545524332303a20617070726f76652066726f6d206e6f6e2d7a65726f20746f206e6f6e2d7a65726f20616c6c6f77616e6365a265627a7a7231582070e21cc9b0b3ecf7038b4907c933d5ed0b6878b5ec747c22605408773fb193f464736f6c63430005100032",
  "source": "pragma solidity 0.5.16;\n\nimport {\n    IAaveATokenV2,\n    IAaveLendingPoolV2,\n    ILendingPoolAddressesProviderV2\n} from \"./IAave.sol\";\nimport { InitializableAbstractIntegration, MixHelpers, IERC20, SafeMath } from \"./InitializableAbstractIntegration.sol\";\n\n\n/**\n * @title   AaveV2Integration\n * @author  Stability Labs Pty. Ltd.\n * @notice  A simple connection to deposit and withdraw bAssets from Aave\n * @dev     VERSION: 1.0\n *          DATE:    2020-16-11\n */\ncontract AaveV2Integration is InitializableAbstractIntegration {\n\n    event RewardTokenApproved(address rewardToken, address account);\n\n    /***************************************\n                    ADMIN\n    ****************************************/\n\n    /**\n     * @dev Approves Liquidator to spend reward tokens\n     */\n    function approveRewardToken()\n        external\n        onlyGovernor\n    {\n        address liquidator = nexus.getModule(keccak256(\"Liquidator\"));\n        require(liquidator != address(0), \"Liquidator address cannot be zero\");\n\n        // Official checksummed AAVE token address\n        // https://ethplorer.io/address/0x7Fc66500c84A76Ad7e9c93437bFc5Ac33E2DDaE9\n        address aaveToken = address(0x7Fc66500c84A76Ad7e9c93437bFc5Ac33E2DDaE9);\n\n        MixHelpers.safeInfiniteApprove(aaveToken, liquidator);\n\n        emit RewardTokenApproved(address(aaveToken), liquidator);\n    }\n\n\n    /***************************************\n                    CORE\n    ****************************************/\n\n    /**\n     * @dev Deposit a quantity of bAsset into the platform. Credited aTokens\n     *      remain here in the vault. Can only be called by whitelisted addresses\n     *      (mIx and corresponding BasketManager)\n     * @param _bAsset              Address for the bAsset\n     * @param _amount              Units of bAsset to deposit\n     * @param _hasTxFee            Is the bAsset known to have a tx fee?\n     * @return quantityDeposited   Quantity of bAsset that entered the platform\n     */\n    function deposit(\n        address _bAsset,\n        uint256 _amount,\n        bool _hasTxFee\n    )\n        external\n        onlyWhitelisted\n        nonReentrant\n        returns (uint256 quantityDeposited)\n    {\n        require(_amount > 0, \"Must deposit something\");\n\n        IAaveATokenV2 aToken = _getATokenFor(_bAsset);\n\n        quantityDeposited = _amount;\n\n        if(_hasTxFee) {\n            // If we charge a fee, account for it\n            uint256 prevBal = _checkBalance(aToken);\n            _getLendingPool().deposit(_bAsset, _amount, address(this), 36);\n            uint256 newBal = _checkBalance(aToken);\n            quantityDeposited = _min(quantityDeposited, newBal.sub(prevBal));\n        } else {\n            _getLendingPool().deposit(_bAsset, _amount, address(this), 36);\n        }\n\n        emit Deposit(_bAsset, address(aToken), quantityDeposited);\n    }\n\n    /**\n     * @dev Withdraw a quantity of bAsset from the platform\n     * @param _receiver     Address to which the bAsset should be sent\n     * @param _bAsset       Address of the bAsset\n     * @param _amount       Units of bAsset to withdraw\n     * @param _hasTxFee     Is the bAsset known to have a tx fee?\n     */\n    function withdraw(\n        address _receiver,\n        address _bAsset,\n        uint256 _amount,\n        bool _hasTxFee\n    )\n        external\n        onlyWhitelisted\n        nonReentrant\n    {\n        _withdraw(_receiver, _bAsset, _amount, _amount, _hasTxFee);\n    }\n\n    /**\n     * @dev Withdraw a quantity of bAsset from the platform\n     * @param _receiver     Address to which the bAsset should be sent\n     * @param _bAsset       Address of the bAsset\n     * @param _amount       Units of bAsset to send to recipient\n     * @param _totalAmount  Total units to pull from lending platform\n     * @param _hasTxFee     Is the bAsset known to have a tx fee?\n     */\n    function withdraw(\n        address _receiver,\n        address _bAsset,\n        uint256 _amount,\n        uint256 _totalAmount,\n        bool _hasTxFee\n    )\n        external\n        onlyWhitelisted\n        nonReentrant\n    {\n        _withdraw(_receiver, _bAsset, _amount, _totalAmount, _hasTxFee);\n    }\n\n    /** @dev Withdraws _totalAmount from the lending pool, sending _amount to user */\n    function _withdraw(\n        address _receiver,\n        address _bAsset,\n        uint256 _amount,\n        uint256 _totalAmount,\n        bool _hasTxFee\n    )\n        internal\n    {\n        require(_totalAmount > 0, \"Must withdraw something\");\n\n        IAaveATokenV2 aToken = _getATokenFor(_bAsset);\n\n        if(_hasTxFee) {\n            require(_amount == _totalAmount, \"Cache inactive for assets with fee\");\n            _getLendingPool().withdraw(_bAsset, _amount, _receiver);\n        } else {\n            _getLendingPool().withdraw(_bAsset, _totalAmount, address(this));\n            // Send redeemed bAsset to the receiver\n            IERC20(_bAsset).safeTransfer(_receiver, _amount);\n        }\n\n        emit PlatformWithdrawal(_bAsset, address(aToken), _totalAmount, _amount);\n    }\n\n    /**\n     * @dev Withdraw a quantity of bAsset from the cache.\n     * @param _receiver     Address to which the bAsset should be sent\n     * @param _bAsset       Address of the bAsset\n     * @param _amount       Units of bAsset to withdraw\n     */\n    function withdrawRaw(\n        address _receiver,\n        address _bAsset,\n        uint256 _amount\n    )\n        external\n        onlyWhitelisted\n        nonReentrant\n    {\n        require(_amount > 0, \"Must withdraw something\");\n        require(_receiver != address(0), \"Must specify recipient\");\n\n        // Send redeemed bAsset to the receiver\n        IERC20(_bAsset).safeTransfer(_receiver, _amount);\n\n        emit Withdrawal(_bAsset, address(0), _amount);\n    }\n\n    /**\n     * @dev Get the total bAsset value held in the platform\n     *      This includes any interest that was generated since depositing\n     *      Aave gradually increases the balances of all aToken holders, as the interest grows\n     * @param _bAsset     Address of the bAsset\n     * @return balance    Total value of the bAsset in the platform\n     */\n    function checkBalance(address _bAsset)\n        external\n        returns (uint256 balance)\n    {\n        // balance is always with token aToken decimals\n        IAaveATokenV2 aToken = _getATokenFor(_bAsset);\n        return _checkBalance(aToken);\n    }\n\n    /***************************************\n                    APPROVALS\n    ****************************************/\n\n    /**\n     * @dev Re-approve the spending of all bAssets by the Aave lending pool core,\n     *      if for some reason is it necessary for example if the address of core changes.\n     *      Only callable through Governance.\n     */\n    function reApproveAllTokens()\n        external\n        onlyGovernor\n    {\n        uint256 bAssetCount = bAssetsMapped.length;\n        address lendingPoolVault = address(_getLendingPool());\n        // approve the pool to spend the bAsset\n        for(uint i = 0; i < bAssetCount; i++){\n            MixHelpers.safeInfiniteApprove(bAssetsMapped[i], lendingPoolVault);\n        }\n    }\n\n    /**\n     * @dev Internal method to respond to the addition of new bAsset / pTokens\n     *      We need to approve the Aave lending pool core conrtact and give it permission\n     *      to spend the bAsset\n     * @param _bAsset Address of the bAsset to approve\n     */\n    function _abstractSetPToken(address _bAsset, address /*_pToken*/)\n        internal\n    {\n        address lendingPool = address(_getLendingPool());\n        // approve the pool to spend the bAsset\n        MixHelpers.safeInfiniteApprove(_bAsset, lendingPool);\n    }\n\n    /***************************************\n                    HELPERS\n    ****************************************/\n\n    /**\n     * @dev Get the current address of the Aave lending pool, which is the gateway to\n     *      depositing.\n     * @return Current lending pool implementation\n     */\n    function _getLendingPool()\n        internal\n        view\n        returns (IAaveLendingPoolV2)\n    {\n        address lendingPool = ILendingPoolAddressesProviderV2(platformAddress).getLendingPool();\n        require(lendingPool != address(0), \"Lending pool does not exist\");\n        return IAaveLendingPoolV2(lendingPool);\n    }\n\n\n    /**\n     * @dev Get the pToken wrapped in the IAaveAToken interface for this bAsset, to use\n     *      for withdrawing or balance checking. Fails if the pToken doesn't exist in our mappings.\n     * @param _bAsset  Address of the bAsset\n     * @return aToken  Corresponding to this bAsset\n     */\n    function _getATokenFor(address _bAsset)\n        internal\n        view\n        returns (IAaveATokenV2)\n    {\n        address aToken = bAssetToPToken[_bAsset];\n        require(aToken != address(0), \"aToken does not exist\");\n        return IAaveATokenV2(aToken);\n    }\n\n    /**\n     * @dev Get the total bAsset value held in the platform\n     * @param _aToken     aToken for which to check balance\n     * @return balance    Total value of the bAsset in the platform\n     */\n    function _checkBalance(IAaveATokenV2 _aToken)\n        internal\n        view\n        returns (uint256 balance)\n    {\n        return _aToken.balanceOf(address(this));\n    }\n\n}\n",
  "sourcePath": "/Volumes/sdxc/ETHEREUM/CODE/mStable-v1-edit/contracts/mix/platform-integrations/AaveV2Integration.sol",
  "compiler": {
    "name": "solc",
    "version": "0.5.16+commit.9c3226ce.Emscripten.clang"
  },
  "schemaVersion": "3.1.0",
  "updatedAt": "2021-03-11T05:43:15.633Z",
  "devdoc": {
    "author": "Stability Labs Pty. Ltd.",
    "details": "VERSION: 1.0         DATE:    2020-16-11",
    "methods": {
      "approveRewardToken()": {
        "details": "Approves Liquidator to spend reward tokens"
      },
      "checkBalance(address)": {
        "details": "Get the total bAsset value held in the platform     This includes any interest that was generated since depositing     Aave gradually increases the balances of all aToken holders, as the interest grows",
        "params": {
          "_bAsset": "Address of the bAsset"
        },
        "return": "balance    Total value of the bAsset in the platform"
      },
      "deposit(address,uint256,bool)": {
        "details": "Deposit a quantity of bAsset into the platform. Credited aTokens     remain here in the vault. Can only be called by whitelisted addresses     (mIx and corresponding BasketManager)",
        "params": {
          "_amount": "Units of bAsset to deposit",
          "_bAsset": "Address for the bAsset",
          "_hasTxFee": "Is the bAsset known to have a tx fee?"
        },
        "return": "quantityDeposited   Quantity of bAsset that entered the platform"
      },
      "initialize(address,address[],address,address[],address[])": {
        "details": "Initialization function for upgradable proxy contract.     This function should be called via Proxy just after contract deployment.",
        "params": {
          "_bAssets": "Addresses of initial supported bAssets",
          "_nexus": "Address of the Nexus",
          "_pTokens": "Platform Token corresponding addresses",
          "_platformAddress": "Generic platform address",
          "_whitelisted": "Whitelisted addresses for vault access"
        }
      },
      "reApproveAllTokens()": {
        "details": "Re-approve the spending of all bAssets by the Aave lending pool core,     if for some reason is it necessary for example if the address of core changes.     Only callable through Governance."
      },
      "setPTokenAddress(address,address)": {
        "details": "Provide support for bAsset by passing its pToken address. This method can only be called by the system Governor",
        "params": {
          "_bAsset": "Address for the bAsset",
          "_pToken": "Address for the corresponding platform token"
        }
      },
      "withdraw(address,address,uint256,bool)": {
        "details": "Withdraw a quantity of bAsset from the platform",
        "params": {
          "_amount": "Units of bAsset to withdraw",
          "_bAsset": "Address of the bAsset",
          "_hasTxFee": "Is the bAsset known to have a tx fee?",
          "_receiver": "Address to which the bAsset should be sent"
        }
      },
      "withdraw(address,address,uint256,uint256,bool)": {
        "details": "Withdraw a quantity of bAsset from the platform",
        "params": {
          "_amount": "Units of bAsset to send to recipient",
          "_bAsset": "Address of the bAsset",
          "_hasTxFee": "Is the bAsset known to have a tx fee?",
          "_receiver": "Address to which the bAsset should be sent",
          "_totalAmount": "Total units to pull from lending platform"
        }
      },
      "withdrawRaw(address,address,uint256)": {
        "details": "Withdraw a quantity of bAsset from the cache.",
        "params": {
          "_amount": "Units of bAsset to withdraw",
          "_bAsset": "Address of the bAsset",
          "_receiver": "Address to which the bAsset should be sent"
        }
      }
    },
    "title": "AaveV2Integration"
  },
  "userdoc": {
    "methods": {},
    "notice": "A simple connection to deposit and withdraw bAssets from Aave"
  }
}