{
  "contractName": "BoostedSavingsVault",
  "abi": [
    {
      "anonymous": false,
      "inputs": [
        {
          "indexed": true,
          "internalType": "address",
          "name": "user",
          "type": "address"
        }
      ],
      "name": "Poked",
      "type": "event"
    },
    {
      "anonymous": false,
      "inputs": [
        {
          "indexed": false,
          "internalType": "uint256",
          "name": "reward",
          "type": "uint256"
        }
      ],
      "name": "RewardAdded",
      "type": "event"
    },
    {
      "anonymous": false,
      "inputs": [
        {
          "indexed": true,
          "internalType": "address",
          "name": "user",
          "type": "address"
        },
        {
          "indexed": false,
          "internalType": "uint256",
          "name": "reward",
          "type": "uint256"
        }
      ],
      "name": "RewardPaid",
      "type": "event"
    },
    {
      "anonymous": false,
      "inputs": [
        {
          "indexed": true,
          "internalType": "address",
          "name": "user",
          "type": "address"
        },
        {
          "indexed": false,
          "internalType": "uint256",
          "name": "amount",
          "type": "uint256"
        },
        {
          "indexed": false,
          "internalType": "address",
          "name": "payer",
          "type": "address"
        }
      ],
      "name": "Staked",
      "type": "event"
    },
    {
      "anonymous": false,
      "inputs": [
        {
          "indexed": true,
          "internalType": "address",
          "name": "user",
          "type": "address"
        },
        {
          "indexed": false,
          "internalType": "uint256",
          "name": "amount",
          "type": "uint256"
        }
      ],
      "name": "Withdrawn",
      "type": "event"
    },
    {
      "constant": true,
      "inputs": [],
      "name": "DURATION",
      "outputs": [
        {
          "internalType": "uint64",
          "name": "",
          "type": "uint64"
        }
      ],
      "payable": false,
      "stateMutability": "view",
      "type": "function"
    },
    {
      "constant": true,
      "inputs": [],
      "name": "LOCKUP",
      "outputs": [
        {
          "internalType": "uint256",
          "name": "",
          "type": "uint256"
        }
      ],
      "payable": false,
      "stateMutability": "view",
      "type": "function"
    },
    {
      "constant": true,
      "inputs": [],
      "name": "UNLOCK",
      "outputs": [
        {
          "internalType": "uint64",
          "name": "",
          "type": "uint64"
        }
      ],
      "payable": false,
      "stateMutability": "view",
      "type": "function"
    },
    {
      "constant": true,
      "inputs": [
        {
          "internalType": "address",
          "name": "_account",
          "type": "address"
        }
      ],
      "name": "balanceOf",
      "outputs": [
        {
          "internalType": "uint256",
          "name": "",
          "type": "uint256"
        }
      ],
      "payable": false,
      "stateMutability": "view",
      "type": "function"
    },
    {
      "constant": true,
      "inputs": [
        {
          "internalType": "address",
          "name": "_account",
          "type": "address"
        }
      ],
      "name": "getBoost",
      "outputs": [
        {
          "internalType": "uint256",
          "name": "",
          "type": "uint256"
        }
      ],
      "payable": false,
      "stateMutability": "view",
      "type": "function"
    },
    {
      "constant": true,
      "inputs": [],
      "name": "lastUpdateTime",
      "outputs": [
        {
          "internalType": "uint256",
          "name": "",
          "type": "uint256"
        }
      ],
      "payable": false,
      "stateMutability": "view",
      "type": "function"
    },
    {
      "constant": true,
      "inputs": [],
      "name": "nexus",
      "outputs": [
        {
          "internalType": "contract INexus",
          "name": "",
          "type": "address"
        }
      ],
      "payable": false,
      "stateMutability": "view",
      "type": "function"
    },
    {
      "constant": true,
      "inputs": [],
      "name": "periodFinish",
      "outputs": [
        {
          "internalType": "uint256",
          "name": "",
          "type": "uint256"
        }
      ],
      "payable": false,
      "stateMutability": "view",
      "type": "function"
    },
    {
      "constant": true,
      "inputs": [
        {
          "internalType": "address",
          "name": "_account",
          "type": "address"
        }
      ],
      "name": "rawBalanceOf",
      "outputs": [
        {
          "internalType": "uint256",
          "name": "",
          "type": "uint256"
        }
      ],
      "payable": false,
      "stateMutability": "view",
      "type": "function"
    },
    {
      "constant": true,
      "inputs": [],
      "name": "rewardPerTokenStored",
      "outputs": [
        {
          "internalType": "uint256",
          "name": "",
          "type": "uint256"
        }
      ],
      "payable": false,
      "stateMutability": "view",
      "type": "function"
    },
    {
      "constant": true,
      "inputs": [],
      "name": "rewardRate",
      "outputs": [
        {
          "internalType": "uint256",
          "name": "",
          "type": "uint256"
        }
      ],
      "payable": false,
      "stateMutability": "view",
      "type": "function"
    },
    {
      "constant": true,
      "inputs": [],
      "name": "rewardsDistributor",
      "outputs": [
        {
          "internalType": "address",
          "name": "",
          "type": "address"
        }
      ],
      "payable": false,
      "stateMutability": "view",
      "type": "function"
    },
    {
      "constant": true,
      "inputs": [],
      "name": "rewardsToken",
      "outputs": [
        {
          "internalType": "contract IERC20",
          "name": "",
          "type": "address"
        }
      ],
      "payable": false,
      "stateMutability": "view",
      "type": "function"
    },
    {
      "constant": false,
      "inputs": [
        {
          "internalType": "address",
          "name": "_rewardsDistributor",
          "type": "address"
        }
      ],
      "name": "setRewardsDistribution",
      "outputs": [],
      "payable": false,
      "stateMutability": "nonpayable",
      "type": "function"
    },
    {
      "constant": true,
      "inputs": [],
      "name": "stakingContract",
      "outputs": [
        {
          "internalType": "contract IIncentivisedVotingLockup",
          "name": "",
          "type": "address"
        }
      ],
      "payable": false,
      "stateMutability": "view",
      "type": "function"
    },
    {
      "constant": true,
      "inputs": [],
      "name": "stakingToken",
      "outputs": [
        {
          "internalType": "contract IERC20",
          "name": "",
          "type": "address"
        }
      ],
      "payable": false,
      "stateMutability": "view",
      "type": "function"
    },
    {
      "constant": true,
      "inputs": [],
      "name": "totalSupply",
      "outputs": [
        {
          "internalType": "uint256",
          "name": "",
          "type": "uint256"
        }
      ],
      "payable": false,
      "stateMutability": "view",
      "type": "function"
    },
    {
      "constant": true,
      "inputs": [
        {
          "internalType": "address",
          "name": "",
          "type": "address"
        }
      ],
      "name": "userClaim",
      "outputs": [
        {
          "internalType": "uint64",
          "name": "",
          "type": "uint64"
        }
      ],
      "payable": false,
      "stateMutability": "view",
      "type": "function"
    },
    {
      "constant": true,
      "inputs": [
        {
          "internalType": "address",
          "name": "",
          "type": "address"
        }
      ],
      "name": "userData",
      "outputs": [
        {
          "internalType": "uint128",
          "name": "rewardPerTokenPaid",
          "type": "uint128"
        },
        {
          "internalType": "uint128",
          "name": "rewards",
          "type": "uint128"
        },
        {
          "internalType": "uint64",
          "name": "lastAction",
          "type": "uint64"
        },
        {
          "internalType": "uint64",
          "name": "rewardCount",
          "type": "uint64"
        }
      ],
      "payable": false,
      "stateMutability": "view",
      "type": "function"
    },
    {
      "constant": true,
      "inputs": [
        {
          "internalType": "address",
          "name": "",
          "type": "address"
        },
        {
          "internalType": "uint256",
          "name": "",
          "type": "uint256"
        }
      ],
      "name": "userRewards",
      "outputs": [
        {
          "internalType": "uint64",
          "name": "start",
          "type": "uint64"
        },
        {
          "internalType": "uint64",
          "name": "finish",
          "type": "uint64"
        },
        {
          "internalType": "uint128",
          "name": "rate",
          "type": "uint128"
        }
      ],
      "payable": false,
      "stateMutability": "view",
      "type": "function"
    },
    {
      "constant": false,
      "inputs": [
        {
          "internalType": "address",
          "name": "_nexus",
          "type": "address"
        },
        {
          "internalType": "address",
          "name": "_stakingToken",
          "type": "address"
        },
        {
          "internalType": "address",
          "name": "_stakingContract",
          "type": "address"
        },
        {
          "internalType": "address",
          "name": "_rewardsToken",
          "type": "address"
        },
        {
          "internalType": "address",
          "name": "_rewardsDistributor",
          "type": "address"
        }
      ],
      "name": "initialize",
      "outputs": [],
      "payable": false,
      "stateMutability": "nonpayable",
      "type": "function"
    },
    {
      "constant": false,
      "inputs": [
        {
          "internalType": "address",
          "name": "_beneficiary",
          "type": "address"
        },
        {
          "internalType": "uint256",
          "name": "_amount",
          "type": "uint256"
        }
      ],
      "name": "stake",
      "outputs": [],
      "payable": false,
      "stateMutability": "nonpayable",
      "type": "function"
    },
    {
      "constant": false,
      "inputs": [
        {
          "internalType": "uint256",
          "name": "_amount",
          "type": "uint256"
        }
      ],
      "name": "stake",
      "outputs": [],
      "payable": false,
      "stateMutability": "nonpayable",
      "type": "function"
    },
    {
      "constant": false,
      "inputs": [
        {
          "internalType": "uint256",
          "name": "_first",
          "type": "uint256"
        },
        {
          "internalType": "uint256",
          "name": "_last",
          "type": "uint256"
        }
      ],
      "name": "exit",
      "outputs": [],
      "payable": false,
      "stateMutability": "nonpayable",
      "type": "function"
    },
    {
      "constant": false,
      "inputs": [],
      "name": "exit",
      "outputs": [],
      "payable": false,
      "stateMutability": "nonpayable",
      "type": "function"
    },
    {
      "constant": false,
      "inputs": [
        {
          "internalType": "uint256",
          "name": "_amount",
          "type": "uint256"
        }
      ],
      "name": "withdraw",
      "outputs": [],
      "payable": false,
      "stateMutability": "nonpayable",
      "type": "function"
    },
    {
      "constant": false,
      "inputs": [],
      "name": "claimReward",
      "outputs": [],
      "payable": false,
      "stateMutability": "nonpayable",
      "type": "function"
    },
    {
      "constant": false,
      "inputs": [],
      "name": "claimRewards",
      "outputs": [],
      "payable": false,
      "stateMutability": "nonpayable",
      "type": "function"
    },
    {
      "constant": false,
      "inputs": [
        {
          "internalType": "uint256",
          "name": "_first",
          "type": "uint256"
        },
        {
          "internalType": "uint256",
          "name": "_last",
          "type": "uint256"
        }
      ],
      "name": "claimRewards",
      "outputs": [],
      "payable": false,
      "stateMutability": "nonpayable",
      "type": "function"
    },
    {
      "constant": false,
      "inputs": [
        {
          "internalType": "address",
          "name": "_account",
          "type": "address"
        }
      ],
      "name": "pokeBoost",
      "outputs": [],
      "payable": false,
      "stateMutability": "nonpayable",
      "type": "function"
    },
    {
      "constant": true,
      "inputs": [],
      "name": "getRewardToken",
      "outputs": [
        {
          "internalType": "contract IERC20",
          "name": "",
          "type": "address"
        }
      ],
      "payable": false,
      "stateMutability": "view",
      "type": "function"
    },
    {
      "constant": true,
      "inputs": [],
      "name": "lastTimeRewardApplicable",
      "outputs": [
        {
          "internalType": "uint256",
          "name": "",
          "type": "uint256"
        }
      ],
      "payable": false,
      "stateMutability": "view",
      "type": "function"
    },
    {
      "constant": true,
      "inputs": [],
      "name": "rewardPerToken",
      "outputs": [
        {
          "internalType": "uint256",
          "name": "",
          "type": "uint256"
        }
      ],
      "payable": false,
      "stateMutability": "view",
      "type": "function"
    },
    {
      "constant": true,
      "inputs": [
        {
          "internalType": "address",
          "name": "_account",
          "type": "address"
        }
      ],
      "name": "earned",
      "outputs": [
        {
          "internalType": "uint256",
          "name": "",
          "type": "uint256"
        }
      ],
      "payable": false,
      "stateMutability": "view",
      "type": "function"
    },
    {
      "constant": true,
      "inputs": [
        {
          "internalType": "address",
          "name": "_account",
          "type": "address"
        }
      ],
      "name": "unclaimedRewards",
      "outputs": [
        {
          "internalType": "uint256",
          "name": "amount",
          "type": "uint256"
        },
        {
          "internalType": "uint256",
          "name": "first",
          "type": "uint256"
        },
        {
          "internalType": "uint256",
          "name": "last",
          "type": "uint256"
        }
      ],
      "payable": false,
      "stateMutability": "view",
      "type": "function"
    },
    {
      "constant": false,
      "inputs": [
        {
          "internalType": "uint256",
          "name": "_reward",
          "type": "uint256"
        }
      ],
      "name": "notifyRewardAmount",
      "outputs": [],
      "payable": false,
      "stateMutability": "nonpayable",
      "type": "function"
    }
  ],
  "bytecode": "0x608060405234801561001057600080fd5b5061509b806100206000396000f3fe608060405234801561001057600080fd5b506004361061021b5760003560e01c806372f702f311610125578063c8910913116100ad578063d1af0c7d1161007c578063d1af0c7d146105fb578063df136d6514610603578063e9fad8ee1461060b578063ebe2b12b14610613578063ee99205c1461061b5761021b565b8063c891091314610564578063c8f33c91146105c5578063cd3daf9d146105cd578063cf7bf6b7146105d55761021b565b8063949813b8116100f4578063949813b8146104c7578063a3f5c1d21461050b578063a694fc3a14610513578063adc9772e14610530578063b88a802f1461055c5761021b565b806372f702f3146104a75780637b0a47ee146104af57806380faa57d146104b7578063845aef4b146104bf5761021b565b8063372500ab116101a8578063594dd43211610177578063594dd432146103d157806363c2a20a146103f457806367ba3d901461045357806369940d791461047957806370a08231146104815761021b565b8063372500ab146103805780633c6b16ab146103885780633f2a5540146103a5578063523993da146103c95761021b565b806318160ddd116101ef57806318160ddd1461030a57806319762143146103125780631be05289146103385780632af9cc41146103405780632e1a7d4d146103635761021b565b80628cc262146102205780630a6b433f1461025857806312064c341461029a5780631459457a146102c0575b600080fd5b6102466004803603602081101561023657600080fd5b50356001600160a01b0316610623565b60408051918252519081900360200190f35b61027e6004803603602081101561026e57600080fd5b50356001600160a01b03166106b7565b604080516001600160401b039092168252519081900360200190f35b610246600480360360208110156102b057600080fd5b50356001600160a01b03166106d2565b610308600480360360a08110156102d657600080fd5b506001600160a01b038135811691602081013582169160408201358116916060810135821691608090910135166106ed565b005b6102466107c3565b6103086004803603602081101561032857600080fd5b50356001600160a01b03166107c9565b61027e610858565b6103086004803603604081101561035657600080fd5b508035906020013561085f565b6103086004803603602081101561037957600080fd5b5035610d39565b6103086111e9565b6103086004803603602081101561039e57600080fd5b50356116a3565b6103ad611cb5565b604080516001600160a01b039092168252519081900360200190f35b61027e611cc4565b610308600480360360408110156103e757600080fd5b5080359060200135611cd0565b6104206004803603604081101561040a57600080fd5b506001600160a01b03813516906020013561216f565b604080516001600160401b0394851681529290931660208301526001600160801b03168183015290519081900360600190f35b6102466004803603602081101561046957600080fd5b50356001600160a01b03166121be565b6103ad6121e7565b6102466004803603602081101561049757600080fd5b50356001600160a01b03166121f6565b6103ad612211565b610246612220565b610246612226565b610246612239565b6104ed600480360360208110156104dd57600080fd5b50356001600160a01b0316612240565b60408051938452602084019290925282820152519081900360600190f35b6103ad612286565b6103086004803603602081101561052957600080fd5b5035612295565b6103086004803603604081101561054657600080fd5b506001600160a01b038135169060200135612734565b610308612bd3565b61058a6004803603602081101561057a57600080fd5b50356001600160a01b03166130f2565b604080516001600160801b0395861681529390941660208401526001600160401b039182168385015216606082015290519081900360800190f35b610246613134565b61024661313a565b610308600480360360208110156105eb57600080fd5b50356001600160a01b031661314c565b6103ad61361f565b61024661362e565b610308613634565b610246613ae1565b6103ad613ae7565b6001600160a01b0381166000908152603f6020526040812054819061065a9084906001600160801b031661065561313a565b613af6565b90506000610676826702c68af0bb14000063ffffffff613b4116565b6001600160a01b0385166000908152603f60205260409020549091506106ad908290600160801b90046001600160801b0316613b56565b925050505b919050565b6041602052600090815260409020546001600160401b031681565b6001600160a01b031660009081526039602052604090205490565b600054610100900460ff16806107065750610706613bb0565b80610714575060005460ff16155b61074f5760405162461bcd60e51b815260040180806020018281038252602e81526020018061500f602e913960400191505060405180910390fd5b600054610100900460ff1615801561077a576000805460ff1961ff0019909116610100171660011790555b6107848683613bb6565b61078e8585613be2565b603a80546001600160a01b0319166001600160a01b03851617905580156107bb576000805461ff00191690555b505050505050565b60375490565b6107d1613c1e565b6001600160a01b0316336001600160a01b031614610836576040805162461bcd60e51b815260206004820152601960248201527f4f6e6c7920676f7665726e6f722063616e206578656375746500000000000000604482015290519081900360640190fd5b603480546001600160a01b0319166001600160a01b0392909216919091179055565b62093a8081565b3342600061086c82613c94565b9050600080610879613cdc565b90925090508115610cc657603e829055603d8190556001600160a01b03851615610cc1576108a5614eff565b506001600160a01b0385166000908152603f60209081526040808320815160808101835281546001600160801b03808216808452600160801b90920416948201949094526001909101546001600160401b0380821693830193909352600160401b90049091166060820152919061091e90889086613af6565b90508015610bec576000610940826702c68af0bb14000063ffffffff613b4116565b90506000610954838363ffffffff613d9116565b9050604060008a6001600160a01b03166001600160a01b0316815260200190815260200160002060405180606001604052806109b16109ac88604001516001600160401b031662eff100613b5690919063ffffffff16565b613c94565b6001600160401b031681526020016109d56109ac62eff1008d63ffffffff613b5616565b6001600160401b03168152602001610a1b610a16610a0989604001516001600160401b03168e613d9190919063ffffffff16565b869063ffffffff613dd316565b613e15565b6001600160801b0390811690915282546001810184556000938452602093849020835191018054948401516040948501518416600160801b026001600160401b03918216600160401b02600160401b600160801b0319929094166001600160401b03199097169690961716919091179091169290921790915580516080810190915280610aa788613e15565b6001600160801b03168152602001610ad8610a1687602001516001600160801b031686613b5690919063ffffffff16565b6001600160801b03168152602001886001600160401b0316815260200185606001516001016001600160401b0316815250603f60008b6001600160a01b03166001600160a01b0316815260200190815260200160002060008201518160000160006101000a8154816001600160801b0302191690836001600160801b0316021790555060208201518160000160106101000a8154816001600160801b0302191690836001600160801b0316021790555060408201518160010160006101000a8154816001600160401b0302191690836001600160401b0316021790555060608201518160010160086101000a8154816001600160401b0302191690836001600160401b031602179055509050505050610cbe565b6040518060800160405280610c0086613e15565b6001600160801b0390811682526020858101518216818401526001600160401b03808a166040808601919091526060808901518316958101959095526001600160a01b038d166000908152603f845281902086518154948801518616600160801b029086166001600160801b031990951694909417909416929092178355908401516001909201805494909301518116600160401b02600160401b600160801b0319929091166001600160401b031990941693909317169190911790555b50505b610d0a565b6001600160a01b03851615610d0a576001600160a01b0385166000908152603f6020526040902060010180546001600160401b0319166001600160401b0385161790555b33610d1c610d17336106d2565b613e59565b610d268888613ee4565b610d2f81613fb1565b5050505050505050565b33426000610d4682613c94565b9050600080610d53613cdc565b9092509050811561118957603e829055603d8190556001600160a01b0385161561118457610d7f614eff565b506001600160a01b0385166000908152603f60209081526040808320815160808101835281546001600160801b03808216808452600160801b90920416948201949094526001909101546001600160401b0380821693830193909352600160401b900490911660608201529190610df890889086613af6565b905080156110af576000610e1a826702c68af0bb14000063ffffffff613b4116565b90506000610e2e838363ffffffff613d9116565b9050604060008a6001600160a01b03166001600160a01b031681526020019081526020016000206040518060600160405280610e866109ac88604001516001600160401b031662eff100613b5690919063ffffffff16565b6001600160401b03168152602001610eaa6109ac62eff1008d63ffffffff613b5616565b6001600160401b03168152602001610ede610a16610a0989604001516001600160401b03168e613d9190919063ffffffff16565b6001600160801b0390811690915282546001810184556000938452602093849020835191018054948401516040948501518416600160801b026001600160401b03918216600160401b02600160401b600160801b0319929094166001600160401b03199097169690961716919091179091169290921790915580516080810190915280610f6a88613e15565b6001600160801b03168152602001610f9b610a1687602001516001600160801b031686613b5690919063ffffffff16565b6001600160801b03168152602001886001600160401b0316815260200185606001516001016001600160401b0316815250603f60008b6001600160a01b03166001600160a01b0316815260200190815260200160002060008201518160000160006101000a8154816001600160801b0302191690836001600160801b0316021790555060208201518160000160106101000a8154816001600160801b0302191690836001600160801b0316021790555060408201518160010160006101000a8154816001600160401b0302191690836001600160401b0316021790555060608201518160010160086101000a8154816001600160401b0302191690836001600160401b031602179055509050505050611181565b60405180608001604052806110c386613e15565b6001600160801b0390811682526020858101518216818401526001600160401b03808a166040808601919091526060808901518316958101959095526001600160a01b038d166000908152603f845281902086518154948801518616600160801b029086166001600160801b031990951694909417909416929092178355908401516001909201805494909301518116600160401b02600160401b600160801b0319929091166001600160401b031990941693909317169190911790555b50505b6111cd565b6001600160a01b038516156111cd576001600160a01b0385166000908152603f6020526040902060010180546001600160401b0319166001600160401b0385161790555b336111d787613e59565b6111e081613fb1565b50505050505050565b334260006111f682613c94565b9050600080611203613cdc565b9092509050811561163957603e829055603d8190556001600160a01b038516156116345761122f614eff565b506001600160a01b0385166000908152603f60209081526040808320815160808101835281546001600160801b03808216808452600160801b90920416948201949094526001909101546001600160401b0380821693830193909352600160401b9004909116606082015291906112a890889086613af6565b9050801561155f5760006112ca826702c68af0bb14000063ffffffff613b4116565b905060006112de838363ffffffff613d9116565b9050604060008a6001600160a01b03166001600160a01b0316815260200190815260200160002060405180606001604052806113366109ac88604001516001600160401b031662eff100613b5690919063ffffffff16565b6001600160401b0316815260200161135a6109ac62eff1008d63ffffffff613b5616565b6001600160401b0316815260200161138e610a16610a0989604001516001600160401b03168e613d9190919063ffffffff16565b6001600160801b0390811690915282546001810184556000938452602093849020835191018054948401516040948501518416600160801b026001600160401b03918216600160401b02600160401b600160801b0319929094166001600160401b0319909716969096171691909117909116929092179091558051608081019091528061141a88613e15565b6001600160801b0316815260200161144b610a1687602001516001600160801b031686613b5690919063ffffffff16565b6001600160801b03168152602001886001600160401b0316815260200185606001516001016001600160401b0316815250603f60008b6001600160a01b03166001600160a01b0316815260200190815260200160002060008201518160000160006101000a8154816001600160801b0302191690836001600160801b0316021790555060208201518160000160106101000a8154816001600160801b0302191690836001600160801b0316021790555060408201518160010160006101000a8154816001600160401b0302191690836001600160401b0316021790555060608201518160010160086101000a8154816001600160401b0302191690836001600160401b031602179055509050505050611631565b604051806080016040528061157386613e15565b6001600160801b0390811682526020858101518216818401526001600160401b03808a166040808601919091526060808901518316958101959095526001600160a01b038d166000908152603f845281902086518154948801518616600160801b029086166001600160801b031990951694909417909416929092178355908401516001909201805494909301518116600160401b02600160401b600160801b0319929091166001600160401b031990941693909317169190911790555b50505b61167d565b6001600160a01b0385161561167d576001600160a01b0385166000908152603f6020526040902060010180546001600160401b0319166001600160401b0385161790555b3360008061168a336140e1565b915091506116988282613ee4565b50506107bb81613fb1565b6034546001600160a01b03163314611702576040805162461bcd60e51b815260206004820181905260248201527f43616c6c6572206973206e6f7420726577617264206469737472696275746f72604482015290519081900360640190fd5b6000428161170f82613c94565b905060008061171c613cdc565b90925090508115611b5257603e829055603d8190556001600160a01b03851615611b4d57611748614eff565b506001600160a01b0385166000908152603f60209081526040808320815160808101835281546001600160801b03808216808452600160801b90920416948201949094526001909101546001600160401b0380821693830193909352600160401b9004909116606082015291906117c190889086613af6565b90508015611a785760006117e3826702c68af0bb14000063ffffffff613b4116565b905060006117f7838363ffffffff613d9116565b9050604060008a6001600160a01b03166001600160a01b03168152602001908152602001600020604051806060016040528061184f6109ac88604001516001600160401b031662eff100613b5690919063ffffffff16565b6001600160401b031681526020016118736109ac62eff1008d63ffffffff613b5616565b6001600160401b031681526020016118a7610a16610a0989604001516001600160401b03168e613d9190919063ffffffff16565b6001600160801b0390811690915282546001810184556000938452602093849020835191018054948401516040948501518416600160801b026001600160401b03918216600160401b02600160401b600160801b0319929094166001600160401b0319909716969096171691909117909116929092179091558051608081019091528061193388613e15565b6001600160801b03168152602001611964610a1687602001516001600160801b031686613b5690919063ffffffff16565b6001600160801b03168152602001886001600160401b0316815260200185606001516001016001600160401b0316815250603f60008b6001600160a01b03166001600160a01b0316815260200190815260200160002060008201518160000160006101000a8154816001600160801b0302191690836001600160801b0316021790555060208201518160000160106101000a8154816001600160801b0302191690836001600160801b0316021790555060408201518160010160006101000a8154816001600160401b0302191690836001600160401b0316021790555060608201518160010160086101000a8154816001600160401b0302191690836001600160401b031602179055509050505050611b4a565b6040518060800160405280611a8c86613e15565b6001600160801b0390811682526020858101518216818401526001600160401b03808a166040808601919091526060808901518316958101959095526001600160a01b038d166000908152603f845281902086518154948801518616600160801b029086166001600160801b031990951694909417909416929092178355908401516001909201805494909301518116600160401b02600160401b600160801b0319929091166001600160401b031990941693909317169190911790555b50505b611b96565b6001600160a01b03851615611b96576001600160a01b0385166000908152603f6020526040902060010180546001600160401b0319166001600160401b0385161790555b69d3c21bcecceda10000008610611bde5760405162461bcd60e51b815260040180806020018281038252602c815260200180614f47602c913960400191505060405180910390fd5b603b5442908110611c0457611bfc8762093a8063ffffffff613dd316565b603c55611c5e565b603b54600090611c1a908363ffffffff613d9116565b90506000611c33603c548361412a90919063ffffffff16565b9050611c5862093a80611c4c8b8463ffffffff613b5616565b9063ffffffff613dd316565b603c5550505b603d819055611c768162093a8063ffffffff613b5616565b603b556040805188815290517fde88a922e0d3b88b24e9623efeb464919c6bf9f66857a65e2bfcf2ce87a9433d9181900360200190a150505050505050565b6034546001600160a01b031681565b6702c68af0bb14000081565b33426000611cdd82613c94565b9050600080611cea613cdc565b9092509050811561212057603e829055603d8190556001600160a01b0385161561211b57611d16614eff565b506001600160a01b0385166000908152603f60209081526040808320815160808101835281546001600160801b03808216808452600160801b90920416948201949094526001909101546001600160401b0380821693830193909352600160401b900490911660608201529190611d8f90889086613af6565b90508015612046576000611db1826702c68af0bb14000063ffffffff613b4116565b90506000611dc5838363ffffffff613d9116565b9050604060008a6001600160a01b03166001600160a01b031681526020019081526020016000206040518060600160405280611e1d6109ac88604001516001600160401b031662eff100613b5690919063ffffffff16565b6001600160401b03168152602001611e416109ac62eff1008d63ffffffff613b5616565b6001600160401b03168152602001611e75610a16610a0989604001516001600160401b03168e613d9190919063ffffffff16565b6001600160801b0390811690915282546001810184556000938452602093849020835191018054948401516040948501518416600160801b026001600160401b03918216600160401b02600160401b600160801b0319929094166001600160401b03199097169690961716919091179091169290921790915580516080810190915280611f0188613e15565b6001600160801b03168152602001611f32610a1687602001516001600160801b031686613b5690919063ffffffff16565b6001600160801b03168152602001886001600160401b0316815260200185606001516001016001600160401b0316815250603f60008b6001600160a01b03166001600160a01b0316815260200190815260200160002060008201518160000160006101000a8154816001600160801b0302191690836001600160801b0316021790555060208201518160000160106101000a8154816001600160801b0302191690836001600160801b0316021790555060408201518160010160006101000a8154816001600160401b0302191690836001600160401b0316021790555060608201518160010160086101000a8154816001600160401b0302191690836001600160401b031602179055509050505050612118565b604051806080016040528061205a86613e15565b6001600160801b0390811682526020858101518216818401526001600160401b03808a166040808601919091526060808901518316958101959095526001600160a01b038d166000908152603f845281902086518154948801518616600160801b029086166001600160801b031990951694909417909416929092178355908401516001909201805494909301518116600160401b02600160401b600160801b0319929091166001600160401b031990941693909317169190911790555b50505b612164565b6001600160a01b03851615612164576001600160a01b0385166000908152603f6020526040902060010180546001600160401b0319166001600160401b0385161790555b33610d268888613ee4565b6040602052816000526040600020818154811061218857fe5b6000918252602090912001546001600160401b038082169350600160401b8204169150600160801b90046001600160801b031683565b60006121e16121cc836106d2565b6121d5846121f6565b9063ffffffff61418316565b92915050565b603a546001600160a01b031690565b6001600160a01b031660009081526038602052604090205490565b6035546001600160a01b031681565b603c5481565b600061223442603b546141b8565b905090565b62eff10081565b600080600061224e846140e1565b909250905060006122608584846141cd565b50905061227c61226f86610623565b829063ffffffff613b5616565b9350509193909250565b6033546001600160a01b031681565b334260006122a282613c94565b90506000806122af613cdc565b909250905081156126e557603e829055603d8190556001600160a01b038516156126e0576122db614eff565b506001600160a01b0385166000908152603f60209081526040808320815160808101835281546001600160801b03808216808452600160801b90920416948201949094526001909101546001600160401b0380821693830193909352600160401b90049091166060820152919061235490889086613af6565b9050801561260b576000612376826702c68af0bb14000063ffffffff613b4116565b9050600061238a838363ffffffff613d9116565b9050604060008a6001600160a01b03166001600160a01b0316815260200190815260200160002060405180606001604052806123e26109ac88604001516001600160401b031662eff100613b5690919063ffffffff16565b6001600160401b031681526020016124066109ac62eff1008d63ffffffff613b5616565b6001600160401b0316815260200161243a610a16610a0989604001516001600160401b03168e613d9190919063ffffffff16565b6001600160801b0390811690915282546001810184556000938452602093849020835191018054948401516040948501518416600160801b026001600160401b03918216600160401b02600160401b600160801b0319929094166001600160401b031990971696909617169190911790911692909217909155805160808101909152806124c688613e15565b6001600160801b031681526020016124f7610a1687602001516001600160801b031686613b5690919063ffffffff16565b6001600160801b03168152602001886001600160401b0316815260200185606001516001016001600160401b0316815250603f60008b6001600160a01b03166001600160a01b0316815260200190815260200160002060008201518160000160006101000a8154816001600160801b0302191690836001600160801b0316021790555060208201518160000160106101000a8154816001600160801b0302191690836001600160801b0316021790555060408201518160010160006101000a8154816001600160401b0302191690836001600160401b0316021790555060608201518160010160086101000a8154816001600160401b0302191690836001600160401b0316021790555090505050506126dd565b604051806080016040528061261f86613e15565b6001600160801b0390811682526020858101518216818401526001600160401b03808a166040808601919091526060808901518316958101959095526001600160a01b038d166000908152603f845281902086518154948801518616600160801b029086166001600160801b031990951694909417909416929092178355908401516001909201805494909301518116600160401b02600160401b600160801b0319929091166001600160401b031990941693909317169190911790555b50505b612729565b6001600160a01b03851615612729576001600160a01b0385166000908152603f6020526040902060010180546001600160401b0319166001600160401b0385161790555b336111d7338861450a565b8142600061274182613c94565b905060008061274e613cdc565b90925090508115612b8457603e829055603d8190556001600160a01b03851615612b7f5761277a614eff565b506001600160a01b0385166000908152603f60209081526040808320815160808101835281546001600160801b03808216808452600160801b90920416948201949094526001909101546001600160401b0380821693830193909352600160401b9004909116606082015291906127f390889086613af6565b90508015612aaa576000612815826702c68af0bb14000063ffffffff613b4116565b90506000612829838363ffffffff613d9116565b9050604060008a6001600160a01b03166001600160a01b0316815260200190815260200160002060405180606001604052806128816109ac88604001516001600160401b031662eff100613b5690919063ffffffff16565b6001600160401b031681526020016128a56109ac62eff1008d63ffffffff613b5616565b6001600160401b031681526020016128d9610a16610a0989604001516001600160401b03168e613d9190919063ffffffff16565b6001600160801b0390811690915282546001810184556000938452602093849020835191018054948401516040948501518416600160801b026001600160401b03918216600160401b02600160401b600160801b0319929094166001600160401b0319909716969096171691909117909116929092179091558051608081019091528061296588613e15565b6001600160801b03168152602001612996610a1687602001516001600160801b031686613b5690919063ffffffff16565b6001600160801b03168152602001886001600160401b0316815260200185606001516001016001600160401b0316815250603f60008b6001600160a01b03166001600160a01b0316815260200190815260200160002060008201518160000160006101000a8154816001600160801b0302191690836001600160801b0316021790555060208201518160000160106101000a8154816001600160801b0302191690836001600160801b0316021790555060408201518160010160006101000a8154816001600160401b0302191690836001600160401b0316021790555060608201518160010160086101000a8154816001600160401b0302191690836001600160401b031602179055509050505050612b7c565b6040518060800160405280612abe86613e15565b6001600160801b0390811682526020858101518216818401526001600160401b03808a166040808601919091526060808901518316958101959095526001600160a01b038d166000908152603f845281902086518154948801518616600160801b029086166001600160801b031990951694909417909416929092178355908401516001909201805494909301518116600160401b02600160401b600160801b0319929091166001600160401b031990941693909317169190911790555b50505b612bc8565b6001600160a01b03851615612bc8576001600160a01b0385166000908152603f6020526040902060010180546001600160401b0319166001600160401b0385161790555b86610d26888861450a565b33426000612be082613c94565b9050600080612bed613cdc565b9092509050811561302357603e829055603d8190556001600160a01b0385161561301e57612c19614eff565b506001600160a01b0385166000908152603f60209081526040808320815160808101835281546001600160801b03808216808452600160801b90920416948201949094526001909101546001600160401b0380821693830193909352600160401b900490911660608201529190612c9290889086613af6565b90508015612f49576000612cb4826702c68af0bb14000063ffffffff613b4116565b90506000612cc8838363ffffffff613d9116565b9050604060008a6001600160a01b03166001600160a01b031681526020019081526020016000206040518060600160405280612d206109ac88604001516001600160401b031662eff100613b5690919063ffffffff16565b6001600160401b03168152602001612d446109ac62eff1008d63ffffffff613b5616565b6001600160401b03168152602001612d78610a16610a0989604001516001600160401b03168e613d9190919063ffffffff16565b6001600160801b0390811690915282546001810184556000938452602093849020835191018054948401516040948501518416600160801b026001600160401b03918216600160401b02600160401b600160801b0319929094166001600160401b03199097169690961716919091179091169290921790915580516080810190915280612e0488613e15565b6001600160801b03168152602001612e35610a1687602001516001600160801b031686613b5690919063ffffffff16565b6001600160801b03168152602001886001600160401b0316815260200185606001516001016001600160401b0316815250603f60008b6001600160a01b03166001600160a01b0316815260200190815260200160002060008201518160000160006101000a8154816001600160801b0302191690836001600160801b0316021790555060208201518160000160106101000a8154816001600160801b0302191690836001600160801b0316021790555060408201518160010160006101000a8154816001600160401b0302191690836001600160401b0316021790555060608201518160010160086101000a8154816001600160401b0302191690836001600160401b03160217905550905050505061301b565b6040518060800160405280612f5d86613e15565b6001600160801b0390811682526020858101518216818401526001600160401b03808a166040808601919091526060808901518316958101959095526001600160a01b038d166000908152603f845281902086518154948801518616600160801b029086166001600160801b031990951694909417909416929092178355908401516001909201805494909301518116600160401b02600160401b600160801b0319929091166001600160401b031990941693909317169190911790555b50505b613067565b6001600160a01b03851615613067576001600160a01b0385166000908152603f6020526040902060010180546001600160401b0319166001600160401b0385161790555b336000818152603f6020526040902080546001600160801b03808216909255600160801b90041680156130e857603a546130b1906001600160a01b0316338363ffffffff6145fb16565b60408051828152905133917fe2403640ba68fed3a2f88b7557551d1993f84b99bb10ff833f0cf8db0c5e0486919081900360200190a25b506107bb81613fb1565b603f60205260009081526040902080546001909101546001600160801b0380831692600160801b900416906001600160401b0380821691600160401b90041684565b603d5481565b600080613145613cdc565b5091505090565b8042600061315982613c94565b9050600080613166613cdc565b9092509050811561359c57603e829055603d8190556001600160a01b0385161561359757613192614eff565b506001600160a01b0385166000908152603f60209081526040808320815160808101835281546001600160801b03808216808452600160801b90920416948201949094526001909101546001600160401b0380821693830193909352600160401b90049091166060820152919061320b90889086613af6565b905080156134c257600061322d826702c68af0bb14000063ffffffff613b4116565b90506000613241838363ffffffff613d9116565b9050604060008a6001600160a01b03166001600160a01b0316815260200190815260200160002060405180606001604052806132996109ac88604001516001600160401b031662eff100613b5690919063ffffffff16565b6001600160401b031681526020016132bd6109ac62eff1008d63ffffffff613b5616565b6001600160401b031681526020016132f1610a16610a0989604001516001600160401b03168e613d9190919063ffffffff16565b6001600160801b0390811690915282546001810184556000938452602093849020835191018054948401516040948501518416600160801b026001600160401b03918216600160401b02600160401b600160801b0319929094166001600160401b0319909716969096171691909117909116929092179091558051608081019091528061337d88613e15565b6001600160801b031681526020016133ae610a1687602001516001600160801b031686613b5690919063ffffffff16565b6001600160801b03168152602001886001600160401b0316815260200185606001516001016001600160401b0316815250603f60008b6001600160a01b03166001600160a01b0316815260200190815260200160002060008201518160000160006101000a8154816001600160801b0302191690836001600160801b0316021790555060208201518160000160106101000a8154816001600160801b0302191690836001600160801b0316021790555060408201518160010160006101000a8154816001600160401b0302191690836001600160401b0316021790555060608201518160010160086101000a8154816001600160401b0302191690836001600160401b031602179055509050505050613594565b60405180608001604052806134d686613e15565b6001600160801b0390811682526020858101518216818401526001600160401b03808a166040808601919091526060808901518316958101959095526001600160a01b038d166000908152603f845281902086518154948801518616600160801b029086166001600160801b031990951694909417909416929092178355908401516001909201805494909301518116600160401b02600160401b600160801b0319929091166001600160401b031990941693909317169190911790555b50505b6135e0565b6001600160a01b038516156135e0576001600160a01b0385166000908152603f6020526040902060010180546001600160401b0319166001600160401b0385161790555b60405186906001600160a01b038216907fa31b3b303c759fa7ee31d89a1a6fb7eb704d8fe5c87aa4f60f54468ff121bee890600090a26111e081613fb1565b603a546001600160a01b031681565b603e5481565b3342600061364182613c94565b905060008061364e613cdc565b90925090508115613a8457603e829055603d8190556001600160a01b03851615613a7f5761367a614eff565b506001600160a01b0385166000908152603f60209081526040808320815160808101835281546001600160801b03808216808452600160801b90920416948201949094526001909101546001600160401b0380821693830193909352600160401b9004909116606082015291906136f390889086613af6565b905080156139aa576000613715826702c68af0bb14000063ffffffff613b4116565b90506000613729838363ffffffff613d9116565b9050604060008a6001600160a01b03166001600160a01b0316815260200190815260200160002060405180606001604052806137816109ac88604001516001600160401b031662eff100613b5690919063ffffffff16565b6001600160401b031681526020016137a56109ac62eff1008d63ffffffff613b5616565b6001600160401b031681526020016137d9610a16610a0989604001516001600160401b03168e613d9190919063ffffffff16565b6001600160801b0390811690915282546001810184556000938452602093849020835191018054948401516040948501518416600160801b026001600160401b03918216600160401b02600160401b600160801b0319929094166001600160401b0319909716969096171691909117909116929092179091558051608081019091528061386588613e15565b6001600160801b03168152602001613896610a1687602001516001600160801b031686613b5690919063ffffffff16565b6001600160801b03168152602001886001600160401b0316815260200185606001516001016001600160401b0316815250603f60008b6001600160a01b03166001600160a01b0316815260200190815260200160002060008201518160000160006101000a8154816001600160801b0302191690836001600160801b0316021790555060208201518160000160106101000a8154816001600160801b0302191690836001600160801b0316021790555060408201518160010160006101000a8154816001600160401b0302191690836001600160401b0316021790555060608201518160010160086101000a8154816001600160401b0302191690836001600160401b031602179055509050505050613a7c565b60405180608001604052806139be86613e15565b6001600160801b0390811682526020858101518216818401526001600160401b03808a166040808601919091526060808901518316958101959095526001600160a01b038d166000908152603f845281902086518154948801518616600160801b029086166001600160801b031990951694909417909416929092178355908401516001909201805494909301518116600160401b02600160401b600160801b0319929091166001600160401b031990941693909317169190911790555b50505b613ac8565b6001600160a01b03851615613ac8576001600160a01b0385166000908152603f6020526040902060010180546001600160401b0319166001600160401b0385161790555b33613ad5610d17336106d2565b60008061168a336140e1565b603b5481565b6036546001600160a01b031681565b600080613b09838563ffffffff613d9116565b905080613b1a576000915050613b3a565b6000613b3582613b29886121f6565b9063ffffffff613b4116565b925050505b9392505050565b6000613b3a8383670de0b6b3a7640000614652565b600082820183811015613b3a576040805162461bcd60e51b815260206004820152601b60248201527f536166654d6174683a206164646974696f6e206f766572666c6f770000000000604482015290519081900360640190fd5b303b1590565b613bbf82614680565b603480546001600160a01b0319166001600160a01b039290921691909117905550565b603580546001600160a01b038085166001600160a01b0319928316179092556036805492841692909116919091179055613c1a6146f5565b5050565b6033546040805163030d028960e21b815290516000926001600160a01b031691630c340a24916004808301926020929190829003018186803b158015613c6357600080fd5b505afa158015613c77573d6000803e3d6000fd5b505050506040513d6020811015613c8d57600080fd5b5051905090565b6000600160401b8210613cd85760405162461bcd60e51b8152600401808060200182810382526026815260200180614fe96026913960400191505060405180910390fd5b5090565b6000806000613ce9612226565b90506000613d02603d5483613d9190919063ffffffff16565b905080613d165750603e5492509050613d8d565b603c54600090613d2c908363ffffffff61412a16565b90506000613d386107c3565b9050801580613d45575081155b15613d5b57603e54849550955050505050613d8d565b6000613d6d838363ffffffff61418316565b603e54909150613d83908263ffffffff613b5616565b9650939450505050505b9091565b6000613b3a83836040518060400160405280601e81526020017f536166654d6174683a207375627472616374696f6e206f766572666c6f77000081525061470a565b6000613b3a83836040518060400160405280601a81526020017f536166654d6174683a206469766973696f6e206279207a65726f0000000000008152506147a1565b6000600160801b8210613cd85760405162461bcd60e51b8152600401808060200182810382526027815260200180614fa16027913960400191505060405180910390fd5b60008111613ea2576040805162461bcd60e51b8152602060048201526011602482015270043616e6e6f74207769746864726177203607c1b604482015290519081900360640190fd5b613eab81614806565b60408051828152905133917f7084f5476618d8e60b11ef0d7d3f06914655adb8793e28ff7f018d4c76d505d5919081900360200190a250565b600080613ef23385856141cd565b33600090815260416020908152604080832080546001600160401b0319166001600160401b038616179055603f909152812080546001600160801b03808216909255939550919350600160801b9092041690613f4e8483613b56565b905080156107bb57603a54613f73906001600160a01b0316338363ffffffff6145fb16565b60408051828152905133917fe2403640ba68fed3a2f88b7557551d1993f84b99bb10ff833f0cf8db0c5e0486919081900360200190a2505050505050565b6001600160a01b0381166000908152603960209081526040808320546038909252909120546706f05b59d3b20000670de0b6b3a7640000831061407b57603654604080516370a0823160e01b81526001600160a01b038781166004830152915160009392909216916370a0823191602480820192602092909190829003018186803b15801561403f57600080fd5b505afa158015614053573d6000803e3d6000fd5b505050506040513d602081101561406957600080fd5b5051905061407784826148d3565b9150505b600061408d848363ffffffff613b4116565b90508281146140da576140bb816140af85603754613d9190919063ffffffff16565b9063ffffffff613b5616565b6037556001600160a01b03851660009081526038602052604090208190555b5050505050565b6001600160a01b03811660009081526041602052604081205481906001600160401b03168161411082866149c1565b9050600061411d86614a9b565b9194509092505050915091565b600082614139575060006121e1565b8282028284828161414657fe5b0414613b3a5760405162461bcd60e51b8152600401808060200182810382526021815260200180614fc86021913960400191505060405180910390fd5b60008061419e84670de0b6b3a764000063ffffffff61412a16565b90506141b0818463ffffffff613dd316565b949350505050565b60008183116141c75782613b3a565b50919050565b6001600160a01b03831660009081526041602090815260408083205491819052822054829142916001600160401b03909116908615801561420c575085155b156142695780158061425557506001600160a01b0388166000908152604060208190528120805490919061423c57fe5b6000918252602090912001546001600160401b03168311155b156142695750600093509091506145029050565b8615614300576001600160a01b038816600090815260406020819052902061429888600163ffffffff613d9116565b815481106142a257fe5b6000918252602090912001546001600160401b03600160401b909104811690831610156143005760405162461bcd60e51b815260040180806020018281038252602e815260200180614f73602e913960400191505060405180910390fd5b600061431760016140af898b63ffffffff613d9116565b905060005b818110156144af5760006143368a8363ffffffff613b5616565b9050614340614f26565b6001600160a01b038c16600090815260406020819052902080548390811061436457fe5b60009182526020918290206040805160608101825292909101546001600160401b03808216808552600160401b830490911694840194909452600160801b90046001600160801b031690820152915087108015906143d8575080602001516001600160401b0316866001600160401b031611155b614419576040805162461bcd60e51b815260206004820152600d60248201526c092dcecc2d8d2c840cae0dec6d609b1b604482015290519081900360640190fd5b600061443282602001516001600160401b0316896141b8565b9050600061445683600001516001600160401b0316896001600160401b0316614b70565b9050600061448a84604001516001600160801b031661447e8486613d9190919063ffffffff16565b9063ffffffff61412a16565b905061449c8c8263ffffffff613b5616565b9b50506001909401935061431c92505050565b506001600160a01b038916600090815260406020819052902080546144fb9186918a9081106144da57fe5b600091825260209091200154600160401b90046001600160401b03166141b8565b9450505050505b935093915050565b60008111614550576040805162461bcd60e51b815260206004820152600e60248201526d043616e6e6f74207374616b6520360941b604482015290519081900360640190fd5b6001600160a01b0382166145ab576040805162461bcd60e51b815260206004820152601b60248201527f496e76616c69642062656e656669636961727920616464726573730000000000604482015290519081900360640190fd5b6145b58282614b86565b6040805182815233602082015281516001600160a01b038516927f9f9e4044c5742cca66ca090b21552bac14645e68bad7a92364a9d9ff18111a1c928290030190a25050565b604080516001600160a01b038416602482015260448082018490528251808303909101815260649091019091526020810180516001600160e01b031663a9059cbb60e01b17905261464d908490614c64565b505050565b600080614665858563ffffffff61412a16565b9050614677818463ffffffff613dd316565b95945050505050565b6001600160a01b0381166146d3576040805162461bcd60e51b81526020600482015260156024820152744e657875732061646472657373206973207a65726f60581b604482015290519081900360640190fd5b603380546001600160a01b0319166001600160a01b0392909216919091179055565b6034805460ff60a01b1916600160a01b179055565b600081848411156147995760405162461bcd60e51b81526004018080602001828103825283818151815260200191508051906020019080838360005b8381101561475e578181015183820152602001614746565b50505050905090810190601f16801561478b5780820380516001836020036101000a031916815260200191505b509250505060405180910390fd5b505050900390565b600081836147f05760405162461bcd60e51b815260206004820181815283516024840152835190928392604490910191908501908083836000831561475e578181015183820152602001614746565b5060008385816147fc57fe5b0495945050505050565b603454600160a01b900460ff16614864576040805162461bcd60e51b815260206004820152601f60248201527f5265656e7472616e637947756172643a207265656e7472616e742063616c6c00604482015290519081900360640190fd5b6034805460ff60a01b1916905533600090815260396020526040902054614891908263ffffffff613d9116565b336000818152603960205260409020919091556035546148bd916001600160a01b0390911690836145fb565b506034805460ff60a01b1916600160a01b179055565b6000816148e957506706f05b59d3b200006121e1565b60006149046148ff6148ff86620186a002614e22565b614e22565b905061496661495961494c61493f614932614925868063ffffffff61412a16565b869063ffffffff61412a16565b859063ffffffff61412a16565b849063ffffffff61412a16565b839063ffffffff61412a16565b829063ffffffff61412a16565b905061497a816103e863ffffffff613dd316565b9050614996816121d5600a611c4c87603c63ffffffff61412a16565b91506141b06149b36706f05b59d3b200008463ffffffff613b5616565b6714d1120d7b1600006141b8565b6001600160a01b038116600090815260406020819052812054806149e95760009150506121e1565b60006000198201815b6080811015614a9057818310614a0757614a90565b6000614a236002611c4c60016140af888863ffffffff613b5616565b6001600160a01b038816600090815260406020819052902080549192509082908110614a4b57fe5b6000918252602090912001546001600160401b039081169089161115614a7357809350614a87565b614a8481600163ffffffff613d9116565b92505b506001016149f2565b509095945050505050565b6001600160a01b03811660009081526040602081905281205480614ac35760009150506106b2565b60006000198201815b6080811015614b6657818310614ae157614b66565b6000614afd6002611c4c60016140af888863ffffffff613b5616565b6001600160a01b038816600090815260406020819052902080549192509082908110614b2557fe5b6000918252602090912001546001600160401b0316421115614b4957809350614b5d565b614b5a81600163ffffffff613d9116565b92505b50600101614acc565b5090949350505050565b6000818311614b7f5781613b3a565b5090919050565b603454600160a01b900460ff16614be4576040805162461bcd60e51b815260206004820152601f60248201527f5265656e7472616e637947756172643a207265656e7472616e742063616c6c00604482015290519081900360640190fd5b6034805460ff60a01b191690556001600160a01b038216600090815260396020526040902054614c1a908263ffffffff613b5616565b6001600160a01b03808416600090815260396020526040902091909155603554614c4d911633308463ffffffff614e6c16565b50506034805460ff60a01b1916600160a01b179055565b614c76826001600160a01b0316614ec6565b614cc7576040805162461bcd60e51b815260206004820152601f60248201527f5361666545524332303a2063616c6c20746f206e6f6e2d636f6e747261637400604482015290519081900360640190fd5b60006060836001600160a01b0316836040518082805190602001908083835b60208310614d055780518252601f199092019160209182019101614ce6565b6001836020036101000a0380198251168184511680821785525050505050509050019150506000604051808303816000865af19150503d8060008114614d67576040519150601f19603f3d011682016040523d82523d6000602084013e614d6c565b606091505b509150915081614dc3576040805162461bcd60e51b815260206004820181905260248201527f5361666545524332303a206c6f772d6c6576656c2063616c6c206661696c6564604482015290519081900360640190fd5b805115614e1c57808060200190516020811015614ddf57600080fd5b5051614e1c5760405162461bcd60e51b815260040180806020018281038252602a81526020018061503d602a913960400191505060405180910390fd5b50505050565b600080614e3b6002611c4c85600163ffffffff613b5616565b90508291505b818110156141c757905080614e656002611c4c836140af878263ffffffff613dd316565b9050614e41565b604080516001600160a01b0385811660248301528416604482015260648082018490528251808303909101815260849091019091526020810180516001600160e01b03166323b872dd60e01b179052614e1c908590614c64565b6000813f7fc5d2460186f7233c927e7db2dcc703c0e500b653ca82273b7bfad8045d85a4708181148015906106ad575050151592915050565b60408051608081018252600080825260208201819052918101829052606081019190915290565b60408051606081018252600080825260208201819052918101919091529056fe43616e6e6f74206e6f746966792077697468206d6f7265207468616e2061206d696c6c696f6e20756e697473496e76616c6964205f6669727374206172673a204d75737420636c61696d206561726c69657220656e747269657353616665436173743a2076616c756520646f65736e27742066697420696e203132382062697473536166654d6174683a206d756c7469706c69636174696f6e206f766572666c6f7753616665436173743a2076616c756520646f65736e27742066697420696e2036342062697473436f6e747261637420696e7374616e63652068617320616c7265616479206265656e20696e697469616c697a65645361666545524332303a204552433230206f7065726174696f6e20646964206e6f742073756363656564a265627a7a72315820377f00e0fb84115c41b8875395895c0636301511eaf6b44906d70f91b057090d64736f6c63430005100032",
  "source": "pragma solidity 0.5.16;\n\n// Internal\nimport { IBoostedVaultWithLockup } from \"../interfaces/IBoostedVaultWithLockup.sol\";\nimport { InitializableRewardsDistributionRecipient } from \"../rewards/InitializableRewardsDistributionRecipient.sol\";\nimport { BoostedTokenWrapper } from \"./BoostedTokenWrapper.sol\";\nimport { Initializable } from \"@openzeppelin/upgrades/contracts/Initializable.sol\";\n\n// Libs\nimport { IERC20, SafeERC20 } from \"@openzeppelin/contracts/token/ERC20/SafeERC20.sol\";\nimport { SafeCast } from \"@openzeppelin/contracts/utils/SafeCast.sol\";\nimport { StableMath, SafeMath } from \"../shared/StableMath.sol\";\n\n\n/**\n * @title  BoostedSavingsVault\n * @author Stability Labs Pty. Ltd.\n * @notice Accrues rewards second by second, based on a users boosted balance\n * @dev    Forked from rewards/staking/StakingRewards.sol\n *         Changes:\n *          - Lockup implemented in `updateReward` hook (20% unlock immediately, 80% locked for 6 months)\n *          - `updateBoost` hook called after every external action to reset a users boost\n *          - Struct packing of common data\n *          - Searching for and claiming of unlocked rewards\n */\ncontract BoostedSavingsVault is\n    IBoostedVaultWithLockup,\n    Initializable,\n    InitializableRewardsDistributionRecipient,\n    BoostedTokenWrapper\n{\n    using StableMath for uint256;\n    using SafeCast for uint256;\n\n    event RewardAdded(uint256 reward);\n    event Staked(address indexed user, uint256 amount, address payer);\n    event Withdrawn(address indexed user, uint256 amount);\n    event Poked(address indexed user);\n    event RewardPaid(address indexed user, uint256 reward);\n\n    IERC20 public rewardsToken;\n\n    uint64 public constant DURATION = 7 days;\n    // Length of token lockup, after rewards are earned\n    uint256 public constant LOCKUP = 26 weeks;\n    // Percentage of earned tokens unlocked immediately\n    uint64 public constant UNLOCK = 2e17;\n\n    // Timestamp for current period finish\n    uint256 public periodFinish;\n    // RewardRate for the rest of the PERIOD\n    uint256 public rewardRate;\n    // Last time any user took action\n    uint256 public lastUpdateTime;\n    // Ever increasing rewardPerToken rate, based on % of total supply\n    uint256 public rewardPerTokenStored;\n    mapping(address => UserData) public userData;\n    // Locked reward tracking\n    mapping(address => Reward[]) public userRewards;\n    mapping(address => uint64) public userClaim;\n\n    struct UserData {\n        uint128 rewardPerTokenPaid;\n        uint128 rewards;\n        uint64 lastAction;\n        uint64 rewardCount;\n    }\n\n    struct Reward {\n        uint64 start;\n        uint64 finish;\n        uint128 rate;\n    }\n\n    /**\n     * @dev StakingRewards is a TokenWrapper and RewardRecipient\n     * Constants added to bytecode at deployTime to reduce SLOAD cost\n     */\n    function initialize(\n        address _nexus, // constant\n        address _stakingToken, // constant\n        address _stakingContract, // constant\n        address _rewardsToken, // constant\n        address _rewardsDistributor\n    )\n        external\n        initializer\n    {\n        InitializableRewardsDistributionRecipient._initialize(_nexus, _rewardsDistributor);\n        BoostedTokenWrapper._initialize(_stakingToken, _stakingContract);\n        rewardsToken = IERC20(_rewardsToken);\n    }\n\n    /**\n     * @dev Updates the reward for a given address, before executing function.\n     * Locks 80% of new rewards up for 6 months, vesting linearly from (time of last action + 6 months) to\n     * (now + 6 months). This allows rewards to be distributed close to how they were accrued, as opposed\n     * to locking up for a flat 6 months from the time of this fn call (allowing more passive accrual).\n     */\n    modifier updateReward(address _account) {\n        uint256 currentTime = block.timestamp;\n        uint64 currentTime64 = SafeCast.toUint64(currentTime);\n\n        // Setting of global vars\n        (uint256 newRewardPerToken, uint256 lastApplicableTime) = _rewardPerToken();\n        // If statement protects against loss in initialisation case\n        if(newRewardPerToken > 0) {\n\n            rewardPerTokenStored = newRewardPerToken;\n            lastUpdateTime = lastApplicableTime;\n\n            // Setting of personal vars based on new globals\n            if (_account != address(0)) {\n\n                UserData memory data = userData[_account];\n                uint256 earned = _earned(_account, data.rewardPerTokenPaid, newRewardPerToken);\n\n                // If earned == 0, then it must either be the initial stake, or an action in the\n                // same block, since new rewards unlock after each block.\n                if(earned > 0){\n\n                    uint256 unlocked = earned.mulTruncate(UNLOCK);\n                    uint256 locked = earned.sub(unlocked);\n\n                    userRewards[_account].push(Reward({\n                        start: SafeCast.toUint64(LOCKUP.add(data.lastAction)),\n                        finish: SafeCast.toUint64(LOCKUP.add(currentTime)),\n                        rate: SafeCast.toUint128(locked.div(currentTime.sub(data.lastAction)))\n                    }));\n\n                    userData[_account] = UserData({\n                        rewardPerTokenPaid: SafeCast.toUint128(newRewardPerToken),\n                        rewards: SafeCast.toUint128(unlocked.add(data.rewards)),\n                        lastAction: currentTime64,\n                        rewardCount: data.rewardCount + 1\n                    });\n                } else {\n                    userData[_account] = UserData({\n                        rewardPerTokenPaid: SafeCast.toUint128(newRewardPerToken),\n                        rewards: data.rewards,\n                        lastAction: currentTime64,\n                        rewardCount: data.rewardCount\n                    });\n                }\n            }\n        } else if(_account != address(0)) {\n            // This should only be hit once, for first staker in initialisation case\n            userData[_account].lastAction = currentTime64;\n        }\n        _;\n    }\n\n    /** @dev Updates the boost for a given address, after the rest of the function has executed */\n    modifier updateBoost(address _account) {\n        _;\n        _setBoost(_account);\n    }\n\n    /***************************************\n                ACTIONS - EXTERNAL\n    ****************************************/\n\n    /**\n     * @dev Stakes a given amount of the StakingToken for the sender\n     * @param _amount Units of StakingToken\n     */\n    function stake(uint256 _amount)\n        external\n        updateReward(msg.sender)\n        updateBoost(msg.sender)\n    {\n        _stake(msg.sender, _amount);\n    }\n\n    /**\n     * @dev Stakes a given amount of the StakingToken for a given beneficiary\n     * @param _beneficiary Staked tokens are credited to this address\n     * @param _amount      Units of StakingToken\n     */\n    function stake(address _beneficiary, uint256 _amount)\n        external\n        updateReward(_beneficiary)\n        updateBoost(_beneficiary)\n    {\n        _stake(_beneficiary, _amount);\n    }\n\n    /**\n     * @dev Withdraws stake from pool and claims any unlocked rewards.\n     * Note, this function is costly - the args for _claimRewards\n     * should be determined off chain and then passed to other fn\n     */\n    function exit()\n        external\n        updateReward(msg.sender)\n        updateBoost(msg.sender)\n    {\n        _withdraw(rawBalanceOf(msg.sender));\n        (uint256 first, uint256 last) = _unclaimedEpochs(msg.sender);\n        _claimRewards(first, last);\n    }\n\n    /**\n     * @dev Withdraws stake from pool and claims any unlocked rewards.\n     * @param _first    Index of the first array element to claim\n     * @param _last     Index of the last array element to claim\n     */\n    function exit(uint256 _first, uint256 _last)\n        external\n        updateReward(msg.sender)\n        updateBoost(msg.sender)\n    {\n        _withdraw(rawBalanceOf(msg.sender));\n        _claimRewards(_first, _last);\n    }\n\n    /**\n     * @dev Withdraws given stake amount from the pool\n     * @param _amount Units of the staked token to withdraw\n     */\n    function withdraw(uint256 _amount)\n        external\n        updateReward(msg.sender)\n        updateBoost(msg.sender)\n    {\n        _withdraw(_amount);\n    }\n\n    /**\n     * @dev Claims only the tokens that have been immediately unlocked, not including\n     * those that are in the lockers.\n     */\n    function claimReward()\n        external\n        updateReward(msg.sender)\n        updateBoost(msg.sender)\n    {\n        uint256 unlocked = userData[msg.sender].rewards;\n        userData[msg.sender].rewards = 0;\n\n        if(unlocked > 0){\n            rewardsToken.safeTransfer(msg.sender, unlocked);\n            emit RewardPaid(msg.sender, unlocked);\n        }\n    }\n\n    /**\n     * @dev Claims all unlocked rewards for sender.\n     * Note, this function is costly - the args for _claimRewards\n     * should be determined off chain and then passed to other fn\n     */\n    function claimRewards()\n        external\n        updateReward(msg.sender)\n        updateBoost(msg.sender)\n    {\n        (uint256 first, uint256 last) = _unclaimedEpochs(msg.sender);\n\n        _claimRewards(first, last);\n    }\n\n    /**\n     * @dev Claims all unlocked rewards for sender. Both immediately unlocked\n     * rewards and also locked rewards past their time lock.\n     * @param _first    Index of the first array element to claim\n     * @param _last     Index of the last array element to claim\n     */\n    function claimRewards(uint256 _first, uint256 _last)\n        external\n        updateReward(msg.sender)\n        updateBoost(msg.sender)\n    {\n        _claimRewards(_first, _last);\n    }\n\n    /**\n     * @dev Pokes a given account to reset the boost\n     */\n    function pokeBoost(address _account)\n        external\n        updateReward(_account)\n        updateBoost(_account)\n    {\n        emit Poked(_account);\n    }\n\n    /***************************************\n                ACTIONS - INTERNAL\n    ****************************************/\n\n    /**\n     * @dev Claims all unlocked rewards for sender. Both immediately unlocked\n     * rewards and also locked rewards past their time lock.\n     * @param _first    Index of the first array element to claim\n     * @param _last     Index of the last array element to claim\n     */\n    function _claimRewards(uint256 _first, uint256 _last)\n        internal\n    {\n        (uint256 unclaimed, uint256 lastTimestamp) = _unclaimedRewards(msg.sender, _first, _last);\n        userClaim[msg.sender] = uint64(lastTimestamp);\n\n        uint256 unlocked = userData[msg.sender].rewards;\n        userData[msg.sender].rewards = 0;\n\n        uint256 total = unclaimed.add(unlocked);\n\n        if(total > 0){\n            rewardsToken.safeTransfer(msg.sender, total);\n\n            emit RewardPaid(msg.sender, total);\n        }\n    }\n\n    /**\n     * @dev Internally stakes an amount by depositing from sender,\n     * and crediting to the specified beneficiary\n     * @param _beneficiary Staked tokens are credited to this address\n     * @param _amount      Units of StakingToken\n     */\n    function _stake(address _beneficiary, uint256 _amount)\n        internal\n    {\n        require(_amount > 0, \"Cannot stake 0\");\n        require(_beneficiary != address(0), \"Invalid beneficiary address\");\n\n        _stakeRaw(_beneficiary, _amount);\n        emit Staked(_beneficiary, _amount, msg.sender);\n    }\n\n    /**\n     * @dev Withdraws raw units from the sender\n     * @param _amount      Units of StakingToken\n     */\n    function _withdraw(uint256 _amount)\n        internal\n    {\n        require(_amount > 0, \"Cannot withdraw 0\");\n        _withdrawRaw(_amount);\n        emit Withdrawn(msg.sender, _amount);\n    }\n\n\n    /***************************************\n                    GETTERS\n    ****************************************/\n\n    /**\n     * @dev Gets the RewardsToken\n     */\n    function getRewardToken()\n        external\n        view\n        returns (IERC20)\n    {\n        return rewardsToken;\n    }\n\n    /**\n     * @dev Gets the last applicable timestamp for this reward period\n     */\n    function lastTimeRewardApplicable()\n        public\n        view\n        returns (uint256)\n    {\n        return StableMath.min(block.timestamp, periodFinish);\n    }\n\n    /**\n     * @dev Calculates the amount of unclaimed rewards per token since last update,\n     * and sums with stored to give the new cumulative reward per token\n     * @return 'Reward' per staked token\n     */\n    function rewardPerToken()\n        public\n        view\n        returns (uint256)\n    {\n        (uint256 rewardPerToken_, ) = _rewardPerToken();\n        return rewardPerToken_;\n    }\n\n    function _rewardPerToken()\n        internal\n        view\n        returns (uint256 rewardPerToken_, uint256 lastTimeRewardApplicable_)\n    {\n        uint256 lastApplicableTime = lastTimeRewardApplicable(); // + 1 SLOAD\n        uint256 timeDelta = lastApplicableTime.sub(lastUpdateTime); // + 1 SLOAD\n        // If this has been called twice in the same block, shortcircuit to reduce gas\n        if(timeDelta == 0) {\n            return (rewardPerTokenStored, lastApplicableTime);\n        }\n        // new reward units to distribute = rewardRate * timeSinceLastUpdate\n        uint256 rewardUnitsToDistribute = rewardRate.mul(timeDelta); // + 1 SLOAD\n        uint256 supply = totalSupply(); // + 1 SLOAD\n        // If there is no StakingToken liquidity, avoid div(0)\n        // If there is nothing to distribute, short circuit\n        if (supply == 0 || rewardUnitsToDistribute == 0) {\n            return (rewardPerTokenStored, lastApplicableTime);\n        }\n        // new reward units per token = (rewardUnitsToDistribute * 1e18) / totalTokens\n        uint256 unitsToDistributePerToken = rewardUnitsToDistribute.divPrecisely(supply);\n        // return summed rate\n        return (rewardPerTokenStored.add(unitsToDistributePerToken), lastApplicableTime); // + 1 SLOAD\n    }\n\n    /**\n     * @dev Returned the units of IMMEDIATELY claimable rewards a user has to receive. Note - this\n     * does NOT include the majority of rewards which will be locked up.\n     * @param _account User address\n     * @return Total reward amount earned\n     */\n    function earned(address _account)\n        public\n        view\n        returns (uint256)\n    {\n        uint256 newEarned = _earned(_account, userData[_account].rewardPerTokenPaid, rewardPerToken());\n        uint256 immediatelyUnlocked = newEarned.mulTruncate(UNLOCK);\n        return immediatelyUnlocked.add(userData[_account].rewards);\n    }\n\n    /**\n     * @dev Calculates all unclaimed reward data, finding both immediately unlocked rewards\n     * and those that have passed their time lock.\n     * @param _account User address\n     * @return amount Total units of unclaimed rewards\n     * @return first Index of the first userReward that has unlocked\n     * @return last Index of the last userReward that has unlocked\n     */\n    function unclaimedRewards(address _account)\n        external\n        view\n        returns (uint256 amount, uint256 first, uint256 last)\n    {\n        (first, last) = _unclaimedEpochs(_account);\n        (uint256 unlocked, ) = _unclaimedRewards(_account, first, last);\n        amount = unlocked.add(earned(_account));\n    }\n\n    /** @dev Returns only the most recently earned rewards */\n    function _earned(address _account, uint256 _userRewardPerTokenPaid, uint256 _currentRewardPerToken)\n        internal\n        view\n        returns (uint256)\n    {\n        // current rate per token - rate user previously received\n        uint256 userRewardDelta = _currentRewardPerToken.sub(_userRewardPerTokenPaid); // + 1 SLOAD\n        // Short circuit if there is nothing new to distribute\n        if(userRewardDelta == 0){\n            return 0;\n        }\n        // new reward = staked tokens * difference in rate\n        uint256 userNewReward = balanceOf(_account).mulTruncate(userRewardDelta); // + 1 SLOAD\n        // add to previous rewards\n        return userNewReward;\n    }\n\n    /**\n     * @dev Gets the first and last indexes of array elements containing unclaimed rewards\n     */\n    function _unclaimedEpochs(address _account)\n        internal\n        view\n        returns (uint256 first, uint256 last)\n    {\n        uint64 lastClaim = userClaim[_account];\n\n        uint256 firstUnclaimed = _findFirstUnclaimed(lastClaim, _account);\n        uint256 lastUnclaimed = _findLastUnclaimed(_account);\n\n        return (firstUnclaimed, lastUnclaimed);\n    }\n\n    /**\n     * @dev Sums the cumulative rewards from a valid range\n     */\n    function _unclaimedRewards(address _account, uint256 _first, uint256 _last)\n        internal\n        view\n        returns (uint256 amount, uint256 latestTimestamp)\n    {\n        uint256 currentTime = block.timestamp;\n        uint64 lastClaim = userClaim[_account];\n\n        // Check for no rewards unlocked\n        uint256 totalLen = userRewards[_account].length;\n        if(_first == 0 && _last == 0) {\n            if(totalLen == 0 || currentTime <= userRewards[_account][0].start){\n                return (0, currentTime);\n            }\n        }\n        // If there are previous unlocks, check for claims that would leave them untouchable\n        if(_first > 0){\n            require(lastClaim >= userRewards[_account][_first.sub(1)].finish, \"Invalid _first arg: Must claim earlier entries\");\n        }\n\n        uint256 count = _last.sub(_first).add(1);\n        for(uint256 i = 0; i < count; i++){\n\n            uint256 id = _first.add(i);\n            Reward memory rwd = userRewards[_account][id];\n\n            require(currentTime >= rwd.start && lastClaim <= rwd.finish, \"Invalid epoch\");\n\n            uint256 endTime = StableMath.min(rwd.finish, currentTime);\n            uint256 startTime = StableMath.max(rwd.start, lastClaim);\n            uint256 unclaimed = endTime.sub(startTime).mul(rwd.rate);\n\n            amount = amount.add(unclaimed);\n        }\n\n        // Calculate last relevant timestamp here to allow users to avoid issue of OOG errors\n        // by claiming rewards in batches.\n        latestTimestamp = StableMath.min(currentTime, userRewards[_account][_last].finish);\n    }\n\n\n    /**\n     * @dev Uses binarysearch to find the unclaimed lockups for a given account\n     */\n    function _findFirstUnclaimed(uint64 _lastClaim, address _account)\n        internal\n        view\n        returns(uint256 first)\n    {\n        uint256 len = userRewards[_account].length;\n        if(len == 0) return 0;\n        // Binary search\n        uint256 min = 0;\n        uint256 max = len - 1;\n        // Will be always enough for 128-bit numbers\n        for(uint256 i = 0; i < 128; i++){\n            if (min >= max)\n                break;\n            uint256 mid = (min.add(max).add(1)).div(2);\n            if (_lastClaim > userRewards[_account][mid].start){\n                min = mid;\n            } else {\n                max = mid.sub(1);\n            }\n        }\n        return min;\n    }\n\n    /**\n     * @dev Uses binarysearch to find the unclaimed lockups for a given account\n     */\n    function _findLastUnclaimed(address _account)\n        internal\n        view\n        returns(uint256 first)\n    {\n        uint256 len = userRewards[_account].length;\n        if(len == 0) return 0;\n        // Binary search\n        uint256 min = 0;\n        uint256 max = len - 1;\n        // Will be always enough for 128-bit numbers\n        for(uint256 i = 0; i < 128; i++){\n            if (min >= max)\n                break;\n            uint256 mid = (min.add(max).add(1)).div(2);\n            if (now > userRewards[_account][mid].start){\n                min = mid;\n            } else {\n                max = mid.sub(1);\n            }\n        }\n        return min;\n    }\n\n    /***************************************\n                    ADMIN\n    ****************************************/\n\n    /**\n     * @dev Notifies the contract that new rewards have been added.\n     * Calculates an updated rewardRate based on the rewards in period.\n     * @param _reward Units of RewardToken that have been added to the pool\n     */\n    function notifyRewardAmount(uint256 _reward)\n        external\n        onlyRewardsDistributor\n        updateReward(address(0))\n    {\n        require(_reward < 1e24, \"Cannot notify with more than a million units\");\n\n        uint256 currentTime = block.timestamp;\n        // If previous period over, reset rewardRate\n        if (currentTime >= periodFinish) {\n            rewardRate = _reward.div(DURATION);\n        }\n        // If additional reward to existing period, calc sum\n        else {\n            uint256 remaining = periodFinish.sub(currentTime);\n            uint256 leftover = remaining.mul(rewardRate);\n            rewardRate = _reward.add(leftover).div(DURATION);\n        }\n\n        lastUpdateTime = currentTime;\n        periodFinish = currentTime.add(DURATION);\n\n        emit RewardAdded(_reward);\n    }\n}",
  "sourcePath": "/Volumes/sdxc/ETHEREUM/CODE/mStable-v1-edit/contracts/savings/BoostedSavingsVault.sol",
  "compiler": {
    "name": "solc",
    "version": "0.5.16+commit.9c3226ce.Emscripten.clang"
  },
  "schemaVersion": "3.1.0",
  "updatedAt": "2021-03-11T05:43:15.991Z",
  "devdoc": {
    "author": "Stability Labs Pty. Ltd.",
    "details": "Forked from rewards/staking/StakingRewards.sol        Changes:         - Lockup implemented in `updateReward` hook (20% unlock immediately, 80% locked for 6 months)         - `updateBoost` hook called after every external action to reset a users boost         - Struct packing of common data         - Searching for and claiming of unlocked rewards",
    "methods": {
      "balanceOf(address)": {
        "details": "Get the boosted balance of a given account",
        "params": {
          "_account": "User for which to retrieve balance"
        }
      },
      "claimReward()": {
        "details": "Claims only the tokens that have been immediately unlocked, not including those that are in the lockers."
      },
      "claimRewards()": {
        "details": "Claims all unlocked rewards for sender. Note, this function is costly - the args for _claimRewards should be determined off chain and then passed to other fn"
      },
      "claimRewards(uint256,uint256)": {
        "details": "Claims all unlocked rewards for sender. Both immediately unlocked rewards and also locked rewards past their time lock.",
        "params": {
          "_first": "Index of the first array element to claim",
          "_last": "Index of the last array element to claim"
        }
      },
      "earned(address)": {
        "details": "Returned the units of IMMEDIATELY claimable rewards a user has to receive. Note - this does NOT include the majority of rewards which will be locked up.",
        "params": {
          "_account": "User address"
        },
        "return": "Total reward amount earned"
      },
      "exit()": {
        "details": "Withdraws stake from pool and claims any unlocked rewards. Note, this function is costly - the args for _claimRewards should be determined off chain and then passed to other fn"
      },
      "exit(uint256,uint256)": {
        "details": "Withdraws stake from pool and claims any unlocked rewards.",
        "params": {
          "_first": "Index of the first array element to claim",
          "_last": "Index of the last array element to claim"
        }
      },
      "getBoost(address)": {
        "details": "Read the boost for the given address",
        "params": {
          "_account": "User for which to return the boost"
        },
        "return": "boost where 1x == 1e18"
      },
      "getRewardToken()": {
        "details": "Gets the RewardsToken"
      },
      "initialize(address,address,address,address,address)": {
        "details": "StakingRewards is a TokenWrapper and RewardRecipient Constants added to bytecode at deployTime to reduce SLOAD cost"
      },
      "lastTimeRewardApplicable()": {
        "details": "Gets the last applicable timestamp for this reward period"
      },
      "notifyRewardAmount(uint256)": {
        "details": "Notifies the contract that new rewards have been added. Calculates an updated rewardRate based on the rewards in period.",
        "params": {
          "_reward": "Units of RewardToken that have been added to the pool"
        }
      },
      "pokeBoost(address)": {
        "details": "Pokes a given account to reset the boost"
      },
      "rawBalanceOf(address)": {
        "details": "Get the RAW balance of a given account",
        "params": {
          "_account": "User for which to retrieve balance"
        }
      },
      "rewardPerToken()": {
        "details": "Calculates the amount of unclaimed rewards per token since last update, and sums with stored to give the new cumulative reward per token",
        "return": "'Reward' per staked token"
      },
      "setRewardsDistribution(address)": {
        "details": "Change the rewardsDistributor - only called by mStable governor",
        "params": {
          "_rewardsDistributor": "Address of the new distributor"
        }
      },
      "stake(address,uint256)": {
        "details": "Stakes a given amount of the StakingToken for a given beneficiary",
        "params": {
          "_amount": "Units of StakingToken",
          "_beneficiary": "Staked tokens are credited to this address"
        }
      },
      "stake(uint256)": {
        "details": "Stakes a given amount of the StakingToken for the sender",
        "params": {
          "_amount": "Units of StakingToken"
        }
      },
      "totalSupply()": {
        "details": "Get the total boosted amount",
        "return": "uint256 total supply"
      },
      "unclaimedRewards(address)": {
        "details": "Calculates all unclaimed reward data, finding both immediately unlocked rewards and those that have passed their time lock.",
        "params": {
          "_account": "User address"
        },
        "return": "amount Total units of unclaimed rewardsfirst Index of the first userReward that has unlockedlast Index of the last userReward that has unlocked"
      },
      "withdraw(uint256)": {
        "details": "Withdraws given stake amount from the pool",
        "params": {
          "_amount": "Units of the staked token to withdraw"
        }
      }
    },
    "title": "BoostedSavingsVault"
  },
  "userdoc": {
    "methods": {},
    "notice": "Accrues rewards second by second, based on a users boosted balance"
  }
}