{
  "contractName": "BoostedTokenWrapper",
  "abi": [
    {
      "constant": true,
      "inputs": [],
      "name": "stakingContract",
      "outputs": [
        {
          "internalType": "contract IIncentivisedVotingLockup",
          "name": "",
          "type": "address"
        }
      ],
      "payable": false,
      "stateMutability": "view",
      "type": "function"
    },
    {
      "constant": true,
      "inputs": [],
      "name": "stakingToken",
      "outputs": [
        {
          "internalType": "contract IERC20",
          "name": "",
          "type": "address"
        }
      ],
      "payable": false,
      "stateMutability": "view",
      "type": "function"
    },
    {
      "constant": true,
      "inputs": [],
      "name": "totalSupply",
      "outputs": [
        {
          "internalType": "uint256",
          "name": "",
          "type": "uint256"
        }
      ],
      "payable": false,
      "stateMutability": "view",
      "type": "function"
    },
    {
      "constant": true,
      "inputs": [
        {
          "internalType": "address",
          "name": "_account",
          "type": "address"
        }
      ],
      "name": "balanceOf",
      "outputs": [
        {
          "internalType": "uint256",
          "name": "",
          "type": "uint256"
        }
      ],
      "payable": false,
      "stateMutability": "view",
      "type": "function"
    },
    {
      "constant": true,
      "inputs": [
        {
          "internalType": "address",
          "name": "_account",
          "type": "address"
        }
      ],
      "name": "rawBalanceOf",
      "outputs": [
        {
          "internalType": "uint256",
          "name": "",
          "type": "uint256"
        }
      ],
      "payable": false,
      "stateMutability": "view",
      "type": "function"
    },
    {
      "constant": true,
      "inputs": [
        {
          "internalType": "address",
          "name": "_account",
          "type": "address"
        }
      ],
      "name": "getBoost",
      "outputs": [
        {
          "internalType": "uint256",
          "name": "",
          "type": "uint256"
        }
      ],
      "payable": false,
      "stateMutability": "view",
      "type": "function"
    }
  ],
  "bytecode": "0x608060405234801561001057600080fd5b50610371806100206000396000f3fe608060405234801561001057600080fd5b50600436106100625760003560e01c806312064c341461006757806318160ddd1461009f57806367ba3d90146100a757806370a08231146100cd57806372f702f3146100f3578063ee99205c14610117575b600080fd5b61008d6004803603602081101561007d57600080fd5b50356001600160a01b031661011f565b60408051918252519081900360200190f35b61008d61013a565b61008d600480360360208110156100bd57600080fd5b50356001600160a01b0316610140565b61008d600480360360208110156100e357600080fd5b50356001600160a01b0316610169565b6100fb610184565b604080516001600160a01b039092168252519081900360200190f35b6100fb610198565b6001600160a01b031660009081526004602052604090205490565b60025490565b600061016361014e8361011f565b61015784610169565b9063ffffffff6101a716565b92915050565b6001600160a01b031660009081526003602052604090205490565b60005461010090046001600160a01b031681565b6001546001600160a01b031681565b6000806101c284670de0b6b3a764000063ffffffff6101dc16565b90506101d4818463ffffffff61023c16565b949350505050565b6000826101eb57506000610163565b828202828482816101f857fe5b04146102355760405162461bcd60e51b815260040180806020018281038252602181526020018061031c6021913960400191505060405180910390fd5b9392505050565b600061023583836040518060400160405280601a81526020017f536166654d6174683a206469766973696f6e206279207a65726f000000000000815250600081836103055760405162461bcd60e51b81526004018080602001828103825283818151815260200191508051906020019080838360005b838110156102ca5781810151838201526020016102b2565b50505050905090810190601f1680156102f75780820380516001836020036101000a031916815260200191505b509250505060405180910390fd5b50600083858161031157fe5b049594505050505056fe536166654d6174683a206d756c7469706c69636174696f6e206f766572666c6f77a265627a7a72315820ff932d246a08649e092e4da54c4a79660337f49be7b98f2bcfb8ddcbfe86b77d64736f6c63430005100032",
  "source": "pragma solidity 0.5.16;\n\n\n// Internal\nimport { IIncentivisedVotingLockup } from \"../interfaces/IIncentivisedVotingLockup.sol\";\n\n// Libs\nimport { SafeERC20, IERC20 } from \"@openzeppelin/contracts/token/ERC20/SafeERC20.sol\";\nimport { InitializableReentrancyGuard } from \"../shared/InitializableReentrancyGuard.sol\";\nimport { SafeMath } from \"@openzeppelin/contracts/math/SafeMath.sol\";\nimport { StableMath } from \"../shared/StableMath.sol\";\nimport { Root } from \"../shared/Root.sol\";\n\n/**\n * @title  BoostedTokenWrapper\n * @author Stability Labs Pty. Ltd.\n * @notice Wrapper to facilitate tracking of staked balances, applying a boost\n * @dev    Forked from rewards/staking/StakingTokenWrapper.sol\n *         Changes:\n *          - Adding `_boostedBalances` and `_totalBoostedSupply`\n *          - Implemting of a `_setBoost` hook to calculate/apply a users boost\n */\ncontract BoostedTokenWrapper is InitializableReentrancyGuard {\n\n    using SafeMath for uint256;\n    using StableMath for uint256;\n    using SafeERC20 for IERC20;\n\n    IERC20 public stakingToken;\n    // mStable MTA Staking contract\n    IIncentivisedVotingLockup public stakingContract;\n\n    uint256 private _totalBoostedSupply;\n    mapping(address => uint256) private _boostedBalances;\n    mapping(address => uint256) private _rawBalances;\n\n    // Vars for use in the boost calculations\n    uint256 private constant MIN_DEPOSIT = 1e18;\n    uint256 private constant MAX_BOOST = 15e17;\n    uint256 private constant MIN_BOOST = 5e17;\n    uint8 private constant BOOST_COEFF = 60;\n\n    /**\n     * @dev TokenWrapper constructor\n     * @param _stakingToken Wrapped token to be staked\n     * @param _stakingContract mStable MTA Staking contract\n     */\n    function _initialize(\n        address _stakingToken,\n        address _stakingContract\n    ) internal {\n        stakingToken = IERC20(_stakingToken);\n        stakingContract = IIncentivisedVotingLockup(_stakingContract);\n        InitializableReentrancyGuard._initialize();\n    }\n\n    /**\n     * @dev Get the total boosted amount\n     * @return uint256 total supply\n     */\n    function totalSupply()\n        public\n        view\n        returns (uint256)\n    {\n        return _totalBoostedSupply;\n    }\n\n    /**\n     * @dev Get the boosted balance of a given account\n     * @param _account User for which to retrieve balance\n     */\n    function balanceOf(address _account)\n        public\n        view\n        returns (uint256)\n    {\n        return _boostedBalances[_account];\n    }\n\n    /**\n     * @dev Get the RAW balance of a given account\n     * @param _account User for which to retrieve balance\n     */\n    function rawBalanceOf(address _account)\n        public\n        view\n        returns (uint256)\n    {\n        return _rawBalances[_account];\n    }\n\n    /**\n     * @dev Read the boost for the given address\n     * @param _account User for which to return the boost\n     * @return boost where 1x == 1e18\n     */\n    function getBoost(address _account)\n        public\n        view\n        returns (uint256)\n    {\n        return balanceOf(_account).divPrecisely(rawBalanceOf(_account));\n    }\n\n    /**\n     * @dev Deposits a given amount of StakingToken from sender\n     * @param _amount Units of StakingToken\n     */\n    function _stakeRaw(address _beneficiary, uint256 _amount)\n        internal\n        nonReentrant\n    {\n        _rawBalances[_beneficiary] = _rawBalances[_beneficiary].add(_amount);\n        stakingToken.safeTransferFrom(msg.sender, address(this), _amount);\n    }\n\n    /**\n     * @dev Withdraws a given stake from sender\n     * @param _amount Units of StakingToken\n     */\n    function _withdrawRaw(uint256 _amount)\n        internal\n        nonReentrant\n    {\n        _rawBalances[msg.sender] = _rawBalances[msg.sender].sub(_amount);\n        stakingToken.safeTransfer(msg.sender, _amount);\n    }\n\n    /**\n     * @dev Updates the boost for the given address according to the formula\n     * boost = min(0.5 + c * vMTA_balance / imUSD_locked^(7/8), 1.5)\n     * If rawBalance <= MIN_DEPOSIT, boost is 0\n     * @param _account User for which to update the boost\n     */\n    function _setBoost(address _account)\n        internal\n    {\n        uint256 rawBalance = _rawBalances[_account];\n        uint256 boostedBalance = _boostedBalances[_account];\n        uint256 boost = MIN_BOOST;\n\n        // Check whether balance is sufficient\n        // is_boosted is used to minimize gas usage\n        if(rawBalance >= MIN_DEPOSIT) {\n            uint256 votingWeight = stakingContract.balanceOf(_account);\n            boost = _computeBoost(rawBalance, votingWeight);\n        }\n\n        uint256 newBoostedBalance = rawBalance.mulTruncate(boost);\n\n        if(newBoostedBalance != boostedBalance) {\n            _totalBoostedSupply = _totalBoostedSupply.sub(boostedBalance).add(newBoostedBalance);\n            _boostedBalances[_account] = newBoostedBalance;\n        }\n    }\n\n    /**\n     * @dev Computes the boost for\n     * boost = min(0.5 + c * voting_weight / deposit^(7/8), 1.5)\n     */\n    function _computeBoost(uint256 _deposit, uint256 _votingWeight)\n        private\n        pure\n        returns (uint256 boost)\n    {\n        if(_votingWeight == 0) return MIN_BOOST;\n\n        // Compute balance to the power 7/8\n        uint256 denominator = Root.sqrt(Root.sqrt(Root.sqrt(_deposit * 1e5)));\n        denominator = denominator.mul(\n            denominator.mul(\n                denominator.mul(\n                    denominator.mul(\n                        denominator.mul(\n                            denominator.mul(\n                                denominator)))))\n            );\n        denominator = denominator.div(1e3);\n        boost = _votingWeight.mul(BOOST_COEFF).div(10).divPrecisely(denominator);\n        boost = StableMath.min(\n            MIN_BOOST.add(boost),\n            MAX_BOOST\n        );\n    }\n}",
  "sourcePath": "/Volumes/sdxc/ETHEREUM/CODE/mStable-v1-edit/contracts/savings/BoostedTokenWrapper.sol",
  "compiler": {
    "name": "solc",
    "version": "0.5.16+commit.9c3226ce.Emscripten.clang"
  },
  "schemaVersion": "3.1.0",
  "updatedAt": "2021-03-11T05:43:16.043Z",
  "devdoc": {
    "author": "Stability Labs Pty. Ltd.",
    "details": "Forked from rewards/staking/StakingTokenWrapper.sol        Changes:         - Adding `_boostedBalances` and `_totalBoostedSupply`         - Implemting of a `_setBoost` hook to calculate/apply a users boost",
    "methods": {
      "balanceOf(address)": {
        "details": "Get the boosted balance of a given account",
        "params": {
          "_account": "User for which to retrieve balance"
        }
      },
      "getBoost(address)": {
        "details": "Read the boost for the given address",
        "params": {
          "_account": "User for which to return the boost"
        },
        "return": "boost where 1x == 1e18"
      },
      "rawBalanceOf(address)": {
        "details": "Get the RAW balance of a given account",
        "params": {
          "_account": "User for which to retrieve balance"
        }
      },
      "totalSupply()": {
        "details": "Get the total boosted amount",
        "return": "uint256 total supply"
      }
    },
    "title": "BoostedTokenWrapper"
  },
  "userdoc": {
    "methods": {},
    "notice": "Wrapper to facilitate tracking of staked balances, applying a boost"
  }
}