{
  "contractName": "ClaimableGovernor",
  "abi": [
    {
      "inputs": [
        {
          "internalType": "address",
          "name": "_governorAddr",
          "type": "address"
        }
      ],
      "payable": false,
      "stateMutability": "nonpayable",
      "type": "constructor"
    },
    {
      "anonymous": false,
      "inputs": [
        {
          "indexed": true,
          "internalType": "address",
          "name": "governor",
          "type": "address"
        },
        {
          "indexed": true,
          "internalType": "address",
          "name": "proposed",
          "type": "address"
        }
      ],
      "name": "GovernorChangeCancelled",
      "type": "event"
    },
    {
      "anonymous": false,
      "inputs": [
        {
          "indexed": true,
          "internalType": "address",
          "name": "proposedGovernor",
          "type": "address"
        }
      ],
      "name": "GovernorChangeClaimed",
      "type": "event"
    },
    {
      "anonymous": false,
      "inputs": [
        {
          "indexed": true,
          "internalType": "address",
          "name": "governor",
          "type": "address"
        },
        {
          "indexed": true,
          "internalType": "address",
          "name": "proposed",
          "type": "address"
        }
      ],
      "name": "GovernorChangeRequested",
      "type": "event"
    },
    {
      "anonymous": false,
      "inputs": [
        {
          "indexed": true,
          "internalType": "address",
          "name": "previousGovernor",
          "type": "address"
        },
        {
          "indexed": true,
          "internalType": "address",
          "name": "newGovernor",
          "type": "address"
        }
      ],
      "name": "GovernorChanged",
      "type": "event"
    },
    {
      "constant": true,
      "inputs": [],
      "name": "governor",
      "outputs": [
        {
          "internalType": "address",
          "name": "",
          "type": "address"
        }
      ],
      "payable": false,
      "stateMutability": "view",
      "type": "function"
    },
    {
      "constant": true,
      "inputs": [],
      "name": "isGovernor",
      "outputs": [
        {
          "internalType": "bool",
          "name": "",
          "type": "bool"
        }
      ],
      "payable": false,
      "stateMutability": "view",
      "type": "function"
    },
    {
      "constant": true,
      "inputs": [],
      "name": "proposedGovernor",
      "outputs": [
        {
          "internalType": "address",
          "name": "",
          "type": "address"
        }
      ],
      "payable": false,
      "stateMutability": "view",
      "type": "function"
    },
    {
      "constant": false,
      "inputs": [
        {
          "internalType": "address",
          "name": "",
          "type": "address"
        }
      ],
      "name": "changeGovernor",
      "outputs": [],
      "payable": false,
      "stateMutability": "nonpayable",
      "type": "function"
    },
    {
      "constant": false,
      "inputs": [
        {
          "internalType": "address",
          "name": "_proposedGovernor",
          "type": "address"
        }
      ],
      "name": "requestGovernorChange",
      "outputs": [],
      "payable": false,
      "stateMutability": "nonpayable",
      "type": "function"
    },
    {
      "constant": false,
      "inputs": [],
      "name": "cancelGovernorChange",
      "outputs": [],
      "payable": false,
      "stateMutability": "nonpayable",
      "type": "function"
    },
    {
      "constant": false,
      "inputs": [],
      "name": "claimGovernorChange",
      "outputs": [],
      "payable": false,
      "stateMutability": "nonpayable",
      "type": "function"
    }
  ],
  "bytecode": "0x6080604052600180546001600160a01b031916905534801561002057600080fd5b5060405161078e38038061078e8339818101604052602081101561004357600080fd5b5051600080546001600160a01b03191633178082556040516001600160a01b0391909116919060008051602061076e833981519152908290a361008e816001600160e01b0361009416565b50610138565b6001600160a01b0381166100ef576040805162461bcd60e51b815260206004820152601f60248201527f474f563a206e657720476f7665726e6f72206973206164647265737328302900604482015290519081900360640190fd5b600080546040516001600160a01b038085169392169160008051602061076e83398151915291a3600080546001600160a01b0319166001600160a01b0392909216919091179055565b610627806101476000396000f3fe608060405234801561001057600080fd5b506004361061007d5760003560e01c80638c33c19c1161005b5780638c33c19c146100d6578063ad339d7a146100de578063c7af3352146100e6578063e4c0aaf4146101025761007d565b8063099c47bc146100825780630c340a24146100aa5780638a11a370146100ce575b600080fd5b6100a86004803603602081101561009857600080fd5b50356001600160a01b0316610128565b005b6100b2610298565b604080516001600160a01b039092168252519081900360200190f35b6100b26102a7565b6100a86102b6565b6100a86103c7565b6100ee610485565b604080519115158252519081900360200190f35b6100a86004803603602081101561011857600080fd5b50356001600160a01b0316610496565b610130610485565b610181576040805162461bcd60e51b815260206004820152601f60248201527f474f563a2063616c6c6572206973206e6f742074686520476f7665726e6f7200604482015290519081900360640190fd5b6001600160a01b0381166101dc576040805162461bcd60e51b815260206004820152601f60248201527f50726f706f73656420676f7665726e6f72206973206164647265737328302900604482015290519081900360640190fd5b6001546001600160a01b03161561023a576040805162461bcd60e51b815260206004820152601d60248201527f50726f706f73656420676f7665726e6f7220616c726561647920736574000000604482015290519081900360640190fd5b600180546001600160a01b0319166001600160a01b038316908117909155610260610298565b6001600160a01b03167fa48c163cc46eb28aba8bdb525da18f15a83020cc18f439c933d79ea3ad9b50bb60405160405180910390a350565b6000546001600160a01b031690565b6001546001600160a01b031681565b6102be610485565b61030f576040805162461bcd60e51b815260206004820152601f60248201527f474f563a2063616c6c6572206973206e6f742074686520476f7665726e6f7200604482015290519081900360640190fd5b6001546001600160a01b031661036c576040805162461bcd60e51b815260206004820152601960248201527f50726f706f73656420476f7665726e6f72206e6f742073657400000000000000604482015290519081900360640190fd5b6001546001600160a01b0316610380610298565b6001600160a01b03167f2f7bb10f75b8694ea78291d7ca4c9f2a75bc45f0f97046164ad3ee984bdf4bba60405160405180910390a3600180546001600160a01b0319169055565b6001546001600160a01b03163314610426576040805162461bcd60e51b815260206004820152601f60248201527f53656e646572206973206e6f742070726f706f73656420676f7665726e6f7200604482015290519081900360640190fd5b60015461043b906001600160a01b031661053c565b6001546040516001600160a01b03909116907f0ad714cb5607f3b529b5d3292190925ae992a77b291e39ec09c390d4787896ba90600090a2600180546001600160a01b0319169055565b6000546001600160a01b0316331490565b61049e610485565b6104ef576040805162461bcd60e51b815260206004820152601f60248201527f474f563a2063616c6c6572206973206e6f742074686520476f7665726e6f7200604482015290519081900360640190fd5b6040805162461bcd60e51b815260206004820152601960248201527f446972656374206368616e6765206e6f7420616c6c6f77656400000000000000604482015290519081900360640190fd5b6001600160a01b038116610597576040805162461bcd60e51b815260206004820152601f60248201527f474f563a206e657720476f7665726e6f72206973206164647265737328302900604482015290519081900360640190fd5b600080546040516001600160a01b03808516939216917fde4b3f61490b74c0ed6237523974fe299126bbbf8a8a7482fd220104c59b0c8491a3600080546001600160a01b0319166001600160a01b039290921691909117905556fea265627a7a72315820c0eb0c009d795f863b42eca9741349dcdbee7e59a04e95f8f772124b5d90f97a64736f6c63430005100032de4b3f61490b74c0ed6237523974fe299126bbbf8a8a7482fd220104c59b0c84",
  "source": "pragma solidity 0.5.16;\n\nimport { Governable } from \"./Governable.sol\";\n\n/**\n * @title   ClaimableGovernor\n * @author  Stability Labs Pty. Ltd.\n * @notice  2 way handshake for Governance transfer\n * @dev     Overrides the public functions in Governable to provide\n * a second step of validation.\n */\ncontract ClaimableGovernor is Governable {\n\n    event GovernorChangeClaimed(address indexed proposedGovernor);\n    event GovernorChangeCancelled(address indexed governor, address indexed proposed);\n    event GovernorChangeRequested(address indexed governor, address indexed proposed);\n\n    address public proposedGovernor = address(0);\n\n    /**\n     * @dev Throws if called by any account other than the Proposed Governor.\n     */\n    modifier onlyProposedGovernor() {\n        require(msg.sender == proposedGovernor, \"Sender is not proposed governor\");\n        _;\n    }\n\n    constructor(address _governorAddr) public {\n        _changeGovernor(_governorAddr);\n    }\n\n    //@override\n    function changeGovernor(address) external onlyGovernor {\n        revert(\"Direct change not allowed\");\n    }\n\n    /**\n     * @dev Current Governor request to proposes a new Governor\n     * @param _proposedGovernor Address of the proposed Governor\n     */\n    function requestGovernorChange(address _proposedGovernor) public onlyGovernor {\n        require(_proposedGovernor != address(0), \"Proposed governor is address(0)\");\n        require(proposedGovernor == address(0), \"Proposed governor already set\");\n\n        proposedGovernor = _proposedGovernor;\n        emit GovernorChangeRequested(governor(), _proposedGovernor);\n    }\n\n    /**\n     * @dev Current Governor cancel Governor change request\n     */\n    function cancelGovernorChange() public onlyGovernor {\n        require(proposedGovernor != address(0), \"Proposed Governor not set\");\n\n        emit GovernorChangeCancelled(governor(), proposedGovernor);\n        proposedGovernor = address(0);\n    }\n\n    /**\n     * @dev Proposed Governor can claim governance ownership\n     */\n    function claimGovernorChange() public onlyProposedGovernor {\n        _changeGovernor(proposedGovernor);\n        emit GovernorChangeClaimed(proposedGovernor);\n        proposedGovernor = address(0);\n    }\n}\n",
  "sourcePath": "/Volumes/sdxc/ETHEREUM/CODE/mStable-v1-edit/contracts/governance/ClaimableGovernor.sol",
  "compiler": {
    "name": "solc",
    "version": "0.5.16+commit.9c3226ce.Emscripten.clang"
  },
  "schemaVersion": "3.1.0",
  "updatedAt": "2021-03-11T05:43:14.665Z",
  "devdoc": {
    "author": "Stability Labs Pty. Ltd.",
    "details": "Overrides the public functions in Governable to provide a second step of validation.",
    "methods": {
      "cancelGovernorChange()": {
        "details": "Current Governor cancel Governor change request"
      },
      "claimGovernorChange()": {
        "details": "Proposed Governor can claim governance ownership"
      },
      "governor()": {
        "details": "Returns the address of the current Governor."
      },
      "isGovernor()": {
        "details": "Returns true if the caller is the current Governor."
      },
      "requestGovernorChange(address)": {
        "details": "Current Governor request to proposes a new Governor",
        "params": {
          "_proposedGovernor": "Address of the proposed Governor"
        }
      }
    },
    "title": "ClaimableGovernor"
  },
  "userdoc": {
    "methods": {},
    "notice": "2 way handshake for Governance transfer"
  }
}