{
  "contractName": "Connector_yVault_mUSD3Pool",
  "abi": [
    {
      "inputs": [
        {
          "internalType": "address",
          "name": "_save",
          "type": "address"
        },
        {
          "internalType": "address",
          "name": "_yVault",
          "type": "address"
        },
        {
          "internalType": "address",
          "name": "_mUSD",
          "type": "address"
        }
      ],
      "payable": false,
      "stateMutability": "nonpayable",
      "type": "constructor"
    },
    {
      "constant": false,
      "inputs": [
        {
          "internalType": "uint256",
          "name": "_amt",
          "type": "uint256"
        }
      ],
      "name": "deposit",
      "outputs": [],
      "payable": false,
      "stateMutability": "nonpayable",
      "type": "function"
    },
    {
      "constant": false,
      "inputs": [
        {
          "internalType": "uint256",
          "name": "_amt",
          "type": "uint256"
        }
      ],
      "name": "withdraw",
      "outputs": [],
      "payable": false,
      "stateMutability": "nonpayable",
      "type": "function"
    },
    {
      "constant": false,
      "inputs": [],
      "name": "withdrawAll",
      "outputs": [],
      "payable": false,
      "stateMutability": "nonpayable",
      "type": "function"
    },
    {
      "constant": true,
      "inputs": [],
      "name": "checkBalance",
      "outputs": [
        {
          "internalType": "uint256",
          "name": "",
          "type": "uint256"
        }
      ],
      "payable": false,
      "stateMutability": "view",
      "type": "function"
    }
  ],
  "bytecode": "0x608060405234801561001057600080fd5b5060405161084d38038061084d8339818101604052606081101561003357600080fd5b508051602080830151604093840151600080546001600160a01b038087166001600160a01b0319928316178355600380548287169084168117909155600480549286169290931682178355885163095ea7b360e01b8152928301526000196024830152965195969395929463095ea7b39360448084019492939192918390030190829087803b1580156100c557600080fd5b505af11580156100d9573d6000803e3d6000fd5b505050506040513d60208110156100ef57600080fd5b505050505061074a806101036000396000f3fe608060405234801561001057600080fd5b506004361061004c5760003560e01c80632e1a7d4d14610051578063853828b614610070578063b6b55f2514610078578063c71daccb14610095575b600080fd5b61006e6004803603602081101561006757600080fd5b50356100af565b005b61006e610282565b61006e6004803603602081101561008e57600080fd5b50356102dd565b61009d610423565b60408051918252519081900360200190f35b6000546001600160a01b03163314610108576040805162461bcd60e51b81526020600482015260176024820152764f6e6c7920534156452063616e2063616c6c207468697360481b604482015290519081900360640190fd5b60035460408051631df1ee3f60e21b815290516000926001600160a01b0316916377c7b8fc916004808301926020929190829003018186803b15801561014d57600080fd5b505afa158015610161573d6000803e3d6000fd5b505050506040513d602081101561017757600080fd5b50519050600061018d838363ffffffff61053616565b60035460408051632e1a7d4d60e01b81526004810184905290519293506001600160a01b0390911691632e1a7d4d9160248082019260009290919082900301818387803b1580156101dd57600080fd5b505af11580156101f1573d6000803e3d6000fd5b505060048054600080546040805163a9059cbb60e01b81526001600160a01b0392831695810195909552602485018a9052519216945063a9059cbb9350604480840193602093929083900390910190829087803b15801561025157600080fd5b505af1158015610265573d6000803e3d6000fd5b505050506040513d602081101561027b57600080fd5b5050505050565b6000546001600160a01b031633146102db576040805162461bcd60e51b81526020600482015260176024820152764f6e6c7920534156452063616e2063616c6c207468697360481b604482015290519081900360640190fd5b565b6000546001600160a01b03163314610336576040805162461bcd60e51b81526020600482015260176024820152764f6e6c7920534156452063616e2063616c6c207468697360481b604482015290519081900360640190fd5b6004805460008054604080516323b872dd60e01b81526001600160a01b039283169581019590955230602486015260448501869052519216926323b872dd9260648083019360209383900390910190829087803b15801561039657600080fd5b505af11580156103aa573d6000803e3d6000fd5b505050506040513d60208110156103c057600080fd5b50506003546040805163b6b55f2560e01b81526004810184905290516001600160a01b039092169163b6b55f259160248082019260009290919082900301818387803b15801561040f57600080fd5b505af115801561027b573d6000803e3d6000fd5b600080600360009054906101000a90046001600160a01b03166001600160a01b03166377c7b8fc6040518163ffffffff1660e01b815260040160206040518083038186803b15801561047457600080fd5b505afa158015610488573d6000803e3d6000fd5b505050506040513d602081101561049e57600080fd5b5051600354604080516370a0823160e01b815230600482015290519293506000926001600160a01b03909216916370a0823191602480820192602092909190829003018186803b1580156104f157600080fd5b505afa158015610505573d6000803e3d6000fd5b505050506040513d602081101561051b57600080fd5b5051905061052f818363ffffffff61056d16565b9250505090565b60008061055184670de0b6b3a764000063ffffffff61058916565b9050610563818463ffffffff6105e216565b9150505b92915050565b60006105828383670de0b6b3a7640000610624565b9392505050565b60008261059857506000610567565b828202828482816105a557fe5b04146105825760405162461bcd60e51b81526004018080602001828103825260218152602001806106f56021913960400191505060405180910390fd5b600061058283836040518060400160405280601a81526020017f536166654d6174683a206469766973696f6e206279207a65726f000000000000815250610652565b600080610637858563ffffffff61058916565b9050610649818463ffffffff6105e216565b95945050505050565b600081836106de5760405162461bcd60e51b81526004018080602001828103825283818151815260200191508051906020019080838360005b838110156106a357818101518382015260200161068b565b50505050905090810190601f1680156106d05780820380516001836020036101000a031916815260200191505b509250505060405180910390fd5b5060008385816106ea57fe5b049594505050505056fe536166654d6174683a206d756c7469706c69636174696f6e206f766572666c6f77a265627a7a72315820e2c97d8a8b5dedbf9b5c8a081e25a3e453746f0a8e7b7f86c877020a11d6460264736f6c63430005100032",
  "source": "pragma solidity 0.5.16;\n\nimport { IERC20, ERC20 } from \"@openzeppelin/contracts/token/ERC20/ERC20.sol\";\nimport { IConnector } from \"../../savings/peripheral/IConnector.sol\";\nimport { StableMath, SafeMath } from \"../../shared/StableMath.sol\";\n\ncontract IyVault is ERC20 {\n\n    function deposit(uint256 _amount) public;\n    function depositAll() external;\n\n    function withdraw(uint256 _shares) public;\n    function withdrawAll() external;\n\n    function getPricePerFullShare() public view returns (uint256);\n}\n\ncontract ICurve_DepositMUSD {\n    function add_liquidity(uint256[] calldata amounts, uint256 min_mint_amount) external;\n    function remove_liquidity_one_coin(uint256 _token_amount, int128 i, uint256 min_amount) external;\n}\n\ncontract ICurve_ExchangeMUSD {\n    function get_virtual_price() external view returns(uint256);\n}\n\n// TODO - Complete implementation and ensure flash loan proof\ncontract Connector_yVault_mUSD3Pool is IConnector {\n\n    using StableMath for uint256;\n    using SafeMath for uint256;\n\n    address save;\n    address curve_deposit;\n    address curve_exchange;\n    address yVault;\n    address mUSD;\n\n    constructor(\n        address _save, // constant\n        address _yVault, // constant\n        address _mUSD // constant\n    ) public {\n        save = _save;\n        yVault = _yVault;\n        mUSD = _mUSD;\n        IERC20(_mUSD).approve(_yVault, uint256(-1));\n    }\n\n    modifier onlySave() {\n        require(save == msg.sender, \"Only SAVE can call this\");\n        _;\n    }\n\n    // Steps:\n    //  - Deposit mUSD in curve_deposit\n    //  - Deposit mUSD3Pool LP into yVault\n    // https://github.com/iearn-finance/yearn-protocol/blob/develop/contracts/strategies/StrategyUSDT3pool.sol#L78\n    function deposit(uint256 _amt) external onlySave {\n        // TODO - if using bild pool LP token, account for coordinated flash loan scenario\n        IERC20(mUSD).transferFrom(save, address(this), _amt);\n        IyVault(yVault).deposit(_amt);\n    }\n\n    // Steps:\n    //  - Withdraw mUSD3Pool LP from yVault\n    //  - Withdraw mUSD from in curve_deposit\n    function withdraw(uint256 _amt) external onlySave {\n        // TODO - if using bild pool LP token, account for coordinated flash loan scenario\n        // amount = shares * sharePrice\n        // shares = amount / sharePrice\n        uint256 sharePrice = IyVault(yVault).getPricePerFullShare();\n        uint256 sharesToWithdraw = _amt.divPrecisely(sharePrice);\n        IyVault(yVault).withdraw(sharesToWithdraw);\n        IERC20(mUSD).transfer(save, _amt);\n    }\n\n    function withdrawAll() external onlySave {\n        // getBalanceOf shares\n        // withdraw all\n        // send all to save\n    }\n\n    // Steps:\n    //  - Get total mUSD3Pool balance held in yVault\n    //    - Get yVault share balance\n    //    - Get yVault share to mUSD3Pool ratio\n    //  - Get exchange rate between mUSD3Pool LP and mUSD (virtual price?)\n    // To consider: if using virtual price, and mUSD is initially traded at a discount,\n    // then depositing 10k mUSD is likely to net a virtual amount of 9.97k or so. Can either take\n    // a deficit to begin with, or track the amount of units deposited\n    function checkBalance() external view returns (uint256) {\n        // TODO - if using bild pool LP token, account for coordinated flash loan scenario\n        uint256 sharePrice = IyVault(yVault).getPricePerFullShare();\n        uint256 shares = IERC20(yVault).balanceOf(address(this));\n        return shares.mulTruncate(sharePrice);\n    }\n\n    function _shareToMUSDRate() internal view returns (uint256) {\n        // mUSD3Pool LP balance = shares * sharePrice\n        // USD value = mUSD3Pool LP * virtual price\n    }\n}",
  "sourcePath": "/Volumes/sdxc/ETHEREUM/CODE/mStable-v1-edit/contracts/z_mocks/savings/Connector_yVault_mUSD3Pool.sol",
  "compiler": {
    "name": "solc",
    "version": "0.5.16+commit.9c3226ce.Emscripten.clang"
  },
  "schemaVersion": "3.1.0",
  "updatedAt": "2021-03-11T05:43:17.140Z",
  "devdoc": {
    "methods": {}
  },
  "userdoc": {
    "methods": {}
  }
}