{
  "contractName": "DeadIntegration",
  "abi": [
    {
      "constant": false,
      "inputs": [
        {
          "internalType": "address",
          "name": "",
          "type": "address"
        }
      ],
      "name": "checkBalance",
      "outputs": [
        {
          "internalType": "uint256",
          "name": "balance",
          "type": "uint256"
        }
      ],
      "payable": false,
      "stateMutability": "nonpayable",
      "type": "function"
    }
  ],
  "bytecode": "0x6080604052348015600f57600080fd5b50609d8061001e6000396000f3fe6080604052348015600f57600080fd5b506004361060285760003560e01c80635f51522614602d575b600080fd5b605060048036036020811015604157600080fd5b50356001600160a01b03166062565b60408051918252519081900360200190f35b5060009056fea265627a7a7231582035047fab24500884cdf9408abf15b379985ab629533d9470abfef779fe57899a64736f6c63430005100032",
  "source": "pragma solidity 0.5.16;\n\n\n\n/**\n * @dev This file is used purely to allow the instantiation of BasketManagers\n * initialize function with dead data. This stops attackers calling the func\n * and initializing the contract with data. Even though this is the implementation\n * contract of a proxy and the storage will not be used.\n */\ncontract DeadIntegration {\n\n    function checkBalance(address /*_bAsset*/) external returns (uint256 balance) {\n        return 0;\n    }\n}",
  "sourcePath": "/Volumes/sdxc/ETHEREUM/CODE/mStable-v1-edit/contracts/z_mocks/mix/platform-integrations/DeadIntegration.sol",
  "compiler": {
    "name": "solc",
    "version": "0.5.16+commit.9c3226ce.Emscripten.clang"
  },
  "schemaVersion": "3.1.0",
  "updatedAt": "2021-03-11T05:43:16.631Z",
  "devdoc": {
    "details": "This file is used purely to allow the instantiation of BasketManagers initialize function with dead data. This stops attackers calling the func and initializing the contract with data. Even though this is the implementation contract of a proxy and the storage will not be used.",
    "methods": {}
  },
  "userdoc": {
    "methods": {}
  }
}