{
  "contractName": "DelayedProxyAdmin",
  "abi": [
    {
      "inputs": [
        {
          "internalType": "address",
          "name": "_nexus",
          "type": "address"
        }
      ],
      "payable": false,
      "stateMutability": "nonpayable",
      "type": "constructor"
    },
    {
      "anonymous": false,
      "inputs": [
        {
          "indexed": true,
          "internalType": "address",
          "name": "proxy",
          "type": "address"
        }
      ],
      "name": "UpgradeCancelled",
      "type": "event"
    },
    {
      "anonymous": false,
      "inputs": [
        {
          "indexed": true,
          "internalType": "address",
          "name": "proxy",
          "type": "address"
        },
        {
          "indexed": false,
          "internalType": "address",
          "name": "implementation",
          "type": "address"
        },
        {
          "indexed": false,
          "internalType": "bytes",
          "name": "data",
          "type": "bytes"
        }
      ],
      "name": "UpgradeProposed",
      "type": "event"
    },
    {
      "anonymous": false,
      "inputs": [
        {
          "indexed": true,
          "internalType": "address",
          "name": "proxy",
          "type": "address"
        },
        {
          "indexed": false,
          "internalType": "address",
          "name": "oldImpl",
          "type": "address"
        },
        {
          "indexed": false,
          "internalType": "address",
          "name": "newImpl",
          "type": "address"
        },
        {
          "indexed": false,
          "internalType": "bytes",
          "name": "data",
          "type": "bytes"
        }
      ],
      "name": "Upgraded",
      "type": "event"
    },
    {
      "constant": true,
      "inputs": [],
      "name": "UPGRADE_DELAY",
      "outputs": [
        {
          "internalType": "uint256",
          "name": "",
          "type": "uint256"
        }
      ],
      "payable": false,
      "stateMutability": "view",
      "type": "function"
    },
    {
      "constant": true,
      "inputs": [],
      "name": "nexus",
      "outputs": [
        {
          "internalType": "contract INexus",
          "name": "",
          "type": "address"
        }
      ],
      "payable": false,
      "stateMutability": "view",
      "type": "function"
    },
    {
      "constant": true,
      "inputs": [
        {
          "internalType": "address",
          "name": "",
          "type": "address"
        }
      ],
      "name": "requests",
      "outputs": [
        {
          "internalType": "address",
          "name": "implementation",
          "type": "address"
        },
        {
          "internalType": "bytes",
          "name": "data",
          "type": "bytes"
        },
        {
          "internalType": "uint256",
          "name": "timestamp",
          "type": "uint256"
        }
      ],
      "payable": false,
      "stateMutability": "view",
      "type": "function"
    },
    {
      "constant": false,
      "inputs": [
        {
          "internalType": "address",
          "name": "_proxy",
          "type": "address"
        },
        {
          "internalType": "address",
          "name": "_implementation",
          "type": "address"
        },
        {
          "internalType": "bytes",
          "name": "_data",
          "type": "bytes"
        }
      ],
      "name": "proposeUpgrade",
      "outputs": [],
      "payable": false,
      "stateMutability": "nonpayable",
      "type": "function"
    },
    {
      "constant": false,
      "inputs": [
        {
          "internalType": "address",
          "name": "_proxy",
          "type": "address"
        }
      ],
      "name": "cancelUpgrade",
      "outputs": [],
      "payable": false,
      "stateMutability": "nonpayable",
      "type": "function"
    },
    {
      "constant": false,
      "inputs": [
        {
          "internalType": "address payable",
          "name": "_proxy",
          "type": "address"
        }
      ],
      "name": "acceptUpgradeRequest",
      "outputs": [],
      "payable": true,
      "stateMutability": "payable",
      "type": "function"
    },
    {
      "constant": true,
      "inputs": [
        {
          "internalType": "address",
          "name": "_proxy",
          "type": "address"
        }
      ],
      "name": "getProxyAdmin",
      "outputs": [
        {
          "internalType": "address",
          "name": "",
          "type": "address"
        }
      ],
      "payable": false,
      "stateMutability": "view",
      "type": "function"
    },
    {
      "constant": true,
      "inputs": [
        {
          "internalType": "address",
          "name": "_proxy",
          "type": "address"
        }
      ],
      "name": "getProxyImplementation",
      "outputs": [
        {
          "internalType": "address",
          "name": "",
          "type": "address"
        }
      ],
      "payable": false,
      "stateMutability": "view",
      "type": "function"
    }
  ],
  "bytecode": "0x608060405234801561001057600080fd5b5060405161117f38038061117f8339818101604052602081101561003357600080fd5b5051806001600160a01b038116610091576040805162461bcd60e51b815260206004820152601560248201527f4e65787573206973207a65726f20616464726573730000000000000000000000604482015290519081900360640190fd5b600080546001600160a01b039092166001600160a01b0319909216919091179055506110bd806100c26000396000f3fe60806040526004361061007b5760003560e01c8063a3f5c1d21161004e578063a3f5c1d2146101df578063c44fb8ec146101f4578063c72eeaba14610227578063f3b7dead146102bd5761007b565b8063204e1c7a1461008057806347fe8b1d146100cf57806374adad1d146100f6578063912f061f146101b7575b600080fd5b34801561008c57600080fd5b506100b3600480360360208110156100a357600080fd5b50356001600160a01b03166102f0565b604080516001600160a01b039092168252519081900360200190f35b3480156100db57600080fd5b506100e46103ba565b60408051918252519081900360200190f35b34801561010257600080fd5b506101296004803603602081101561011957600080fd5b50356001600160a01b03166103c1565b604080516001600160a01b0385168152908101829052606060208083018281528551928401929092528451608084019186019080838360005b8381101561017a578181015183820152602001610162565b50505050905090810190601f1680156101a75780820380516001836020036101000a031916815260200191505b5094505050505060405180910390f35b6101dd600480360360208110156101cd57600080fd5b50356001600160a01b031661047a565b005b3480156101eb57600080fd5b506100b3610933565b34801561020057600080fd5b506101dd6004803603602081101561021757600080fd5b50356001600160a01b0316610942565b34801561023357600080fd5b506101dd6004803603606081101561024a57600080fd5b6001600160a01b03823581169260208101359091169181019060608101604082013564010000000081111561027e57600080fd5b82018360208201111561029057600080fd5b803590602001918460018302840111640100000000831117156102b257600080fd5b509092509050610ad3565b3480156102c957600080fd5b506100b3600480360360208110156102e057600080fd5b50356001600160a01b0316610d22565b6000806060836001600160a01b03166040518080635c60da1b60e01b8152506004019050600060405180830381855afa9150503d806000811461034f576040519150601f19603f3d011682016040523d82523d6000602084013e610354565b606091505b509150915081610399576040805162461bcd60e51b815260206004820152600b60248201526a10d85b1b0819985a5b195960aa1b604482015290519081900360640190fd5b8080602001905160208110156103ae57600080fd5b5051925050505b919050565b62093a8081565b600160208181526000928352604092839020805481840180548651600261010097831615979097026000190190911695909504601f81018590048502860185019096528585526001600160a01b039091169491939290919083018282801561046a5780601f1061043f5761010080835404028352916020019161046a565b820191906000526020600020905b81548152906001019060200180831161044d57829003601f168201915b5050505050908060020154905083565b610482610d81565b6001600160a01b0316336001600160a01b0316146104e3576040805162461bcd60e51b81526020600482015260196024820152784f6e6c7920676f7665726e6f722063616e206578656375746560381b604482015290519081900360640190fd5b6001600160a01b038116610536576040805162461bcd60e51b815260206004820152601560248201527450726f78792061646472657373206973207a65726f60581b604482015290519081900360640190fd5b61053e610f7f565b6001600160a01b0382811660009081526001602081815260409283902083516060810185528154909516855280830180548551600261010096831615969096026000190190911694909404601f8101849004840285018401909552848452909385830193928301828280156105f45780601f106105c9576101008083540402835291602001916105f4565b820191906000526020600020905b8154815290600101906020018083116105d757829003601f168201915b5050505050815260200160028201548152505090506106168160400151610e02565b610658576040805162461bcd60e51b815260206004820152600e60248201526d2232b630bc903737ba1037bb32b960911b604482015290519081900360640190fd5b80516020820151600061066a856102f0565b6001600160a01b0386166000908152600160208190526040822080546001600160a01b03191681559293506106a190830182610fa9565b506000600291909101558151610779573415610704576040805162461bcd60e51b815260206004820152601860248201527f6d73672e76616c75652073686f756c64206265207a65726f0000000000000000604482015290519081900360640190fd5b846001600160a01b0316633659cfe6846040518263ffffffff1660e01b815260040180826001600160a01b03166001600160a01b03168152602001915050600060405180830381600087803b15801561075c57600080fd5b505af1158015610770573d6000803e3d6000fd5b50505050610855565b846001600160a01b0316634f1ef2863485856040518463ffffffff1660e01b815260040180836001600160a01b03166001600160a01b0316815260200180602001828103825283818151815260200191508051906020019080838360005b838110156107ef5781810151838201526020016107d7565b50505050905090810190601f16801561081c5780820380516001836020036101000a031916815260200191505b5093505050506000604051808303818588803b15801561083b57600080fd5b505af115801561084f573d6000803e3d6000fd5b50505050505b846001600160a01b03167f05c037a2fdcf968f427b340f3c2caf5c895089d972c63bbfd4046aae1e21cc1582858560405180846001600160a01b03166001600160a01b03168152602001836001600160a01b03166001600160a01b0316815260200180602001828103825283818151815260200191508051906020019080838360005b838110156108f05781810151838201526020016108d8565b50505050905090810190601f16801561091d5780820380516001836020036101000a031916815260200191505b5094505050505060405180910390a25050505050565b6000546001600160a01b031681565b61094a610d81565b6001600160a01b0316336001600160a01b0316146109ab576040805162461bcd60e51b81526020600482015260196024820152784f6e6c7920676f7665726e6f722063616e206578656375746560381b604482015290519081900360640190fd5b6001600160a01b0381166109fe576040805162461bcd60e51b815260206004820152601560248201527450726f78792061646472657373206973207a65726f60581b604482015290519081900360640190fd5b6001600160a01b0381811660009081526001602052604090205416610a5d576040805162461bcd60e51b815260206004820152601060248201526f139bc81c995c5d595cdd08199bdd5b9960821b604482015290519081900360640190fd5b6001600160a01b0381166000908152600160208190526040822080546001600160a01b03191681559190610a9390830182610fa9565b5060006002919091018190556040516001600160a01b038316917f3198dc80249fcfedbd0d06e1ff49a7695a51b006592328ce0b127cdeab77e93691a250565b610adb610d81565b6001600160a01b0316336001600160a01b031614610b3c576040805162461bcd60e51b81526020600482015260196024820152784f6e6c7920676f7665726e6f722063616e206578656375746560381b604482015290519081900360640190fd5b6001600160a01b038416610b8f576040805162461bcd60e51b815260206004820152601560248201527450726f78792061646472657373206973207a65726f60581b604482015290519081900360640190fd5b6001600160a01b038316610bea576040805162461bcd60e51b815260206004820152601e60248201527f496d706c656d656e746174696f6e2061646472657373206973207a65726f0000604482015290519081900360640190fd5b6001600160a01b038481166000908152600160205260409020541615610c57576040805162461bcd60e51b815260206004820152601860248201527f5570677261646520616c72656164792070726f706f7365640000000000000000604482015290519081900360640190fd5b610c618484610e3a565b6001600160a01b03848116600090815260016020819052604090912080546001600160a01b031916928616929092178255610c9f9082018484610ff0565b50426002820155604080516001600160a01b038681168252602082018381529282018590528716917f291fbf65f4d270fdeb17bef05df6c8d87b6ca5f0f4388d92766d0da38c932d199187918791879160608201848480828437600083820152604051601f909101601f1916909201829003965090945050505050a25050505050565b6000806060836001600160a01b031660405180806303e1469160e61b8152506004019050600060405180830381855afa9150503d806000811461034f576040519150601f19603f3d011682016040523d82523d6000602084013e610354565b60008060009054906101000a90046001600160a01b03166001600160a01b0316630c340a246040518163ffffffff1660e01b815260040160206040518083038186803b158015610dd057600080fd5b505afa158015610de4573d6000803e3d6000fd5b505050506040513d6020811015610dfa57600080fd5b505190505b90565b60008082118015610e255750610e218262093a8063ffffffff610f1e16565b4210155b15610e32575060016103b5565b506000919050565b6000610e45836102f0565b9050806001600160a01b0316826001600160a01b03161415610eae576040805162461bcd60e51b815260206004820181905260248201527f496d706c656d656e746174696f6e206d75737420626520646966666572656e74604482015290519081900360640190fd5b6000610eb984610d22565b90506001600160a01b0381163014610f18576040805162461bcd60e51b815260206004820152601760248201527f50726f78792061646d696e206e6f74206d617463686564000000000000000000604482015290519081900360640190fd5b50505050565b600082820183811015610f78576040805162461bcd60e51b815260206004820152601b60248201527f536166654d6174683a206164646974696f6e206f766572666c6f770000000000604482015290519081900360640190fd5b9392505050565b604051806060016040528060006001600160a01b0316815260200160608152602001600081525090565b50805460018160011615610100020316600290046000825580601f10610fcf5750610fed565b601f016020900490600052602060002090810190610fed919061106e565b50565b828054600181600116156101000203166002900490600052602060002090601f016020900481019282601f106110315782800160ff1982351617855561105e565b8280016001018555821561105e579182015b8281111561105e578235825591602001919060010190611043565b5061106a92915061106e565b5090565b610dff91905b8082111561106a576000815560010161107456fea265627a7a72315820034e152173131ac3b33bd7b90db466241c25aea9e7ce15038b6d5f6ffcc0689d64736f6c63430005100032",
  "source": "pragma solidity 0.5.16;\n\nimport { Module } from \"../shared/Module.sol\";\nimport { SafeMath } from \"@openzeppelin/contracts/math/SafeMath.sol\";\nimport { AdminUpgradeabilityProxy } from \"@openzeppelin/upgrades/contracts/upgradeability/AdminUpgradeabilityProxy.sol\";\n\n/**\n * @title   DelayedProxyAdmin\n * @author  Stability Labs Pty. Ltd.\n * @notice  Proxy admin contract to upgrade the upgradable contracts. The upgradable contracts\n *          are transparent proxy contracts from OpenZeppelin-SDK.\n * @dev     The contract has a delyed upgradability. The Governor can propose a new implementation\n *          for a proxy contract. After 1 week of opt-out delay, upgrade request can be accepted\n *          and upgrade of contract is performed.\n *          Part of the code taken from OpenZeppelin-SDK's ProxyAdmin.sol\n */\ncontract DelayedProxyAdmin is Module {\n    using SafeMath for uint256;\n\n    event UpgradeProposed(address indexed proxy, address implementation, bytes data);\n    event UpgradeCancelled(address indexed proxy);\n    event Upgraded(address indexed proxy, address oldImpl, address newImpl, bytes data);\n\n    // Request struct to store proposed upgrade requests\n    struct Request{\n        address implementation; // New contract implementation address\n        bytes data;             // Data to call a function on new contract implementation\n        uint256 timestamp;      // Timestamp when upgrade request is proposed\n    }\n\n    // Opt-out upgrade delay\n    uint256 public constant UPGRADE_DELAY = 1 weeks;\n\n    // ProxyAddress => Request\n    mapping(address => Request) public requests;\n\n    /**\n     * @dev Constructor\n     * @param _nexus Nexus contract address\n     */\n    constructor(address _nexus) public Module(_nexus) {}\n\n    /**\n     * @dev The Governor can propose a new contract implementation for a given proxy.\n     * @param _proxy Proxy address which is to be upgraded\n     * @param _implementation Contract address of new implementation\n     * @param _data calldata to execute initialization function upon upgrade\n     */\n    function proposeUpgrade(\n        address _proxy,\n        address _implementation,\n        bytes calldata _data\n    )\n        external\n        onlyGovernor\n    {\n        require(_proxy != address(0), \"Proxy address is zero\");\n        require(_implementation != address(0), \"Implementation address is zero\");\n        require(requests[_proxy].implementation == address(0), \"Upgrade already proposed\");\n        validateProxy(_proxy, _implementation);\n\n        Request storage request = requests[_proxy];\n        request.implementation = _implementation;\n        request.data = _data;\n        request.timestamp = now;\n\n        emit UpgradeProposed(_proxy, _implementation, _data);\n    }\n\n    /**\n     * @dev The Governor can cancel any existing upgrade request.\n     * @param _proxy The proxy address of the existing request\n     */\n    function cancelUpgrade(address _proxy) external onlyGovernor {\n        require(_proxy != address(0), \"Proxy address is zero\");\n        require(requests[_proxy].implementation != address(0), \"No request found\");\n        delete requests[_proxy];\n        emit UpgradeCancelled(_proxy);\n    }\n\n    /**\n     * @dev The Governor can accept upgrade request after opt-out delay over. The function is\n     *      `payable`, to forward ETH to initialize function call upon upgrade.\n     * @param _proxy The address of the proxy\n     */\n    function acceptUpgradeRequest(address payable _proxy) external payable onlyGovernor {\n        // _proxy is payable, because AdminUpgradeabilityProxy has fallback function\n        require(_proxy != address(0), \"Proxy address is zero\");\n        Request memory request = requests[_proxy];\n        require(_isDelayOver(request.timestamp), \"Delay not over\");\n\n        address newImpl = request.implementation;\n        bytes memory data = request.data;\n\n        address oldImpl = getProxyImplementation(_proxy);\n\n        // Deleting before to avoid re-entrancy\n        delete requests[_proxy];\n\n        if(data.length == 0) {\n            require(msg.value == 0, \"msg.value should be zero\");\n            AdminUpgradeabilityProxy(_proxy).upgradeTo(newImpl);\n        } else {\n            AdminUpgradeabilityProxy(_proxy).upgradeToAndCall.value(msg.value)(newImpl, data);\n        }\n\n        emit Upgraded(_proxy, oldImpl, newImpl, data);\n    }\n\n    /**\n     * @dev Checks that the opt-out delay is over\n     * @param _timestamp Timestamp when upgrade requested\n     * @return Returns `true` when upgrade delay is over, otherwise `false`\n     */\n    function _isDelayOver(uint256 _timestamp) private view returns (bool) {\n        if(_timestamp > 0 && now >= _timestamp.add(UPGRADE_DELAY))\n            return true;\n        return false;\n    }\n\n    /**\n     * @dev Checks the given proxy address is a valid proxy for this contract\n     * @param _proxy The address of the proxy\n     * @param _newImpl New implementation contract address\n     */\n    function validateProxy(address _proxy, address _newImpl) internal view {\n        // Proxy has an implementation\n        address currentImpl = getProxyImplementation(_proxy);\n\n        // Existing implementation must not be same as new one\n        require(_newImpl != currentImpl, \"Implementation must be different\");\n\n        // This contract is the Proxy admin of the given _proxy address\n        address admin = getProxyAdmin(_proxy);\n        require(admin == address(this), \"Proxy admin not matched\");\n    }\n\n    /**\n     * @dev Returns the admin of a proxy. Only the admin can query it.\n     * @param _proxy Contract address of Proxy\n     * @return The address of the current admin of the proxy.\n     */\n    function getProxyAdmin(address _proxy) public view returns (address) {\n        // We need to manually run the static call since the getter cannot be flagged as view\n        // bytes4(keccak256(\"admin()\")) == 0xf851a440\n        (bool success, bytes memory returndata) = _proxy.staticcall(hex\"f851a440\");\n        require(success, \"Call failed\");\n        return abi.decode(returndata, (address));\n    }\n\n    /**\n     * @dev Returns the current implementation of a proxy.\n     * This is needed because only the proxy admin can query it.\n     * @param _proxy Contract address of Proxy\n     * @return The address of the current implementation of the proxy.\n     */\n    function getProxyImplementation(address _proxy) public view returns (address) {\n        // We need to manually run the static call since the getter cannot be flagged as view\n        // bytes4(keccak256(\"implementation()\")) == 0x5c60da1b\n        (bool success, bytes memory returndata) = _proxy.staticcall(hex\"5c60da1b\");\n        require(success, \"Call failed\");\n        return abi.decode(returndata, (address));\n    }\n\n    // NOTICE: This can be removed. However, kept it for us to remind that we are not calling this fn.\n    // We are not allowing this function call from Governor or Governance.\n    /**\n    * @dev Changes the admin of a proxy.\n    * @param proxy Proxy to change admin.\n    * @param newAdmin Address to transfer proxy administration to.\n    */\n    // function changeProxyAdmin(AdminUpgradeabilityProxy proxy, address newAdmin) public onlyGovernor {\n    //     proxy.changeAdmin(newAdmin);\n    // }\n}",
  "sourcePath": "/Volumes/sdxc/ETHEREUM/CODE/mStable-v1-edit/contracts/upgradability/DelayedProxyAdmin.sol",
  "compiler": {
    "name": "solc",
    "version": "0.5.16+commit.9c3226ce.Emscripten.clang"
  },
  "schemaVersion": "3.1.0",
  "updatedAt": "2021-03-11T05:43:16.375Z",
  "devdoc": {
    "author": "Stability Labs Pty. Ltd.",
    "details": "The contract has a delyed upgradability. The Governor can propose a new implementation         for a proxy contract. After 1 week of opt-out delay, upgrade request can be accepted         and upgrade of contract is performed.         Part of the code taken from OpenZeppelin-SDK's ProxyAdmin.sol",
    "methods": {
      "acceptUpgradeRequest(address)": {
        "details": "The Governor can accept upgrade request after opt-out delay over. The function is     `payable`, to forward ETH to initialize function call upon upgrade.",
        "params": {
          "_proxy": "The address of the proxy"
        }
      },
      "cancelUpgrade(address)": {
        "details": "The Governor can cancel any existing upgrade request.",
        "params": {
          "_proxy": "The proxy address of the existing request"
        }
      },
      "constructor": {
        "details": "Constructor",
        "params": {
          "_nexus": "Nexus contract address"
        }
      },
      "getProxyAdmin(address)": {
        "details": "Returns the admin of a proxy. Only the admin can query it.",
        "params": {
          "_proxy": "Contract address of Proxy"
        },
        "return": "The address of the current admin of the proxy."
      },
      "getProxyImplementation(address)": {
        "details": "Returns the current implementation of a proxy. This is needed because only the proxy admin can query it.",
        "params": {
          "_proxy": "Contract address of Proxy"
        },
        "return": "The address of the current implementation of the proxy."
      },
      "proposeUpgrade(address,address,bytes)": {
        "details": "The Governor can propose a new contract implementation for a given proxy.",
        "params": {
          "_data": "calldata to execute initialization function upon upgrade",
          "_implementation": "Contract address of new implementation",
          "_proxy": "Proxy address which is to be upgraded"
        }
      }
    },
    "title": "DelayedProxyAdmin"
  },
  "userdoc": {
    "methods": {},
    "notice": "Proxy admin contract to upgrade the upgradable contracts. The upgradable contracts         are transparent proxy contracts from OpenZeppelin-SDK."
  }
}