{
  "contractName": "DelayedClaimableGovernor",
  "abi": [
    {
      "inputs": [
        {
          "internalType": "address",
          "name": "_governorAddr",
          "type": "address"
        },
        {
          "internalType": "uint256",
          "name": "_delay",
          "type": "uint256"
        }
      ],
      "payable": false,
      "stateMutability": "nonpayable",
      "type": "constructor"
    },
    {
      "anonymous": false,
      "inputs": [
        {
          "indexed": true,
          "internalType": "address",
          "name": "governor",
          "type": "address"
        },
        {
          "indexed": true,
          "internalType": "address",
          "name": "proposed",
          "type": "address"
        }
      ],
      "name": "GovernorChangeCancelled",
      "type": "event"
    },
    {
      "anonymous": false,
      "inputs": [
        {
          "indexed": true,
          "internalType": "address",
          "name": "proposedGovernor",
          "type": "address"
        }
      ],
      "name": "GovernorChangeClaimed",
      "type": "event"
    },
    {
      "anonymous": false,
      "inputs": [
        {
          "indexed": true,
          "internalType": "address",
          "name": "governor",
          "type": "address"
        },
        {
          "indexed": true,
          "internalType": "address",
          "name": "proposed",
          "type": "address"
        }
      ],
      "name": "GovernorChangeRequested",
      "type": "event"
    },
    {
      "anonymous": false,
      "inputs": [
        {
          "indexed": true,
          "internalType": "address",
          "name": "previousGovernor",
          "type": "address"
        },
        {
          "indexed": true,
          "internalType": "address",
          "name": "newGovernor",
          "type": "address"
        }
      ],
      "name": "GovernorChanged",
      "type": "event"
    },
    {
      "constant": false,
      "inputs": [
        {
          "internalType": "address",
          "name": "",
          "type": "address"
        }
      ],
      "name": "changeGovernor",
      "outputs": [],
      "payable": false,
      "stateMutability": "nonpayable",
      "type": "function"
    },
    {
      "constant": true,
      "inputs": [],
      "name": "delay",
      "outputs": [
        {
          "internalType": "uint256",
          "name": "",
          "type": "uint256"
        }
      ],
      "payable": false,
      "stateMutability": "view",
      "type": "function"
    },
    {
      "constant": true,
      "inputs": [],
      "name": "governor",
      "outputs": [
        {
          "internalType": "address",
          "name": "",
          "type": "address"
        }
      ],
      "payable": false,
      "stateMutability": "view",
      "type": "function"
    },
    {
      "constant": true,
      "inputs": [],
      "name": "isGovernor",
      "outputs": [
        {
          "internalType": "bool",
          "name": "",
          "type": "bool"
        }
      ],
      "payable": false,
      "stateMutability": "view",
      "type": "function"
    },
    {
      "constant": true,
      "inputs": [],
      "name": "proposedGovernor",
      "outputs": [
        {
          "internalType": "address",
          "name": "",
          "type": "address"
        }
      ],
      "payable": false,
      "stateMutability": "view",
      "type": "function"
    },
    {
      "constant": true,
      "inputs": [],
      "name": "requestTime",
      "outputs": [
        {
          "internalType": "uint256",
          "name": "",
          "type": "uint256"
        }
      ],
      "payable": false,
      "stateMutability": "view",
      "type": "function"
    },
    {
      "constant": false,
      "inputs": [
        {
          "internalType": "address",
          "name": "_proposedGovernor",
          "type": "address"
        }
      ],
      "name": "requestGovernorChange",
      "outputs": [],
      "payable": false,
      "stateMutability": "nonpayable",
      "type": "function"
    },
    {
      "constant": false,
      "inputs": [],
      "name": "cancelGovernorChange",
      "outputs": [],
      "payable": false,
      "stateMutability": "nonpayable",
      "type": "function"
    },
    {
      "constant": false,
      "inputs": [],
      "name": "claimGovernorChange",
      "outputs": [],
      "payable": false,
      "stateMutability": "nonpayable",
      "type": "function"
    }
  ],
  "bytecode": "0x6080604052600180546001600160a01b03191690556000600281905560035534801561002a57600080fd5b506040516109fe3803806109fe8339818101604052604081101561004d57600080fd5b508051602090910151600080546001600160a01b031916331780825560405184926001600160a01b039290921691906000805160206109de833981519152908290a36100a1816001600160e01b0361010016565b50600081116100f7576040805162461bcd60e51b815260206004820152601f60248201527f44656c6179206d7573742062652067726561746572207468616e207a65726f00604482015290519081900360640190fd5b600255506101a4565b6001600160a01b03811661015b576040805162461bcd60e51b815260206004820152601f60248201527f474f563a206e657720476f7665726e6f72206973206164647265737328302900604482015290519081900360640190fd5b600080546040516001600160a01b03808516939216916000805160206109de83398151915291a3600080546001600160a01b0319166001600160a01b0392909216919091179055565b61082b806101b36000396000f3fe608060405234801561001057600080fd5b50600436106100935760003560e01c80638c33c19c116100665780638c33c19c14610106578063ad339d7a1461010e578063c7af335214610116578063d7fd0e7714610132578063e4c0aaf41461013a57610093565b8063099c47bc146100985780630c340a24146100c05780636a42b8f8146100e45780638a11a370146100fe575b600080fd5b6100be600480360360208110156100ae57600080fd5b50356001600160a01b0316610160565b005b6100c86101b7565b604080516001600160a01b039092168252519081900360200190f35b6100ec6101c6565b60408051918252519081900360200190f35b6100c86101cc565b6100be6101db565b6100be610231565b61011e6102f9565b604080519115158252519081900360200190f35b6100ec61030a565b6100be6004803603602081101561015057600080fd5b50356001600160a01b0316610310565b6101686102f9565b6101a7576040805162461bcd60e51b815260206004820152601f60248201526000805160206107d7833981519152604482015290519081900360640190fd5b426003556101b4816103a4565b50565b6000546001600160a01b031690565b60025481565b6001546001600160a01b031681565b6101e36102f9565b610222576040805162461bcd60e51b815260206004820152601f60248201526000805160206107d7833981519152604482015290519081900360640190fd5b600060035561022f610502565b565b6001546001600160a01b03163314610290576040805162461bcd60e51b815260206004820152601f60248201527f53656e646572206973206e6f742070726f706f73656420676f7665726e6f7200604482015290519081900360640190fd5b6002546003546102a59163ffffffff61060116565b4210156102ea576040805162461bcd60e51b815260206004820152600e60248201526d2232b630bc903737ba1037bb32b960911b604482015290519081900360640190fd5b6102f2610662565b6000600355565b6000546001600160a01b0316331490565b60035481565b6103186102f9565b610357576040805162461bcd60e51b815260206004820152601f60248201526000805160206107d7833981519152604482015290519081900360640190fd5b6040805162461bcd60e51b815260206004820152601960248201527f446972656374206368616e6765206e6f7420616c6c6f77656400000000000000604482015290519081900360640190fd5b6103ac6102f9565b6103eb576040805162461bcd60e51b815260206004820152601f60248201526000805160206107d7833981519152604482015290519081900360640190fd5b6001600160a01b038116610446576040805162461bcd60e51b815260206004820152601f60248201527f50726f706f73656420676f7665726e6f72206973206164647265737328302900604482015290519081900360640190fd5b6001546001600160a01b0316156104a4576040805162461bcd60e51b815260206004820152601d60248201527f50726f706f73656420676f7665726e6f7220616c726561647920736574000000604482015290519081900360640190fd5b600180546001600160a01b0319166001600160a01b0383169081179091556104ca6101b7565b6001600160a01b03167fa48c163cc46eb28aba8bdb525da18f15a83020cc18f439c933d79ea3ad9b50bb60405160405180910390a350565b61050a6102f9565b610549576040805162461bcd60e51b815260206004820152601f60248201526000805160206107d7833981519152604482015290519081900360640190fd5b6001546001600160a01b03166105a6576040805162461bcd60e51b815260206004820152601960248201527f50726f706f73656420476f7665726e6f72206e6f742073657400000000000000604482015290519081900360640190fd5b6001546001600160a01b03166105ba6101b7565b6001600160a01b03167f2f7bb10f75b8694ea78291d7ca4c9f2a75bc45f0f97046164ad3ee984bdf4bba60405160405180910390a3600180546001600160a01b0319169055565b60008282018381101561065b576040805162461bcd60e51b815260206004820152601b60248201527f536166654d6174683a206164646974696f6e206f766572666c6f770000000000604482015290519081900360640190fd5b9392505050565b6001546001600160a01b031633146106c1576040805162461bcd60e51b815260206004820152601f60248201527f53656e646572206973206e6f742070726f706f73656420676f7665726e6f7200604482015290519081900360640190fd5b6001546106d6906001600160a01b0316610720565b6001546040516001600160a01b03909116907f0ad714cb5607f3b529b5d3292190925ae992a77b291e39ec09c390d4787896ba90600090a2600180546001600160a01b0319169055565b6001600160a01b03811661077b576040805162461bcd60e51b815260206004820152601f60248201527f474f563a206e657720476f7665726e6f72206973206164647265737328302900604482015290519081900360640190fd5b600080546040516001600160a01b03808516939216917fde4b3f61490b74c0ed6237523974fe299126bbbf8a8a7482fd220104c59b0c8491a3600080546001600160a01b0319166001600160a01b039290921691909117905556fe474f563a2063616c6c6572206973206e6f742074686520476f7665726e6f7200a265627a7a72315820012317a1ca236012891520a51b411a749caeefdceb1ccfc382b87b42499a99dc64736f6c63430005100032de4b3f61490b74c0ed6237523974fe299126bbbf8a8a7482fd220104c59b0c84",
  "source": "pragma solidity 0.5.16;\n\nimport { ClaimableGovernor } from \"./ClaimableGovernor.sol\";\nimport { SafeMath } from \"@openzeppelin/contracts/math/SafeMath.sol\";\n\n/**\n * @title   DelayedClaimableGovernor\n * @author  Stability Labs Pty. Ltd.\n * @notice  Current Governor can initiate governance change request.\n *          After a defined delay, proposed Governor can claim governance\n *          ownership.\n */\ncontract DelayedClaimableGovernor is ClaimableGovernor {\n\n    using SafeMath for uint256;\n\n    uint256 public delay = 0;\n    uint256 public requestTime = 0;\n\n    /**\n     * @dev Initializes the contract with given delay\n     * @param _governorAddr Initial governor\n     * @param _delay    Delay in seconds for 2 way handshake\n     */\n    constructor(address _governorAddr, uint256 _delay)\n        public\n        ClaimableGovernor(_governorAddr)\n    {\n        require(_delay > 0, \"Delay must be greater than zero\");\n        delay = _delay;\n    }\n\n    //@override\n    /**\n     * @dev Requests change of governor and logs request time\n     * @param _proposedGovernor Address of the new governor\n     */\n    function requestGovernorChange(address _proposedGovernor) public onlyGovernor {\n        requestTime = now;\n        super.requestGovernorChange(_proposedGovernor);\n    }\n\n    //@override\n    /**\n     * @dev Cancels an outstanding governor change request by resetting request time\n     */\n    function cancelGovernorChange() public onlyGovernor {\n        requestTime = 0;\n        super.cancelGovernorChange();\n    }\n\n    //@override\n    /**\n     * @dev Proposed governor claims new position, callable after time elapsed\n     */\n    function claimGovernorChange() public onlyProposedGovernor {\n        require(now >= (requestTime.add(delay)), \"Delay not over\");\n        super.claimGovernorChange();\n        requestTime = 0;\n    }\n}",
  "sourcePath": "/Volumes/sdxc/ETHEREUM/CODE/mStable-v1-edit/contracts/governance/DelayedClaimableGovernor.sol",
  "compiler": {
    "name": "solc",
    "version": "0.5.16+commit.9c3226ce.Emscripten.clang"
  },
  "schemaVersion": "3.1.0",
  "updatedAt": "2021-03-11T05:43:14.676Z",
  "devdoc": {
    "author": "Stability Labs Pty. Ltd.",
    "methods": {
      "cancelGovernorChange()": {
        "details": "Cancels an outstanding governor change request by resetting request time"
      },
      "claimGovernorChange()": {
        "details": "Proposed governor claims new position, callable after time elapsed"
      },
      "constructor": {
        "details": "Initializes the contract with given delay",
        "params": {
          "_delay": "Delay in seconds for 2 way handshake",
          "_governorAddr": "Initial governor"
        }
      },
      "governor()": {
        "details": "Returns the address of the current Governor."
      },
      "isGovernor()": {
        "details": "Returns true if the caller is the current Governor."
      },
      "requestGovernorChange(address)": {
        "details": "Requests change of governor and logs request time",
        "params": {
          "_proposedGovernor": "Address of the new governor"
        }
      }
    },
    "title": "DelayedClaimableGovernor"
  },
  "userdoc": {
    "methods": {},
    "notice": "Current Governor can initiate governance change request.         After a defined delay, proposed Governor can claim governance         ownership."
  }
}