{
  "contractName": "IncentivisedVotingLockup",
  "abi": [
    {
      "inputs": [
        {
          "internalType": "address",
          "name": "_stakingToken",
          "type": "address"
        },
        {
          "internalType": "string",
          "name": "_name",
          "type": "string"
        },
        {
          "internalType": "string",
          "name": "_symbol",
          "type": "string"
        },
        {
          "internalType": "address",
          "name": "_nexus",
          "type": "address"
        },
        {
          "internalType": "address",
          "name": "_rewardsDistributor",
          "type": "address"
        }
      ],
      "payable": false,
      "stateMutability": "nonpayable",
      "type": "constructor"
    },
    {
      "anonymous": false,
      "inputs": [
        {
          "indexed": true,
          "internalType": "address",
          "name": "provider",
          "type": "address"
        },
        {
          "indexed": false,
          "internalType": "uint256",
          "name": "value",
          "type": "uint256"
        },
        {
          "indexed": false,
          "internalType": "uint256",
          "name": "locktime",
          "type": "uint256"
        },
        {
          "indexed": true,
          "internalType": "enum IncentivisedVotingLockup.LockAction",
          "name": "action",
          "type": "uint8"
        },
        {
          "indexed": false,
          "internalType": "uint256",
          "name": "ts",
          "type": "uint256"
        }
      ],
      "name": "Deposit",
      "type": "event"
    },
    {
      "anonymous": false,
      "inputs": [
        {
          "indexed": true,
          "internalType": "address",
          "name": "ejected",
          "type": "address"
        },
        {
          "indexed": false,
          "internalType": "address",
          "name": "ejector",
          "type": "address"
        },
        {
          "indexed": false,
          "internalType": "uint256",
          "name": "ts",
          "type": "uint256"
        }
      ],
      "name": "Ejected",
      "type": "event"
    },
    {
      "anonymous": false,
      "inputs": [],
      "name": "Expired",
      "type": "event"
    },
    {
      "anonymous": false,
      "inputs": [
        {
          "indexed": false,
          "internalType": "uint256",
          "name": "reward",
          "type": "uint256"
        }
      ],
      "name": "RewardAdded",
      "type": "event"
    },
    {
      "anonymous": false,
      "inputs": [
        {
          "indexed": true,
          "internalType": "address",
          "name": "user",
          "type": "address"
        },
        {
          "indexed": false,
          "internalType": "uint256",
          "name": "reward",
          "type": "uint256"
        }
      ],
      "name": "RewardPaid",
      "type": "event"
    },
    {
      "anonymous": false,
      "inputs": [
        {
          "indexed": true,
          "internalType": "address",
          "name": "provider",
          "type": "address"
        },
        {
          "indexed": false,
          "internalType": "uint256",
          "name": "value",
          "type": "uint256"
        },
        {
          "indexed": false,
          "internalType": "uint256",
          "name": "ts",
          "type": "uint256"
        }
      ],
      "name": "Withdraw",
      "type": "event"
    },
    {
      "constant": true,
      "inputs": [],
      "name": "END",
      "outputs": [
        {
          "internalType": "uint256",
          "name": "",
          "type": "uint256"
        }
      ],
      "payable": false,
      "stateMutability": "view",
      "type": "function"
    },
    {
      "constant": true,
      "inputs": [],
      "name": "MAXTIME",
      "outputs": [
        {
          "internalType": "uint256",
          "name": "",
          "type": "uint256"
        }
      ],
      "payable": false,
      "stateMutability": "view",
      "type": "function"
    },
    {
      "constant": true,
      "inputs": [],
      "name": "decimals",
      "outputs": [
        {
          "internalType": "uint256",
          "name": "",
          "type": "uint256"
        }
      ],
      "payable": false,
      "stateMutability": "view",
      "type": "function"
    },
    {
      "constant": true,
      "inputs": [],
      "name": "expired",
      "outputs": [
        {
          "internalType": "bool",
          "name": "",
          "type": "bool"
        }
      ],
      "payable": false,
      "stateMutability": "view",
      "type": "function"
    },
    {
      "constant": true,
      "inputs": [],
      "name": "globalEpoch",
      "outputs": [
        {
          "internalType": "uint256",
          "name": "",
          "type": "uint256"
        }
      ],
      "payable": false,
      "stateMutability": "view",
      "type": "function"
    },
    {
      "constant": true,
      "inputs": [],
      "name": "lastUpdateTime",
      "outputs": [
        {
          "internalType": "uint256",
          "name": "",
          "type": "uint256"
        }
      ],
      "payable": false,
      "stateMutability": "view",
      "type": "function"
    },
    {
      "constant": true,
      "inputs": [
        {
          "internalType": "address",
          "name": "",
          "type": "address"
        }
      ],
      "name": "locked",
      "outputs": [
        {
          "internalType": "int128",
          "name": "amount",
          "type": "int128"
        },
        {
          "internalType": "uint256",
          "name": "end",
          "type": "uint256"
        }
      ],
      "payable": false,
      "stateMutability": "view",
      "type": "function"
    },
    {
      "constant": true,
      "inputs": [],
      "name": "name",
      "outputs": [
        {
          "internalType": "string",
          "name": "",
          "type": "string"
        }
      ],
      "payable": false,
      "stateMutability": "view",
      "type": "function"
    },
    {
      "constant": true,
      "inputs": [],
      "name": "nexus",
      "outputs": [
        {
          "internalType": "contract INexus",
          "name": "",
          "type": "address"
        }
      ],
      "payable": false,
      "stateMutability": "view",
      "type": "function"
    },
    {
      "constant": true,
      "inputs": [],
      "name": "periodFinish",
      "outputs": [
        {
          "internalType": "uint256",
          "name": "",
          "type": "uint256"
        }
      ],
      "payable": false,
      "stateMutability": "view",
      "type": "function"
    },
    {
      "constant": true,
      "inputs": [
        {
          "internalType": "uint256",
          "name": "",
          "type": "uint256"
        }
      ],
      "name": "pointHistory",
      "outputs": [
        {
          "internalType": "int128",
          "name": "bias",
          "type": "int128"
        },
        {
          "internalType": "int128",
          "name": "slope",
          "type": "int128"
        },
        {
          "internalType": "uint256",
          "name": "ts",
          "type": "uint256"
        },
        {
          "internalType": "uint256",
          "name": "blk",
          "type": "uint256"
        }
      ],
      "payable": false,
      "stateMutability": "view",
      "type": "function"
    },
    {
      "constant": true,
      "inputs": [],
      "name": "rewardPerTokenStored",
      "outputs": [
        {
          "internalType": "uint256",
          "name": "",
          "type": "uint256"
        }
      ],
      "payable": false,
      "stateMutability": "view",
      "type": "function"
    },
    {
      "constant": true,
      "inputs": [],
      "name": "rewardRate",
      "outputs": [
        {
          "internalType": "uint256",
          "name": "",
          "type": "uint256"
        }
      ],
      "payable": false,
      "stateMutability": "view",
      "type": "function"
    },
    {
      "constant": true,
      "inputs": [
        {
          "internalType": "address",
          "name": "",
          "type": "address"
        }
      ],
      "name": "rewards",
      "outputs": [
        {
          "internalType": "uint256",
          "name": "",
          "type": "uint256"
        }
      ],
      "payable": false,
      "stateMutability": "view",
      "type": "function"
    },
    {
      "constant": true,
      "inputs": [],
      "name": "rewardsDistributor",
      "outputs": [
        {
          "internalType": "address",
          "name": "",
          "type": "address"
        }
      ],
      "payable": false,
      "stateMutability": "view",
      "type": "function"
    },
    {
      "constant": true,
      "inputs": [
        {
          "internalType": "address",
          "name": "",
          "type": "address"
        }
      ],
      "name": "rewardsPaid",
      "outputs": [
        {
          "internalType": "uint256",
          "name": "",
          "type": "uint256"
        }
      ],
      "payable": false,
      "stateMutability": "view",
      "type": "function"
    },
    {
      "constant": false,
      "inputs": [
        {
          "internalType": "address",
          "name": "_rewardsDistributor",
          "type": "address"
        }
      ],
      "name": "setRewardsDistribution",
      "outputs": [],
      "payable": false,
      "stateMutability": "nonpayable",
      "type": "function"
    },
    {
      "constant": true,
      "inputs": [
        {
          "internalType": "uint256",
          "name": "",
          "type": "uint256"
        }
      ],
      "name": "slopeChanges",
      "outputs": [
        {
          "internalType": "int128",
          "name": "",
          "type": "int128"
        }
      ],
      "payable": false,
      "stateMutability": "view",
      "type": "function"
    },
    {
      "constant": true,
      "inputs": [],
      "name": "stakingToken",
      "outputs": [
        {
          "internalType": "contract IERC20",
          "name": "",
          "type": "address"
        }
      ],
      "payable": false,
      "stateMutability": "view",
      "type": "function"
    },
    {
      "constant": true,
      "inputs": [],
      "name": "symbol",
      "outputs": [
        {
          "internalType": "string",
          "name": "",
          "type": "string"
        }
      ],
      "payable": false,
      "stateMutability": "view",
      "type": "function"
    },
    {
      "constant": true,
      "inputs": [],
      "name": "totalStaticWeight",
      "outputs": [
        {
          "internalType": "uint256",
          "name": "",
          "type": "uint256"
        }
      ],
      "payable": false,
      "stateMutability": "view",
      "type": "function"
    },
    {
      "constant": true,
      "inputs": [
        {
          "internalType": "address",
          "name": "",
          "type": "address"
        }
      ],
      "name": "userPointEpoch",
      "outputs": [
        {
          "internalType": "uint256",
          "name": "",
          "type": "uint256"
        }
      ],
      "payable": false,
      "stateMutability": "view",
      "type": "function"
    },
    {
      "constant": true,
      "inputs": [
        {
          "internalType": "address",
          "name": "",
          "type": "address"
        },
        {
          "internalType": "uint256",
          "name": "",
          "type": "uint256"
        }
      ],
      "name": "userPointHistory",
      "outputs": [
        {
          "internalType": "int128",
          "name": "bias",
          "type": "int128"
        },
        {
          "internalType": "int128",
          "name": "slope",
          "type": "int128"
        },
        {
          "internalType": "uint256",
          "name": "ts",
          "type": "uint256"
        },
        {
          "internalType": "uint256",
          "name": "blk",
          "type": "uint256"
        }
      ],
      "payable": false,
      "stateMutability": "view",
      "type": "function"
    },
    {
      "constant": true,
      "inputs": [
        {
          "internalType": "address",
          "name": "",
          "type": "address"
        }
      ],
      "name": "userRewardPerTokenPaid",
      "outputs": [
        {
          "internalType": "uint256",
          "name": "",
          "type": "uint256"
        }
      ],
      "payable": false,
      "stateMutability": "view",
      "type": "function"
    },
    {
      "constant": true,
      "inputs": [
        {
          "internalType": "address",
          "name": "_addr",
          "type": "address"
        }
      ],
      "name": "getLastUserPoint",
      "outputs": [
        {
          "internalType": "int128",
          "name": "bias",
          "type": "int128"
        },
        {
          "internalType": "int128",
          "name": "slope",
          "type": "int128"
        },
        {
          "internalType": "uint256",
          "name": "ts",
          "type": "uint256"
        }
      ],
      "payable": false,
      "stateMutability": "view",
      "type": "function"
    },
    {
      "constant": false,
      "inputs": [],
      "name": "checkpoint",
      "outputs": [],
      "payable": false,
      "stateMutability": "nonpayable",
      "type": "function"
    },
    {
      "constant": false,
      "inputs": [
        {
          "internalType": "uint256",
          "name": "_value",
          "type": "uint256"
        },
        {
          "internalType": "uint256",
          "name": "_unlockTime",
          "type": "uint256"
        }
      ],
      "name": "createLock",
      "outputs": [],
      "payable": false,
      "stateMutability": "nonpayable",
      "type": "function"
    },
    {
      "constant": false,
      "inputs": [
        {
          "internalType": "uint256",
          "name": "_value",
          "type": "uint256"
        }
      ],
      "name": "increaseLockAmount",
      "outputs": [],
      "payable": false,
      "stateMutability": "nonpayable",
      "type": "function"
    },
    {
      "constant": false,
      "inputs": [
        {
          "internalType": "uint256",
          "name": "_unlockTime",
          "type": "uint256"
        }
      ],
      "name": "increaseLockLength",
      "outputs": [],
      "payable": false,
      "stateMutability": "nonpayable",
      "type": "function"
    },
    {
      "constant": false,
      "inputs": [],
      "name": "withdraw",
      "outputs": [],
      "payable": false,
      "stateMutability": "nonpayable",
      "type": "function"
    },
    {
      "constant": false,
      "inputs": [],
      "name": "exit",
      "outputs": [],
      "payable": false,
      "stateMutability": "nonpayable",
      "type": "function"
    },
    {
      "constant": false,
      "inputs": [
        {
          "internalType": "address",
          "name": "_addr",
          "type": "address"
        }
      ],
      "name": "eject",
      "outputs": [],
      "payable": false,
      "stateMutability": "nonpayable",
      "type": "function"
    },
    {
      "constant": false,
      "inputs": [],
      "name": "expireContract",
      "outputs": [],
      "payable": false,
      "stateMutability": "nonpayable",
      "type": "function"
    },
    {
      "constant": true,
      "inputs": [
        {
          "internalType": "address",
          "name": "_owner",
          "type": "address"
        }
      ],
      "name": "balanceOf",
      "outputs": [
        {
          "internalType": "uint256",
          "name": "",
          "type": "uint256"
        }
      ],
      "payable": false,
      "stateMutability": "view",
      "type": "function"
    },
    {
      "constant": true,
      "inputs": [
        {
          "internalType": "address",
          "name": "_owner",
          "type": "address"
        },
        {
          "internalType": "uint256",
          "name": "_blockNumber",
          "type": "uint256"
        }
      ],
      "name": "balanceOfAt",
      "outputs": [
        {
          "internalType": "uint256",
          "name": "",
          "type": "uint256"
        }
      ],
      "payable": false,
      "stateMutability": "view",
      "type": "function"
    },
    {
      "constant": true,
      "inputs": [],
      "name": "totalSupply",
      "outputs": [
        {
          "internalType": "uint256",
          "name": "",
          "type": "uint256"
        }
      ],
      "payable": false,
      "stateMutability": "view",
      "type": "function"
    },
    {
      "constant": true,
      "inputs": [
        {
          "internalType": "uint256",
          "name": "_blockNumber",
          "type": "uint256"
        }
      ],
      "name": "totalSupplyAt",
      "outputs": [
        {
          "internalType": "uint256",
          "name": "",
          "type": "uint256"
        }
      ],
      "payable": false,
      "stateMutability": "view",
      "type": "function"
    },
    {
      "constant": false,
      "inputs": [],
      "name": "claimReward",
      "outputs": [],
      "payable": false,
      "stateMutability": "nonpayable",
      "type": "function"
    },
    {
      "constant": true,
      "inputs": [
        {
          "internalType": "address",
          "name": "_addr",
          "type": "address"
        }
      ],
      "name": "staticBalanceOf",
      "outputs": [
        {
          "internalType": "uint256",
          "name": "",
          "type": "uint256"
        }
      ],
      "payable": false,
      "stateMutability": "view",
      "type": "function"
    },
    {
      "constant": true,
      "inputs": [],
      "name": "getRewardToken",
      "outputs": [
        {
          "internalType": "contract IERC20",
          "name": "",
          "type": "address"
        }
      ],
      "payable": false,
      "stateMutability": "view",
      "type": "function"
    },
    {
      "constant": true,
      "inputs": [],
      "name": "getDuration",
      "outputs": [
        {
          "internalType": "uint256",
          "name": "",
          "type": "uint256"
        }
      ],
      "payable": false,
      "stateMutability": "pure",
      "type": "function"
    },
    {
      "constant": true,
      "inputs": [],
      "name": "lastTimeRewardApplicable",
      "outputs": [
        {
          "internalType": "uint256",
          "name": "",
          "type": "uint256"
        }
      ],
      "payable": false,
      "stateMutability": "view",
      "type": "function"
    },
    {
      "constant": true,
      "inputs": [],
      "name": "rewardPerToken",
      "outputs": [
        {
          "internalType": "uint256",
          "name": "",
          "type": "uint256"
        }
      ],
      "payable": false,
      "stateMutability": "view",
      "type": "function"
    },
    {
      "constant": true,
      "inputs": [
        {
          "internalType": "address",
          "name": "_addr",
          "type": "address"
        }
      ],
      "name": "earned",
      "outputs": [
        {
          "internalType": "uint256",
          "name": "",
          "type": "uint256"
        }
      ],
      "payable": false,
      "stateMutability": "view",
      "type": "function"
    },
    {
      "constant": false,
      "inputs": [
        {
          "internalType": "uint256",
          "name": "_reward",
          "type": "uint256"
        }
      ],
      "name": "notifyRewardAmount",
      "outputs": [],
      "payable": false,
      "stateMutability": "nonpayable",
      "type": "function"
    }
  ],
  "bytecode": "0x60806040526004805460ff191690556012600d8190556000600e819055600f8190556010819055601181905590553480156200003a57600080fd5b50604051620042cf380380620042cf833981810160405260a08110156200006057600080fd5b8151602083018051604051929492938301929190846401000000008211156200008857600080fd5b9083019060208201858111156200009e57600080fd5b8251640100000000811182820188101715620000b957600080fd5b82525081516020918201929091019080838360005b83811015620000e8578181015183820152602001620000ce565b50505050905090810190601f168015620001165780820380516001836020036101000a031916815260200191505b50604052602001805160405193929190846401000000008211156200013a57600080fd5b9083019060208201858111156200015057600080fd5b82516401000000008111828201881017156200016b57600080fd5b82525081516020918201929091019080838360005b838110156200019a57818101518382015260200162000180565b50505050905090810190601f168015620001c85780820380516001836020036101000a031916815260200191505b50604090815260208201519101516000805460ff1916600117905590925090508181816001600160a01b03811662000247576040805162461bcd60e51b815260206004820152601560248201527f4e65787573206973207a65726f20616464726573730000000000000000000000604482015290519081900360640190fd5b600080546001600160a01b0392831661010002610100600160a81b0319909116179055600180549282166001600160a01b031993841617905560028054918916919092161790555062000299620004ef565b50604080516080810182526000808252602080830182815242848601908152436060860190815260068054600181018255955285517ff652222313e28459528d920b65115c16c04f3efc82aaedc97be59f3f377c0d3f6003909602958601805494516001600160801b0319909516600f92830b6001600160801b03908116919091178116600160801b9690930b169490940217909255517ff652222313e28459528d920b65115c16c04f3efc82aaedc97be59f3f377c0d40840155517ff652222313e28459528d920b65115c16c04f3efc82aaedc97be59f3f377c0d4190920191909155825163313ce56760e01b8152925191926001600160a01b0389169263313ce56792600480840193919291829003018186803b158015620003bc57600080fd5b505afa158015620003d1573d6000803e3d6000fd5b505050506040513d6020811015620003e857600080fd5b505160ff16600d81905560121015620004335760405162461bcd60e51b8152600401808060200182810382526021815260200180620042ae6021913960400191505060405180910390fd5b84516200044890600b9060208801906200051d565b5083516200045e90600c9060208701906200051d565b506200047d6301e13380426200048d60201b6200226f1790919060201c565b60035550620005c2945050505050565b600082820183811015620004e8576040805162461bcd60e51b815260206004820152601b60248201527f536166654d6174683a206164646974696f6e206f766572666c6f770000000000604482015290519081900360640190fd5b9392505050565b60405180608001604052806000600f0b81526020016000600f0b815260200160008152602001600081525090565b828054600181600116156101000203166002900490600052602060002090601f016020900481019282601f106200056057805160ff191683800117855562000590565b8280016001018555821562000590579182015b828111156200059057825182559160200191906001019062000573565b506200059e929150620005a2565b5090565b620005bf91905b808211156200059e5760008155600101620005a9565b90565b613cdc80620005d26000396000f3fe608060405234801561001057600080fd5b506004361061027e5760003560e01c806380faa57d1161015c578063b88a802f116100ce578063df136d6511610087578063df136d6514610705578063e9fad8ee1461070d578063ebe2b12b14610715578063ee00ef3a1461071d578063efe7a50414610725578063f52a36f71461072d5761027e565b8063b88a802f1461064e578063c2c4c5c114610656578063c4698ee51461065e578063c8f33c91146106ac578063cbf9fe5f146106b4578063cd3daf9d146106fd5761027e565b806395d89b411161012057806395d89b41146105ee578063981b24d0146105f6578063a3f5c1d214610613578063ad2e8c9b1461061b578063af5bb34e14610623578063b52c05fe1461062b5761027e565b806380faa57d1461055757806381fc83bb1461055f5780638ad4c447146105855780638b876347146105a2578063901d13e2146105c85761027e565b80633fdd420e116101f557806363160282116101b957806363160282146104d657806369940d79146104f3578063700a4a74146104fb57806370a082311461052157806372f702f3146105475780637b0a47ee1461054f5761027e565b80633fdd420e14610443578063403f4447146104695780634c2067c7146104865780634ee2cd7e146104a25780635719098b146104ce5761027e565b806319762143116102475780631976214314610370578063313ce5671461039657806334d901a41461039e5780633c6b16ab146103fa5780633ccfd60b146104175780633f2a55401461041f5761027e565b80628cc2621461028357806306fdde03146102bb5780630700037d146103385780630f73d0b41461035e57806318160ddd14610368575b600080fd5b6102a96004803603602081101561029957600080fd5b50356001600160a01b0316610763565b60408051918252519081900360200190f35b6102c36107e9565b6040805160208082528351818301528351919283929083019185019080838360005b838110156102fd5781810151838201526020016102e5565b50505050905090810190601f16801561032a5780820380516001836020036101000a031916815260200191505b509250505060405180910390f35b6102a96004803603602081101561034e57600080fd5b50356001600160a01b0316610877565b610366610889565b005b6102a9610a29565b6103666004803603602081101561038657600080fd5b50356001600160a01b0316610aab565b6102a9610b36565b6103ca600480360360408110156103b457600080fd5b506001600160a01b038135169060200135610b3c565b60408051600f95860b860b815293850b90940b602084015282840191909152606082015290519081900360800190f35b6103666004803603602081101561041057600080fd5b5035610b89565b610366610d6d565b610427610d78565b604080516001600160a01b039092168252519081900360200190f35b6102a96004803603602081101561045957600080fd5b50356001600160a01b0316610d87565b6103666004803603602081101561047f57600080fd5b5035610e98565b61048e6110e1565b604080519115158252519081900360200190f35b6102a9600480360360408110156104b857600080fd5b506001600160a01b0381351690602001356110ea565b6102a96113f3565b610366600480360360208110156104ec57600080fd5b50356113f9565b610427611697565b6102a96004803603602081101561051157600080fd5b50356001600160a01b03166116a6565b6102a96004803603602081101561053757600080fd5b50356001600160a01b03166116b8565b6104276117c5565b6102a96117d4565b6102a96117da565b6102a96004803603602081101561057557600080fd5b50356001600160a01b03166117ed565b6103ca6004803603602081101561059b57600080fd5b50356117ff565b6102a9600480360360208110156105b857600080fd5b50356001600160a01b0316611840565b610366600480360360208110156105de57600080fd5b50356001600160a01b0316611852565b6102c36119fb565b6102a96004803603602081101561060c57600080fd5b5035611a56565b610427611ca1565b6102a9611cb5565b6102a9611cbc565b6103666004803603604081101561064157600080fd5b5080359060200135611cc2565b610366611f58565b610366612069565b6106846004803603602081101561067457600080fd5b50356001600160a01b0316612080565b60408051600f94850b850b815292840b90930b60208301528183015290519081900360600190f35b6102a9612149565b6106da600480360360208110156106ca57600080fd5b50356001600160a01b031661214f565b6040518083600f0b600f0b81526020018281526020019250505060405180910390f35b6102a961216f565b6102a96121d8565b6103666121de565b6102a96121ef565b6102a96121f5565b6102a96121fd565b61074a6004803603602081101561074357600080fd5b5035612203565b60408051600f92830b90920b8252519081900360200190f35b6001600160a01b03811660009081526013602052604081205481906107969061078a61216f565b9063ffffffff61221816565b905060006107b3826107a786610d87565b9063ffffffff61225a16565b6001600160a01b0385166000908152601460205260409020549091506107df908263ffffffff61226f16565b925050505b919050565b600b805460408051602060026001851615610100026000190190941693909304601f8101849004840282018401909252818152929183018282801561086f5780601f106108445761010080835404028352916020019161086f565b820191906000526020600020905b81548152906001019060200180831161085257829003601f168201915b505050505081565b60146020526000908152604090205481565b6108916122c9565b6001600160a01b0316336001600160a01b0316146108f2576040805162461bcd60e51b81526020600482015260196024820152784f6e6c7920676f7665726e6f722063616e206578656375746560381b604482015290519081900360640190fd5b60045460ff1615610940576040805162461bcd60e51b815260206004820152601360248201527210dbdb9d1c9858dd081a5cc8195e1c1a5c9959606a1b604482015290519081900360640190fd5b60008061094b61216f565b905080156109a35760128190556109606117da565b6011556001600160a01b038216156109a35761097b82610763565b6001600160a01b03831660009081526014602090815260408083209390935560139052208190555b600e5442116109ef576040805162461bcd60e51b81526020600482015260136024820152722832b934b7b21036bab9ba1031329037bb32b960691b604482015290519081900360640190fd5b6004805460ff191660011790556040517f203d82d8d99f63bfecc8335216735e0271df4249ea752b030f9ab305b94e5afe90600090a15050565b600554600090610a37613ad3565b60068281548110610a4457fe5b60009182526020918290206040805160808101825260039093029091018054600f81810b810b810b8552600160801b909104810b810b900b9383019390935260018301549082015260029091015460608201529050610aa38142612349565b925050505b90565b610ab36122c9565b6001600160a01b0316336001600160a01b031614610b14576040805162461bcd60e51b81526020600482015260196024820152784f6e6c7920676f7665726e6f722063616e206578656375746560381b604482015290519081900360640190fd5b600180546001600160a01b0319166001600160a01b0392909216919091179055565b600d5481565b60076020528160005260406000208181548110610b5557fe5b6000918252602090912060039091020180546001820154600290920154600f82810b9550600160801b90920490910b925084565b6001546001600160a01b03163314610be8576040805162461bcd60e51b815260206004820181905260248201527f43616c6c6572206973206e6f7420726577617264206469737472696275746f72604482015290519081900360640190fd5b60045460ff1615610c36576040805162461bcd60e51b815260206004820152601360248201527210dbdb9d1c9858dd081a5cc8195e1c1a5c9959606a1b604482015290519081900360640190fd5b600080610c4161216f565b90508015610c99576012819055610c566117da565b6011556001600160a01b03821615610c9957610c7182610763565b6001600160a01b03831660009081526014602090815260408083209390935560139052208190555b600e5442908110610cbf57610cb78462093a8063ffffffff61245d16565b600f55610d19565b600e54600090610cd5908363ffffffff61221816565b90506000610cee600f548361249f90919063ffffffff16565b9050610d1362093a80610d07888463ffffffff61226f16565b9063ffffffff61245d16565b600f5550505b6011819055610d318162093a8063ffffffff61226f16565b600e556040805185815290517fde88a922e0d3b88b24e9623efeb464919c6bf9f66857a65e2bfcf2ce87a9433d9181900360200190a150505050565b610d76336124f8565b565b6001546001600160a01b031681565b6001600160a01b038116600090815260086020526040812054801580610de657506001600160a01b0383166000908152600760205260409020805482908110610dcc57fe5b6000918252602090912060039091020154600f90810b900b155b15610df55760009150506107e4565b6001600160a01b03831660009081526007602052604090208054610e91919083908110610e1e57fe5b600091825260208083206003909202909101546001600160a01b0387168352600790915260409091208054600160801b909204600f0b9184908110610e5f57fe5b6000918252602080832060016003909302018201546001600160a01b0389168452600a90915260409092200154612794565b9392505050565b60005460ff16610edd576040805162461bcd60e51b815260206004820152601f6024820152600080516020613b19833981519152604482015290519081900360640190fd5b6000805460ff1916905560045460ff1615610f35576040805162461bcd60e51b815260206004820152601360248201527210dbdb9d1c9858dd081a5cc8195e1c1a5c9959606a1b604482015290519081900360640190fd5b336000610f4061216f565b90508015610f98576012819055610f556117da565b6011556001600160a01b03821615610f9857610f7082610763565b6001600160a01b03831660009081526014602090815260408083209390935560139052208190555b610fa0613b01565b50604080518082018252336000818152600a60208181529482208054600f90810b900b8552929091528352600101549181019190915283611028576040805162461bcd60e51b815260206004820152601a60248201527f4d757374207374616b65206e6f6e207a65726f20616d6f756e74000000000000604482015290519081900360640190fd5b60008160000151600f0b1361107d576040805162461bcd60e51b8152602060048201526016602482015275139bc8195e1a5cdd1a5b99c81b1bd8dac8199bdd5b9960521b604482015290519081900360640190fd5b428160200151116110bf5760405162461bcd60e51b8152600401808060200182810382526024815260200180613b396024913960400191505060405180910390fd5b6110ce338560008460016127ed565b50506000805460ff191660011790555050565b60045460ff1681565b60004382111561112b5760405162461bcd60e51b8152600401808060200182810382526022815260200180613b7e6022913960400191505060405180910390fd5b60006111378484612916565b9050806111485760009150506113ed565b611150613ad3565b6001600160a01b038516600090815260076020526040902080548390811061117457fe5b600091825260208083206040805160808101825260039094029091018054600f81810b810b810b8652600160801b909104810b810b900b92840192909252600182015490830152600201546060820152600554909250906111d586836129df565b90506111df613ad3565b600682815481106111ec57fe5b600091825260208083206040805160808101825260039094029091018054600f81810b810b810b8652600160801b909104810b810b900b92840192909252600182015490830152600201546060820152915080848410156112fc5761124f613ad3565b600661126286600163ffffffff61226f16565b8154811061126c57fe5b60009182526020918290206040805160808101825260039093029091018054600f81810b810b810b8552600160801b909104810b810b900b9383019390935260018301549082015260029091015460608083018290528601519192506112d79163ffffffff61221816565b92506112f48460400151826040015161221890919063ffffffff16565b91505061132e565b606083015161131290439063ffffffff61221816565b915061132b83604001514261221890919063ffffffff16565b90505b604083015182156113775761137461136784610d0761135a88606001518f61221890919063ffffffff16565b869063ffffffff61249f16565b829063ffffffff61226f16565b90505b6113b96113a861139489604001518461221890919063ffffffff16565b60208a0151600f0b9063ffffffff612a6216565b8851600f0b9063ffffffff612b2d16565b600f90810b810b8089526000910b126113e05750509351600f0b95506113ed945050505050565b6000985050505050505050505b92915050565b60055481565b60005460ff1661143e576040805162461bcd60e51b815260206004820152601f6024820152600080516020613b19833981519152604482015290519081900360640190fd5b6000805460ff1916905560045460ff1615611496576040805162461bcd60e51b815260206004820152601360248201527210dbdb9d1c9858dd081a5cc8195e1c1a5c9959606a1b604482015290519081900360640190fd5b3360006114a161216f565b905080156114f95760128190556114b66117da565b6011556001600160a01b038216156114f9576114d182610763565b6001600160a01b03831660009081526014602090815260408083209390935560139052208190555b611501613b01565b50604080518082018252336000818152600a60208181529482208054600f90810b900b85529282528452600190910154928201929092529061154285612ba5565b905060008260000151600f0b13611594576040805162461bcd60e51b8152602060048201526011602482015270139bdd1a1a5b99c81a5cc81b1bd8dad959607a1b604482015290519081900360640190fd5b428260200151116115db576040805162461bcd60e51b815260206004820152600c60248201526b131bd8dac8195e1c1a5c995960a21b604482015290519081900360640190fd5b81602001518111611633576040805162461bcd60e51b815260206004820152601b60248201527f43616e206f6e6c7920696e637265617365206c6f636b205745454b0000000000604482015290519081900360640190fd5b6003548111156116745760405162461bcd60e51b815260040180806020018281038252602b815260200180613c2f602b913960400191505060405180910390fd5b611683336000838560026127ed565b50506000805460ff19166001179055505050565b6002546001600160a01b031690565b60156020526000908152604090205481565b6001600160a01b038116600090815260086020526040812054806116e05760009150506107e4565b6116e8613ad3565b6001600160a01b038416600090815260076020526040902080548390811061170c57fe5b60009182526020918290206040805160808101825260039093029091018054600f81810b810b810b8552600160801b909104810b810b900b938301939093526001830154908201819052600290920154606082015291506117a1906117909061177c90429063ffffffff61221816565b6020840151600f0b9063ffffffff612a6216565b8251600f0b9063ffffffff612b2d16565b600f90810b810b8083526000910b12156117ba57600081525b51600f0b9392505050565b6002546001600160a01b031681565b600f5481565b60006117e842600e54612bbe565b905090565b60086020526000908152604090205481565b6006818154811061180c57fe5b6000918252602090912060039091020180546001820154600290920154600f82810b9450600160801b90920490910b919084565b60136020526000908152604090205481565b60045460ff16156118a0576040805162461bcd60e51b815260206004820152601360248201527210dbdb9d1c9858dd081a5cc8195e1c1a5c9959606a1b604482015290519081900360640190fd5b806118a9613b01565b506001600160a01b0381166000908152600a6020908152604080832081518083019092528054600f90810b810b810b808452600190920154938301939093529092910b1380156118fd575080602001514210155b61194e576040805162461bcd60e51b815260206004820152601860248201527f5573657273206c6f636b206469646e2774206578706972650000000000000000604482015290519081900360640190fd5b600061195983610d87565b116119ab576040805162461bcd60e51b815260206004820152601c60248201527f55736572206d7573742068617665206578697374696e67206269617300000000604482015290519081900360640190fd5b6119b4836124f8565b6040805132815242602082015281516001600160a01b038616927f3a1df3c76d2dfab31786674a912f29b53c3a12a052fe94502a99e66f9286bf3f928290030190a2505050565b600c805460408051602060026001851615610100026000190190941693909304601f8101849004840282018401909252818152929183018282801561086f5780601f106108445761010080835404028352916020019161086f565b600043821115611a975760405162461bcd60e51b8152600401808060200182810382526022815260200180613b7e6022913960400191505060405180910390fd5b6005546000611aa684836129df565b9050611ab0613ad3565b60068281548110611abd57fe5b60009182526020918290206040805160808101825260039093029091018054600f81810b810b810b8552600160801b909104810b810b900b9383019390935260018301549082015260029091015460608201819052909150851015611b2857600093505050506107e4565b600083831015611c1f57611b3a613ad3565b6006611b4d85600163ffffffff61226f16565b81548110611b5757fe5b60009182526020918290206040805160808101825260039093029091018054600f81810b810b810b8552600160801b909104810b810b900b93830193909352600183015490820152600290910154606080830182905285015191925014611c1957611c16611bd68460600151836060015161221890919063ffffffff16565b610d07611bf48660400151856040015161221890919063ffffffff16565b6060870151611c0a908c9063ffffffff61221816565b9063ffffffff61249f16565b91505b50611c77565b43826060015114611c7757611c74611c4483606001514361221890919063ffffffff16565b610d07611c5e85604001514261221890919063ffffffff16565b6060860151611c0a908b9063ffffffff61221816565b90505b611c9782611c9283856040015161226f90919063ffffffff16565b612349565b9695505050505050565b60005461010090046001600160a01b031681565b62093a8090565b60105481565b60005460ff16611d07576040805162461bcd60e51b815260206004820152601f6024820152600080516020613b19833981519152604482015290519081900360640190fd5b6000805460ff1916905560045460ff1615611d5f576040805162461bcd60e51b815260206004820152601360248201527210dbdb9d1c9858dd081a5cc8195e1c1a5c9959606a1b604482015290519081900360640190fd5b336000611d6a61216f565b90508015611dc2576012819055611d7f6117da565b6011556001600160a01b03821615611dc257611d9a82610763565b6001600160a01b03831660009081526014602090815260408083209390935560139052208190555b6000611dcd84612ba5565b9050611dd7613b01565b50604080518082018252336000818152600a60208181529482208054600f90810b900b8552929091528352600101549181019190915285611e5f576040805162461bcd60e51b815260206004820152601a60248201527f4d757374207374616b65206e6f6e207a65726f20616d6f756e74000000000000604482015290519081900360640190fd5b8051600f0b15611eb6576040805162461bcd60e51b815260206004820152601960248201527f5769746864726177206f6c6420746f6b656e7320666972737400000000000000604482015290519081900360640190fd5b428211611ef45760405162461bcd60e51b8152600401808060200182810382526026815260200180613c096026913960400191505060405180910390fd5b600354821115611f355760405162461bcd60e51b815260040180806020018281038252602b815260200180613c2f602b913960400191505060405180910390fd5b611f433387848460006127ed565b50506000805460ff1916600117905550505050565b336000611f6361216f565b90508015611fbb576012819055611f786117da565b6011556001600160a01b03821615611fbb57611f9382610763565b6001600160a01b03831660009081526014602090815260408083209390935560139052208190555b3360009081526014602052604090205480156120645733600081815260146020526040812055600254611ffa916001600160a01b039091169083612bd3565b3360009081526015602052604090205461201a908263ffffffff61226f16565b33600081815260156020908152604091829020939093558051848152905191927fe2403640ba68fed3a2f88b7557551d1993f84b99bb10ff833f0cf8db0c5e048692918290030190a25b505050565b612071613b01565b61207d60008283612c25565b50565b6001600160a01b03811660009081526008602052604081205481908190806120b2575060009250829150819050612142565b6120ba613ad3565b6001600160a01b03861660009081526007602052604090208054839081106120de57fe5b60009182526020918290206040805160808101825260039093029091018054600f81810b810b810b808652600160801b909204810b810b900b9484018590526001820154928401839052600290910154606090930192909252909650909450925050505b9193909250565b60115481565b600a6020526000908152604090208054600190910154600f9190910b9082565b60105460009080612184575050601254610aa8565b60006121a661219760115461078a6117da565b600f549063ffffffff61249f16565b905060006121ba828463ffffffff61357716565b6012549091506121d0908263ffffffff61226f16565b935050505090565b60125481565b6121e7336124f8565b610d76611f58565b600e5481565b6301e1338081565b60035481565b600960205260009081526040902054600f0b81565b6000610e9183836040518060400160405280601e81526020017f536166654d6174683a207375627472616374696f6e206f766572666c6f7700008152506135ac565b6000610e918383670de0b6b3a7640000613643565b600082820183811015610e91576040805162461bcd60e51b815260206004820152601b60248201527f536166654d6174683a206164646974696f6e206f766572666c6f770000000000604482015290519081900360640190fd5b60008060019054906101000a90046001600160a01b03166001600160a01b0316630c340a246040518163ffffffff1660e01b815260040160206040518083038186803b15801561231857600080fd5b505afa15801561232c573d6000803e3d6000fd5b505050506040513d602081101561234257600080fd5b5051905090565b6000612353613ad3565b83905060006123658260400151612ba5565b905060005b60ff81101561243b576123868262093a8063ffffffff61226f16565b915060008583111561239a578592506123ae565b50600082815260096020526040902054600f0b5b6123f06123df6123cb86604001518661221890919063ffffffff16565b6020870151600f0b9063ffffffff612a6216565b8551600f0b9063ffffffff612b2d16565b600f90810b900b845282861415612407575061243b565b602084015161241f90600f0b8263ffffffff61367116565b600f90810b900b6020850152506040830182905260010161236a565b5060008260000151600f0b121561245157600082525b5051600f0b9392505050565b6000610e9183836040518060400160405280601a81526020017f536166654d6174683a206469766973696f6e206279207a65726f0000000000008152506136e9565b6000826124ae575060006113ed565b828202828482816124bb57fe5b0414610e915760405162461bcd60e51b8152600401808060200182810382526021815260200180613bc16021913960400191505060405180910390fd5b60005460ff1661253d576040805162461bcd60e51b815260206004820152601f6024820152600080516020613b19833981519152604482015290519081900360640190fd5b6000805460ff19168155819061255161216f565b905080156125a95760128190556125666117da565b6011556001600160a01b038216156125a95761258182610763565b6001600160a01b03831660009081526014602090815260408083209390935560139052208190555b6125b1613b01565b506040805180820182526001600160a01b0385166000818152600a60208181529482208054600f90810b900b8552929091528352600101549181018290529042101580612600575060045460ff165b61264a576040805162461bcd60e51b8152602060048201526016602482015275546865206c6f636b206469646e27742065787069726560501b604482015290519081900360640190fd5b60008160000151600f0b136126a6576040805162461bcd60e51b815260206004820152601f60248201527f4d757374206861766520736f6d657468696e6720746f20776974686472617700604482015290519081900360640190fd5b8051600f0b6126b3613b01565b50604080518082018252600080825260208083018281526001600160a01b038a168352600a90915292902081518154600f9190910b6001600160801b03166001600160801b0319909116178155915160019092019190915560045460ff1661272057612720868483612c25565b60025461273d906001600160a01b0316878463ffffffff612bd316565b6040805183815242602082015281516001600160a01b038916927ff279e6a1f5e320cca91135676d9cb6e44ca8a08c0b88342bcdb1144f6511b568928290030190a250506000805460ff1916600117905550505050565b6000818311156127a657506000610e91565b60006127b8838563ffffffff61221816565b90506000611c976127c88361374e565b6127de600f89900b61271063ffffffff612a6216565b600f0b9063ffffffff61249f16565b6127f5613b01565b50604080518082019091528251600f90810b80835260208086015190840152612825910b8663ffffffff61367116565b600f90810b900b8152831561283c57602081018490525b6001600160a01b0386166000908152600a6020908152604090912082518154600f9190910b6001600160801b03166001600160801b03199091161781559082015160019091015561288e868483612c25565b84156128b2576002546128b2906001600160a01b031687308863ffffffff61379816565b8160028111156128be57fe5b60208083015160408051898152928301919091524282820152516001600160a01b038916917fbe9cf0e939c614fad640a623a53ba0a807c8cb503c4c4c8dacabe27b86ff2dd5919081900360600190a3505050505050565b6001600160a01b0382166000908152600860205260408120548190815b60808110156129d557818310612948576129d5565b60006129706002610d076001612964888863ffffffff61226f16565b9063ffffffff61226f16565b6001600160a01b0388166000908152600760205260409020805491925087918390811061299957fe5b906000526020600020906003020160020154116129b8578093506129cc565b6129c981600163ffffffff61221816565b92505b50600101612933565b5090949350505050565b60008082815b60808110156129d5578183106129fa576129d5565b6000612a166002610d076001612964888863ffffffff61226f16565b90508660068281548110612a2657fe5b90600052602060002090600302016002015411612a4557809350612a59565b612a5681600163ffffffff61221816565b92505b506001016129e5565b600082600f0b60001415612a78575060006113ed565b82600f0b600019148015612a975750600f82900b60016001607f1b0319145b15612ad35760405162461bcd60e51b8152600401808060200182810382526027815260200180613be26027913960400191505060405180910390fd5b6000828402905082600f0b84600f0b82600f0b81612aed57fe5b05600f0b14610e915760405162461bcd60e51b8152600401808060200182810382526027815260200180613be26027913960400191505060405180910390fd5b6000818303600f83900b8213801590612b4c575083600f0b81600f0b13155b80612b6a5750600083600f0b128015612b6a575083600f0b81600f0b135b610e915760405162461bcd60e51b8152600401808060200182810382526024815260200180613c5a6024913960400191505060405180910390fd5b60006113ed62093a80611c0a848263ffffffff61245d16565b6000818311612bcd5782610e91565b50919050565b604080516001600160a01b038416602482015260448082018490528251808303909101815260649091019091526020810180516001600160e01b031663a9059cbb60e01b1790526120649084906137f8565b612c2d613ad3565b612c35613ad3565b60055460009081906001600160a01b03881615612fb757428760200151118015612c66575060008760000151600f0b135b15612cb5578651612c8490600f0b6301e1338063ffffffff6139b016565b600f90810b900b602080870191909152870151612cab906123cb904263ffffffff61221816565b600f90810b900b85525b428660200151118015612ccf575060008660000151600f0b135b15612d32578551612ced90600f0b6301e1338063ffffffff6139b016565b600f90810b900b602080860191909152860151612d2890612d14904263ffffffff61221816565b6020860151600f0b9063ffffffff612a6216565b600f90810b900b84525b6001600160a01b03881660009081526008602052604090205480612dd4576001600160a01b0389166000908152600760209081526040808320805460018181018355918552938390208a516003909502018054938b0151600f90810b6001600160801b03908116600160801b029690910b81166001600160801b0319909516949094179093169390931782558801519181019190915560608701516002909101555b6000612de98660200151428a60200151612794565b90506000612e028260105461226f90919063ffffffff16565b90508215612eb4576001600160a01b038b1660009081526007602052604081208054612e9e919086908110612e3357fe5b906000526020600020906003020160000160109054906101000a9004600f0b600760008f6001600160a01b03166001600160a01b031681526020019081526020016000208681548110612e8257fe5b9060005260206000209060030201600101548d60200151612794565b9050612eb0828263ffffffff61221816565b9150505b6010819055612eca83600163ffffffff61226f16565b6001600160a01b038c16600081815260086020908152604080832094909455428b85019081524360608d01908152938352600782528483208054600181810183559185528385208e5160039092020180548f860151600f90810b6001600160801b03908116600160801b0294820b81166001600160801b03199093169290921790911692909217815592519183019190915593516002909101558d81015182526009815292902054918b015191900b965015612fb357896020015189602001511415612f9857859450612fb3565b6020808a0151600090815260099091526040902054600f0b94505b5050505b612fbf613ad3565b5060408051608081018252600080825260208201524291810191909152436060820152811561304b5760068281548110612ff557fe5b60009182526020918290206040805160808101825260039093029091018054600f81810b810b810b8552600160801b909104810b810b900b93830193909352600183015490820152600290910154606082015290505b6040810151613058613ad3565b50604080516080810182526000808252602082018190528483018051938301939093526060808601519083015291519091904211156130cd576130ca6130ab85604001514261221890919063ffffffff16565b610d076130c587606001514361221890919063ffffffff16565b613a80565b90505b60006130d884612ba5565b905060005b60ff8110156132e9576130f98262093a8063ffffffff61226f16565b915060004283111561310d57429250613121565b50600082815260096020526040902054600f0b5b6000613136611394858963ffffffff61221816565b885190915061314e90600f0b8263ffffffff612b2d16565b600f90810b810b8952602089015161316d910b8363ffffffff61367116565b600f90810b810b60208a015288516000910b121561318a57600088525b60008860200151600f0b12156131a257600060208901525b839650838860400181815250506131ea6131d96131cc88604001518761221890919063ffffffff16565b879063ffffffff61225a16565b60608801519063ffffffff61226f16565b606089015261320089600163ffffffff61226f16565b9850428414156132175750504360608701526132e9565b60068054600181018255600091909152885160039091027ff652222313e28459528d920b65115c16c04f3efc82aaedc97be59f3f377c0d3f8101805460208c0151600f90810b6001600160801b03908116600160801b029590910b81166001600160801b031990921691909117169290921790915560408901517ff652222313e28459528d920b65115c16c04f3efc82aaedc97be59f3f377c0d4082015560608901517ff652222313e28459528d920b65115c16c04f3efc82aaedc97be59f3f377c0d419091015550506001016130dd565b5060058690556001600160a01b038d16156133a05761333361331f8b602001518b60200151600f0b612b2d90919063ffffffff16565b6020870151600f0b9063ffffffff61367116565b600f90810b810b60208701528a518a5161336b9261335a9291900b9063ffffffff612b2d16565b8651600f0b9063ffffffff61367116565b600f90810b810b865260208601516000910b121561338b57600060208601525b60008560000151600f0b12156133a057600085525b60068054600181018255600091909152855160039091027ff652222313e28459528d920b65115c16c04f3efc82aaedc97be59f3f377c0d3f810180546020890151600f90810b6001600160801b03908116600160801b029590910b81166001600160801b031990921691909117169290921790915560408601517ff652222313e28459528d920b65115c16c04f3efc82aaedc97be59f3f377c0d4082015560608601517ff652222313e28459528d920b65115c16c04f3efc82aaedc97be59f3f377c0d41909101556001600160a01b038d161561356857428c6020015111156134fe5761349d8a6020015189600f0b61367190919063ffffffff16565b97508b602001518b6020015114156134cc576134c9896020015189600f0b612b2d90919063ffffffff16565b97505b60208c810151600090815260099091526040902080546001600160801b0319166001600160801b03600f8b900b161790555b428b602001511115613568578b602001518b60200151111561356857613534896020015188600f0b612b2d90919063ffffffff16565b60208c810151600090815260099091526040902080546001600160801b0319166001600160801b03600f84900b1617905596505b50505050505050505050505050565b60008061359284670de0b6b3a764000063ffffffff61249f16565b90506135a4818463ffffffff61245d16565b949350505050565b6000818484111561363b5760405162461bcd60e51b81526004018080602001828103825283818151815260200191508051906020019080838360005b838110156136005781810151838201526020016135e8565b50505050905090810190601f16801561362d5780820380516001836020036101000a031916815260200191505b509250505060405180910390fd5b505050900390565b600080613656858563ffffffff61249f16565b9050613668818463ffffffff61245d16565b95945050505050565b6000828201600f83900b8213801590613690575083600f0b81600f0b12155b806136ae5750600083600f0b1280156136ae575083600f0b81600f0b125b610e915760405162461bcd60e51b8152600401808060200182810382526021815260200180613b5d6021913960400191505060405180910390fd5b600081836137385760405162461bcd60e51b81526020600482018181528351602484015283519092839260449091019190850190808383600083156136005781810151838201526020016135e8565b50600083858161374457fe5b0495945050505050565b6000806137676002610d0785600163ffffffff61226f16565b90508291505b81811015612bcd579050806137916002610d0783612964878263ffffffff61245d16565b905061376d565b604080516001600160a01b0385811660248301528416604482015260648082018490528251808303909101815260849091019091526020810180516001600160e01b03166323b872dd60e01b1790526137f29085906137f8565b50505050565b61380a826001600160a01b0316613a9a565b61385b576040805162461bcd60e51b815260206004820152601f60248201527f5361666545524332303a2063616c6c20746f206e6f6e2d636f6e747261637400604482015290519081900360640190fd5b60006060836001600160a01b0316836040518082805190602001908083835b602083106138995780518252601f19909201916020918201910161387a565b6001836020036101000a0380198251168184511680821785525050505050509050019150506000604051808303816000865af19150503d80600081146138fb576040519150601f19603f3d011682016040523d82523d6000602084013e613900565b606091505b509150915081613957576040805162461bcd60e51b815260206004820181905260248201527f5361666545524332303a206c6f772d6c6576656c2063616c6c206661696c6564604482015290519081900360640190fd5b8051156137f25780806020019051602081101561397357600080fd5b50516137f25760405162461bcd60e51b815260040180806020018281038252602a815260200180613c7e602a913960400191505060405180910390fd5b600081600f0b60001415613a0b576040805162461bcd60e51b815260206004820181905260248201527f5369676e6564536166654d6174683a206469766973696f6e206279207a65726f604482015290519081900360640190fd5b81600f0b600019148015613a2a5750600f83900b60016001607f1b0319145b15613a665760405162461bcd60e51b8152600401808060200182810382526021815260200180613ba06021913960400191505060405180910390fd5b600082600f0b84600f0b81613a7757fe5b05949350505050565b60006113ed82670de0b6b3a764000063ffffffff61249f16565b6000813f7fc5d2460186f7233c927e7db2dcc703c0e500b653ca82273b7bfad8045d85a4708181148015906107df575050151592915050565b60405180608001604052806000600f0b81526020016000600f0b815260200160008152602001600081525090565b60408051808201909152600080825260208201529056fe5265656e7472616e637947756172643a207265656e7472616e742063616c6c0043616e6e6f742061646420746f2065787069726564206c6f636b2e2057697468647261775369676e6564536166654d6174683a206164646974696f6e206f766572666c6f774d757374207061737320626c6f636b206e756d62657220696e2074686520706173745369676e6564536166654d6174683a206469766973696f6e206f766572666c6f77536166654d6174683a206d756c7469706c69636174696f6e206f766572666c6f775369676e6564536166654d6174683a206d756c7469706c69636174696f6e206f766572666c6f7743616e206f6e6c79206c6f636b20756e74696c2074696d6520696e2074686520667574757265566f74696e67206c6f636b2063616e20626520312079656172206d61782028756e74696c207265636f6c295369676e6564536166654d6174683a207375627472616374696f6e206f766572666c6f775361666545524332303a204552433230206f7065726174696f6e20646964206e6f742073756363656564a265627a7a72315820fc30d4120120591df90bc975fea5dba3e20f329ee3e73a11e0210be4a844e46864736f6c6343000510003243616e6e6f742068617665206d6f7265207468616e20313820646563696d616c73",
  "source": "/* solium-disable security/no-block-members */\npragma solidity 0.5.16;\n\nimport { IBasicToken } from \"../shared/IBasicToken.sol\";\n\nimport { IIncentivisedVotingLockup } from \"../interfaces/IIncentivisedVotingLockup.sol\";\nimport { ReentrancyGuard } from \"@openzeppelin/contracts/utils/ReentrancyGuard.sol\";\nimport { RewardsDistributionRecipient } from \"../rewards/RewardsDistributionRecipient.sol\";\n\nimport { SafeERC20, IERC20 } from \"@openzeppelin/contracts/token/ERC20/SafeERC20.sol\";\nimport { SignedSafeMath128 } from \"../shared/SignedSafeMath128.sol\";\nimport { StableMath, SafeMath } from \"../shared/StableMath.sol\";\nimport { Root } from \"../shared/Root.sol\";\n\n/**\n * @title  IncentivisedVotingLockup\n * @author Voting Weight tracking & Decay\n *             -> Curve Finance (MIT) - forked & ported to Solidity\n *             -> https://github.com/curvefi/curve-dao-contracts/blob/master/contracts/VotingEscrow.vy\n *         osolmaz - Research & Reward distributions\n *         alsco77 - Solidity implementation\n * @notice Lockup MTA, receive vMTA (voting weight that decays over time), and earn\n *         rewards based on staticWeight\n * @dev    Supports:\n *            1) Tracking MTA Locked up (LockedBalance)\n *            2) Pull Based Reward allocations based on Lockup (Static Balance)\n *            3) Decaying voting weight lookup through CheckpointedERC20 (balanceOf)\n *            4) Ejecting fully decayed participants from reward allocation (eject)\n *            5) Migration of points to v2 (used as multiplier in future) ***** (rewardsPaid)\n *            6) Closure of contract (expire)\n */\ncontract IncentivisedVotingLockup is\n    IIncentivisedVotingLockup,\n    ReentrancyGuard,\n    RewardsDistributionRecipient\n{\n    using StableMath for uint256;\n    using SafeMath for uint256;\n    using SignedSafeMath128 for int128;\n    using SafeERC20 for IERC20;\n\n    /** Shared Events */\n    event Deposit(address indexed provider, uint256 value, uint256 locktime, LockAction indexed action, uint256 ts);\n    event Withdraw(address indexed provider, uint256 value, uint256 ts);\n    event Ejected(address indexed ejected, address ejector, uint256 ts);\n    event Expired();\n    event RewardAdded(uint256 reward);\n    event RewardPaid(address indexed user, uint256 reward);\n\n    /** Shared Globals */\n    IERC20 public stakingToken;\n    uint256 private constant WEEK = 7 days;\n    uint256 public constant MAXTIME = 365 days;\n    uint256 public END;\n    bool public expired = false;\n\n    /** Lockup */\n    uint256 public globalEpoch;\n    Point[] public pointHistory;\n    mapping(address => Point[]) public userPointHistory;\n    mapping(address => uint256) public userPointEpoch;\n    mapping(uint256 => int128) public slopeChanges;\n    mapping(address => LockedBalance) public locked;\n\n    // Voting token - Checkpointed view only ERC20\n    string public name;\n    string public symbol;\n    uint256 public decimals = 18;\n\n    /** Rewards */\n    // Updated upon admin deposit\n    uint256 public periodFinish = 0;\n    uint256 public rewardRate = 0;\n\n    // Globals updated per stake/deposit/withdrawal\n    uint256 public totalStaticWeight = 0;\n    uint256 public lastUpdateTime = 0;\n    uint256 public rewardPerTokenStored = 0;\n\n    // Per user storage updated per stake/deposit/withdrawal\n    mapping(address => uint256) public userRewardPerTokenPaid;\n    mapping(address => uint256) public rewards;\n    mapping(address => uint256) public rewardsPaid;\n\n    /** Structs */\n    struct Point {\n        int128 bias;\n        int128 slope;\n        uint256 ts;\n        uint256 blk;\n    }\n\n    struct LockedBalance {\n        int128 amount;\n        uint256 end;\n    }\n\n    enum LockAction {\n        CREATE_LOCK,\n        INCREASE_LOCK_AMOUNT,\n        INCREASE_LOCK_TIME\n    }\n\n    constructor(\n        address _stakingToken,\n        string memory _name,\n        string memory _symbol,\n        address _nexus,\n        address _rewardsDistributor\n    )\n        public\n        RewardsDistributionRecipient(_nexus, _rewardsDistributor)\n    {\n        stakingToken = IERC20(_stakingToken);\n        Point memory init = Point({ bias: int128(0), slope: int128(0), ts: block.timestamp, blk: block.number});\n        pointHistory.push(init);\n\n        decimals = IBasicToken(_stakingToken).decimals();\n        require(decimals <= 18, \"Cannot have more than 18 decimals\");\n\n        name = _name;\n        symbol = _symbol;\n\n        END = block.timestamp.add(MAXTIME);\n    }\n\n    /** @dev Modifier to ensure contract has not yet expired */\n    modifier contractNotExpired(){\n        require(!expired, \"Contract is expired\");\n        _;\n    }\n\n    /**\n    * @dev Validates that the user has an expired lock && they still have capacity to earn\n    * @param _addr User address to check\n    */\n    modifier lockupIsOver(address _addr) {\n        LockedBalance memory userLock = locked[_addr];\n        require(userLock.amount > 0 && block.timestamp >= userLock.end, \"Users lock didn't expire\");\n        require(staticBalanceOf(_addr) > 0, \"User must have existing bias\");\n        _;\n    }\n\n    /***************************************\n                LOCKUP - GETTERS\n    ****************************************/\n\n    /**\n     * @dev Gets the last available user point\n     * @param _addr User address\n     * @return bias i.e. y\n     * @return slope i.e. linear gradient\n     * @return ts i.e. time point was logged\n     */\n    function getLastUserPoint(address _addr)\n        external\n        view\n        returns(\n            int128 bias,\n            int128 slope,\n            uint256 ts\n        )\n    {\n        uint256 uepoch = userPointEpoch[_addr];\n        if(uepoch == 0){\n            return (0, 0, 0);\n        }\n        Point memory point = userPointHistory[_addr][uepoch];\n        return (point.bias, point.slope, point.ts);\n    }\n\n    /***************************************\n                    LOCKUP\n    ****************************************/\n\n    /**\n     * @dev Records a checkpoint of both individual and global slope\n     * @param _addr User address, or address(0) for only global\n     * @param _oldLocked Old amount that user had locked, or null for global\n     * @param _newLocked new amount that user has locked, or null for global\n     */\n    function _checkpoint(\n        address _addr,\n        LockedBalance memory _oldLocked,\n        LockedBalance memory _newLocked\n    )\n        internal\n    {\n        Point memory userOldPoint;\n        Point memory userNewPoint;\n        int128 oldSlopeDelta = 0;\n        int128 newSlopeDelta = 0;\n        uint256 epoch = globalEpoch;\n\n        if(_addr != address(0)){\n            // Calculate slopes and biases\n            // Kept at zero when they have to\n            if(_oldLocked.end > block.timestamp && _oldLocked.amount > 0){\n                userOldPoint.slope = _oldLocked.amount.div(int128(MAXTIME));\n                userOldPoint.bias = userOldPoint.slope.mul(int128(_oldLocked.end.sub(block.timestamp)));\n            }\n            if(_newLocked.end > block.timestamp && _newLocked.amount > 0){\n                userNewPoint.slope = _newLocked.amount.div(int128(MAXTIME));\n                userNewPoint.bias = userNewPoint.slope.mul(int128(_newLocked.end.sub(block.timestamp)));\n            }\n\n            // Moved from bottom final if statement to resolve stack too deep err\n            // start {\n            // Now handle user history\n            uint256 uEpoch = userPointEpoch[_addr];\n            if(uEpoch == 0){\n                userPointHistory[_addr].push(userOldPoint);\n            }\n            // track the total static weight\n            uint256 newStatic = _staticBalance(userNewPoint.slope, block.timestamp, _newLocked.end);\n            uint256 additiveStaticWeight = totalStaticWeight.add(newStatic);\n            if(uEpoch > 0){\n                uint256 oldStatic = _staticBalance(userPointHistory[_addr][uEpoch].slope, userPointHistory[_addr][uEpoch].ts, _oldLocked.end);\n                additiveStaticWeight = additiveStaticWeight.sub(oldStatic);\n            }\n            totalStaticWeight = additiveStaticWeight;\n\n            userPointEpoch[_addr] = uEpoch.add(1);\n            userNewPoint.ts = block.timestamp;\n            userNewPoint.blk = block.number;\n            // userPointHistory[_addr][uEpoch.add(1)] = userNewPoint;\n            userPointHistory[_addr].push(userNewPoint);\n\n            // } end\n\n            // Read values of scheduled changes in the slope\n            // oldLocked.end can be in the past and in the future\n            // newLocked.end can ONLY by in the FUTURE unless everything expired: than zeros\n            oldSlopeDelta = slopeChanges[_oldLocked.end];\n            if(_newLocked.end != 0){\n                if (_newLocked.end == _oldLocked.end) {\n                    newSlopeDelta = oldSlopeDelta;\n                } else {\n                    newSlopeDelta = slopeChanges[_newLocked.end];\n                }\n            }\n        }\n\n        Point memory lastPoint = Point({bias: 0, slope: 0, ts: block.timestamp, blk: block.number});\n        if(epoch > 0){\n            lastPoint = pointHistory[epoch];\n        }\n        uint256 lastCheckpoint = lastPoint.ts;\n\n        // initialLastPoint is used for extrapolation to calculate block number\n        // (approximately, for *At methods) and save them\n        // as we cannot figure that out exactly from inside the contract\n        Point memory initialLastPoint = Point({bias: 0, slope: 0, ts: lastPoint.ts, blk: lastPoint.blk});\n        uint256 blockSlope = 0; // dblock/dt\n        if(block.timestamp > lastPoint.ts){\n            blockSlope = StableMath.scaleInteger(block.number.sub(lastPoint.blk)).div(block.timestamp.sub(lastPoint.ts));\n        }\n        // If last point is already recorded in this block, slope=0\n        // But that's ok b/c we know the block in such case\n\n        // Go over weeks to fill history and calculate what the current point is\n        uint256 iterativeTime = _floorToWeek(lastCheckpoint);\n        for (uint256 i = 0; i < 255; i++){\n            // Hopefully it won't happen that this won't get used in 5 years!\n            // If it does, users will be able to withdraw but vote weight will be broken\n            iterativeTime = iterativeTime.add(WEEK);\n            int128 dSlope = 0;\n            if(iterativeTime > block.timestamp){\n                iterativeTime = block.timestamp;\n            } else {\n                dSlope = slopeChanges[iterativeTime];\n            }\n            int128 biasDelta = lastPoint.slope.mul(int128(iterativeTime.sub(lastCheckpoint)));\n            lastPoint.bias = lastPoint.bias.sub(biasDelta);\n            lastPoint.slope = lastPoint.slope.add(dSlope);\n            // This can happen\n            if(lastPoint.bias < 0){\n                lastPoint.bias = 0;\n            }\n            // This cannot happen - just in case\n            if(lastPoint.slope < 0){\n                lastPoint.slope = 0;\n            }\n            lastCheckpoint = iterativeTime;\n            lastPoint.ts = iterativeTime;\n            lastPoint.blk = initialLastPoint.blk.add(blockSlope.mulTruncate(iterativeTime.sub(initialLastPoint.ts)));\n\n            // when epoch is incremented, we either push here or after slopes updated below\n            epoch = epoch.add(1);\n            if(iterativeTime == block.timestamp) {\n                lastPoint.blk = block.number;\n                break;\n            } else {\n                // pointHistory[epoch] = lastPoint;\n                pointHistory.push(lastPoint);\n            }\n        }\n\n        globalEpoch = epoch;\n        // Now pointHistory is filled until t=now\n\n        if(_addr != address(0)){\n            // If last point was in this block, the slope change has been applied already\n            // But in such case we have 0 slope(s)\n            lastPoint.slope = lastPoint.slope.add(userNewPoint.slope.sub(userOldPoint.slope));\n            lastPoint.bias = lastPoint.bias.add(userNewPoint.bias.sub(userOldPoint.bias));\n            if(lastPoint.slope < 0) {\n                lastPoint.slope = 0;\n            }\n            if(lastPoint.bias < 0){\n                lastPoint.bias = 0;\n            }\n        }\n\n        // Record the changed point into history\n        // pointHistory[epoch] = lastPoint;\n        pointHistory.push(lastPoint);\n\n        if(_addr != address(0)){\n            // Schedule the slope changes (slope is going down)\n            // We subtract new_user_slope from [new_locked.end]\n            // and add old_user_slope to [old_locked.end]\n            if(_oldLocked.end > block.timestamp){\n                // oldSlopeDelta was <something> - userOldPoint.slope, so we cancel that\n                oldSlopeDelta = oldSlopeDelta.add(userOldPoint.slope);\n                if(_newLocked.end == _oldLocked.end) {\n                    oldSlopeDelta = oldSlopeDelta.sub(userNewPoint.slope);  // It was a new deposit, not extension\n                }\n                slopeChanges[_oldLocked.end] = oldSlopeDelta;\n            }\n            if(_newLocked.end > block.timestamp) {\n                if(_newLocked.end > _oldLocked.end){\n                    newSlopeDelta = newSlopeDelta.sub(userNewPoint.slope);  // old slope disappeared at this point\n                    slopeChanges[_newLocked.end] = newSlopeDelta;\n                }\n                // else: we recorded it already in oldSlopeDelta\n            }\n        }\n    }\n\n    /**\n     * @dev Deposits or creates a stake for a given address\n     * @param _addr User address to assign the stake\n     * @param _value Total units of StakingToken to lockup\n     * @param _unlockTime Time at which the stake should unlock\n     * @param _oldLocked Previous amount staked by this user\n     * @param _action See LockAction enum\n     */\n    function _depositFor(\n        address _addr,\n        uint256 _value,\n        uint256 _unlockTime,\n        LockedBalance memory _oldLocked,\n        LockAction _action\n    )\n        internal\n    {\n        LockedBalance memory newLocked = LockedBalance({amount: _oldLocked.amount, end: _oldLocked.end});\n\n        // Adding to existing lock, or if a lock is expired - creating a new one\n        newLocked.amount = newLocked.amount.add(int128(_value));\n        if(_unlockTime != 0){\n            newLocked.end = _unlockTime;\n        }\n        locked[_addr] = newLocked;\n\n        // Possibilities:\n        // Both _oldLocked.end could be current or expired (>/< block.timestamp)\n        // value == 0 (extend lock) or value > 0 (add to lock or extend lock)\n        // newLocked.end > block.timestamp (always)\n        _checkpoint(_addr, _oldLocked, newLocked);\n\n        if(_value != 0) {\n            stakingToken.safeTransferFrom(_addr, address(this), _value);\n        }\n\n        emit Deposit(_addr, _value, newLocked.end, _action, block.timestamp);\n    }\n\n    /**\n     * @dev Public function to trigger global checkpoint\n     */\n    function checkpoint() external {\n        LockedBalance memory empty;\n        _checkpoint(address(0), empty, empty);\n    }\n\n    /**\n     * @dev Creates a new lock\n     * @param _value Total units of StakingToken to lockup\n     * @param _unlockTime Time at which the stake should unlock\n     */\n    function createLock(uint256 _value, uint256 _unlockTime)\n        external\n        nonReentrant\n        contractNotExpired\n        updateReward(msg.sender)\n    {\n        uint256 unlock_time = _floorToWeek(_unlockTime);  // Locktime is rounded down to weeks\n        LockedBalance memory locked_ = LockedBalance({amount: locked[msg.sender].amount, end: locked[msg.sender].end});\n\n        require(_value > 0, \"Must stake non zero amount\");\n        require(locked_.amount == 0, \"Withdraw old tokens first\");\n\n        require(unlock_time > block.timestamp, \"Can only lock until time in the future\");\n        require(unlock_time <= END, \"Voting lock can be 1 year max (until recol)\");\n\n        _depositFor(msg.sender, _value, unlock_time, locked_, LockAction.CREATE_LOCK);\n    }\n\n    /**\n     * @dev Increases amount of stake thats locked up & resets decay\n     * @param _value Additional units of StakingToken to add to exiting stake\n     */\n    function increaseLockAmount(uint256 _value)\n        external\n        nonReentrant\n        contractNotExpired\n        updateReward(msg.sender)\n    {\n        LockedBalance memory locked_ = LockedBalance({amount: locked[msg.sender].amount, end: locked[msg.sender].end});\n\n        require(_value > 0, \"Must stake non zero amount\");\n        require(locked_.amount > 0, \"No existing lock found\");\n        require(locked_.end > block.timestamp, \"Cannot add to expired lock. Withdraw\");\n\n        _depositFor(msg.sender, _value, 0, locked_, LockAction.INCREASE_LOCK_AMOUNT);\n    }\n\n    /**\n     * @dev Increases length of lockup & resets decay\n     * @param _unlockTime New unlocktime for lockup\n     */\n    function increaseLockLength(uint256 _unlockTime)\n        external\n        nonReentrant\n        contractNotExpired\n        updateReward(msg.sender)\n    {\n        LockedBalance memory locked_ = LockedBalance({amount: locked[msg.sender].amount, end: locked[msg.sender].end});\n        uint256 unlock_time = _floorToWeek(_unlockTime);  // Locktime is rounded down to weeks\n\n        require(locked_.amount > 0, \"Nothing is locked\");\n        require(locked_.end > block.timestamp, \"Lock expired\");\n        require(unlock_time > locked_.end, \"Can only increase lock WEEK\");\n        require(unlock_time <= END, \"Voting lock can be 1 year max (until recol)\");\n\n        _depositFor(msg.sender, 0, unlock_time, locked_, LockAction.INCREASE_LOCK_TIME);\n    }\n\n    /**\n     * @dev Withdraws all the senders stake, providing lockup is over\n     */\n    function withdraw()\n        external\n    {\n        _withdraw(msg.sender);\n    }\n\n    /**\n     * @dev Withdraws a given users stake, providing the lockup has finished\n     * @param _addr User for which to withdraw\n     */\n    function _withdraw(address _addr)\n        internal\n        nonReentrant\n        updateReward(_addr)\n    {\n        LockedBalance memory oldLock = LockedBalance({ end: locked[_addr].end, amount: locked[_addr].amount });\n        require(block.timestamp >= oldLock.end || expired, \"The lock didn't expire\");\n        require(oldLock.amount > 0, \"Must have something to withdraw\");\n\n        uint256 value = uint256(oldLock.amount);\n\n        LockedBalance memory currentLock = LockedBalance({end: 0, amount: 0});\n        locked[_addr] = currentLock;\n\n        // oldLocked can have either expired <= timestamp or zero end\n        // currentLock has only 0 end\n        // Both can have >= 0 amount\n        if(!expired){\n            _checkpoint(_addr, oldLock, currentLock);\n        }\n\n        stakingToken.safeTransfer(_addr, value);\n\n        emit Withdraw(_addr, value, block.timestamp);\n    }\n\n    /**\n     * @dev Withdraws and consequently claims rewards for the sender\n     */\n    function exit()\n        external\n    {\n        _withdraw(msg.sender);\n        claimReward();\n    }\n\n    /**\n     * @dev Ejects a user from the reward allocation, given their lock has freshly expired.\n     * Leave it to the user to withdraw and claim their rewards.\n     * @param _addr Address of the user\n     */\n    function eject(address _addr)\n        external\n        contractNotExpired\n        lockupIsOver(_addr)\n    {\n        _withdraw(_addr);\n\n        // solium-disable-next-line security/no-tx-origin\n        emit Ejected(_addr, tx.origin, block.timestamp);\n    }\n\n    /**\n     * @dev Ends the contract, unlocking all stakes.\n     * No more staking can happen. Only withdraw and Claim.\n     */\n    function expireContract()\n        external\n        onlyGovernor\n        contractNotExpired\n        updateReward(address(0))\n    {\n        require(block.timestamp > periodFinish, \"Period must be over\");\n\n        expired = true;\n\n        emit Expired();\n    }\n\n\n\n    /***************************************\n                    GETTERS\n    ****************************************/\n\n\n    /** @dev Floors a timestamp to the nearest weekly increment */\n    function _floorToWeek(uint256 _t)\n        internal\n        pure\n        returns(uint256)\n    {\n        return _t.div(WEEK).mul(WEEK);\n    }\n\n    /**\n     * @dev Uses binarysearch to find the most recent point history preceeding block\n     * @param _block Find the most recent point history before this block\n     * @param _maxEpoch Do not search pointHistories past this index\n     */\n    function _findBlockEpoch(uint256 _block, uint256 _maxEpoch)\n        internal\n        view\n        returns(uint256)\n    {\n        // Binary search\n        uint256 min = 0;\n        uint256 max = _maxEpoch;\n        // Will be always enough for 128-bit numbers\n        for(uint256 i = 0; i < 128; i++){\n            if (min >= max)\n                break;\n            uint256 mid = (min.add(max).add(1)).div(2);\n            if (pointHistory[mid].blk <= _block){\n                min = mid;\n            } else {\n                max = mid.sub(1);\n            }\n        }\n        return min;\n    }\n\n    /**\n     * @dev Uses binarysearch to find the most recent user point history preceeding block\n     * @param _addr User for which to search\n     * @param _block Find the most recent point history before this block\n     */\n    function _findUserBlockEpoch(address _addr, uint256 _block)\n        internal\n        view\n        returns(uint256)\n    {\n        uint256 min = 0;\n        uint256 max = userPointEpoch[_addr];\n        for(uint256 i = 0; i < 128; i++) {\n            if(min >= max){\n                break;\n            }\n            uint256 mid = (min.add(max).add(1)).div(2);\n            if(userPointHistory[_addr][mid].blk <= _block){\n                min = mid;\n            } else {\n                max = mid.sub(1);\n            }\n        }\n        return min;\n    }\n\n    /**\n     * @dev Gets curent user voting weight (aka effectiveStake)\n     * @param _owner User for which to return the balance\n     * @return uint256 Balance of user\n     */\n    function balanceOf(address _owner)\n        public\n        view\n        returns (uint256)\n    {\n        uint256 epoch = userPointEpoch[_owner];\n        if(epoch == 0){\n            return 0;\n        }\n        Point memory lastPoint = userPointHistory[_owner][epoch];\n        lastPoint.bias = lastPoint.bias.sub(lastPoint.slope.mul(int128(block.timestamp.sub(lastPoint.ts))));\n        if(lastPoint.bias < 0) {\n            lastPoint.bias = 0;\n        }\n        return uint256(lastPoint.bias);\n    }\n\n    /**\n     * @dev Gets a users votingWeight at a given blockNumber\n     * @param _owner User for which to return the balance\n     * @param _blockNumber Block at which to calculate balance\n     * @return uint256 Balance of user\n     */\n    function balanceOfAt(address _owner, uint256 _blockNumber)\n        public\n        view\n        returns (uint256)\n    {\n        require(_blockNumber <= block.number, \"Must pass block number in the past\");\n\n        // Get most recent user Point to block\n        uint256 userEpoch = _findUserBlockEpoch(_owner, _blockNumber);\n        if(userEpoch == 0){\n            return 0;\n        }\n        Point memory upoint = userPointHistory[_owner][userEpoch];\n\n        // Get most recent global Point to block\n        uint256 maxEpoch = globalEpoch;\n        uint256 epoch = _findBlockEpoch(_blockNumber, maxEpoch);\n        Point memory point0 = pointHistory[epoch];\n\n        // Calculate delta (block & time) between user Point and target block\n        // Allowing us to calculate the average seconds per block between\n        // the two points\n        uint256 dBlock = 0;\n        uint256 dTime = 0;\n        if(epoch < maxEpoch){\n            Point memory point1 = pointHistory[epoch.add(1)];\n            dBlock = point1.blk.sub(point0.blk);\n            dTime = point1.ts.sub(point0.ts);\n        } else {\n            dBlock = block.number.sub(point0.blk);\n            dTime = block.timestamp.sub(point0.ts);\n        }\n        // (Deterministically) Estimate the time at which block _blockNumber was mined\n        uint256 blockTime = point0.ts;\n        if(dBlock != 0) {\n            // blockTime += dTime * (_blockNumber - point0.blk) / dBlock;\n            blockTime = blockTime.add(dTime.mul(_blockNumber.sub(point0.blk)).div(dBlock));\n        }\n        // Current Bias = most recent bias - (slope * time since update)\n        upoint.bias = upoint.bias.sub(upoint.slope.mul(int128(blockTime.sub(upoint.ts))));\n        if(upoint.bias >= 0){\n            return uint256(upoint.bias);\n        } else {\n            return 0;\n        }\n    }\n\n    /**\n     * @dev Calculates total supply of votingWeight at a given time _t\n     * @param _point Most recent point before time _t\n     * @param _t Time at which to calculate supply\n     * @return totalSupply at given point in time\n     */\n    function _supplyAt(Point memory _point, uint256 _t)\n        internal\n        view\n        returns (uint256)\n    {\n        Point memory lastPoint = _point;\n        // Floor the timestamp to weekly interval\n        uint256 iterativeTime = _floorToWeek(lastPoint.ts);\n        // Iterate through all weeks between _point & _t to account for slope changes\n        for(uint256 i = 0; i < 255; i++){\n            iterativeTime = iterativeTime.add(WEEK);\n            int128 dSlope = 0;\n            // If week end is after timestamp, then truncate & leave dSlope to 0\n            if(iterativeTime > _t){\n                iterativeTime = _t;\n            }\n            // else get most recent slope change\n            else {\n                dSlope = slopeChanges[iterativeTime];\n            }\n\n            // lastPoint.bias -= lastPoint.slope * convert(iterativeTime - lastPoint.ts, int128)\n            lastPoint.bias = lastPoint.bias.sub(lastPoint.slope.mul(int128(iterativeTime.sub(lastPoint.ts))));\n            if(iterativeTime == _t){\n                break;\n            }\n            lastPoint.slope = lastPoint.slope.add(dSlope);\n            lastPoint.ts = iterativeTime;\n        }\n\n        if (lastPoint.bias < 0){\n            lastPoint.bias = 0;\n        }\n        return uint256(lastPoint.bias);\n    }\n\n    /**\n     * @dev Calculates current total supply of votingWeight\n     * @return totalSupply of voting token weight\n     */\n    function totalSupply()\n        public\n        view\n        returns (uint256)\n    {\n        uint256 epoch_ = globalEpoch;\n        Point memory lastPoint = pointHistory[epoch_];\n        return _supplyAt(lastPoint, block.timestamp);\n    }\n\n    /**\n     * @dev Calculates total supply of votingWeight at a given blockNumber\n     * @param _blockNumber Block number at which to calculate total supply\n     * @return totalSupply of voting token weight at the given blockNumber\n     */\n    function totalSupplyAt(uint256 _blockNumber)\n        public\n        view\n        returns (uint256)\n    {\n        require(_blockNumber <= block.number, \"Must pass block number in the past\");\n\n        uint256 epoch = globalEpoch;\n        uint256 targetEpoch = _findBlockEpoch(_blockNumber, epoch);\n\n        Point memory point = pointHistory[targetEpoch];\n\n        // If point.blk > _blockNumber that means we got the initial epoch & contract did not yet exist\n        if(point.blk > _blockNumber){\n            return 0;\n        }\n\n        uint256 dTime = 0;\n        if(targetEpoch < epoch){\n            Point memory pointNext = pointHistory[targetEpoch.add(1)];\n            if(point.blk != pointNext.blk) {\n                dTime = (_blockNumber.sub(point.blk)).mul(pointNext.ts.sub(point.ts)).div(pointNext.blk.sub(point.blk));\n            }\n        } else if (point.blk != block.number){\n            dTime = (_blockNumber.sub(point.blk)).mul(block.timestamp.sub(point.ts)).div(block.number.sub(point.blk));\n        }\n        // Now dTime contains info on how far are we beyond point\n\n        return _supplyAt(point, point.ts.add(dTime));\n    }\n\n\n    /***************************************\n                    REWARDS\n    ****************************************/\n\n    /** @dev Updates the reward for a given address, before executing function */\n    modifier updateReward(address _account) {\n        // Setting of global vars\n        uint256 newRewardPerToken = rewardPerToken();\n        // If statement protects against loss in initialisation case\n        if(newRewardPerToken > 0) {\n            rewardPerTokenStored = newRewardPerToken;\n            lastUpdateTime = lastTimeRewardApplicable();\n            // Setting of personal vars based on new globals\n            if (_account != address(0)) {\n                rewards[_account] = earned(_account);\n                userRewardPerTokenPaid[_account] = newRewardPerToken;\n            }\n        }\n        _;\n    }\n\n    /**\n     * @dev Claims outstanding rewards for the sender.\n     * First updates outstanding reward allocation and then transfers.\n     */\n    function claimReward()\n        public\n        updateReward(msg.sender)\n    {\n        uint256 reward = rewards[msg.sender];\n        if (reward > 0) {\n            rewards[msg.sender] = 0;\n            stakingToken.safeTransfer(msg.sender, reward);\n            rewardsPaid[msg.sender] = rewardsPaid[msg.sender].add(reward);\n            emit RewardPaid(msg.sender, reward);\n        }\n    }\n\n\n    /***************************************\n                REWARDS - GETTERS\n    ****************************************/\n\n    /**\n     * @dev Gets the most recent Static Balance (bias) for a user\n     * @param _addr User for which to retrieve static balance\n     * @return uint256 balance\n     */\n    function staticBalanceOf(address _addr)\n        public\n        view\n        returns (uint256)\n    {\n        uint256 uepoch = userPointEpoch[_addr];\n        if(uepoch == 0 || userPointHistory[_addr][uepoch].bias == 0){\n            return 0;\n        }\n        return _staticBalance(userPointHistory[_addr][uepoch].slope, userPointHistory[_addr][uepoch].ts, locked[_addr].end);\n    }\n\n    function _staticBalance(int128 _slope, uint256 _startTime, uint256 _endTime)\n        internal\n        pure\n        returns (uint256)\n    {\n        if(_startTime > _endTime) return 0;\n        // get lockup length (end - point.ts)\n        uint256 lockupLength = _endTime.sub(_startTime);\n        // s = amount * sqrt(length)\n        uint256 s = uint256(_slope.mul(10000)).mul(Root.sqrt(lockupLength));\n        return s;\n    }\n\n    /**\n     * @dev Gets the RewardsToken\n     */\n    function getRewardToken()\n        external\n        view\n        returns (IERC20)\n    {\n        return stakingToken;\n    }\n\n    /**\n     * @dev Gets the duration of the rewards period\n     */\n    function getDuration()\n        external\n        pure\n        returns (uint256)\n    {\n        return WEEK;\n    }\n\n    /**\n     * @dev Gets the last applicable timestamp for this reward period\n     */\n    function lastTimeRewardApplicable()\n        public\n        view\n        returns (uint256)\n    {\n        return StableMath.min(block.timestamp, periodFinish);\n    }\n\n    /**\n     * @dev Calculates the amount of unclaimed rewards per token since last update,\n     * and sums with stored to give the new cumulative reward per token\n     * @return 'Reward' per staked token\n     */\n    function rewardPerToken()\n        public\n        view\n        returns (uint256)\n    {\n        // If there is no StakingToken liquidity, avoid div(0)\n        uint256 totalStatic = totalStaticWeight;\n        if (totalStatic == 0) {\n            return rewardPerTokenStored;\n        }\n        // new reward units to distribute = rewardRate * timeSinceLastUpdate\n        uint256 rewardUnitsToDistribute = rewardRate.mul(lastTimeRewardApplicable().sub(lastUpdateTime));\n        // new reward units per token = (rewardUnitsToDistribute * 1e18) / totalTokens\n        uint256 unitsToDistributePerToken = rewardUnitsToDistribute.divPrecisely(totalStatic);\n        // return summed rate\n        return rewardPerTokenStored.add(unitsToDistributePerToken);\n    }\n\n    /**\n     * @dev Calculates the amount of unclaimed rewards a user has earned\n     * @param _addr User address\n     * @return Total reward amount earned\n     */\n    function earned(address _addr)\n        public\n        view\n        returns (uint256)\n    {\n        // current rate per token - rate user previously received\n        uint256 userRewardDelta = rewardPerToken().sub(userRewardPerTokenPaid[_addr]);\n        // new reward = staked tokens * difference in rate\n        uint256 userNewReward = staticBalanceOf(_addr).mulTruncate(userRewardDelta);\n        // add to previous rewards\n        return rewards[_addr].add(userNewReward);\n    }\n\n\n    /***************************************\n                REWARDS - ADMIN\n    ****************************************/\n\n    /**\n     * @dev Notifies the contract that new rewards have been added.\n     * Calculates an updated rewardRate based on the rewards in period.\n     * @param _reward Units of RewardToken that have been added to the pool\n     */\n    function notifyRewardAmount(uint256 _reward)\n        external\n        onlyRewardsDistributor\n        contractNotExpired\n        updateReward(address(0))\n    {\n        uint256 currentTime = block.timestamp;\n        // If previous period over, reset rewardRate\n        if (currentTime >= periodFinish) {\n            rewardRate = _reward.div(WEEK);\n        }\n        // If additional reward to existing period, calc sum\n        else {\n            uint256 remaining = periodFinish.sub(currentTime);\n            uint256 leftover = remaining.mul(rewardRate);\n            rewardRate = _reward.add(leftover).div(WEEK);\n        }\n\n        lastUpdateTime = currentTime;\n        periodFinish = currentTime.add(WEEK);\n\n        emit RewardAdded(_reward);\n    }\n}\n",
  "sourcePath": "/Volumes/sdxc/ETHEREUM/CODE/mStable-v1-edit/contracts/governance/IncentivisedVotingLockup.sol",
  "compiler": {
    "name": "solc",
    "version": "0.5.16+commit.9c3226ce.Emscripten.clang"
  },
  "schemaVersion": "3.1.0",
  "updatedAt": "2021-03-11T05:43:14.706Z",
  "devdoc": {
    "author": "Voting Weight tracking & Decay            -> Curve Finance (MIT) - forked & ported to Solidity            -> https://github.com/curvefi/curve-dao-contracts/blob/master/contracts/VotingEscrow.vy        osolmaz - Research & Reward distributions        alsco77 - Solidity implementation",
    "details": "Supports:           1) Tracking MTA Locked up (LockedBalance)           2) Pull Based Reward allocations based on Lockup (Static Balance)           3) Decaying voting weight lookup through CheckpointedERC20 (balanceOf)           4) Ejecting fully decayed participants from reward allocation (eject)           5) Migration of points to v2 (used as multiplier in future) ***** (rewardsPaid)           6) Closure of contract (expire)",
    "methods": {
      "balanceOf(address)": {
        "details": "Gets curent user voting weight (aka effectiveStake)",
        "params": {
          "_owner": "User for which to return the balance"
        },
        "return": "uint256 Balance of user"
      },
      "balanceOfAt(address,uint256)": {
        "details": "Gets a users votingWeight at a given blockNumber",
        "params": {
          "_blockNumber": "Block at which to calculate balance",
          "_owner": "User for which to return the balance"
        },
        "return": "uint256 Balance of user"
      },
      "checkpoint()": {
        "details": "Public function to trigger global checkpoint"
      },
      "claimReward()": {
        "details": "Claims outstanding rewards for the sender. First updates outstanding reward allocation and then transfers."
      },
      "createLock(uint256,uint256)": {
        "details": "Creates a new lock",
        "params": {
          "_unlockTime": "Time at which the stake should unlock",
          "_value": "Total units of StakingToken to lockup"
        }
      },
      "earned(address)": {
        "details": "Calculates the amount of unclaimed rewards a user has earned",
        "params": {
          "_addr": "User address"
        },
        "return": "Total reward amount earned"
      },
      "eject(address)": {
        "details": "Ejects a user from the reward allocation, given their lock has freshly expired. Leave it to the user to withdraw and claim their rewards.",
        "params": {
          "_addr": "Address of the user"
        }
      },
      "exit()": {
        "details": "Withdraws and consequently claims rewards for the sender"
      },
      "expireContract()": {
        "details": "Ends the contract, unlocking all stakes. No more staking can happen. Only withdraw and Claim."
      },
      "getDuration()": {
        "details": "Gets the duration of the rewards period"
      },
      "getLastUserPoint(address)": {
        "details": "Gets the last available user point",
        "params": {
          "_addr": "User address"
        },
        "return": "bias i.e. yslope i.e. linear gradientts i.e. time point was logged"
      },
      "getRewardToken()": {
        "details": "Gets the RewardsToken"
      },
      "increaseLockAmount(uint256)": {
        "details": "Increases amount of stake thats locked up & resets decay",
        "params": {
          "_value": "Additional units of StakingToken to add to exiting stake"
        }
      },
      "increaseLockLength(uint256)": {
        "details": "Increases length of lockup & resets decay",
        "params": {
          "_unlockTime": "New unlocktime for lockup"
        }
      },
      "lastTimeRewardApplicable()": {
        "details": "Gets the last applicable timestamp for this reward period"
      },
      "notifyRewardAmount(uint256)": {
        "details": "Notifies the contract that new rewards have been added. Calculates an updated rewardRate based on the rewards in period.",
        "params": {
          "_reward": "Units of RewardToken that have been added to the pool"
        }
      },
      "rewardPerToken()": {
        "details": "Calculates the amount of unclaimed rewards per token since last update, and sums with stored to give the new cumulative reward per token",
        "return": "'Reward' per staked token"
      },
      "setRewardsDistribution(address)": {
        "details": "Change the rewardsDistributor - only called by mStable governor",
        "params": {
          "_rewardsDistributor": "Address of the new distributor"
        }
      },
      "staticBalanceOf(address)": {
        "details": "Gets the most recent Static Balance (bias) for a user",
        "params": {
          "_addr": "User for which to retrieve static balance"
        },
        "return": "uint256 balance"
      },
      "totalSupply()": {
        "details": "Calculates current total supply of votingWeight",
        "return": "totalSupply of voting token weight"
      },
      "totalSupplyAt(uint256)": {
        "details": "Calculates total supply of votingWeight at a given blockNumber",
        "params": {
          "_blockNumber": "Block number at which to calculate total supply"
        },
        "return": "totalSupply of voting token weight at the given blockNumber"
      },
      "withdraw()": {
        "details": "Withdraws all the senders stake, providing lockup is over"
      }
    },
    "title": "IncentivisedVotingLockup"
  },
  "userdoc": {
    "methods": {},
    "notice": "Lockup MTA, receive vMTA (voting weight that decays over time), and earn        rewards based on staticWeight"
  }
}