{
  "contractName": "InitializablePausableModule",
  "abi": [
    {
      "anonymous": false,
      "inputs": [
        {
          "indexed": false,
          "internalType": "address",
          "name": "account",
          "type": "address"
        }
      ],
      "name": "Paused",
      "type": "event"
    },
    {
      "anonymous": false,
      "inputs": [
        {
          "indexed": false,
          "internalType": "address",
          "name": "account",
          "type": "address"
        }
      ],
      "name": "Unpaused",
      "type": "event"
    },
    {
      "constant": true,
      "inputs": [],
      "name": "nexus",
      "outputs": [
        {
          "internalType": "contract INexus",
          "name": "",
          "type": "address"
        }
      ],
      "payable": false,
      "stateMutability": "view",
      "type": "function"
    },
    {
      "constant": true,
      "inputs": [],
      "name": "paused",
      "outputs": [
        {
          "internalType": "bool",
          "name": "",
          "type": "bool"
        }
      ],
      "payable": false,
      "stateMutability": "view",
      "type": "function"
    },
    {
      "constant": false,
      "inputs": [],
      "name": "pause",
      "outputs": [],
      "payable": false,
      "stateMutability": "nonpayable",
      "type": "function"
    },
    {
      "constant": false,
      "inputs": [],
      "name": "unpause",
      "outputs": [],
      "payable": false,
      "stateMutability": "nonpayable",
      "type": "function"
    }
  ],
  "bytecode": "0x60806040526008805460ff60a01b1916905534801561001d57600080fd5b506103708061002d6000396000f3fe608060405234801561001057600080fd5b506004361061004c5760003560e01c80633f4ba83a146100515780635c975abb1461005b5780638456cb5914610077578063a3f5c1d21461007f575b600080fd5b6100596100a3565b005b6100636101a3565b604080519115158252519081900360200190f35b6100596101b3565b6100876102b6565b604080516001600160a01b039092168252519081900360200190f35b6100ab6102c5565b6001600160a01b0316336001600160a01b03161461010c576040805162461bcd60e51b81526020600482015260196024820152784f6e6c7920676f7665726e6f722063616e206578656375746560381b604482015290519081900360640190fd5b600854600160a01b900460ff16610161576040805162461bcd60e51b815260206004820152601460248201527314185d5cd8589b194e881b9bdd081c185d5cd95960621b604482015290519081900360640190fd5b6008805460ff60a01b191690556040805133815290517f5db9ee0a495bf2e6ff9c91a7834c1ba4fdd244a5e8aa4e537bd38aeae4b073aa9181900360200190a1565b600854600160a01b900460ff1690565b6101bb6102c5565b6001600160a01b0316336001600160a01b03161461021c576040805162461bcd60e51b81526020600482015260196024820152784f6e6c7920676f7665726e6f722063616e206578656375746560381b604482015290519081900360640190fd5b600854600160a01b900460ff161561026e576040805162461bcd60e51b815260206004820152601060248201526f14185d5cd8589b194e881c185d5cd95960821b604482015290519081900360640190fd5b6008805460ff60a01b1916600160a01b1790556040805133815290517f62e78cea01bee320cd4e420270b5ea74000d11b0c9f74754ebdbfc544b05a2589181900360200190a1565b6008546001600160a01b031681565b6008546040805163030d028960e21b815290516000926001600160a01b031691630c340a24916004808301926020929190829003018186803b15801561030a57600080fd5b505afa15801561031e573d6000803e3d6000fd5b505050506040513d602081101561033457600080fd5b505190509056fea265627a7a72315820c60fac48e8548b27286c456baac641898509b9e767413f615a8665dde9ed701a64736f6c63430005100032",
  "source": "pragma solidity 0.5.16;\n\nimport { InitializableModule } from \"./InitializableModule.sol\";\n\n/**\n * @title   InitializableModule\n * @author  Stability Labs Pty. Ltd.\n * @dev     Subscribes to module updates from a given publisher and reads from its registry.\n *          Contract is used for upgradable proxy contracts.\n */\ncontract InitializablePausableModule is InitializableModule {\n\n    /**\n     * @dev Emitted when the pause is triggered by Governor\n     */\n    event Paused(address account);\n\n    /**\n     * @dev Emitted when the pause is lifted by Governor\n     */\n    event Unpaused(address account);\n\n    bool private _paused = false;\n\n    /**\n     * @dev Modifier to make a function callable only when the contract is not paused.\n     */\n    modifier whenNotPaused() {\n        require(!_paused, \"Pausable: paused\");\n        _;\n    }\n\n    /**\n     * @dev Modifier to make a function callable only when the contract is paused.\n     */\n    modifier whenPaused() {\n        require(_paused, \"Pausable: not paused\");\n        _;\n    }\n\n    /**\n     * @dev Initializes the contract in unpaused state.\n     * Hooks into the Module to give the Governor ability to pause\n     * @param _nexus Nexus contract address\n     */\n    function _initialize(address _nexus) internal {\n        InitializableModule._initialize(_nexus);\n        _paused = false;\n    }\n\n    /**\n     * @dev Returns true if the contract is paused, and false otherwise.\n     * @return Returns `true` when paused, otherwise `false`\n     */\n    function paused() external view returns (bool) {\n        return _paused;\n    }\n\n    /**\n     * @dev Called by the Governor to pause, triggers stopped state.\n     */\n    function pause() external onlyGovernor whenNotPaused {\n        _paused = true;\n        emit Paused(msg.sender);\n    }\n\n    /**\n     * @dev Called by Governor to unpause, returns to normal state.\n     */\n    function unpause() external onlyGovernor whenPaused {\n        _paused = false;\n        emit Unpaused(msg.sender);\n    }\n}\n",
  "sourcePath": "/Volumes/sdxc/ETHEREUM/CODE/mStable-v1-edit/contracts/shared/InitializablePausableModule.sol",
  "compiler": {
    "name": "solc",
    "version": "0.5.16+commit.9c3226ce.Emscripten.clang"
  },
  "schemaVersion": "3.1.0",
  "updatedAt": "2021-03-11T05:43:16.302Z",
  "devdoc": {
    "author": "Stability Labs Pty. Ltd.",
    "details": "Subscribes to module updates from a given publisher and reads from its registry.         Contract is used for upgradable proxy contracts.",
    "methods": {
      "pause()": {
        "details": "Called by the Governor to pause, triggers stopped state."
      },
      "paused()": {
        "details": "Returns true if the contract is paused, and false otherwise.",
        "return": "Returns `true` when paused, otherwise `false`"
      },
      "unpause()": {
        "details": "Called by Governor to unpause, returns to normal state."
      }
    },
    "title": "InitializableModule"
  },
  "userdoc": {
    "methods": {}
  }
}