{
  "contractName": "Liquidator",
  "abi": [
    {
      "anonymous": false,
      "inputs": [
        {
          "indexed": true,
          "internalType": "address",
          "name": "sellToken",
          "type": "address"
        },
        {
          "indexed": false,
          "internalType": "address",
          "name": "mUSD",
          "type": "address"
        },
        {
          "indexed": false,
          "internalType": "uint256",
          "name": "mUSDAmount",
          "type": "uint256"
        },
        {
          "indexed": false,
          "internalType": "address",
          "name": "buyToken",
          "type": "address"
        }
      ],
      "name": "Liquidated",
      "type": "event"
    },
    {
      "anonymous": false,
      "inputs": [
        {
          "indexed": true,
          "internalType": "address",
          "name": "integration",
          "type": "address"
        }
      ],
      "name": "LiquidationEnded",
      "type": "event"
    },
    {
      "anonymous": false,
      "inputs": [
        {
          "indexed": true,
          "internalType": "address",
          "name": "integration",
          "type": "address"
        }
      ],
      "name": "LiquidationModified",
      "type": "event"
    },
    {
      "constant": true,
      "inputs": [],
      "name": "curve",
      "outputs": [
        {
          "internalType": "contract ICurveBildPool",
          "name": "",
          "type": "address"
        }
      ],
      "payable": false,
      "stateMutability": "view",
      "type": "function"
    },
    {
      "constant": true,
      "inputs": [
        {
          "internalType": "address",
          "name": "",
          "type": "address"
        }
      ],
      "name": "liquidations",
      "outputs": [
        {
          "internalType": "address",
          "name": "sellToken",
          "type": "address"
        },
        {
          "internalType": "address",
          "name": "bAsset",
          "type": "address"
        },
        {
          "internalType": "int128",
          "name": "curvePosition",
          "type": "int128"
        },
        {
          "internalType": "uint256",
          "name": "lastTriggered",
          "type": "uint256"
        },
        {
          "internalType": "uint256",
          "name": "trancheAmount",
          "type": "uint256"
        }
      ],
      "payable": false,
      "stateMutability": "view",
      "type": "function"
    },
    {
      "constant": true,
      "inputs": [],
      "name": "mUSD",
      "outputs": [
        {
          "internalType": "address",
          "name": "",
          "type": "address"
        }
      ],
      "payable": false,
      "stateMutability": "view",
      "type": "function"
    },
    {
      "constant": true,
      "inputs": [
        {
          "internalType": "address",
          "name": "",
          "type": "address"
        }
      ],
      "name": "minReturn",
      "outputs": [
        {
          "internalType": "uint256",
          "name": "",
          "type": "uint256"
        }
      ],
      "payable": false,
      "stateMutability": "view",
      "type": "function"
    },
    {
      "constant": true,
      "inputs": [],
      "name": "nexus",
      "outputs": [
        {
          "internalType": "contract INexus",
          "name": "",
          "type": "address"
        }
      ],
      "payable": false,
      "stateMutability": "view",
      "type": "function"
    },
    {
      "constant": true,
      "inputs": [],
      "name": "uniswap",
      "outputs": [
        {
          "internalType": "contract IUniswapV2Router02",
          "name": "",
          "type": "address"
        }
      ],
      "payable": false,
      "stateMutability": "view",
      "type": "function"
    },
    {
      "constant": false,
      "inputs": [
        {
          "internalType": "address",
          "name": "_nexus",
          "type": "address"
        },
        {
          "internalType": "address",
          "name": "_uniswap",
          "type": "address"
        },
        {
          "internalType": "address",
          "name": "_curve",
          "type": "address"
        },
        {
          "internalType": "address",
          "name": "_mUSD",
          "type": "address"
        }
      ],
      "name": "initialize",
      "outputs": [],
      "payable": false,
      "stateMutability": "nonpayable",
      "type": "function"
    },
    {
      "constant": false,
      "inputs": [
        {
          "internalType": "address",
          "name": "_integration",
          "type": "address"
        },
        {
          "internalType": "address",
          "name": "_sellToken",
          "type": "address"
        },
        {
          "internalType": "address",
          "name": "_bAsset",
          "type": "address"
        },
        {
          "internalType": "int128",
          "name": "_curvePosition",
          "type": "int128"
        },
        {
          "internalType": "address[]",
          "name": "_uniswapPath",
          "type": "address[]"
        },
        {
          "internalType": "uint256",
          "name": "_trancheAmount",
          "type": "uint256"
        },
        {
          "internalType": "uint256",
          "name": "_minReturn",
          "type": "uint256"
        }
      ],
      "name": "createLiquidation",
      "outputs": [],
      "payable": false,
      "stateMutability": "nonpayable",
      "type": "function"
    },
    {
      "constant": false,
      "inputs": [
        {
          "internalType": "address",
          "name": "_integration",
          "type": "address"
        },
        {
          "internalType": "address",
          "name": "_bAsset",
          "type": "address"
        },
        {
          "internalType": "int128",
          "name": "_curvePosition",
          "type": "int128"
        },
        {
          "internalType": "address[]",
          "name": "_uniswapPath",
          "type": "address[]"
        },
        {
          "internalType": "uint256",
          "name": "_trancheAmount",
          "type": "uint256"
        },
        {
          "internalType": "uint256",
          "name": "_minReturn",
          "type": "uint256"
        }
      ],
      "name": "updateBasset",
      "outputs": [],
      "payable": false,
      "stateMutability": "nonpayable",
      "type": "function"
    },
    {
      "constant": false,
      "inputs": [
        {
          "internalType": "address",
          "name": "_integration",
          "type": "address"
        }
      ],
      "name": "deleteLiquidation",
      "outputs": [],
      "payable": false,
      "stateMutability": "nonpayable",
      "type": "function"
    },
    {
      "constant": false,
      "inputs": [
        {
          "internalType": "address",
          "name": "_integration",
          "type": "address"
        }
      ],
      "name": "triggerLiquidation",
      "outputs": [],
      "payable": false,
      "stateMutability": "nonpayable",
      "type": "function"
    }
  ],
  "bytecode": "0x608060405262093a80603f5534801561001757600080fd5b5061248b806100276000396000f3fe608060405234801561001057600080fd5b50600436106100a95760003560e01c8063937d4c4211610071578063937d4c42146101d1578063a3f5c1d214610233578063b350df5d1461023b578063cad4f58814610261578063f09a1d0014610300578063f8c8765e14610308576100a9565b80630ac1ff80146100ae5780632681f7e4146100e65780636495df271461010a5780637165485d146101a35780637e9fd222146101ab575b600080fd5b6100d4600480360360208110156100c457600080fd5b50356001600160a01b0316610346565b60408051918252519081900360200190f35b6100ee610358565b604080516001600160a01b039092168252519081900360200190f35b6101a1600480360360c081101561012057600080fd5b6001600160a01b0382358116926020810135909116916040820135600f0b9190810190608081016060820135600160201b81111561015d57600080fd5b82018360208201111561016f57600080fd5b803590602001918460208302840111600160201b8311171561019057600080fd5b919350915080359060200135610367565b005b6100ee610704565b6101a1600480360360208110156101c157600080fd5b50356001600160a01b0316610713565b6101f7600480360360208110156101e757600080fd5b50356001600160a01b031661097a565b604080516001600160a01b039687168152949095166020850152600f92830b90920b838501526060830152608082015290519081900360a00190f35b6100ee6109ba565b6101a16004803603602081101561025157600080fd5b50356001600160a01b03166109c9565b6101a1600480360360e081101561027757600080fd5b6001600160a01b03823581169260208101358216926040820135909216916060820135600f0b919081019060a081016080820135600160201b8111156102bc57600080fd5b8201836020820111156102ce57600080fd5b803590602001918460208302840111600160201b831117156102ef57600080fd5b9193509150803590602001356112ed565b6100ee611646565b6101a16004803603608081101561031e57600080fd5b506001600160a01b038135811691602081013582169160408201358116916060013516611655565b60416020526000908152604090205481565b603e546001600160a01b031681565b61036f61184f565b6001600160a01b0316336001600160a01b031614806103a657506103916118c6565b6001600160a01b0316336001600160a01b0316145b6103f7576040805162461bcd60e51b815260206004820152601b60248201527f4f6e6c7920676f7665726e616e63652063616e20657865637574650000000000604482015290519081900360640190fd5b6103ff61223d565b6001600160a01b0380891660009081526040602081815291819020815160c0810183528154851681526001820154909416848401526002810154600f90810b810b900b8483015260038101805483518186028101860190945280845291936060860193929083018282801561049d57602002820191906000526020600020905b81546001600160a01b0316815260019091019060200180831161047f575b505050918352505060048201546020808301919091526005909201546040909101528101519091506001600160a01b03811661051d576040805162461bcd60e51b815260206004820152601a602482015279131a5c5d5a59185d1a5bdb88191bd95cc81b9bdd08195e1a5cdd60321b604482015290519081900360640190fd5b60008311610572576040805162461bcd60e51b815260206004820152601b60248201527f4d7573742073657420736f6d65206d696e696d756d2076616c75650000000000604482015290519081900360640190fd5b6001600160a01b0388166105be576040805162461bcd60e51b815260206004820152600e60248201526d125b9d985b1a590818905cdcd95d60921b604482015290519081900360640190fd5b61060082600001518988888080602002602001604051908101604052809392919081815260200183836020028082843760009201919091525061191592505050565b610648576040805162461bcd60e51b8152602060048201526014602482015273092dcecc2d8d2c840eadcd2e6eec2e040e0c2e8d60631b604482015290519081900360640190fd5b6001600160a01b0389811660009081526040602081905290206001810180546001600160a01b031916928b16929092179091556002810180546001600160801b0319166001600160801b03600f8b900b161790556106aa906003018787612271565b506001600160a01b03891660008181526040602081815281832060050188905560419052808220869055517f52f63ab5789c9a266379c35974b035fb9f7079ec0effab1b31e7ad82fadb488a9190a2505050505050505050565b603d546001600160a01b031681565b61071b61184f565b6001600160a01b0316336001600160a01b03161480610752575061073d6118c6565b6001600160a01b0316336001600160a01b0316145b6107a3576040805162461bcd60e51b815260206004820152601b60248201527f4f6e6c7920676f7665726e616e63652063616e20657865637574650000000000604482015290519081900360640190fd5b6107ab61223d565b6001600160a01b0380831660009081526040602081815291819020815160c0810183528154851681526001820154909416848401526002810154600f90810b810b900b8483015260038101805483518186028101860190945280845291936060860193929083018282801561084957602002820191906000526020600020905b81546001600160a01b0316815260019091019060200180831161082b575b5050505050815260200160048201548152602001600582015481525050905060006001600160a01b031681602001516001600160a01b031614156108d1576040805162461bcd60e51b815260206004820152601a602482015279131a5c5d5a59185d1a5bdb88191bd95cc81b9bdd08195e1a5cdd60321b604482015290519081900360640190fd5b6001600160a01b038216600090815260406020819052812080546001600160a01b0319908116825560018201805490911690556002810180546001600160801b03191690559061092460038301826122d4565b5060006004820181905560059091018190556001600160a01b038316808252604160205260408083208390555190917fe513b42585b0ceec0d56d56fe3a23861c15a2f74eb4c32c94334d63d68ff4dcf91a25050565b604060208190526000918252902080546001820154600283015460048401546005909401546001600160a01b03938416949390921692600f9190910b9185565b603b546001600160a01b031681565b323314610a0b576040805162461bcd60e51b815260206004820152600b60248201526a4d75737420626520454f4160a81b604482015290519081900360640190fd5b610a1361223d565b6001600160a01b0380831660009081526040602081815291819020815160c0810183528154851681526001820154909416848401526002810154600f90810b810b900b84830152600381018054835181860281018601909452808452919360608601939290830182828015610ab157602002820191906000526020600020905b81546001600160a01b03168152600190910190602001808311610a93575b505050918352505060048201546020808301919091526005909201546040909101528101519091506001600160a01b038116610b31576040805162461bcd60e51b815260206004820152601a602482015279131a5c5d5a59185d1a5bdb88191bd95cc81b9bdd08195e1a5cdd60321b604482015290519081900360640190fd5b6080820151610b499062093a8063ffffffff61197b16565b4211610b95576040805162461bcd60e51b8152602060048201526016602482015275135d5cdd081dd85a5d08199bdc881a5b9d195c9d985b60521b604482015290519081900360640190fd5b6001600160a01b03808416600081815260406020818152818320426004918201558751606089015184516370a0823160e01b815292830196909652925192958616926370a0823192602480840193919291829003018186803b158015610bfa57600080fd5b505afa158015610c0e573d6000803e3d6000fd5b505050506040513d6020811015610c2457600080fd5b505190508015610c4957610c496001600160a01b03841687308463ffffffff6119de16565b604080516370a0823160e01b815230600482015290516000916001600160a01b038616916370a0823191602480820192602092909190829003018186803b158015610c9357600080fd5b505afa158015610ca7573d6000803e3d6000fd5b505050506040513d6020811015610cbd57600080fd5b5051905080610d13576040805162461bcd60e51b815260206004820152601b60248201527f4e6f2073656c6c20746f6b656e7320746f206c69717569646174650000000000604482015290519081900360640190fd5b60008660a0015111610d6c576040805162461bcd60e51b815260206004820152601b60248201527f4c69717569646174696f6e20686173206265656e207061757365640000000000604482015290519081900360640190fd5b603e5460a0870151604080516307c0329d60e21b815260048101838152602482019283528751604483015287516060956001600160a01b031694631f00ca749490938a93926064909101906020808601910280838360005b83811015610ddc578181015183820152602001610dc4565b50505050905001935050505060006040518083038186803b158015610e0057600080fd5b505afa158015610e14573d6000803e3d6000fd5b505050506040513d6000823e601f3d908101601f191682016040526020811015610e3d57600080fd5b8101908080516040519392919084600160201b821115610e5c57600080fd5b908301906020820185811115610e7157600080fd5b82518660208202830111600160201b82111715610e8d57600080fd5b82525081516020918201928201910280838360005b83811015610eba578181015183820152602001610ea2565b505050509050016040525050509050600081600081518110610ed857fe5b6020026020010151905080831015610eed5750815b603e54610f0e906001600160a01b038881169116600063ffffffff611a3e16565b603e54610f2e906001600160a01b0388811691168363ffffffff611a3e16565b6000866001600160a01b031663313ce5676040518163ffffffff1660e01b815260040160206040518083038186803b158015610f6957600080fd5b505afa158015610f7d573d6000803e3d6000fd5b505050506040513d6020811015610f9357600080fd5b50516001600160a01b038b1660009081526041602052604081205460ff909216925090610fdd90600a84900a90610fd190869063ffffffff611b5616565b9063ffffffff611baf16565b905060008111611034576040805162461bcd60e51b815260206004820152601a60248201527f4d757374206861766520736f6d6520707269636520666c6f6f72000000000000604482015290519081900360640190fd5b603e546001600160a01b03166338ed173984838a3061105b4261070863ffffffff61197b16565b6040518663ffffffff1660e01b81526004018086815260200185815260200180602001846001600160a01b03166001600160a01b03168152602001838152602001828103825285818151815260200191508051906020019060200280838360005b838110156110d45781810151838201526020016110bc565b505050509050019650505050505050600060405180830381600087803b1580156110fd57600080fd5b505af1158015611111573d6000803e3d6000fd5b505050506040513d6000823e601f3d908101601f19168201604052602081101561113a57600080fd5b8101908080516040519392919084600160201b82111561115957600080fd5b90830190602082018581111561116e57600080fd5b82518660208202830111600160201b8211171561118a57600080fd5b82525081516020918201928201910280838360005b838110156111b757818101518382015260200161119f565b505050509050016040525050505060006111d58a8c60400151611bf1565b905060006111e1611ddd565b603c54909150611202906001600160a01b031682600063ffffffff611a3e16565b603c5461121f906001600160a01b0316828463ffffffff611a3e16565b603c54604080516313e8da7160e21b81526001600160a01b03928316600482015260248101859052905191831691634fa369c49160448082019260009290919082900301818387803b15801561127457600080fd5b505af1158015611288573d6000803e3d6000fd5b5050603c54604080516001600160a01b039283168152602081018790528f8316818301529051918e1693507fbf8c93ffab42c7a8745e30d00eef080c6704962d26f0b42a0e9d9589b7417af1925081900360600190a250505050505050505050505050565b6112f561184f565b6001600160a01b0316336001600160a01b0316148061132c57506113176118c6565b6001600160a01b0316336001600160a01b0316145b61137d576040805162461bcd60e51b815260206004820152601b60248201527f4f6e6c7920676f7665726e616e63652063616e20657865637574650000000000604482015290519081900360640190fd5b6001600160a01b0388811660009081526040602081905290205416156113d45760405162461bcd60e51b81526004018080602001828103825260228152602001806123d56022913960400191505060405180910390fd5b6001600160a01b038816158015906113f457506001600160a01b03871615155b801561140857506001600160a01b03861615155b8015611415575060028310155b80156114215750600081115b611463576040805162461bcd60e51b815260206004820152600e60248201526d496e76616c696420696e7075747360901b604482015290519081900360640190fd5b6114a1878786868080602002602001604051908101604052809392919081815260200183836020028082843760009201919091525061191592505050565b6114e9576040805162461bcd60e51b8152602060048201526014602482015273092dcecc2d8d2c840eadcd2e6eec2e040e0c2e8d60631b604482015290519081900360640190fd5b6040518060c00160405280886001600160a01b03168152602001876001600160a01b0316815260200186600f0b81526020018585808060200260200160405190810160405280939291908181526020018383602002808284376000920182905250938552505050602080830182905260409283018690526001600160a01b03808d16835283825291839020845181549084166001600160a01b0319918216178255858301516001830180549190951691161790925591830151600282018054600f9290920b6001600160801b03166001600160801b03199092169190911790556060830151805191926115e4926003850192909101906122f2565b506080820151600482015560a0909101516005909101556001600160a01b038816600081815260416020526040808220849055517f52f63ab5789c9a266379c35974b035fb9f7079ec0effab1b31e7ad82fadb488a9190a25050505050505050565b603c546001600160a01b031681565b600054610100900460ff168061166e575061166e611e2c565b8061167c575060005460ff16155b6116b75760405162461bcd60e51b815260040180806020018281038252602e8152602001806123a7602e913960400191505060405180910390fd5b600054610100900460ff161580156116e2576000805460ff1961ff0019909116610100171660011790555b6116eb85611e32565b6001600160a01b038416611746576040805162461bcd60e51b815260206004820152601760248201527f496e76616c696420756e69737761702061646472657373000000000000000000604482015290519081900360640190fd5b603e80546001600160a01b0319166001600160a01b038681169190911790915583166117b1576040805162461bcd60e51b8152602060048201526015602482015274496e76616c6964206375727665206164647265737360581b604482015290519081900360640190fd5b603d80546001600160a01b0319166001600160a01b0385811691909117909155821661181b576040805162461bcd60e51b8152602060048201526014602482015273496e76616c6964206d555344206164647265737360601b604482015290519081900360640190fd5b603c80546001600160a01b0319166001600160a01b0384161790558015611848576000805461ff00191690555b5050505050565b603b546040805163030d028960e21b815290516000926001600160a01b031691630c340a24916004808301926020929190829003018186803b15801561189457600080fd5b505afa1580156118a8573d6000803e3d6000fd5b505050506040513d60208110156118be57600080fd5b505190505b90565b603b54603354604080516385acd64160e01b81526004810192909252516000926001600160a01b0316916385acd641916024808301926020929190829003018186803b15801561189457600080fd5b805160009082828261192357fe5b60200260200101516001600160a01b0316856001600160a01b0316148015611972575082600182038151811061195557fe5b60200260200101516001600160a01b0316846001600160a01b0316145b95945050505050565b6000828201838110156119d5576040805162461bcd60e51b815260206004820152601b60248201527f536166654d6174683a206164646974696f6e206f766572666c6f770000000000604482015290519081900360640190fd5b90505b92915050565b604080516001600160a01b0385811660248301528416604482015260648082018490528251808303909101815260849091019091526020810180516001600160e01b03166323b872dd60e01b179052611a38908590611eab565b50505050565b801580611ac4575060408051636eb1769f60e11b81523060048201526001600160a01b03848116602483015291519185169163dd62ed3e91604480820192602092909190829003018186803b158015611a9657600080fd5b505afa158015611aaa573d6000803e3d6000fd5b505050506040513d6020811015611ac057600080fd5b5051155b611aff5760405162461bcd60e51b81526004018080602001828103825260368152602001806124216036913960400191505060405180910390fd5b604080516001600160a01b038416602482015260448082018490528251808303909101815260649091019091526020810180516001600160e01b031663095ea7b360e01b179052611b51908490611eab565b505050565b600082611b65575060006119d8565b82820282848281611b7257fe5b04146119d55760405162461bcd60e51b81526004018080602001828103825260218152602001806123866021913960400191505060405180910390fd5b60006119d583836040518060400160405280601a81526020017f536166654d6174683a206469766973696f6e206279207a65726f000000000000815250612063565b604080516370a0823160e01b8152306004820152905160009182916001600160a01b038616916370a08231916024808301926020929190829003018186803b158015611c3c57600080fd5b505afa158015611c50573d6000803e3d6000fd5b505050506040513d6020811015611c6657600080fd5b5051603d54909150611c8c906001600160a01b038681169116600063ffffffff611a3e16565b603d54611cac906001600160a01b0386811691168363ffffffff611a3e16565b6000846001600160a01b031663313ce5676040518163ffffffff1660e01b815260040160206040518083038186803b158015611ce757600080fd5b505afa158015611cfb573d6000803e3d6000fd5b505050506040513d6020811015611d1157600080fd5b505160ff1690506000611d3a600a83900a610fd185670d2f13f7789f000063ffffffff611b5616565b603d5460408051635320bf6b60e11b8152600f89810b900b6004820152600060248201819052604482018890526064820185905291519394506001600160a01b039092169263a6417ed6926084808201936020939283900390910190829087803b158015611da757600080fd5b505af1158015611dbb573d6000803e3d6000fd5b505050506040513d6020811015611dd157600080fd5b50519695505050505050565b603b54603a54604080516385acd64160e01b81526004810192909252516000926001600160a01b0316916385acd641916024808301926020929190829003018186803b15801561189457600080fd5b303b1590565b6001600160a01b038116611e85576040805162461bcd60e51b81526020600482015260156024820152744e657875732061646472657373206973207a65726f60581b604482015290519081900360640190fd5b603b80546001600160a01b0319166001600160a01b038316179055611ea8612105565b50565b611ebd826001600160a01b0316612201565b611f0e576040805162461bcd60e51b815260206004820152601f60248201527f5361666545524332303a2063616c6c20746f206e6f6e2d636f6e747261637400604482015290519081900360640190fd5b60006060836001600160a01b0316836040518082805190602001908083835b60208310611f4c5780518252601f199092019160209182019101611f2d565b6001836020036101000a0380198251168184511680821785525050505050509050019150506000604051808303816000865af19150503d8060008114611fae576040519150601f19603f3d011682016040523d82523d6000602084013e611fb3565b606091505b50915091508161200a576040805162461bcd60e51b815260206004820181905260248201527f5361666545524332303a206c6f772d6c6576656c2063616c6c206661696c6564604482015290519081900360640190fd5b805115611a385780806020019051602081101561202657600080fd5b5051611a385760405162461bcd60e51b815260040180806020018281038252602a8152602001806123f7602a913960400191505060405180910390fd5b600081836120ef5760405162461bcd60e51b81526004018080602001828103825283818151815260200191508051906020019080838360005b838110156120b457818101518382015260200161209c565b50505050905090810190601f1680156120e15780820380516001836020036101000a031916815260200191505b509250505060405180910390fd5b5060008385816120fb57fe5b0495945050505050565b6040805169476f7665726e616e636560b01b8152815190819003600a9081018220603355665374616b696e6760c81b82528251918290036007908101832060345569283937bc3ca0b236b4b760b11b835283519283900390910182206035556827b930b1b632a43ab160b91b8252825191829003600990810183206036556626b0b730b3b2b960c91b835283519283900390910182206037556f2932b1b7b63630ba32b930b634b9b2b960811b82528251918290036010018220603855682134b6322a37b5b2b760b91b82528251918290030181206039556d29b0bb34b733b9a6b0b730b3b2b960911b8152905190819003600e019020603a55565b6000813f7fc5d2460186f7233c927e7db2dcc703c0e500b653ca82273b7bfad8045d85a47081811480159061223557508115155b949350505050565b6040805160c0810182526000808252602082018190529181018290526060808201526080810182905260a081019190915290565b8280548282559060005260206000209081019282156122c4579160200282015b828111156122c45781546001600160a01b0319166001600160a01b03843516178255602090920191600190910190612291565b506122d0929150612347565b5090565b5080546000825590600052602060002090810190611ea8919061236b565b8280548282559060005260206000209081019282156122c4579160200282015b828111156122c457825182546001600160a01b0319166001600160a01b03909116178255602090920191600190910190612312565b6118c391905b808211156122d05780546001600160a01b031916815560010161234d565b6118c391905b808211156122d0576000815560010161237156fe536166654d6174683a206d756c7469706c69636174696f6e206f766572666c6f77436f6e747261637420696e7374616e63652068617320616c7265616479206265656e20696e697469616c697a65644c69717569646174696f6e2065786973747320666f722074686973206241737365745361666545524332303a204552433230206f7065726174696f6e20646964206e6f7420737563636565645361666545524332303a20617070726f76652066726f6d206e6f6e2d7a65726f20746f206e6f6e2d7a65726f20616c6c6f77616e6365a265627a7a7231582072e8a093ea69cf6b07a5e31c8fd11d3691e8f2f6f91e73361e54fe7ea11b872864736f6c63430005100032",
  "source": "pragma solidity 0.5.16;\n\nimport { ICurveBildPool } from \"./ICurveBildPool.sol\";\nimport { IUniswapV2Router02 } from \"./IUniswapV2Router02.sol\";\nimport { ISavingsManager } from \"../../interfaces/ISavingsManager.sol\";\n\nimport { Initializable } from \"@openzeppelin/upgrades/contracts/Initializable.sol\";\nimport { InitializableModule } from \"../../shared/InitializableModule.sol\";\nimport { ILiquidator } from \"./ILiquidator.sol\";\n\nimport { IBasicToken } from \"../../shared/IBasicToken.sol\";\nimport { SafeMath } from \"@openzeppelin/contracts/math/SafeMath.sol\";\nimport { SafeERC20 } from \"@openzeppelin/contracts/token/ERC20/SafeERC20.sol\";\nimport { IERC20 } from \"@openzeppelin/contracts/token/ERC20/IERC20.sol\";\n\n\n/**\n * @title   Liquidator\n * @author  Stability Labs Pty. Ltd.\n * @notice  The Liquidator allows rewards to be swapped for another token\n *          and returned to a calling contract\n * @dev     VERSION: 1.2\n *          DATE:    2020-12-16\n */\ncontract Liquidator is\n    ILiquidator,\n    Initializable,\n    InitializableModule\n{\n    using SafeMath for uint256;\n    using SafeERC20 for IERC20;\n\n    event LiquidationModified(address indexed integration);\n    event LiquidationEnded(address indexed integration);\n    event Liquidated(address indexed sellToken, address mUSD, uint256 mUSDAmount, address buyToken);\n\n    address public mUSD;\n    ICurveBildPool public curve;\n    IUniswapV2Router02 public uniswap;\n    // Deprecated var, but kept around to mirror storage layout\n    uint256 private interval = 7 days;\n\n    mapping(address => Liquidation) public liquidations;\n    mapping(address => uint256) public minReturn;\n\n    struct Liquidation {\n        address sellToken;\n\n        address bAsset;\n        int128 curvePosition;\n        address[] uniswapPath;\n\n        uint256 lastTriggered;\n        uint256 trancheAmount;   // The amount of bAsset units to buy each week, with token decimals\n    }\n\n    function initialize(\n        address _nexus,\n        address _uniswap,\n        address _curve,\n        address _mUSD\n    )\n        external\n        initializer\n    {\n        InitializableModule._initialize(_nexus);\n\n        require(_uniswap != address(0), \"Invalid uniswap address\");\n        uniswap = IUniswapV2Router02(_uniswap);\n\n        require(_curve != address(0), \"Invalid curve address\");\n        curve = ICurveBildPool(_curve);\n\n        require(_mUSD != address(0), \"Invalid mUSD address\");\n        mUSD = _mUSD;\n    }\n\n    /***************************************\n                    GOVERNANCE\n    ****************************************/\n\n    /**\n    * @dev Create a liquidation\n    * @param _integration The integration contract address from which to receive sellToken\n    * @param _sellToken Token harvested from the integration contract\n    * @param _bAsset The asset to buy on Uniswap\n    * @param _curvePosition Position of the bAsset in Curves BildPool\n    * @param _uniswapPath The Uniswap path as an array of addresses e.g. [COMP, WETH, DAI]\n    * @param _trancheAmount The amount of bAsset units to buy in each weekly tranche\n    * @param _minReturn Minimum exact amount of bAsset to get for each (whole) sellToken unit\n    */\n    function createLiquidation(\n        address _integration,\n        address _sellToken,\n        address _bAsset,\n        int128 _curvePosition,\n        address[] calldata _uniswapPath,\n        uint256 _trancheAmount,\n        uint256 _minReturn\n    )\n        external\n        onlyGovernance\n    {\n        require(liquidations[_integration].sellToken == address(0), \"Liquidation exists for this bAsset\");\n\n        require(\n            _integration != address(0) &&\n            _sellToken != address(0) &&\n            _bAsset != address(0) &&\n            _uniswapPath.length >= 2 &&\n            _minReturn > 0,\n            \"Invalid inputs\"\n        );\n        require(_validUniswapPath(_sellToken, _bAsset, _uniswapPath), \"Invalid uniswap path\");\n\n        liquidations[_integration] = Liquidation({\n            sellToken: _sellToken,\n            bAsset: _bAsset,\n            curvePosition: _curvePosition,\n            uniswapPath: _uniswapPath,\n            lastTriggered: 0,\n            trancheAmount: _trancheAmount\n        });\n        minReturn[_integration] = _minReturn;\n\n        emit LiquidationModified(_integration);\n    }\n\n    /**\n    * @dev Update a liquidation\n    * @param _integration The integration contract in question\n    * @param _bAsset New asset to buy on Uniswap\n    * @param _curvePosition Position of the bAsset in Curves BildPool\n    * @param _uniswapPath The Uniswap path as an array of addresses e.g. [COMP, WETH, DAI]\n    * @param _trancheAmount The amount of bAsset units to buy in each weekly tranche\n    * @param _minReturn Minimum exact amount of bAsset to get for each (whole) sellToken unit\n    */\n    function updateBasset(\n        address _integration,\n        address _bAsset,\n        int128 _curvePosition,\n        address[] calldata _uniswapPath,\n        uint256 _trancheAmount,\n        uint256 _minReturn\n    )\n        external\n        onlyGovernance\n    {\n        Liquidation memory liquidation = liquidations[_integration];\n\n        address oldBasset = liquidation.bAsset;\n        require(oldBasset != address(0), \"Liquidation does not exist\");\n\n        require(_minReturn > 0, \"Must set some minimum value\");\n        require(_bAsset != address(0), \"Invalid bAsset\");\n        require(_validUniswapPath(liquidation.sellToken, _bAsset, _uniswapPath), \"Invalid uniswap path\");\n\n        liquidations[_integration].bAsset = _bAsset;\n        liquidations[_integration].curvePosition = _curvePosition;\n        liquidations[_integration].uniswapPath = _uniswapPath;\n        liquidations[_integration].trancheAmount = _trancheAmount;\n        minReturn[_integration] = _minReturn;\n\n        emit LiquidationModified(_integration);\n    }\n\n    /**\n    * @dev Validates a given uniswap path - valid if sellToken at position 0 and bAsset at end\n    * @param _sellToken Token harvested from the integration contract\n    * @param _bAsset New asset to buy on Uniswap\n    * @param _uniswapPath The Uniswap path as an array of addresses e.g. [COMP, WETH, DAI]\n    */\n    function _validUniswapPath(address _sellToken, address _bAsset, address[] memory _uniswapPath)\n        internal\n        pure\n        returns (bool)\n    {\n        uint256 len = _uniswapPath.length;\n        return _sellToken == _uniswapPath[0] && _bAsset == _uniswapPath[len-1];\n    }\n\n    /**\n    * @dev Delete a liquidation\n    */\n    function deleteLiquidation(address _integration)\n        external\n        onlyGovernance\n    {\n        Liquidation memory liquidation = liquidations[_integration];\n        require(liquidation.bAsset != address(0), \"Liquidation does not exist\");\n\n        delete liquidations[_integration];\n        delete minReturn[_integration];\n\n        emit LiquidationEnded(_integration);\n    }\n\n    /***************************************\n                    LIQUIDATION\n    ****************************************/\n\n    /**\n    * @dev Triggers a liquidation, flow (once per week):\n    *    - Sells $COMP for $USDC (or other) on Uniswap (up to trancheAmount)\n    *    - Sell USDC for mUSD on Curve\n    *    - Send to SavingsManager\n    * @param _integration Integration for which to trigger liquidation\n    */\n    function triggerLiquidation(address _integration)\n        external\n    {\n        // solium-disable-next-line security/no-tx-origin\n        require(tx.origin == msg.sender, \"Must be EOA\");\n\n        Liquidation memory liquidation = liquidations[_integration];\n\n        address bAsset = liquidation.bAsset;\n        require(bAsset != address(0), \"Liquidation does not exist\");\n\n        require(block.timestamp > liquidation.lastTriggered.add(7 days), \"Must wait for interval\");\n        liquidations[_integration].lastTriggered = block.timestamp;\n\n        // Cache variables\n        address sellToken = liquidation.sellToken;\n        address[] memory uniswapPath = liquidation.uniswapPath;\n\n        // 1. Transfer sellTokens from integration contract if there are some\n        //    Assumes infinite approval\n        uint256 integrationBal = IERC20(sellToken).balanceOf(_integration);\n        if (integrationBal > 0) {\n            IERC20(sellToken).safeTransferFrom(_integration, address(this), integrationBal);\n        }\n\n        // 2. Get the amount to sell based on the tranche amount we want to buy\n        //    Check contract balance\n        uint256 sellTokenBal = IERC20(sellToken).balanceOf(address(this));\n        require(sellTokenBal > 0, \"No sell tokens to liquidate\");\n        require(liquidation.trancheAmount > 0, \"Liquidation has been paused\");\n        //    Calc amounts for max tranche\n        uint[] memory amountsIn = uniswap.getAmountsIn(liquidation.trancheAmount, uniswapPath);\n        uint256 sellAmount = amountsIn[0];\n\n        if (sellTokenBal < sellAmount) {\n            sellAmount = sellTokenBal;\n        }\n\n        // 3. Make the swap\n        // 3.1 Approve Uniswap and make the swap\n        IERC20(sellToken).safeApprove(address(uniswap), 0);\n        IERC20(sellToken).safeApprove(address(uniswap), sellAmount);\n        // 3.2. Make the sale > https://uniswap.org/docs/v2/smart-contracts/router02/#swapexacttokensfortokens\n\n        // min amount out = sellAmount * priceFloor / 1e18\n        // e.g. 1e18 * 100e6 / 1e18 = 100e6\n        // e.g. 30e8 * 100e6 / 1e8 = 3000e6\n        // e.g. 30e18 * 100e18 / 1e18 = 3000e18\n        uint256 sellTokenDec = IBasicToken(sellToken).decimals();\n        uint256 minOut = sellAmount.mul(minReturn[_integration]).div(10 ** sellTokenDec);\n        require(minOut > 0, \"Must have some price floor\");\n        uniswap.swapExactTokensForTokens(\n            sellAmount,\n            minOut,\n            uniswapPath,\n            address(this),\n            block.timestamp.add(1800)\n        );\n\n        // 3.3. Trade on Curve\n        uint256 purchased = _sellOnCrv(bAsset, liquidation.curvePosition);\n\n        // 4.0. Send to SavingsManager\n        address savings = _savingsManager();\n        IERC20(mUSD).safeApprove(savings, 0);\n        IERC20(mUSD).safeApprove(savings, purchased);\n        ISavingsManager(savings).depositLiquidation(mUSD, purchased);\n\n        emit Liquidated(sellToken, mUSD, purchased, bAsset);\n    }\n\n    function _sellOnCrv(address _bAsset, int128 _curvePosition) internal returns (uint256 purchased) {\n        uint256 bAssetBal = IERC20(_bAsset).balanceOf(address(this));\n\n        IERC20(_bAsset).safeApprove(address(curve), 0);\n        IERC20(_bAsset).safeApprove(address(curve), bAssetBal);\n        uint256 bAssetDec = IBasicToken(_bAsset).decimals();\n        // e.g. 100e6 * 95e16 / 1e6 = 100e18\n        uint256 minOutCrv = bAssetBal.mul(95e16).div(10 ** bAssetDec);\n        purchased = curve.exchange_underlying(_curvePosition, 0, bAssetBal, minOutCrv);\n    }\n}",
  "sourcePath": "/Volumes/sdxc/ETHEREUM/CODE/mStable-v1-edit/contracts/mix/liquidator/Liquidator.sol",
  "compiler": {
    "name": "solc",
    "version": "0.5.16+commit.9c3226ce.Emscripten.clang"
  },
  "schemaVersion": "3.1.0",
  "updatedAt": "2021-03-11T05:43:15.560Z",
  "devdoc": {
    "author": "Stability Labs Pty. Ltd.",
    "details": "VERSION: 1.2         DATE:    2020-12-16",
    "methods": {
      "createLiquidation(address,address,address,int128,address[],uint256,uint256)": {
        "details": "Create a liquidation",
        "params": {
          "_bAsset": "The asset to buy on Uniswap",
          "_curvePosition": "Position of the bAsset in Curves BildPool",
          "_integration": "The integration contract address from which to receive sellToken",
          "_minReturn": "Minimum exact amount of bAsset to get for each (whole) sellToken unit",
          "_sellToken": "Token harvested from the integration contract",
          "_trancheAmount": "The amount of bAsset units to buy in each weekly tranche",
          "_uniswapPath": "The Uniswap path as an array of addresses e.g. [COMP, WETH, DAI]"
        }
      },
      "deleteLiquidation(address)": {
        "details": "Delete a liquidation"
      },
      "triggerLiquidation(address)": {
        "details": "Triggers a liquidation, flow (once per week):   - Sells $COMP for $USDC (or other) on Uniswap (up to trancheAmount)   - Sell USDC for mUSD on Curve   - Send to SavingsManager",
        "params": {
          "_integration": "Integration for which to trigger liquidation"
        }
      },
      "updateBasset(address,address,int128,address[],uint256,uint256)": {
        "details": "Update a liquidation",
        "params": {
          "_bAsset": "New asset to buy on Uniswap",
          "_curvePosition": "Position of the bAsset in Curves BildPool",
          "_integration": "The integration contract in question",
          "_minReturn": "Minimum exact amount of bAsset to get for each (whole) sellToken unit",
          "_trancheAmount": "The amount of bAsset units to buy in each weekly tranche",
          "_uniswapPath": "The Uniswap path as an array of addresses e.g. [COMP, WETH, DAI]"
        }
      }
    },
    "title": "Liquidator"
  },
  "userdoc": {
    "methods": {},
    "notice": "The Liquidator allows rewards to be swapped for another token         and returned to a calling contract"
  }
}