{
  "contractName": "Mix",
  "abi": [
    {
      "anonymous": false,
      "inputs": [
        {
          "indexed": true,
          "internalType": "address",
          "name": "owner",
          "type": "address"
        },
        {
          "indexed": true,
          "internalType": "address",
          "name": "spender",
          "type": "address"
        },
        {
          "indexed": false,
          "internalType": "uint256",
          "name": "value",
          "type": "uint256"
        }
      ],
      "name": "Approval",
      "type": "event"
    },
    {
      "anonymous": false,
      "inputs": [
        {
          "indexed": false,
          "internalType": "uint256",
          "name": "cacheSize",
          "type": "uint256"
        }
      ],
      "name": "CacheSizeChanged",
      "type": "event"
    },
    {
      "anonymous": false,
      "inputs": [
        {
          "indexed": false,
          "internalType": "address",
          "name": "forgeValidator",
          "type": "address"
        }
      ],
      "name": "ForgeValidatorChanged",
      "type": "event"
    },
    {
      "anonymous": false,
      "inputs": [
        {
          "indexed": true,
          "internalType": "address",
          "name": "minter",
          "type": "address"
        },
        {
          "indexed": false,
          "internalType": "address",
          "name": "recipient",
          "type": "address"
        },
        {
          "indexed": false,
          "internalType": "uint256",
          "name": "mIxQuantity",
          "type": "uint256"
        },
        {
          "indexed": false,
          "internalType": "address",
          "name": "bAsset",
          "type": "address"
        },
        {
          "indexed": false,
          "internalType": "uint256",
          "name": "bAssetQuantity",
          "type": "uint256"
        }
      ],
      "name": "Minted",
      "type": "event"
    },
    {
      "anonymous": false,
      "inputs": [
        {
          "indexed": true,
          "internalType": "address",
          "name": "minter",
          "type": "address"
        },
        {
          "indexed": false,
          "internalType": "address",
          "name": "recipient",
          "type": "address"
        },
        {
          "indexed": false,
          "internalType": "uint256",
          "name": "mIxQuantity",
          "type": "uint256"
        },
        {
          "indexed": false,
          "internalType": "address[]",
          "name": "bAssets",
          "type": "address[]"
        },
        {
          "indexed": false,
          "internalType": "uint256[]",
          "name": "bAssetQuantities",
          "type": "uint256[]"
        }
      ],
      "name": "MintedMulti",
      "type": "event"
    },
    {
      "anonymous": false,
      "inputs": [
        {
          "indexed": true,
          "internalType": "address",
          "name": "payer",
          "type": "address"
        },
        {
          "indexed": false,
          "internalType": "address",
          "name": "asset",
          "type": "address"
        },
        {
          "indexed": false,
          "internalType": "uint256",
          "name": "feeQuantity",
          "type": "uint256"
        }
      ],
      "name": "PaidFee",
      "type": "event"
    },
    {
      "anonymous": false,
      "inputs": [
        {
          "indexed": true,
          "internalType": "address",
          "name": "redeemer",
          "type": "address"
        },
        {
          "indexed": false,
          "internalType": "address",
          "name": "recipient",
          "type": "address"
        },
        {
          "indexed": false,
          "internalType": "uint256",
          "name": "mIxQuantity",
          "type": "uint256"
        },
        {
          "indexed": false,
          "internalType": "address[]",
          "name": "bAssets",
          "type": "address[]"
        },
        {
          "indexed": false,
          "internalType": "uint256[]",
          "name": "bAssetQuantities",
          "type": "uint256[]"
        }
      ],
      "name": "Redeemed",
      "type": "event"
    },
    {
      "anonymous": false,
      "inputs": [
        {
          "indexed": true,
          "internalType": "address",
          "name": "redeemer",
          "type": "address"
        },
        {
          "indexed": false,
          "internalType": "address",
          "name": "recipient",
          "type": "address"
        },
        {
          "indexed": false,
          "internalType": "uint256",
          "name": "mIxQuantity",
          "type": "uint256"
        }
      ],
      "name": "RedeemedMix",
      "type": "event"
    },
    {
      "anonymous": false,
      "inputs": [
        {
          "indexed": false,
          "internalType": "uint256",
          "name": "fee",
          "type": "uint256"
        }
      ],
      "name": "RedemptionFeeChanged",
      "type": "event"
    },
    {
      "anonymous": false,
      "inputs": [
        {
          "indexed": false,
          "internalType": "uint256",
          "name": "fee",
          "type": "uint256"
        }
      ],
      "name": "SwapFeeChanged",
      "type": "event"
    },
    {
      "anonymous": false,
      "inputs": [
        {
          "indexed": true,
          "internalType": "address",
          "name": "swapper",
          "type": "address"
        },
        {
          "indexed": false,
          "internalType": "address",
          "name": "input",
          "type": "address"
        },
        {
          "indexed": false,
          "internalType": "address",
          "name": "output",
          "type": "address"
        },
        {
          "indexed": false,
          "internalType": "uint256",
          "name": "outputAmount",
          "type": "uint256"
        },
        {
          "indexed": false,
          "internalType": "address",
          "name": "recipient",
          "type": "address"
        }
      ],
      "name": "Swapped",
      "type": "event"
    },
    {
      "anonymous": false,
      "inputs": [
        {
          "indexed": true,
          "internalType": "address",
          "name": "from",
          "type": "address"
        },
        {
          "indexed": true,
          "internalType": "address",
          "name": "to",
          "type": "address"
        },
        {
          "indexed": false,
          "internalType": "uint256",
          "name": "value",
          "type": "uint256"
        }
      ],
      "name": "Transfer",
      "type": "event"
    },
    {
      "constant": true,
      "inputs": [
        {
          "internalType": "address",
          "name": "owner",
          "type": "address"
        },
        {
          "internalType": "address",
          "name": "spender",
          "type": "address"
        }
      ],
      "name": "allowance",
      "outputs": [
        {
          "internalType": "uint256",
          "name": "",
          "type": "uint256"
        }
      ],
      "payable": false,
      "stateMutability": "view",
      "type": "function"
    },
    {
      "constant": false,
      "inputs": [
        {
          "internalType": "address",
          "name": "spender",
          "type": "address"
        },
        {
          "internalType": "uint256",
          "name": "amount",
          "type": "uint256"
        }
      ],
      "name": "approve",
      "outputs": [
        {
          "internalType": "bool",
          "name": "",
          "type": "bool"
        }
      ],
      "payable": false,
      "stateMutability": "nonpayable",
      "type": "function"
    },
    {
      "constant": true,
      "inputs": [
        {
          "internalType": "address",
          "name": "account",
          "type": "address"
        }
      ],
      "name": "balanceOf",
      "outputs": [
        {
          "internalType": "uint256",
          "name": "",
          "type": "uint256"
        }
      ],
      "payable": false,
      "stateMutability": "view",
      "type": "function"
    },
    {
      "constant": true,
      "inputs": [],
      "name": "cacheSize",
      "outputs": [
        {
          "internalType": "uint256",
          "name": "",
          "type": "uint256"
        }
      ],
      "payable": false,
      "stateMutability": "view",
      "type": "function"
    },
    {
      "constant": true,
      "inputs": [],
      "name": "decimals",
      "outputs": [
        {
          "internalType": "uint8",
          "name": "",
          "type": "uint8"
        }
      ],
      "payable": false,
      "stateMutability": "view",
      "type": "function"
    },
    {
      "constant": false,
      "inputs": [
        {
          "internalType": "address",
          "name": "spender",
          "type": "address"
        },
        {
          "internalType": "uint256",
          "name": "subtractedValue",
          "type": "uint256"
        }
      ],
      "name": "decreaseAllowance",
      "outputs": [
        {
          "internalType": "bool",
          "name": "",
          "type": "bool"
        }
      ],
      "payable": false,
      "stateMutability": "nonpayable",
      "type": "function"
    },
    {
      "constant": true,
      "inputs": [],
      "name": "forgeValidator",
      "outputs": [
        {
          "internalType": "contract IForgeValidator",
          "name": "",
          "type": "address"
        }
      ],
      "payable": false,
      "stateMutability": "view",
      "type": "function"
    },
    {
      "constant": false,
      "inputs": [
        {
          "internalType": "address",
          "name": "spender",
          "type": "address"
        },
        {
          "internalType": "uint256",
          "name": "addedValue",
          "type": "uint256"
        }
      ],
      "name": "increaseAllowance",
      "outputs": [
        {
          "internalType": "bool",
          "name": "",
          "type": "bool"
        }
      ],
      "payable": false,
      "stateMutability": "nonpayable",
      "type": "function"
    },
    {
      "constant": true,
      "inputs": [],
      "name": "name",
      "outputs": [
        {
          "internalType": "string",
          "name": "",
          "type": "string"
        }
      ],
      "payable": false,
      "stateMutability": "view",
      "type": "function"
    },
    {
      "constant": true,
      "inputs": [],
      "name": "nexus",
      "outputs": [
        {
          "internalType": "contract INexus",
          "name": "",
          "type": "address"
        }
      ],
      "payable": false,
      "stateMutability": "view",
      "type": "function"
    },
    {
      "constant": true,
      "inputs": [],
      "name": "redemptionFee",
      "outputs": [
        {
          "internalType": "uint256",
          "name": "",
          "type": "uint256"
        }
      ],
      "payable": false,
      "stateMutability": "view",
      "type": "function"
    },
    {
      "constant": true,
      "inputs": [],
      "name": "surplus",
      "outputs": [
        {
          "internalType": "uint256",
          "name": "",
          "type": "uint256"
        }
      ],
      "payable": false,
      "stateMutability": "view",
      "type": "function"
    },
    {
      "constant": true,
      "inputs": [],
      "name": "swapFee",
      "outputs": [
        {
          "internalType": "uint256",
          "name": "",
          "type": "uint256"
        }
      ],
      "payable": false,
      "stateMutability": "view",
      "type": "function"
    },
    {
      "constant": true,
      "inputs": [],
      "name": "symbol",
      "outputs": [
        {
          "internalType": "string",
          "name": "",
          "type": "string"
        }
      ],
      "payable": false,
      "stateMutability": "view",
      "type": "function"
    },
    {
      "constant": true,
      "inputs": [],
      "name": "totalSupply",
      "outputs": [
        {
          "internalType": "uint256",
          "name": "",
          "type": "uint256"
        }
      ],
      "payable": false,
      "stateMutability": "view",
      "type": "function"
    },
    {
      "constant": false,
      "inputs": [
        {
          "internalType": "address",
          "name": "recipient",
          "type": "address"
        },
        {
          "internalType": "uint256",
          "name": "amount",
          "type": "uint256"
        }
      ],
      "name": "transfer",
      "outputs": [
        {
          "internalType": "bool",
          "name": "",
          "type": "bool"
        }
      ],
      "payable": false,
      "stateMutability": "nonpayable",
      "type": "function"
    },
    {
      "constant": false,
      "inputs": [
        {
          "internalType": "address",
          "name": "sender",
          "type": "address"
        },
        {
          "internalType": "address",
          "name": "recipient",
          "type": "address"
        },
        {
          "internalType": "uint256",
          "name": "amount",
          "type": "uint256"
        }
      ],
      "name": "transferFrom",
      "outputs": [
        {
          "internalType": "bool",
          "name": "",
          "type": "bool"
        }
      ],
      "payable": false,
      "stateMutability": "nonpayable",
      "type": "function"
    },
    {
      "constant": false,
      "inputs": [
        {
          "internalType": "string",
          "name": "_nameArg",
          "type": "string"
        },
        {
          "internalType": "string",
          "name": "_symbolArg",
          "type": "string"
        },
        {
          "internalType": "address",
          "name": "_nexus",
          "type": "address"
        },
        {
          "internalType": "address",
          "name": "_forgeValidator",
          "type": "address"
        },
        {
          "internalType": "address",
          "name": "_basketManager",
          "type": "address"
        }
      ],
      "name": "initialize",
      "outputs": [],
      "payable": false,
      "stateMutability": "nonpayable",
      "type": "function"
    },
    {
      "constant": false,
      "inputs": [
        {
          "internalType": "address",
          "name": "_bAsset",
          "type": "address"
        },
        {
          "internalType": "uint256",
          "name": "_bAssetQuantity",
          "type": "uint256"
        }
      ],
      "name": "mint",
      "outputs": [
        {
          "internalType": "uint256",
          "name": "mixMinted",
          "type": "uint256"
        }
      ],
      "payable": false,
      "stateMutability": "nonpayable",
      "type": "function"
    },
    {
      "constant": false,
      "inputs": [
        {
          "internalType": "address",
          "name": "_bAsset",
          "type": "address"
        },
        {
          "internalType": "uint256",
          "name": "_bAssetQuantity",
          "type": "uint256"
        },
        {
          "internalType": "address",
          "name": "_recipient",
          "type": "address"
        }
      ],
      "name": "mintTo",
      "outputs": [
        {
          "internalType": "uint256",
          "name": "mixMinted",
          "type": "uint256"
        }
      ],
      "payable": false,
      "stateMutability": "nonpayable",
      "type": "function"
    },
    {
      "constant": false,
      "inputs": [
        {
          "internalType": "address[]",
          "name": "_bAssets",
          "type": "address[]"
        },
        {
          "internalType": "uint256[]",
          "name": "_bAssetQuantity",
          "type": "uint256[]"
        },
        {
          "internalType": "address",
          "name": "_recipient",
          "type": "address"
        }
      ],
      "name": "mintMulti",
      "outputs": [
        {
          "internalType": "uint256",
          "name": "mixMinted",
          "type": "uint256"
        }
      ],
      "payable": false,
      "stateMutability": "nonpayable",
      "type": "function"
    },
    {
      "constant": false,
      "inputs": [
        {
          "internalType": "address",
          "name": "_input",
          "type": "address"
        },
        {
          "internalType": "address",
          "name": "_output",
          "type": "address"
        },
        {
          "internalType": "uint256",
          "name": "_quantity",
          "type": "uint256"
        },
        {
          "internalType": "address",
          "name": "_recipient",
          "type": "address"
        }
      ],
      "name": "swap",
      "outputs": [
        {
          "internalType": "uint256",
          "name": "output",
          "type": "uint256"
        }
      ],
      "payable": false,
      "stateMutability": "nonpayable",
      "type": "function"
    },
    {
      "constant": true,
      "inputs": [
        {
          "internalType": "address",
          "name": "_input",
          "type": "address"
        },
        {
          "internalType": "address",
          "name": "_output",
          "type": "address"
        },
        {
          "internalType": "uint256",
          "name": "_quantity",
          "type": "uint256"
        }
      ],
      "name": "getSwapOutput",
      "outputs": [
        {
          "internalType": "bool",
          "name": "",
          "type": "bool"
        },
        {
          "internalType": "string",
          "name": "",
          "type": "string"
        },
        {
          "internalType": "uint256",
          "name": "output",
          "type": "uint256"
        }
      ],
      "payable": false,
      "stateMutability": "view",
      "type": "function"
    },
    {
      "constant": false,
      "inputs": [
        {
          "internalType": "address",
          "name": "_bAsset",
          "type": "address"
        },
        {
          "internalType": "uint256",
          "name": "_bAssetQuantity",
          "type": "uint256"
        }
      ],
      "name": "redeem",
      "outputs": [
        {
          "internalType": "uint256",
          "name": "mixRedeemed",
          "type": "uint256"
        }
      ],
      "payable": false,
      "stateMutability": "nonpayable",
      "type": "function"
    },
    {
      "constant": false,
      "inputs": [
        {
          "internalType": "address",
          "name": "_bAsset",
          "type": "address"
        },
        {
          "internalType": "uint256",
          "name": "_bAssetQuantity",
          "type": "uint256"
        },
        {
          "internalType": "address",
          "name": "_recipient",
          "type": "address"
        }
      ],
      "name": "redeemTo",
      "outputs": [
        {
          "internalType": "uint256",
          "name": "mixRedeemed",
          "type": "uint256"
        }
      ],
      "payable": false,
      "stateMutability": "nonpayable",
      "type": "function"
    },
    {
      "constant": false,
      "inputs": [
        {
          "internalType": "address[]",
          "name": "_bAssets",
          "type": "address[]"
        },
        {
          "internalType": "uint256[]",
          "name": "_bAssetQuantities",
          "type": "uint256[]"
        },
        {
          "internalType": "address",
          "name": "_recipient",
          "type": "address"
        }
      ],
      "name": "redeemMulti",
      "outputs": [
        {
          "internalType": "uint256",
          "name": "mixRedeemed",
          "type": "uint256"
        }
      ],
      "payable": false,
      "stateMutability": "nonpayable",
      "type": "function"
    },
    {
      "constant": false,
      "inputs": [
        {
          "internalType": "uint256",
          "name": "_mIxQuantity",
          "type": "uint256"
        },
        {
          "internalType": "address",
          "name": "_recipient",
          "type": "address"
        }
      ],
      "name": "redeemMix",
      "outputs": [],
      "payable": false,
      "stateMutability": "nonpayable",
      "type": "function"
    },
    {
      "constant": false,
      "inputs": [
        {
          "internalType": "uint256",
          "name": "_cacheSize",
          "type": "uint256"
        }
      ],
      "name": "setCacheSize",
      "outputs": [],
      "payable": false,
      "stateMutability": "nonpayable",
      "type": "function"
    },
    {
      "constant": false,
      "inputs": [
        {
          "internalType": "address",
          "name": "_newForgeValidator",
          "type": "address"
        }
      ],
      "name": "upgradeForgeValidator",
      "outputs": [],
      "payable": false,
      "stateMutability": "nonpayable",
      "type": "function"
    },
    {
      "constant": false,
      "inputs": [],
      "name": "lockForgeValidator",
      "outputs": [],
      "payable": false,
      "stateMutability": "nonpayable",
      "type": "function"
    },
    {
      "constant": false,
      "inputs": [
        {
          "internalType": "uint256",
          "name": "_swapFee",
          "type": "uint256"
        }
      ],
      "name": "setSwapFee",
      "outputs": [],
      "payable": false,
      "stateMutability": "nonpayable",
      "type": "function"
    },
    {
      "constant": false,
      "inputs": [
        {
          "internalType": "uint256",
          "name": "_redemptionFee",
          "type": "uint256"
        }
      ],
      "name": "setRedemptionFee",
      "outputs": [],
      "payable": false,
      "stateMutability": "nonpayable",
      "type": "function"
    },
    {
      "constant": true,
      "inputs": [],
      "name": "getBasketManager",
      "outputs": [
        {
          "internalType": "address",
          "name": "",
          "type": "address"
        }
      ],
      "payable": false,
      "stateMutability": "view",
      "type": "function"
    },
    {
      "constant": false,
      "inputs": [],
      "name": "collectInterest",
      "outputs": [
        {
          "internalType": "uint256",
          "name": "swapFeesGained",
          "type": "uint256"
        },
        {
          "internalType": "uint256",
          "name": "newSupply",
          "type": "uint256"
        }
      ],
      "payable": false,
      "stateMutability": "nonpayable",
      "type": "function"
    },
    {
      "constant": false,
      "inputs": [],
      "name": "collectPlatformInterest",
      "outputs": [
        {
          "internalType": "uint256",
          "name": "interestGained",
          "type": "uint256"
        },
        {
          "internalType": "uint256",
          "name": "newSupply",
          "type": "uint256"
        }
      ],
      "payable": false,
      "stateMutability": "nonpayable",
      "type": "function"
    }
  ],
  "bytecode": "0x6080604052615bc6806100136000396000f3fe608060405234801561001057600080fd5b50600436106102115760003560e01c8063674a64e011610125578063a3f5c1d2116100ad578063d7d522661161007c578063d7d5226614610435578063db0ed6a01461043d578063dd62ed3e14610450578063eeea5d3614610463578063fb2c92231461047857610211565b8063a3f5c1d2146103e7578063a457c2d7146103fc578063a9059cbb1461040f578063aa3053b01461042257610211565b80637dbc1df0116100f45780637dbc1df01461039e5780637e8901ea146103b157806384f9378a146103b957806395d89b41146103cc5780639c87efbe146103d457610211565b8063674a64e01461034e5780636e81221c1461035657806370a082311461036957806372ea90761461037c57610211565b80632a2fab22116101a857806340c10f191161017757806340c10f1914610310578063438b1b4b14610323578063458f58151461033657806354cf2aeb1461033e5780635d864ced1461034657610211565b80632a2fab22146102bf578063313ce567146102d557806334e19907146102ea57806339509351146102fd57610211565b80631820783d116101e45780631820783d146102715780631e9a69501461028657806323b872dd1461029957806326bbe60a146102ac57610211565b806306fdde0314610216578063095ea7b314610234578063138885651461025457806318160ddd14610269575b600080fd5b61021e61048b565b60405161022b91906156c5565b60405180910390f35b610247610242366004614227565b610522565b60405161022b919061560c565b61025c610540565b60405161022b91906156a9565b61025c610546565b61028461027f3660046146a0565b61054c565b005b61025c610294366004614227565b610618565b6102476102a7366004614179565b610677565b6102846102ba366004614103565b610705565b6102c76107d8565b60405161022b929190615986565b6102dd6108eb565b60405161022b9190615994565b6102846102f83660046146a0565b6108f4565b61024761030b366004614227565b610983565b61025c61031e366004614227565b6109d7565b61025c610331366004614257565b610a1b565b61025c610a7b565b61025c610a81565b610284610a87565b61025c610ad4565b61025c6103643660046141c6565b610ada565b61025c610377366004614103565b611039565b61038f61038a366004614179565b611058565b60405161022b9392919061561a565b6102846103ac3660046146a0565b6113ae565b6102c761143d565b61025c6103c736600461429a565b6115ab565b61021e61166e565b6102846103e23660046146dc565b6116cf565b6103ef611726565b60405161022b91906156b7565b61024761040a366004614227565b611735565b61024761041d366004614227565b6117a3565b61025c61043036600461429a565b6117b7565b6103ef61185c565b61028461044b366004614559565b61186b565b61025c61045e36600461413f565b6119d6565b61046b611a01565b60405161022b919061539f565b61025c610486366004614257565b611a10565b60368054604080516020601f60026000196101006001881615020190951694909404938401819004810282018101909252828152606093909290918301828280156105175780601f106104ec57610100808354040283529160200191610517565b820191906000526020600020905b8154815290600101906020018083116104fa57829003601f168201915b505050505090505b90565b600061053661052f611a54565b8484611a58565b5060015b92915050565b60485481565b60355490565b610554611b0c565b6001600160a01b0316336001600160a01b0316148061058b5750610576611b8e565b6001600160a01b0316336001600160a01b0316145b6105b05760405162461bcd60e51b81526004016105a7906156f6565b60405180910390fd5b6702c68af0bb1400008111156105d85760405162461bcd60e51b81526004016105a7906157c6565b60478190556040517f2f5a6b1defeafd30e7568ea5c176aa0702b0af5b00ba41fa20e58b2c72e8afe79061060d9083906156a9565b60405180910390a150565b604154600090600160a01b900460ff166106445760405162461bcd60e51b81526004016105a7906158a6565b6041805460ff60a01b1916905561065c838333611bd9565b90506041805460ff60a01b1916600160a01b17905592915050565b6000610684848484611c7f565b6106fa84610690611a54565b6106f585604051806060016040528060288152602001615b37602891396001600160a01b038a166000908152603460205260408120906106ce611a54565b6001600160a01b03168152602081019190915260400160002054919063ffffffff611d9516565b611a58565b5060015b9392505050565b61070d611b0c565b6001600160a01b0316336001600160a01b03161461073d5760405162461bcd60e51b81526004016105a790615776565b604254600160a01b900460ff16156107675760405162461bcd60e51b81526004016105a7906157e6565b6001600160a01b03811661078d5760405162461bcd60e51b81526004016105a790615796565b604280546001600160a01b0319166001600160a01b0383161790556040517f2e137a82d7f7fe8a4c453313f3d08557c162ad9d78219a2e937e318b41e12f7a9061060d90839061539f565b600080336107e4611dc1565b6001600160a01b03161461080a5760405162461bcd60e51b81526004016105a790615756565b604154600160a01b900460ff166108335760405162461bcd60e51b81526004016105a7906158a6565b6041805460ff60a01b19169055604854600090600110156108c65760485461086290600163ffffffff611df416565b600160485590506108733382611e36565b604080516000808252602082019081528183019283905230927f7d3ff197e9071095bd36b627028ef523ecf46fcbf17cbde745a4b65aec88b6bc926108bd92859287929190615505565b60405180910390a25b806108cf610546565b92509250506041805460ff60a01b1916600160a01b1790559091565b60385460ff1690565b6108fc611b0c565b6001600160a01b0316336001600160a01b03161461092c5760405162461bcd60e51b81526004016105a790615776565b60455481111561094e5760405162461bcd60e51b81526004016105a790615826565b60448190556040517f9cabc14d438714dbcd9292df9b3f89c42f98acd93a675ad72cd6033777e9b8e79061060d9083906156a9565b6000610536610990611a54565b846106f585603460006109a1611a54565b6001600160a01b03908116825260208083019390935260409182016000908120918c16815292529020549063ffffffff611ef616565b604154600090600160a01b900460ff16610a035760405162461bcd60e51b81526004016105a7906158a6565b6041805460ff60a01b1916905561065c838333611f1b565b604154600090600160a01b900460ff16610a475760405162461bcd60e51b81526004016105a7906158a6565b6041805460ff60a01b19169055610a5f848484611f1b565b90506041805460ff60a01b1916600160a01b1790559392505050565b60465481565b60445481565b610a8f611b0c565b6001600160a01b0316336001600160a01b031614610abf5760405162461bcd60e51b81526004016105a790615776565b6042805460ff60a01b1916600160a01b179055565b60475481565b604154600090600160a01b900460ff16610b065760405162461bcd60e51b81526004016105a7906158a6565b6041805460ff60a01b19169055610b1b6139a1565b50604080516060810182526001600160a01b038088168083528782166020840152908516928201929092529015801590610b61575060208101516001600160a01b031615155b610b7d5760405162461bcd60e51b81526004016105a7906157f6565b80602001516001600160a01b031681600001516001600160a01b03161415610bb75760405162461bcd60e51b81526004016105a790615766565b60408101516001600160a01b0316610be15760405162461bcd60e51b81526004016105a790615726565b60008411610c015760405162461bcd60e51b81526004016105a790615786565b60208101516001600160a01b0316301415610c3157610c298160000151858360400151611f1b565b91505061101e565b60006060610c3d6139c1565b610c456139c1565b60435485516020870151604051632bf596cf60e01b81526001600160a01b0390931692632bf596cf92610c7f9290916000906004016153ad565b60006040518083038186803b158015610c9757600080fd5b505afa158015610cab573d6000803e3d6000fd5b505050506040513d6000823e601f3d908101601f19168201604052610cd3919081019061444e565b9350935093509350838390610cfb5760405162461bcd60e51b81526004016105a791906156c5565b50610d046139e8565b610d0c6121cf565b90506000610d3a876000015185600001516060015186602001518760000151604001518e876020015161222b565b506043546040808701516020880151915163371a1b2360e21b81529394506001600160a01b039092169263dc686c8c92610d7a92909186906004016159a2565b600060405180830381600087803b158015610d9457600080fd5b505af1158015610da8573d6000803e3d6000fd5b5050604254845187518751604051638da25c0960e01b81526000965060609550869485946001600160a01b0390911693638da25c0993610dec938b90600401615926565b60006040518083038186803b158015610e0457600080fd5b505afa158015610e18573d6000803e3d6000fd5b505050506040513d6000823e601f3d908101601f19168201604052610e4091908101906144bc565b9350935093509350838390610e685760405162461bcd60e51b81526004016105a791906156c5565b5060008211610e895760405162461bcd60e51b81526004016105a7906158b6565b60408b0151610e966139e8565b610f2e6040518061012001604052808681526020018f602001516001600160a01b031681526020018b602001516001600160a01b0316815260200185610edd576000610ee1565b6044545b81526020018b600001516040015115158152602001846001600160a01b031681526020018b600001516060015181526020018a6020015181526020018b6000015160a001518152506123ee565b6043546040808c01516020808e0151908501519251632e8b67a160e11b81529495506001600160a01b0390931693635d16cf4293610f709390916004016159a2565b600060405180830381600087803b158015610f8a57600080fd5b505af1158015610f9e573d6000803e3d6000fd5b50505050610fbd81604001518960400151611ef690919063ffffffff16565b6048558c516020808f01519083015160405133937f202522f7dbbb826f03c2adf78dedea2ede1e5cf8a67a041843a7b43e529011d49361100393919290919088906153fd565b60405180910390a2602001519c505050505050505050505050505b6041805460ff60a01b1916600160a01b179055949350505050565b6001600160a01b0381166000908152603360205260409020545b919050565b60006060816001600160a01b0386161580159061107d57506001600160a01b03851615155b6110995760405162461bcd60e51b81526004016105a7906157f6565b846001600160a01b0316866001600160a01b031614156110cb5760405162461bcd60e51b81526004016105a790615766565b6001600160a01b038516301484600060606110e46139c1565b6110ec6139c1565b604354604051632bf596cf60e01b81526001600160a01b0390911690632bf596cf90611120908f908f908b906004016153ad565b60006040518083038186803b15801561113857600080fd5b505afa15801561114c573d6000803e3d6000fd5b505050506040513d6000823e601f3d908101601f19168201604052611174919081019061444e565b9350935093509350836111965750600097509095508694506113a59350505050565b61119e6139e8565b6111a66121cf565b90508615611293576042548151845160405163df95633560e01b81526001600160a01b039093169263df956335926111e49290918b9060040161595d565b60006040518083038186803b1580156111fc57600080fd5b505afa158015611210573d6000803e3d6000fd5b505050506040513d6000823e601f3d908101601f19168201604052611238919081019061433c565b9095509350846112585750600098509196508795506113a5945050505050565b82516060015161126f90879063ffffffff6126a616565b60408051602081019091526000815260019b50995097506113a59650505050505050565b60006060600080604260009054906101000a90046001600160a01b03166001600160a01b0316638da25c098660000151896000015189600001518e6040518563ffffffff1660e01b81526004016112ed9493929190615926565b60006040518083038186803b15801561130557600080fd5b505afa158015611319573d6000803e3d6000fd5b505050506040513d6000823e601f3d908101601f1916820160405261134191908101906144bc565b935093509350935083611368575060009c50909a508b99506113a598505050505050505050565b801561137e5761137a826044546126b7565b9250505b5060408051602081019091526000815260019d509b5099506113a598505050505050505050565b93509350939050565b6113b6611b0c565b6001600160a01b0316336001600160a01b0316146113e65760405162461bcd60e51b81526004016105a790615776565b6045548111156114085760405162461bcd60e51b81526004016105a790615826565b60468190556040517f4dbf9634a3aaf3bc15ab627faeaac7c6b0a4754ead77206f1c11277356f2878f9061060d9083906156a9565b60008033611449611dc1565b6001600160a01b03161461146f5760405162461bcd60e51b81526004016105a790615756565b604154600160a01b900460ff166114985760405162461bcd60e51b81526004016105a7906158a6565b6041805460ff60a01b1916905560435460408051631517d59160e11b815290516000926060926001600160a01b0390911691632a2fab2291600480820192879290919082900301818387803b1580156114f057600080fd5b505af1158015611504573d6000803e3d6000fd5b505050506040513d6000823e601f3d908101601f1916820160405261152c91908101906146fb565b9150915061153a3383611e36565b6040805160008152602081019182905230917f7d3ff197e9071095bd36b627028ef523ecf46fcbf17cbde745a4b65aec88b6bc9161157d91849187918790615546565b60405180910390a28161158e610546565b9350935050506041805460ff60a01b1916600160a01b1790559091565b604154600090600160a01b900460ff166115d75760405162461bcd60e51b81526004016105a7906158a6565b6041805460ff60a01b1916905560408051602080880282810182019093528782526116509289918991829185019084908082843760009201919091525050604080516020808a028281018201909352898252909350899250889182918501908490808284376000920191909152508792506126e5915050565b90506041805460ff60a01b1916600160a01b17905595945050505050565b60378054604080516020601f60026000196101006001881615020190951694909404938401819004810282018101909252828152606093909290918301828280156105175780601f106104ec57610100808354040283529160200191610517565b604154600160a01b900460ff166116f85760405162461bcd60e51b81526004016105a7906158a6565b6041805460ff60a01b1916905561170f8282612a8f565b50506041805460ff60a01b1916600160a01b179055565b6041546001600160a01b031681565b6000610536611742611a54565b846106f585604051806060016040528060258152602001615b5f602591396034600061176c611a54565b6001600160a01b03908116825260208083019390935260409182016000908120918d1681529252902054919063ffffffff611d9516565b60006105366117b0611a54565b8484611c7f565b604154600090600160a01b900460ff166117e35760405162461bcd60e51b81526004016105a7906158a6565b6041805460ff60a01b1916905560408051602080880282810182019093528782526116509289918991829185019084908082843760009201919091525050604080516020808a02828101820190935289825290935089925088918291850190849080828437600092019190915250879250612cf6915050565b6042546001600160a01b031681565b600054610100900460ff16806118845750611884613032565b80611892575060005460ff16155b6118ae5760405162461bcd60e51b81526004016105a790615836565b600054610100900460ff161580156118d9576000805460ff1961ff0019909116610100171660011790555b61194c88888080601f01602080910402602001604051908101604052809392919081815260200183838082843760009201919091525050604080516020601f8c018190048102820181019092528a815292508a915089908190840183828082843760009201919091525061303892505050565b61195584613048565b61195d613094565b604280546001600160a01b038086166001600160a01b031992831617909255604380549285169290911691909117905566470de4df820000604555660221b262dd8000604455660110d9316ec00060465567016345785d8a000060475580156119cc576000805461ff00191690555b5050505050505050565b6001600160a01b03918216600090815260346020908152604080832093909416825291909152205490565b6043546001600160a01b031690565b604154600090600160a01b900460ff16611a3c5760405162461bcd60e51b81526004016105a7906158a6565b6041805460ff60a01b19169055610a5f848484611bd9565b3390565b6001600160a01b038316611a7e5760405162461bcd60e51b81526004016105a790615866565b6001600160a01b038216611aa45760405162461bcd60e51b81526004016105a790615706565b6001600160a01b0380841660008181526034602090815260408083209487168084529490915290819020849055517f8c5be1e5ebec7d5bd14f71427d1e84f3dd0314c0f7b2291e5b200ac8c7c3b92590611aff9085906156a9565b60405180910390a3505050565b6041546040805163030d028960e21b815290516000926001600160a01b031691630c340a24916004808301926020929190829003018186803b158015611b5157600080fd5b505afa158015611b65573d6000803e3d6000fd5b505050506040513d601f19601f82011682018060405250611b899190810190614121565b905090565b6041546039546040516385acd64160e01b81526000926001600160a01b0316916385acd64191611bc191906004016156a9565b60206040518083038186803b158015611b5157600080fd5b604080516001808252818301909252600091606091906020808301908038833950506040805160018082528183019092529293506060929150602080830190803883390190505090508582600081518110611c3057fe5b60200260200101906001600160a01b031690816001600160a01b0316815250508481600081518110611c5e57fe5b602002602001018181525050611c75828286612cf6565b9695505050505050565b6001600160a01b038316611ca55760405162461bcd60e51b81526004016105a790615856565b6001600160a01b038216611ccb5760405162461bcd60e51b81526004016105a7906156d6565b611d0e81604051806060016040528060268152602001615b11602691396001600160a01b038616600090815260336020526040902054919063ffffffff611d9516565b6001600160a01b038085166000908152603360205260408082209390935590841681522054611d43908263ffffffff611ef616565b6001600160a01b0380841660008181526033602052604090819020939093559151908516907fddf252ad1be2c89b69c2b068fc378daa952ba7f163c4a11628f55a4df523b3ef90611aff9085906156a9565b60008184841115611db95760405162461bcd60e51b81526004016105a791906156c5565b505050900390565b6041546040805490516385acd64160e01b81526000926001600160a01b0316916385acd64191611bc191906004016156a9565b60006106fe83836040518060400160405280601e81526020017f536166654d6174683a207375627472616374696f6e206f766572666c6f770000815250611d95565b6001600160a01b038216611e5c5760405162461bcd60e51b81526004016105a7906158d6565b603554611e6f908263ffffffff611ef616565b6035556001600160a01b038216600090815260336020526040902054611e9b908263ffffffff611ef616565b6001600160a01b0383166000818152603360205260408082209390935591519091907fddf252ad1be2c89b69c2b068fc378daa952ba7f163c4a11628f55a4df523b3ef90611eea9085906156a9565b60405180910390a35050565b6000828201838110156106fe5760405162461bcd60e51b81526004016105a790615716565b60006001600160a01b038216611f435760405162461bcd60e51b81526004016105a790615896565b60008311611f635760405162461bcd60e51b81526004016105a7906157d6565b6000611f6d6139c1565b60435460405163bf9ca02d60e01b81526001600160a01b039091169063bf9ca02d90611fa29089908990600190600401615573565b61012060405180830381600087803b158015611fbd57600080fd5b505af1158015611fd1573d6000803e3d6000fd5b505050506040513d601f19601f82011682018060405250611ff59190810190614528565b9150915081612009576000925050506106fe565b6120116139e8565b6120196121cf565b90506000826020015190506000806120498a866000015160600151858860000151604001518d896020015161222b565b6042548651885160405163df95633560e01b81529496509294506000936060936001600160a01b039093169263df9563359261208c92909190899060040161595d565b60006040518083038186803b1580156120a457600080fd5b505afa1580156120b8573d6000803e3d6000fd5b505050506040513d6000823e601f3d908101601f191682016040526120e0919081019061433c565b915091508181906121045760405162461bcd60e51b81526004016105a791906156c5565b50604354604080890151905163371a1b2360e21b81526001600160a01b039092169163dc686c8c9161213c91899089906004016159a2565b600060405180830381600087803b15801561215657600080fd5b505af115801561216a573d6000803e3d6000fd5b505050506121788a84611e36565b336001600160a01b03167f30873c596f54a2e2e09894670d7e1a48b2433c00204f81fbedf557353c36e7c78b858f886040516121b7949392919061548f565b60405180910390a250909a9950505050505050505050565b6121d76139e8565b60485460006121f4826121e8610546565b9063ffffffff611ef616565b9050604051806060016040528082815260200161221c604754846130a990919063ffffffff16565b81526020019290925250905090565b60008060008061223d33898c896130be565b9150915086156122e1576040516307dba22560e31b81526000906001600160a01b038a1690633edd11289061227b908e908790600190600401615573565b602060405180830381600087803b15801561229557600080fd5b505af11580156122a9573d6000803e3d6000fd5b505050506040513d601f19601f820116820180604052506122cd91908101906146be565b90506122d981886131fa565b9450506123cf565b8582146123005760405162461bcd60e51b81526004016105a7906157b6565b90925082906000612317868b63ffffffff61320916565b9050808211156123cd57600061234461233783600263ffffffff61323a16565b849063ffffffff611df416565b6040516307dba22560e31b81529091506001600160a01b038b1690633edd112890612378908f908590600090600401615573565b602060405180830381600087803b15801561239257600080fd5b505af11580156123a6573d6000803e3d6000fd5b505050506040513d601f19601f820116820180604052506123ca91908101906146be565b50505b505b6123df848a63ffffffff6126a616565b92505050965096945050505050565b6123f66139e8565b815115611053576124198260200151836000015184606001518560c0015161327c565b90508160800151156124a35760408083015160a084015160208086015190850151935163c89fc72f60e01b81526001600160a01b039093169363c89fc72f9361246c939291908190600190600401615432565b600060405180830381600087803b15801561248657600080fd5b505af115801561249a573d6000803e3d6000fd5b50505050611053565b600082602001516001600160a01b03166370a0823184604001516040518263ffffffff1660e01b81526004016124d9919061539f565b60206040518083038186803b1580156124f157600080fd5b505afa158015612505573d6000803e3d6000fd5b505050506040513d601f19601f8201168201806040525061252991908101906146be565b9050816020015181106125ad5782604001516001600160a01b031663a4e285958460a00151856020015185602001516040518463ffffffff1660e01b8152600401612576939291906153d5565b600060405180830381600087803b15801561259057600080fd5b505af11580156125a4573d6000803e3d6000fd5b505050506126a0565b60006125db60026125cf8660c001518760e0015161320990919063ffffffff16565b9063ffffffff61323a16565b90506000612624612609846125fd876020015186611ef690919063ffffffff16565b9063ffffffff611df416565b61010087015161261f908663ffffffff611df416565b6131fa565b905084604001516001600160a01b031663c89fc72f8660a00151876020015187602001518560006040518663ffffffff1660e01b815260040161266b959493929190615432565b600060405180830381600087803b15801561268557600080fd5b505af1158015612699573d6000803e3d6000fd5b5050505050505b50919050565b60006106fe83836305f5e100613334565b6000806126ca848463ffffffff6130a916565b91506126dc848363ffffffff611df416565b90509250929050565b60006001600160a01b03821661270d5760405162461bcd60e51b81526004016105a790615896565b8251801580159061271e5750845181145b61273a5760405162461bcd60e51b81526004016105a790615736565b612742613a09565b604354604051639d01cd3560e01b81526001600160a01b0390911690639d01cd3590612777908990899060019060040161559f565b600060405180830381600087803b15801561279157600080fd5b505af11580156127a5573d6000803e3d6000fd5b505050506040513d6000823e601f3d908101601f191682016040526127cd9190810190614604565b80519091506127e1576000925050506106fe565b6127e96139e8565b6127f16121cf565b90506000809050606084604051908082528060200260200182016040528015612824578160200160208202803883390190505b50905060005b858110156128e857600089828151811061284057fe5b6020026020010151905060008111156128df5761285b613a33565b8660200151838151811061286b57fe5b602002602001015190506000806128ad836000015184606001518b60400151888151811061289557fe5b60200260200101518660400151888d6020015161222b565b91509150818686815181106128be57fe5b60209081029190910101526128d9878263ffffffff611ef616565b96505050505b5060010161282a565b50600082116129095760405162461bcd60e51b81526004016105a790615816565b6043546060850151604080870151905163d5e1d27960e01b81526001600160a01b039093169263d5e1d2799261294592909186906004016155d3565b600060405180830381600087803b15801561295f57600080fd5b505af1158015612973573d6000803e3d6000fd5b505060425485516020880151604051634566eb0960e01b815260009550606094506001600160a01b0390931692634566eb09926129b69290918890600401615906565b60006040518083038186803b1580156129ce57600080fd5b505afa1580156129e2573d6000803e3d6000fd5b505050506040513d6000823e601f3d908101601f19168201604052612a0a919081019061433c565b91509150818190612a2e5760405162461bcd60e51b81526004016105a791906156c5565b50612a398985611e36565b336001600160a01b03167f7d3ff197e9071095bd36b627028ef523ecf46fcbf17cbde745a4b65aec88b6bc8a868e8e604051612a7894939291906154c4565b60405180910390a250919998505050505050505050565b6001600160a01b038116612ab55760405162461bcd60e51b81526004016105a790615896565b60008211612ad55760405162461bcd60e51b81526004016105a790615886565b612add613a6c565b604360009054906101000a90046001600160a01b03166001600160a01b03166343ae78be6040518163ffffffff1660e01b815260040160006040518083038186803b158015612b2b57600080fd5b505afa158015612b3f573d6000803e3d6000fd5b505050506040513d6000823e601f3d908101601f19168201604052612b679190810190614638565b90506000612b7b826000015161261f613362565b90506000612b8f858363ffffffff6130a916565b604254602085015160405162201e2d60e41b815292935060009260609283926001600160a01b0390911691630201e2d091612bcf918891906004016158e6565b60006040518083038186803b158015612be757600080fd5b505afa158015612bfb573d6000803e3d6000fd5b505050506040513d6000823e601f3d908101601f19168201604052612c239190810190614383565b925092509250828290612c495760405162461bcd60e51b81526004016105a791906156c5565b50612ca9604051806101000160405280896001600160a01b031681526020018a81526020018381526020018860600151815260200188604001518152602001604654815260200188602001518152602001612ca26121cf565b905261336e565b336001600160a01b03167f19b981884da7bfa713897450d8296717f476db5889e9fc4446dd667d8bbb56db888a604051612ce4929190615474565b60405180910390a25050505050505050565b60006001600160a01b038216612d1e5760405162461bcd60e51b81526004016105a790615896565b82518015801590612d2f5750845181145b612d4b5760405162461bcd60e51b81526004016105a790615736565b612d53613a94565b60435460405163c0e46a2f60e01b81526001600160a01b039091169063c0e46a2f90612d8390899060040161558e565b60006040518083038186803b158015612d9b57600080fd5b505afa158015612daf573d6000803e3d6000fd5b505050506040513d6000823e601f3d908101601f19168201604052612dd7919081019061466c565b8051909150612deb576000925050506106fe565b612df36139e8565b612dfb6121cf565b9050600060606000604260009054906101000a90046001600160a01b03166001600160a01b0316638fb1860b60008660000151886020015189608001518e6040518663ffffffff1660e01b8152600401612e59959493929190615649565b60006040518083038186803b158015612e7157600080fd5b505afa158015612e85573d6000803e3d6000fd5b505050506040513d6000823e601f3d908101601f19168201604052612ead91908101906143f4565b925092509250828290612ed35760405162461bcd60e51b81526004016105a791906156c5565b506000805b87811015612f505760008b8281518110612eee57fe5b602002602001015190506000811115612f47576000612f3189604001518481518110612f1657fe5b6020026020010151606001518361359a90919063ffffffff16565b9050612f43848263ffffffff611ef616565b9350505b50600101612ed8565b5060008111612f715760405162461bcd60e51b81526004016105a7906157a6565b600082612f7f576000612f83565b6044545b9050612fdc6040518061010001604052808c6001600160a01b031681526020018481526020018d81526020018960800151815260200189606001518152602001838152602001896040015181526020018881525061336e565b336001600160a01b03167f93fc955b3f6c5e7b37fbb64f39e6f4d9050f82ed17cec724743f95a50da7df1c8b848f8f60405161301b94939291906154c4565b60405180910390a2509a9950505050505050505050565b303b1590565b613044828260126135ec565b5050565b6001600160a01b03811661306e5760405162461bcd60e51b81526004016105a7906156e6565b604180546001600160a01b0319166001600160a01b03831617905561309161362c565b50565b6041805460ff60a01b1916600160a01b179055565b60006106fe8383670de0b6b3a7640000613334565b6000806000846001600160a01b03166370a08231876040518263ffffffff1660e01b81526004016130ef919061539f565b60206040518083038186803b15801561310757600080fd5b505afa15801561311b573d6000803e3d6000fd5b505050506040513d601f19601f8201168201806040525061313f91908101906146be565b905061315c6001600160a01b03861688888763ffffffff6136db16565b6040516370a0823160e01b81526001600160a01b038616906370a082319061318890899060040161539f565b60206040518083038186803b1580156131a057600080fd5b505afa1580156131b4573d6000803e3d6000fd5b505050506040513d601f19601f820116820180604052506131d891908101906146be565b91506131ee8461261f848463ffffffff611df416565b92505094509492505050565b60008183116126a057826106fe565b600080613220846305f5e10063ffffffff61373c16565b9050613232818463ffffffff61323a16565b949350505050565b60006106fe83836040518060400160405280601a81526020017f536166654d6174683a206469766973696f6e206279207a65726f000000000000815250613776565b6132846139e8565b82156133115760008061329786866126b7565b91509150336001600160a01b03167f02f19ecb5bbcd7b0f0cb034005563f7ad115132d0beb073b5d32697ca94bbaa188846040516132d6929190615474565b60405180910390a26040805160608101825287815260208101839052908101613305848763ffffffff6126a616565b81525092505050613232565b505060408051606081018252838152602081019390935260009083015250919050565b600080613347858563ffffffff61373c16565b9050613359818463ffffffff61323a16565b95945050505050565b670de0b6b3a764000090565b61337c3382602001516137ad565b60c0810151516040805182815260208084028201019091526060908280156133ae578160200160208202803883390190505b5090506000805b83811015613513576133c56139e8565b6134d4604051806101200160405280886040015185815181106133e457fe5b602002602001015181526020018860c00151858151811061340157fe5b6020026020010151600001516001600160a01b031681526020018860800151858151811061342b57fe5b60200260200101516001600160a01b031681526020018860a0015181526020018860c00151858151811061345b57fe5b6020026020010151604001511515815260200188600001516001600160a01b031681526020018860c00151858151811061349157fe5b60200260200101516060015181526020018860e001516020015181526020018860c0015185815181106134c057fe5b602002602001015160a001518152506123ee565b905080602001518483815181106134e757fe5b6020908102919091010152604081015161350890849063ffffffff611ef616565b9250506001016133b5565b5060e08401516040015161352d908263ffffffff611ef616565b604855604354606085015160808601516040516388a90f5160e01b81526001600160a01b03909316926388a90f519261356c92909187906004016155d3565b600060405180830381600087803b15801561358657600080fd5b505af11580156119cc573d6000803e3d6000fd5b6000806135ad848463ffffffff61373c16565b905060006135d66135c96305f5e100600163ffffffff611df416565b839063ffffffff611ef616565b9050613359816305f5e10063ffffffff61323a16565b82516135ff906036906020860190613ac5565b508151613613906037906020850190613ac5565b506038805460ff191660ff929092169190911790555050565b6040516136389061537e565b60405190819003812060395561364d90615352565b604051908190038120603a5561366290615389565b604051908190038120603b5561367790615373565b604051908190038120603c5561368c90615368565b604051908190038120603d556136a19061535d565b604051908190038120603e556136b690615394565b604051908190038120603f556136cb90615347565b6040518091039020604081905550565b6040516137369085906323b872dd60e01b906136ff908790879087906024016153d5565b60408051601f198184030181529190526020810180516001600160e01b03166001600160e01b031990931692909217909152613883565b50505050565b60008261374b5750600061053a565b8282028284828161375857fe5b04146106fe5760405162461bcd60e51b81526004016105a790615806565b600081836137975760405162461bcd60e51b81526004016105a791906156c5565b5060008385816137a357fe5b0495945050505050565b6001600160a01b0382166137d35760405162461bcd60e51b81526004016105a790615846565b61381681604051806060016040528060228152602001615aef602291396001600160a01b038516600090815260336020526040902054919063ffffffff611d9516565b6001600160a01b038316600090815260336020526040902055603554613842908263ffffffff611df416565b6035556040516000906001600160a01b038416907fddf252ad1be2c89b69c2b068fc378daa952ba7f163c4a11628f55a4df523b3ef90611eea9085906156a9565b613895826001600160a01b0316613968565b6138b15760405162461bcd60e51b81526004016105a7906158c6565b60006060836001600160a01b0316836040516138cd919061533b565b6000604051808303816000865af19150503d806000811461390a576040519150601f19603f3d011682016040523d82523d6000602084013e61390f565b606091505b5091509150816139315760405162461bcd60e51b81526004016105a790615746565b805115613736578080602001905161394c919081019061431e565b6137365760405162461bcd60e51b81526004016105a790615876565b6000813f7fc5d2460186f7233c927e7db2dcc703c0e500b653ca82273b7bfad8045d85a470818114801590613232575050151592915050565b604080516060810182526000808252602082018190529181019190915290565b60405180606001604052806139d4613a33565b815260006020820181905260409091015290565b60405180606001604052806000815260200160008152602001600081525090565b60405180608001604052806000151581526020016060815260200160608152602001606081525090565b6040805160c081019091526000808252602082019081526020016000151581526020016000815260200160008152602001600081525090565b6040518060800160405280600081526020016060815260200160608152602001606081525090565b6040518060a00160405280600015158152602001606081526020016060815260200160608152602001606081525090565b828054600181600116156101000203166002900490600052602060002090601f016020900481019282601f10613b0657805160ff1916838001178555613b33565b82800160010185558215613b33579182015b82811115613b33578251825591602001919060010190613b18565b50613b3f929150613b43565b5090565b61051f91905b80821115613b3f5760008155600101613b49565b803561053a81615ab2565b805161053a81615ab2565b60008083601f840112613b8557600080fd5b5081356001600160401b03811115613b9c57600080fd5b602083019150836020820283011115613bb457600080fd5b9250929050565b600082601f830112613bcc57600080fd5b8151613bdf613bda826159d6565b6159b0565b91508181835260208401935060208101905083856020840282011115613c0457600080fd5b60005b83811015613c305781613c1a8882613b68565b8452506020928301929190910190600101613c07565b5050505092915050565b600082601f830112613c4b57600080fd5b8151613c59613bda826159d6565b915081818352602084019350602081019050838560c0840282011115613c7e57600080fd5b60005b83811015613c305781613c948882613e8e565b84525060209092019160c09190910190600101613c81565b600082601f830112613cbd57600080fd5b8151613ccb613bda826159d6565b91508181835260208401935060208101905083856020840282011115613cf057600080fd5b60005b83811015613c305781613d0688826140ed565b8452506020928301929190910190600101613cf3565b600082601f830112613d2d57600080fd5b8151613d3b613bda826159d6565b91508181835260208401935060208101905083856020840282011115613d6057600080fd5b60005b83811015613c305781613d7688826140f8565b8452506020928301929190910190600101613d63565b805161053a81615ac6565b805161053a81615acf565b60008083601f840112613db457600080fd5b5081356001600160401b03811115613dcb57600080fd5b602083019150836001820283011115613bb457600080fd5b600082601f830112613df457600080fd5b8151613e02613bda826159f6565b91508082526020830160208301858383011115613e1e57600080fd5b613e29838284615a72565b50505092915050565b60006101008284031215613e4557600080fd5b613e4f60606159b0565b90506000613e5d8484613e8e565b82525060c0613e6e84848301613b68565b60208301525060e0613e82848285016140f8565b60408301525092915050565b600060c08284031215613ea057600080fd5b613eaa60c06159b0565b90506000613eb88484613b68565b8252506020613ec984848301613d97565b6020830152506040613edd84828501613d8c565b6040830152506060613ef1848285016140ed565b6060830152506080613f05848285016140ed565b60808301525060a0613f19848285016140ed565b60a08301525092915050565b600060808284031215613f3757600080fd5b613f4160806159b0565b90506000613f4f8484613d8c565b82525060208201516001600160401b03811115613f6b57600080fd5b613f7784828501613c3a565b60208301525060408201516001600160401b03811115613f9657600080fd5b613fa284828501613bbb565b60408301525060608201516001600160401b03811115613fc157600080fd5b613fcd84828501613d1c565b60608301525092915050565b600060808284031215613feb57600080fd5b613ff560806159b0565b90506000613f4f84846140ed565b600060a0828403121561401557600080fd5b61401f60a06159b0565b9050600061402d8484613d8c565b82525060208201516001600160401b0381111561404957600080fd5b61405584828501613c3a565b60208301525060408201516001600160401b0381111561407457600080fd5b61408084828501613c3a565b60408301525060608201516001600160401b0381111561409f57600080fd5b6140ab84828501613bbb565b60608301525060808201516001600160401b038111156140ca57600080fd5b6140d684828501613d1c565b60808301525092915050565b803561053a81615adc565b805161053a81615adc565b805161053a81615ae5565b60006020828403121561411557600080fd5b60006132328484613b5d565b60006020828403121561413357600080fd5b60006132328484613b68565b6000806040838503121561415257600080fd5b600061415e8585613b5d565b925050602061416f85828601613b5d565b9150509250929050565b60008060006060848603121561418e57600080fd5b600061419a8686613b5d565b93505060206141ab86828701613b5d565b92505060406141bc868287016140e2565b9150509250925092565b600080600080608085870312156141dc57600080fd5b60006141e88787613b5d565b94505060206141f987828801613b5d565b935050604061420a878288016140e2565b925050606061421b87828801613b5d565b91505092959194509250565b6000806040838503121561423a57600080fd5b60006142468585613b5d565b925050602061416f858286016140e2565b60008060006060848603121561426c57600080fd5b60006142788686613b5d565b9350506020614289868287016140e2565b92505060406141bc86828701613b5d565b6000806000806000606086880312156142b257600080fd5b85356001600160401b038111156142c857600080fd5b6142d488828901613b73565b955095505060208601356001600160401b038111156142f257600080fd5b6142fe88828901613b73565b9350935050604061431188828901613b5d565b9150509295509295909350565b60006020828403121561433057600080fd5b60006132328484613d8c565b6000806040838503121561434f57600080fd5b600061435b8585613d8c565b92505060208301516001600160401b0381111561437757600080fd5b61416f85828601613de3565b60008060006060848603121561439857600080fd5b60006143a48686613d8c565b93505060208401516001600160401b038111156143c057600080fd5b6143cc86828701613de3565b92505060408401516001600160401b038111156143e857600080fd5b6141bc86828701613cac565b60008060006060848603121561440957600080fd5b60006144158686613d8c565b93505060208401516001600160401b0381111561443157600080fd5b61443d86828701613de3565b92505060406141bc86828701613d8c565b600080600080610240858703121561446557600080fd5b60006144718787613d8c565b94505060208501516001600160401b0381111561448d57600080fd5b61449987828801613de3565b93505060406144aa87828801613e32565b92505061014061421b87828801613e32565b600080600080608085870312156144d257600080fd5b60006144de8787613d8c565b94505060208501516001600160401b038111156144fa57600080fd5b61450687828801613de3565b9350506040614517878288016140ed565b925050606061421b87828801613d8c565b600080610120838503121561453c57600080fd5b60006145488585613d8c565b925050602061416f85828601613e32565b600080600080600080600060a0888a03121561457457600080fd5b87356001600160401b0381111561458a57600080fd5b6145968a828b01613da2565b975097505060208801356001600160401b038111156145b457600080fd5b6145c08a828b01613da2565b955095505060406145d38a828b01613b5d565b93505060606145e48a828b01613b5d565b92505060806145f58a828b01613b5d565b91505092959891949750929550565b60006020828403121561461657600080fd5b81516001600160401b0381111561462c57600080fd5b61323284828501613f25565b60006020828403121561464a57600080fd5b81516001600160401b0381111561466057600080fd5b61323284828501613fd9565b60006020828403121561467e57600080fd5b81516001600160401b0381111561469457600080fd5b61323284828501614003565b6000602082840312156146b257600080fd5b600061323284846140e2565b6000602082840312156146d057600080fd5b600061323284846140ed565b600080604083850312156146ef57600080fd5b600061415e85856140e2565b6000806040838503121561470e57600080fd5b600061471a85856140ed565b92505060208301516001600160401b0381111561473657600080fd5b61416f85828601613cac565b600061474e8383614782565b505060200190565b600061476283836152c2565b505060c00190565b600061474e8383614979565b600061474e8383615332565b61478b81615a30565b82525050565b600061479c82615a23565b6147a68185615a27565b93506147b183615a1d565b8060005b838110156147df5781516147c98882614742565b97506147d483615a1d565b9250506001016147b5565b509495945050505050565b60006147f582615a23565b6147ff8185615a27565b935061480a83615a1d565b8060005b838110156147df5781516148228882614742565b975061482d83615a1d565b92505060010161480e565b600061484382615a23565b61484d8185615a27565b935061485883615a1d565b8060005b838110156147df5781516148708882614756565b975061487b83615a1d565b92505060010161485c565b600061489182615a23565b61489b8185615a27565b93506148a683615a1d565b8060005b838110156147df5781516148be888261476a565b97506148c983615a1d565b9250506001016148aa565b60006148df82615a23565b6148e98185615a27565b93506148f483615a1d565b8060005b838110156147df57815161490c888261476a565b975061491783615a1d565b9250506001016148f8565b600061492d82615a23565b6149378185615a27565b935061494283615a1d565b8060005b838110156147df57815161495a8882614776565b975061496583615a1d565b925050600101614946565b61478b81615a3b565b61478b8161051f565b600061498d82615a23565b6149978185611053565b93506149a7818560208601615a72565b9290920192915050565b61478b81615a5c565b61478b81615a67565b60006149ce82615a23565b6149d88185615a27565b93506149e8818560208601615a72565b6149f181615a9e565b9093019392505050565b6000614a08602383615a27565b7f45524332303a207472616e7366657220746f20746865207a65726f206164647281526265737360e81b602082015260400192915050565b6000614a4d601583615a27565b744e657875732061646472657373206973207a65726f60581b815260200192915050565b6000614a7e600e83611053565b6d29b0bb34b733b9a6b0b730b3b2b960911b8152600e0192915050565b6000614aa8601b83615a27565b7f4f6e6c7920676f7665726e616e63652063616e20657865637574650000000000815260200192915050565b6000614ae1600783611053565b665374616b696e6760c81b815260070192915050565b6000614b04602283615a27565b7f45524332303a20617070726f766520746f20746865207a65726f206164647265815261737360f01b602082015260400192915050565b6000614b48601b83615a27565b7f536166654d6174683a206164646974696f6e206f766572666c6f770000000000815260200192915050565b6000614b81601083611053565b6f2932b1b7b63630ba32b930b634b9b2b960811b815260100192915050565b6000614bad601983615a27565b7f4d697373696e6720726563697069656e74206164647265737300000000000000815260200192915050565b6000614be6601483615a27565b73092dce0eae840c2e4e4c2f240dad2e6dac2e8c6d60631b815260200192915050565b6000614c16602083615a27565b7f5361666545524332303a206c6f772d6c6576656c2063616c6c206661696c6564815260200192915050565b6000614c4f601783615a27565b7f4d75737420626520736176696e6773206d616e61676572000000000000000000815260200192915050565b6000614c88601a83615a27565b7f43616e6e6f742073776170207468652073616d65206173736574000000000000815260200192915050565b6000614cc1601983615a27565b7f4f6e6c7920676f7665726e6f722063616e206578656375746500000000000000815260200192915050565b6000614cfa600783611053565b6626b0b730b3b2b960c91b815260070192915050565b6000614d1d601083615a27565b6f496e76616c6964207175616e7469747960801b815260200192915050565b6000614d49601883615a27565b7f4d757374206265206e6f6e206e756c6c20616464726573730000000000000000815260200192915050565b6000614d82601883615a27565b7f4d7573742072656465656d20736f6d6520624173736574730000000000000000815260200192915050565b6000614dbb601b83615a27565b7f4173736574206e6f742066756c6c79207472616e736665727265640000000000815260200192915050565b6000614df4600e83615a27565b6d4d757374206265203c3d2032302560901b815260200192915050565b6000614e1e601683615a27565b7505175616e74697479206d757374206e6f7420626520360541b815260200192915050565b6000614e50601a83615a27565b7f4d75737420626520616c6c6f77656420746f2075706772616465000000000000815260200192915050565b6000614e89600983611053565b6827b930b1b632a43ab160b91b815260090192915050565b6000614eae601c83615a27565b7f496e76616c696420737761702061737365742061646472657373657300000000815260200192915050565b6000614ee7602183615a27565b7f536166654d6174683a206d756c7469706c69636174696f6e206f766572666c6f8152607760f81b602082015260400192915050565b6000614f2a601783615a27565b7f4e6f206d6978207175616e7469747920746f206d696e74000000000000000000815260200192915050565b6000614f63600a83611053565b69476f7665726e616e636560b01b8152600a0192915050565b6000614f89600a83611053565b69283937bc3ca0b236b4b760b11b8152600a0192915050565b6000614faf601a83615a27565b7f52617465206d7573742062652077697468696e20626f756e6473000000000000815260200192915050565b6000614fe8602e83615a27565b7f436f6e747261637420696e7374616e63652068617320616c726561647920626581526d195b881a5b9a5d1a585b1a5e995960921b602082015260400192915050565b6000615038602183615a27565b7f45524332303a206275726e2066726f6d20746865207a65726f206164647265738152607360f81b602082015260400192915050565b600061507b602583615a27565b7f45524332303a207472616e736665722066726f6d20746865207a65726f206164815264647265737360d81b602082015260400192915050565b60006150c2602483615a27565b7f45524332303a20617070726f76652066726f6d20746865207a65726f206164648152637265737360e01b602082015260400192915050565b6000615108602a83615a27565b7f5361666545524332303a204552433230206f7065726174696f6e20646964206e8152691bdd081cdd58d8d9595960b21b602082015260400192915050565b6000615154601b83615a27565b7f496e76616c696420726564656d7074696f6e207175616e746974790000000000815260200192915050565b600061518d601983615a27565b7f4d75737420626520612076616c696420726563697069656e7400000000000000815260200192915050565b60006151c6601f83615a27565b7f5265656e7472616e637947756172643a207265656e7472616e742063616c6c00815260200192915050565b60006151ff601783615a27565b7f4d75737420776974686472617720736f6d657468696e67000000000000000000815260200192915050565b6000615238600983611053565b682134b6322a37b5b2b760b91b815260090192915050565b600061525d601f83615a27565b7f5361666545524332303a2063616c6c20746f206e6f6e2d636f6e747261637400815260200192915050565b6000615296601f83615a27565b7f45524332303a206d696e7420746f20746865207a65726f206164647265737300815260200192915050565b805160c08301906152d38482614782565b5060208201516152e660208501826149ba565b5060408201516152f96040850182614970565b50606082015161530c6060850182614979565b50608082015161531f6080850182614979565b5060a082015161373660a0850182614979565b61478b81615a56565b60006106fe8284614982565b600061053a82614a71565b600061053a82614ad4565b600061053a82614b74565b600061053a82614ced565b600061053a82614e7c565b600061053a82614f56565b600061053a82614f7c565b600061053a8261522b565b6020810161053a8284614782565b606081016153bb8286614782565b6153c86020830185614782565b6132326040830184614970565b606081016153e38286614782565b6153f06020830185614782565b6132326040830184614979565b6080810161540b8287614782565b6154186020830186614782565b6154256040830185614979565b6133596060830184614782565b60a081016154408288614782565b61544d6020830187614782565b61545a6040830186614979565b6154676060830185614979565b611c756080830184614970565b604081016154828285614782565b6106fe6020830184614979565b6080810161549d8287614782565b6154aa6020830186614979565b6154b76040830185614782565b6133596060830184614979565b608081016154d28287614782565b6154df6020830186614979565b81810360408301526154f18185614791565b90508181036060830152611c758184614886565b608081016155138287614782565b6155206020830186614979565b818103604083015261553281856147ea565b90508181036060830152611c7581846148d4565b608081016155548287614782565b6155616020830186614979565b81810360408301526154f181856147ea565b606081016155818286614782565b6153c86020830185614979565b602080825281016106fe8184614791565b606080825281016155b08186614791565b905081810360208301526155c48185614886565b90506132326040830184614970565b606080825281016155e48186614922565b905081810360208301526155f881856147ea565b905081810360408301526133598184614886565b6020810161053a8284614970565b606081016156288286614970565b818103602083015261563a81856149c3565b90506132326040830184614979565b60a081016156578288614970565b6156646020830187614979565b81810360408301526156768186614838565b9050818103606083015261568a8185614922565b9050818103608083015261569e8184614886565b979650505050505050565b6020810161053a8284614979565b6020810161053a82846149b1565b602080825281016106fe81846149c3565b6020808252810161053a816149fb565b6020808252810161053a81614a40565b6020808252810161053a81614a9b565b6020808252810161053a81614af7565b6020808252810161053a81614b3b565b6020808252810161053a81614ba0565b6020808252810161053a81614bd9565b6020808252810161053a81614c09565b6020808252810161053a81614c42565b6020808252810161053a81614c7b565b6020808252810161053a81614cb4565b6020808252810161053a81614d10565b6020808252810161053a81614d3c565b6020808252810161053a81614d75565b6020808252810161053a81614dae565b6020808252810161053a81614de7565b6020808252810161053a81614e11565b6020808252810161053a81614e43565b6020808252810161053a81614ea1565b6020808252810161053a81614eda565b6020808252810161053a81614f1d565b6020808252810161053a81614fa2565b6020808252810161053a81614fdb565b6020808252810161053a8161502b565b6020808252810161053a8161506e565b6020808252810161053a816150b5565b6020808252810161053a816150fb565b6020808252810161053a81615147565b6020808252810161053a81615180565b6020808252810161053a816151b9565b6020808252810161053a816151f2565b6020808252810161053a81615250565b6020808252810161053a81615289565b604081016158f48285614979565b81810360208301526132328184614838565b606081016159148286614979565b81810360208301526155f88185614838565b6101c081016159358287614979565b61594260208301866152c2565b61594f60e08301856152c2565b6133596101a0830184614979565b610100810161596c8286614979565b61597960208301856152c2565b61323260e0830184614979565b604081016154828285614979565b6020810161053a8284615332565b606081016153e38286615332565b6040518181016001600160401b03811182821017156159ce57600080fd5b604052919050565b60006001600160401b038211156159ec57600080fd5b5060209081020190565b60006001600160401b03821115615a0c57600080fd5b506020601f91909101601f19160190565b60200190565b5190565b90815260200190565b600061053a82615a4a565b151590565b8061105381615aa8565b6001600160a01b031690565b60ff1690565b600061053a82615a30565b600061053a82615a40565b60005b83811015615a8d578181015183820152602001615a75565b838111156137365750506000910152565b601f01601f191690565b6008811061309157fe5b615abb81615a30565b811461309157600080fd5b615abb81615a3b565b6008811061309157600080fd5b615abb8161051f565b615abb81615a5656fe45524332303a206275726e20616d6f756e7420657863656564732062616c616e636545524332303a207472616e7366657220616d6f756e7420657863656564732062616c616e636545524332303a207472616e7366657220616d6f756e74206578636565647320616c6c6f77616e636545524332303a2064656372656173656420616c6c6f77616e63652062656c6f77207a65726fa365627a7a723158203a29264f50ee4cbafa48d5d1abe5302d9058dde94e85173e6b18882b4807e42b6c6578706572696d656e74616cf564736f6c63430005100040",
  "source": "pragma solidity 0.5.16;\npragma experimental ABIEncoderV2;\n\n// External\nimport { IForgeValidator } from \"./forge-validator/IForgeValidator.sol\";\nimport { IPlatformIntegration } from \"../interfaces/IPlatformIntegration.sol\";\nimport { IBasketManager } from \"../interfaces/IBasketManager.sol\";\n\n// Internal\nimport { IMix } from \"../interfaces/IMix.sol\";\nimport { Initializable } from \"@openzeppelin/upgrades/contracts/Initializable.sol\";\nimport { InitializableToken } from \"../shared/InitializableToken.sol\";\nimport { InitializableModule } from \"../shared/InitializableModule.sol\";\nimport { InitializableReentrancyGuard } from \"../shared/InitializableReentrancyGuard.sol\";\nimport { MixStructs } from \"./shared/MixStructs.sol\";\n\n// Libs\nimport { StableMath } from \"../shared/StableMath.sol\";\nimport { MixHelpers } from \"./shared/MixHelpers.sol\";\nimport { SafeERC20 } from \"@openzeppelin/contracts/token/ERC20/SafeERC20.sol\";\nimport { IERC20 } from \"@openzeppelin/contracts/token/ERC20/IERC20.sol\";\n\n/**\n * @title   Mix\n * @author  Stability Labs Pty. Ltd.\n * @notice  The Mix is a token that allows minting and redemption at a 1:1 ratio\n *          for underlying basket assets (bAssets) of the same peg (i.e. USD,\n *          EUR, Gold). Composition and validation is enforced via the BasketManager.\n * @dev     VERSION: 2.0\n *          DATE:    2020-11-14\n */\ncontract Mix is\n    Initializable,\n    IMix,\n    InitializableToken,\n    InitializableModule,\n    InitializableReentrancyGuard\n{\n    using StableMath for uint256;\n\n    // Forging Events\n    event Minted(address indexed minter, address recipient, uint256 mIxQuantity, address bAsset, uint256 bAssetQuantity);\n    event MintedMulti(address indexed minter, address recipient, uint256 mIxQuantity, address[] bAssets, uint256[] bAssetQuantities);\n    event Swapped(address indexed swapper, address input, address output, uint256 outputAmount, address recipient);\n    event Redeemed(address indexed redeemer, address recipient, uint256 mIxQuantity, address[] bAssets, uint256[] bAssetQuantities);\n    event RedeemedMix(address indexed redeemer, address recipient, uint256 mIxQuantity);\n    event PaidFee(address indexed payer, address asset, uint256 feeQuantity);\n\n    // State Events\n    event CacheSizeChanged(uint256 cacheSize);\n    event SwapFeeChanged(uint256 fee);\n    event RedemptionFeeChanged(uint256 fee);\n    event ForgeValidatorChanged(address forgeValidator);\n\n    // Modules and connectors\n    IForgeValidator public forgeValidator;\n    bool private forgeValidatorLocked;\n    IBasketManager private basketManager;\n\n    // Basic redemption fee information\n    uint256 public swapFee;\n    uint256 private MAX_FEE;\n\n    // RELEASE 1.1 VARS\n    uint256 public redemptionFee;\n\n    // RELEASE 2.0 VARS\n    uint256 public cacheSize;\n    uint256 public surplus;\n\n    /**\n     * @dev Constructor\n     * @notice To avoid variable shadowing appended `Arg` after arguments name.\n     */\n    function initialize(\n        string calldata _nameArg,\n        string calldata _symbolArg,\n        address _nexus,\n        address _forgeValidator,\n        address _basketManager\n    )\n        external\n        initializer\n    {\n        InitializableToken._initialize(_nameArg, _symbolArg);\n        InitializableModule._initialize(_nexus);\n        InitializableReentrancyGuard._initialize();\n\n        forgeValidator = IForgeValidator(_forgeValidator);\n\n        basketManager = IBasketManager(_basketManager);\n\n        MAX_FEE = 2e16;\n        swapFee = 6e14;\n        redemptionFee = 3e14;\n        cacheSize = 1e17;\n    }\n\n    /**\n      * @dev Verifies that the caller is the Savings Manager contract\n      */\n    modifier onlySavingsManager() {\n        require(_savingsManager() == msg.sender, \"Must be savings manager\");\n        _;\n    }\n\n\n    /***************************************\n                MINTING (PUBLIC)\n    ****************************************/\n\n    /**\n     * @dev Mint a single bAsset, at a 1:1 ratio with the bAsset. This contract\n     *      must have approval to spend the senders bAsset\n     * @param _bAsset         Address of the bAsset to mint\n     * @param _bAssetQuantity Quantity in bAsset units\n     * @return mixMinted   Number of newly minted mIxs\n     */\n    function mint(\n        address _bAsset,\n        uint256 _bAssetQuantity\n    )\n        external\n        nonReentrant\n        returns (uint256 mixMinted)\n    {\n        return _mintTo(_bAsset, _bAssetQuantity, msg.sender);\n    }\n\n    /**\n     * @dev Mint a single bAsset, at a 1:1 ratio with the bAsset. This contract\n     *      must have approval to spend the senders bAsset\n     * @param _bAsset         Address of the bAsset to mint\n     * @param _bAssetQuantity Quantity in bAsset units\n     * @param _recipient receipient of the newly minted mIx tokens\n     * @return mixMinted   Number of newly minted mIxs\n     */\n    function mintTo(\n        address _bAsset,\n        uint256 _bAssetQuantity,\n        address _recipient\n    )\n        external\n        nonReentrant\n        returns (uint256 mixMinted)\n    {\n        return _mintTo(_bAsset, _bAssetQuantity, _recipient);\n    }\n\n    /**\n     * @dev Mint with multiple bAssets, at a 1:1 ratio to mIx. This contract\n     *      must have approval to spend the senders bAssets\n     * @param _bAssets          Non-duplicate address array of bAssets with which to mint\n     * @param _bAssetQuantity   Quantity of each bAsset to mint. Order of array\n     *                          should mirror the above\n     * @param _recipient        Address to receive the newly minted mIx tokens\n     * @return mixMinted     Number of newly minted mIxs\n     */\n    function mintMulti(\n        address[] calldata _bAssets,\n        uint256[] calldata _bAssetQuantity,\n        address _recipient\n    )\n        external\n        nonReentrant\n        returns(uint256 mixMinted)\n    {\n        return _mintTo(_bAssets, _bAssetQuantity, _recipient);\n    }\n\n    /***************************************\n              MINTING (INTERNAL)\n    ****************************************/\n\n    /** @dev Mint Single */\n    function _mintTo(\n        address _bAsset,\n        uint256 _bAssetQuantity,\n        address _recipient\n    )\n        internal\n        returns (uint256 mixMinted)\n    {\n        require(_recipient != address(0), \"Must be a valid recipient\");\n        require(_bAssetQuantity > 0, \"Quantity must not be 0\");\n\n        (bool isValid, BassetDetails memory bInfo) = basketManager.prepareForgeBasset(_bAsset, _bAssetQuantity, true);\n        if(!isValid) return 0;\n\n        Cache memory cache = _getCacheDetails();\n\n        // Transfer collateral to the platform integration address and call deposit\n        address integrator = bInfo.integrator;\n        (uint256 quantityDeposited, uint256 ratioedDeposit) =\n            _depositTokens(_bAsset, bInfo.bAsset.ratio, integrator, bInfo.bAsset.isTransferFeeCharged, _bAssetQuantity, cache.maxCache);\n\n        // Validation should be after token transfer, as bAssetQty is unknown before\n        (bool mintValid, string memory reason) = forgeValidator.validateMint(cache.vaultBalanceSum, bInfo.bAsset, quantityDeposited);\n        require(mintValid, reason);\n\n        // Log the Vault increase - can only be done when basket is healthy\n        basketManager.increaseVaultBalance(bInfo.index, integrator, quantityDeposited);\n\n        // Mint the Mix\n        _mint(_recipient, ratioedDeposit);\n        emit Minted(msg.sender, _recipient, ratioedDeposit, _bAsset, quantityDeposited);\n\n        return ratioedDeposit;\n    }\n\n    /** @dev Mint Multi */\n    function _mintTo(\n        address[] memory _bAssets,\n        uint256[] memory _bAssetQuantities,\n        address _recipient\n    )\n        internal\n        returns (uint256 mixMinted)\n    {\n        require(_recipient != address(0), \"Must be a valid recipient\");\n        uint256 len = _bAssetQuantities.length;\n        require(len > 0 && len == _bAssets.length, \"Input array mismatch\");\n\n        // Load only needed bAssets in array\n        ForgePropsMulti memory props\n            = basketManager.prepareForgeBassets(_bAssets, _bAssetQuantities, true);\n        if(!props.isValid) return 0;\n\n        Cache memory cache = _getCacheDetails();\n\n        uint256 mIxQuantity = 0;\n        uint256[] memory receivedQty = new uint256[](len);\n\n        // Transfer the Bassets to the integrator, update storage and calc MixQ\n        for(uint256 i = 0; i < len; i++){\n            uint256 bAssetQuantity = _bAssetQuantities[i];\n            if(bAssetQuantity > 0){\n                // bAsset == bAssets[i] == basket.bassets[indexes[i]]\n                Basset memory bAsset = props.bAssets[i];\n\n                (uint256 quantityDeposited, uint256 ratioedDeposit) =\n                    _depositTokens(bAsset.addr, bAsset.ratio, props.integrators[i], bAsset.isTransferFeeCharged, bAssetQuantity, cache.maxCache);\n\n                receivedQty[i] = quantityDeposited;\n                mIxQuantity = mIxQuantity.add(ratioedDeposit);\n            }\n        }\n        require(mIxQuantity > 0, \"No mix quantity to mint\");\n\n        basketManager.increaseVaultBalances(props.indexes, props.integrators, receivedQty);\n\n        // Validate the proposed mint, after token transfer\n        (bool mintValid, string memory reason) = forgeValidator.validateMintMulti(cache.vaultBalanceSum, props.bAssets, receivedQty);\n        require(mintValid, reason);\n\n        // Mint the Mix\n        _mint(_recipient, mIxQuantity);\n        emit MintedMulti(msg.sender, _recipient, mIxQuantity, _bAssets, _bAssetQuantities);\n\n        return mIxQuantity;\n    }\n\n    /**\n     * @dev Deposits a given asset to the system. If there is sufficient room for the asset\n     * in the cache, then just transfer, otherwise reset the cache to the desired mid level by\n     * depositing the delta in the platform\n     */\n    function _depositTokens(\n        address _bAsset,\n        uint256 _bAssetRatio,\n        address _integrator,\n        bool _hasTxFee,\n        uint256 _quantity,\n        uint256 _maxCache\n    )\n        internal\n        returns (uint256 quantityDeposited, uint256 ratioedDeposit)\n    {\n        // 1 - Send all to PI, using the opportunity to get the cache balance and net amount transferred\n        (uint256 transferred, uint256 cacheBal) = MixHelpers.transferReturnBalance(msg.sender, _integrator, _bAsset, _quantity);\n\n        // 2 - Deposit X if necessary\n        //   - Can account here for non-lending market integrated bAssets by simply checking for\n        //     integrator == address(0) || address(this) and then keeping entirely in cache\n        // 2.1 - Deposit if xfer fees\n        if(_hasTxFee){\n            uint256 deposited = IPlatformIntegration(_integrator).deposit(_bAsset, transferred, true);\n            quantityDeposited = StableMath.min(deposited, _quantity);\n        }\n        // 2.2 - Else Deposit X if Cache > %\n        else {\n            // This check is in place to ensure that any token with a txFee is rejected\n            require(transferred == _quantity, \"Asset not fully transferred\");\n\n            quantityDeposited = transferred;\n\n            uint256 relativeMaxCache = _maxCache.divRatioPrecisely(_bAssetRatio);\n\n            if(cacheBal > relativeMaxCache){\n                uint256 delta = cacheBal.sub(relativeMaxCache.div(2));\n                IPlatformIntegration(_integrator).deposit(_bAsset, delta, false);\n            }\n        }\n\n        ratioedDeposit = quantityDeposited.mulRatioTruncate(_bAssetRatio);\n    }\n\n    /***************************************\n                SWAP (PUBLIC)\n    ****************************************/\n\n    struct SwapArgs {\n        address input;\n        address output;\n        address recipient;\n    }\n\n    /**\n     * @dev Simply swaps one bAsset for another bAsset or this mIx at a 1:1 ratio.\n     * bAsset <> bAsset swaps will incur a small fee (swapFee()). Swap\n     * is valid if it does not result in the input asset exceeding its maximum weight.\n     * @param _input        bAsset to deposit\n     * @param _output       Asset to receive - either a bAsset or mIx(this)\n     * @param _quantity     Units of input bAsset to swap\n     * @param _recipient    Address to credit output asset\n     * @return output       Units of output asset returned\n     */\n    function swap(\n        address _input,\n        address _output,\n        uint256 _quantity,\n        address _recipient\n    )\n        external\n        nonReentrant\n        returns (uint256 output)\n    {\n        // Struct created to avoid Stack Too Deep errors. Minor gas cost increase.\n        SwapArgs memory args = SwapArgs(_input, _output, _recipient);\n        require(args.input != address(0) && args.output != address(0), \"Invalid swap asset addresses\");\n        require(args.input != args.output, \"Cannot swap the same asset\");\n        require(args.recipient != address(0), \"Missing recipient address\");\n        require(_quantity > 0, \"Invalid quantity\");\n\n        // 1. If the output is this mIx, just mint\n        if(args.output == address(this)){\n            return _mintTo(args.input, _quantity, args.recipient);\n        }\n\n        // 2. Grab all relevant info from the Manager\n        (bool isValid, string memory reason, BassetDetails memory inputDetails, BassetDetails memory outputDetails) =\n            basketManager.prepareSwapBassets(args.input, args.output, false);\n        require(isValid, reason);\n\n        Cache memory cache = _getCacheDetails();\n\n        // 3. Deposit the input tokens\n        (uint256 amountIn, ) =\n            _depositTokens(args.input, inputDetails.bAsset.ratio, inputDetails.integrator, inputDetails.bAsset.isTransferFeeCharged, _quantity, cache.maxCache);\n        // 3.1. Update the input balance\n        basketManager.increaseVaultBalance(inputDetails.index, inputDetails.integrator, amountIn);\n\n        // 4. Validate the swap\n        (bool swapValid, string memory swapValidityReason, uint256 swapOutput, bool applySwapFee) =\n            forgeValidator.validateSwap(cache.vaultBalanceSum, inputDetails.bAsset, outputDetails.bAsset, amountIn);\n        require(swapValid, swapValidityReason);\n        require(swapOutput > 0, \"Must withdraw something\");\n\n        // 5. Settle the swap\n        // 5.0. Redeclare recipient to avoid stack depth error\n        address recipient = args.recipient;\n        // 5.1. Decrease output bal\n        Amount memory amt = _withdrawTokens(\n            WithdrawArgs({\n                quantity: swapOutput,\n                bAsset: args.output,\n                integrator: outputDetails.integrator,\n                feeRate: applySwapFee ? swapFee : 0,\n                hasTxFee: outputDetails.bAsset.isTransferFeeCharged,\n                recipient: recipient,\n                ratio: outputDetails.bAsset.ratio,\n                maxCache: cache.maxCache,\n                vaultBalance: outputDetails.bAsset.vaultBalance\n            })\n        );\n\n        basketManager.decreaseVaultBalance(outputDetails.index, outputDetails.integrator, amt.net);\n\n        surplus = cache.surplus.add(amt.scaledFee);\n\n        emit Swapped(msg.sender, args.input, args.output, amt.net, recipient);\n\n        return amt.net;\n    }\n\n    /**\n     * @dev Determines both if a trade is valid, and the expected fee or output.\n     * Swap is valid if it does not result in the input asset exceeding its maximum weight.\n     * @param _input        bAsset to deposit\n     * @param _output       Asset to receive - bAsset or mIx(this)\n     * @param _quantity     Units of input bAsset to swap\n     * @return valid        Bool to signify that swap is current valid\n     * @return reason       If swap is invalid, this is the reason\n     * @return output       Units of _output asset the trade would return\n     */\n    function getSwapOutput(\n        address _input,\n        address _output,\n        uint256 _quantity\n    )\n        external\n        view\n        returns (bool, string memory, uint256 output)\n    {\n        require(_input != address(0) && _output != address(0), \"Invalid swap asset addresses\");\n        require(_input != _output, \"Cannot swap the same asset\");\n\n        bool isMint = _output == address(this);\n        uint256 quantity = _quantity;\n\n        // 1. Get relevant asset data\n        (bool isValid, string memory reason, BassetDetails memory inputDetails, BassetDetails memory outputDetails) =\n            basketManager.prepareSwapBassets(_input, _output, isMint);\n        if(!isValid){\n            return (false, reason, 0);\n        }\n\n        Cache memory cache = _getCacheDetails();\n\n        // 2. check if trade is valid\n        // 2.1. If output is mIx(this), then calculate a simple mint\n        if(isMint){\n            // Validate mint\n            (isValid, reason) = forgeValidator.validateMint(cache.vaultBalanceSum, inputDetails.bAsset, quantity);\n            if(!isValid) return (false, reason, 0);\n            // Simply cast the quantity to mIx\n            output = quantity.mulRatioTruncate(inputDetails.bAsset.ratio);\n            return(true, \"\", output);\n        }\n        // 2.2. If a bAsset swap, calculate the validity, output and fee\n        else {\n            (bool swapValid, string memory swapValidityReason, uint256 swapOutput, bool applySwapFee) =\n                forgeValidator.validateSwap(cache.vaultBalanceSum, inputDetails.bAsset, outputDetails.bAsset, quantity);\n            if(!swapValid){\n                return (false, swapValidityReason, 0);\n            }\n\n            // 3. Return output and fee, if any\n            if(applySwapFee){\n                (, swapOutput) = _calcSwapFee(swapOutput, swapFee);\n            }\n            return (true, \"\", swapOutput);\n        }\n    }\n\n\n    /***************************************\n              REDEMPTION (PUBLIC)\n    ****************************************/\n\n    /**\n     * @dev Credits the sender with a certain quantity of selected bAsset, in exchange for burning the\n     *      relative mIx quantity from the sender. Sender also incurs a small mIx fee, if any.\n     * @param _bAsset           Address of the bAsset to redeem\n     * @param _bAssetQuantity   Units of the bAsset to redeem\n     * @return mixMinted     Relative number of mIx units burned to pay for the bAssets\n     */\n    function redeem(\n        address _bAsset,\n        uint256 _bAssetQuantity\n    )\n        external\n        nonReentrant\n        returns (uint256 mixRedeemed)\n    {\n        return _redeemTo(_bAsset, _bAssetQuantity, msg.sender);\n    }\n\n    /**\n     * @dev Credits a recipient with a certain quantity of selected bAsset, in exchange for burning the\n     *      relative Mix quantity from the sender. Sender also incurs a small fee, if any.\n     * @param _bAsset           Address of the bAsset to redeem\n     * @param _bAssetQuantity   Units of the bAsset to redeem\n     * @param _recipient        Address to credit with withdrawn bAssets\n     * @return mixMinted     Relative number of mIx units burned to pay for the bAssets\n     */\n    function redeemTo(\n        address _bAsset,\n        uint256 _bAssetQuantity,\n        address _recipient\n    )\n        external\n        nonReentrant\n        returns (uint256 mixRedeemed)\n    {\n        return _redeemTo(_bAsset, _bAssetQuantity, _recipient);\n    }\n\n    /**\n     * @dev Credits a recipient with a certain quantity of selected bAssets, in exchange for burning the\n     *      relative Mix quantity from the sender. Sender also incurs a small fee on the outgoing asset.\n     * @param _bAssets          Address of the bAssets to redeem\n     * @param _bAssetQuantities Units of the bAssets to redeem\n     * @param _recipient        Address to credit with withdrawn bAssets\n     * @return mixMinted     Relative number of mIx units burned to pay for the bAssets\n     */\n    function redeemMulti(\n        address[] calldata _bAssets,\n        uint256[] calldata _bAssetQuantities,\n        address _recipient\n    )\n        external\n        nonReentrant\n        returns (uint256 mixRedeemed)\n    {\n        return _redeemTo(_bAssets, _bAssetQuantities, _recipient);\n    }\n\n    /**\n     * @dev Credits a recipient with a proportionate amount of bAssets, relative to current vault\n     * balance levels and desired mIx quantity. Burns the mIx as payment.\n     * @param _mIxQuantity   Quantity of mIx to redeem\n     * @param _recipient        Address to credit the withdrawn bAssets\n     */\n    function redeemMix(\n        uint256 _mIxQuantity,\n        address _recipient\n    )\n        external\n        nonReentrant\n    {\n        _redeemMix(_mIxQuantity, _recipient);\n    }\n\n    /***************************************\n              REDEMPTION (INTERNAL)\n    ****************************************/\n\n    /** @dev Casting to arrays for use in redeemMulti func */\n    function _redeemTo(\n        address _bAsset,\n        uint256 _bAssetQuantity,\n        address _recipient\n    )\n        internal\n        returns (uint256 mixRedeemed)\n    {\n        address[] memory bAssets = new address[](1);\n        uint256[] memory quantities = new uint256[](1);\n        bAssets[0] = _bAsset;\n        quantities[0] = _bAssetQuantity;\n        return _redeemTo(bAssets, quantities, _recipient);\n    }\n\n    /** @dev Redeem mIx for one or more bAssets */\n    function _redeemTo(\n        address[] memory _bAssets,\n        uint256[] memory _bAssetQuantities,\n        address _recipient\n    )\n        internal\n        returns (uint256 mixRedeemed)\n    {\n        require(_recipient != address(0), \"Must be a valid recipient\");\n        uint256 bAssetCount = _bAssetQuantities.length;\n        require(bAssetCount > 0 && bAssetCount == _bAssets.length, \"Input array mismatch\");\n\n        // Prepare relevant data\n        RedeemProps memory props = basketManager.prepareRedeemBassets(_bAssets);\n        if(!props.isValid) return 0;\n\n        Cache memory cache = _getCacheDetails();\n\n        // Validate redemption\n        (bool redemptionValid, string memory reason, bool applyFee) =\n            forgeValidator.validateRedemption(false, cache.vaultBalanceSum, props.allBassets, props.indexes, _bAssetQuantities);\n        require(redemptionValid, reason);\n\n        uint256 mIxQuantity = 0;\n\n        // Calc total redeemed mIx quantity\n        for(uint256 i = 0; i < bAssetCount; i++){\n            uint256 bAssetQuantity = _bAssetQuantities[i];\n            if(bAssetQuantity > 0){\n                // Calc equivalent mIx amount\n                uint256 ratioedBasset = bAssetQuantity.mulRatioTruncateCeil(props.bAssets[i].ratio);\n                mIxQuantity = mIxQuantity.add(ratioedBasset);\n            }\n        }\n        require(mIxQuantity > 0, \"Must redeem some bAssets\");\n\n        // Redemption has fee? Fetch the rate\n        uint256 fee = applyFee ? swapFee : 0;\n\n        // Apply fees, burn mIx and return bAsset to recipient\n        _settleRedemption(\n            RedemptionSettlement({\n                recipient: _recipient,\n                mIxQuantity: mIxQuantity,\n                bAssetQuantities: _bAssetQuantities,\n                indices: props.indexes,\n                integrators: props.integrators,\n                feeRate: fee,\n                bAssets: props.bAssets,\n                cache: cache\n            })\n        );\n\n        emit Redeemed(msg.sender, _recipient, mIxQuantity, _bAssets, _bAssetQuantities);\n        return mIxQuantity;\n    }\n\n\n    /** @dev Redeem mIx for a multiple bAssets */\n    function _redeemMix(\n        uint256 _mIxQuantity,\n        address _recipient\n    )\n        internal\n    {\n        require(_recipient != address(0), \"Must be a valid recipient\");\n        require(_mIxQuantity > 0, \"Invalid redemption quantity\");\n\n        // Fetch high level details\n        RedeemPropsMulti memory props = basketManager.prepareRedeemMulti();\n        uint256 colRatio = StableMath.min(props.colRatio, StableMath.getFullScale());\n\n        // Ensure payout is related to the collateralised mIx quantity\n        uint256 collateralisedMixQuantity = _mIxQuantity.mulTruncate(colRatio);\n\n        // Calculate redemption quantities\n        (bool redemptionValid, string memory reason, uint256[] memory bAssetQuantities) =\n            forgeValidator.calculateRedemptionMulti(collateralisedMixQuantity, props.bAssets);\n        require(redemptionValid, reason);\n\n        // Apply fees, burn mIx and return bAsset to recipient\n        _settleRedemption(\n            RedemptionSettlement({\n                recipient: _recipient,\n                mIxQuantity: _mIxQuantity,\n                bAssetQuantities: bAssetQuantities,\n                indices: props.indexes,\n                integrators: props.integrators,\n                feeRate: redemptionFee,\n                bAssets: props.bAssets,\n                cache: _getCacheDetails()\n            })\n        );\n\n        emit RedeemedMix(msg.sender, _recipient, _mIxQuantity);\n    }\n\n    /**\n     * @param _recipient        Recipient of the bAssets\n     * @param _mIxQuantity   Total amount of mIx to burn from sender\n     * @param _bAssetQuantities Array of bAsset quantities\n     * @param _indices          Matching indices for the bAsset array\n     * @param _integrators      Matching integrators for the bAsset array\n     * @param _feeRate          Fee rate to be applied to this redemption\n     * @param _bAssets          Array of bAssets to redeem\n     */\n    struct RedemptionSettlement {\n        address recipient;\n        uint256 mIxQuantity;\n        uint256[] bAssetQuantities;\n        uint8[] indices;\n        address[] integrators;\n        uint256 feeRate;\n        Basset[] bAssets;\n        Cache cache;\n    }\n\n    /**\n     * @dev Internal func to update contract state post-redemption,\n     * burning sufficient mIx before withdrawing all tokens\n     */\n    function _settleRedemption(\n        RedemptionSettlement memory args\n    ) internal {\n        // 1.0. Burn the full amount of Mix\n        _burn(msg.sender, args.mIxQuantity);\n\n        // 2.0. Transfer the Bassets to the recipient and count fees\n        uint256 bAssetCount = args.bAssets.length;\n        uint256[] memory netAmounts = new uint256[](bAssetCount);\n        uint256 fees = 0;\n        for(uint256 i = 0; i < bAssetCount; i++){\n            Amount memory amt = _withdrawTokens(\n                WithdrawArgs({\n                    quantity: args.bAssetQuantities[i],\n                    bAsset: args.bAssets[i].addr,\n                    integrator: args.integrators[i],\n                    feeRate: args.feeRate,\n                    hasTxFee: args.bAssets[i].isTransferFeeCharged,\n                    recipient: args.recipient,\n                    ratio: args.bAssets[i].ratio,\n                    maxCache: args.cache.maxCache,\n                    vaultBalance: args.bAssets[i].vaultBalance\n                })\n            );\n            // 2.1. Log the net amounts (output - fee)\n            netAmounts[i] = amt.net;\n            // 2.2. Accumulate scaled fees\n            fees = fees.add(amt.scaledFee);\n        }\n        // 2.3. Log the collected fees to the surplus\n        surplus = args.cache.surplus.add(fees);\n\n        // 3.0. Reduce the vaultBalances by the **net** amount\n        basketManager.decreaseVaultBalances(args.indices, args.integrators, netAmounts);\n    }\n\n    struct WithdrawArgs {\n        uint256 quantity;\n        address bAsset;\n        address integrator;\n        uint256 feeRate;\n        bool hasTxFee;\n        address recipient;\n        uint256 ratio;\n        uint256 maxCache;\n        uint256 vaultBalance;\n    }\n\n    /**\n     * @dev Withdraws a given asset from its platformIntegration. If there is sufficient liquidity\n     * in the cache, then withdraw from there, otherwise withdraw from the lending market and reset the\n     * cache to the mid level.\n     * @param args     All args needed for a full withdrawal\n     * @return amount  Struct containing the desired output, output-fee, and the scaled fee\n     */\n    function _withdrawTokens(WithdrawArgs memory args) internal returns (Amount memory amount) {\n        if(args.quantity > 0){\n\n            // 1. Deduct the redemption fee, if any, and log quantities\n            amount = _deductSwapFee(args.bAsset, args.quantity, args.feeRate, args.ratio);\n\n            // 2. If txFee then short circuit - there is no cache\n            if(args.hasTxFee){\n                IPlatformIntegration(args.integrator).withdraw(args.recipient, args.bAsset, amount.net, amount.net, true);\n            }\n            // 3. Else, withdraw from either cache or main vault\n            else {\n                uint256 cacheBal = IERC20(args.bAsset).balanceOf(args.integrator);\n                // 3.1 - If balance b in cache, simply withdraw\n                if(cacheBal >= amount.net) {\n                    IPlatformIntegration(args.integrator).withdrawRaw(args.recipient, args.bAsset, amount.net);\n                }\n                // 3.2 - Else reset the cache to X, or as far as possible\n                //       - Withdraw X+b from platform\n                //       - Send b to user\n                else {\n                    uint256 relativeMidCache = args.maxCache.divRatioPrecisely(args.ratio).div(2);\n                    uint256 totalWithdrawal = StableMath.min(relativeMidCache.add(amount.net).sub(cacheBal), args.vaultBalance.sub(cacheBal));\n\n                    IPlatformIntegration(args.integrator).withdraw(\n                        args.recipient,\n                        args.bAsset,\n                        amount.net,\n                        totalWithdrawal,\n                        false\n                    );\n                }\n            }\n        }\n    }\n\n\n    /***************************************\n                    INTERNAL\n    ****************************************/\n\n    struct Amount {\n        uint256 gross;\n        uint256 net;\n        uint256 scaledFee;\n    }\n\n    /**\n     * @dev Calculates the output amount from a given bAsset quantity and fee, and returns in a helpful struct\n     * @param _asset            Asset upon which the fee is being deducted\n     * @param _bAssetQuantity   Exact amount of the bAsset\n     * @param _feeRate          Percentage fee rate\n     * @param _ratio            bAsset ratio, to calculate the scaled fee\n     * @return struct containing input, input-fee, and a scaled fee\n     */\n    function _deductSwapFee(address _asset, uint256 _bAssetQuantity, uint256 _feeRate, uint256 _ratio)\n        private\n        returns (Amount memory)\n    {\n        if(_feeRate > 0){\n            (uint256 fee, uint256 output) = _calcSwapFee(_bAssetQuantity, _feeRate);\n\n            emit PaidFee(msg.sender, _asset, fee);\n\n            return Amount(_bAssetQuantity, output, fee.mulRatioTruncate(_ratio));\n        }\n        return Amount(_bAssetQuantity, _bAssetQuantity, 0);\n    }\n\n    /**\n     * @dev Calculates the output amount from a given bAsset quantity and fee\n     * @param _bAssetQuantity   Exact amount of bAsset being swapped out\n     * @param _feeRate          Percentage rate of fee\n     * @return feeAmount        Fee in output asset units\n     * @return outputMinusFee   Input minus fee\n     */\n    function _calcSwapFee(uint256 _bAssetQuantity, uint256 _feeRate)\n        private\n        pure\n        returns (uint256 feeAmount, uint256 outputMinusFee)\n    {\n        // e.g. for 500 mixs.\n        // feeRate == 1% == 1e16. _quantity == 5e20.\n        // (5e20 * 1e16) / 1e18 = 5e18\n        feeAmount = _bAssetQuantity.mulTruncate(_feeRate);\n        outputMinusFee = _bAssetQuantity.sub(feeAmount);\n    }\n\n    /**\n     * vaultBalanceSum = totalSupply + 'surplus'\n     * maxCache = vaultBalanceSum * (cacheSize / 1e18)\n     * surplus is simply surplus, to reduce SLOADs\n     */\n    struct Cache {\n        uint256 vaultBalanceSum;\n        uint256 maxCache;\n        uint256 surplus;\n    }\n\n    /**\n     * @dev Gets the supply and cache details for the mIx, taking into account the surplus\n     * @return Cache containing (tracked) sum of vault balances, ideal cache size and surplus\n     */\n    function _getCacheDetails() internal view returns (Cache memory) {\n        uint256 _surplus = surplus;\n        uint256 sum = totalSupply().add(_surplus);\n        return Cache(sum, sum.mulTruncate(cacheSize), _surplus);\n    }\n\n    /***************************************\n                    STATE\n    ****************************************/\n\n    /**\n      * @dev Sets the MAX cache size for each bAsset. The cache will actually revolve around\n      *      _cacheSize * totalSupply / 2 under normal circumstances.\n      * @param _cacheSize Maximum percent of total mIx supply to hold for each bAsset\n      */\n    function setCacheSize(uint256 _cacheSize)\n        external\n        onlyGovernance\n    {\n        require(_cacheSize <= 2e17, \"Must be <= 20%\");\n\n        cacheSize = _cacheSize;\n\n        emit CacheSizeChanged(_cacheSize);\n    }\n\n\n    /**\n      * @dev Upgrades the version of ForgeValidator protocol. Governor can do this\n      *      only while ForgeValidator is unlocked.\n      * @param _newForgeValidator Address of the new ForgeValidator\n      */\n    function upgradeForgeValidator(address _newForgeValidator)\n        external\n        onlyGovernor\n    {\n        require(!forgeValidatorLocked, \"Must be allowed to upgrade\");\n        require(_newForgeValidator != address(0), \"Must be non null address\");\n        forgeValidator = IForgeValidator(_newForgeValidator);\n        emit ForgeValidatorChanged(_newForgeValidator);\n    }\n\n    /**\n      * @dev Locks the ForgeValidator into it's final form. Called by Governor\n      */\n    function lockForgeValidator()\n        external\n        onlyGovernor\n    {\n        forgeValidatorLocked = true;\n    }\n\n    /**\n      * @dev Set the ecosystem fee for redeeming a mIx\n      * @param _swapFee Fee calculated in (%/100 * 1e18)\n      */\n    function setSwapFee(uint256 _swapFee)\n        external\n        onlyGovernor\n    {\n        require(_swapFee <= MAX_FEE, \"Rate must be within bounds\");\n        swapFee = _swapFee;\n\n        emit SwapFeeChanged(_swapFee);\n    }\n\n    /**\n      * @dev Set the ecosystem fee for redeeming a mIx\n      * @param _redemptionFee Fee calculated in (%/100 * 1e18)\n      */\n    function setRedemptionFee(uint256 _redemptionFee)\n        external\n        onlyGovernor\n    {\n        require(_redemptionFee <= MAX_FEE, \"Rate must be within bounds\");\n        redemptionFee = _redemptionFee;\n\n        emit RedemptionFeeChanged(_redemptionFee);\n    }\n\n    /**\n      * @dev Gets the address of the BasketManager for this mIx\n      * @return basketManager Address\n      */\n    function getBasketManager()\n        external\n        view\n        returns (address)\n    {\n        return address(basketManager);\n    }\n\n    /***************************************\n                    INFLATION\n    ****************************************/\n\n    /**\n     * @dev Converts recently accrued swap fees into mIx\n     * @return swapFeesGained        Equivalent amount of mIx units that have been generated\n     * @return newSupply             New total mIx supply\n     */\n    function collectInterest()\n        external\n        onlySavingsManager\n        nonReentrant\n        returns (uint256 swapFeesGained, uint256 newSupply)\n    {\n        uint256 toMint = 0;\n        // Set the surplus variable to 1 to optimise for SSTORE costs.\n        // If setting to 0 here, it would save 5k per savings deposit, but cost 20k for the\n        // first surplus call (a SWAP or REDEEM).\n        if(surplus > 1){\n            toMint = surplus.sub(1);\n            surplus = 1;\n\n            // mint new mIx to savings manager\n            _mint(msg.sender, toMint);\n            emit MintedMulti(address(this), address(this), toMint, new address[](0), new uint256[](0));\n        }\n\n        return (toMint, totalSupply());\n    }\n\n    /**\n     * @dev Collects the interest generated from the Basket, minting a relative\n     *      amount of mIx and sending it over to the SavingsManager.\n     * @return interestGained   Lending market interest collected\n     * @return newSupply             New total mIx supply\n     */\n    function collectPlatformInterest()\n        external\n        onlySavingsManager\n        nonReentrant\n        returns (uint256 interestGained, uint256 newSupply)\n    {\n        // 1. Collect interest from Basket\n        (uint256 interestCollected, uint256[] memory gains) = basketManager.collectInterest();\n\n        // 2. Mint to SM\n        _mint(msg.sender, interestCollected);\n        emit MintedMulti(address(this), address(this), interestCollected, new address[](0), gains);\n\n        return (interestCollected, totalSupply());\n    }\n}\n",
  "sourcePath": "/Volumes/sdxc/ETHEREUM/CODE/mStable-v1-edit/contracts/mix/Mix.sol",
  "compiler": {
    "name": "solc",
    "version": "0.5.16+commit.9c3226ce.Emscripten.clang"
  },
  "schemaVersion": "3.1.0",
  "updatedAt": "2021-03-11T05:43:15.275Z",
  "devdoc": {
    "author": "Stability Labs Pty. Ltd.",
    "details": "VERSION: 2.0         DATE:    2020-11-14",
    "methods": {
      "allowance(address,address)": {
        "details": "See {IERC20-allowance}."
      },
      "approve(address,uint256)": {
        "details": "See {IERC20-approve}.     * Requirements:     * - `spender` cannot be the zero address."
      },
      "balanceOf(address)": {
        "details": "See {IERC20-balanceOf}."
      },
      "collectInterest()": {
        "details": "Converts recently accrued swap fees into mIx",
        "return": "swapFeesGained        Equivalent amount of mIx units that have been generatednewSupply             New total mIx supply"
      },
      "collectPlatformInterest()": {
        "details": "Collects the interest generated from the Basket, minting a relative     amount of mIx and sending it over to the SavingsManager.",
        "return": "interestGained   Lending market interest collectednewSupply             New total mIx supply"
      },
      "decimals()": {
        "details": "Returns the number of decimals used to get its user representation. For example, if `decimals` equals `2`, a balance of `505` tokens should be displayed to a user as `5,05` (`505 / 10 ** 2`).     * Tokens usually opt for a value of 18, imitating the relationship between Ether and Wei.     * NOTE: This information is only used for _display_ purposes: it in no way affects any of the arithmetic of the contract, including {IERC20-balanceOf} and {IERC20-transfer}."
      },
      "decreaseAllowance(address,uint256)": {
        "details": "Atomically decreases the allowance granted to `spender` by the caller.     * This is an alternative to {approve} that can be used as a mitigation for problems described in {IERC20-approve}.     * Emits an {Approval} event indicating the updated allowance.     * Requirements:     * - `spender` cannot be the zero address. - `spender` must have allowance for the caller of at least `subtractedValue`."
      },
      "getBasketManager()": {
        "details": "Gets the address of the BasketManager for this mIx",
        "return": "basketManager Address"
      },
      "getSwapOutput(address,address,uint256)": {
        "details": "Determines both if a trade is valid, and the expected fee or output. Swap is valid if it does not result in the input asset exceeding its maximum weight.",
        "params": {
          "_input": "bAsset to deposit",
          "_output": "Asset to receive - bAsset or mIx(this)",
          "_quantity": "Units of input bAsset to swap"
        },
        "return": "valid        Bool to signify that swap is current validreason       If swap is invalid, this is the reasonoutput       Units of _output asset the trade would return"
      },
      "increaseAllowance(address,uint256)": {
        "details": "Atomically increases the allowance granted to `spender` by the caller.     * This is an alternative to {approve} that can be used as a mitigation for problems described in {IERC20-approve}.     * Emits an {Approval} event indicating the updated allowance.     * Requirements:     * - `spender` cannot be the zero address."
      },
      "initialize(string,string,address,address,address)": {
        "details": "Constructor"
      },
      "lockForgeValidator()": {
        "details": "Locks the ForgeValidator into it's final form. Called by Governor"
      },
      "mint(address,uint256)": {
        "details": "Mint a single bAsset, at a 1:1 ratio with the bAsset. This contract     must have approval to spend the senders bAsset",
        "params": {
          "_bAsset": "Address of the bAsset to mint",
          "_bAssetQuantity": "Quantity in bAsset units"
        },
        "return": "mixMinted   Number of newly minted mIxs"
      },
      "mintMulti(address[],uint256[],address)": {
        "details": "Mint with multiple bAssets, at a 1:1 ratio to mIx. This contract     must have approval to spend the senders bAssets",
        "params": {
          "_bAssetQuantity": "Quantity of each bAsset to mint. Order of array                         should mirror the above",
          "_bAssets": "Non-duplicate address array of bAssets with which to mint",
          "_recipient": "Address to receive the newly minted mIx tokens"
        },
        "return": "mixMinted     Number of newly minted mIxs"
      },
      "mintTo(address,uint256,address)": {
        "details": "Mint a single bAsset, at a 1:1 ratio with the bAsset. This contract     must have approval to spend the senders bAsset",
        "params": {
          "_bAsset": "Address of the bAsset to mint",
          "_bAssetQuantity": "Quantity in bAsset units",
          "_recipient": "receipient of the newly minted mIx tokens"
        },
        "return": "mixMinted   Number of newly minted mIxs"
      },
      "name()": {
        "details": "Returns the name of the token."
      },
      "redeem(address,uint256)": {
        "details": "Credits the sender with a certain quantity of selected bAsset, in exchange for burning the     relative mIx quantity from the sender. Sender also incurs a small mIx fee, if any.",
        "params": {
          "_bAsset": "Address of the bAsset to redeem",
          "_bAssetQuantity": "Units of the bAsset to redeem"
        },
        "return": "mixMinted     Relative number of mIx units burned to pay for the bAssets"
      },
      "redeemMix(uint256,address)": {
        "details": "Credits a recipient with a proportionate amount of bAssets, relative to current vault balance levels and desired mIx quantity. Burns the mIx as payment.",
        "params": {
          "_mIxQuantity": "Quantity of mIx to redeem",
          "_recipient": "Address to credit the withdrawn bAssets"
        }
      },
      "redeemMulti(address[],uint256[],address)": {
        "details": "Credits a recipient with a certain quantity of selected bAssets, in exchange for burning the     relative Mix quantity from the sender. Sender also incurs a small fee on the outgoing asset.",
        "params": {
          "_bAssetQuantities": "Units of the bAssets to redeem",
          "_bAssets": "Address of the bAssets to redeem",
          "_recipient": "Address to credit with withdrawn bAssets"
        },
        "return": "mixMinted     Relative number of mIx units burned to pay for the bAssets"
      },
      "redeemTo(address,uint256,address)": {
        "details": "Credits a recipient with a certain quantity of selected bAsset, in exchange for burning the     relative Mix quantity from the sender. Sender also incurs a small fee, if any.",
        "params": {
          "_bAsset": "Address of the bAsset to redeem",
          "_bAssetQuantity": "Units of the bAsset to redeem",
          "_recipient": "Address to credit with withdrawn bAssets"
        },
        "return": "mixMinted     Relative number of mIx units burned to pay for the bAssets"
      },
      "setCacheSize(uint256)": {
        "details": "Sets the MAX cache size for each bAsset. The cache will actually revolve around     _cacheSize * totalSupply / 2 under normal circumstances.",
        "params": {
          "_cacheSize": "Maximum percent of total mIx supply to hold for each bAsset"
        }
      },
      "setRedemptionFee(uint256)": {
        "details": "Set the ecosystem fee for redeeming a mIx",
        "params": {
          "_redemptionFee": "Fee calculated in (%/100 * 1e18)"
        }
      },
      "setSwapFee(uint256)": {
        "details": "Set the ecosystem fee for redeeming a mIx",
        "params": {
          "_swapFee": "Fee calculated in (%/100 * 1e18)"
        }
      },
      "swap(address,address,uint256,address)": {
        "details": "Simply swaps one bAsset for another bAsset or this mIx at a 1:1 ratio. bAsset <> bAsset swaps will incur a small fee (swapFee()). Swap is valid if it does not result in the input asset exceeding its maximum weight.",
        "params": {
          "_input": "bAsset to deposit",
          "_output": "Asset to receive - either a bAsset or mIx(this)",
          "_quantity": "Units of input bAsset to swap",
          "_recipient": "Address to credit output asset"
        },
        "return": "output       Units of output asset returned"
      },
      "symbol()": {
        "details": "Returns the symbol of the token, usually a shorter version of the name."
      },
      "totalSupply()": {
        "details": "See {IERC20-totalSupply}."
      },
      "transfer(address,uint256)": {
        "details": "See {IERC20-transfer}.     * Requirements:     * - `recipient` cannot be the zero address. - the caller must have a balance of at least `amount`."
      },
      "transferFrom(address,address,uint256)": {
        "details": "See {IERC20-transferFrom}.     * Emits an {Approval} event indicating the updated allowance. This is not required by the EIP. See the note at the beginning of {ERC20};     * Requirements: - `sender` and `recipient` cannot be the zero address. - `sender` must have a balance of at least `amount`. - the caller must have allowance for `sender`'s tokens of at least `amount`."
      },
      "upgradeForgeValidator(address)": {
        "details": "Upgrades the version of ForgeValidator protocol. Governor can do this     only while ForgeValidator is unlocked.",
        "params": {
          "_newForgeValidator": "Address of the new ForgeValidator"
        }
      }
    },
    "title": "Mix"
  },
  "userdoc": {
    "methods": {
      "initialize(string,string,address,address,address)": {
        "notice": "To avoid variable shadowing appended `Arg` after arguments name."
      }
    },
    "notice": "The Mix is a token that allows minting and redemption at a 1:1 ratio         for underlying basket assets (bAssets) of the same peg (i.e. USD,         EUR, Gold). Composition and validation is enforced via the BasketManager."
  }
}