{
  "contractName": "MockUniswap",
  "abi": [
    {
      "constant": false,
      "inputs": [
        {
          "internalType": "uint256",
          "name": "_outRatio",
          "type": "uint256"
        }
      ],
      "name": "setRatio",
      "outputs": [],
      "payable": false,
      "stateMutability": "nonpayable",
      "type": "function"
    },
    {
      "constant": false,
      "inputs": [
        {
          "internalType": "uint256",
          "name": "amountIn",
          "type": "uint256"
        },
        {
          "internalType": "uint256",
          "name": "amountOutMin",
          "type": "uint256"
        },
        {
          "internalType": "address[]",
          "name": "path",
          "type": "address[]"
        },
        {
          "internalType": "address",
          "name": "",
          "type": "address"
        },
        {
          "internalType": "uint256",
          "name": "",
          "type": "uint256"
        }
      ],
      "name": "swapExactTokensForTokens",
      "outputs": [
        {
          "internalType": "uint256[]",
          "name": "amounts",
          "type": "uint256[]"
        }
      ],
      "payable": false,
      "stateMutability": "nonpayable",
      "type": "function"
    },
    {
      "constant": true,
      "inputs": [
        {
          "internalType": "uint256",
          "name": "amountOut",
          "type": "uint256"
        },
        {
          "internalType": "address[]",
          "name": "path",
          "type": "address[]"
        }
      ],
      "name": "getAmountsIn",
      "outputs": [
        {
          "internalType": "uint256[]",
          "name": "amounts",
          "type": "uint256[]"
        }
      ],
      "payable": false,
      "stateMutability": "view",
      "type": "function"
    },
    {
      "constant": false,
      "inputs": [
        {
          "internalType": "uint256",
          "name": "amountOutMin",
          "type": "uint256"
        },
        {
          "internalType": "address[]",
          "name": "path",
          "type": "address[]"
        },
        {
          "internalType": "address",
          "name": "to",
          "type": "address"
        },
        {
          "internalType": "uint256",
          "name": "deadline",
          "type": "uint256"
        }
      ],
      "name": "swapExactETHForTokens",
      "outputs": [
        {
          "internalType": "uint256[]",
          "name": "amounts",
          "type": "uint256[]"
        }
      ],
      "payable": true,
      "stateMutability": "payable",
      "type": "function"
    },
    {
      "constant": true,
      "inputs": [
        {
          "internalType": "uint256",
          "name": "amountIn",
          "type": "uint256"
        },
        {
          "internalType": "address[]",
          "name": "path",
          "type": "address[]"
        }
      ],
      "name": "getAmountsOut",
      "outputs": [
        {
          "internalType": "uint256[]",
          "name": "amounts",
          "type": "uint256[]"
        }
      ],
      "payable": false,
      "stateMutability": "view",
      "type": "function"
    }
  ],
  "bytecode": "0x6080604052606a60005534801561001557600080fd5b506105c3806100256000396000f3fe60806040526004361061004a5760003560e01c80631f00ca741461004f57806338ed1739146101215780637ff36ab5146101b7578063b2237ba31461023b578063d06ca61f14610267575b600080fd5b34801561005b57600080fd5b506100d16004803603604081101561007257600080fd5b81359190810190604081016020820135600160201b81111561009357600080fd5b8201836020820111156100a557600080fd5b803590602001918460208302840111600160201b831117156100c657600080fd5b5090925090506102e9565b60408051602080825283518183015283519192839290830191858101910280838360005b8381101561010d5781810151838201526020016100f5565b505050509050019250505060405180910390f35b34801561012d57600080fd5b506100d1600480360360a081101561014457600080fd5b813591602081013591810190606081016040820135600160201b81111561016a57600080fd5b82018360208201111561017c57600080fd5b803590602001918460208302840111600160201b8311171561019d57600080fd5b91935091506001600160a01b038135169060200135610369565b6100d1600480360360808110156101cd57600080fd5b81359190810190604081016020820135600160201b8111156101ee57600080fd5b82018360208201111561020057600080fd5b803590602001918460208302840111600160201b8311171561022157600080fd5b91935091506001600160a01b03813516906020013561055b565b34801561024757600080fd5b506102656004803603602081101561025e57600080fd5b5035610573565b005b34801561027357600080fd5b506100d16004803603604081101561028a57600080fd5b81359190810190604081016020820135600160201b8111156102ab57600080fd5b8201836020820111156102bd57600080fd5b803590602001918460208302840111600160201b831117156102de57600080fd5b509092509050610578565b60606000805485816102f757fe5b60408051868152602080880282010190915291900491508390818015610327578160200160208202803883390190505b509250818360008151811061033857fe5b6020026020010181815250508583600183038151811061035457fe5b60200260200101818152505050509392505050565b6040805184815260208086028201019091526060908490818015610397578160200160208202803883390190505b50915087826000815181106103a857fe5b602002602001018181525050858560008181106103c157fe5b604080516323b872dd60e01b8152336004820152306024820152604481018d90529051602092830294909401356001600160a01b0316936323b872dd9350606480830193928290030181600087803b15801561041c57600080fd5b505af1158015610430573d6000803e3d6000fd5b505050506040513d602081101561044657600080fd5b50506000548802878110156104a2576040805162461bcd60e51b815260206004820152601d60248201527f554e493a204f757470757420616d6f756e74206e6f7420656e6f756768000000604482015290519081900360640190fd5b808360018403815181106104b257fe5b6020026020010181815250508686600184038181106104cd57fe5b6040805163a9059cbb60e01b8152336004820152602481018690529051602092830294909401356001600160a01b03169363a9059cbb9350604480830193928290030181600087803b15801561052257600080fd5b505af1158015610536573d6000803e3d6000fd5b505050506040513d602081101561054c57600080fd5b50929998505050505050505050565b50506040805160008152602081019091529392505050565b600055565b505060408051600081526020810190915291905056fea265627a7a723158204e5c206cdf3e5f4a64bea2c4941cd5a159ffad639a7038e5cf48a0bf44d46e7d64736f6c63430005100032",
  "source": "pragma solidity 0.5.16;\n\nimport { IUniswapV2Router02 } from \"../../mix/liquidator/IUniswapV2Router02.sol\";\nimport { IERC20 } from \"@openzeppelin/contracts/token/ERC20/IERC20.sol\";\n\n\n// Simulates the selling of COMP\n// Assumptions:\n//   COMP = $106\n//   out token has 18 decimals\ncontract MockUniswap is IUniswapV2Router02 {\n\n    // how many tokens to give out for 1 in\n    uint256 ratio = 106;\n\n    function setRatio(uint256 _outRatio) external {\n        ratio = _outRatio;\n    }\n\n    // takes input from sender, produces output\n    function swapExactTokensForTokens(\n        uint amountIn,\n        uint amountOutMin,\n        address[] calldata path,\n        address /*to*/,\n        uint /*deadline*/\n    )\n        external\n        returns (uint[] memory amounts)\n    {\n        uint256 len = path.length;\n\n        amounts = new uint[](len);\n        amounts[0] = amountIn;\n        IERC20(path[0]).transferFrom(msg.sender, address(this), amountIn);\n\n        uint256 output = amountIn * ratio;\n        require(output >= amountOutMin, \"UNI: Output amount not enough\");\n\n        amounts[len-1] = output;\n        IERC20(path[len-1]).transfer(msg.sender, output);\n    }\n\n    function getAmountsIn(\n        uint amountOut,\n        address[] calldata path\n    )\n        external\n        view\n        returns (uint[] memory amounts)\n    {\n        uint256 amountIn = amountOut / ratio;\n        uint256 len = path.length;\n        amounts = new uint[](len);\n        amounts[0] = amountIn;\n        amounts[len-1] = amountOut;\n    }\n\n    function swapExactETHForTokens(\n        uint amountOutMin,\n        address[] calldata path,\n        address to, uint deadline\n    ) external payable returns (uint[] memory amounts) {\n        return new uint[](0);\n    }\n    function getAmountsOut(uint amountIn, address[] calldata path) external view returns (uint[] memory amounts) {\n        return new uint[](0);\n    }\n}",
  "sourcePath": "/Volumes/sdxc/ETHEREUM/CODE/mStable-v1-edit/contracts/z_mocks/shared/MockUniswap.sol",
  "compiler": {
    "name": "solc",
    "version": "0.5.16+commit.9c3226ce.Emscripten.clang"
  },
  "schemaVersion": "3.1.0",
  "updatedAt": "2021-03-11T05:43:18.448Z",
  "devdoc": {
    "methods": {}
  },
  "userdoc": {
    "methods": {}
  }
}