{
  "contractName": "MockBasketManager2",
  "abi": [
    {
      "inputs": [
        {
          "internalType": "address",
          "name": "_bAsset",
          "type": "address"
        }
      ],
      "payable": false,
      "stateMutability": "nonpayable",
      "type": "constructor"
    },
    {
      "constant": false,
      "inputs": [
        {
          "internalType": "address",
          "name": "",
          "type": "address"
        },
        {
          "internalType": "uint256",
          "name": "",
          "type": "uint256"
        },
        {
          "internalType": "bool",
          "name": "",
          "type": "bool"
        }
      ],
      "name": "prepareForgeBasset",
      "outputs": [
        {
          "internalType": "bool",
          "name": "isValid",
          "type": "bool"
        },
        {
          "components": [
            {
              "components": [
                {
                  "internalType": "address",
                  "name": "addr",
                  "type": "address"
                },
                {
                  "internalType": "enum MixStructs.BassetStatus",
                  "name": "status",
                  "type": "uint8"
                },
                {
                  "internalType": "bool",
                  "name": "isTransferFeeCharged",
                  "type": "bool"
                },
                {
                  "internalType": "uint256",
                  "name": "ratio",
                  "type": "uint256"
                },
                {
                  "internalType": "uint256",
                  "name": "maxWeight",
                  "type": "uint256"
                },
                {
                  "internalType": "uint256",
                  "name": "vaultBalance",
                  "type": "uint256"
                }
              ],
              "internalType": "struct MixStructs.Basset",
              "name": "bAsset",
              "type": "tuple"
            },
            {
              "internalType": "address",
              "name": "integrator",
              "type": "address"
            },
            {
              "internalType": "uint8",
              "name": "index",
              "type": "uint8"
            }
          ],
          "internalType": "struct MixStructs.BassetDetails",
          "name": "bInfo",
          "type": "tuple"
        }
      ],
      "payable": false,
      "stateMutability": "nonpayable",
      "type": "function"
    },
    {
      "constant": false,
      "inputs": [
        {
          "internalType": "address[]",
          "name": "",
          "type": "address[]"
        },
        {
          "internalType": "uint256[]",
          "name": "",
          "type": "uint256[]"
        },
        {
          "internalType": "bool",
          "name": "",
          "type": "bool"
        }
      ],
      "name": "prepareForgeBassets",
      "outputs": [
        {
          "components": [
            {
              "internalType": "bool",
              "name": "isValid",
              "type": "bool"
            },
            {
              "components": [
                {
                  "internalType": "address",
                  "name": "addr",
                  "type": "address"
                },
                {
                  "internalType": "enum MixStructs.BassetStatus",
                  "name": "status",
                  "type": "uint8"
                },
                {
                  "internalType": "bool",
                  "name": "isTransferFeeCharged",
                  "type": "bool"
                },
                {
                  "internalType": "uint256",
                  "name": "ratio",
                  "type": "uint256"
                },
                {
                  "internalType": "uint256",
                  "name": "maxWeight",
                  "type": "uint256"
                },
                {
                  "internalType": "uint256",
                  "name": "vaultBalance",
                  "type": "uint256"
                }
              ],
              "internalType": "struct MixStructs.Basset[]",
              "name": "bAssets",
              "type": "tuple[]"
            },
            {
              "internalType": "address[]",
              "name": "integrators",
              "type": "address[]"
            },
            {
              "internalType": "uint8[]",
              "name": "indexes",
              "type": "uint8[]"
            }
          ],
          "internalType": "struct MixStructs.ForgePropsMulti",
          "name": "props",
          "type": "tuple"
        }
      ],
      "payable": false,
      "stateMutability": "nonpayable",
      "type": "function"
    }
  ],
  "bytecode": "0x608060405234801561001057600080fd5b5060405161097f38038061097f83398101604081905261002f9161011d565b6040805160c081019091526001600160a01b0382168152602081016001815260200160001515815260200161006c61010460201b6107ba1760201c565b8152600060208083018290526040909201819052825181546001600160a01b0319166001600160a01b0390911617808255918301519091829060ff60a01b1916600160a01b8360078111156100bd57fe5b021790555060408201518154901515600160a81b0260ff60a81b19909116178155606082015160018201556080820151600282015560a0909101516003909101555061016b565b6305f5e10090565b805161011781610154565b92915050565b60006020828403121561012f57600080fd5b600061013b848461010c565b949350505050565b60006001600160a01b038216610117565b61015d81610143565b811461016857600080fd5b50565b6108058061017a6000396000f3fe608060405234801561001057600080fd5b50600436106100365760003560e01c80639d01cd351461003b578063bf9ca02d14610064575b600080fd5b61004e610049366004610408565b610085565b60405161005b9190610724565b60405180910390f35b6100776100723660046103bb565b610213565b60405161005b929190610701565b61008d6102c1565b604080516001808252818301909252606091816020015b6100ac6102eb565b8152602001906001900390816100a457505060408051600180825281830190925291925060609190602080830190803883395050604080516001808252818301909252929350606092915060208083019080388339019050506040805160c08101909152600080546001600160a01b03811683529293509091602083019060ff600160a01b90910416600781111561014057fe5b600781111561014b57fe5b81528154600160a81b900460ff161515602082015260018201546040820152600282015460608201526003909101546080909101528351849060009061018d57fe5b60200260200101819052506000826000815181106101a757fe5b60200260200101906001600160a01b031690816001600160a01b0316815250506000816000815181106101d657fe5b60ff909216602092830291909101820152604080516080810182526001815291820194909452928301919091526060820152905095945050505050565b600061021d610324565b604080516101208101909152600080546001600160a01b03811660608401908152839290916080840190600160a01b900460ff16600781111561025c57fe5b600781111561026757fe5b81528154600160a81b900460ff161515602080830191909152600180840154604080850191909152600285015460608501526003909401546080909301929092529284526000928401839052920152969095509350505050565b60405180608001604052806000151581526020016060815260200160608152602001606081525090565b6040805160c081019091526000808252602082019081526020016000151581526020016000815260200160008152602001600081525090565b60405180606001604052806103376102eb565b815260006020820181905260409091015290565b803561035681610794565b92915050565b60008083601f84011261036e57600080fd5b50813567ffffffffffffffff81111561038657600080fd5b60208301915083602082028301111561039e57600080fd5b9250929050565b8035610356816107a8565b8035610356816107b1565b6000806000606084860312156103d057600080fd5b60006103dc868661034b565b93505060206103ed868287016103b0565b92505060406103fe868287016103a5565b9150509250925092565b60008060008060006060868803121561042057600080fd5b853567ffffffffffffffff81111561043757600080fd5b6104438882890161035c565b9550955050602086013567ffffffffffffffff81111561046257600080fd5b61046e8882890161035c565b93509350506040610481888289016103a5565b9150509295509295909350565b600061049a83836104c2565b505060200190565b60006104ae8383610616565b505060c00190565b600061049a83836106f8565b6104cb81610748565b82525050565b60006104dc8261073b565b6104e6818561073f565b93506104f183610735565b8060005b8381101561051f578151610509888261048e565b975061051483610735565b9250506001016104f5565b509495945050505050565b60006105358261073b565b61053f818561073f565b935061054a83610735565b8060005b8381101561051f57815161056288826104a2565b975061056d83610735565b92505060010161054e565b60006105838261073b565b61058d818561073f565b935061059883610735565b8060005b8381101561051f5781516105b088826104b6565b97506105bb83610735565b92505060010161059c565b6104cb81610753565b6104cb8161077c565b80516101008301906105ea8482610616565b5060208201516105fd60c08501826104c2565b50604082015161061060e08501826106f8565b50505050565b805160c083019061062784826104c2565b50602082015161063a60208501826105cf565b50604082015161064d60408501826105c6565b50606082015161066060608501826106ef565b50608082015161067360808501826106ef565b5060a082015161061060a08501826106ef565b8051600090608084019061069a85826105c6565b50602083015184820360208601526106b2828261052a565b915050604083015184820360408601526106cc82826104d1565b915050606083015184820360608601526106e68282610578565b95945050505050565b6104cb81610773565b6104cb81610776565b610120810161071082856105c6565b61071d60208301846105d8565b9392505050565b6020808252810161071d8184610686565b60200190565b5190565b90815260200190565b600061035682610767565b151590565b8061076281610787565b919050565b6001600160a01b031690565b90565b60ff1690565b600061035682610758565b6008811061079157fe5b50565b61079d81610748565b811461079157600080fd5b61079d81610753565b61079d81610773565b6305f5e1009056fea365627a7a723158202f7779ecafabf3e196c69dff4d90328249728c4654657aa98d163417c5ae59706c6578706572696d656e74616cf564736f6c63430005100040",
  "source": "pragma solidity 0.5.16;\npragma experimental ABIEncoderV2;\n\nimport { BasketManager } from \"../../mix/BasketManager.sol\";\nimport { MixStructs } from \"../../mix/shared/MixStructs.sol\";\nimport { BasketManager } from \"../../mix/BasketManager.sol\";\nimport { StableMath } from \"../../shared/StableMath.sol\";\n\n// This mock allows the direct setting of basket properties\ncontract MockBasketManager is BasketManager {\n\n    function setBasket(bool failed, uint256 colRatio)\n        external\n    {\n        basket.failed = failed;\n        basket.collateralisationRatio = colRatio;\n    }\n    function setBassetStatus(address bAsset, BassetStatus newStatus)\n        external\n    {\n        (, uint8 index) = _isAssetInBasket(bAsset);\n        basket.bassets[index].status = newStatus;\n    }\n    function setBassetRatio(address bAsset, uint256 _newRatio)\n        external\n    {\n        (, uint8 index) = _isAssetInBasket(bAsset);\n        basket.bassets[index].ratio = _newRatio;\n    }\n    function setRecol(bool undergoingRecol)\n        external\n    {\n        basket.undergoingRecol = undergoingRecol;\n    }\n}\n\n\n\n// This mock returns an invalid forge from the prepareForgeBasset call\ncontract MockBasketManager1 is BasketManager {\n\n    Basset private testBasset;\n    Basket private testBasket;\n\n    constructor(address _bAsset) public {\n        testBasset = Basset({\n            addr: _bAsset,\n            ratio: StableMath.getRatioScale(),\n            maxWeight: 0,\n            vaultBalance: 0,\n            status: BassetStatus.Normal,\n            isTransferFeeCharged: false\n        });\n        basket.collateralisationRatio = 1e18;\n    }\n\n    function getBasket()\n        external\n        view\n        returns (\n            Basket memory b\n        )\n    {\n        return basket;\n    }\n\n    function prepareForgeBasset(address /*_amts*/, uint256 /*_amt*/, bool /*_mint*/)\n        external\n        returns (\n            bool isValid,\n            BassetDetails memory bInfo\n        )\n    {\n        bInfo = BassetDetails({\n            bAsset: testBasset,\n            integrator: address(0),\n            index: 0\n        });\n        isValid = false;\n    }\n\n    function prepareForgeBassets(\n        address[] calldata /*_amts*/,\n        uint256[] calldata /*_amts*/,\n        bool /* _isMint */\n    )\n        external\n        returns (ForgePropsMulti memory props)\n    {\n        Basset[] memory bAssets = new Basset[](1);\n        address[] memory integrators = new address[](1);\n        uint8[] memory indexes = new uint8[](1);\n        bAssets[0] = testBasset;\n        integrators[0] = address(0);\n        indexes[0] = 0;\n        return ForgePropsMulti({\n            isValid: false,\n            bAssets: bAssets,\n            integrators: integrators,\n            indexes: indexes\n        });\n    }\n\n}\n\n\n// This mock returns an invalid integrator from the prepareForgeBasset call\ncontract MockBasketManager2 is MixStructs {\n\n    Basset private testBasset;\n\n    constructor(address _bAsset) public {\n        testBasset = Basset({\n            addr: _bAsset,\n            ratio: StableMath.getRatioScale(),\n            maxWeight: 0,\n            vaultBalance: 0,\n            status: BassetStatus.Normal,\n            isTransferFeeCharged: false\n        });\n    }\n\n    function prepareForgeBasset(address /*_token*/, uint256 /*_amt*/, bool /*_mint*/)\n        external\n        returns (\n            bool isValid,\n            BassetDetails memory bInfo\n        )\n    {\n        bInfo = BassetDetails({\n            bAsset: testBasset,\n            integrator: address(0),\n            index: 0\n        });\n        isValid = true;\n    }\n\n    function prepareForgeBassets(\n        address[] calldata /*bassets*/,\n        uint256[] calldata /*_amts*/,\n        bool /* _isMint */\n    )\n        external\n        returns (ForgePropsMulti memory props)\n    {\n        Basset[] memory bAssets = new Basset[](1);\n        address[] memory integrators = new address[](1);\n        uint8[] memory indexes = new uint8[](1);\n        bAssets[0] = testBasset;\n        integrators[0] = address(0);\n        indexes[0] = 0;\n        return ForgePropsMulti({\n            isValid: true,\n            bAssets: bAssets,\n            integrators: integrators,\n            indexes: indexes\n        });\n    }\n}\n\ncontract MockBasketManager3 is BasketManager {\n    function failBasket() public {\n        basket.failed = true;\n    }\n\n    function setBassetStatus(address _bAsset, BassetStatus _status) public {\n        (bool exists, uint8 index) = _isAssetInBasket(_bAsset);\n        require(exists, \"bAsset does not exist\");\n        basket.bassets[index].status = _status;\n    }\n\n}\n\n",
  "sourcePath": "/Volumes/sdxc/ETHEREUM/CODE/mStable-v1-edit/contracts/z_mocks/mix/MockBasketManager.sol",
  "compiler": {
    "name": "solc",
    "version": "0.5.16+commit.9c3226ce.Emscripten.clang"
  },
  "schemaVersion": "3.1.0",
  "updatedAt": "2021-03-11T05:43:16.565Z",
  "devdoc": {
    "methods": {}
  },
  "userdoc": {
    "methods": {}
  }
}