{
  "contractName": "MockRevenueRecipient",
  "abi": [
    {
      "constant": false,
      "inputs": [
        {
          "internalType": "address",
          "name": "_mIx",
          "type": "address"
        },
        {
          "internalType": "uint256",
          "name": "_amount",
          "type": "uint256"
        }
      ],
      "name": "notifyRedistributionAmount",
      "outputs": [],
      "payable": false,
      "stateMutability": "nonpayable",
      "type": "function"
    }
  ],
  "bytecode": "0x608060405234801561001057600080fd5b5061010f806100206000396000f3fe6080604052348015600f57600080fd5b506004361060285760003560e01c8063706d018614602d575b600080fd5b605660048036036040811015604157600080fd5b506001600160a01b0381351690602001356058565b005b604080516323b872dd60e01b81523360048201523060248201526044810183905290516001600160a01b038416916323b872dd9160648083019260209291908290030181600087803b15801560ac57600080fd5b505af115801560bf573d6000803e3d6000fd5b505050506040513d602081101560d457600080fd5b5050505056fea265627a7a723158202a5a460e66ac7fb6e1984de6be68f46590890bd7ad30e85878ed7051f364cd8d64736f6c63430005100032",
  "source": "pragma solidity 0.5.16;\n\nimport { IRevenueRecipient } from \"../../interfaces/ISavingsManager.sol\";\nimport { IERC20 } from \"@openzeppelin/contracts/token/ERC20/IERC20.sol\";\n\ncontract MockRevenueRecipient is IRevenueRecipient {\n\n\n    function notifyRedistributionAmount(address _mIx, uint256 _amount) external {\n        IERC20(_mIx).transferFrom(msg.sender, address(this), _amount);\n    }\n}",
  "sourcePath": "/Volumes/sdxc/ETHEREUM/CODE/mStable-v1-edit/contracts/z_mocks/savings/MockRevenueRecipient.sol",
  "compiler": {
    "name": "solc",
    "version": "0.5.16+commit.9c3226ce.Emscripten.clang"
  },
  "schemaVersion": "3.1.0",
  "updatedAt": "2021-03-11T05:43:17.320Z",
  "devdoc": {
    "methods": {}
  },
  "userdoc": {
    "methods": {}
  }
}