{
  "contractName": "MockTrigger",
  "abi": [
    {
      "constant": false,
      "inputs": [
        {
          "internalType": "contract ILiquidator",
          "name": "_liq",
          "type": "address"
        },
        {
          "internalType": "address",
          "name": "_integration",
          "type": "address"
        }
      ],
      "name": "trigger",
      "outputs": [],
      "payable": false,
      "stateMutability": "nonpayable",
      "type": "function"
    }
  ],
  "bytecode": "0x608060405234801561001057600080fd5b50610101806100206000396000f3fe6080604052348015600f57600080fd5b506004361060285760003560e01c8063b92814d814602d575b600080fd5b605860048036036040811015604157600080fd5b506001600160a01b0381358116916020013516605a565b005b816001600160a01b031663b350df5d826040518263ffffffff1660e01b815260040180826001600160a01b03166001600160a01b03168152602001915050600060405180830381600087803b15801560b157600080fd5b505af115801560c4573d6000803e3d6000fd5b50505050505056fea265627a7a72315820360397d15ea4a63a66968b2fd223d5fb77a2aac19548e3b31ff2c67bf5b8b59e64736f6c63430005100032",
  "source": "pragma solidity 0.5.16;\n\nimport { ILiquidator } from \"../../mix/liquidator/ILiquidator.sol\";\n\n\ncontract MockTrigger {\n\n    function trigger(ILiquidator _liq, address _integration) external {\n        _liq.triggerLiquidation(_integration);\n    }\n}",
  "sourcePath": "/Volumes/sdxc/ETHEREUM/CODE/mStable-v1-edit/contracts/z_mocks/shared/MockTrigger.sol",
  "compiler": {
    "name": "solc",
    "version": "0.5.16+commit.9c3226ce.Emscripten.clang"
  },
  "schemaVersion": "3.1.0",
  "updatedAt": "2021-03-11T05:43:18.444Z",
  "devdoc": {
    "methods": {}
  },
  "userdoc": {
    "methods": {}
  }
}