{
  "contractName": "MockGovernable",
  "abi": [
    {
      "anonymous": false,
      "inputs": [
        {
          "indexed": true,
          "internalType": "address",
          "name": "previousGovernor",
          "type": "address"
        },
        {
          "indexed": true,
          "internalType": "address",
          "name": "newGovernor",
          "type": "address"
        }
      ],
      "name": "GovernorChanged",
      "type": "event"
    },
    {
      "constant": false,
      "inputs": [
        {
          "internalType": "address",
          "name": "_newGovernor",
          "type": "address"
        }
      ],
      "name": "changeGovernor",
      "outputs": [],
      "payable": false,
      "stateMutability": "nonpayable",
      "type": "function"
    },
    {
      "constant": true,
      "inputs": [],
      "name": "governor",
      "outputs": [
        {
          "internalType": "address",
          "name": "",
          "type": "address"
        }
      ],
      "payable": false,
      "stateMutability": "view",
      "type": "function"
    },
    {
      "constant": true,
      "inputs": [],
      "name": "isGovernor",
      "outputs": [
        {
          "internalType": "bool",
          "name": "",
          "type": "bool"
        }
      ],
      "payable": false,
      "stateMutability": "view",
      "type": "function"
    }
  ],
  "bytecode": "0x60806040819052600080546001600160a01b03191633178082556001600160a01b0316917fde4b3f61490b74c0ed6237523974fe299126bbbf8a8a7482fd220104c59b0c84908290a361021e806100576000396000f3fe608060405234801561001057600080fd5b50600436106100415760003560e01c80630c340a2414610046578063c7af33521461006a578063e4c0aaf414610086575b600080fd5b61004e6100ae565b604080516001600160a01b039092168252519081900360200190f35b6100726100bd565b604080519115158252519081900360200190f35b6100ac6004803603602081101561009c57600080fd5b50356001600160a01b03166100ce565b005b6000546001600160a01b031690565b6000546001600160a01b0316331490565b6100d66100bd565b610127576040805162461bcd60e51b815260206004820152601f60248201527f474f563a2063616c6c6572206973206e6f742074686520476f7665726e6f7200604482015290519081900360640190fd5b61013081610133565b50565b6001600160a01b03811661018e576040805162461bcd60e51b815260206004820152601f60248201527f474f563a206e657720476f7665726e6f72206973206164647265737328302900604482015290519081900360640190fd5b600080546040516001600160a01b03808516939216917fde4b3f61490b74c0ed6237523974fe299126bbbf8a8a7482fd220104c59b0c8491a3600080546001600160a01b0319166001600160a01b039290921691909117905556fea265627a7a723158200a14c9bc74759d700f0c42cec1f58dc2f44ddcbfe10c61f6c0550b4a2f01f0b664736f6c63430005100032",
  "source": "pragma solidity 0.5.16;\n\nimport { Governable } from \"../../governance/Governable.sol\";\n\ncontract MockGovernable is Governable {\n\n}",
  "sourcePath": "/Volumes/sdxc/ETHEREUM/CODE/mStable-v1-edit/contracts/z_mocks/governance/MockGovernable.sol",
  "compiler": {
    "name": "solc",
    "version": "0.5.16+commit.9c3226ce.Emscripten.clang"
  },
  "schemaVersion": "3.1.0",
  "updatedAt": "2021-03-11T05:43:16.435Z",
  "devdoc": {
    "methods": {
      "changeGovernor(address)": {
        "details": "Transfers Governance of the contract to a new account (`newGovernor`). Can only be called by the current Governor.",
        "params": {
          "_newGovernor": "Address of the new Governor"
        }
      },
      "governor()": {
        "details": "Returns the address of the current Governor."
      },
      "isGovernor()": {
        "details": "Returns true if the caller is the current Governor."
      }
    }
  },
  "userdoc": {
    "methods": {}
  }
}