{
  "contractName": "MockCurveBildPool",
  "abi": [
    {
      "inputs": [
        {
          "internalType": "address[]",
          "name": "_coins",
          "type": "address[]"
        },
        {
          "internalType": "address",
          "name": "_mUSD",
          "type": "address"
        }
      ],
      "payable": false,
      "stateMutability": "nonpayable",
      "type": "constructor"
    },
    {
      "constant": true,
      "inputs": [
        {
          "internalType": "uint256",
          "name": "",
          "type": "uint256"
        }
      ],
      "name": "coins",
      "outputs": [
        {
          "internalType": "address",
          "name": "",
          "type": "address"
        }
      ],
      "payable": false,
      "stateMutability": "view",
      "type": "function"
    },
    {
      "constant": false,
      "inputs": [
        {
          "internalType": "uint256",
          "name": "_newRatio",
          "type": "uint256"
        }
      ],
      "name": "setRatio",
      "outputs": [],
      "payable": false,
      "stateMutability": "nonpayable",
      "type": "function"
    },
    {
      "constant": false,
      "inputs": [
        {
          "internalType": "int128",
          "name": "i",
          "type": "int128"
        },
        {
          "internalType": "int128",
          "name": "j",
          "type": "int128"
        },
        {
          "internalType": "uint256",
          "name": "dx",
          "type": "uint256"
        },
        {
          "internalType": "uint256",
          "name": "min_dy",
          "type": "uint256"
        }
      ],
      "name": "exchange_underlying",
      "outputs": [
        {
          "internalType": "uint256",
          "name": "",
          "type": "uint256"
        }
      ],
      "payable": false,
      "stateMutability": "nonpayable",
      "type": "function"
    },
    {
      "constant": true,
      "inputs": [
        {
          "internalType": "int128",
          "name": "i",
          "type": "int128"
        },
        {
          "internalType": "int128",
          "name": "j",
          "type": "int128"
        },
        {
          "internalType": "uint256",
          "name": "dx",
          "type": "uint256"
        }
      ],
      "name": "get_dy",
      "outputs": [
        {
          "internalType": "uint256",
          "name": "",
          "type": "uint256"
        }
      ],
      "payable": false,
      "stateMutability": "view",
      "type": "function"
    }
  ],
  "bytecode": "0x6080604052670d99a8cec7e2000060025534801561001c57600080fd5b506040516107083803806107088339818101604052604081101561003f57600080fd5b810190808051604051939291908464010000000082111561005f57600080fd5b90830190602082018581111561007457600080fd5b825186602082028301116401000000008211171561009157600080fd5b82525081516020918201928201910280838360005b838110156100be5781810151838201526020016100a6565b5050505091909101604052506020015183519092506001600160a01b038316915083906000906100ea57fe5b60200260200101516001600160a01b03161461014d576040805162461bcd60e51b815260206004820152601360248201527f436f696e2030206d757374206265206d55534400000000000000000000000000604482015290519081900360640190fd5b8151610160906000906020850190610187565b50600180546001600160a01b0319166001600160a01b039290921691909117905550610213565b8280548282559060005260206000209081019282156101dc579160200282015b828111156101dc57825182546001600160a01b0319166001600160a01b039091161782556020909201916001909101906101a7565b506101e89291506101ec565b5090565b61021091905b808211156101e85780546001600160a01b03191681556001016101f2565b90565b6104e6806102226000396000f3fe608060405234801561001057600080fd5b506004361061004c5760003560e01c80635e0d443f14610051578063a6417ed614610094578063b2237ba3146100cb578063c6610657146100ea575b600080fd5b6100826004803603606081101561006757600080fd5b508035600f90810b91602081013590910b9060400135610123565b60408051918252519081900360200190f35b610082600480360360808110156100aa57600080fd5b508035600f90810b91602081013590910b9060408101359060600135610228565b6100e8600480360360208110156100e157600080fd5b5035610485565b005b6101076004803603602081101561010057600080fd5b503561048a565b604080516001600160a01b039092168252519081900360200190f35b600082600f0b600014610173576040805162461bcd60e51b815260206004820152601360248201527213dd5d1c1d5d081b5d5cdd081899481b5554d1606a1b604482015290519081900360640190fd5b60008085600f0b8154811061018457fe5b60009182526020808320909101546040805163313ce56760e01b815290516001600160a01b039092169450849263313ce56792600480840193829003018186803b1580156101d157600080fd5b505afa1580156101e5573d6000803e3d6000fd5b505050506040513d60208110156101fb57600080fd5b5051600254670de0b6b3a764000060ff909216601203600a0a959095029094029390930495945050505050565b600083600f0b600014610278576040805162461bcd60e51b815260206004820152601360248201527213dd5d1c1d5d081b5d5cdd081899481b5554d1606a1b604482015290519081900360640190fd5b60008086600f0b8154811061028957fe5b60009182526020808320909101546040805163313ce56760e01b815290516001600160a01b039092169450849263313ce56792600480840193829003018186803b1580156102d657600080fd5b505afa1580156102ea573d6000803e3d6000fd5b505050506040513d602081101561030057600080fd5b505160025460ff9091169150670de0b6b3a76400006012839003600a0a87029091020484811015610378576040805162461bcd60e51b815260206004820152601d60248201527f4352563a204f757470757420616d6f756e74206e6f7420656e6f756768000000604482015290519081900360640190fd5b604080516323b872dd60e01b81523360048201523060248201526044810188905290516001600160a01b038516916323b872dd9160648083019260209291908290030181600087803b1580156103cd57600080fd5b505af11580156103e1573d6000803e3d6000fd5b505050506040513d60208110156103f757600080fd5b50506001546040805163a9059cbb60e01b81523360048201526024810184905290516001600160a01b039092169163a9059cbb916044808201926020929091908290030181600087803b15801561044d57600080fd5b505af1158015610461573d6000803e3d6000fd5b505050506040513d602081101561047757600080fd5b509098975050505050505050565b600255565b6000818154811061049757fe5b6000918252602090912001546001600160a01b031690508156fea265627a7a72315820c37bc3c77602c89ddc362e26a0196f7fff8f3aae6f82c5e8095a83671e8c8df664736f6c63430005100032",
  "source": "pragma solidity 0.5.16;\n\nimport { ICurveBildPool } from \"../../mix/liquidator/ICurveBildPool.sol\";\nimport { IERC20 } from \"@openzeppelin/contracts/token/ERC20/IERC20.sol\";\nimport { IBasicToken } from \"../../shared/IBasicToken.sol\";\n\n\n// Simulates the selling of bAsset for mUSD through Bild Pool\n// Assumes mUSD is token 0\ncontract MockCurveBildPool is ICurveBildPool {\n\n    address[] public coins;\n    address mUSD;\n    // number of out per in (scaled)\n    uint256 ratio = 98e16;\n\n\n    constructor(address[] memory _coins, address _mUSD) public {\n        require(_coins[0] == _mUSD, \"Coin 0 must be mUSD\");\n        coins = _coins;\n        mUSD = _mUSD;\n    }\n\n    function setRatio(uint256 _newRatio) external {\n        ratio = _newRatio;\n    }\n\n    // takes dx i from sender, returns j\n    function exchange_underlying(int128 i, int128 j, uint256 dx, uint256 min_dy)\n        external\n        returns (uint256)\n    {\n        require(j == 0, \"Output must be mUSD\");\n        address in_tok = coins[uint256(i)];\n        uint256 decimals = IBasicToken(in_tok).decimals();\n        uint256 out_amt = dx * (10 ** (18 - decimals)) * ratio / 1e18;\n        require(out_amt >= min_dy, \"CRV: Output amount not enough\");\n        IERC20(in_tok).transferFrom(msg.sender, address(this), dx);\n        IERC20(mUSD).transfer(msg.sender, out_amt);\n        return out_amt;\n    }\n\n\n    function get_dy(int128 i, int128 j, uint256 dx) external view returns (uint256) {\n        require(j == 0, \"Output must be mUSD\");\n        address in_tok = coins[uint256(i)];\n        uint256 decimals = IBasicToken(in_tok).decimals();\n        uint256 out_amt = dx * (10 ** (18 - decimals)) * ratio / 1e18;\n        return out_amt;\n    }\n}",
  "sourcePath": "/Volumes/sdxc/ETHEREUM/CODE/mStable-v1-edit/contracts/z_mocks/shared/MockCurveMetaPool.sol",
  "compiler": {
    "name": "solc",
    "version": "0.5.16+commit.9c3226ce.Emscripten.clang"
  },
  "schemaVersion": "3.1.0",
  "updatedAt": "2021-03-11T05:43:18.316Z",
  "devdoc": {
    "methods": {}
  },
  "userdoc": {
    "methods": {}
  }
}