{
  "contractName": "MockCommonHelpers",
  "abi": [
    {
      "constant": true,
      "inputs": [
        {
          "internalType": "address",
          "name": "_token",
          "type": "address"
        }
      ],
      "name": "getDecimals",
      "outputs": [
        {
          "internalType": "uint256",
          "name": "",
          "type": "uint256"
        }
      ],
      "payable": false,
      "stateMutability": "view",
      "type": "function"
    }
  ],
  "bytecode": "0x608060405234801561001057600080fd5b50610191806100206000396000f3fe608060405234801561001057600080fd5b506004361061002b5760003560e01c8063cf54aaa014610030575b600080fd5b6100566004803603602081101561004657600080fd5b50356001600160a01b0316610068565b60408051918252519081900360200190f35b600061007382610079565b92915050565b600080826001600160a01b031663313ce5676040518163ffffffff1660e01b815260040160206040518083038186803b1580156100b557600080fd5b505afa1580156100c9573d6000803e3d6000fd5b505050506040513d60208110156100df57600080fd5b505160ff169050600481108015906100f8575060128111155b6100735760405162461bcd60e51b81526004018080602001828103825260298152602001806101346029913960400191505060405180910390fdfe546f6b656e206d75737420686176652073756666696369656e7420646563696d616c20706c61636573a265627a7a72315820cd02e20a17694890e22c2fafc68a1a48d0aaca87b06f69852d9f38d1f5fdb62664736f6c63430005100032",
  "source": "pragma solidity 0.5.16;\n\nimport { CommonHelpers } from \"../../shared/CommonHelpers.sol\";\n\ncontract MockCommonHelpers {\n\n    function getDecimals(address _token)\n    public\n    view\n    returns (uint256) {\n        return CommonHelpers.getDecimals(_token);\n    }\n}\n\n",
  "sourcePath": "/Volumes/sdxc/ETHEREUM/CODE/mStable-v1-edit/contracts/z_mocks/shared/MockCommonHelpers.sol",
  "compiler": {
    "name": "solc",
    "version": "0.5.16+commit.9c3226ce.Emscripten.clang"
  },
  "schemaVersion": "3.1.0",
  "updatedAt": "2021-03-11T05:43:18.313Z",
  "devdoc": {
    "methods": {}
  },
  "userdoc": {
    "methods": {}
  }
}