{
  "contractName": "MockCompoundIntegration1",
  "abi": [
    {
      "anonymous": false,
      "inputs": [
        {
          "indexed": true,
          "internalType": "address",
          "name": "_bAsset",
          "type": "address"
        },
        {
          "indexed": false,
          "internalType": "address",
          "name": "_pToken",
          "type": "address"
        },
        {
          "indexed": false,
          "internalType": "uint256",
          "name": "_amount",
          "type": "uint256"
        }
      ],
      "name": "Deposit",
      "type": "event"
    },
    {
      "anonymous": false,
      "inputs": [
        {
          "indexed": true,
          "internalType": "address",
          "name": "_bAsset",
          "type": "address"
        },
        {
          "indexed": false,
          "internalType": "address",
          "name": "_pToken",
          "type": "address"
        }
      ],
      "name": "PTokenAdded",
      "type": "event"
    },
    {
      "anonymous": false,
      "inputs": [
        {
          "indexed": true,
          "internalType": "address",
          "name": "bAsset",
          "type": "address"
        },
        {
          "indexed": false,
          "internalType": "address",
          "name": "pToken",
          "type": "address"
        },
        {
          "indexed": false,
          "internalType": "uint256",
          "name": "totalAmount",
          "type": "uint256"
        },
        {
          "indexed": false,
          "internalType": "uint256",
          "name": "userAmount",
          "type": "uint256"
        }
      ],
      "name": "PlatformWithdrawal",
      "type": "event"
    },
    {
      "anonymous": false,
      "inputs": [
        {
          "indexed": false,
          "internalType": "address",
          "name": "rewardToken",
          "type": "address"
        },
        {
          "indexed": false,
          "internalType": "address",
          "name": "account",
          "type": "address"
        }
      ],
      "name": "RewardTokenApproved",
      "type": "event"
    },
    {
      "anonymous": false,
      "inputs": [
        {
          "indexed": false,
          "internalType": "address",
          "name": "bAsset",
          "type": "address"
        },
        {
          "indexed": false,
          "internalType": "uint256",
          "name": "amount",
          "type": "uint256"
        }
      ],
      "name": "SkippedWithdrawal",
      "type": "event"
    },
    {
      "anonymous": false,
      "inputs": [
        {
          "indexed": true,
          "internalType": "address",
          "name": "_address",
          "type": "address"
        }
      ],
      "name": "Whitelisted",
      "type": "event"
    },
    {
      "anonymous": false,
      "inputs": [
        {
          "indexed": true,
          "internalType": "address",
          "name": "_bAsset",
          "type": "address"
        },
        {
          "indexed": false,
          "internalType": "address",
          "name": "_pToken",
          "type": "address"
        },
        {
          "indexed": false,
          "internalType": "uint256",
          "name": "_amount",
          "type": "uint256"
        }
      ],
      "name": "Withdrawal",
      "type": "event"
    },
    {
      "constant": true,
      "inputs": [
        {
          "internalType": "address",
          "name": "",
          "type": "address"
        }
      ],
      "name": "bAssetToPToken",
      "outputs": [
        {
          "internalType": "address",
          "name": "",
          "type": "address"
        }
      ],
      "payable": false,
      "stateMutability": "view",
      "type": "function"
    },
    {
      "constant": false,
      "inputs": [
        {
          "internalType": "address",
          "name": "_bAsset",
          "type": "address"
        }
      ],
      "name": "checkBalance",
      "outputs": [
        {
          "internalType": "uint256",
          "name": "balance",
          "type": "uint256"
        }
      ],
      "payable": false,
      "stateMutability": "nonpayable",
      "type": "function"
    },
    {
      "constant": false,
      "inputs": [
        {
          "internalType": "address",
          "name": "_bAsset",
          "type": "address"
        },
        {
          "internalType": "uint256",
          "name": "_amount",
          "type": "uint256"
        },
        {
          "internalType": "bool",
          "name": "_hasTxFee",
          "type": "bool"
        }
      ],
      "name": "deposit",
      "outputs": [
        {
          "internalType": "uint256",
          "name": "quantityDeposited",
          "type": "uint256"
        }
      ],
      "payable": false,
      "stateMutability": "nonpayable",
      "type": "function"
    },
    {
      "constant": false,
      "inputs": [
        {
          "internalType": "address",
          "name": "_nexus",
          "type": "address"
        },
        {
          "internalType": "address[]",
          "name": "_whitelisted",
          "type": "address[]"
        },
        {
          "internalType": "address",
          "name": "_platformAddress",
          "type": "address"
        },
        {
          "internalType": "address[]",
          "name": "_bAssets",
          "type": "address[]"
        },
        {
          "internalType": "address[]",
          "name": "_pTokens",
          "type": "address[]"
        }
      ],
      "name": "initialize",
      "outputs": [],
      "payable": false,
      "stateMutability": "nonpayable",
      "type": "function"
    },
    {
      "constant": true,
      "inputs": [],
      "name": "nexus",
      "outputs": [
        {
          "internalType": "contract INexus",
          "name": "",
          "type": "address"
        }
      ],
      "payable": false,
      "stateMutability": "view",
      "type": "function"
    },
    {
      "constant": true,
      "inputs": [],
      "name": "platformAddress",
      "outputs": [
        {
          "internalType": "address",
          "name": "",
          "type": "address"
        }
      ],
      "payable": false,
      "stateMutability": "view",
      "type": "function"
    },
    {
      "constant": false,
      "inputs": [],
      "name": "reApproveAllTokens",
      "outputs": [],
      "payable": false,
      "stateMutability": "nonpayable",
      "type": "function"
    },
    {
      "constant": false,
      "inputs": [
        {
          "internalType": "address",
          "name": "_bAsset",
          "type": "address"
        },
        {
          "internalType": "address",
          "name": "_pToken",
          "type": "address"
        }
      ],
      "name": "setPTokenAddress",
      "outputs": [],
      "payable": false,
      "stateMutability": "nonpayable",
      "type": "function"
    },
    {
      "constant": true,
      "inputs": [
        {
          "internalType": "address",
          "name": "",
          "type": "address"
        }
      ],
      "name": "whitelist",
      "outputs": [
        {
          "internalType": "bool",
          "name": "",
          "type": "bool"
        }
      ],
      "payable": false,
      "stateMutability": "view",
      "type": "function"
    },
    {
      "constant": false,
      "inputs": [
        {
          "internalType": "address",
          "name": "_receiver",
          "type": "address"
        },
        {
          "internalType": "address",
          "name": "_bAsset",
          "type": "address"
        },
        {
          "internalType": "uint256",
          "name": "_amount",
          "type": "uint256"
        },
        {
          "internalType": "bool",
          "name": "_hasTxFee",
          "type": "bool"
        }
      ],
      "name": "withdraw",
      "outputs": [],
      "payable": false,
      "stateMutability": "nonpayable",
      "type": "function"
    },
    {
      "constant": false,
      "inputs": [
        {
          "internalType": "address",
          "name": "_receiver",
          "type": "address"
        },
        {
          "internalType": "address",
          "name": "_bAsset",
          "type": "address"
        },
        {
          "internalType": "uint256",
          "name": "_amount",
          "type": "uint256"
        },
        {
          "internalType": "uint256",
          "name": "_totalAmount",
          "type": "uint256"
        },
        {
          "internalType": "bool",
          "name": "_hasTxFee",
          "type": "bool"
        }
      ],
      "name": "withdraw",
      "outputs": [],
      "payable": false,
      "stateMutability": "nonpayable",
      "type": "function"
    },
    {
      "constant": false,
      "inputs": [
        {
          "internalType": "address",
          "name": "_receiver",
          "type": "address"
        },
        {
          "internalType": "address",
          "name": "_bAsset",
          "type": "address"
        },
        {
          "internalType": "uint256",
          "name": "_amount",
          "type": "uint256"
        }
      ],
      "name": "withdrawRaw",
      "outputs": [],
      "payable": false,
      "stateMutability": "nonpayable",
      "type": "function"
    },
    {
      "constant": false,
      "inputs": [],
      "name": "approveRewardToken",
      "outputs": [],
      "payable": false,
      "stateMutability": "nonpayable",
      "type": "function"
    },
    {
      "constant": false,
      "inputs": [
        {
          "internalType": "address",
          "name": "_token",
          "type": "address"
        }
      ],
      "name": "setRewardToken",
      "outputs": [],
      "payable": false,
      "stateMutability": "nonpayable",
      "type": "function"
    }
  ],
  "bytecode": "0x608060405234801561001057600080fd5b506121e3806100206000396000f3fe608060405234801561001057600080fd5b50600436106100ea5760003560e01c80639b19251a1161008c578063a755349a11610066578063a755349a146103da578063c89fc72f146103e2578063dbe55e5614610426578063e72964541461042e576100ea565b80639b19251a14610362578063a3f5c1d21461039c578063a4e28595146103a4576100ea565b80635f515226116100c85780635f5152261461029657806371c46585146102bc5780638aee8127146102fe578063934785b714610324576100ea565b80630ed57b3a146100ef57806311505f721461011f5780633edd112814610250575b600080fd5b61011d6004803603604081101561010557600080fd5b506001600160a01b0381358116916020013516610436565b005b61011d600480360360a081101561013557600080fd5b6001600160a01b03823516919081019060408101602082013564010000000081111561016057600080fd5b82018360208201111561017257600080fd5b8035906020019184602083028401116401000000008311171561019457600080fd5b919390926001600160a01b03833516926040810190602001356401000000008111156101bf57600080fd5b8201836020820111156101d157600080fd5b803590602001918460208302840111640100000000831117156101f357600080fd5b91939092909160208101903564010000000081111561021157600080fd5b82018360208201111561022357600080fd5b8035906020019184602083028401116401000000008311171561024557600080fd5b5090925090506104ad565b6102846004803603606081101561026657600080fd5b506001600160a01b038135169060208101359060400135151561060a565b60408051918252519081900360200190f35b610284600480360360208110156102ac57600080fd5b50356001600160a01b0316610923565b6102e2600480360360208110156102d257600080fd5b50356001600160a01b0316610941565b604080516001600160a01b039092168252519081900360200190f35b61011d6004803603602081101561031457600080fd5b50356001600160a01b031661095c565b61011d6004803603608081101561033a57600080fd5b506001600160a01b03813581169160208101359091169060408101359060600135151561097e565b6103886004803603602081101561037857600080fd5b50356001600160a01b0316610a4d565b604080519115158252519081900360200190f35b6102e2610a62565b61011d600480360360608110156103ba57600080fd5b506001600160a01b03813581169160208101359091169060400135610a71565b61011d610c30565b61011d600480360360a08110156103f857600080fd5b506001600160a01b038135811691602081013590911690604081013590606081013590608001351515610cf5565b6102e2610dc5565b61011d610dd9565b61043e610f12565b6001600160a01b0316336001600160a01b03161461049f576040805162461bcd60e51b81526020600482015260196024820152784f6e6c7920676f7665726e6f722063616e206578656375746560381b604482015290519081900360640190fd5b6104a98282610f88565b5050565b600054610100900460ff16806104c657506104c66110f7565b806104d4575060005460ff16155b61050f5760405162461bcd60e51b815260040180806020018281038252602e815260200180612121602e913960400191505060405180910390fd5b600054610100900460ff1615801561053a576000805460ff1961ff0019909116610100171660011790555b6105426110fd565b61057f8989898080602002602001604051908101604052809392919081815260200183836020028082843760009201919091525061110c92505050565b6105ed8686868080602002602001604051908101604052809392919081815260200183836020028082843760009201919091525050604080516020808a0282810182019093528982529093508992508891829185019084908082843760009201919091525061119892505050565b80156105ff576000805461ff00191690555b505050505050505050565b336000908152603c602052604081205460ff1661066a576040805162461bcd60e51b81526020600482015260196024820152784e6f7420612077686974656c6973746564206164647265737360381b604482015290519081900360640190fd5b603d5460ff166106af576040805162461bcd60e51b815260206004820152601f602482015260008051602061209d833981519152604482015290519081900360640190fd5b603d805460ff1916905582610704576040805162461bcd60e51b81526020600482015260166024820152754d757374206465706f73697420736f6d657468696e6760501b604482015290519081900360640190fd5b600061070f85611250565b9050839150821561080f576000610725826112bd565b9050816001600160a01b031663a0712d68866040518263ffffffff1660e01b815260040180828152602001915050602060405180830381600087803b15801561076d57600080fd5b505af1158015610781573d6000803e3d6000fd5b505050506040513d602081101561079757600080fd5b5051156107e0576040805162461bcd60e51b815260206004820152601260248201527118d51bdad95b881b5a5b9d0819985a5b195960721b604482015290519081900360640190fd5b60006107eb836112bd565b905061080684610801838563ffffffff6113d816565b61141a565b935050506108c8565b806001600160a01b031663a0712d68856040518263ffffffff1660e01b815260040180828152602001915050602060405180830381600087803b15801561085557600080fd5b505af1158015610869573d6000803e3d6000fd5b505050506040513d602081101561087f57600080fd5b5051156108c8576040805162461bcd60e51b815260206004820152601260248201527118d51bdad95b881b5a5b9d0819985a5b195960721b604482015290519081900360640190fd5b604080516001600160a01b038381168252602082018590528251908816927f5548c837ab068cf56a2c2479df0882a4922fd203edb7517321831d95078c5f62928290030190a250603d805460ff191660011790559392505050565b60008061092f83611250565b905061093a816112bd565b9392505050565b603e602052600090815260409020546001600160a01b031681565b604080546001600160a01b0319166001600160a01b0392909216919091179055565b336000908152603c602052604090205460ff166109de576040805162461bcd60e51b81526020600482015260196024820152784e6f7420612077686974656c6973746564206164647265737360381b604482015290519081900360640190fd5b603d5460ff16610a23576040805162461bcd60e51b815260206004820152601f602482015260008051602061209d833981519152604482015290519081900360640190fd5b603d805460ff19169055610a3a848484808561142f565b5050603d805460ff191660011790555050565b603c6020526000908152604090205460ff1681565b603b546001600160a01b031681565b336000908152603c602052604090205460ff16610ad1576040805162461bcd60e51b81526020600482015260196024820152784e6f7420612077686974656c6973746564206164647265737360381b604482015290519081900360640190fd5b603d5460ff16610b16576040805162461bcd60e51b815260206004820152601f602482015260008051602061209d833981519152604482015290519081900360640190fd5b603d805460ff1916905580610b6c576040805162461bcd60e51b81526020600482015260176024820152764d75737420776974686472617720736f6d657468696e6760481b604482015290519081900360640190fd5b6001600160a01b038316610bc0576040805162461bcd60e51b8152602060048201526016602482015275135d5cdd081cdc1958da599e481c9958da5c1a595b9d60521b604482015290519081900360640190fd5b610bda6001600160a01b038316848363ffffffff61187016565b60408051600081526020810183905281516001600160a01b038516927f2717ead6b9200dd235aad468c9809ea400fe33ac69b5bfaa6d3e90fc922b6398928290030190a25050603d805460ff1916600117905550565b610c38610f12565b6001600160a01b0316336001600160a01b031614610c99576040805162461bcd60e51b81526020600482015260196024820152784f6e6c7920676f7665726e6f722063616e206578656375746560381b604482015290519081900360640190fd5b603f5460005b818110156104a9576000603f8281548110610cb657fe5b60009182526020808320909101546001600160a01b03908116808452603e90925260409092205490925016610ceb82826118c2565b5050600101610c9f565b336000908152603c602052604090205460ff16610d55576040805162461bcd60e51b81526020600482015260196024820152784e6f7420612077686974656c6973746564206164647265737360381b604482015290519081900360640190fd5b603d5460ff16610d9a576040805162461bcd60e51b815260206004820152601f602482015260008051602061209d833981519152604482015290519081900360640190fd5b603d805460ff19169055610db1858585858561142f565b5050603d805460ff19166001179055505050565b603d5461010090046001600160a01b031681565b603b5460408051692634b8bab4b230ba37b960b11b8152815190819003600a0181206385acd64160e01b8252600482015290516000926001600160a01b0316916385acd641916024808301926020929190829003018186803b158015610e3e57600080fd5b505afa158015610e52573d6000803e3d6000fd5b505050506040513d6020811015610e6857600080fd5b505190506001600160a01b038116610eb15760405162461bcd60e51b81526004018080602001828103825260218152602001806120bd6021913960400191505060405180910390fd5b604054610ec7906001600160a01b0316826118c2565b6040805481516001600160a01b039182168152908316602082015281517f71b4effce66e58c9e4ad29e468e7100f7e8b5d106381fd905a25eee3ea1b6a93929181900390910190a150565b603b546040805163030d028960e21b815290516000926001600160a01b031691630c340a24916004808301926020929190829003018186803b158015610f5757600080fd5b505afa158015610f6b573d6000803e3d6000fd5b505050506040513d6020811015610f8157600080fd5b5051905090565b6001600160a01b038281166000908152603e60205260409020541615610fea576040805162461bcd60e51b81526020600482015260126024820152711c151bdad95b88185b1c9958591e481cd95d60721b604482015290519081900360640190fd5b6001600160a01b0382161580159061100a57506001600160a01b03811615155b61104f576040805162461bcd60e51b8152602060048201526011602482015270496e76616c69642061646472657373657360781b604482015290519081900360640190fd5b6001600160a01b038083166000818152603e6020908152604080832080549587166001600160a01b03199687168117909155603f805460018101825594527fc03004e3ce0784bf68186394306849f9b7b1200073105cd9aeb554a1802b58fd909301805490951684179094558351918252925191927fef6485b84315f9b1483beffa32aae9a0596890395e3d7521f1c5fbb51790e76592918290030190a26104a982826118f9565b303b1590565b603d805460ff19166001179055565b61111582611903565b6000815111611163576040805162461bcd60e51b8152602060048201526015602482015274456d7074792077686974656c69737420617272617960581b604482015290519081900360640190fd5b60005b81518110156111935761118b82828151811061117e57fe5b602002602001015161197c565b600101611166565b505050565b603d8054610100600160a81b0319166101006001600160a01b03861602179055815181518114611206576040805162461bcd60e51b8152602060048201526014602482015273496e76616c696420696e7075742061727261797360601b604482015290519081900360640190fd5b60005b818110156112495761124184828151811061122057fe5b602002602001015184838151811061123457fe5b6020026020010151610f88565b600101611209565b5050505050565b6001600160a01b038082166000908152603e6020526040812054909116806112b7576040805162461bcd60e51b815260206004820152601560248201527418d51bdad95b88191bd95cc81b9bdd08195e1a5cdd605a1b604482015290519081900360640190fd5b92915050565b604080516370a0823160e01b8152306004820152905160009182916001600160a01b038516916370a08231916024808301926020929190829003018186803b15801561130857600080fd5b505afa15801561131c573d6000803e3d6000fd5b505050506040513d602081101561133257600080fd5b50516040805163182df0f560e01b815290519192506000916001600160a01b0386169163182df0f5916004808301926020929190829003018186803b15801561137a57600080fd5b505afa15801561138e573d6000803e3d6000fd5b505050506040513d60208110156113a457600080fd5b505190506113d0670de0b6b3a76400006113c4848463ffffffff611a7916565b9063ffffffff611ad216565b949350505050565b600061093a83836040518060400160405280601e81526020017f536166654d6174683a207375627472616374696f6e206f766572666c6f770000815250611b14565b6000818311611429578261093a565b50919050565b6000821161147e576040805162461bcd60e51b81526020600482015260176024820152764d75737420776974686472617720736f6d657468696e6760481b604482015290519081900360640190fd5b6001600160a01b0385166114d2576040805162461bcd60e51b8152602060048201526016602482015275135d5cdd081cdc1958da599e481c9958da5c1a595b9d60521b604482015290519081900360640190fd5b60006114dd85611250565b905060006114eb8285611bab565b90508061153d57604080516001600160a01b03881681526020810186905281517f2ca0d37ecfc1b8853f4bc276c69586250b3978c1d467c05d6c143966026724ec929181900390910190a15050611249565b84831561174a578486146115825760405162461bcd60e51b81526004018080602001828103825260228152602001806120ff6022913960400191505060405180910390fd5b604080516370a0823160e01b8152306004820152905188916000916001600160a01b038416916370a08231916024808301926020929190829003018186803b1580156115cd57600080fd5b505afa1580156115e1573d6000803e3d6000fd5b505050506040513d60208110156115f757600080fd5b50516040805163852a12e360e01b8152600481018b905290519192506001600160a01b0387169163852a12e3916024808201926020929091908290030181600087803b15801561164657600080fd5b505af115801561165a573d6000803e3d6000fd5b505050506040513d602081101561167057600080fd5b5051156116b4576040805162461bcd60e51b815260206004820152600d60248201526c1c995919595b4819985a5b1959609a1b604482015290519081900360640190fd5b604080516370a0823160e01b815230600482015290516000916001600160a01b038516916370a0823191602480820192602092909190829003018186803b1580156116fe57600080fd5b505afa158015611712573d6000803e3d6000fd5b505050506040513d602081101561172857600080fd5b5051905061174084610801838563ffffffff6113d816565b93505050506117fe565b826001600160a01b031663852a12e3866040518263ffffffff1660e01b815260040180828152602001915050602060405180830381600087803b15801561179057600080fd5b505af11580156117a4573d6000803e3d6000fd5b505050506040513d60208110156117ba57600080fd5b5051156117fe576040805162461bcd60e51b815260206004820152600d60248201526c1c995919595b4819985a5b1959609a1b604482015290519081900360640190fd5b6118186001600160a01b038816898363ffffffff61187016565b604080516001600160a01b038581168252602082018890528183018990529151918916917fb925ac01b9c34cc156a17a1e3da718f364df34eec9d0c9dc4e59c2bb1e7ba54b9181900360600190a25050505050505050565b604080516001600160a01b038416602482015260448082018490528251808303909101815260649091019091526020810180516001600160e01b031663a9059cbb60e01b179052611193908490611c31565b6118dd6001600160a01b03831682600063ffffffff611def16565b6104a96001600160a01b0383168260001963ffffffff611def16565b6104a982826118c2565b6001600160a01b038116611956576040805162461bcd60e51b81526020600482015260156024820152744e657875732061646472657373206973207a65726f60581b604482015290519081900360640190fd5b603b80546001600160a01b0319166001600160a01b038316179055611979611f02565b50565b6001600160a01b0381166119c9576040805162461bcd60e51b815260206004820152600f60248201526e41646472657373206973207a65726f60881b604482015290519081900360640190fd5b6001600160a01b0381166000908152603c602052604090205460ff1615611a2d576040805162461bcd60e51b8152602060048201526013602482015272105b1c9958591e481dda1a5d195b1a5cdd1959606a1b604482015290519081900360640190fd5b6001600160a01b0381166000818152603c6020526040808220805460ff19166001179055517faab7954e9d246b167ef88aeddad35209ca2489d95a8aeb59e288d9b19fae5a549190a250565b600082611a88575060006112b7565b82820282848281611a9557fe5b041461093a5760405162461bcd60e51b81526004018080602001828103825260218152602001806120de6021913960400191505060405180910390fd5b600061093a83836040518060400160405280601a81526020017f536166654d6174683a206469766973696f6e206279207a65726f000000000000815250611ffe565b60008184841115611ba35760405162461bcd60e51b81526004018080602001828103825283818151815260200191508051906020019080838360005b83811015611b68578181015183820152602001611b50565b50505050905090810190601f168015611b955780820380516001836020036101000a031916815260200191505b509250505060405180910390fd5b505050900390565b600080836001600160a01b031663182df0f56040518163ffffffff1660e01b815260040160206040518083038186803b158015611be757600080fd5b505afa158015611bfb573d6000803e3d6000fd5b505050506040513d6020811015611c1157600080fd5b505190506113d0816113c485670de0b6b3a764000063ffffffff611a7916565b611c43826001600160a01b0316612063565b611c94576040805162461bcd60e51b815260206004820152601f60248201527f5361666545524332303a2063616c6c20746f206e6f6e2d636f6e747261637400604482015290519081900360640190fd5b60006060836001600160a01b0316836040518082805190602001908083835b60208310611cd25780518252601f199092019160209182019101611cb3565b6001836020036101000a0380198251168184511680821785525050505050509050019150506000604051808303816000865af19150503d8060008114611d34576040519150601f19603f3d011682016040523d82523d6000602084013e611d39565b606091505b509150915081611d90576040805162461bcd60e51b815260206004820181905260248201527f5361666545524332303a206c6f772d6c6576656c2063616c6c206661696c6564604482015290519081900360640190fd5b805115611de957808060200190516020811015611dac57600080fd5b5051611de95760405162461bcd60e51b815260040180806020018281038252602a81526020018061214f602a913960400191505060405180910390fd5b50505050565b801580611e75575060408051636eb1769f60e11b81523060048201526001600160a01b03848116602483015291519185169163dd62ed3e91604480820192602092909190829003018186803b158015611e4757600080fd5b505afa158015611e5b573d6000803e3d6000fd5b505050506040513d6020811015611e7157600080fd5b5051155b611eb05760405162461bcd60e51b81526004018080602001828103825260368152602001806121796036913960400191505060405180910390fd5b604080516001600160a01b038416602482015260448082018490528251808303909101815260649091019091526020810180516001600160e01b031663095ea7b360e01b179052611193908490611c31565b6040805169476f7665726e616e636560b01b8152815190819003600a9081018220603355665374616b696e6760c81b82528251918290036007908101832060345569283937bc3ca0b236b4b760b11b835283519283900390910182206035556827b930b1b632a43ab160b91b8252825191829003600990810183206036556626b0b730b3b2b960c91b835283519283900390910182206037556f2932b1b7b63630ba32b930b634b9b2b960811b82528251918290036010018220603855682134b6322a37b5b2b760b91b82528251918290030181206039556d29b0bb34b733b9a6b0b730b3b2b960911b8152905190819003600e019020603a55565b6000818361204d5760405162461bcd60e51b8152602060048201818152835160248401528351909283926044909101919085019080838360008315611b68578181015183820152602001611b50565b50600083858161205957fe5b0495945050505050565b6000813f7fc5d2460186f7233c927e7db2dcc703c0e500b653ca82273b7bfad8045d85a4708181148015906113d057505015159291505056fe5265656e7472616e637947756172643a207265656e7472616e742063616c6c004c697175696461746f7220616464726573732063616e6e6f74206265207a65726f536166654d6174683a206d756c7469706c69636174696f6e206f766572666c6f77436163686520696e61637469766520666f7220617373657473207769746820666565436f6e747261637420696e7374616e63652068617320616c7265616479206265656e20696e697469616c697a65645361666545524332303a204552433230206f7065726174696f6e20646964206e6f7420737563636565645361666545524332303a20617070726f76652066726f6d206e6f6e2d7a65726f20746f206e6f6e2d7a65726f20616c6c6f77616e6365a265627a7a7231582016ef6550def72db76cd88c39554c436b11124b3e67a41a771006b54a4ac48a6f64736f6c63430005100032",
  "source": "pragma solidity 0.5.16;\n\nimport { CompoundIntegration, ICERC20, IERC20, MixHelpers } from \"../../../mix/platform-integrations/CompoundIntegration.sol\";\n\n\n// Overrides approveRewardToken\ncontract MockCompoundIntegration1 is CompoundIntegration {\n\n    address rewardToken;\n\n    // @override\n    function approveRewardToken()\n        external\n    {\n        address liquidator = nexus.getModule(keccak256(\"Liquidator\"));\n        require(liquidator != address(0), \"Liquidator address cannot be zero\");\n\n        MixHelpers.safeInfiniteApprove(rewardToken, liquidator);\n\n        emit RewardTokenApproved(rewardToken, liquidator);\n    }\n\n    function setRewardToken(address _token) external {\n        rewardToken = _token;\n    }\n}\n\n\n// Mock contract to mock `checkBalance`\ncontract MockCompoundIntegration2 is CompoundIntegration {\n\n    event CurrentBalance(address indexed bAsset, uint256 balance);\n\n    function logBalance(address _bAsset)\n        external\n        returns (uint256 balance)\n    {\n        // balance is always with token cToken decimals\n        ICERC20 cToken = _getCTokenFor(_bAsset);\n        balance = _checkBalance(cToken);\n\n        emit CurrentBalance(_bAsset, balance);\n    }\n\n    uint256 bal;\n    // Inject custom balance\n    function setCustomBalance(uint256 _bal) external {\n        bal = _bal;\n    }\n\n    function checkBalance(address /*_bAsset*/)\n        external\n        returns (uint256 balance)\n    {\n        balance = bal;\n    }\n\n}",
  "sourcePath": "/Volumes/sdxc/ETHEREUM/CODE/mStable-v1-edit/contracts/z_mocks/mix/platform-integrations/MockCompoundIntegration.sol",
  "compiler": {
    "name": "solc",
    "version": "0.5.16+commit.9c3226ce.Emscripten.clang"
  },
  "schemaVersion": "3.1.0",
  "updatedAt": "2021-03-11T05:43:17.019Z",
  "devdoc": {
    "methods": {
      "checkBalance(address)": {
        "details": "Get the total bAsset value held in the platform     This includes any interest that was generated since depositing     Compound exchange rate between the cToken and bAsset gradually increases,     causing the cToken to be worth more corresponding bAsset.",
        "params": {
          "_bAsset": "Address of the bAsset"
        },
        "return": "balance    Total value of the bAsset in the platform"
      },
      "deposit(address,uint256,bool)": {
        "details": "Deposit a quantity of bAsset into the platform. Credited cTokens     remain here in the vault. Can only be called by whitelisted addresses     (mIx and corresponding BasketManager)",
        "params": {
          "_amount": "Units of bAsset to deposit",
          "_bAsset": "Address for the bAsset",
          "_hasTxFee": "Flag that signals if an xfer fee is charged on bAsset"
        },
        "return": "quantityDeposited   Quantity of bAsset that entered the platform"
      },
      "initialize(address,address[],address,address[],address[])": {
        "details": "Initialization function for upgradable proxy contract.     This function should be called via Proxy just after contract deployment.",
        "params": {
          "_bAssets": "Addresses of initial supported bAssets",
          "_nexus": "Address of the Nexus",
          "_pTokens": "Platform Token corresponding addresses",
          "_platformAddress": "Generic platform address",
          "_whitelisted": "Whitelisted addresses for vault access"
        }
      },
      "reApproveAllTokens()": {
        "details": "Re-approve the spending of all bAssets by their corresponding cToken,     if for some reason is it necessary. Only callable through Governance."
      },
      "setPTokenAddress(address,address)": {
        "details": "Provide support for bAsset by passing its pToken address. This method can only be called by the system Governor",
        "params": {
          "_bAsset": "Address for the bAsset",
          "_pToken": "Address for the corresponding platform token"
        }
      },
      "withdraw(address,address,uint256,bool)": {
        "details": "Withdraw a quantity of bAsset from Compound",
        "params": {
          "_amount": "Units of bAsset to withdraw",
          "_bAsset": "Address of the bAsset",
          "_hasTxFee": "Is the bAsset known to have a tx fee?",
          "_receiver": "Address to which the withdrawn bAsset should be sent"
        }
      },
      "withdraw(address,address,uint256,uint256,bool)": {
        "details": "Withdraw a quantity of bAsset from Compound",
        "params": {
          "_amount": "Units of bAsset to withdraw",
          "_bAsset": "Address of the bAsset",
          "_hasTxFee": "Is the bAsset known to have a tx fee?",
          "_receiver": "Address to which the withdrawn bAsset should be sent",
          "_totalAmount": "Total units to pull from lending platform"
        }
      },
      "withdrawRaw(address,address,uint256)": {
        "details": "Withdraw a quantity of bAsset from the cache.",
        "params": {
          "_amount": "Units of bAsset to withdraw",
          "_bAsset": "Address of the bAsset",
          "_receiver": "Address to which the bAsset should be sent"
        }
      }
    }
  },
  "userdoc": {
    "methods": {}
  }
}