{
  "contractName": "MockCToken",
  "abi": [
    {
      "inputs": [
        {
          "internalType": "contract ERC20Detailed",
          "name": "_underlyingToken",
          "type": "address"
        }
      ],
      "payable": false,
      "stateMutability": "nonpayable",
      "type": "constructor"
    },
    {
      "anonymous": false,
      "inputs": [
        {
          "indexed": true,
          "internalType": "address",
          "name": "owner",
          "type": "address"
        },
        {
          "indexed": true,
          "internalType": "address",
          "name": "spender",
          "type": "address"
        },
        {
          "indexed": false,
          "internalType": "uint256",
          "name": "value",
          "type": "uint256"
        }
      ],
      "name": "Approval",
      "type": "event"
    },
    {
      "anonymous": false,
      "inputs": [
        {
          "indexed": true,
          "internalType": "address",
          "name": "account",
          "type": "address"
        }
      ],
      "name": "MinterAdded",
      "type": "event"
    },
    {
      "anonymous": false,
      "inputs": [
        {
          "indexed": true,
          "internalType": "address",
          "name": "account",
          "type": "address"
        }
      ],
      "name": "MinterRemoved",
      "type": "event"
    },
    {
      "anonymous": false,
      "inputs": [
        {
          "indexed": true,
          "internalType": "address",
          "name": "from",
          "type": "address"
        },
        {
          "indexed": true,
          "internalType": "address",
          "name": "to",
          "type": "address"
        },
        {
          "indexed": false,
          "internalType": "uint256",
          "name": "value",
          "type": "uint256"
        }
      ],
      "name": "Transfer",
      "type": "event"
    },
    {
      "constant": false,
      "inputs": [
        {
          "internalType": "address",
          "name": "account",
          "type": "address"
        }
      ],
      "name": "addMinter",
      "outputs": [],
      "payable": false,
      "stateMutability": "nonpayable",
      "type": "function"
    },
    {
      "constant": true,
      "inputs": [
        {
          "internalType": "address",
          "name": "owner",
          "type": "address"
        },
        {
          "internalType": "address",
          "name": "spender",
          "type": "address"
        }
      ],
      "name": "allowance",
      "outputs": [
        {
          "internalType": "uint256",
          "name": "",
          "type": "uint256"
        }
      ],
      "payable": false,
      "stateMutability": "view",
      "type": "function"
    },
    {
      "constant": false,
      "inputs": [
        {
          "internalType": "address",
          "name": "spender",
          "type": "address"
        },
        {
          "internalType": "uint256",
          "name": "amount",
          "type": "uint256"
        }
      ],
      "name": "approve",
      "outputs": [
        {
          "internalType": "bool",
          "name": "",
          "type": "bool"
        }
      ],
      "payable": false,
      "stateMutability": "nonpayable",
      "type": "function"
    },
    {
      "constant": true,
      "inputs": [
        {
          "internalType": "address",
          "name": "account",
          "type": "address"
        }
      ],
      "name": "balanceOf",
      "outputs": [
        {
          "internalType": "uint256",
          "name": "",
          "type": "uint256"
        }
      ],
      "payable": false,
      "stateMutability": "view",
      "type": "function"
    },
    {
      "constant": true,
      "inputs": [],
      "name": "decimals",
      "outputs": [
        {
          "internalType": "uint8",
          "name": "",
          "type": "uint8"
        }
      ],
      "payable": false,
      "stateMutability": "view",
      "type": "function"
    },
    {
      "constant": false,
      "inputs": [
        {
          "internalType": "address",
          "name": "spender",
          "type": "address"
        },
        {
          "internalType": "uint256",
          "name": "subtractedValue",
          "type": "uint256"
        }
      ],
      "name": "decreaseAllowance",
      "outputs": [
        {
          "internalType": "bool",
          "name": "",
          "type": "bool"
        }
      ],
      "payable": false,
      "stateMutability": "nonpayable",
      "type": "function"
    },
    {
      "constant": false,
      "inputs": [
        {
          "internalType": "address",
          "name": "spender",
          "type": "address"
        },
        {
          "internalType": "uint256",
          "name": "addedValue",
          "type": "uint256"
        }
      ],
      "name": "increaseAllowance",
      "outputs": [
        {
          "internalType": "bool",
          "name": "",
          "type": "bool"
        }
      ],
      "payable": false,
      "stateMutability": "nonpayable",
      "type": "function"
    },
    {
      "constant": true,
      "inputs": [
        {
          "internalType": "address",
          "name": "account",
          "type": "address"
        }
      ],
      "name": "isMinter",
      "outputs": [
        {
          "internalType": "bool",
          "name": "",
          "type": "bool"
        }
      ],
      "payable": false,
      "stateMutability": "view",
      "type": "function"
    },
    {
      "constant": true,
      "inputs": [],
      "name": "name",
      "outputs": [
        {
          "internalType": "string",
          "name": "",
          "type": "string"
        }
      ],
      "payable": false,
      "stateMutability": "view",
      "type": "function"
    },
    {
      "constant": false,
      "inputs": [],
      "name": "renounceMinter",
      "outputs": [],
      "payable": false,
      "stateMutability": "nonpayable",
      "type": "function"
    },
    {
      "constant": true,
      "inputs": [],
      "name": "symbol",
      "outputs": [
        {
          "internalType": "string",
          "name": "",
          "type": "string"
        }
      ],
      "payable": false,
      "stateMutability": "view",
      "type": "function"
    },
    {
      "constant": true,
      "inputs": [],
      "name": "totalSupply",
      "outputs": [
        {
          "internalType": "uint256",
          "name": "",
          "type": "uint256"
        }
      ],
      "payable": false,
      "stateMutability": "view",
      "type": "function"
    },
    {
      "constant": false,
      "inputs": [
        {
          "internalType": "address",
          "name": "recipient",
          "type": "address"
        },
        {
          "internalType": "uint256",
          "name": "amount",
          "type": "uint256"
        }
      ],
      "name": "transfer",
      "outputs": [
        {
          "internalType": "bool",
          "name": "",
          "type": "bool"
        }
      ],
      "payable": false,
      "stateMutability": "nonpayable",
      "type": "function"
    },
    {
      "constant": false,
      "inputs": [
        {
          "internalType": "address",
          "name": "sender",
          "type": "address"
        },
        {
          "internalType": "address",
          "name": "recipient",
          "type": "address"
        },
        {
          "internalType": "uint256",
          "name": "amount",
          "type": "uint256"
        }
      ],
      "name": "transferFrom",
      "outputs": [
        {
          "internalType": "bool",
          "name": "",
          "type": "bool"
        }
      ],
      "payable": false,
      "stateMutability": "nonpayable",
      "type": "function"
    },
    {
      "constant": true,
      "inputs": [],
      "name": "underlyingToken",
      "outputs": [
        {
          "internalType": "contract IERC20",
          "name": "",
          "type": "address"
        }
      ],
      "payable": false,
      "stateMutability": "view",
      "type": "function"
    },
    {
      "constant": false,
      "inputs": [
        {
          "internalType": "address",
          "name": "account",
          "type": "address"
        },
        {
          "internalType": "uint256",
          "name": "amount",
          "type": "uint256"
        }
      ],
      "name": "mint",
      "outputs": [
        {
          "internalType": "bool",
          "name": "",
          "type": "bool"
        }
      ],
      "payable": false,
      "stateMutability": "nonpayable",
      "type": "function"
    },
    {
      "constant": false,
      "inputs": [
        {
          "internalType": "uint256",
          "name": "mintAmount",
          "type": "uint256"
        }
      ],
      "name": "mint",
      "outputs": [
        {
          "internalType": "uint256",
          "name": "",
          "type": "uint256"
        }
      ],
      "payable": false,
      "stateMutability": "nonpayable",
      "type": "function"
    },
    {
      "constant": false,
      "inputs": [
        {
          "internalType": "uint256",
          "name": "redeemAmount",
          "type": "uint256"
        }
      ],
      "name": "redeemUnderlying",
      "outputs": [
        {
          "internalType": "uint256",
          "name": "",
          "type": "uint256"
        }
      ],
      "payable": false,
      "stateMutability": "nonpayable",
      "type": "function"
    },
    {
      "constant": false,
      "inputs": [
        {
          "internalType": "address",
          "name": "owner",
          "type": "address"
        }
      ],
      "name": "balanceOfUnderlying",
      "outputs": [
        {
          "internalType": "uint256",
          "name": "",
          "type": "uint256"
        }
      ],
      "payable": false,
      "stateMutability": "nonpayable",
      "type": "function"
    },
    {
      "constant": true,
      "inputs": [],
      "name": "exchangeRateStored",
      "outputs": [
        {
          "internalType": "uint256",
          "name": "",
          "type": "uint256"
        }
      ],
      "payable": false,
      "stateMutability": "view",
      "type": "function"
    }
  ],
  "bytecode": "0x60806040523480156200001157600080fd5b50604051620018dd380380620018dd833981810160405260208110156200003757600080fd5b50516040805180820182526005815264634d6f636b60d81b60208281019182528351808501909452600380855262634d4b60e81b91850191909152825192939260089262000086929162000301565b5081516200009c90600490602085019062000301565b506005805460ff191660ff9290921691909117905550620000d19050620000c2620001b4565b6001600160e01b03620001b916565b6000816001600160a01b031663313ce5676040518163ffffffff1660e01b815260040160206040518083038186803b1580156200010d57600080fd5b505afa15801562000122573d6000803e3d6000fd5b505050506040513d60208110156200013957600080fd5b50519050600860ff821611156200015d57600881810160ff16600a0a90556200018d565b60088160ff161015620001805780600a0160ff16600a0a6008819055506200018d565b670de0b6b3a76400006008555b50600780546001600160a01b0319166001600160a01b0392909216919091179055620003a3565b335b90565b620001d48160066200020b60201b620011ae1790919060201c565b6040516001600160a01b038216907f6ae172837ea30b801fbfcdd4108aa1d5bf8ff775444fd70256b44e6bf3dfc3f690600090a250565b6200022082826001600160e01b036200029816565b1562000273576040805162461bcd60e51b815260206004820152601f60248201527f526f6c65733a206163636f756e7420616c72656164792068617320726f6c6500604482015290519081900360640190fd5b6001600160a01b0316600090815260209190915260409020805460ff19166001179055565b60006001600160a01b038216620002e15760405162461bcd60e51b8152600401808060200182810382526022815260200180620018bb6022913960400191505060405180910390fd5b506001600160a01b03166000908152602091909152604090205460ff1690565b828054600181600116156101000203166002900490600052602060002090601f016020900481019282601f106200034457805160ff191683800117855562000374565b8280016001018555821562000374579182015b828111156200037457825182559160200191906001019062000357565b506200038292915062000386565b5090565b620001b691905b808211156200038257600081556001016200038d565b61150880620003b36000396000f3fe608060405234801561001057600080fd5b506004361061012c5760003560e01c806370a08231116100ad578063a0712d6811610071578063a0712d6814610381578063a457c2d71461039e578063a9059cbb146103ca578063aa271e1a146103f6578063dd62ed3e1461041c5761012c565b806370a0823114610306578063852a12e31461032c57806395d89b4114610349578063983b2d561461035157806398650275146103795761012c565b80632495a599116100f45780632495a59914610246578063313ce5671461026a57806339509351146102885780633af9e669146102b457806340c10f19146102da5761012c565b806306fdde0314610131578063095ea7b3146101ae57806318160ddd146101ee578063182df0f51461020857806323b872dd14610210575b600080fd5b61013961044a565b6040805160208082528351818301528351919283929083019185019080838360005b8381101561017357818101518382015260200161015b565b50505050905090810190601f1680156101a05780820380516001836020036101000a031916815260200191505b509250505060405180910390f35b6101da600480360360408110156101c457600080fd5b506001600160a01b0381351690602001356104e0565b604080519115158252519081900360200190f35b6101f66104fe565b60408051918252519081900360200190f35b6101f6610504565b6101da6004803603606081101561022657600080fd5b506001600160a01b0381358116916020810135909116906040013561050a565b61024e610597565b604080516001600160a01b039092168252519081900360200190f35b6102726105a6565b6040805160ff9092168252519081900360200190f35b6101da6004803603604081101561029e57600080fd5b506001600160a01b0381351690602001356105af565b6101f6600480360360208110156102ca57600080fd5b50356001600160a01b0316610603565b6101da600480360360408110156102f057600080fd5b506001600160a01b038135169060200135610698565b6101f66004803603602081101561031c57600080fd5b50356001600160a01b03166106ef565b6101f66004803603602081101561034257600080fd5b503561070a565b6101396107d1565b6103776004803603602081101561036757600080fd5b50356001600160a01b0316610832565b005b610377610884565b6101f66004803603602081101561039757600080fd5b5035610896565b6101da600480360360408110156103b457600080fd5b506001600160a01b038135169060200135610952565b6101da600480360360408110156103e057600080fd5b506001600160a01b0381351690602001356109c0565b6101da6004803603602081101561040c57600080fd5b50356001600160a01b03166109d4565b6101f66004803603604081101561043257600080fd5b506001600160a01b03813581169160200135166109e7565b60038054604080516020601f60026000196101006001881615020190951694909404938401819004810282018101909252828152606093909290918301828280156104d65780601f106104ab576101008083540402835291602001916104d6565b820191906000526020600020905b8154815290600101906020018083116104b957829003601f168201915b5050505050905090565b60006104f46104ed610a12565b8484610a16565b5060015b92915050565b60025490565b60085490565b6000610517848484610b02565b61058d84610523610a12565b610588856040518060600160405280602881526020016113fb602891396001600160a01b038a16600090815260016020526040812090610561610a12565b6001600160a01b03168152602081019190915260400160002054919063ffffffff610c5e16565b610a16565b5060019392505050565b6007546001600160a01b031681565b60055460ff1690565b60006104f46105bc610a12565b8461058885600160006105cd610a12565b6001600160a01b03908116825260208083019390935260409182016000908120918c16815292529020549063ffffffff610cf516565b604080516370a0823160e01b81526001600160a01b03831660048201529051600091829130916370a08231916024808301926020929190829003018186803b15801561064e57600080fd5b505afa158015610662573d6000803e3d6000fd5b505050506040513d602081101561067857600080fd5b505160085490915061069190829063ffffffff610d4f16565b9392505050565b60006106aa6106a5610a12565b6109d4565b6106e55760405162461bcd60e51b81526004018080602001828103825260308152602001806113896030913960400191505060405180910390fd5b6104f48383610d64565b6001600160a01b031660009081526020819052604090205490565b6000610714610e54565b5060085460009061073c9061073085600163ffffffff610cf516565b9063ffffffff610e7b16565b90506107483382610eb0565b6007546040805163a9059cbb60e01b81523360048201526024810186905290516001600160a01b039092169163a9059cbb916044808201926020929091908290030181600087803b15801561079c57600080fd5b505af11580156107b0573d6000803e3d6000fd5b505050506040513d60208110156107c657600080fd5b506000949350505050565b60048054604080516020601f60026000196101006001881615020190951694909404938401819004810282018101909252828152606093909290918301828280156104d65780601f106104ab576101008083540402835291602001916104d6565b61083d6106a5610a12565b6108785760405162461bcd60e51b81526004018080602001828103825260308152602001806113896030913960400191505060405180910390fd5b61088181610fac565b50565b61089461088f610a12565b610ff4565b565b60006108a0610e54565b50600754604080516323b872dd60e01b81523360048201523060248201526044810185905290516001600160a01b03909216916323b872dd916064808201926020929091908290030181600087803b1580156108fb57600080fd5b505af115801561090f573d6000803e3d6000fd5b505050506040513d602081101561092557600080fd5b505060085461094a9033906109459061073086600163ffffffff610cf516565b610d64565b506000919050565b60006104f461095f610a12565b84610588856040518060600160405280602581526020016114af6025913960016000610989610a12565b6001600160a01b03908116825260208083019390935260409182016000908120918d1681529252902054919063ffffffff610c5e16565b60006104f46109cd610a12565b8484610b02565b60006104f860068363ffffffff61103c16565b6001600160a01b03918216600090815260016020908152604080832093909416825291909152205490565b3390565b6001600160a01b038316610a5b5760405162461bcd60e51b815260040180806020018281038252602481526020018061148b6024913960400191505060405180910390fd5b6001600160a01b038216610aa05760405162461bcd60e51b81526004018080602001828103825260228152602001806113416022913960400191505060405180910390fd5b6001600160a01b03808416600081815260016020908152604080832094871680845294825291829020859055815185815291517f8c5be1e5ebec7d5bd14f71427d1e84f3dd0314c0f7b2291e5b200ac8c7c3b9259281900390910190a3505050565b6001600160a01b038316610b475760405162461bcd60e51b81526004018080602001828103825260258152602001806114666025913960400191505060405180910390fd5b6001600160a01b038216610b8c5760405162461bcd60e51b81526004018080602001828103825260238152602001806112fc6023913960400191505060405180910390fd5b610bcf81604051806060016040528060268152602001611363602691396001600160a01b038616600090815260208190526040902054919063ffffffff610c5e16565b6001600160a01b038085166000908152602081905260408082209390935590841681522054610c04908263ffffffff610cf516565b6001600160a01b038084166000818152602081815260409182902094909455805185815290519193928716927fddf252ad1be2c89b69c2b068fc378daa952ba7f163c4a11628f55a4df523b3ef92918290030190a3505050565b60008184841115610ced5760405162461bcd60e51b81526004018080602001828103825283818151815260200191508051906020019080838360005b83811015610cb2578181015183820152602001610c9a565b50505050905090810190601f168015610cdf5780820380516001836020036101000a031916815260200191505b509250505060405180910390fd5b505050900390565b600082820183811015610691576040805162461bcd60e51b815260206004820152601b60248201527f536166654d6174683a206164646974696f6e206f766572666c6f770000000000604482015290519081900360640190fd5b60006106918383670de0b6b3a76400006110a3565b6001600160a01b038216610dbf576040805162461bcd60e51b815260206004820152601f60248201527f45524332303a206d696e7420746f20746865207a65726f206164647265737300604482015290519081900360640190fd5b600254610dd2908263ffffffff610cf516565b6002556001600160a01b038216600090815260208190526040902054610dfe908263ffffffff610cf516565b6001600160a01b0383166000818152602081815260408083209490945583518581529351929391927fddf252ad1be2c89b69c2b068fc378daa952ba7f163c4a11628f55a4df523b3ef9281900390910190a35050565b600854600090670de0c8e44449400090610e74908263ffffffff610d4f16565b6008555090565b600080610e9684670de0b6b3a764000063ffffffff6110d116565b9050610ea8818463ffffffff61112a16565b949350505050565b6001600160a01b038216610ef55760405162461bcd60e51b81526004018080602001828103825260218152602001806114456021913960400191505060405180910390fd5b610f388160405180606001604052806022815260200161131f602291396001600160a01b038516600090815260208190526040902054919063ffffffff610c5e16565b6001600160a01b038316600090815260208190526040902055600254610f64908263ffffffff61116c16565b6002556040805182815290516000916001600160a01b038516917fddf252ad1be2c89b69c2b068fc378daa952ba7f163c4a11628f55a4df523b3ef9181900360200190a35050565b610fbd60068263ffffffff6111ae16565b6040516001600160a01b038216907f6ae172837ea30b801fbfcdd4108aa1d5bf8ff775444fd70256b44e6bf3dfc3f690600090a250565b61100560068263ffffffff61122f16565b6040516001600160a01b038216907fe94479a9f7e1952cc78f2d6baab678adc1b772d936c6583def489e524cb6669290600090a250565b60006001600160a01b0382166110835760405162461bcd60e51b81526004018080602001828103825260228152602001806114236022913960400191505060405180910390fd5b506001600160a01b03166000908152602091909152604090205460ff1690565b6000806110b6858563ffffffff6110d116565b90506110c8818463ffffffff61112a16565b95945050505050565b6000826110e0575060006104f8565b828202828482816110ed57fe5b04146106915760405162461bcd60e51b81526004018080602001828103825260218152602001806113da6021913960400191505060405180910390fd5b600061069183836040518060400160405280601a81526020017f536166654d6174683a206469766973696f6e206279207a65726f000000000000815250611296565b600061069183836040518060400160405280601e81526020017f536166654d6174683a207375627472616374696f6e206f766572666c6f770000815250610c5e565b6111b8828261103c565b1561120a576040805162461bcd60e51b815260206004820152601f60248201527f526f6c65733a206163636f756e7420616c72656164792068617320726f6c6500604482015290519081900360640190fd5b6001600160a01b0316600090815260209190915260409020805460ff19166001179055565b611239828261103c565b6112745760405162461bcd60e51b81526004018080602001828103825260218152602001806113b96021913960400191505060405180910390fd5b6001600160a01b0316600090815260209190915260409020805460ff19169055565b600081836112e55760405162461bcd60e51b8152602060048201818152835160248401528351909283926044909101919085019080838360008315610cb2578181015183820152602001610c9a565b5060008385816112f157fe5b049594505050505056fe45524332303a207472616e7366657220746f20746865207a65726f206164647265737345524332303a206275726e20616d6f756e7420657863656564732062616c616e636545524332303a20617070726f766520746f20746865207a65726f206164647265737345524332303a207472616e7366657220616d6f756e7420657863656564732062616c616e63654d696e746572526f6c653a2063616c6c657220646f6573206e6f74206861766520746865204d696e74657220726f6c65526f6c65733a206163636f756e7420646f6573206e6f74206861766520726f6c65536166654d6174683a206d756c7469706c69636174696f6e206f766572666c6f7745524332303a207472616e7366657220616d6f756e74206578636565647320616c6c6f77616e6365526f6c65733a206163636f756e7420697320746865207a65726f206164647265737345524332303a206275726e2066726f6d20746865207a65726f206164647265737345524332303a207472616e736665722066726f6d20746865207a65726f206164647265737345524332303a20617070726f76652066726f6d20746865207a65726f206164647265737345524332303a2064656372656173656420616c6c6f77616e63652062656c6f77207a65726fa265627a7a72315820dfa996f490bfa94bec33ddfbf1847458e4c8fb824d4d045bc7d223238b1beed464736f6c63430005100032526f6c65733a206163636f756e7420697320746865207a65726f2061646472657373",
  "source": "pragma solidity 0.5.16;\n\nimport { ICERC20 } from \"../../../mix/platform-integrations/ICompound.sol\";\n\nimport { IERC20, ERC20, ERC20Mintable } from \"@openzeppelin/contracts/token/ERC20/ERC20Mintable.sol\";\nimport { ERC20Detailed } from \"@openzeppelin/contracts/token/ERC20/ERC20Detailed.sol\";\nimport { StableMath } from \"../../../shared/StableMath.sol\";\n\n\n// 1. User calls 'getLendingPool'\n// 2. User calls 'deposit' (Aave)\n//  - Deposit their underlying\n//  - Mint aToken to them\n// 3. User calls redeem (aToken)\n//  - Retrieve their aToken\n//  - Return equal amount of underlying\n\ncontract MockCToken is ICERC20, ERC20, ERC20Detailed, ERC20Mintable {\n\n    using StableMath for uint;\n\n    IERC20 public underlyingToken;\n    // underlying = cToken * exchangeRate\n    // cToken = underlying / exchangeRate\n    uint256 exchangeRate;\n\n    constructor(ERC20Detailed _underlyingToken) public ERC20Detailed(\"cMock\", \"cMK\", 8) {\n        uint8 underlyingDecimals = _underlyingToken.decimals();\n        // if has 18 dp, exchange rate should be 1e26\n        // if has 8 dp, echange rate should be 1e18\n        if(underlyingDecimals > 8) {\n            exchangeRate = 10 ** uint256(18 + underlyingDecimals - 10);\n        } else if(underlyingDecimals < 8) {\n            // e.g. 18-8+6 = 16\n            exchangeRate = 10 ** uint256(18 - 8 + underlyingDecimals);\n        } else {\n            exchangeRate = 1e18;\n        }\n        underlyingToken = _underlyingToken;\n    }\n\n\n    function mint(uint mintAmount) external returns (uint) {\n        // Pretend to inflate the cTokenExchangeRate\n        updateExchangeRate();\n        // Take their reserve\n        underlyingToken.transferFrom(msg.sender, address(this), mintAmount);\n        // Credit them with cToken\n        _mint(msg.sender, mintAmount.add(1).divPrecisely(exchangeRate));\n        return 0;\n    }\n\n    function redeemUnderlying(uint redeemAmount) external returns (uint) {\n        // Pretend to inflate the cTokenExchangeRate\n        updateExchangeRate();\n\n        uint256 cTokens = redeemAmount.add(1).divPrecisely(exchangeRate);\n        // Burn the cToken\n        _burn(msg.sender, cTokens);\n        // Send them back their reserve\n        underlyingToken.transfer(msg.sender, redeemAmount);\n        return 0;\n    }\n    \n    function balanceOfUnderlying(address owner) external returns (uint) {\n        // updateExchangeRate();\n        uint256 cTokenBal = this.balanceOf(owner);\n        return cTokenBal.mulTruncate(exchangeRate);\n    }\n\n    function updateExchangeRate() internal returns (uint256){\n        uint256 factor = 100002 * (10**13); // 0.002%\n        exchangeRate = exchangeRate.mulTruncate(factor);\n    }\n\n    function exchangeRateStored() external view returns (uint) {\n        return exchangeRate;\n    }\n}\n",
  "sourcePath": "/Volumes/sdxc/ETHEREUM/CODE/mStable-v1-edit/contracts/z_mocks/mix/platform-integrations/MockCToken.sol",
  "compiler": {
    "name": "solc",
    "version": "0.5.16+commit.9c3226ce.Emscripten.clang"
  },
  "schemaVersion": "3.1.0",
  "updatedAt": "2021-03-11T05:43:17.008Z",
  "devdoc": {
    "methods": {
      "allowance(address,address)": {
        "details": "See {IERC20-allowance}."
      },
      "approve(address,uint256)": {
        "details": "See {IERC20-approve}.     * Requirements:     * - `spender` cannot be the zero address."
      },
      "balanceOf(address)": {
        "details": "See {IERC20-balanceOf}."
      },
      "decimals()": {
        "details": "Returns the number of decimals used to get its user representation. For example, if `decimals` equals `2`, a balance of `505` tokens should be displayed to a user as `5,05` (`505 / 10 ** 2`).     * Tokens usually opt for a value of 18, imitating the relationship between Ether and Wei.     * NOTE: This information is only used for _display_ purposes: it in no way affects any of the arithmetic of the contract, including {IERC20-balanceOf} and {IERC20-transfer}."
      },
      "decreaseAllowance(address,uint256)": {
        "details": "Atomically decreases the allowance granted to `spender` by the caller.     * This is an alternative to {approve} that can be used as a mitigation for problems described in {IERC20-approve}.     * Emits an {Approval} event indicating the updated allowance.     * Requirements:     * - `spender` cannot be the zero address. - `spender` must have allowance for the caller of at least `subtractedValue`."
      },
      "increaseAllowance(address,uint256)": {
        "details": "Atomically increases the allowance granted to `spender` by the caller.     * This is an alternative to {approve} that can be used as a mitigation for problems described in {IERC20-approve}.     * Emits an {Approval} event indicating the updated allowance.     * Requirements:     * - `spender` cannot be the zero address."
      },
      "mint(address,uint256)": {
        "details": "See {ERC20-_mint}.     * Requirements:     * - the caller must have the {MinterRole}."
      },
      "name()": {
        "details": "Returns the name of the token."
      },
      "symbol()": {
        "details": "Returns the symbol of the token, usually a shorter version of the name."
      },
      "totalSupply()": {
        "details": "See {IERC20-totalSupply}."
      },
      "transfer(address,uint256)": {
        "details": "See {IERC20-transfer}.     * Requirements:     * - `recipient` cannot be the zero address. - the caller must have a balance of at least `amount`."
      },
      "transferFrom(address,address,uint256)": {
        "details": "See {IERC20-transferFrom}.     * Emits an {Approval} event indicating the updated allowance. This is not required by the EIP. See the note at the beginning of {ERC20};     * Requirements: - `sender` and `recipient` cannot be the zero address. - `sender` must have a balance of at least `amount`. - the caller must have allowance for `sender`'s tokens of at least `amount`."
      }
    }
  },
  "userdoc": {
    "methods": {}
  }
}