{
  "contractName": "MockVaultConnector",
  "abi": [
    {
      "inputs": [
        {
          "internalType": "address",
          "name": "_save",
          "type": "address"
        },
        {
          "internalType": "address",
          "name": "_mUSD",
          "type": "address"
        }
      ],
      "payable": false,
      "stateMutability": "nonpayable",
      "type": "constructor"
    },
    {
      "constant": false,
      "inputs": [],
      "name": "poke",
      "outputs": [],
      "payable": false,
      "stateMutability": "nonpayable",
      "type": "function"
    },
    {
      "constant": false,
      "inputs": [
        {
          "internalType": "uint256",
          "name": "_amount",
          "type": "uint256"
        }
      ],
      "name": "deposit",
      "outputs": [],
      "payable": false,
      "stateMutability": "nonpayable",
      "type": "function"
    },
    {
      "constant": false,
      "inputs": [
        {
          "internalType": "uint256",
          "name": "_amount",
          "type": "uint256"
        }
      ],
      "name": "withdraw",
      "outputs": [],
      "payable": false,
      "stateMutability": "nonpayable",
      "type": "function"
    },
    {
      "constant": false,
      "inputs": [],
      "name": "withdrawAll",
      "outputs": [],
      "payable": false,
      "stateMutability": "nonpayable",
      "type": "function"
    },
    {
      "constant": true,
      "inputs": [],
      "name": "checkBalance",
      "outputs": [
        {
          "internalType": "uint256",
          "name": "",
          "type": "uint256"
        }
      ],
      "payable": false,
      "stateMutability": "view",
      "type": "function"
    }
  ],
  "bytecode": "0x608060405234801561001057600080fd5b506040516108923803806108928339818101604052604081101561003357600080fd5b508051602090910151600080546001600160a01b039384166001600160a01b031991821617909155600180549390921692169190911790556108188061007a6000396000f3fe608060405234801561001057600080fd5b50600436106100575760003560e01c8063181783581461005c5780632e1a7d4d14610066578063853828b614610083578063b6b55f251461008b578063c71daccb146100a8575b600080fd5b6100646100c2565b005b6100646004803603602081101561007c57600080fd5b5035610127565b6100646102be565b610064600480360360208110156100a157600080fd5b50356103cd565b6100b0610518565b60408051918252519081900360200190f35b6004544290156101225760006100e36004548361052790919063ffffffff16565b905060006100fc826407620d06ef63ffffffff61057216565b90506000610115826003546105cb90919063ffffffff16565b6003805490910190555050505b600455565b6000546001600160a01b03163314610180576040805162461bcd60e51b81526020600482015260176024820152764f6e6c7920534156452063616e2063616c6c207468697360481b604482015290519081900360640190fd5b600061018a6105e0565b905061019c818363ffffffff61052716565b600255600154600080546040805163a9059cbb60e01b81526001600160a01b039283166004820152602481018790529051919093169263a9059cbb9260448083019360209390929083900390910190829087803b1580156101fc57600080fd5b505af1158015610210573d6000803e3d6000fd5b505050506040513d602081101561022657600080fd5b5061024d90506103e8610241846103ed63ffffffff61057216565b9063ffffffff6105fc16565b60038054919091039055506004544290156102b85760006102796004548361052790919063ffffffff16565b90506000610292826407620d06ef63ffffffff61057216565b905060006102ab826003546105cb90919063ffffffff16565b6003805490910190555050505b60045550565b6000546001600160a01b03163314610317576040805162461bcd60e51b81526020600482015260176024820152764f6e6c7920534156452063616e2063616c6c207468697360481b604482015290519081900360640190fd5b6000600281905560015481546003546040805163a9059cbb60e01b81526001600160a01b039384166004820152602481019290925251919092169263a9059cbb92604480820193602093909283900390910190829087803b15801561037b57600080fd5b505af115801561038f573d6000803e3d6000fd5b505050506040513d60208110156103a557600080fd5b505060006003556004544290156101225760006100e36004548361052790919063ffffffff16565b6000546001600160a01b03163314610426576040805162461bcd60e51b81526020600482015260176024820152764f6e6c7920534156452063616e2063616c6c207468697360481b604482015290519081900360640190fd5b60006104306105e0565b9050610442818363ffffffff61063e16565b60025560015460008054604080516323b872dd60e01b81526001600160a01b03928316600482015230602482015260448101879052905191909316926323b872dd9260648083019360209390929083900390910190829087803b1580156104a857600080fd5b505af11580156104bc573d6000803e3d6000fd5b505050506040513d60208110156104d257600080fd5b506104ed90506103e8610241846103e363ffffffff61057216565b600380549091019055506004544290156102b85760006102796004548361052790919063ffffffff16565b60006105226105e0565b905090565b600061056983836040518060400160405280601e81526020017f536166654d6174683a207375627472616374696f6e206f766572666c6f770000815250610698565b90505b92915050565b6000826105815750600061056c565b8282028284828161058e57fe5b04146105695760405162461bcd60e51b81526004018080602001828103825260218152602001806107c36021913960400191505060405180910390fd5b60006105698383670de0b6b3a764000061072f565b6000600354600254116105f557600354610522565b5060025490565b600061056983836040518060400160405280601a81526020017f536166654d6174683a206469766973696f6e206279207a65726f00000000000081525061075d565b600082820183811015610569576040805162461bcd60e51b815260206004820152601b60248201527f536166654d6174683a206164646974696f6e206f766572666c6f770000000000604482015290519081900360640190fd5b600081848411156107275760405162461bcd60e51b81526004018080602001828103825283818151815260200191508051906020019080838360005b838110156106ec5781810151838201526020016106d4565b50505050905090810190601f1680156107195780820380516001836020036101000a031916815260200191505b509250505060405180910390fd5b505050900390565b600080610742858563ffffffff61057216565b9050610754818463ffffffff6105fc16565b95945050505050565b600081836107ac5760405162461bcd60e51b81526020600482018181528351602484015283519092839260449091019190850190808383600083156106ec5781810151838201526020016106d4565b5060008385816107b857fe5b049594505050505056fe536166654d6174683a206d756c7469706c69636174696f6e206f766572666c6f77a265627a7a7231582091dcc9eba8b38ad85b7d3f6c4a6d487c0d0043ce1aa5dfdcd6d59a562052dce264736f6c63430005100032",
  "source": "pragma solidity 0.5.16;\n\nimport { IERC20, ERC20 } from \"@openzeppelin/contracts/token/ERC20/ERC20.sol\";\nimport { IConnector } from \"../../savings/peripheral/IConnector.sol\";\nimport { StableMath, SafeMath } from \"../../shared/StableMath.sol\";\n\n\n// Use this as a template for any volatile vault implementations, to ensure\n// connector invariant is held\ncontract MockVaultConnector is IConnector {\n\n    using StableMath for uint256;\n    using SafeMath for uint256;\n\n    address save;\n    address mUSD;\n\n    uint256 trackedB;\n    uint256 realB;\n    uint256 lastAccrual;\n    uint256 constant perSecond = 31709791983;\n\n    constructor(\n        address _save,\n        address _mUSD\n    ) public {\n        save = _save;\n        mUSD = _mUSD;\n    }\n\n    modifier onlySave() {\n        require(save == msg.sender, \"Only SAVE can call this\");\n        _;\n    }\n\n    // realBalance\n    // trackedBalance\n\n    // step 1: deposit 100\n    //  - log trackedB amount\n    // step 2: check Balance\n    //  - get real balance\n    //  - trackedB > realB ? trackedB : realB\n    // step 3: realB goes to 100.1\n    // step 4: withdraw 10\n    //  - checkBalance must be >= 90.1 afterwards\n    //  - trackedB = 90.1\n    //  - trackedB > realB ? trackedB : realB\n    // stpe 5: withdraw 10\n    //  - checkedBalance must be >= 80.1 after\n    //  - trackedB = 80.1\n\n    modifier _accrueValue() {\n        _;\n        uint256 currentTime = block.timestamp;\n        if(lastAccrual != 0){\n            uint256 timeDelta = currentTime.sub(lastAccrual);\n            uint256 interest = timeDelta.mul(perSecond);\n            uint256 newValue = realB.mulTruncate(interest);\n            realB += newValue;\n        }\n        lastAccrual = currentTime;\n    }\n\n    function poke() external _accrueValue {\n\n    }\n\n    function deposit(uint256 _amount) external _accrueValue onlySave {\n        // Mimic the expected external balance here so we can track\n        // the expected resulting balance following the deposit\n        uint256 checkedB = _checkBalanceExt();\n        trackedB = checkedB.add(_amount);\n\n        IERC20(mUSD).transferFrom(save, address(this), _amount);\n        realB += _amount.mul(995).div(1000);\n    }\n\n    function withdraw(uint256 _amount) external _accrueValue onlySave {\n        uint256 checkedB = _checkBalanceExt();\n        trackedB = checkedB.sub(_amount);\n\n        IERC20(mUSD).transfer(save, _amount);\n        realB -= _amount.mul(1005).div(1000);\n    }\n\n    function withdrawAll() external _accrueValue onlySave {\n        trackedB = 0;\n\n        IERC20(mUSD).transfer(save, realB);\n        realB -= realB;\n    }\n\n    function checkBalance() external view returns (uint256) {\n        return _checkBalanceExt();\n    }\n\n    // a call to checkBalance followed by a deposit/withdraw then another checkbalance\n    // will always yield a sideways or increase\n    function _checkBalanceExt() internal view returns (uint256) {\n        return trackedB > realB ? trackedB : realB;\n    }\n}",
  "sourcePath": "/Volumes/sdxc/ETHEREUM/CODE/mStable-v1-edit/contracts/z_mocks/savings/MockVaultConnector.sol",
  "compiler": {
    "name": "solc",
    "version": "0.5.16+commit.9c3226ce.Emscripten.clang"
  },
  "schemaVersion": "3.1.0",
  "updatedAt": "2021-03-11T05:43:17.330Z",
  "devdoc": {
    "methods": {}
  },
  "userdoc": {
    "methods": {}
  }
}