{
  "contractName": "MockNexus",
  "abi": [
    {
      "inputs": [
        {
          "internalType": "address",
          "name": "_governorAddr",
          "type": "address"
        },
        {
          "internalType": "address",
          "name": "_governance",
          "type": "address"
        },
        {
          "internalType": "address",
          "name": "_manager",
          "type": "address"
        }
      ],
      "payable": false,
      "stateMutability": "nonpayable",
      "type": "constructor"
    },
    {
      "anonymous": false,
      "inputs": [
        {
          "indexed": true,
          "internalType": "address",
          "name": "governor",
          "type": "address"
        },
        {
          "indexed": true,
          "internalType": "address",
          "name": "proposed",
          "type": "address"
        }
      ],
      "name": "GovernorChangeCancelled",
      "type": "event"
    },
    {
      "anonymous": false,
      "inputs": [
        {
          "indexed": true,
          "internalType": "address",
          "name": "proposedGovernor",
          "type": "address"
        }
      ],
      "name": "GovernorChangeClaimed",
      "type": "event"
    },
    {
      "anonymous": false,
      "inputs": [
        {
          "indexed": true,
          "internalType": "address",
          "name": "governor",
          "type": "address"
        },
        {
          "indexed": true,
          "internalType": "address",
          "name": "proposed",
          "type": "address"
        }
      ],
      "name": "GovernorChangeRequested",
      "type": "event"
    },
    {
      "anonymous": false,
      "inputs": [
        {
          "indexed": true,
          "internalType": "address",
          "name": "previousGovernor",
          "type": "address"
        },
        {
          "indexed": true,
          "internalType": "address",
          "name": "newGovernor",
          "type": "address"
        }
      ],
      "name": "GovernorChanged",
      "type": "event"
    },
    {
      "anonymous": false,
      "inputs": [
        {
          "indexed": true,
          "internalType": "bytes32",
          "name": "key",
          "type": "bytes32"
        },
        {
          "indexed": false,
          "internalType": "address",
          "name": "addr",
          "type": "address"
        },
        {
          "indexed": false,
          "internalType": "bool",
          "name": "isLocked",
          "type": "bool"
        }
      ],
      "name": "ModuleAdded",
      "type": "event"
    },
    {
      "anonymous": false,
      "inputs": [
        {
          "indexed": true,
          "internalType": "bytes32",
          "name": "key",
          "type": "bytes32"
        }
      ],
      "name": "ModuleCancelled",
      "type": "event"
    },
    {
      "anonymous": false,
      "inputs": [
        {
          "indexed": true,
          "internalType": "bytes32",
          "name": "key",
          "type": "bytes32"
        }
      ],
      "name": "ModuleLockCancelled",
      "type": "event"
    },
    {
      "anonymous": false,
      "inputs": [
        {
          "indexed": true,
          "internalType": "bytes32",
          "name": "key",
          "type": "bytes32"
        }
      ],
      "name": "ModuleLockEnabled",
      "type": "event"
    },
    {
      "anonymous": false,
      "inputs": [
        {
          "indexed": true,
          "internalType": "bytes32",
          "name": "key",
          "type": "bytes32"
        },
        {
          "indexed": false,
          "internalType": "uint256",
          "name": "timestamp",
          "type": "uint256"
        }
      ],
      "name": "ModuleLockRequested",
      "type": "event"
    },
    {
      "anonymous": false,
      "inputs": [
        {
          "indexed": true,
          "internalType": "bytes32",
          "name": "key",
          "type": "bytes32"
        },
        {
          "indexed": false,
          "internalType": "address",
          "name": "addr",
          "type": "address"
        },
        {
          "indexed": false,
          "internalType": "uint256",
          "name": "timestamp",
          "type": "uint256"
        }
      ],
      "name": "ModuleProposed",
      "type": "event"
    },
    {
      "constant": true,
      "inputs": [],
      "name": "UPGRADE_DELAY",
      "outputs": [
        {
          "internalType": "uint256",
          "name": "",
          "type": "uint256"
        }
      ],
      "payable": false,
      "stateMutability": "view",
      "type": "function"
    },
    {
      "constant": false,
      "inputs": [
        {
          "internalType": "bytes32",
          "name": "_key",
          "type": "bytes32"
        }
      ],
      "name": "acceptProposedModule",
      "outputs": [],
      "payable": false,
      "stateMutability": "nonpayable",
      "type": "function"
    },
    {
      "constant": false,
      "inputs": [
        {
          "internalType": "bytes32[]",
          "name": "_keys",
          "type": "bytes32[]"
        }
      ],
      "name": "acceptProposedModules",
      "outputs": [],
      "payable": false,
      "stateMutability": "nonpayable",
      "type": "function"
    },
    {
      "constant": false,
      "inputs": [],
      "name": "cancelGovernorChange",
      "outputs": [],
      "payable": false,
      "stateMutability": "nonpayable",
      "type": "function"
    },
    {
      "constant": false,
      "inputs": [
        {
          "internalType": "bytes32",
          "name": "_key",
          "type": "bytes32"
        }
      ],
      "name": "cancelLockModule",
      "outputs": [],
      "payable": false,
      "stateMutability": "nonpayable",
      "type": "function"
    },
    {
      "constant": false,
      "inputs": [
        {
          "internalType": "bytes32",
          "name": "_key",
          "type": "bytes32"
        }
      ],
      "name": "cancelProposedModule",
      "outputs": [],
      "payable": false,
      "stateMutability": "nonpayable",
      "type": "function"
    },
    {
      "constant": false,
      "inputs": [
        {
          "internalType": "address",
          "name": "",
          "type": "address"
        }
      ],
      "name": "changeGovernor",
      "outputs": [],
      "payable": false,
      "stateMutability": "nonpayable",
      "type": "function"
    },
    {
      "constant": false,
      "inputs": [],
      "name": "claimGovernorChange",
      "outputs": [],
      "payable": false,
      "stateMutability": "nonpayable",
      "type": "function"
    },
    {
      "constant": true,
      "inputs": [],
      "name": "delay",
      "outputs": [
        {
          "internalType": "uint256",
          "name": "",
          "type": "uint256"
        }
      ],
      "payable": false,
      "stateMutability": "view",
      "type": "function"
    },
    {
      "constant": true,
      "inputs": [
        {
          "internalType": "bytes32",
          "name": "_key",
          "type": "bytes32"
        }
      ],
      "name": "getModule",
      "outputs": [
        {
          "internalType": "address",
          "name": "addr",
          "type": "address"
        }
      ],
      "payable": false,
      "stateMutability": "view",
      "type": "function"
    },
    {
      "constant": true,
      "inputs": [],
      "name": "governor",
      "outputs": [
        {
          "internalType": "address",
          "name": "",
          "type": "address"
        }
      ],
      "payable": false,
      "stateMutability": "view",
      "type": "function"
    },
    {
      "constant": false,
      "inputs": [
        {
          "internalType": "bytes32[]",
          "name": "_keys",
          "type": "bytes32[]"
        },
        {
          "internalType": "address[]",
          "name": "_addresses",
          "type": "address[]"
        },
        {
          "internalType": "bool[]",
          "name": "_isLocked",
          "type": "bool[]"
        },
        {
          "internalType": "address",
          "name": "_governorAddr",
          "type": "address"
        }
      ],
      "name": "initialize",
      "outputs": [
        {
          "internalType": "bool",
          "name": "",
          "type": "bool"
        }
      ],
      "payable": false,
      "stateMutability": "nonpayable",
      "type": "function"
    },
    {
      "constant": true,
      "inputs": [],
      "name": "initialized",
      "outputs": [
        {
          "internalType": "bool",
          "name": "",
          "type": "bool"
        }
      ],
      "payable": false,
      "stateMutability": "view",
      "type": "function"
    },
    {
      "constant": true,
      "inputs": [],
      "name": "isGovernor",
      "outputs": [
        {
          "internalType": "bool",
          "name": "",
          "type": "bool"
        }
      ],
      "payable": false,
      "stateMutability": "view",
      "type": "function"
    },
    {
      "constant": false,
      "inputs": [
        {
          "internalType": "bytes32",
          "name": "_key",
          "type": "bytes32"
        }
      ],
      "name": "lockModule",
      "outputs": [],
      "payable": false,
      "stateMutability": "nonpayable",
      "type": "function"
    },
    {
      "constant": true,
      "inputs": [
        {
          "internalType": "bytes32",
          "name": "_key",
          "type": "bytes32"
        }
      ],
      "name": "moduleExists",
      "outputs": [
        {
          "internalType": "bool",
          "name": "",
          "type": "bool"
        }
      ],
      "payable": false,
      "stateMutability": "view",
      "type": "function"
    },
    {
      "constant": true,
      "inputs": [
        {
          "internalType": "bytes32",
          "name": "",
          "type": "bytes32"
        }
      ],
      "name": "modules",
      "outputs": [
        {
          "internalType": "address",
          "name": "addr",
          "type": "address"
        },
        {
          "internalType": "bool",
          "name": "isLocked",
          "type": "bool"
        }
      ],
      "payable": false,
      "stateMutability": "view",
      "type": "function"
    },
    {
      "constant": false,
      "inputs": [
        {
          "internalType": "bytes32",
          "name": "_key",
          "type": "bytes32"
        },
        {
          "internalType": "address",
          "name": "_addr",
          "type": "address"
        }
      ],
      "name": "proposeModule",
      "outputs": [],
      "payable": false,
      "stateMutability": "nonpayable",
      "type": "function"
    },
    {
      "constant": true,
      "inputs": [],
      "name": "proposedGovernor",
      "outputs": [
        {
          "internalType": "address",
          "name": "",
          "type": "address"
        }
      ],
      "payable": false,
      "stateMutability": "view",
      "type": "function"
    },
    {
      "constant": true,
      "inputs": [
        {
          "internalType": "bytes32",
          "name": "",
          "type": "bytes32"
        }
      ],
      "name": "proposedLockModules",
      "outputs": [
        {
          "internalType": "uint256",
          "name": "",
          "type": "uint256"
        }
      ],
      "payable": false,
      "stateMutability": "view",
      "type": "function"
    },
    {
      "constant": true,
      "inputs": [
        {
          "internalType": "bytes32",
          "name": "",
          "type": "bytes32"
        }
      ],
      "name": "proposedModules",
      "outputs": [
        {
          "internalType": "address",
          "name": "newAddress",
          "type": "address"
        },
        {
          "internalType": "uint256",
          "name": "timestamp",
          "type": "uint256"
        }
      ],
      "payable": false,
      "stateMutability": "view",
      "type": "function"
    },
    {
      "constant": false,
      "inputs": [
        {
          "internalType": "address",
          "name": "_proposedGovernor",
          "type": "address"
        }
      ],
      "name": "requestGovernorChange",
      "outputs": [],
      "payable": false,
      "stateMutability": "nonpayable",
      "type": "function"
    },
    {
      "constant": false,
      "inputs": [
        {
          "internalType": "bytes32",
          "name": "_key",
          "type": "bytes32"
        }
      ],
      "name": "requestLockModule",
      "outputs": [],
      "payable": false,
      "stateMutability": "nonpayable",
      "type": "function"
    },
    {
      "constant": true,
      "inputs": [],
      "name": "requestTime",
      "outputs": [
        {
          "internalType": "uint256",
          "name": "",
          "type": "uint256"
        }
      ],
      "payable": false,
      "stateMutability": "view",
      "type": "function"
    },
    {
      "constant": false,
      "inputs": [
        {
          "internalType": "address",
          "name": "_proxyAdmin",
          "type": "address"
        }
      ],
      "name": "setProxyAdmin",
      "outputs": [],
      "payable": false,
      "stateMutability": "nonpayable",
      "type": "function"
    },
    {
      "constant": false,
      "inputs": [
        {
          "internalType": "address",
          "name": "_savingsManager",
          "type": "address"
        }
      ],
      "name": "setSavingsManager",
      "outputs": [],
      "payable": false,
      "stateMutability": "nonpayable",
      "type": "function"
    },
    {
      "constant": false,
      "inputs": [
        {
          "internalType": "address",
          "name": "_liquidator",
          "type": "address"
        }
      ],
      "name": "setLiquidator",
      "outputs": [],
      "payable": false,
      "stateMutability": "nonpayable",
      "type": "function"
    }
  ],
  "bytecode": "0x6080604052600180546001600160a01b0319169055600060028190556003556008805460ff191690553480156200003557600080fd5b506040516200219c3803806200219c833981810160405260608110156200005b57600080fd5b5080516020820151604092830151600080546001600160a01b031916331780825594519394929391928592839262093a809284926001600160a01b039190911691906000805160206200217c833981519152908290a3620000c5816001600160e01b036200047a16565b50600081116200011c576040805162461bcd60e51b815260206004820152601f60248201527f44656c6179206d7573742062652067726561746572207468616e207a65726f00604482015290519081900360640190fd5b60029081556040805180820182526001600160a01b039687168152600060208083018281527f9409903de1e6fd852dfc61c9dacb48196c48535b60e25abf92acc92dd689078d8352600480835293517fff0191644a1a8c76457c5f711019a3fa5288c706a170b89188f74b195cd2ee48805492511515600160a01b90810260ff60a01b19938e166001600160a01b031995861617841617909155865180880188529a8c168b528a84018581527f6d439300980e333f0256d64be2c9f67e86f4493ce25f82498d6db7f4be3d9e6f86528685529a517fb48c6a5cd741ea26dc81dca2ad845bbf621d1b403adf32680f1616e41916212680549c5115158302918e169c85169c909c17831617909a558551808701875260018082528185018681527f1df41cd916959d1163dc8f0671a666ea8a3e434c13e40faef527133b5d167034875287865291517f4fdb9919cf05103fa696f4e6a8d17e2b68eb7c32c2c5d0b4e1081f30fc8984af8054935115158e02918f1693861693909317841617909155865180880188529788528784018581527f8ae3a082c61a7379e2280f3356a5131507d9829d222d853bfa7c9fe1200dd040865286855297517f54e536babbcbb3642467f591d36e5ab18af6808471333a542734396ffa2bd12a8054995115158d02918e169985169990991783161790975585518087018752600381528084018581527f39e3ed1fc335ce346a8cbe3e64dd525cf22b37f1e2104a755e761c3c1eb4734f865286855290517fb83b6a19c9d695eef26063f83a95e9aafc1a6a53e9bba7f897ef7a7d7f0027438054925115158d02918e16928516929092178316179055855180870187528581528084018581527fea7469b14936af748ee93c53b2fe510b9928edbdccac3963321efca7eb1a57a2865286855290517f1a20ffa5ef9657249a530d3eef7d540f2affd47a3e99ec29f42a491185dfd5518054925115158d02918e169285169290921783161790558551808701909652600586528583018481527f12fe936c77a1e196473c4314f3bed8eeac1d757b319abb85bdda70df35511bf19094529390915292517fa5ef6f380a72845586372b4cb417cb831361d25208df9c37c77c336bed1e36778054925115159098029816921691909117169490941790925550506008805460ff191690911790555062000520565b6001600160a01b038116620004d6576040805162461bcd60e51b815260206004820152601f60248201527f474f563a206e657720476f7665726e6f72206973206164647265737328302900604482015290519081900360640190fd5b600080546040516001600160a01b03808516939216916000805160206200217c83398151915291a3600080546001600160a01b0319166001600160a01b0392909216919091179055565b611c4c80620005306000396000f3fe608060405234801561001057600080fd5b50600436106101a95760003560e01c80636d4e1991116100f9578063ad339d7a11610097578063d7e0842a11610071578063d7e0842a146105a9578063d7fd0e77146105c6578063e4c0aaf4146105ce578063efa2f3a2146105f4576101a9565b8063ad339d7a14610559578063b0b6cc1a14610561578063c7af3352146105a1576101a9565b80638a11a370116100d35780638a11a3701461050f5780638c33c19c1461051757806394ccb1371461051f57806397f5fea61461053c576101a9565b80636d4e1991146104af5780637358e854146104cc57806385acd641146104f2576101a9565b806328066b861161016657806347fe8b1d1161014057806347fe8b1d146103f15780636921ea41146103f95780636a42b8f8146104675780636a89934b1461046f576101a9565b806328066b8614610297578063381042c8146102b457806347c02661146103cb576101a9565b806301c76f81146101ae578063099c47bc146101d657806309ea14aa146101fc5780630c340a2414610228578063158ef93e1461024c578063165ed30614610268575b600080fd5b6101d4600480360360208110156101c457600080fd5b50356001600160a01b0316610611565b005b6101d4600480360360208110156101ec57600080fd5b50356001600160a01b03166106aa565b6101d46004803603604081101561021257600080fd5b50803590602001356001600160a01b0316610701565b610230610989565b604080516001600160a01b039092168252519081900360200190f35b610254610998565b604080519115158252519081900360200190f35b6102856004803603602081101561027e57600080fd5b50356109a1565b60408051918252519081900360200190f35b6101d4600480360360208110156102ad57600080fd5b50356109b3565b610254600480360360808110156102ca57600080fd5b810190602081018135600160201b8111156102e457600080fd5b8201836020820111156102f657600080fd5b803590602001918460208302840111600160201b8311171561031757600080fd5b919390929091602081019035600160201b81111561033457600080fd5b82018360208201111561034657600080fd5b803590602001918460208302840111600160201b8311171561036757600080fd5b919390929091602081019035600160201b81111561038457600080fd5b82018360208201111561039657600080fd5b803590602001918460208302840111600160201b831117156103b757600080fd5b9193509150356001600160a01b0316610a03565b6101d4600480360360208110156103e157600080fd5b50356001600160a01b0316610c38565b610285610cd1565b6101d46004803603602081101561040f57600080fd5b810190602081018135600160201b81111561042957600080fd5b82018360208201111561043b57600080fd5b803590602001918460208302840111600160201b8311171561045c57600080fd5b509092509050610cd8565b610285610d99565b61048c6004803603602081101561048557600080fd5b5035610d9f565b604080516001600160a01b03909316835260208301919091528051918290030190f35b6101d4600480360360208110156104c557600080fd5b5035610dc4565b6101d4600480360360208110156104e257600080fd5b50356001600160a01b0316610ebb565b6102306004803603602081101561050857600080fd5b5035610f54565b610230610f6f565b6101d4610f7e565b6102546004803603602081101561053557600080fd5b5035610fd4565b6101d46004803603602081101561055257600080fd5b5035611011565b6101d46111b0565b61057e6004803603602081101561057757600080fd5b5035611278565b604080516001600160a01b03909316835290151560208301528051918290030190f35b61025461129f565b6101d4600480360360208110156105bf57600080fd5b50356112b0565b6102856113a8565b6101d4600480360360208110156105e457600080fd5b50356001600160a01b03166113ae565b6101d46004803603602081101561060a57600080fd5b5035611442565b604080518082019091526001600160a01b039182168152600160208083019182527f1e9cb14d7560734a61fa5ff9273953e971ff3cd9283c03d8346e3264617933d46000526004905290517fe2c632cc7cdfa5d6c9c095cce79f9f9bdb6dfefa82b41005e5bfaad35c2f312d805492516001600160a01b0319909316919093161760ff60a01b1916600160a01b91151591909102179055565b6106b261129f565b6106f1576040805162461bcd60e51b815260206004820152601f6024820152600080516020611bf8833981519152604482015290519081900360640190fd5b426003556106fe81611524565b50565b61070961129f565b610748576040805162461bcd60e51b815260206004820152601f6024820152600080516020611bf8833981519152604482015290519081900360640190fd5b81610791576040805162461bcd60e51b81526020600482015260146024820152734b6579206d757374206e6f74206265207a65726f60601b604482015290519081900360640190fd5b6001600160a01b0381166107ec576040805162461bcd60e51b815260206004820152601c60248201527f4d6f64756c652061646472657373206d757374206e6f74206265203000000000604482015290519081900360640190fd5b600082815260046020526040902054600160a01b900460ff1615610851576040805162461bcd60e51b8152602060048201526017602482015276135bd91d5b19481b5d5cdd081899481d5b9b1bd8dad959604a1b604482015290519081900360640190fd5b6000828152600460205260409020546001600160a01b03828116911614156108c0576040805162461bcd60e51b815260206004820152601f60248201527f4d6f64756c6520616c7265616479206861732073616d65206164647265737300604482015290519081900360640190fd5b6000828152600660205260409020600181015415610925576040805162461bcd60e51b815260206004820152601760248201527f4d6f64756c6520616c72656164792070726f706f736564000000000000000000604482015290519081900360640190fd5b80546001600160a01b0319166001600160a01b03831690811782554260018301819055604080519283526020830191909152805185927fa5917e6bf5563219e2772cffe6989d6f2ef8235ab280ab88f8c37479562e58a392908290030190a2505050565b6000546001600160a01b031690565b60085460ff1681565b60076020526000908152604090205481565b6109bb61129f565b6109fa576040805162461bcd60e51b815260206004820152601f6024820152600080516020611bf8833981519152604482015290519081900360640190fd5b6106fe81611682565b6000610a0d61129f565b610a4c576040805162461bcd60e51b815260206004820152601f6024820152600080516020611bf8833981519152604482015290519081900360640190fd5b60085460ff1615610aa4576040805162461bcd60e51b815260206004820152601c60248201527f4e6578757320697320616c726561647920696e697469616c697a656400000000604482015290519081900360640190fd5b8680610aea576040805162461bcd60e51b815260206004820152601060248201526f139bc81ad95e5cc81c1c9bdd9a59195960821b604482015290519081900360640190fd5b808614610b3e576040805162461bcd60e51b815260206004820152601960248201527f496e73756666696369656e742061646472657373206461746100000000000000604482015290519081900360640190fd5b808414610b92576040805162461bcd60e51b815260206004820152601c60248201527f496e73756666696369656e74206c6f636b656420737461747573657300000000604482015290519081900360640190fd5b60005b81811015610bf157610be98a8a83818110610bac57fe5b90506020020135898984818110610bbf57fe5b905060200201356001600160a01b0316888885818110610bdb57fe5b90506020020135151561174a565b600101610b95565b50610bfa610989565b6001600160a01b0316836001600160a01b031614610c1b57610c1b836118df565b50506008805460ff19166001908117909155979650505050505050565b604080518082019091526001600160a01b039182168152600160208083019182527f96ed0203eb7e975a4cbcaa23951943fa35c5d8288117d50c12b3d48b0fab48d16000526004905290517f4c7713e38aa796b5bef91a4d4f833a85552cb601f4d264bcddf4fc7ab6214f73805492516001600160a01b0319909316919093161760ff60a01b1916600160a01b91151591909102179055565b62093a8081565b610ce061129f565b610d1f576040805162461bcd60e51b815260206004820152601f6024820152600080516020611bf8833981519152604482015290519081900360640190fd5b8080610d65576040805162461bcd60e51b815260206004820152601060248201526f4b65797320617272617920656d70747960801b604482015290519081900360640190fd5b60005b81811015610d9357610d8b848483818110610d7f57fe5b90506020020135611682565b600101610d68565b50505050565b60025481565b600660205260009081526040902080546001909101546001600160a01b039091169082565b610dcc61129f565b610e0b576040805162461bcd60e51b815260206004820152601f6024820152600080516020611bf8833981519152604482015290519081900360640190fd5b600081815260076020526040902054610e2390611995565b610e65576040805162461bcd60e51b815260206004820152600e60248201526d2232b630bc903737ba1037bb32b960911b604482015290519081900360640190fd5b6000818152600460209081526040808320805460ff60a01b1916600160a01b17905560079091528082208290555182917f097d0a4360ac95150faf267a7b4a999756a69238c2c7023cac729d81f0b733a391a250565b604080518082019091526001600160a01b039182168152600160208083019182527f12fe936c77a1e196473c4314f3bed8eeac1d757b319abb85bdda70df35511bf16000526004905290517fa5ef6f380a72845586372b4cb417cb831361d25208df9c37c77c336bed1e3677805492516001600160a01b0319909316919093161760ff60a01b1916600160a01b91151591909102179055565b6000908152600460205260409020546001600160a01b031690565b6001546001600160a01b031681565b610f8661129f565b610fc5576040805162461bcd60e51b815260206004820152601f6024820152600080516020611bf8833981519152604482015290519081900360640190fd5b6000600355610fd26119c2565b565b60008115801590610ffb57506000828152600460205260409020546001600160a01b031615155b156110085750600161100c565b5060005b919050565b61101961129f565b611058576040805162461bcd60e51b815260206004820152601f6024820152600080516020611bf8833981519152604482015290519081900360640190fd5b61106181610fd4565b6110a6576040805162461bcd60e51b8152602060048201526011602482015270135bd91d5b19481b5d5cdd08195e1a5cdd607a1b604482015290519081900360640190fd5b600081815260046020526040902054600160a01b900460ff161561110b576040805162461bcd60e51b8152602060048201526017602482015276135bd91d5b19481b5d5cdd081899481d5b9b1bd8dad959604a1b604482015290519081900360640190fd5b60008181526007602052604090205415611164576040805162461bcd60e51b8152602060048201526015602482015274131bd8dac8185b1c9958591e481c1c9bdc1bdcd959605a1b604482015290519081900360640190fd5b60008181526007602090815260409182902042908190558251908152915183927f57456e8dc47899fbd8a75be3129514a3e4cca602e26b766d4bbb821975c4375892908290030190a250565b6001546001600160a01b0316331461120f576040805162461bcd60e51b815260206004820152601f60248201527f53656e646572206973206e6f742070726f706f73656420676f7665726e6f7200604482015290519081900360640190fd5b6002546003546112249163ffffffff611ac116565b421015611269576040805162461bcd60e51b815260206004820152600e60248201526d2232b630bc903737ba1037bb32b960911b604482015290519081900360640190fd5b611271611b22565b6000600355565b6004602052600090815260409020546001600160a01b03811690600160a01b900460ff1682565b6000546001600160a01b0316331490565b6112b861129f565b6112f7576040805162461bcd60e51b815260206004820152601f6024820152600080516020611bf8833981519152604482015290519081900360640190fd5b6000818152600660205260409020600101548061135b576040805162461bcd60e51b815260206004820152601960248201527f50726f706f736564206d6f64756c65206e6f7420666f756e6400000000000000604482015290519081900360640190fd5b60008281526006602052604080822080546001600160a01b03191681556001018290555183917f4dd889c845f5a942b8304764283938168000b8f4903940690beb685ca2fc16cc91a25050565b60035481565b6113b661129f565b6113f5576040805162461bcd60e51b815260206004820152601f6024820152600080516020611bf8833981519152604482015290519081900360640190fd5b6040805162461bcd60e51b815260206004820152601960248201527f446972656374206368616e6765206e6f7420616c6c6f77656400000000000000604482015290519081900360640190fd5b61144a61129f565b611489576040805162461bcd60e51b815260206004820152601f6024820152600080516020611bf8833981519152604482015290519081900360640190fd5b6000818152600760205260409020546114e9576040805162461bcd60e51b815260206004820152601d60248201527f4d6f64756c65206c6f636b2072657175657374206e6f7420666f756e64000000604482015290519081900360640190fd5b6000818152600760205260408082208290555182917f3d670309414f84151711e0ac2795a2b1686580ad9faca995492166a486255db391a250565b61152c61129f565b61156b576040805162461bcd60e51b815260206004820152601f6024820152600080516020611bf8833981519152604482015290519081900360640190fd5b6001600160a01b0381166115c6576040805162461bcd60e51b815260206004820152601f60248201527f50726f706f73656420676f7665726e6f72206973206164647265737328302900604482015290519081900360640190fd5b6001546001600160a01b031615611624576040805162461bcd60e51b815260206004820152601d60248201527f50726f706f73656420676f7665726e6f7220616c726561647920736574000000604482015290519081900360640190fd5b600180546001600160a01b0319166001600160a01b03831690811790915561164a610989565b6001600160a01b03167fa48c163cc46eb28aba8bdb525da18f15a83020cc18f439c933d79ea3ad9b50bb60405160405180910390a350565b61168a611be0565b50600081815260066020908152604091829020825180840190935280546001600160a01b03168352600101549082018190526116c590611995565b611716576040805162461bcd60e51b815260206004820152601d60248201527f4d6f64756c6520757067726164652064656c6179206e6f74206f766572000000604482015290519081900360640190fd5b600082815260066020526040812080546001600160a01b031916815560010181905581516117469184919061174a565b5050565b6001600160a01b038216600090815260056020526040902054156117b5576040805162461bcd60e51b815260206004820152601d60248201527f4d6f64756c6573206d757374206861766520756e697175652061646472000000604482015290519081900360640190fd5b600083815260046020526040902054600160a01b900460ff161561181a576040805162461bcd60e51b8152602060048201526017602482015276135bd91d5b19481b5d5cdd081899481d5b9b1bd8dad959604a1b604482015290519081900360640190fd5b6000838152600460205260409020546001600160a01b03168015611852576001600160a01b0381166000908152600560205260408120555b60008481526004602090815260408083208054861515600160a01b810260ff60a01b196001600160a01b038b166001600160a01b0319909416841716179092558085526005845293829020889055815193845291830191909152805186927f7bf901a62d0edd068a4e74518eb8241133713d384171c7d0a3b7f6eb5c04095d92908290030190a250505050565b6001600160a01b03811661193a576040805162461bcd60e51b815260206004820152601f60248201527f474f563a206e657720476f7665726e6f72206973206164647265737328302900604482015290519081900360640190fd5b600080546040516001600160a01b03808516939216917fde4b3f61490b74c0ed6237523974fe299126bbbf8a8a7482fd220104c59b0c8491a3600080546001600160a01b0319166001600160a01b0392909216919091179055565b60008082118015610ffb57506119b48262093a8063ffffffff611ac116565b42106110085750600161100c565b6119ca61129f565b611a09576040805162461bcd60e51b815260206004820152601f6024820152600080516020611bf8833981519152604482015290519081900360640190fd5b6001546001600160a01b0316611a66576040805162461bcd60e51b815260206004820152601960248201527f50726f706f73656420476f7665726e6f72206e6f742073657400000000000000604482015290519081900360640190fd5b6001546001600160a01b0316611a7a610989565b6001600160a01b03167f2f7bb10f75b8694ea78291d7ca4c9f2a75bc45f0f97046164ad3ee984bdf4bba60405160405180910390a3600180546001600160a01b0319169055565b600082820183811015611b1b576040805162461bcd60e51b815260206004820152601b60248201527f536166654d6174683a206164646974696f6e206f766572666c6f770000000000604482015290519081900360640190fd5b9392505050565b6001546001600160a01b03163314611b81576040805162461bcd60e51b815260206004820152601f60248201527f53656e646572206973206e6f742070726f706f73656420676f7665726e6f7200604482015290519081900360640190fd5b600154611b96906001600160a01b03166118df565b6001546040516001600160a01b03909116907f0ad714cb5607f3b529b5d3292190925ae992a77b291e39ec09c390d4787896ba90600090a2600180546001600160a01b0319169055565b60408051808201909152600080825260208201529056fe474f563a2063616c6c6572206973206e6f742074686520476f7665726e6f7200a265627a7a7231582060085b97cb37b7b591739683d1201548f08f2d96bbce6414256751f6a5b5399764736f6c63430005100032de4b3f61490b74c0ed6237523974fe299126bbbf8a8a7482fd220104c59b0c84",
  "source": "pragma solidity 0.5.16;\n\nimport { Nexus } from \"../../nexus/Nexus.sol\";\nimport { ModuleKeys } from \"../../shared/ModuleKeys.sol\";\n\ncontract MockNexus is Nexus, ModuleKeys {\n\n    constructor(\n        address _governorAddr,\n        address _governance,\n        address _manager\n    )\n        public\n        Nexus(_governorAddr)\n    {\n        // Initialize Nexus with Mock addresses for Modules\n        // Directly adding Mock modules\n\n        // Governance and Manager addresses are required to be passed from the test, as these\n        // addresses needs to sign the transaction to test modifiers\n        modules[KEY_GOVERNANCE] = Module({addr: _governance, isLocked: false});\n        modules[KEY_MANAGER] = Module({addr: _manager, isLocked: false});\n\n        modules[KEY_STAKING] = Module({addr: address(0x1), isLocked: false});\n        modules[KEY_ORACLE_HUB] = Module({addr: address(0x2), isLocked: false});\n        modules[KEY_RECOLLATERALISER] = Module({addr: address(0x3), isLocked: false});\n        modules[KEY_BILD_TOKEN] = Module({addr: address(0x4), isLocked: false});\n        modules[KEY_SAVINGS_MANAGER] = Module({addr: address(0x5), isLocked: false});\n\n        initialized = true;\n    }\n\n    function setProxyAdmin(address _proxyAdmin) external {\n        modules[KEY_PROXY_ADMIN] = Module({addr: _proxyAdmin, isLocked: true});\n    }\n\n    function setSavingsManager(address _savingsManager) external {\n        modules[KEY_SAVINGS_MANAGER] = Module({addr: _savingsManager, isLocked: true});\n    }\n\n    function setLiquidator(address _liquidator) external {\n        modules[KEY_LIQUIDATOR] = Module({addr: _liquidator, isLocked: true});\n    }\n}",
  "sourcePath": "/Volumes/sdxc/ETHEREUM/CODE/mStable-v1-edit/contracts/z_mocks/nexus/MockNexus.sol",
  "compiler": {
    "name": "solc",
    "version": "0.5.16+commit.9c3226ce.Emscripten.clang"
  },
  "schemaVersion": "3.1.0",
  "updatedAt": "2021-03-11T05:43:17.126Z",
  "devdoc": {
    "methods": {
      "acceptProposedModule(bytes32)": {
        "details": "Accept and publish an already proposed module",
        "params": {
          "_key": "Key of the module"
        }
      },
      "acceptProposedModules(bytes32[])": {
        "details": "Accept and publish already proposed modules",
        "params": {
          "_keys": "Keys array of the modules"
        }
      },
      "cancelGovernorChange()": {
        "details": "Cancels an outstanding governor change request by resetting request time"
      },
      "cancelLockModule(bytes32)": {
        "details": "Cancel a lock module request",
        "params": {
          "_key": "Key of the module"
        }
      },
      "cancelProposedModule(bytes32)": {
        "details": "Cancel a proposed module request",
        "params": {
          "_key": "Key of the module"
        }
      },
      "claimGovernorChange()": {
        "details": "Proposed governor claims new position, callable after time elapsed"
      },
      "getModule(bytes32)": {
        "details": "Get the module address",
        "params": {
          "_key": "Key of the module"
        },
        "return": "Return the address of the module"
      },
      "governor()": {
        "details": "Returns the address of the current Governor."
      },
      "initialize(bytes32[],address[],bool[],address)": {
        "details": "Adds multiple new modules to the system to initialize the     Nexus contract with default modules. This should be called first     after deploying Nexus contract.",
        "params": {
          "_addresses": "Contract addresses of the new modules",
          "_governorAddr": "New Governor address",
          "_isLocked": "IsLocked flag for the new modules",
          "_keys": "Keys of the new modules in bytes32 form"
        },
        "return": "bool         Success of publishing new Modules"
      },
      "isGovernor()": {
        "details": "Returns true if the caller is the current Governor."
      },
      "lockModule(bytes32)": {
        "details": "Permanently lock a module to its current settings",
        "params": {
          "_key": "Bytes32 key of the module"
        }
      },
      "moduleExists(bytes32)": {
        "details": "Checks if a module exists",
        "params": {
          "_key": "Key of the module"
        },
        "return": "Returns 'true' when a module exists, otherwise 'false'"
      },
      "proposeModule(bytes32,address)": {
        "details": "Propose a new or update existing module",
        "params": {
          "_addr": "Address of the module",
          "_key": "Key of the module"
        }
      },
      "requestGovernorChange(address)": {
        "details": "Requests change of governor and logs request time",
        "params": {
          "_proposedGovernor": "Address of the new governor"
        }
      },
      "requestLockModule(bytes32)": {
        "details": "Request to lock an existing module",
        "params": {
          "_key": "Key of the module"
        }
      }
    }
  },
  "userdoc": {
    "methods": {}
  }
}