{
  "contractName": "MockStakingContract",
  "abi": [
    {
      "constant": false,
      "inputs": [
        {
          "internalType": "address",
          "name": "account",
          "type": "address"
        },
        {
          "internalType": "uint256",
          "name": "balance",
          "type": "uint256"
        }
      ],
      "name": "setBalanceOf",
      "outputs": [],
      "payable": false,
      "stateMutability": "nonpayable",
      "type": "function"
    },
    {
      "constant": true,
      "inputs": [
        {
          "internalType": "address",
          "name": "account",
          "type": "address"
        }
      ],
      "name": "balanceOf",
      "outputs": [
        {
          "internalType": "uint256",
          "name": "",
          "type": "uint256"
        }
      ],
      "payable": false,
      "stateMutability": "view",
      "type": "function"
    }
  ],
  "bytecode": "0x608060405234801561001057600080fd5b50610103806100206000396000f3fe6080604052348015600f57600080fd5b506004361060325760003560e01c806370a08231146037578063b46310f614606c575b600080fd5b605a60048036036020811015604b57600080fd5b50356001600160a01b03166097565b60408051918252519081900360200190f35b609560048036036040811015608057600080fd5b506001600160a01b03813516906020013560b2565b005b6001600160a01b031660009081526020819052604090205490565b6001600160a01b0390911660009081526020819052604090205556fea265627a7a7231582013b667f04d50ed6e0caff35988b80a7b678529ae3e379bfc886258ef90031d0f64736f6c63430005100032",
  "source": "pragma solidity 0.5.16;\n\n\n\n\ncontract MockStakingContract {\n\n    mapping (address => uint256) private _balances;\n\n    function setBalanceOf(address account, uint256 balance) public {\n      _balances[account] = balance;\n    }\n\n    function balanceOf(address account) public view returns (uint256) {\n        return _balances[account];\n    }\n}",
  "sourcePath": "/Volumes/sdxc/ETHEREUM/CODE/mStable-v1-edit/contracts/z_mocks/savings/MockStakingContract.sol",
  "compiler": {
    "name": "solc",
    "version": "0.5.16+commit.9c3226ce.Emscripten.clang"
  },
  "schemaVersion": "3.1.0",
  "updatedAt": "2021-03-11T05:43:17.327Z",
  "devdoc": {
    "methods": {}
  },
  "userdoc": {
    "methods": {}
  }
}