{
  "contractName": "MockPausableModule",
  "abi": [
    {
      "inputs": [
        {
          "internalType": "address",
          "name": "_nexus",
          "type": "address"
        }
      ],
      "payable": false,
      "stateMutability": "nonpayable",
      "type": "constructor"
    },
    {
      "anonymous": false,
      "inputs": [
        {
          "indexed": false,
          "internalType": "address",
          "name": "account",
          "type": "address"
        }
      ],
      "name": "Paused",
      "type": "event"
    },
    {
      "anonymous": false,
      "inputs": [
        {
          "indexed": false,
          "internalType": "address",
          "name": "account",
          "type": "address"
        }
      ],
      "name": "Unpaused",
      "type": "event"
    },
    {
      "constant": true,
      "inputs": [],
      "name": "nexus",
      "outputs": [
        {
          "internalType": "contract INexus",
          "name": "",
          "type": "address"
        }
      ],
      "payable": false,
      "stateMutability": "view",
      "type": "function"
    },
    {
      "constant": false,
      "inputs": [],
      "name": "pause",
      "outputs": [],
      "payable": false,
      "stateMutability": "nonpayable",
      "type": "function"
    },
    {
      "constant": true,
      "inputs": [],
      "name": "paused",
      "outputs": [
        {
          "internalType": "bool",
          "name": "",
          "type": "bool"
        }
      ],
      "payable": false,
      "stateMutability": "view",
      "type": "function"
    },
    {
      "constant": false,
      "inputs": [],
      "name": "unpause",
      "outputs": [],
      "payable": false,
      "stateMutability": "nonpayable",
      "type": "function"
    }
  ],
  "bytecode": "0x60806040526000805460ff60a01b1916905534801561001d57600080fd5b506040516104523803806104528339818101604052602081101561004057600080fd5b505180806001600160a01b03811661009f576040805162461bcd60e51b815260206004820152601560248201527f4e65787573206973207a65726f20616464726573730000000000000000000000604482015290519081900360640190fd5b6000805460ff60a01b196001600160a01b039093166001600160a01b031990911617919091169055505061037a806100d86000396000f3fe608060405234801561001057600080fd5b506004361061004c5760003560e01c80633f4ba83a146100515780635c975abb1461005b5780638456cb5914610077578063a3f5c1d21461007f575b600080fd5b6100596100a3565b005b6100636101a3565b604080519115158252519081900360200190f35b6100596101b3565b6100876102b6565b604080516001600160a01b039092168252519081900360200190f35b6100ab6102c5565b6001600160a01b0316336001600160a01b03161461010c576040805162461bcd60e51b81526020600482015260196024820152784f6e6c7920676f7665726e6f722063616e206578656375746560381b604482015290519081900360640190fd5b600054600160a01b900460ff16610161576040805162461bcd60e51b815260206004820152601460248201527314185d5cd8589b194e881b9bdd081c185d5cd95960621b604482015290519081900360640190fd5b6000805460ff60a01b191690556040805133815290517f5db9ee0a495bf2e6ff9c91a7834c1ba4fdd244a5e8aa4e537bd38aeae4b073aa9181900360200190a1565b600054600160a01b900460ff1690565b6101bb6102c5565b6001600160a01b0316336001600160a01b03161461021c576040805162461bcd60e51b81526020600482015260196024820152784f6e6c7920676f7665726e6f722063616e206578656375746560381b604482015290519081900360640190fd5b600054600160a01b900460ff161561026e576040805162461bcd60e51b815260206004820152601060248201526f14185d5cd8589b194e881c185d5cd95960821b604482015290519081900360640190fd5b6000805460ff60a01b1916600160a01b1790556040805133815290517f62e78cea01bee320cd4e420270b5ea74000d11b0c9f74754ebdbfc544b05a2589181900360200190a1565b6000546001600160a01b031681565b60008060009054906101000a90046001600160a01b03166001600160a01b0316630c340a246040518163ffffffff1660e01b815260040160206040518083038186803b15801561031457600080fd5b505afa158015610328573d6000803e3d6000fd5b505050506040513d602081101561033e57600080fd5b505190509056fea265627a7a7231582001ed16a5f97d57ff4b1c33f2ad5a9e92d0609013651b066ad579e1d43678ac9f64736f6c63430005100032",
  "source": "pragma solidity 0.5.16;\n\nimport { PausableModule } from \"../../shared/PausableModule.sol\";\n\ncontract MockPausableModule is PausableModule {\n\n    constructor(address _nexus) public PausableModule(_nexus) {}\n}",
  "sourcePath": "/Volumes/sdxc/ETHEREUM/CODE/mStable-v1-edit/contracts/z_mocks/shared/MockPausableModule.sol",
  "compiler": {
    "name": "solc",
    "version": "0.5.16+commit.9c3226ce.Emscripten.clang"
  },
  "schemaVersion": "3.1.0",
  "updatedAt": "2021-03-11T05:43:18.424Z",
  "devdoc": {
    "methods": {
      "pause()": {
        "details": "Called by the Governor to pause, triggers stopped state."
      },
      "paused()": {
        "details": "Returns true if the contract is paused, and false otherwise.",
        "return": "Returns `true` when paused, otherwise `false`"
      },
      "unpause()": {
        "details": "Called by Governor to unpause, returns to normal state."
      }
    }
  },
  "userdoc": {
    "methods": {}
  }
}