{
  "contractName": "MockMix1",
  "abi": [
    {
      "inputs": [
        {
          "internalType": "string",
          "name": "_name",
          "type": "string"
        },
        {
          "internalType": "string",
          "name": "_symbol",
          "type": "string"
        },
        {
          "internalType": "uint8",
          "name": "_decimals",
          "type": "uint8"
        },
        {
          "internalType": "address",
          "name": "_initialRecipient",
          "type": "address"
        },
        {
          "internalType": "uint256",
          "name": "_initialMint",
          "type": "uint256"
        }
      ],
      "payable": false,
      "stateMutability": "nonpayable",
      "type": "constructor"
    },
    {
      "anonymous": false,
      "inputs": [
        {
          "indexed": true,
          "internalType": "address",
          "name": "owner",
          "type": "address"
        },
        {
          "indexed": true,
          "internalType": "address",
          "name": "spender",
          "type": "address"
        },
        {
          "indexed": false,
          "internalType": "uint256",
          "name": "value",
          "type": "uint256"
        }
      ],
      "name": "Approval",
      "type": "event"
    },
    {
      "anonymous": false,
      "inputs": [
        {
          "indexed": true,
          "internalType": "address",
          "name": "account",
          "type": "address"
        }
      ],
      "name": "MinterAdded",
      "type": "event"
    },
    {
      "anonymous": false,
      "inputs": [
        {
          "indexed": true,
          "internalType": "address",
          "name": "account",
          "type": "address"
        }
      ],
      "name": "MinterRemoved",
      "type": "event"
    },
    {
      "anonymous": false,
      "inputs": [
        {
          "indexed": true,
          "internalType": "address",
          "name": "from",
          "type": "address"
        },
        {
          "indexed": true,
          "internalType": "address",
          "name": "to",
          "type": "address"
        },
        {
          "indexed": false,
          "internalType": "uint256",
          "name": "value",
          "type": "uint256"
        }
      ],
      "name": "Transfer",
      "type": "event"
    },
    {
      "constant": false,
      "inputs": [
        {
          "internalType": "address",
          "name": "account",
          "type": "address"
        }
      ],
      "name": "addMinter",
      "outputs": [],
      "payable": false,
      "stateMutability": "nonpayable",
      "type": "function"
    },
    {
      "constant": true,
      "inputs": [
        {
          "internalType": "address",
          "name": "owner",
          "type": "address"
        },
        {
          "internalType": "address",
          "name": "spender",
          "type": "address"
        }
      ],
      "name": "allowance",
      "outputs": [
        {
          "internalType": "uint256",
          "name": "",
          "type": "uint256"
        }
      ],
      "payable": false,
      "stateMutability": "view",
      "type": "function"
    },
    {
      "constant": false,
      "inputs": [
        {
          "internalType": "address",
          "name": "spender",
          "type": "address"
        },
        {
          "internalType": "uint256",
          "name": "amount",
          "type": "uint256"
        }
      ],
      "name": "approve",
      "outputs": [
        {
          "internalType": "bool",
          "name": "",
          "type": "bool"
        }
      ],
      "payable": false,
      "stateMutability": "nonpayable",
      "type": "function"
    },
    {
      "constant": true,
      "inputs": [
        {
          "internalType": "address",
          "name": "account",
          "type": "address"
        }
      ],
      "name": "balanceOf",
      "outputs": [
        {
          "internalType": "uint256",
          "name": "",
          "type": "uint256"
        }
      ],
      "payable": false,
      "stateMutability": "view",
      "type": "function"
    },
    {
      "constant": true,
      "inputs": [],
      "name": "decimals",
      "outputs": [
        {
          "internalType": "uint8",
          "name": "",
          "type": "uint8"
        }
      ],
      "payable": false,
      "stateMutability": "view",
      "type": "function"
    },
    {
      "constant": false,
      "inputs": [
        {
          "internalType": "address",
          "name": "spender",
          "type": "address"
        },
        {
          "internalType": "uint256",
          "name": "subtractedValue",
          "type": "uint256"
        }
      ],
      "name": "decreaseAllowance",
      "outputs": [
        {
          "internalType": "bool",
          "name": "",
          "type": "bool"
        }
      ],
      "payable": false,
      "stateMutability": "nonpayable",
      "type": "function"
    },
    {
      "constant": false,
      "inputs": [
        {
          "internalType": "address",
          "name": "spender",
          "type": "address"
        },
        {
          "internalType": "uint256",
          "name": "addedValue",
          "type": "uint256"
        }
      ],
      "name": "increaseAllowance",
      "outputs": [
        {
          "internalType": "bool",
          "name": "",
          "type": "bool"
        }
      ],
      "payable": false,
      "stateMutability": "nonpayable",
      "type": "function"
    },
    {
      "constant": true,
      "inputs": [
        {
          "internalType": "address",
          "name": "account",
          "type": "address"
        }
      ],
      "name": "isMinter",
      "outputs": [
        {
          "internalType": "bool",
          "name": "",
          "type": "bool"
        }
      ],
      "payable": false,
      "stateMutability": "view",
      "type": "function"
    },
    {
      "constant": false,
      "inputs": [
        {
          "internalType": "address",
          "name": "account",
          "type": "address"
        },
        {
          "internalType": "uint256",
          "name": "amount",
          "type": "uint256"
        }
      ],
      "name": "mint",
      "outputs": [
        {
          "internalType": "bool",
          "name": "",
          "type": "bool"
        }
      ],
      "payable": false,
      "stateMutability": "nonpayable",
      "type": "function"
    },
    {
      "constant": true,
      "inputs": [],
      "name": "name",
      "outputs": [
        {
          "internalType": "string",
          "name": "",
          "type": "string"
        }
      ],
      "payable": false,
      "stateMutability": "view",
      "type": "function"
    },
    {
      "constant": false,
      "inputs": [],
      "name": "renounceMinter",
      "outputs": [],
      "payable": false,
      "stateMutability": "nonpayable",
      "type": "function"
    },
    {
      "constant": true,
      "inputs": [],
      "name": "symbol",
      "outputs": [
        {
          "internalType": "string",
          "name": "",
          "type": "string"
        }
      ],
      "payable": false,
      "stateMutability": "view",
      "type": "function"
    },
    {
      "constant": true,
      "inputs": [],
      "name": "totalSupply",
      "outputs": [
        {
          "internalType": "uint256",
          "name": "",
          "type": "uint256"
        }
      ],
      "payable": false,
      "stateMutability": "view",
      "type": "function"
    },
    {
      "constant": false,
      "inputs": [
        {
          "internalType": "address",
          "name": "recipient",
          "type": "address"
        },
        {
          "internalType": "uint256",
          "name": "amount",
          "type": "uint256"
        }
      ],
      "name": "transfer",
      "outputs": [
        {
          "internalType": "bool",
          "name": "",
          "type": "bool"
        }
      ],
      "payable": false,
      "stateMutability": "nonpayable",
      "type": "function"
    },
    {
      "constant": false,
      "inputs": [
        {
          "internalType": "address",
          "name": "sender",
          "type": "address"
        },
        {
          "internalType": "address",
          "name": "recipient",
          "type": "address"
        },
        {
          "internalType": "uint256",
          "name": "amount",
          "type": "uint256"
        }
      ],
      "name": "transferFrom",
      "outputs": [
        {
          "internalType": "bool",
          "name": "",
          "type": "bool"
        }
      ],
      "payable": false,
      "stateMutability": "nonpayable",
      "type": "function"
    },
    {
      "constant": false,
      "inputs": [
        {
          "internalType": "uint256",
          "name": "_amount",
          "type": "uint256"
        }
      ],
      "name": "setAmountForCollectInterest",
      "outputs": [],
      "payable": false,
      "stateMutability": "nonpayable",
      "type": "function"
    },
    {
      "constant": false,
      "inputs": [],
      "name": "collectInterest",
      "outputs": [
        {
          "internalType": "uint256",
          "name": "totalInterestGained",
          "type": "uint256"
        },
        {
          "internalType": "uint256",
          "name": "newSupply",
          "type": "uint256"
        }
      ],
      "payable": false,
      "stateMutability": "nonpayable",
      "type": "function"
    }
  ],
  "bytecode": "0x608060405260006007553480156200001657600080fd5b506040516200163938038062001639833981810160405260a08110156200003c57600080fd5b81019080805160405193929190846401000000008211156200005d57600080fd5b9083019060208201858111156200007357600080fd5b82516401000000008111828201881017156200008e57600080fd5b82525081516020918201929091019080838360005b83811015620000bd578181015183820152602001620000a3565b50505050905090810190601f168015620000eb5780820380516001836020036101000a031916815260200191505b50604052602001805160405193929190846401000000008211156200010f57600080fd5b9083019060208201858111156200012557600080fd5b82516401000000008111828201881017156200014057600080fd5b82525081516020918201929091019080838360005b838110156200016f57818101518382015260200162000155565b50505050905090810190601f1680156200019d5780820380516001836020036101000a031916815260200191505b50604090815260208281015191830151606090930151875192955092935086918691869186918691869186918691620001dc916003918601906200057b565b508151620001f29060049060208501906200057b565b506005805460ff191660ff9290921691909117905550620002279050620002186200026b565b6001600160e01b036200027016565b6200025b826200024c8560ff16600a0a84620002c260201b62000da61790919060201c565b6001600160e01b036200032916565b505050505050505050506200061d565b335b90565b6200028b8160066200042a60201b62000cbe1790919060201c565b6040516001600160a01b038216907f6ae172837ea30b801fbfcdd4108aa1d5bf8ff775444fd70256b44e6bf3dfc3f690600090a250565b600082620002d35750600062000323565b82820282848281620002e157fe5b0414620003205760405162461bcd60e51b8152600401808060200182810382526021815260200180620015f66021913960400191505060405180910390fd5b90505b92915050565b6001600160a01b03821662000385576040805162461bcd60e51b815260206004820152601f60248201527f45524332303a206d696e7420746f20746865207a65726f206164647265737300604482015290519081900360640190fd5b620003a181600254620004b760201b62000a761790919060201c565b6002556001600160a01b03821660009081526020818152604090912054620003d491839062000a76620004b7821b17901c565b6001600160a01b0383166000818152602081815260408083209490945583518581529351929391927fddf252ad1be2c89b69c2b068fc378daa952ba7f163c4a11628f55a4df523b3ef9281900390910190a35050565b6200043f82826001600160e01b036200051216565b1562000492576040805162461bcd60e51b815260206004820152601f60248201527f526f6c65733a206163636f756e7420616c72656164792068617320726f6c6500604482015290519081900360640190fd5b6001600160a01b0316600090815260209190915260409020805460ff19166001179055565b60008282018381101562000320576040805162461bcd60e51b815260206004820152601b60248201527f536166654d6174683a206164646974696f6e206f766572666c6f770000000000604482015290519081900360640190fd5b60006001600160a01b0382166200055b5760405162461bcd60e51b8152600401808060200182810382526022815260200180620016176022913960400191505060405180910390fd5b506001600160a01b03166000908152602091909152604090205460ff1690565b828054600181600116156101000203166002900490600052602060002090601f016020900481019282601f10620005be57805160ff1916838001178555620005ee565b82800160010185558215620005ee579182015b82811115620005ee578251825591602001919060010190620005d1565b50620005fc92915062000600565b5090565b6200026d91905b80821115620005fc576000815560010162000607565b610fc9806200062d6000396000f3fe608060405234801561001057600080fd5b506004361061010b5760003560e01c806340c10f19116100a257806398650275116100715780639865027514610327578063a457c2d71461032f578063a9059cbb1461035b578063aa271e1a14610387578063dd62ed3e146103ad5761010b565b806340c10f19146102a757806370a08231146102d357806395d89b41146102f9578063983b2d56146103015761010b565b80632a2fab22116100de5780632a2fab221461021d5780632dd5dde01461023e578063313ce5671461025d578063395093511461027b5761010b565b806306fdde0314610110578063095ea7b31461018d57806318160ddd146101cd57806323b872dd146101e7575b600080fd5b6101186103db565b6040805160208082528351818301528351919283929083019185019080838360005b8381101561015257818101518382015260200161013a565b50505050905090810190601f16801561017f5780820380516001836020036101000a031916815260200191505b509250505060405180910390f35b6101b9600480360360408110156101a357600080fd5b506001600160a01b038135169060200135610471565b604080519115158252519081900360200190f35b6101d561048f565b60408051918252519081900360200190f35b6101b9600480360360608110156101fd57600080fd5b506001600160a01b03813581169160208101359091169060400135610495565b610225610522565b6040805192835260208301919091528051918290030190f35b61025b6004803603602081101561025457600080fd5b503561053a565b005b61026561053f565b6040805160ff9092168252519081900360200190f35b6101b96004803603604081101561029157600080fd5b506001600160a01b038135169060200135610548565b6101b9600480360360408110156102bd57600080fd5b506001600160a01b03813516906020013561059c565b6101d5600480360360208110156102e957600080fd5b50356001600160a01b03166105f3565b61011861060e565b61025b6004803603602081101561031757600080fd5b50356001600160a01b031661066f565b61025b6106c1565b6101b96004803603604081101561034557600080fd5b506001600160a01b0381351690602001356106d3565b6101b96004803603604081101561037157600080fd5b506001600160a01b038135169060200135610741565b6101b96004803603602081101561039d57600080fd5b50356001600160a01b0316610755565b6101d5600480360360408110156103c357600080fd5b506001600160a01b0381358116916020013516610768565b60038054604080516020601f60026000196101006001881615020190951694909404938401819004810282018101909252828152606093909290918301828280156104675780601f1061043c57610100808354040283529160200191610467565b820191906000526020600020905b81548152906001019060200180831161044a57829003601f168201915b5050505050905090565b600061048561047e610793565b8484610797565b5060015b92915050565b60025490565b60006104a2848484610883565b610518846104ae610793565b61051385604051806060016040528060288152602001610edd602891396001600160a01b038a166000908152600160205260408120906104ec610793565b6001600160a01b03168152602081019190915260400160002054919063ffffffff6109df16565b610797565b5060019392505050565b600754600061052f61048f565b600060075591929050565b600755565b60055460ff1690565b6000610485610555610793565b846105138560016000610566610793565b6001600160a01b03908116825260208083019390935260409182016000908120918c16815292529020549063ffffffff610a7616565b60006105ae6105a9610793565b610755565b6105e95760405162461bcd60e51b8152600401808060200182810382526030815260200180610e6b6030913960400191505060405180910390fd5b6104858383610ad7565b6001600160a01b031660009081526020819052604090205490565b60048054604080516020601f60026000196101006001881615020190951694909404938401819004810282018101909252828152606093909290918301828280156104675780601f1061043c57610100808354040283529160200191610467565b61067a6105a9610793565b6106b55760405162461bcd60e51b8152600401808060200182810382526030815260200180610e6b6030913960400191505060405180910390fd5b6106be81610bc7565b50565b6106d16106cc610793565b610c0f565b565b60006104856106e0610793565b8461051385604051806060016040528060258152602001610f70602591396001600061070a610793565b6001600160a01b03908116825260208083019390935260409182016000908120918d1681529252902054919063ffffffff6109df16565b600061048561074e610793565b8484610883565b600061048960068363ffffffff610c5716565b6001600160a01b03918216600090815260016020908152604080832093909416825291909152205490565b3390565b6001600160a01b0383166107dc5760405162461bcd60e51b8152600401808060200182810382526024815260200180610f4c6024913960400191505060405180910390fd5b6001600160a01b0382166108215760405162461bcd60e51b8152600401808060200182810382526022815260200180610e236022913960400191505060405180910390fd5b6001600160a01b03808416600081815260016020908152604080832094871680845294825291829020859055815185815291517f8c5be1e5ebec7d5bd14f71427d1e84f3dd0314c0f7b2291e5b200ac8c7c3b9259281900390910190a3505050565b6001600160a01b0383166108c85760405162461bcd60e51b8152600401808060200182810382526025815260200180610f276025913960400191505060405180910390fd5b6001600160a01b03821661090d5760405162461bcd60e51b8152600401808060200182810382526023815260200180610e006023913960400191505060405180910390fd5b61095081604051806060016040528060268152602001610e45602691396001600160a01b038616600090815260208190526040902054919063ffffffff6109df16565b6001600160a01b038085166000908152602081905260408082209390935590841681522054610985908263ffffffff610a7616565b6001600160a01b038084166000818152602081815260409182902094909455805185815290519193928716927fddf252ad1be2c89b69c2b068fc378daa952ba7f163c4a11628f55a4df523b3ef92918290030190a3505050565b60008184841115610a6e5760405162461bcd60e51b81526004018080602001828103825283818151815260200191508051906020019080838360005b83811015610a33578181015183820152602001610a1b565b50505050905090810190601f168015610a605780820380516001836020036101000a031916815260200191505b509250505060405180910390fd5b505050900390565b600082820183811015610ad0576040805162461bcd60e51b815260206004820152601b60248201527f536166654d6174683a206164646974696f6e206f766572666c6f770000000000604482015290519081900360640190fd5b9392505050565b6001600160a01b038216610b32576040805162461bcd60e51b815260206004820152601f60248201527f45524332303a206d696e7420746f20746865207a65726f206164647265737300604482015290519081900360640190fd5b600254610b45908263ffffffff610a7616565b6002556001600160a01b038216600090815260208190526040902054610b71908263ffffffff610a7616565b6001600160a01b0383166000818152602081815260408083209490945583518581529351929391927fddf252ad1be2c89b69c2b068fc378daa952ba7f163c4a11628f55a4df523b3ef9281900390910190a35050565b610bd860068263ffffffff610cbe16565b6040516001600160a01b038216907f6ae172837ea30b801fbfcdd4108aa1d5bf8ff775444fd70256b44e6bf3dfc3f690600090a250565b610c2060068263ffffffff610d3f16565b6040516001600160a01b038216907fe94479a9f7e1952cc78f2d6baab678adc1b772d936c6583def489e524cb6669290600090a250565b60006001600160a01b038216610c9e5760405162461bcd60e51b8152600401808060200182810382526022815260200180610f056022913960400191505060405180910390fd5b506001600160a01b03166000908152602091909152604090205460ff1690565b610cc88282610c57565b15610d1a576040805162461bcd60e51b815260206004820152601f60248201527f526f6c65733a206163636f756e7420616c72656164792068617320726f6c6500604482015290519081900360640190fd5b6001600160a01b0316600090815260209190915260409020805460ff19166001179055565b610d498282610c57565b610d845760405162461bcd60e51b8152600401808060200182810382526021815260200180610e9b6021913960400191505060405180910390fd5b6001600160a01b0316600090815260209190915260409020805460ff19169055565b600082610db557506000610489565b82820282848281610dc257fe5b0414610ad05760405162461bcd60e51b8152600401808060200182810382526021815260200180610ebc6021913960400191505060405180910390fdfe45524332303a207472616e7366657220746f20746865207a65726f206164647265737345524332303a20617070726f766520746f20746865207a65726f206164647265737345524332303a207472616e7366657220616d6f756e7420657863656564732062616c616e63654d696e746572526f6c653a2063616c6c657220646f6573206e6f74206861766520746865204d696e74657220726f6c65526f6c65733a206163636f756e7420646f6573206e6f74206861766520726f6c65536166654d6174683a206d756c7469706c69636174696f6e206f766572666c6f7745524332303a207472616e7366657220616d6f756e74206578636565647320616c6c6f77616e6365526f6c65733a206163636f756e7420697320746865207a65726f206164647265737345524332303a207472616e736665722066726f6d20746865207a65726f206164647265737345524332303a20617070726f76652066726f6d20746865207a65726f206164647265737345524332303a2064656372656173656420616c6c6f77616e63652062656c6f77207a65726fa265627a7a72315820800d594097bd366efc72b93b4be016e8ed2198a0ed39c0110fe35ddf537f7ee664736f6c63430005100032536166654d6174683a206d756c7469706c69636174696f6e206f766572666c6f77526f6c65733a206163636f756e7420697320746865207a65726f2061646472657373",
  "source": "pragma solidity 0.5.16;\n\nimport { MockERC20 } from \"../shared/MockERC20.sol\";\n\ncontract MockMix is MockERC20 {\n\n    constructor(\n        string memory _name,\n        string memory _symbol,\n        uint8 _decimals,\n        address _initialRecipient,\n        uint256 _initialMint\n    )\n        public\n        MockERC20(\n            _name,\n            _symbol,\n            _decimals,\n            _initialRecipient,\n            _initialMint\n        )\n\n    {}\n\n    uint256 private amountToMint = 0;\n    uint256 private platformAmountToMint = 0;\n\n    // Inject amount of tokens to mint\n    function setAmountForCollectInterest(uint256 _amount) public {\n        amountToMint = _amount;\n    }\n    // Inject amount of tokens to mint\n    function setAmountForPlatformInterest(uint256 _amount) public {\n        platformAmountToMint = _amount;\n    }\n\n    function collectInterest()\n        external\n        returns (uint256 totalInterestGained, uint256 newSupply)\n    {\n        _mint(msg.sender, amountToMint);\n        totalInterestGained = amountToMint;\n        newSupply = totalSupply();\n        // Set back to zero\n        amountToMint = 0;\n    }\n\n    function collectPlatformInterest()\n        external\n        returns (uint256 totalInterestGained, uint256 newSupply)\n    {\n        _mint(msg.sender, platformAmountToMint);\n        totalInterestGained = platformAmountToMint;\n        newSupply = totalSupply();\n        // Set back to zero\n        platformAmountToMint = 0;\n    }\n\n}\ncontract MockMix1 is MockERC20 {\n\n    constructor(\n        string memory _name,\n        string memory _symbol,\n        uint8 _decimals,\n        address _initialRecipient,\n        uint256 _initialMint\n    )\n        public\n        MockERC20(\n            _name,\n            _symbol,\n            _decimals,\n            _initialRecipient,\n            _initialMint\n        )\n\n    {}\n\n    uint256 private amountToMint = 0;\n\n    // Inject amount of tokens to mint\n    function setAmountForCollectInterest(uint256 _amount) public {\n        amountToMint = _amount;\n    }\n\n    function collectInterest()\n        external\n        returns (uint256 totalInterestGained, uint256 newSupply)\n    {\n        totalInterestGained = amountToMint;\n        newSupply = totalSupply();\n        // Set back to zero\n        amountToMint = 0;\n    }\n\n}",
  "sourcePath": "/Volumes/sdxc/ETHEREUM/CODE/mStable-v1-edit/contracts/z_mocks/mix/MockMix.sol",
  "compiler": {
    "name": "solc",
    "version": "0.5.16+commit.9c3226ce.Emscripten.clang"
  },
  "schemaVersion": "3.1.0",
  "updatedAt": "2021-03-11T05:43:16.621Z",
  "devdoc": {
    "methods": {
      "allowance(address,address)": {
        "details": "See {IERC20-allowance}."
      },
      "approve(address,uint256)": {
        "details": "See {IERC20-approve}.     * Requirements:     * - `spender` cannot be the zero address."
      },
      "balanceOf(address)": {
        "details": "See {IERC20-balanceOf}."
      },
      "decimals()": {
        "details": "Returns the number of decimals used to get its user representation. For example, if `decimals` equals `2`, a balance of `505` tokens should be displayed to a user as `5,05` (`505 / 10 ** 2`).     * Tokens usually opt for a value of 18, imitating the relationship between Ether and Wei.     * NOTE: This information is only used for _display_ purposes: it in no way affects any of the arithmetic of the contract, including {IERC20-balanceOf} and {IERC20-transfer}."
      },
      "decreaseAllowance(address,uint256)": {
        "details": "Atomically decreases the allowance granted to `spender` by the caller.     * This is an alternative to {approve} that can be used as a mitigation for problems described in {IERC20-approve}.     * Emits an {Approval} event indicating the updated allowance.     * Requirements:     * - `spender` cannot be the zero address. - `spender` must have allowance for the caller of at least `subtractedValue`."
      },
      "increaseAllowance(address,uint256)": {
        "details": "Atomically increases the allowance granted to `spender` by the caller.     * This is an alternative to {approve} that can be used as a mitigation for problems described in {IERC20-approve}.     * Emits an {Approval} event indicating the updated allowance.     * Requirements:     * - `spender` cannot be the zero address."
      },
      "mint(address,uint256)": {
        "details": "See {ERC20-_mint}.     * Requirements:     * - the caller must have the {MinterRole}."
      },
      "name()": {
        "details": "Returns the name of the token."
      },
      "symbol()": {
        "details": "Returns the symbol of the token, usually a shorter version of the name."
      },
      "totalSupply()": {
        "details": "See {IERC20-totalSupply}."
      },
      "transfer(address,uint256)": {
        "details": "See {IERC20-transfer}.     * Requirements:     * - `recipient` cannot be the zero address. - the caller must have a balance of at least `amount`."
      },
      "transferFrom(address,address,uint256)": {
        "details": "See {IERC20-transferFrom}.     * Emits an {Approval} event indicating the updated allowance. This is not required by the EIP. See the note at the beginning of {ERC20};     * Requirements: - `sender` and `recipient` cannot be the zero address. - `sender` must have a balance of at least `amount`. - the caller must have allowance for `sender`'s tokens of at least `amount`."
      }
    }
  },
  "userdoc": {
    "methods": {}
  }
}