{
  "contractName": "MockModule",
  "abi": [
    {
      "inputs": [
        {
          "internalType": "address",
          "name": "_nexus",
          "type": "address"
        }
      ],
      "payable": false,
      "stateMutability": "nonpayable",
      "type": "constructor"
    },
    {
      "constant": true,
      "inputs": [],
      "name": "nexus",
      "outputs": [
        {
          "internalType": "contract INexus",
          "name": "",
          "type": "address"
        }
      ],
      "payable": false,
      "stateMutability": "view",
      "type": "function"
    },
    {
      "constant": true,
      "inputs": [],
      "name": "temp",
      "outputs": [
        {
          "internalType": "uint256",
          "name": "",
          "type": "uint256"
        }
      ],
      "payable": false,
      "stateMutability": "view",
      "type": "function"
    },
    {
      "constant": true,
      "inputs": [],
      "name": "governor",
      "outputs": [
        {
          "internalType": "address",
          "name": "",
          "type": "address"
        }
      ],
      "payable": false,
      "stateMutability": "view",
      "type": "function"
    },
    {
      "constant": true,
      "inputs": [],
      "name": "governance",
      "outputs": [
        {
          "internalType": "address",
          "name": "",
          "type": "address"
        }
      ],
      "payable": false,
      "stateMutability": "view",
      "type": "function"
    },
    {
      "constant": true,
      "inputs": [],
      "name": "staking",
      "outputs": [
        {
          "internalType": "address",
          "name": "",
          "type": "address"
        }
      ],
      "payable": false,
      "stateMutability": "view",
      "type": "function"
    },
    {
      "constant": true,
      "inputs": [],
      "name": "bildToken",
      "outputs": [
        {
          "internalType": "address",
          "name": "",
          "type": "address"
        }
      ],
      "payable": false,
      "stateMutability": "view",
      "type": "function"
    },
    {
      "constant": true,
      "inputs": [],
      "name": "oracleHub",
      "outputs": [
        {
          "internalType": "address",
          "name": "",
          "type": "address"
        }
      ],
      "payable": false,
      "stateMutability": "view",
      "type": "function"
    },
    {
      "constant": true,
      "inputs": [],
      "name": "manager",
      "outputs": [
        {
          "internalType": "address",
          "name": "",
          "type": "address"
        }
      ],
      "payable": false,
      "stateMutability": "view",
      "type": "function"
    },
    {
      "constant": true,
      "inputs": [],
      "name": "savingsManager",
      "outputs": [
        {
          "internalType": "address",
          "name": "",
          "type": "address"
        }
      ],
      "payable": false,
      "stateMutability": "view",
      "type": "function"
    },
    {
      "constant": true,
      "inputs": [],
      "name": "recollateraliser",
      "outputs": [
        {
          "internalType": "address",
          "name": "",
          "type": "address"
        }
      ],
      "payable": false,
      "stateMutability": "view",
      "type": "function"
    },
    {
      "constant": true,
      "inputs": [],
      "name": "proxyAdmin",
      "outputs": [
        {
          "internalType": "address",
          "name": "",
          "type": "address"
        }
      ],
      "payable": false,
      "stateMutability": "view",
      "type": "function"
    },
    {
      "constant": false,
      "inputs": [],
      "name": "shouldAllowOnlyGovernor",
      "outputs": [],
      "payable": false,
      "stateMutability": "nonpayable",
      "type": "function"
    },
    {
      "constant": false,
      "inputs": [],
      "name": "shouldAllowOnlyGovernance",
      "outputs": [],
      "payable": false,
      "stateMutability": "nonpayable",
      "type": "function"
    },
    {
      "constant": false,
      "inputs": [],
      "name": "shouldAllowOnlyManager",
      "outputs": [],
      "payable": false,
      "stateMutability": "nonpayable",
      "type": "function"
    },
    {
      "constant": false,
      "inputs": [],
      "name": "shouldAllowOnlyProxyAdmin",
      "outputs": [],
      "payable": false,
      "stateMutability": "nonpayable",
      "type": "function"
    }
  ],
  "bytecode": "0x608060405234801561001057600080fd5b506040516108df3803806108df8339818101604052602081101561003357600080fd5b5051806001600160a01b038116610091576040805162461bcd60e51b815260206004820152601560248201527f4e65787573206973207a65726f20616464726573730000000000000000000000604482015290519081900360640190fd5b600080546001600160a01b039092166001600160a01b03199092169190911790555061081d806100c26000396000f3fe608060405234801561001057600080fd5b50600436106100f55760003560e01c80634cf088d911610097578063a0f60ec211610066578063a0f60ec214610182578063a3f5c1d21461018a578063bcfb901214610192578063d6a4bffc1461019a576100f5565b80634cf088d9146101505780635aa6e67514610158578063673402e51461016057806373d62b461461017a576100f5565b8063212e46b6116100d3578063212e46b6146101305780633e47158c14610138578063410c34b714610140578063481c6a7514610148576100f5565b806308484f21146100fa5780630c340a241461011e5780630d0181d414610126575b600080fd5b6101026101a2565b604080516001600160a01b039092168252519081900360200190f35b6101026101b1565b61012e6101bb565b005b61012e61022f565b6101026102c6565b61012e6102d0565b610102610343565b61010261034d565b610102610357565b610168610361565b60408051918252519081900360200190f35b610102610367565b610102610371565b61010261037b565b61012e61038a565b6101026103fe565b60006101ac610408565b905090565b60006101ac6104a5565b6101c36104f4565b6001600160a01b0316336001600160a01b031614610228576040805162461bcd60e51b815260206004820152601860248201527f4f6e6c79206d616e616765722063616e20657865637574650000000000000000604482015290519081900360640190fd5b6003600155565b6102376104a5565b6001600160a01b0316336001600160a01b0316148061026e5750610259610560565b6001600160a01b0316336001600160a01b0316145b6102bf576040805162461bcd60e51b815260206004820152601b60248201527f4f6e6c7920676f7665726e616e63652063616e20657865637574650000000000604482015290519081900360640190fd5b6002600155565b60006101ac6105cc565b6102d86104a5565b6001600160a01b0316336001600160a01b03161461033d576040805162461bcd60e51b815260206004820152601960248201527f4f6e6c7920676f7665726e6f722063616e206578656375746500000000000000604482015290519081900360640190fd5b60018055565b60006101ac6104f4565b60006101ac610638565b60006101ac610560565b60015481565b60006101ac6106a4565b60006101ac610710565b6000546001600160a01b031681565b6103926105cc565b6001600160a01b0316336001600160a01b0316146103f7576040805162461bcd60e51b815260206004820152601b60248201527f4f6e6c792050726f787941646d696e2063616e20657865637574650000000000604482015290519081900360640190fd5b6004600155565b60006101ac61077c565b60008054604080516385acd64160e01b81527f39e3ed1fc335ce346a8cbe3e64dd525cf22b37f1e2104a755e761c3c1eb4734f600482015290516001600160a01b03909216916385acd64191602480820192602092909190829003018186803b15801561047457600080fd5b505afa158015610488573d6000803e3d6000fd5b505050506040513d602081101561049e57600080fd5b5051905090565b60008060009054906101000a90046001600160a01b03166001600160a01b0316630c340a246040518163ffffffff1660e01b815260040160206040518083038186803b15801561047457600080fd5b60008054604080516385acd64160e01b81527f6d439300980e333f0256d64be2c9f67e86f4493ce25f82498d6db7f4be3d9e6f600482015290516001600160a01b03909216916385acd64191602480820192602092909190829003018186803b15801561047457600080fd5b60008054604080516385acd64160e01b81527f9409903de1e6fd852dfc61c9dacb48196c48535b60e25abf92acc92dd689078d600482015290516001600160a01b03909216916385acd64191602480820192602092909190829003018186803b15801561047457600080fd5b60008054604080516385acd64160e01b81527f96ed0203eb7e975a4cbcaa23951943fa35c5d8288117d50c12b3d48b0fab48d1600482015290516001600160a01b03909216916385acd64191602480820192602092909190829003018186803b15801561047457600080fd5b60008054604080516385acd64160e01b81527f1df41cd916959d1163dc8f0671a666ea8a3e434c13e40faef527133b5d167034600482015290516001600160a01b03909216916385acd64191602480820192602092909190829003018186803b15801561047457600080fd5b60008054604080516385acd64160e01b81527f8ae3a082c61a7379e2280f3356a5131507d9829d222d853bfa7c9fe1200dd040600482015290516001600160a01b03909216916385acd64191602480820192602092909190829003018186803b15801561047457600080fd5b60008054604080516385acd64160e01b81527f12fe936c77a1e196473c4314f3bed8eeac1d757b319abb85bdda70df35511bf1600482015290516001600160a01b03909216916385acd64191602480820192602092909190829003018186803b15801561047457600080fd5b60008054604080516385acd64160e01b81527fea7469b14936af748ee93c53b2fe510b9928edbdccac3963321efca7eb1a57a2600482015290516001600160a01b03909216916385acd64191602480820192602092909190829003018186803b15801561047457600080fdfea265627a7a72315820f920756d356e3df917dbf0ad9fc43b69d3fbd7188be13d2663debbbbf24559fd64736f6c63430005100032",
  "source": "pragma solidity 0.5.16;\n\nimport { Module } from \"../../shared/Module.sol\";\n\ncontract MockModule is Module {\n\n    uint256 public temp;\n\n    constructor(address _nexus) public Module(_nexus) {}\n\n    function governor() public view returns (address) {\n        return super._governor();\n    }\n\n    function governance() public view returns (address) {\n        return super._governance();\n    }\n\n    function staking() public view returns (address) {\n        return super._staking();\n    }\n\n    function bildToken() public view returns (address) {\n        return super._bildToken();\n    }\n\n    function oracleHub() public view returns (address) {\n        return super._oracleHub();\n    }\n\n    function manager() public view returns (address) {\n        return super._manager();\n    }\n\n    function savingsManager() public view returns (address) {\n        return super._savingsManager();\n    }\n\n    function recollateraliser() public view returns (address) {\n        return super._recollateraliser();\n    }\n\n    function proxyAdmin() public view returns (address) {\n        return super._proxyAdmin();\n    }\n\n    function shouldAllowOnlyGovernor() public onlyGovernor {\n        temp = 1;\n    }\n\n    function shouldAllowOnlyGovernance() public onlyGovernance {\n        temp = 2;\n    }\n\n    function shouldAllowOnlyManager() public onlyManager {\n        temp = 3;\n    }\n\n    function shouldAllowOnlyProxyAdmin() public onlyProxyAdmin {\n        temp = 4;\n    }\n}",
  "sourcePath": "/Volumes/sdxc/ETHEREUM/CODE/mStable-v1-edit/contracts/z_mocks/shared/MockModule.sol",
  "compiler": {
    "name": "solc",
    "version": "0.5.16+commit.9c3226ce.Emscripten.clang"
  },
  "schemaVersion": "3.1.0",
  "updatedAt": "2021-03-11T05:43:18.414Z",
  "devdoc": {
    "methods": {}
  },
  "userdoc": {
    "methods": {}
  }
}