{
  "contractName": "MockMix",
  "abi": [
    {
      "inputs": [
        {
          "internalType": "string",
          "name": "_name",
          "type": "string"
        },
        {
          "internalType": "string",
          "name": "_symbol",
          "type": "string"
        },
        {
          "internalType": "uint8",
          "name": "_decimals",
          "type": "uint8"
        },
        {
          "internalType": "address",
          "name": "_initialRecipient",
          "type": "address"
        },
        {
          "internalType": "uint256",
          "name": "_initialMint",
          "type": "uint256"
        }
      ],
      "payable": false,
      "stateMutability": "nonpayable",
      "type": "constructor"
    },
    {
      "anonymous": false,
      "inputs": [
        {
          "indexed": true,
          "internalType": "address",
          "name": "owner",
          "type": "address"
        },
        {
          "indexed": true,
          "internalType": "address",
          "name": "spender",
          "type": "address"
        },
        {
          "indexed": false,
          "internalType": "uint256",
          "name": "value",
          "type": "uint256"
        }
      ],
      "name": "Approval",
      "type": "event"
    },
    {
      "anonymous": false,
      "inputs": [
        {
          "indexed": true,
          "internalType": "address",
          "name": "account",
          "type": "address"
        }
      ],
      "name": "MinterAdded",
      "type": "event"
    },
    {
      "anonymous": false,
      "inputs": [
        {
          "indexed": true,
          "internalType": "address",
          "name": "account",
          "type": "address"
        }
      ],
      "name": "MinterRemoved",
      "type": "event"
    },
    {
      "anonymous": false,
      "inputs": [
        {
          "indexed": true,
          "internalType": "address",
          "name": "from",
          "type": "address"
        },
        {
          "indexed": true,
          "internalType": "address",
          "name": "to",
          "type": "address"
        },
        {
          "indexed": false,
          "internalType": "uint256",
          "name": "value",
          "type": "uint256"
        }
      ],
      "name": "Transfer",
      "type": "event"
    },
    {
      "constant": false,
      "inputs": [
        {
          "internalType": "address",
          "name": "account",
          "type": "address"
        }
      ],
      "name": "addMinter",
      "outputs": [],
      "payable": false,
      "stateMutability": "nonpayable",
      "type": "function"
    },
    {
      "constant": true,
      "inputs": [
        {
          "internalType": "address",
          "name": "owner",
          "type": "address"
        },
        {
          "internalType": "address",
          "name": "spender",
          "type": "address"
        }
      ],
      "name": "allowance",
      "outputs": [
        {
          "internalType": "uint256",
          "name": "",
          "type": "uint256"
        }
      ],
      "payable": false,
      "stateMutability": "view",
      "type": "function"
    },
    {
      "constant": false,
      "inputs": [
        {
          "internalType": "address",
          "name": "spender",
          "type": "address"
        },
        {
          "internalType": "uint256",
          "name": "amount",
          "type": "uint256"
        }
      ],
      "name": "approve",
      "outputs": [
        {
          "internalType": "bool",
          "name": "",
          "type": "bool"
        }
      ],
      "payable": false,
      "stateMutability": "nonpayable",
      "type": "function"
    },
    {
      "constant": true,
      "inputs": [
        {
          "internalType": "address",
          "name": "account",
          "type": "address"
        }
      ],
      "name": "balanceOf",
      "outputs": [
        {
          "internalType": "uint256",
          "name": "",
          "type": "uint256"
        }
      ],
      "payable": false,
      "stateMutability": "view",
      "type": "function"
    },
    {
      "constant": true,
      "inputs": [],
      "name": "decimals",
      "outputs": [
        {
          "internalType": "uint8",
          "name": "",
          "type": "uint8"
        }
      ],
      "payable": false,
      "stateMutability": "view",
      "type": "function"
    },
    {
      "constant": false,
      "inputs": [
        {
          "internalType": "address",
          "name": "spender",
          "type": "address"
        },
        {
          "internalType": "uint256",
          "name": "subtractedValue",
          "type": "uint256"
        }
      ],
      "name": "decreaseAllowance",
      "outputs": [
        {
          "internalType": "bool",
          "name": "",
          "type": "bool"
        }
      ],
      "payable": false,
      "stateMutability": "nonpayable",
      "type": "function"
    },
    {
      "constant": false,
      "inputs": [
        {
          "internalType": "address",
          "name": "spender",
          "type": "address"
        },
        {
          "internalType": "uint256",
          "name": "addedValue",
          "type": "uint256"
        }
      ],
      "name": "increaseAllowance",
      "outputs": [
        {
          "internalType": "bool",
          "name": "",
          "type": "bool"
        }
      ],
      "payable": false,
      "stateMutability": "nonpayable",
      "type": "function"
    },
    {
      "constant": true,
      "inputs": [
        {
          "internalType": "address",
          "name": "account",
          "type": "address"
        }
      ],
      "name": "isMinter",
      "outputs": [
        {
          "internalType": "bool",
          "name": "",
          "type": "bool"
        }
      ],
      "payable": false,
      "stateMutability": "view",
      "type": "function"
    },
    {
      "constant": false,
      "inputs": [
        {
          "internalType": "address",
          "name": "account",
          "type": "address"
        },
        {
          "internalType": "uint256",
          "name": "amount",
          "type": "uint256"
        }
      ],
      "name": "mint",
      "outputs": [
        {
          "internalType": "bool",
          "name": "",
          "type": "bool"
        }
      ],
      "payable": false,
      "stateMutability": "nonpayable",
      "type": "function"
    },
    {
      "constant": true,
      "inputs": [],
      "name": "name",
      "outputs": [
        {
          "internalType": "string",
          "name": "",
          "type": "string"
        }
      ],
      "payable": false,
      "stateMutability": "view",
      "type": "function"
    },
    {
      "constant": false,
      "inputs": [],
      "name": "renounceMinter",
      "outputs": [],
      "payable": false,
      "stateMutability": "nonpayable",
      "type": "function"
    },
    {
      "constant": true,
      "inputs": [],
      "name": "symbol",
      "outputs": [
        {
          "internalType": "string",
          "name": "",
          "type": "string"
        }
      ],
      "payable": false,
      "stateMutability": "view",
      "type": "function"
    },
    {
      "constant": true,
      "inputs": [],
      "name": "totalSupply",
      "outputs": [
        {
          "internalType": "uint256",
          "name": "",
          "type": "uint256"
        }
      ],
      "payable": false,
      "stateMutability": "view",
      "type": "function"
    },
    {
      "constant": false,
      "inputs": [
        {
          "internalType": "address",
          "name": "recipient",
          "type": "address"
        },
        {
          "internalType": "uint256",
          "name": "amount",
          "type": "uint256"
        }
      ],
      "name": "transfer",
      "outputs": [
        {
          "internalType": "bool",
          "name": "",
          "type": "bool"
        }
      ],
      "payable": false,
      "stateMutability": "nonpayable",
      "type": "function"
    },
    {
      "constant": false,
      "inputs": [
        {
          "internalType": "address",
          "name": "sender",
          "type": "address"
        },
        {
          "internalType": "address",
          "name": "recipient",
          "type": "address"
        },
        {
          "internalType": "uint256",
          "name": "amount",
          "type": "uint256"
        }
      ],
      "name": "transferFrom",
      "outputs": [
        {
          "internalType": "bool",
          "name": "",
          "type": "bool"
        }
      ],
      "payable": false,
      "stateMutability": "nonpayable",
      "type": "function"
    },
    {
      "constant": false,
      "inputs": [
        {
          "internalType": "uint256",
          "name": "_amount",
          "type": "uint256"
        }
      ],
      "name": "setAmountForCollectInterest",
      "outputs": [],
      "payable": false,
      "stateMutability": "nonpayable",
      "type": "function"
    },
    {
      "constant": false,
      "inputs": [
        {
          "internalType": "uint256",
          "name": "_amount",
          "type": "uint256"
        }
      ],
      "name": "setAmountForPlatformInterest",
      "outputs": [],
      "payable": false,
      "stateMutability": "nonpayable",
      "type": "function"
    },
    {
      "constant": false,
      "inputs": [],
      "name": "collectInterest",
      "outputs": [
        {
          "internalType": "uint256",
          "name": "totalInterestGained",
          "type": "uint256"
        },
        {
          "internalType": "uint256",
          "name": "newSupply",
          "type": "uint256"
        }
      ],
      "payable": false,
      "stateMutability": "nonpayable",
      "type": "function"
    },
    {
      "constant": false,
      "inputs": [],
      "name": "collectPlatformInterest",
      "outputs": [
        {
          "internalType": "uint256",
          "name": "totalInterestGained",
          "type": "uint256"
        },
        {
          "internalType": "uint256",
          "name": "newSupply",
          "type": "uint256"
        }
      ],
      "payable": false,
      "stateMutability": "nonpayable",
      "type": "function"
    }
  ],
  "bytecode": "0x6080604052600060075560006008553480156200001b57600080fd5b50604051620016b4380380620016b4833981810160405260a08110156200004157600080fd5b81019080805160405193929190846401000000008211156200006257600080fd5b9083019060208201858111156200007857600080fd5b82516401000000008111828201881017156200009357600080fd5b82525081516020918201929091019080838360005b83811015620000c2578181015183820152602001620000a8565b50505050905090810190601f168015620000f05780820380516001836020036101000a031916815260200191505b50604052602001805160405193929190846401000000008211156200011457600080fd5b9083019060208201858111156200012a57600080fd5b82516401000000008111828201881017156200014557600080fd5b82525081516020918201929091019080838360005b83811015620001745781810151838201526020016200015a565b50505050905090810190601f168015620001a25780820380516001836020036101000a031916815260200191505b50604090815260208281015191830151606090930151875192955092935086918691869186918691869186918691620001e19160039186019062000580565b508151620001f790600490602085019062000580565b506005805460ff191660ff92909216919091179055506200022c90506200021d62000270565b6001600160e01b036200027516565b6200026082620002518560ff16600a0a84620002c760201b62000e1c1790919060201c565b6001600160e01b036200032e16565b5050505050505050505062000622565b335b90565b620002908160066200042f60201b62000d341790919060201c565b6040516001600160a01b038216907f6ae172837ea30b801fbfcdd4108aa1d5bf8ff775444fd70256b44e6bf3dfc3f690600090a250565b600082620002d85750600062000328565b82820282848281620002e657fe5b0414620003255760405162461bcd60e51b8152600401808060200182810382526021815260200180620016716021913960400191505060405180910390fd5b90505b92915050565b6001600160a01b0382166200038a576040805162461bcd60e51b815260206004820152601f60248201527f45524332303a206d696e7420746f20746865207a65726f206164647265737300604482015290519081900360640190fd5b620003a681600254620004bc60201b62000bdc1790919060201c565b6002556001600160a01b03821660009081526020818152604090912054620003d991839062000bdc620004bc821b17901c565b6001600160a01b0383166000818152602081815260408083209490945583518581529351929391927fddf252ad1be2c89b69c2b068fc378daa952ba7f163c4a11628f55a4df523b3ef9281900390910190a35050565b6200044482826001600160e01b036200051716565b1562000497576040805162461bcd60e51b815260206004820152601f60248201527f526f6c65733a206163636f756e7420616c72656164792068617320726f6c6500604482015290519081900360640190fd5b6001600160a01b0316600090815260209190915260409020805460ff19166001179055565b60008282018381101562000325576040805162461bcd60e51b815260206004820152601b60248201527f536166654d6174683a206164646974696f6e206f766572666c6f770000000000604482015290519081900360640190fd5b60006001600160a01b038216620005605760405162461bcd60e51b8152600401808060200182810382526022815260200180620016926022913960400191505060405180910390fd5b506001600160a01b03166000908152602091909152604090205460ff1690565b828054600181600116156101000203166002900490600052602060002090601f016020900481019282601f10620005c357805160ff1916838001178555620005f3565b82800160010185558215620005f3579182015b82811115620005f3578251825591602001919060010190620005d6565b506200060192915062000605565b5090565b6200027291905b808211156200060157600081556001016200060c565b61103f80620006326000396000f3fe608060405234801561001057600080fd5b50600436106101215760003560e01c8063609bb413116100ad57806398650275116100715780639865027514610362578063a457c2d71461036a578063a9059cbb14610396578063aa271e1a146103c2578063dd62ed3e146103e857610121565b8063609bb413146102e957806370a08231146103065780637e8901ea1461032c57806395d89b4114610334578063983b2d561461033c57610121565b80632a2fab22116100f45780632a2fab22146102335780632dd5dde014610254578063313ce56714610273578063395093511461029157806340c10f19146102bd57610121565b806306fdde0314610126578063095ea7b3146101a357806318160ddd146101e357806323b872dd146101fd575b600080fd5b61012e610416565b6040805160208082528351818301528351919283929083019185019080838360005b83811015610168578181015183820152602001610150565b50505050905090810190601f1680156101955780820380516001836020036101000a031916815260200191505b509250505060405180910390f35b6101cf600480360360408110156101b957600080fd5b506001600160a01b0381351690602001356104ac565b604080519115158252519081900360200190f35b6101eb6104ca565b60408051918252519081900360200190f35b6101cf6004803603606081101561021357600080fd5b506001600160a01b038135811691602081013590911690604001356104d0565b61023b61055d565b6040805192835260208301919091528051918290030190f35b6102716004803603602081101561026a57600080fd5b5035610584565b005b61027b610589565b6040805160ff9092168252519081900360200190f35b6101cf600480360360408110156102a757600080fd5b506001600160a01b038135169060200135610592565b6101cf600480360360408110156102d357600080fd5b506001600160a01b0381351690602001356105e6565b610271600480360360208110156102ff57600080fd5b503561063d565b6101eb6004803603602081101561031c57600080fd5b50356001600160a01b0316610642565b61023b61065d565b61012e610684565b6102716004803603602081101561035257600080fd5b50356001600160a01b03166106e5565b610271610737565b6101cf6004803603604081101561038057600080fd5b506001600160a01b038135169060200135610749565b6101cf600480360360408110156103ac57600080fd5b506001600160a01b0381351690602001356107b7565b6101cf600480360360208110156103d857600080fd5b50356001600160a01b03166107cb565b6101eb600480360360408110156103fe57600080fd5b506001600160a01b03813581169160200135166107de565b60038054604080516020601f60026000196101006001881615020190951694909404938401819004810282018101909252828152606093909290918301828280156104a25780601f10610477576101008083540402835291602001916104a2565b820191906000526020600020905b81548152906001019060200180831161048557829003601f168201915b5050505050905090565b60006104c06104b9610809565b848461080d565b5060015b92915050565b60025490565b60006104dd8484846108f9565b610553846104e9610809565b61054e85604051806060016040528060288152602001610f53602891396001600160a01b038a16600090815260016020526040812090610527610809565b6001600160a01b03168152602081019190915260400160002054919063ffffffff610a5516565b61080d565b5060019392505050565b60008061056c33600754610aec565b60075491506105796104ca565b600060075591929050565b600755565b60055460ff1690565b60006104c061059f610809565b8461054e85600160006105b0610809565b6001600160a01b03908116825260208083019390935260409182016000908120918c16815292529020549063ffffffff610bdc16565b60006105f86105f3610809565b6107cb565b6106335760405162461bcd60e51b8152600401808060200182810382526030815260200180610ee16030913960400191505060405180910390fd5b6104c08383610aec565b600855565b6001600160a01b031660009081526020819052604090205490565b60008061066c33600854610aec565b60085491506106796104ca565b600060085591929050565b60048054604080516020601f60026000196101006001881615020190951694909404938401819004810282018101909252828152606093909290918301828280156104a25780601f10610477576101008083540402835291602001916104a2565b6106f06105f3610809565b61072b5760405162461bcd60e51b8152600401808060200182810382526030815260200180610ee16030913960400191505060405180910390fd5b61073481610c3d565b50565b610747610742610809565b610c85565b565b60006104c0610756610809565b8461054e85604051806060016040528060258152602001610fe66025913960016000610780610809565b6001600160a01b03908116825260208083019390935260409182016000908120918d1681529252902054919063ffffffff610a5516565b60006104c06107c4610809565b84846108f9565b60006104c460068363ffffffff610ccd16565b6001600160a01b03918216600090815260016020908152604080832093909416825291909152205490565b3390565b6001600160a01b0383166108525760405162461bcd60e51b8152600401808060200182810382526024815260200180610fc26024913960400191505060405180910390fd5b6001600160a01b0382166108975760405162461bcd60e51b8152600401808060200182810382526022815260200180610e996022913960400191505060405180910390fd5b6001600160a01b03808416600081815260016020908152604080832094871680845294825291829020859055815185815291517f8c5be1e5ebec7d5bd14f71427d1e84f3dd0314c0f7b2291e5b200ac8c7c3b9259281900390910190a3505050565b6001600160a01b03831661093e5760405162461bcd60e51b8152600401808060200182810382526025815260200180610f9d6025913960400191505060405180910390fd5b6001600160a01b0382166109835760405162461bcd60e51b8152600401808060200182810382526023815260200180610e766023913960400191505060405180910390fd5b6109c681604051806060016040528060268152602001610ebb602691396001600160a01b038616600090815260208190526040902054919063ffffffff610a5516565b6001600160a01b0380851660009081526020819052604080822093909355908416815220546109fb908263ffffffff610bdc16565b6001600160a01b038084166000818152602081815260409182902094909455805185815290519193928716927fddf252ad1be2c89b69c2b068fc378daa952ba7f163c4a11628f55a4df523b3ef92918290030190a3505050565b60008184841115610ae45760405162461bcd60e51b81526004018080602001828103825283818151815260200191508051906020019080838360005b83811015610aa9578181015183820152602001610a91565b50505050905090810190601f168015610ad65780820380516001836020036101000a031916815260200191505b509250505060405180910390fd5b505050900390565b6001600160a01b038216610b47576040805162461bcd60e51b815260206004820152601f60248201527f45524332303a206d696e7420746f20746865207a65726f206164647265737300604482015290519081900360640190fd5b600254610b5a908263ffffffff610bdc16565b6002556001600160a01b038216600090815260208190526040902054610b86908263ffffffff610bdc16565b6001600160a01b0383166000818152602081815260408083209490945583518581529351929391927fddf252ad1be2c89b69c2b068fc378daa952ba7f163c4a11628f55a4df523b3ef9281900390910190a35050565b600082820183811015610c36576040805162461bcd60e51b815260206004820152601b60248201527f536166654d6174683a206164646974696f6e206f766572666c6f770000000000604482015290519081900360640190fd5b9392505050565b610c4e60068263ffffffff610d3416565b6040516001600160a01b038216907f6ae172837ea30b801fbfcdd4108aa1d5bf8ff775444fd70256b44e6bf3dfc3f690600090a250565b610c9660068263ffffffff610db516565b6040516001600160a01b038216907fe94479a9f7e1952cc78f2d6baab678adc1b772d936c6583def489e524cb6669290600090a250565b60006001600160a01b038216610d145760405162461bcd60e51b8152600401808060200182810382526022815260200180610f7b6022913960400191505060405180910390fd5b506001600160a01b03166000908152602091909152604090205460ff1690565b610d3e8282610ccd565b15610d90576040805162461bcd60e51b815260206004820152601f60248201527f526f6c65733a206163636f756e7420616c72656164792068617320726f6c6500604482015290519081900360640190fd5b6001600160a01b0316600090815260209190915260409020805460ff19166001179055565b610dbf8282610ccd565b610dfa5760405162461bcd60e51b8152600401808060200182810382526021815260200180610f116021913960400191505060405180910390fd5b6001600160a01b0316600090815260209190915260409020805460ff19169055565b600082610e2b575060006104c4565b82820282848281610e3857fe5b0414610c365760405162461bcd60e51b8152600401808060200182810382526021815260200180610f326021913960400191505060405180910390fdfe45524332303a207472616e7366657220746f20746865207a65726f206164647265737345524332303a20617070726f766520746f20746865207a65726f206164647265737345524332303a207472616e7366657220616d6f756e7420657863656564732062616c616e63654d696e746572526f6c653a2063616c6c657220646f6573206e6f74206861766520746865204d696e74657220726f6c65526f6c65733a206163636f756e7420646f6573206e6f74206861766520726f6c65536166654d6174683a206d756c7469706c69636174696f6e206f766572666c6f7745524332303a207472616e7366657220616d6f756e74206578636565647320616c6c6f77616e6365526f6c65733a206163636f756e7420697320746865207a65726f206164647265737345524332303a207472616e736665722066726f6d20746865207a65726f206164647265737345524332303a20617070726f76652066726f6d20746865207a65726f206164647265737345524332303a2064656372656173656420616c6c6f77616e63652062656c6f77207a65726fa265627a7a7231582054edd901c590feed37b2a8c1310e1aabbe6c789a5c729e24b47391be70f03a2c64736f6c63430005100032536166654d6174683a206d756c7469706c69636174696f6e206f766572666c6f77526f6c65733a206163636f756e7420697320746865207a65726f2061646472657373",
  "source": "pragma solidity 0.5.16;\n\nimport { MockERC20 } from \"../shared/MockERC20.sol\";\n\ncontract MockMix is MockERC20 {\n\n    constructor(\n        string memory _name,\n        string memory _symbol,\n        uint8 _decimals,\n        address _initialRecipient,\n        uint256 _initialMint\n    )\n        public\n        MockERC20(\n            _name,\n            _symbol,\n            _decimals,\n            _initialRecipient,\n            _initialMint\n        )\n\n    {}\n\n    uint256 private amountToMint = 0;\n    uint256 private platformAmountToMint = 0;\n\n    // Inject amount of tokens to mint\n    function setAmountForCollectInterest(uint256 _amount) public {\n        amountToMint = _amount;\n    }\n    // Inject amount of tokens to mint\n    function setAmountForPlatformInterest(uint256 _amount) public {\n        platformAmountToMint = _amount;\n    }\n\n    function collectInterest()\n        external\n        returns (uint256 totalInterestGained, uint256 newSupply)\n    {\n        _mint(msg.sender, amountToMint);\n        totalInterestGained = amountToMint;\n        newSupply = totalSupply();\n        // Set back to zero\n        amountToMint = 0;\n    }\n\n    function collectPlatformInterest()\n        external\n        returns (uint256 totalInterestGained, uint256 newSupply)\n    {\n        _mint(msg.sender, platformAmountToMint);\n        totalInterestGained = platformAmountToMint;\n        newSupply = totalSupply();\n        // Set back to zero\n        platformAmountToMint = 0;\n    }\n\n}\ncontract MockMix1 is MockERC20 {\n\n    constructor(\n        string memory _name,\n        string memory _symbol,\n        uint8 _decimals,\n        address _initialRecipient,\n        uint256 _initialMint\n    )\n        public\n        MockERC20(\n            _name,\n            _symbol,\n            _decimals,\n            _initialRecipient,\n            _initialMint\n        )\n\n    {}\n\n    uint256 private amountToMint = 0;\n\n    // Inject amount of tokens to mint\n    function setAmountForCollectInterest(uint256 _amount) public {\n        amountToMint = _amount;\n    }\n\n    function collectInterest()\n        external\n        returns (uint256 totalInterestGained, uint256 newSupply)\n    {\n        totalInterestGained = amountToMint;\n        newSupply = totalSupply();\n        // Set back to zero\n        amountToMint = 0;\n    }\n\n}",
  "sourcePath": "/Volumes/sdxc/ETHEREUM/CODE/mStable-v1-edit/contracts/z_mocks/mix/MockMix.sol",
  "compiler": {
    "name": "solc",
    "version": "0.5.16+commit.9c3226ce.Emscripten.clang"
  },
  "schemaVersion": "3.1.0",
  "updatedAt": "2021-03-11T05:43:16.609Z",
  "devdoc": {
    "methods": {
      "allowance(address,address)": {
        "details": "See {IERC20-allowance}."
      },
      "approve(address,uint256)": {
        "details": "See {IERC20-approve}.     * Requirements:     * - `spender` cannot be the zero address."
      },
      "balanceOf(address)": {
        "details": "See {IERC20-balanceOf}."
      },
      "decimals()": {
        "details": "Returns the number of decimals used to get its user representation. For example, if `decimals` equals `2`, a balance of `505` tokens should be displayed to a user as `5,05` (`505 / 10 ** 2`).     * Tokens usually opt for a value of 18, imitating the relationship between Ether and Wei.     * NOTE: This information is only used for _display_ purposes: it in no way affects any of the arithmetic of the contract, including {IERC20-balanceOf} and {IERC20-transfer}."
      },
      "decreaseAllowance(address,uint256)": {
        "details": "Atomically decreases the allowance granted to `spender` by the caller.     * This is an alternative to {approve} that can be used as a mitigation for problems described in {IERC20-approve}.     * Emits an {Approval} event indicating the updated allowance.     * Requirements:     * - `spender` cannot be the zero address. - `spender` must have allowance for the caller of at least `subtractedValue`."
      },
      "increaseAllowance(address,uint256)": {
        "details": "Atomically increases the allowance granted to `spender` by the caller.     * This is an alternative to {approve} that can be used as a mitigation for problems described in {IERC20-approve}.     * Emits an {Approval} event indicating the updated allowance.     * Requirements:     * - `spender` cannot be the zero address."
      },
      "mint(address,uint256)": {
        "details": "See {ERC20-_mint}.     * Requirements:     * - the caller must have the {MinterRole}."
      },
      "name()": {
        "details": "Returns the name of the token."
      },
      "symbol()": {
        "details": "Returns the symbol of the token, usually a shorter version of the name."
      },
      "totalSupply()": {
        "details": "See {IERC20-totalSupply}."
      },
      "transfer(address,uint256)": {
        "details": "See {IERC20-transfer}.     * Requirements:     * - `recipient` cannot be the zero address. - the caller must have a balance of at least `amount`."
      },
      "transferFrom(address,address,uint256)": {
        "details": "See {IERC20-transferFrom}.     * Emits an {Approval} event indicating the updated allowance. This is not required by the EIP. See the note at the beginning of {ERC20};     * Requirements: - `sender` and `recipient` cannot be the zero address. - `sender` must have a balance of at least `amount`. - the caller must have allowance for `sender`'s tokens of at least `amount`."
      }
    }
  },
  "userdoc": {
    "methods": {}
  }
}