{
  "contractName": "MockERC20WithFee",
  "abi": [
    {
      "inputs": [
        {
          "internalType": "string",
          "name": "_name",
          "type": "string"
        },
        {
          "internalType": "string",
          "name": "_symbol",
          "type": "string"
        },
        {
          "internalType": "uint8",
          "name": "_decimals",
          "type": "uint8"
        },
        {
          "internalType": "address",
          "name": "_initialRecipient",
          "type": "address"
        },
        {
          "internalType": "uint256",
          "name": "_initialMint",
          "type": "uint256"
        }
      ],
      "payable": false,
      "stateMutability": "nonpayable",
      "type": "constructor"
    },
    {
      "anonymous": false,
      "inputs": [
        {
          "indexed": true,
          "internalType": "address",
          "name": "owner",
          "type": "address"
        },
        {
          "indexed": true,
          "internalType": "address",
          "name": "spender",
          "type": "address"
        },
        {
          "indexed": false,
          "internalType": "uint256",
          "name": "value",
          "type": "uint256"
        }
      ],
      "name": "Approval",
      "type": "event"
    },
    {
      "anonymous": false,
      "inputs": [
        {
          "indexed": true,
          "internalType": "address",
          "name": "sender",
          "type": "address"
        },
        {
          "indexed": false,
          "internalType": "uint256",
          "name": "amount",
          "type": "uint256"
        }
      ],
      "name": "FeePaid",
      "type": "event"
    },
    {
      "anonymous": false,
      "inputs": [
        {
          "indexed": true,
          "internalType": "address",
          "name": "account",
          "type": "address"
        }
      ],
      "name": "MinterAdded",
      "type": "event"
    },
    {
      "anonymous": false,
      "inputs": [
        {
          "indexed": true,
          "internalType": "address",
          "name": "account",
          "type": "address"
        }
      ],
      "name": "MinterRemoved",
      "type": "event"
    },
    {
      "anonymous": false,
      "inputs": [
        {
          "indexed": true,
          "internalType": "address",
          "name": "from",
          "type": "address"
        },
        {
          "indexed": true,
          "internalType": "address",
          "name": "to",
          "type": "address"
        },
        {
          "indexed": false,
          "internalType": "uint256",
          "name": "value",
          "type": "uint256"
        }
      ],
      "name": "Transfer",
      "type": "event"
    },
    {
      "constant": false,
      "inputs": [
        {
          "internalType": "address",
          "name": "account",
          "type": "address"
        }
      ],
      "name": "addMinter",
      "outputs": [],
      "payable": false,
      "stateMutability": "nonpayable",
      "type": "function"
    },
    {
      "constant": true,
      "inputs": [
        {
          "internalType": "address",
          "name": "owner",
          "type": "address"
        },
        {
          "internalType": "address",
          "name": "spender",
          "type": "address"
        }
      ],
      "name": "allowance",
      "outputs": [
        {
          "internalType": "uint256",
          "name": "",
          "type": "uint256"
        }
      ],
      "payable": false,
      "stateMutability": "view",
      "type": "function"
    },
    {
      "constant": false,
      "inputs": [
        {
          "internalType": "address",
          "name": "spender",
          "type": "address"
        },
        {
          "internalType": "uint256",
          "name": "value",
          "type": "uint256"
        }
      ],
      "name": "approve",
      "outputs": [
        {
          "internalType": "bool",
          "name": "",
          "type": "bool"
        }
      ],
      "payable": false,
      "stateMutability": "nonpayable",
      "type": "function"
    },
    {
      "constant": true,
      "inputs": [
        {
          "internalType": "address",
          "name": "account",
          "type": "address"
        }
      ],
      "name": "balanceOf",
      "outputs": [
        {
          "internalType": "uint256",
          "name": "",
          "type": "uint256"
        }
      ],
      "payable": false,
      "stateMutability": "view",
      "type": "function"
    },
    {
      "constant": true,
      "inputs": [],
      "name": "decimals",
      "outputs": [
        {
          "internalType": "uint8",
          "name": "",
          "type": "uint8"
        }
      ],
      "payable": false,
      "stateMutability": "view",
      "type": "function"
    },
    {
      "constant": false,
      "inputs": [
        {
          "internalType": "address",
          "name": "spender",
          "type": "address"
        },
        {
          "internalType": "uint256",
          "name": "subtractedValue",
          "type": "uint256"
        }
      ],
      "name": "decreaseAllowance",
      "outputs": [
        {
          "internalType": "bool",
          "name": "",
          "type": "bool"
        }
      ],
      "payable": false,
      "stateMutability": "nonpayable",
      "type": "function"
    },
    {
      "constant": true,
      "inputs": [],
      "name": "feeRate",
      "outputs": [
        {
          "internalType": "uint256",
          "name": "",
          "type": "uint256"
        }
      ],
      "payable": false,
      "stateMutability": "view",
      "type": "function"
    },
    {
      "constant": false,
      "inputs": [
        {
          "internalType": "address",
          "name": "spender",
          "type": "address"
        },
        {
          "internalType": "uint256",
          "name": "addedValue",
          "type": "uint256"
        }
      ],
      "name": "increaseAllowance",
      "outputs": [
        {
          "internalType": "bool",
          "name": "",
          "type": "bool"
        }
      ],
      "payable": false,
      "stateMutability": "nonpayable",
      "type": "function"
    },
    {
      "constant": true,
      "inputs": [
        {
          "internalType": "address",
          "name": "account",
          "type": "address"
        }
      ],
      "name": "isMinter",
      "outputs": [
        {
          "internalType": "bool",
          "name": "",
          "type": "bool"
        }
      ],
      "payable": false,
      "stateMutability": "view",
      "type": "function"
    },
    {
      "constant": false,
      "inputs": [
        {
          "internalType": "address",
          "name": "account",
          "type": "address"
        },
        {
          "internalType": "uint256",
          "name": "amount",
          "type": "uint256"
        }
      ],
      "name": "mint",
      "outputs": [
        {
          "internalType": "bool",
          "name": "",
          "type": "bool"
        }
      ],
      "payable": false,
      "stateMutability": "nonpayable",
      "type": "function"
    },
    {
      "constant": true,
      "inputs": [],
      "name": "name",
      "outputs": [
        {
          "internalType": "string",
          "name": "",
          "type": "string"
        }
      ],
      "payable": false,
      "stateMutability": "view",
      "type": "function"
    },
    {
      "constant": false,
      "inputs": [],
      "name": "renounceMinter",
      "outputs": [],
      "payable": false,
      "stateMutability": "nonpayable",
      "type": "function"
    },
    {
      "constant": true,
      "inputs": [],
      "name": "symbol",
      "outputs": [
        {
          "internalType": "string",
          "name": "",
          "type": "string"
        }
      ],
      "payable": false,
      "stateMutability": "view",
      "type": "function"
    },
    {
      "constant": true,
      "inputs": [],
      "name": "totalSupply",
      "outputs": [
        {
          "internalType": "uint256",
          "name": "",
          "type": "uint256"
        }
      ],
      "payable": false,
      "stateMutability": "view",
      "type": "function"
    },
    {
      "constant": false,
      "inputs": [
        {
          "internalType": "address",
          "name": "recipient",
          "type": "address"
        },
        {
          "internalType": "uint256",
          "name": "amount",
          "type": "uint256"
        }
      ],
      "name": "transfer",
      "outputs": [
        {
          "internalType": "bool",
          "name": "",
          "type": "bool"
        }
      ],
      "payable": false,
      "stateMutability": "nonpayable",
      "type": "function"
    },
    {
      "constant": false,
      "inputs": [
        {
          "internalType": "address",
          "name": "sender",
          "type": "address"
        },
        {
          "internalType": "address",
          "name": "recipient",
          "type": "address"
        },
        {
          "internalType": "uint256",
          "name": "amount",
          "type": "uint256"
        }
      ],
      "name": "transferFrom",
      "outputs": [
        {
          "internalType": "bool",
          "name": "",
          "type": "bool"
        }
      ],
      "payable": false,
      "stateMutability": "nonpayable",
      "type": "function"
    }
  ],
  "bytecode": "0x60806040523480156200001157600080fd5b506040516200181438038062001814833981810160405260a08110156200003757600080fd5b81019080805160405193929190846401000000008211156200005857600080fd5b9083019060208201858111156200006e57600080fd5b82516401000000008111828201881017156200008957600080fd5b82525081516020918201929091019080838360005b83811015620000b85781810151838201526020016200009e565b50505050905090810190601f168015620000e65780820380516001836020036101000a031916815260200191505b50604052602001805160405193929190846401000000008211156200010a57600080fd5b9083019060208201858111156200012057600080fd5b82516401000000008111828201881017156200013b57600080fd5b82525081516020918201929091019080838360005b838110156200016a57818101518382015260200162000150565b50505050905090810190601f168015620001985780820380516001836020036101000a031916815260200191505b506040908152602082015190820151606090920151909350909150620001d9620001ca6001600160e01b036200023916565b6001600160e01b036200023e16565b620001f18585856200029060201b62000f3e1760201c565b66038d7ea4c680006001556200022e826200021f8360ff8716600a0a620002d4602090811b62000e4317901c565b6001600160e01b036200033b16565b505050505062000633565b335b90565b620002598160006200044060201b62000d2d1790919060201c565b6040516001600160a01b038216907f6ae172837ea30b801fbfcdd4108aa1d5bf8ff775444fd70256b44e6bf3dfc3f690600090a250565b8251620002a590600590602086019062000591565b508151620002bb90600690602085019062000591565b506007805460ff191660ff929092169190911790555050565b600082620002e55750600062000335565b82820282848281620002f357fe5b0414620003325760405162461bcd60e51b8152600401808060200182810382526021815260200180620017d16021913960400191505060405180910390fd5b90505b92915050565b6001600160a01b03821662000397576040805162461bcd60e51b815260206004820152601f60248201527f45524332303a206d696e7420746f20746865207a65726f206164647265737300604482015290519081900360640190fd5b620003b381600454620004cd60201b6200095f1790919060201c565b6004556001600160a01b038216600090815260026020908152604090912054620003e89183906200095f620004cd821b17901c565b6001600160a01b03831660008181526002602090815260408083209490945583518581529351929391927fddf252ad1be2c89b69c2b068fc378daa952ba7f163c4a11628f55a4df523b3ef9281900390910190a35050565b6200045582826001600160e01b036200052816565b15620004a8576040805162461bcd60e51b815260206004820152601f60248201527f526f6c65733a206163636f756e7420616c72656164792068617320726f6c6500604482015290519081900360640190fd5b6001600160a01b0316600090815260209190915260409020805460ff19166001179055565b60008282018381101562000332576040805162461bcd60e51b815260206004820152601b60248201527f536166654d6174683a206164646974696f6e206f766572666c6f770000000000604482015290519081900360640190fd5b60006001600160a01b038216620005715760405162461bcd60e51b8152600401808060200182810382526022815260200180620017f26022913960400191505060405180910390fd5b506001600160a01b03166000908152602091909152604090205460ff1690565b828054600181600116156101000203166002900490600052602060002090601f016020900481019282601f10620005d457805160ff191683800117855562000604565b8280016001018555821562000604579182015b8281111562000604578251825591602001919060010190620005e7565b506200061292915062000616565b5090565b6200023b91905b808211156200061257600081556001016200061d565b61118e80620006436000396000f3fe608060405234801561001057600080fd5b50600436106101005760003560e01c806395d89b4111610097578063a457c2d711610066578063a457c2d7146102ee578063a9059cbb1461031a578063aa271e1a14610346578063dd62ed3e1461036c57610100565b806395d89b41146102ae578063978bbdb9146102b6578063983b2d56146102be57806398650275146102e657610100565b8063313ce567116100d3578063313ce56714610212578063395093511461023057806340c10f191461025c57806370a082311461028857610100565b806306fdde0314610105578063095ea7b31461018257806318160ddd146101c257806323b872dd146101dc575b600080fd5b61010d61039a565b6040805160208082528351818301528351919283929083019185019080838360005b8381101561014757818101518382015260200161012f565b50505050905090810190601f1680156101745780820380516001836020036101000a031916815260200191505b509250505060405180910390f35b6101ae6004803603604081101561019857600080fd5b506001600160a01b038135169060200135610431565b604080519115158252519081900360200190f35b6101ca610448565b60408051918252519081900360200190f35b6101ae600480360360608110156101f257600080fd5b506001600160a01b0381358116916020810135909116906040013561044e565b61021a6104a5565b6040805160ff9092168252519081900360200190f35b6101ae6004803603604081101561024657600080fd5b506001600160a01b0381351690602001356104ae565b6101ae6004803603604081101561027257600080fd5b506001600160a01b0381351690602001356104ea565b6101ca6004803603602081101561029e57600080fd5b50356001600160a01b0316610541565b61010d61055c565b6101ca6105bd565b6102e4600480360360208110156102d457600080fd5b50356001600160a01b03166105c3565b005b6102e4610615565b6101ae6004803603604081101561030457600080fd5b506001600160a01b038135169060200135610627565b6101ae6004803603604081101561033057600080fd5b506001600160a01b038135169060200135610663565b6101ae6004803603602081101561035c57600080fd5b50356001600160a01b0316610670565b6101ca6004803603604081101561038257600080fd5b506001600160a01b0381358116916020013516610682565b60058054604080516020601f60026000196101006001881615020190951694909404938401819004810282018101909252828152606093909290918301828280156104265780601f106103fb57610100808354040283529160200191610426565b820191906000526020600020905b81548152906001019060200180831161040957829003601f168201915b505050505090505b90565b600061043e3384846106ad565b5060015b92915050565b60045490565b600061045b848484610799565b6001600160a01b03841660009081526003602090815260408083203380855292529091205461049b918691610496908663ffffffff61091616565b6106ad565b5060019392505050565b60075460ff1690565b3360008181526003602090815260408083206001600160a01b0387168452909152812054909161043e918590610496908663ffffffff61095f16565b60006104fc6104f76109b9565b610670565b6105375760405162461bcd60e51b815260040180806020018281038252603081526020018061105c6030913960400191505060405180910390fd5b61043e83836109bd565b6001600160a01b031660009081526002602052604090205490565b60068054604080516020601f60026000196101006001881615020190951694909404938401819004810282018101909252828152606093909290918301828280156104265780601f106103fb57610100808354040283529160200191610426565b60015481565b6105ce6104f76109b9565b6106095760405162461bcd60e51b815260040180806020018281038252603081526020018061105c6030913960400191505060405180910390fd5b61061281610aaf565b50565b6106256106206109b9565b610af7565b565b3360008181526003602090815260408083206001600160a01b0387168452909152812054909161043e918590610496908663ffffffff61091616565b600061043e338484610799565b6000610442818363ffffffff610b3f16565b6001600160a01b03918216600090815260036020908152604080832093909416825291909152205490565b6001600160a01b0383166106f25760405162461bcd60e51b81526004018080602001828103825260248152602001806111366024913960400191505060405180910390fd5b6001600160a01b0382166107375760405162461bcd60e51b815260040180806020018281038252602281526020018061103a6022913960400191505060405180910390fd5b6001600160a01b03808416600081815260036020908152604080832094871680845294825291829020859055815185815291517f8c5be1e5ebec7d5bd14f71427d1e84f3dd0314c0f7b2291e5b200ac8c7c3b9259281900390910190a3505050565b6001600160a01b0383166107de5760405162461bcd60e51b81526004018080602001828103825260258152602001806111116025913960400191505060405180910390fd5b6001600160a01b0382166108235760405162461bcd60e51b81526004018080602001828103825260238152602001806110176023913960400191505060405180910390fd5b600061083a60015483610ba690919063ffffffff16565b9050600061084e838363ffffffff61091616565b905061085a8583610bbb565b6001600160a01b038516600090815260026020526040902054610883908263ffffffff61091616565b6001600160a01b0380871660009081526002602052604080822093909355908616815220546108b8908263ffffffff61095f16565b6001600160a01b0380861660008181526002602090815260409182902094909455805185815290519193928916927fddf252ad1be2c89b69c2b068fc378daa952ba7f163c4a11628f55a4df523b3ef92918290030190a35050505050565b600061095883836040518060400160405280601e81526020017f536166654d6174683a207375627472616374696f6e206f766572666c6f770000815250610c96565b9392505050565b600082820183811015610958576040805162461bcd60e51b815260206004820152601b60248201527f536166654d6174683a206164646974696f6e206f766572666c6f770000000000604482015290519081900360640190fd5b3390565b6001600160a01b038216610a18576040805162461bcd60e51b815260206004820152601f60248201527f45524332303a206d696e7420746f20746865207a65726f206164647265737300604482015290519081900360640190fd5b600454610a2b908263ffffffff61095f16565b6004556001600160a01b038216600090815260026020526040902054610a57908263ffffffff61095f16565b6001600160a01b03831660008181526002602090815260408083209490945583518581529351929391927fddf252ad1be2c89b69c2b068fc378daa952ba7f163c4a11628f55a4df523b3ef9281900390910190a35050565b610ac060008263ffffffff610d2d16565b6040516001600160a01b038216907f6ae172837ea30b801fbfcdd4108aa1d5bf8ff775444fd70256b44e6bf3dfc3f690600090a250565b610b0860008263ffffffff610dae16565b6040516001600160a01b038216907fe94479a9f7e1952cc78f2d6baab678adc1b772d936c6583def489e524cb6669290600090a250565b60006001600160a01b038216610b865760405162461bcd60e51b81526004018080602001828103825260228152602001806110ce6022913960400191505060405180910390fd5b506001600160a01b03166000908152602091909152604090205460ff1690565b60006109588383670de0b6b3a7640000610e15565b6001600160a01b038216610c005760405162461bcd60e51b81526004018080602001828103825260218152602001806110f06021913960400191505060405180910390fd5b600454610c13908263ffffffff61091616565b6004556001600160a01b038216600090815260026020526040902054610c3f908263ffffffff61091616565b6001600160a01b0383166000818152600260209081526040808320949094558351858152935191937fddf252ad1be2c89b69c2b068fc378daa952ba7f163c4a11628f55a4df523b3ef929081900390910190a35050565b60008184841115610d255760405162461bcd60e51b81526004018080602001828103825283818151815260200191508051906020019080838360005b83811015610cea578181015183820152602001610cd2565b50505050905090810190601f168015610d175780820380516001836020036101000a031916815260200191505b509250505060405180910390fd5b505050900390565b610d378282610b3f565b15610d89576040805162461bcd60e51b815260206004820152601f60248201527f526f6c65733a206163636f756e7420616c72656164792068617320726f6c6500604482015290519081900360640190fd5b6001600160a01b0316600090815260209190915260409020805460ff19166001179055565b610db88282610b3f565b610df35760405162461bcd60e51b815260040180806020018281038252602181526020018061108c6021913960400191505060405180910390fd5b6001600160a01b0316600090815260209190915260409020805460ff19169055565b600080610e28858563ffffffff610e4316565b9050610e3a818463ffffffff610e9c16565b95945050505050565b600082610e5257506000610442565b82820282848281610e5f57fe5b04146109585760405162461bcd60e51b81526004018080602001828103825260218152602001806110ad6021913960400191505060405180910390fd5b600061095883836040518060400160405280601a81526020017f536166654d6174683a206469766973696f6e206279207a65726f00000000000081525060008183610f285760405162461bcd60e51b8152602060048201818152835160248401528351909283926044909101919085019080838360008315610cea578181015183820152602001610cd2565b506000838581610f3457fe5b0495945050505050565b8251610f51906005906020860190610f7e565b508151610f65906006906020850190610f7e565b506007805460ff191660ff929092169190911790555050565b828054600181600116156101000203166002900490600052602060002090601f016020900481019282601f10610fbf57805160ff1916838001178555610fec565b82800160010185558215610fec579182015b82811115610fec578251825591602001919060010190610fd1565b50610ff8929150610ffc565b5090565b61042e91905b80821115610ff8576000815560010161100256fe45524332303a207472616e7366657220746f20746865207a65726f206164647265737345524332303a20617070726f766520746f20746865207a65726f20616464726573734d696e746572526f6c653a2063616c6c657220646f6573206e6f74206861766520746865204d696e74657220726f6c65526f6c65733a206163636f756e7420646f6573206e6f74206861766520726f6c65536166654d6174683a206d756c7469706c69636174696f6e206f766572666c6f77526f6c65733a206163636f756e7420697320746865207a65726f206164647265737345524332303a206275726e2066726f6d20746865207a65726f206164647265737345524332303a207472616e736665722066726f6d20746865207a65726f206164647265737345524332303a20617070726f76652066726f6d20746865207a65726f2061646472657373a265627a7a7231582021b613571d2981d2ae2079d56f08c9c29ae16e1d0af51656c3e0a1236d1f740064736f6c63430005100032536166654d6174683a206d756c7469706c69636174696f6e206f766572666c6f77526f6c65733a206163636f756e7420697320746865207a65726f2061646472657373",
  "source": "pragma solidity 0.5.16;\n\nimport { SafeMath } from \"@openzeppelin/contracts/math/SafeMath.sol\";\nimport { StableMath } from \"../../shared/StableMath.sol\";\nimport { MinterRole } from \"@openzeppelin/contracts/access/roles/MinterRole.sol\";\nimport { IERC20 } from \"@openzeppelin/contracts/token/ERC20/IERC20.sol\";\n\n/**\n * @dev Implementation of the `IERC20` interface.\n *\n * This implementation is agnostic to the way tokens are created. This means\n * that a supply mechanism has to be added in a derived contract using `_mint`.\n * For a generic mechanism see `ERC20Mintable`.\n *\n * *For a detailed writeup see our guide [How to implement supply\n * mechanisms](https://forum.zeppelin.solutions/t/how-to-implement-erc20-supply-mechanisms/226).*\n *\n * We have followed general OpenZeppelin guidelines: functions revert instead\n * of returning `false` on failure. This behavior is nonetheless conventional\n * and does not conflict with the expectations of ERC20 applications.\n *\n * Additionally, an `Approval` event is emitted on calls to `transferFrom`.\n * This allows applications to reconstruct the allowance for all accounts just\n * by listening to said events. Other implementations of the EIP may not emit\n * these events, as it isn't required by the specification.\n *\n * Finally, the non-standard `decreaseAllowance` and `increaseAllowance`\n * functions have been added to mitigate the well-known issues around setting\n * allowances. See `IERC20.approve`.\n */\ncontract ERC20WithFee is IERC20, MinterRole {\n\n    using SafeMath for uint256;\n    using StableMath for uint256;\n\n    uint256 public feeRate;\n\n    mapping (address => uint256) private _balances;\n\n    mapping (address => mapping (address => uint256)) private _allowances;\n\n    uint256 private _totalSupply;\n\n    string private _name;\n    string private _symbol;\n    uint8 private _decimals;\n\n    event FeePaid(address indexed sender, uint256 amount);\n\n    /**\n     * @dev Sets the values for `name`, `symbol`, and `decimals`. All three of\n     * these values are immutable: they can only be set once during\n     * construction.\n     */\n    function _initialize(string memory name, string memory symbol, uint8 decimals) internal {\n        _name = name;\n        _symbol = symbol;\n        _decimals = decimals;\n    }\n\n    /**\n     * @dev Returns the name of the token.\n     */\n    function name() public view returns (string memory) {\n        return _name;\n    }\n\n    /**\n     * @dev Returns the symbol of the token, usually a shorter version of the\n     * name.\n     */\n    function symbol() public view returns (string memory) {\n        return _symbol;\n    }\n\n    /**\n     * @dev Returns the number of decimals used to get its user representation.\n     * For example, if `decimals` equals `2`, a balance of `505` tokens should\n     * be displayed to a user as `5,05` (`505 / 10 ** 2`).\n     *\n     * Tokens usually opt for a value of 18, imitating the relationship between\n     * Ether and Wei.\n     *\n     * > Note that this information is only used for _display_ purposes: it in\n     * no way affects any of the arithmetic of the contract, including\n     * `IERC20.balanceOf` and `IERC20.transfer`.\n     */\n    function decimals() public view returns (uint8) {\n        return _decimals;\n    }\n\n    /**\n     * @dev See `IERC20.totalSupply`.\n     */\n    function totalSupply() public view returns (uint256) {\n        return _totalSupply;\n    }\n\n    /**\n     * @dev See `IERC20.balanceOf`.\n     */\n    function balanceOf(address account) public view returns (uint256) {\n        return _balances[account];\n    }\n\n    /**\n     * @dev See `IERC20.transfer`.\n     *\n     * Requirements:\n     *\n     * - `recipient` cannot be the zero address.\n     * - the caller must have a balance of at least `amount`.\n     */\n    function transfer(address recipient, uint256 amount) public returns (bool) {\n        _transfer(msg.sender, recipient, amount);\n        return true;\n    }\n\n    /**\n     * @dev See `IERC20.allowance`.\n     */\n    function allowance(address owner, address spender) public view returns (uint256) {\n        return _allowances[owner][spender];\n    }\n\n    /**\n     * @dev See `IERC20.approve`.\n     *\n     * Requirements:\n     *\n     * - `spender` cannot be the zero address.\n     */\n    function approve(address spender, uint256 value) public returns (bool) {\n        _approve(msg.sender, spender, value);\n        return true;\n    }\n\n    /**\n     * @dev See `IERC20.transferFrom`.\n     *\n     * Emits an `Approval` event indicating the updated allowance. This is not\n     * required by the EIP. See the note at the beginning of `ERC20`;\n     *\n     * Requirements:\n     * - `sender` and `recipient` cannot be the zero address.\n     * - `sender` must have a balance of at least `value`.\n     * - the caller must have allowance for `sender`'s tokens of at least\n     * `amount`.\n     */\n    function transferFrom(address sender, address recipient, uint256 amount) public returns (bool) {\n        _transfer(sender, recipient, amount);\n        _approve(sender, msg.sender, _allowances[sender][msg.sender].sub(amount));\n        return true;\n    }\n\n    /**\n     * @dev Atomically increases the allowance granted to `spender` by the caller.\n     *\n     * This is an alternative to `approve` that can be used as a mitigation for\n     * problems described in `IERC20.approve`.\n     *\n     * Emits an `Approval` event indicating the updated allowance.\n     *\n     * Requirements:\n     *\n     * - `spender` cannot be the zero address.\n     */\n    function increaseAllowance(address spender, uint256 addedValue) public returns (bool) {\n        _approve(msg.sender, spender, _allowances[msg.sender][spender].add(addedValue));\n        return true;\n    }\n\n    /**\n     * @dev Atomically decreases the allowance granted to `spender` by the caller.\n     *\n     * This is an alternative to `approve` that can be used as a mitigation for\n     * problems described in `IERC20.approve`.\n     *\n     * Emits an `Approval` event indicating the updated allowance.\n     *\n     * Requirements:\n     *\n     * - `spender` cannot be the zero address.\n     * - `spender` must have allowance for the caller of at least\n     * `subtractedValue`.\n     */\n    function decreaseAllowance(address spender, uint256 subtractedValue) public returns (bool) {\n        _approve(msg.sender, spender, _allowances[msg.sender][spender].sub(subtractedValue));\n        return true;\n    }\n\n    /**\n     * @dev Moves tokens `amount` from `sender` to `recipient`.\n     *\n     * This is internal function is equivalent to `transfer`, and can be used to\n     * e.g. implement automatic token fees, slashing mechanisms, etc.\n     *\n     * Emits a `Transfer` event.\n     *\n     * Requirements:\n     *\n     * - `sender` cannot be the zero address.\n     * - `recipient` cannot be the zero address.\n     * - `sender` must have a balance of at least `amount`.\n     */\n    function _transfer(address sender, address recipient, uint256 amount) internal {\n        require(sender != address(0), \"ERC20: transfer from the zero address\");\n        require(recipient != address(0), \"ERC20: transfer to the zero address\");\n\n        uint256 fee = amount.mulTruncate(feeRate);\n        uint256 remainder = amount.sub(fee);\n\n        _burn(sender, fee);\n\n        _balances[sender] = _balances[sender].sub(remainder);\n        _balances[recipient] = _balances[recipient].add(remainder);\n        emit Transfer(sender, recipient, remainder);\n    }\n\n    /** @dev Creates `amount` tokens and assigns them to `account`, increasing\n     * the total supply.\n     *\n     * Emits a `Transfer` event with `from` set to the zero address.\n     *\n     * Requirements\n     *\n     * - `to` cannot be the zero address.\n     */\n    function _mint(address account, uint256 amount) internal {\n        require(account != address(0), \"ERC20: mint to the zero address\");\n\n        _totalSupply = _totalSupply.add(amount);\n        _balances[account] = _balances[account].add(amount);\n        emit Transfer(address(0), account, amount);\n    }\n\n     /**\n     * @dev Destoys `amount` tokens from `account`, reducing the\n     * total supply.\n     *\n     * Emits a `Transfer` event with `to` set to the zero address.\n     *\n     * Requirements\n     *\n     * - `account` cannot be the zero address.\n     * - `account` must have at least `amount` tokens.\n     */\n    function _burn(address account, uint256 value) internal {\n        require(account != address(0), \"ERC20: burn from the zero address\");\n\n        _totalSupply = _totalSupply.sub(value);\n        _balances[account] = _balances[account].sub(value);\n        emit Transfer(account, address(0), value);\n    }\n\n    /**\n     * @dev Sets `amount` as the allowance of `spender` over the `owner`s tokens.\n     *\n     * This is internal function is equivalent to `approve`, and can be used to\n     * e.g. set automatic allowances for certain subsystems, etc.\n     *\n     * Emits an `Approval` event.\n     *\n     * Requirements:\n     *\n     * - `owner` cannot be the zero address.\n     * - `spender` cannot be the zero address.\n     */\n    function _approve(address owner, address spender, uint256 value) internal {\n        require(owner != address(0), \"ERC20: approve from the zero address\");\n        require(spender != address(0), \"ERC20: approve to the zero address\");\n\n        _allowances[owner][spender] = value;\n        emit Approval(owner, spender, value);\n    }\n\n    /**\n     * @dev Destoys `amount` tokens from `account`.`amount` is then deducted\n     * from the caller's allowance.\n     *\n     * See `_burn` and `_approve`.\n     */\n    function _burnFrom(address account, uint256 amount) internal {\n        _burn(account, amount);\n        _approve(account, msg.sender, _allowances[account][msg.sender].sub(amount));\n    }\n\n    /**\n     * @dev See `ERC20._mint`.\n     *\n     * Requirements:\n     *\n     * - the caller must have the `MinterRole`.\n     */\n    function mint(address account, uint256 amount) public onlyMinter returns (bool) {\n        _mint(account, amount);\n        return true;\n    }\n}\n\ncontract MockERC20WithFee is ERC20WithFee {\n\n    constructor (\n        string memory _name,\n        string memory _symbol,\n        uint8 _decimals,\n        address _initialRecipient,\n        uint256 _initialMint\n    )\n        public\n    {\n        ERC20WithFee._initialize(_name, _symbol, _decimals);\n        feeRate = 1e15;\n        _mint(_initialRecipient, _initialMint.mul(10 ** uint256(_decimals)));\n    }\n\n}\n\n",
  "sourcePath": "/Volumes/sdxc/ETHEREUM/CODE/mStable-v1-edit/contracts/z_mocks/shared/MockERC20WithFee.sol",
  "compiler": {
    "name": "solc",
    "version": "0.5.16+commit.9c3226ce.Emscripten.clang"
  },
  "schemaVersion": "3.1.0",
  "updatedAt": "2021-03-11T05:43:18.358Z",
  "devdoc": {
    "methods": {
      "allowance(address,address)": {
        "details": "See `IERC20.allowance`."
      },
      "approve(address,uint256)": {
        "details": "See `IERC20.approve`.     * Requirements:     * - `spender` cannot be the zero address."
      },
      "balanceOf(address)": {
        "details": "See `IERC20.balanceOf`."
      },
      "decimals()": {
        "details": "Returns the number of decimals used to get its user representation. For example, if `decimals` equals `2`, a balance of `505` tokens should be displayed to a user as `5,05` (`505 / 10 ** 2`).     * Tokens usually opt for a value of 18, imitating the relationship between Ether and Wei.     * > Note that this information is only used for _display_ purposes: it in no way affects any of the arithmetic of the contract, including `IERC20.balanceOf` and `IERC20.transfer`."
      },
      "decreaseAllowance(address,uint256)": {
        "details": "Atomically decreases the allowance granted to `spender` by the caller.     * This is an alternative to `approve` that can be used as a mitigation for problems described in `IERC20.approve`.     * Emits an `Approval` event indicating the updated allowance.     * Requirements:     * - `spender` cannot be the zero address. - `spender` must have allowance for the caller of at least `subtractedValue`."
      },
      "increaseAllowance(address,uint256)": {
        "details": "Atomically increases the allowance granted to `spender` by the caller.     * This is an alternative to `approve` that can be used as a mitigation for problems described in `IERC20.approve`.     * Emits an `Approval` event indicating the updated allowance.     * Requirements:     * - `spender` cannot be the zero address."
      },
      "mint(address,uint256)": {
        "details": "See `ERC20._mint`.     * Requirements:     * - the caller must have the `MinterRole`."
      },
      "name()": {
        "details": "Returns the name of the token."
      },
      "symbol()": {
        "details": "Returns the symbol of the token, usually a shorter version of the name."
      },
      "totalSupply()": {
        "details": "See `IERC20.totalSupply`."
      },
      "transfer(address,uint256)": {
        "details": "See `IERC20.transfer`.     * Requirements:     * - `recipient` cannot be the zero address. - the caller must have a balance of at least `amount`."
      },
      "transferFrom(address,address,uint256)": {
        "details": "See `IERC20.transferFrom`.     * Emits an `Approval` event indicating the updated allowance. This is not required by the EIP. See the note at the beginning of `ERC20`;     * Requirements: - `sender` and `recipient` cannot be the zero address. - `sender` must have a balance of at least `value`. - the caller must have allowance for `sender`'s tokens of at least `amount`."
      }
    }
  },
  "userdoc": {
    "methods": {}
  }
}