{
  "contractName": "MockRewardsDistributionRecipient",
  "abi": [
    {
      "inputs": [
        {
          "internalType": "contract IERC20",
          "name": "_rewardToken",
          "type": "address"
        }
      ],
      "payable": false,
      "stateMutability": "nonpayable",
      "type": "constructor"
    },
    {
      "constant": true,
      "inputs": [],
      "name": "rewardToken",
      "outputs": [
        {
          "internalType": "contract IERC20",
          "name": "",
          "type": "address"
        }
      ],
      "payable": false,
      "stateMutability": "view",
      "type": "function"
    },
    {
      "constant": false,
      "inputs": [
        {
          "internalType": "uint256",
          "name": "reward",
          "type": "uint256"
        }
      ],
      "name": "notifyRewardAmount",
      "outputs": [],
      "payable": false,
      "stateMutability": "nonpayable",
      "type": "function"
    },
    {
      "constant": true,
      "inputs": [],
      "name": "getRewardToken",
      "outputs": [
        {
          "internalType": "contract IERC20",
          "name": "",
          "type": "address"
        }
      ],
      "payable": false,
      "stateMutability": "view",
      "type": "function"
    }
  ],
  "bytecode": "0x608060405234801561001057600080fd5b5060405161013f38038061013f8339818101604052602081101561003357600080fd5b5051600080546001600160a01b039092166001600160a01b031990921691909117905560db806100646000396000f3fe6080604052348015600f57600080fd5b5060043610603c5760003560e01c80633c6b16ab14604157806369940d7914605d578063f7c618c114607f575b600080fd5b605b60048036036020811015605557600080fd5b50356085565b005b60636088565b604080516001600160a01b039092168252519081900360200190f35b60636097565b50565b6000546001600160a01b031690565b6000546001600160a01b03168156fea265627a7a723158202af9455b3000aac92740257f6de9f7ff58ce93d0a9575362d978348e8648761864736f6c63430005100032",
  "source": "pragma solidity 0.5.16;\n\nimport { IERC20 } from \"@openzeppelin/contracts/token/ERC20/IERC20.sol\";\nimport { IRewardsDistributionRecipient } from \"../../interfaces/IRewardsDistributionRecipient.sol\";\n\ncontract MockRewardsDistributionRecipient is IRewardsDistributionRecipient {\n\n    IERC20 public rewardToken;\n\n    constructor(IERC20 _rewardToken) public {\n        rewardToken = _rewardToken;\n    }\n\n    function notifyRewardAmount(uint256 reward)\n      external\n    {\n      // do nothing\n    }\n\n    function getRewardToken() external view returns (IERC20) {\n        return rewardToken;\n    }\n}\n",
  "sourcePath": "/Volumes/sdxc/ETHEREUM/CODE/mStable-v1-edit/contracts/z_mocks/rewards/MockRewardsDistributionRecipient.sol",
  "compiler": {
    "name": "solc",
    "version": "0.5.16+commit.9c3226ce.Emscripten.clang"
  },
  "schemaVersion": "3.1.0",
  "updatedAt": "2021-03-11T05:43:17.136Z",
  "devdoc": {
    "methods": {}
  },
  "userdoc": {
    "methods": {}
  }
}