{
  "contractName": "MStableHelper",
  "abi": [
    {
      "constant": true,
      "inputs": [
        {
          "internalType": "address",
          "name": "_mIx",
          "type": "address"
        }
      ],
      "name": "suggestMintAsset",
      "outputs": [
        {
          "internalType": "bool",
          "name": "",
          "type": "bool"
        },
        {
          "internalType": "string",
          "name": "",
          "type": "string"
        },
        {
          "internalType": "address",
          "name": "",
          "type": "address"
        }
      ],
      "payable": false,
      "stateMutability": "view",
      "type": "function"
    },
    {
      "constant": true,
      "inputs": [
        {
          "internalType": "address",
          "name": "_mIx",
          "type": "address"
        },
        {
          "internalType": "address",
          "name": "_input",
          "type": "address"
        },
        {
          "internalType": "address",
          "name": "_output",
          "type": "address"
        }
      ],
      "name": "getMaxSwap",
      "outputs": [
        {
          "internalType": "bool",
          "name": "",
          "type": "bool"
        },
        {
          "internalType": "string",
          "name": "",
          "type": "string"
        },
        {
          "internalType": "uint256",
          "name": "",
          "type": "uint256"
        },
        {
          "internalType": "uint256",
          "name": "",
          "type": "uint256"
        }
      ],
      "payable": false,
      "stateMutability": "view",
      "type": "function"
    },
    {
      "constant": true,
      "inputs": [
        {
          "internalType": "address",
          "name": "_mIx",
          "type": "address"
        }
      ],
      "name": "suggestRedeemIx",
      "outputs": [
        {
          "internalType": "bool",
          "name": "",
          "type": "bool"
        },
        {
          "internalType": "string",
          "name": "",
          "type": "string"
        },
        {
          "internalType": "address",
          "name": "",
          "type": "address"
        }
      ],
      "payable": false,
      "stateMutability": "view",
      "type": "function"
    },
    {
      "constant": true,
      "inputs": [
        {
          "internalType": "address",
          "name": "_mIx",
          "type": "address"
        },
        {
          "internalType": "uint256",
          "name": "_mIxQuantity",
          "type": "uint256"
        },
        {
          "internalType": "address",
          "name": "_outputBasset",
          "type": "address"
        }
      ],
      "name": "getRedeemValidity",
      "outputs": [
        {
          "internalType": "bool",
          "name": "",
          "type": "bool"
        },
        {
          "internalType": "string",
          "name": "",
          "type": "string"
        },
        {
          "internalType": "uint256",
          "name": "output",
          "type": "uint256"
        },
        {
          "internalType": "uint256",
          "name": "bassetQuantityArg",
          "type": "uint256"
        }
      ],
      "payable": false,
      "stateMutability": "view",
      "type": "function"
    },
    {
      "constant": true,
      "inputs": [
        {
          "internalType": "contract ISavingsContractV1",
          "name": "_save",
          "type": "address"
        },
        {
          "internalType": "address",
          "name": "_user",
          "type": "address"
        }
      ],
      "name": "getSaveBalance",
      "outputs": [
        {
          "internalType": "uint256",
          "name": "",
          "type": "uint256"
        }
      ],
      "payable": false,
      "stateMutability": "view",
      "type": "function"
    },
    {
      "constant": true,
      "inputs": [
        {
          "internalType": "contract ISavingsContractV1",
          "name": "_save",
          "type": "address"
        },
        {
          "internalType": "uint256",
          "name": "_mIxUnits",
          "type": "uint256"
        }
      ],
      "name": "getSaveRedeemInput",
      "outputs": [
        {
          "internalType": "uint256",
          "name": "",
          "type": "uint256"
        }
      ],
      "payable": false,
      "stateMutability": "view",
      "type": "function"
    }
  ],
  "bytecode": "0x608060405234801561001057600080fd5b5061267b806100206000396000f3fe608060405234801561001057600080fd5b50600436106100625760003560e01c8063466c07ce146100675780634ace2ba3146100935780637fcf5dfa146100b3578063960a27f8146100c6578063b4885552146100e8578063ecfee14c146100fb575b600080fd5b61007a610075366004611e01565b61010e565b60405161008a94939291906123bd565b60405180910390f35b6100a66100a1366004611f54565b6103f7565b60405161008a91906124ca565b6100a66100c1366004611f8e565b61057f565b6100d96100d4366004611dc5565b61065a565b60405161008a9392919061238e565b6100d96100f6366004611dc5565b610a11565b61007a610109366004611e4e565b610e41565b6000606060008061011d611a9e565b610128888888611018565b805190915061014657602001516000945092508391508190506103ee565b60006101678260c00151608001518360a0015161136690919063ffffffff16565b60c0830151606081015160a09091015191925060009161018c9163ffffffff61138216565b90508260800151156102515760006101aa838363ffffffff61139316565b905060006101ce8560c00151608001516101c26113d5565b9063ffffffff61139316565b905060008082116101df57826101ef565b6101ef838363ffffffff6113e116565b9050600061020e8760c00151606001518361141690919063ffffffff16565b905061022b8760c00151606001518261138290919063ffffffff16565b60408051602081019091526000815260019c509a5090985096506103ee95505050505050565b6000610263838363ffffffff61139316565b905060006102868560e00151608001518660a0015161136690919063ffffffff16565b60e0860151606081015160a0909101519192506000916102ab9163ffffffff61138216565b905060008184116102bc57836102be565b815b60c088015160600151909150838310906000906102e290849063ffffffff61141616565b905060006103198a60e001516060015161030d8c60c00151606001518561138290919063ffffffff16565b9063ffffffff61141616565b905060008361032957600061039e565b8a604001516001600160a01b03166354cf2aeb6040518163ffffffff1660e01b815260040160206040518083038186803b15801561036657600080fd5b505afa15801561037a573d6000803e3d6000fd5b505050506040513d601f19601f8201168201806040525061039e9190810190612011565b905060006103b2838363ffffffff61136616565b90506001846103c7858463ffffffff61139316565b6040518060200160405280600081525091909f509f509f509f505050505050505050505050505b93509350935093565b60006001600160a01b0383166104285760405162461bcd60e51b815260040161041f9061247a565b60405180910390fd5b6001600160a01b03821661044e5760405162461bcd60e51b815260040161041f906124ba565b604051630c01345b60e31b81526000906001600160a01b03851690636009a2d89061047d908690600401612358565b60206040518083038186803b15801561049557600080fd5b505afa1580156104a9573d6000803e3d6000fd5b505050506040513d601f19601f820116820180604052506104cd9190810190612011565b90506000846001600160a01b0316633ba0b9a96040518163ffffffff1660e01b815260040160206040518083038186803b15801561050a57600080fd5b505afa15801561051e573d6000803e3d6000fd5b505050506040513d601f19601f820116820180604052506105429190810190612011565b9050600081116105645760405162461bcd60e51b815260040161041f906124aa565b610574828263ffffffff61136616565b925050505b92915050565b60006001600160a01b0383166105a75760405162461bcd60e51b815260040161041f9061247a565b6000836001600160a01b0316633ba0b9a96040518163ffffffff1660e01b815260040160206040518083038186803b1580156105e257600080fd5b505afa1580156105f6573d6000803e3d6000fd5b505050506040513d601f19601f8201168201806040525061061a9190810190612011565b90506000811161063c5760405162461bcd60e51b815260040161041f906124aa565b600061064e848363ffffffff6113e116565b60010195945050505050565b60006060816001600160a01b0384166106855760405162461bcd60e51b815260040161041f9061249a565b6000846001600160a01b031663eeea5d366040518163ffffffff1660e01b815260040160206040518083038186803b1580156106c057600080fd5b505afa1580156106d4573d6000803e3d6000fd5b505050506040513d601f19601f820116820180604052506106f89190810190611de3565b9050610702611b04565b816001600160a01b031663cd6ef2b06040518163ffffffff1660e01b815260040160006040518083038186803b15801561073b57600080fd5b505afa15801561074f573d6000803e3d6000fd5b505050506040513d6000823e601f3d908101601f191682016040526107779190810190611fbe565b90506000866001600160a01b03166318160ddd6040518163ffffffff1660e01b815260040160206040518083038186803b1580156107b457600080fd5b505afa1580156107c8573d6000803e3d6000fd5b505050506040513d601f19601f820116820180604052506107ec9190810190612011565b8251516040805182815260208084028201019091529192509060609082801561081f578160200160208202803883390190505b50905060005b8281101561092357610835611b32565b855180518390811061084357fe5b60200260200101519050600061086a82606001518360a0015161138290919063ffffffff16565b9050600061087e828863ffffffff6113e116565b9050826080015181116108a55760808301516108a0908263ffffffff61139316565b6108a8565b60005b8585815181106108b457fe5b60209081029190910101526001836020015160078111156108d157fe5b146109185750506040805180820190915260138152724e6f2061737365747320617661696c61626c6560681b602082015260009a509850899750610a0a9650505050505050565b505050600101610825565b50600080805b8481101561099d57600084828151811061093f57fe5b6020026020010151905067016345785d8a00008110610994576001600160a01b038316158061096d57508381105b15610994578093508760000151828151811061098557fe5b60200260200101516000015192505b50600101610929565b506001600160a01b0381166109ec5750506040805180820190915260138152724e6f2061737365747320617661696c61626c6560681b6020820152600098509650879550610a0a945050505050565b60408051602081019091526000815260019a50985096505050505050505b9193909250565b60006060816001600160a01b038416610a3c5760405162461bcd60e51b815260040161041f9061249a565b6000846001600160a01b031663eeea5d366040518163ffffffff1660e01b815260040160206040518083038186803b158015610a7757600080fd5b505afa158015610a8b573d6000803e3d6000fd5b505050506040513d601f19601f82011682018060405250610aaf9190810190611de3565b9050610ab9611b04565b816001600160a01b031663cd6ef2b06040518163ffffffff1660e01b815260040160006040518083038186803b158015610af257600080fd5b505afa158015610b06573d6000803e3d6000fd5b505050506040513d6000823e601f3d908101601f19168201604052610b2e9190810190611fbe565b90506000866001600160a01b03166318160ddd6040518163ffffffff1660e01b815260040160206040518083038186803b158015610b6b57600080fd5b505afa158015610b7f573d6000803e3d6000fd5b505050506040513d601f19601f82011682018060405250610ba39190810190612011565b82515160408051828152602080840282010190915291925090600090606090838015610bd9578160200160208202803883390190505b50905060005b83811015610cf257610bef611b32565b8651805183908110610bfd57fe5b602002602001015190506000610c2482606001518360a0015161138290919063ffffffff16565b90506000610c38828963ffffffff6113e116565b90508260800151811115610c4d576001909501945b82608001518111610c72576080830151610c6d908263ffffffff61139316565b610c76565b6000195b858581518110610c8257fe5b6020908102919091010152600183602001516007811115610c9f57fe5b14610ce75750506040805180820190915260138152724e6f2061737365747320617661696c61626c6560681b602082015260009b5099508a9850610a0a975050505050505050565b505050600101610bdf565b506001821115610d3b5750506040805180820190915260138152724e6f2061737365747320617661696c61626c6560681b6020820152600097509550869450610a0a9350505050565b8160011415610db75760005b83811015610db557600019828281518110610d5e57fe5b60200260200101511415610dad57600186600001518281518110610d7e57fe5b602002602001015160000151604051806020016040528060008152509099509950995050505050505050610a0a565b600101610d47565b505b6000196000805b85811015610e1c5782848281518110610dd357fe5b60200260200101511015610e14578751805182908110610def57fe5b6020026020010151600001519150838181518110610e0957fe5b602002602001015192505b600101610dbe565b5060408051602081019091526000815260019d909c50909a5098505050505050505050565b600060606000806000876001600160a01b031663eeea5d366040518163ffffffff1660e01b815260040160206040518083038186803b158015610e8357600080fd5b505afa158015610e97573d6000803e3d6000fd5b505050506040513d601f19601f82011682018060405250610ebb9190810190611de3565b9050610ec5611b32565b604051630f8def2f60e21b81526001600160a01b03831690633e37bcbc90610ef1908a90600401612358565b60c06040518083038186803b158015610f0957600080fd5b505afa158015610f1d573d6000803e3d6000fd5b505050506040513d601f19601f82011682018060405250610f419190810190611ff3565b90506000610f5c82606001518a61141690919063ffffffff16565b604080516001808252818301909252919250606091906020808301908038833950506040805160018082528183019092529293506060929150602080830190803883390190505090508982600081518110610fb357fe5b60200260200101906001600160a01b031690816001600160a01b0316815250508281600081518110610fe157fe5b602002602001018181525050600060606000610ffe8f868661142d565b919d509b5099509497505050505050505093509350935093565b611020611a9e565b6000846001600160a01b0316836001600160a01b031614905060008590506000816001600160a01b031663eeea5d366040518163ffffffff1660e01b815260040160206040518083038186803b15801561107957600080fd5b505afa15801561108d573d6000803e3d6000fd5b505050506040513d601f19601f820116820180604052506110b19190810190611de3565b905060006060836001600160a01b03166372ea9076898960016040518463ffffffff1660e01b81526004016110e893929190612366565b60006040518083038186803b15801561110057600080fd5b505afa158015611114573d6000803e3d6000fd5b505050506040513d6000823e601f3d908101601f1916820160405261113c9190810190611ef9565b50915091506000846001600160a01b03166318160ddd6040518163ffffffff1660e01b815260040160206040518083038186803b15801561117c57600080fd5b505afa158015611190573d6000803e3d6000fd5b505050506040513d601f19601f820116820180604052506111b49190810190612011565b90506111be611b32565b604051630f8def2f60e21b81526001600160a01b03861690633e37bcbc906111ea908d90600401612358565b60c06040518083038186803b15801561120257600080fd5b505afa158015611216573d6000803e3d6000fd5b505050506040513d601f19601f8201168201806040525061123a9190810190611ff3565b9050611244611b32565b8715611291576040805160c081019091526001600160a01b038b16815260208101600181526000602082015260400161127b6117d9565b815260200160008152602001600081525061130d565b604051630f8def2f60e21b81526001600160a01b03871690633e37bcbc906112bd908d90600401612358565b60c06040518083038186803b1580156112d557600080fd5b505afa1580156112e9573d6000803e3d6000fd5b505050506040513d601f19601f8201168201806040525061130d9190810190611ff3565b6040805161010081018252961515875260208701959095526001600160a01b039788169486019490945250939094166060830152931515608082015260a081019290925260c082015260e0810191909152949350505050565b600061137b8383670de0b6b3a76400006117e1565b9392505050565b600061137b83836305f5e1006117e1565b600061137b83836040518060400160405280601e81526020017f536166654d6174683a207375627472616374696f6e206f766572666c6f77000081525061180f565b670de0b6b3a764000090565b6000806113fc84670de0b6b3a764000063ffffffff61183b16565b905061140e818463ffffffff61187516565b949350505050565b6000806113fc846305f5e10063ffffffff61183b16565b60006060600080845190508060011480156114485750855181145b6114645760405162461bcd60e51b815260040161041f9061246a565b60008790506000816001600160a01b031663eeea5d366040518163ffffffff1660e01b815260040160206040518083038186803b1580156114a457600080fd5b505afa1580156114b8573d6000803e3d6000fd5b505050506040513d601f19601f820116820180604052506114dc9190810190611de3565b90506114e6611b04565b816001600160a01b031663cd6ef2b06040518163ffffffff1660e01b815260040160006040518083038186803b15801561151f57600080fd5b505afa158015611533573d6000803e3d6000fd5b505050506040513d6000823e601f3d908101601f1916820160405261155b9190810190611fbe565b90508060400151806115d95750816001600160a01b0316635c975abb6040518163ffffffff1660e01b815260040160206040518083038186803b1580156115a157600080fd5b505afa1580156115b5573d6000803e3d6000fd5b505050506040513d601f19601f820116820180604052506115d99190810190611e80565b1561161c575050604080518082019091526014815273496e76616c6964206261736b657420737461746560601b60208201526000955093508492506117d0915050565b6000606060006116b9868c8e60008151811061163457fe5b602002602001015187606001518a6001600160a01b03166318160ddd6040518163ffffffff1660e01b815260040160206040518083038186803b15801561167a57600080fd5b505afa15801561168e573d6000803e3d6000fd5b505050506040513d601f19601f820116820180604052506116b29190810190612011565b89516118b7565b925092509250826116d957506000985096508795506117d0945050505050565b6000816116e7576000611758565b866001600160a01b03166354cf2aeb6040518163ffffffff1660e01b815260040160206040518083038186803b15801561172057600080fd5b505afa158015611734573d6000803e3d6000fd5b505050506040513d601f19601f820116820180604052506117589190810190612011565b90506000611783828e60008151811061176d57fe5b602002602001015161136690919063ffffffff16565b905060006117ae828f60008151811061179857fe5b602002602001015161139390919063ffffffff16565b60408051602081019091526000815260019e509c509a50505050505050505050505b93509350939050565b6305f5e10090565b6000806117f4858563ffffffff61183b16565b9050611806818463ffffffff61187516565b95945050505050565b600081848411156118335760405162461bcd60e51b815260040161041f9190612459565b505050900390565b60008261184a57506000610579565b8282028284828161185757fe5b041461137b5760405162461bcd60e51b815260040161041f9061248a565b600061137b83836040518060400160405280601a81526020017f536166654d6174683a206469766973696f6e206279207a65726f000000000000815250611a67565b60006060600080896001600160a01b031663d7d522666040518163ffffffff1660e01b815260040160206040518083038186803b1580156118f757600080fd5b505afa15801561190b573d6000803e3d6000fd5b505050506040513d601f19601f8201168201806040525061192f9190810190611de3565b604080516001808252818301909252919250606091906020808301908038833901905050905060005b865160ff168160ff1610156119ca57896001600160a01b0316878260ff168151811061198057fe5b6020026020010151600001516001600160a01b031614156119c25780826000815181106119a957fe5b602002602001019060ff16908160ff16815250506119ca565b600101611958565b50816001600160a01b0316638fb1860b898989858f6040518663ffffffff1660e01b81526004016119ff9594939291906123f9565b60006040518083038186803b158015611a1757600080fd5b505afa158015611a2b573d6000803e3d6000fd5b505050506040513d6000823e601f3d908101601f19168201604052611a539190810190611e9e565b945094509450505096509650969350505050565b60008183611a885760405162461bcd60e51b815260040161041f9190612459565b506000838581611a9457fe5b0495945050505050565b6040518061010001604052806000151581526020016060815260200160006001600160a01b0316815260200160006001600160a01b0316815260200160001515815260200160008152602001611af2611b32565b8152602001611aff611b32565b905290565b6040805160a08101825260608082526000602083018190529282018390528101829052608081019190915290565b6040805160c081019091526000808252602082019081526020016000151581526020016000815260200160008152602001600081525090565b8035610579816125f3565b8051610579816125f3565b600082601f830112611b9257600080fd5b8151611ba5611ba0826124ff565b6124d8565b915081818352602084019350602081019050838560c0840282011115611bca57600080fd5b60005b83811015611bf85781611be08882611d0d565b84525060209092019160c09190910190600101611bcd565b5050505092915050565b805161057981612607565b803561057981612610565b805161057981612619565b600082601f830112611c3457600080fd5b8151611c42611ba082612520565b91508082526020830160208301858383011115611c5e57600080fd5b611c698382846125b0565b50505092915050565b600060a08284031215611c8457600080fd5b611c8e60a06124d8565b825190915067ffffffffffffffff811115611ca857600080fd5b611cb484828501611b81565b8252506020611cc584848301611dba565b6020830152506040611cd984828501611c02565b6040830152506060611ced84828501611c02565b6060830152506080611d0184828501611daf565b60808301525092915050565b600060c08284031215611d1f57600080fd5b611d2960c06124d8565b90506000611d378484611b76565b8252506020611d4884848301611c18565b6020830152506040611d5c84828501611c02565b6040830152506060611d7084828501611daf565b6060830152506080611d8484828501611daf565b60808301525060a0611d9884828501611daf565b60a08301525092915050565b803561057981612626565b805161057981612626565b80516105798161262f565b600060208284031215611dd757600080fd5b600061140e8484611b6b565b600060208284031215611df557600080fd5b600061140e8484611b76565b600080600060608486031215611e1657600080fd5b6000611e228686611b6b565b9350506020611e3386828701611b6b565b9250506040611e4486828701611b6b565b9150509250925092565b600080600060608486031215611e6357600080fd5b6000611e6f8686611b6b565b9350506020611e3386828701611da4565b600060208284031215611e9257600080fd5b600061140e8484611c02565b600080600060608486031215611eb357600080fd5b6000611ebf8686611c02565b935050602084015167ffffffffffffffff811115611edc57600080fd5b611ee886828701611c23565b9250506040611e4486828701611c02565b600080600060608486031215611f0e57600080fd5b6000611f1a8686611c02565b935050602084015167ffffffffffffffff811115611f3757600080fd5b611f4386828701611c23565b9250506040611e4486828701611daf565b60008060408385031215611f6757600080fd5b6000611f738585611c0d565b9250506020611f8485828601611b6b565b9150509250929050565b60008060408385031215611fa157600080fd5b6000611fad8585611c0d565b9250506020611f8485828601611da4565b600060208284031215611fd057600080fd5b815167ffffffffffffffff811115611fe757600080fd5b61140e84828501611c72565b600060c0828403121561200557600080fd5b600061140e8484611d0d565b60006020828403121561202357600080fd5b600061140e8484611daf565b600061203b83836122d0565b505060c00190565b600061204f8383612346565b505060200190565b600061204f838361234f565b61206c8161255b565b82525050565b600061207d8261254e565b6120878185612552565b935061209283612548565b8060005b838110156120c05781516120aa888261202f565b97506120b583612548565b925050600101612096565b509495945050505050565b60006120d68261254e565b6120e08185612552565b93506120eb83612548565b8060005b838110156120c05781516121038882612043565b975061210e83612548565b9250506001016120ef565b60006121248261254e565b61212e8185612552565b935061213983612548565b8060005b838110156120c05781516121518882612057565b975061215c83612548565b92505060010161213d565b61206c81612566565b61206c8161259a565b61206c816125a5565b600061218d8261254e565b6121978185612552565b93506121a78185602086016125b0565b6121b0816125dc565b9093019392505050565b60006121c7601483612552565b73092dce0eae840c2e4e4c2f240dad2e6dac2e8c6d60631b815260200192915050565b60006121f7601083612552565b6f125b9d985b1a590818dbdb9d1c9858dd60821b815260200192915050565b6000612223602183612552565b7f536166654d6174683a206d756c7469706c69636174696f6e206f766572666c6f8152607760f81b602082015260400192915050565b6000612266600b83612552565b6a092dcecc2d8d2c840da92f60ab1b815260200192915050565b600061228d600c83612552565b6b496e76616c6964207261746560a01b815260200192915050565b60006122b5600c83612552565b6b24b73b30b634b2103ab9b2b960a11b815260200192915050565b805160c08301906122e18482612063565b5060208201516122f46020850182612170565b5060408201516123076040850182612167565b50606082015161231a6060850182612346565b50608082015161232d6080850182612346565b5060a082015161234060a0850182612346565b50505050565b61206c81612591565b61206c81612594565b602081016105798284612063565b606081016123748286612063565b6123816020830185612063565b61140e6040830184612179565b6060810161239c8286612167565b81810360208301526123ae8185612182565b905061140e6040830184612063565b608081016123cb8287612167565b81810360208301526123dd8186612182565b90506123ec6040830185612346565b6118066060830184612346565b60a081016124078288612167565b6124146020830187612346565b81810360408301526124268186612072565b9050818103606083015261243a8185612119565b9050818103608083015261244e81846120cb565b979650505050505050565b6020808252810161137b8184612182565b60208082528101610579816121ba565b60208082528101610579816121ea565b6020808252810161057981612216565b6020808252810161057981612259565b6020808252810161057981612280565b60208082528101610579816122a8565b602081016105798284612346565b60405181810167ffffffffffffffff811182821017156124f757600080fd5b604052919050565b600067ffffffffffffffff82111561251657600080fd5b5060209081020190565b600067ffffffffffffffff82111561253757600080fd5b506020601f91909101601f19160190565b60200190565b5190565b90815260200190565b600061057982612585565b151590565b60006105798261255b565b80612580816125e6565b919050565b6001600160a01b031690565b90565b60ff1690565b600061057982612576565b600061057982612591565b60005b838110156125cb5781810151838201526020016125b3565b838111156123405750506000910152565b601f01601f191690565b600881106125f057fe5b50565b6125fc8161255b565b81146125f057600080fd5b6125fc81612566565b6125fc8161256b565b600881106125f057600080fd5b6125fc81612591565b6125fc8161259456fea365627a7a72315820e4aca86c61cb86ad7c6ae9b3c1c9a0b34301d51583beb6703115e36525488df56c6578706572696d656e74616cf564736f6c63430005100040",
  "source": "pragma solidity 0.5.16;\npragma experimental ABIEncoderV2;\n\nimport { IMix } from \"../../interfaces/IMix.sol\";\nimport { IBasketManager } from \"../../interfaces/IBasketManager.sol\";\nimport { IMStableHelper } from \"../../interfaces/IMStableHelper.sol\";\nimport { ISavingsContractV1 } from \"../../interfaces/ISavingsContract.sol\";\nimport { IForgeValidator } from \"../forge-validator/IForgeValidator.sol\";\n\nimport { MixStructs } from \"./MixStructs.sol\";\nimport { StableMath, SafeMath } from \"../../shared/StableMath.sol\";\n\n\n/**\n * @title   MStableHelper\n * @author  Stability Labs Pty. Ltd.\n * @notice  Returns the validity and output of a given redemption\n * @dev     VERSION: 1.0\n *          DATE:    2020-06-18\n */\ncontract MStableHelper is IMStableHelper, MixStructs {\n\n    using StableMath for uint256;\n    using SafeMath for uint256;\n\n\n    /***************************************\n                MINT/SWAP/REDEEM\n    ****************************************/\n\n    /**\n     * @dev Returns a valid bAsset with which to mint\n     * @param _mIx Mix addr\n     * @return valid bool\n     * @return string message\n     * @return address of bAsset to mint\n     */\n    function suggestMintAsset(\n        address _mIx\n    )\n        external\n        view\n        returns (\n            bool,\n            string memory,\n            address\n        )\n    {\n        require(_mIx != address(0), \"Invalid mIx\");\n        // Get the data\n        IBasketManager basketManager = IBasketManager(\n            IMix(_mIx).getBasketManager()\n        );\n        Basket memory basket = basketManager.getBasket();\n        uint256 totalSupply = IMix(_mIx).totalSupply();\n\n        // Calc the max weight delta (i.e is X% away from Max weight)\n        uint256 len = basket.bassets.length;\n        uint256[] memory maxWeightDelta = new uint256[](len);\n        for(uint256 i = 0; i < len; i++){\n            Basset memory bAsset = basket.bassets[i];\n            uint256 scaledBasset = bAsset.vaultBalance.mulRatioTruncate(bAsset.ratio);\n            // e.g. (1e21 * 1e18) / 1e23 = 1e16 or 1%\n            uint256 weight = scaledBasset.divPrecisely(totalSupply);\n            maxWeightDelta[i] = weight > bAsset.maxWeight ? 0 : bAsset.maxWeight.sub(weight);\n            if(bAsset.status != BassetStatus.Normal){\n                return (false, \"No assets available\", address(0));\n            }\n        }\n        // Ideal delta is the bAsset > 10 but closest\n        uint256 idealMaxWeight = 0;\n        address selected = address(0);\n        for(uint256 j = 0; j < len; j++){\n            uint256 bAssetDelta = maxWeightDelta[j];\n            if(bAssetDelta >= 1e17){\n                if(selected == address(0) || bAssetDelta < idealMaxWeight){\n                    idealMaxWeight = bAssetDelta;\n                    selected = basket.bassets[j].addr;\n                }\n            }\n        }\n        if(selected == address(0)){\n            return (false, \"No assets available\", address(0));\n        }\n        return (true, \"\", selected);\n    }\n\n\n    /**\n     * @dev Gets the maximum input for a valid swap pair\n     * @param _mIx mIx address (e.g. mUSD)\n     * @param _input Asset to input only bAssets accepted\n     * @param _output Either a bAsset or the mIx\n     * @return valid\n     * @return validity reason\n     * @return max input units (in native decimals)\n     * @return how much output this input would produce (in native decimals, after any fee)\n     */\n    function getMaxSwap(\n        address _mIx,\n        address _input,\n        address _output\n    )\n        external\n        view\n        returns (\n            bool,\n            string memory,\n            uint256,\n            uint256\n        )\n    {\n        Data memory data = _getData(_mIx, _input, _output);\n        if(!data.isValid) {\n          return (false, data.reason, 0, 0);\n        }\n        uint256 inputMaxWeightUnits = data.totalSupply.mulTruncate(data.input.maxWeight);\n        uint256 inputVaultBalanceScaled = data.input.vaultBalance.mulRatioTruncate(\n            data.input.ratio\n        );\n        if (data.isMint) {\n            // M = ((t * maxW) - c)/(1-maxW)\n            // M = max mint (scaled)\n            // t = totalSupply before\n            // maxW = max weight %\n            // c = vault balance (scaled)\n            // num = (t * maxW) - c\n            // e.g. 1e22 - 1e21 = 9e21\n            uint256 num = inputMaxWeightUnits.sub(inputVaultBalanceScaled);\n            // den = 1e18 - maxW\n            // e.g. 1e18 - 75e16 = 25e16\n            uint256 den = StableMath.getFullScale().sub(data.input.maxWeight);\n            uint256 maxMintScaled = den > 0 ? num.divPrecisely(den) : num;\n            uint256 maxMint = maxMintScaled.divRatioPrecisely(data.input.ratio);\n            maxMintScaled = maxMint.mulRatioTruncate(data.input.ratio);\n            return (true, \"\", maxMint, maxMintScaled);\n        } else {\n            // get max input\n            uint256 maxInputScaled = inputMaxWeightUnits.sub(inputVaultBalanceScaled);\n            // get max output\n            uint256 outputMaxWeight = data.totalSupply.mulTruncate(data.output.maxWeight);\n            uint256 outputVaultBalanceScaled = data.output.vaultBalance.mulRatioTruncate(data.output.ratio);\n            // If maxInput = 2, outputVaultBalance = 1, then clamp to 1\n            uint256 clampedMax = maxInputScaled > outputVaultBalanceScaled ? outputVaultBalanceScaled : maxInputScaled;\n            // if output is overweight, no fee, else fee\n            bool applyFee = outputVaultBalanceScaled < outputMaxWeight;\n            uint256 maxInputUnits = clampedMax.divRatioPrecisely(data.input.ratio);\n            uint256 outputUnitsIncFee = maxInputUnits.mulRatioTruncate(data.input.ratio).divRatioPrecisely(data.output.ratio);\n\n            uint256 fee = applyFee ? data.mIx.swapFee() : 0;\n            uint256 outputFee = outputUnitsIncFee.mulTruncate(fee);\n            return (true, \"\", maxInputUnits, outputUnitsIncFee.sub(outputFee));\n        }\n    }\n\n    /**\n     * @dev Returns a valid bAsset to redeem\n     * @param _mIx Mix addr\n     * @return valid bool\n     * @return string message\n     * @return address of bAsset to redeem\n     */\n    function suggestRedeemIx(\n        address _mIx\n    )\n        external\n        view\n        returns (\n            bool,\n            string memory,\n            address\n        )\n    {\n        require(_mIx != address(0), \"Invalid mIx\");\n        // Get the data\n        IBasketManager basketManager = IBasketManager(\n            IMix(_mIx).getBasketManager()\n        );\n        Basket memory basket = basketManager.getBasket();\n        uint256 totalSupply = IMix(_mIx).totalSupply();\n\n        // Calc the max weight delta (i.e is X% away from Max weight)\n        uint256 len = basket.bassets.length;\n        uint256 overweightCount = 0;\n        uint256[] memory maxWeightDelta = new uint256[](len);\n        \n        for(uint256 i = 0; i < len; i++){\n            Basset memory bAsset = basket.bassets[i];\n            uint256 scaledBasset = bAsset.vaultBalance.mulRatioTruncate(bAsset.ratio);\n            // e.g. (1e21 * 1e18) / 1e23 = 1e16 or 1%\n            uint256 weight = scaledBasset.divPrecisely(totalSupply);\n            if(weight > bAsset.maxWeight) {\n                overweightCount++;\n            }\n            maxWeightDelta[i] = weight > bAsset.maxWeight ? uint256(-1) : bAsset.maxWeight.sub(weight);\n            if(bAsset.status != BassetStatus.Normal){\n                return (false, \"No assets available\", address(0));\n            }\n        }\n\n        // if > 1 overweight, fail\n        if(overweightCount > 1) {\n            return (false, \"No assets available\", address(0));\n        } else if(overweightCount == 1){\n            // if 1 overweight, choose asset\n            for(uint256 j = 0; j < len; j++){\n                if(maxWeightDelta[j] == uint256(-1)){\n                    return (true, \"\", basket.bassets[j].addr);\n                }\n            }\n        }\n        // else choose highest %\n        uint256 lowestDelta = uint256(-1);\n        address selected = address(0);\n        for(uint256 k = 0; k < len; k++){\n            if(maxWeightDelta[k] < lowestDelta) {\n                selected = basket.bassets[k].addr;\n                lowestDelta = maxWeightDelta[k];\n            }\n        }\n        return (true, \"\", selected);\n    }\n\n    /**\n     * @dev Determines if a given Redemption is valid\n     * @param _mIx Address of the given mIx (e.g. mUSD)\n     * @param _mIxQuantity Amount of mIx to redeem (in mUSD units)\n     * @param _outputBasset Desired output bAsset\n     * @return valid\n     * @return validity reason\n     * @return output in bAsset units\n     * @return bAssetQuantityArg - required input argument to the 'redeem' call\n     */\n    function getRedeemValidity(\n        address _mIx,\n        uint256 _mIxQuantity,\n        address _outputBasset\n    )\n        external\n        view\n        returns (\n            bool,\n            string memory,\n            uint256 output,\n            uint256 bassetQuantityArg\n        )\n    {\n        // Convert the `mIxQuantity` (input) into bAsset units\n        IBasketManager basketManager = IBasketManager(\n            IMix(_mIx).getBasketManager()\n        );\n        Basset memory bAsset = basketManager.getBasset(_outputBasset);\n        uint256 bAssetQuantity = _mIxQuantity.divRatioPrecisely(\n            bAsset.ratio\n        );\n\n        // Prepare params for internal validity\n        address[] memory bAssets = new address[](1);\n        uint256[] memory quantities = new uint256[](1);\n        bAssets[0] = _outputBasset;\n        quantities[0] = bAssetQuantity;\n        (\n            bool valid,\n            string memory reason,\n            uint256 bAssetOutput\n        ) = _getRedeemValidity(_mIx, bAssets, quantities);\n        return (valid, reason, bAssetOutput, bAssetQuantity);\n    }\n\n\n    /***************************************\n                    SAVE\n    ****************************************/\n\n    /**\n     * @dev Gets the users savings balance in Mix terms\n     * @param _save SAVE contract address\n     * @param _user Address of the user\n     * @return balance in Mix units\n     */\n    function getSaveBalance(\n        ISavingsContractV1 _save,\n        address _user\n    )\n        external\n        view\n        returns (\n            uint256\n        )\n    {\n        require(address(_save) != address(0), \"Invalid contract\");\n        require(_user != address(0), \"Invalid user\");\n\n        uint256 credits = _save.creditBalances(_user);\n        uint256 rate = _save.exchangeRate();\n        require(rate > 0, \"Invalid rate\");\n\n        return credits.mulTruncate(rate);\n    }\n\n    /**\n     * @dev Returns the 'credit' units required to withdraw a certain\n     * amount of Mix from the SAVE contract\n     * @param _save SAVE contract address\n     * @param _mIxUnits Amount of mIx to redeem from SAVE\n     * @return input for the redeem function (ie. credit units to redeem)\n     */\n    function getSaveRedeemInput(\n        ISavingsContractV1 _save,\n        uint256 _mIxUnits\n    )\n        external\n        view\n        returns (\n            uint256\n        )\n    {\n        require(address(_save) != address(0), \"Invalid contract\");\n\n        uint256 rate = _save.exchangeRate();\n        require(rate > 0, \"Invalid rate\");\n\n        uint256 credits = _mIxUnits.divPrecisely(rate);\n\n        // Add 1 because the amounts always round down\n        // e.g. i have 51 credits, e4 10 = 20.4\n        // to withdraw 20 i need 20*10/4 = 50 + 1\n        return credits + 1;\n    }\n\n\n    /***************************************\n                    INTERNAL\n    ****************************************/\n\n    struct Data {\n        bool isValid;\n        string reason;\n        IMix mIx;\n        IBasketManager basketManager;\n        bool isMint;\n        uint256 totalSupply;\n        Basset input;\n        Basset output;\n    }\n\n    function _getData(address _mIx, address _input, address _output) internal view returns (Data memory) {\n        bool isMint = _output == _mIx;\n        IMix mIx = IMix(_mIx);\n        IBasketManager basketManager = IBasketManager(\n            mIx.getBasketManager()\n        );\n        (bool isValid, string memory reason, ) = mIx\n            .getSwapOutput(_input, _output, 1);\n        uint256 totalSupply = mIx.totalSupply();\n        Basset memory input = basketManager.getBasset(_input);\n        Basset memory output = !isMint ? basketManager.getBasset(_output) : Basset({\n            addr: _output,\n            ratio: StableMath.getRatioScale(),\n            maxWeight: 0,\n            vaultBalance: 0,\n            status: BassetStatus.Normal,\n            isTransferFeeCharged: false\n        });\n        return Data({\n            isValid: isValid,\n            reason: reason,\n            mIx: mIx,\n            basketManager: basketManager,\n            isMint: isMint,\n            totalSupply: totalSupply,\n            input: input,\n            output: output\n        });\n    }\n\n\n    function _getRedeemValidity(\n        address _mIx,\n        address[] memory _bAssets,\n        uint256[] memory _bAssetQuantities\n    )\n        internal\n        view\n        returns (\n            bool,\n            string memory,\n            uint256 output\n        )\n    {\n        uint256 bAssetCount = _bAssetQuantities.length;\n        require(\n            bAssetCount == 1 && bAssetCount == _bAssets.length,\n            \"Input array mismatch\"\n        );\n\n        IMix mIx = IMix(_mIx);\n        IBasketManager basketManager = IBasketManager(\n            mIx.getBasketManager()\n        );\n\n        Basket memory basket = basketManager.getBasket();\n\n        if (basket.undergoingRecol || basketManager.paused()) {\n            return (false, \"Invalid basket state\", 0);\n        }\n\n        (\n            bool redemptionValid,\n            string memory reason,\n            bool applyFee\n        ) = _validateRedeem(\n            mIx,\n            _bAssetQuantities,\n            _bAssets[0],\n            basket.failed,\n            mIx.totalSupply(),\n            basket.bassets\n        );\n        if (!redemptionValid) {\n            return (false, reason, 0);\n        }\n        uint256 fee = applyFee ? mIx.swapFee() : 0;\n        uint256 feeAmount = _bAssetQuantities[0].mulTruncate(fee);\n        uint256 outputMinusFee = _bAssetQuantities[0].sub(feeAmount);\n        return (true, \"\", outputMinusFee);\n    }\n\n\n    function _validateRedeem(\n        IMix mIx,\n        uint256[] memory quantities,\n        address bAsset,\n        bool failed,\n        uint256 supply,\n        Basset[] memory allBassets\n    )\n        internal\n        view\n        returns (\n            bool,\n            string memory,\n            bool\n        )\n    {\n        IForgeValidator forgeValidator = IForgeValidator(\n            mIx.forgeValidator()\n        );\n        uint8[] memory bAssetIndexes = new uint8[](1);\n        for (uint8 i = 0; i < uint8(allBassets.length); i++) {\n            if (allBassets[i].addr == bAsset) {\n                bAssetIndexes[0] = i;\n                break;\n            }\n        }\n        return\n            forgeValidator.validateRedemption(\n                failed,\n                supply,\n                allBassets,\n                bAssetIndexes,\n                quantities\n            );\n    }\n\n}\n",
  "sourcePath": "/Volumes/sdxc/ETHEREUM/CODE/mStable-v1-edit/contracts/mix/shared/MStableHelper.sol",
  "compiler": {
    "name": "solc",
    "version": "0.5.16+commit.9c3226ce.Emscripten.clang"
  },
  "schemaVersion": "3.1.0",
  "updatedAt": "2021-03-11T05:43:15.773Z",
  "devdoc": {
    "author": "Stability Labs Pty. Ltd.",
    "details": "VERSION: 1.0         DATE:    2020-06-18",
    "methods": {
      "getMaxSwap(address,address,address)": {
        "details": "Gets the maximum input for a valid swap pair",
        "params": {
          "_input": "Asset to input only bAssets accepted",
          "_mIx": "mIx address (e.g. mUSD)",
          "_output": "Either a bAsset or the mIx"
        },
        "return": "validvalidity reasonmax input units (in native decimals)how much output this input would produce (in native decimals, after any fee)"
      },
      "getRedeemValidity(address,uint256,address)": {
        "details": "Determines if a given Redemption is valid",
        "params": {
          "_mIx": "Address of the given mIx (e.g. mUSD)",
          "_mIxQuantity": "Amount of mIx to redeem (in mUSD units)",
          "_outputBasset": "Desired output bAsset"
        },
        "return": "validvalidity reasonoutput in bAsset unitsbAssetQuantityArg - required input argument to the 'redeem' call"
      },
      "getSaveBalance(address,address)": {
        "details": "Gets the users savings balance in Mix terms",
        "params": {
          "_save": "SAVE contract address",
          "_user": "Address of the user"
        },
        "return": "balance in Mix units"
      },
      "getSaveRedeemInput(address,uint256)": {
        "details": "Returns the 'credit' units required to withdraw a certain amount of Mix from the SAVE contract",
        "params": {
          "_mIxUnits": "Amount of mIx to redeem from SAVE",
          "_save": "SAVE contract address"
        },
        "return": "input for the redeem function (ie. credit units to redeem)"
      },
      "suggestMintAsset(address)": {
        "details": "Returns a valid bAsset with which to mint",
        "params": {
          "_mIx": "Mix addr"
        },
        "return": "valid boolstring messageaddress of bAsset to mint"
      },
      "suggestRedeemIx(address)": {
        "details": "Returns a valid bAsset to redeem",
        "params": {
          "_mIx": "Mix addr"
        },
        "return": "valid boolstring messageaddress of bAsset to redeem"
      }
    },
    "title": "MStableHelper"
  },
  "userdoc": {
    "methods": {},
    "notice": "Returns the validity and output of a given redemption"
  }
}