{
  "contractName": "Nexus",
  "abi": [
    {
      "inputs": [
        {
          "internalType": "address",
          "name": "_governorAddr",
          "type": "address"
        }
      ],
      "payable": false,
      "stateMutability": "nonpayable",
      "type": "constructor"
    },
    {
      "anonymous": false,
      "inputs": [
        {
          "indexed": true,
          "internalType": "address",
          "name": "governor",
          "type": "address"
        },
        {
          "indexed": true,
          "internalType": "address",
          "name": "proposed",
          "type": "address"
        }
      ],
      "name": "GovernorChangeCancelled",
      "type": "event"
    },
    {
      "anonymous": false,
      "inputs": [
        {
          "indexed": true,
          "internalType": "address",
          "name": "proposedGovernor",
          "type": "address"
        }
      ],
      "name": "GovernorChangeClaimed",
      "type": "event"
    },
    {
      "anonymous": false,
      "inputs": [
        {
          "indexed": true,
          "internalType": "address",
          "name": "governor",
          "type": "address"
        },
        {
          "indexed": true,
          "internalType": "address",
          "name": "proposed",
          "type": "address"
        }
      ],
      "name": "GovernorChangeRequested",
      "type": "event"
    },
    {
      "anonymous": false,
      "inputs": [
        {
          "indexed": true,
          "internalType": "address",
          "name": "previousGovernor",
          "type": "address"
        },
        {
          "indexed": true,
          "internalType": "address",
          "name": "newGovernor",
          "type": "address"
        }
      ],
      "name": "GovernorChanged",
      "type": "event"
    },
    {
      "anonymous": false,
      "inputs": [
        {
          "indexed": true,
          "internalType": "bytes32",
          "name": "key",
          "type": "bytes32"
        },
        {
          "indexed": false,
          "internalType": "address",
          "name": "addr",
          "type": "address"
        },
        {
          "indexed": false,
          "internalType": "bool",
          "name": "isLocked",
          "type": "bool"
        }
      ],
      "name": "ModuleAdded",
      "type": "event"
    },
    {
      "anonymous": false,
      "inputs": [
        {
          "indexed": true,
          "internalType": "bytes32",
          "name": "key",
          "type": "bytes32"
        }
      ],
      "name": "ModuleCancelled",
      "type": "event"
    },
    {
      "anonymous": false,
      "inputs": [
        {
          "indexed": true,
          "internalType": "bytes32",
          "name": "key",
          "type": "bytes32"
        }
      ],
      "name": "ModuleLockCancelled",
      "type": "event"
    },
    {
      "anonymous": false,
      "inputs": [
        {
          "indexed": true,
          "internalType": "bytes32",
          "name": "key",
          "type": "bytes32"
        }
      ],
      "name": "ModuleLockEnabled",
      "type": "event"
    },
    {
      "anonymous": false,
      "inputs": [
        {
          "indexed": true,
          "internalType": "bytes32",
          "name": "key",
          "type": "bytes32"
        },
        {
          "indexed": false,
          "internalType": "uint256",
          "name": "timestamp",
          "type": "uint256"
        }
      ],
      "name": "ModuleLockRequested",
      "type": "event"
    },
    {
      "anonymous": false,
      "inputs": [
        {
          "indexed": true,
          "internalType": "bytes32",
          "name": "key",
          "type": "bytes32"
        },
        {
          "indexed": false,
          "internalType": "address",
          "name": "addr",
          "type": "address"
        },
        {
          "indexed": false,
          "internalType": "uint256",
          "name": "timestamp",
          "type": "uint256"
        }
      ],
      "name": "ModuleProposed",
      "type": "event"
    },
    {
      "constant": true,
      "inputs": [],
      "name": "UPGRADE_DELAY",
      "outputs": [
        {
          "internalType": "uint256",
          "name": "",
          "type": "uint256"
        }
      ],
      "payable": false,
      "stateMutability": "view",
      "type": "function"
    },
    {
      "constant": false,
      "inputs": [],
      "name": "cancelGovernorChange",
      "outputs": [],
      "payable": false,
      "stateMutability": "nonpayable",
      "type": "function"
    },
    {
      "constant": false,
      "inputs": [
        {
          "internalType": "address",
          "name": "",
          "type": "address"
        }
      ],
      "name": "changeGovernor",
      "outputs": [],
      "payable": false,
      "stateMutability": "nonpayable",
      "type": "function"
    },
    {
      "constant": false,
      "inputs": [],
      "name": "claimGovernorChange",
      "outputs": [],
      "payable": false,
      "stateMutability": "nonpayable",
      "type": "function"
    },
    {
      "constant": true,
      "inputs": [],
      "name": "delay",
      "outputs": [
        {
          "internalType": "uint256",
          "name": "",
          "type": "uint256"
        }
      ],
      "payable": false,
      "stateMutability": "view",
      "type": "function"
    },
    {
      "constant": true,
      "inputs": [],
      "name": "governor",
      "outputs": [
        {
          "internalType": "address",
          "name": "",
          "type": "address"
        }
      ],
      "payable": false,
      "stateMutability": "view",
      "type": "function"
    },
    {
      "constant": true,
      "inputs": [],
      "name": "initialized",
      "outputs": [
        {
          "internalType": "bool",
          "name": "",
          "type": "bool"
        }
      ],
      "payable": false,
      "stateMutability": "view",
      "type": "function"
    },
    {
      "constant": true,
      "inputs": [],
      "name": "isGovernor",
      "outputs": [
        {
          "internalType": "bool",
          "name": "",
          "type": "bool"
        }
      ],
      "payable": false,
      "stateMutability": "view",
      "type": "function"
    },
    {
      "constant": true,
      "inputs": [
        {
          "internalType": "bytes32",
          "name": "",
          "type": "bytes32"
        }
      ],
      "name": "modules",
      "outputs": [
        {
          "internalType": "address",
          "name": "addr",
          "type": "address"
        },
        {
          "internalType": "bool",
          "name": "isLocked",
          "type": "bool"
        }
      ],
      "payable": false,
      "stateMutability": "view",
      "type": "function"
    },
    {
      "constant": true,
      "inputs": [],
      "name": "proposedGovernor",
      "outputs": [
        {
          "internalType": "address",
          "name": "",
          "type": "address"
        }
      ],
      "payable": false,
      "stateMutability": "view",
      "type": "function"
    },
    {
      "constant": true,
      "inputs": [
        {
          "internalType": "bytes32",
          "name": "",
          "type": "bytes32"
        }
      ],
      "name": "proposedLockModules",
      "outputs": [
        {
          "internalType": "uint256",
          "name": "",
          "type": "uint256"
        }
      ],
      "payable": false,
      "stateMutability": "view",
      "type": "function"
    },
    {
      "constant": true,
      "inputs": [
        {
          "internalType": "bytes32",
          "name": "",
          "type": "bytes32"
        }
      ],
      "name": "proposedModules",
      "outputs": [
        {
          "internalType": "address",
          "name": "newAddress",
          "type": "address"
        },
        {
          "internalType": "uint256",
          "name": "timestamp",
          "type": "uint256"
        }
      ],
      "payable": false,
      "stateMutability": "view",
      "type": "function"
    },
    {
      "constant": false,
      "inputs": [
        {
          "internalType": "address",
          "name": "_proposedGovernor",
          "type": "address"
        }
      ],
      "name": "requestGovernorChange",
      "outputs": [],
      "payable": false,
      "stateMutability": "nonpayable",
      "type": "function"
    },
    {
      "constant": true,
      "inputs": [],
      "name": "requestTime",
      "outputs": [
        {
          "internalType": "uint256",
          "name": "",
          "type": "uint256"
        }
      ],
      "payable": false,
      "stateMutability": "view",
      "type": "function"
    },
    {
      "constant": false,
      "inputs": [
        {
          "internalType": "bytes32[]",
          "name": "_keys",
          "type": "bytes32[]"
        },
        {
          "internalType": "address[]",
          "name": "_addresses",
          "type": "address[]"
        },
        {
          "internalType": "bool[]",
          "name": "_isLocked",
          "type": "bool[]"
        },
        {
          "internalType": "address",
          "name": "_governorAddr",
          "type": "address"
        }
      ],
      "name": "initialize",
      "outputs": [
        {
          "internalType": "bool",
          "name": "",
          "type": "bool"
        }
      ],
      "payable": false,
      "stateMutability": "nonpayable",
      "type": "function"
    },
    {
      "constant": false,
      "inputs": [
        {
          "internalType": "bytes32",
          "name": "_key",
          "type": "bytes32"
        },
        {
          "internalType": "address",
          "name": "_addr",
          "type": "address"
        }
      ],
      "name": "proposeModule",
      "outputs": [],
      "payable": false,
      "stateMutability": "nonpayable",
      "type": "function"
    },
    {
      "constant": false,
      "inputs": [
        {
          "internalType": "bytes32",
          "name": "_key",
          "type": "bytes32"
        }
      ],
      "name": "cancelProposedModule",
      "outputs": [],
      "payable": false,
      "stateMutability": "nonpayable",
      "type": "function"
    },
    {
      "constant": false,
      "inputs": [
        {
          "internalType": "bytes32",
          "name": "_key",
          "type": "bytes32"
        }
      ],
      "name": "acceptProposedModule",
      "outputs": [],
      "payable": false,
      "stateMutability": "nonpayable",
      "type": "function"
    },
    {
      "constant": false,
      "inputs": [
        {
          "internalType": "bytes32[]",
          "name": "_keys",
          "type": "bytes32[]"
        }
      ],
      "name": "acceptProposedModules",
      "outputs": [],
      "payable": false,
      "stateMutability": "nonpayable",
      "type": "function"
    },
    {
      "constant": false,
      "inputs": [
        {
          "internalType": "bytes32",
          "name": "_key",
          "type": "bytes32"
        }
      ],
      "name": "requestLockModule",
      "outputs": [],
      "payable": false,
      "stateMutability": "nonpayable",
      "type": "function"
    },
    {
      "constant": false,
      "inputs": [
        {
          "internalType": "bytes32",
          "name": "_key",
          "type": "bytes32"
        }
      ],
      "name": "cancelLockModule",
      "outputs": [],
      "payable": false,
      "stateMutability": "nonpayable",
      "type": "function"
    },
    {
      "constant": false,
      "inputs": [
        {
          "internalType": "bytes32",
          "name": "_key",
          "type": "bytes32"
        }
      ],
      "name": "lockModule",
      "outputs": [],
      "payable": false,
      "stateMutability": "nonpayable",
      "type": "function"
    },
    {
      "constant": true,
      "inputs": [
        {
          "internalType": "bytes32",
          "name": "_key",
          "type": "bytes32"
        }
      ],
      "name": "moduleExists",
      "outputs": [
        {
          "internalType": "bool",
          "name": "",
          "type": "bool"
        }
      ],
      "payable": false,
      "stateMutability": "view",
      "type": "function"
    },
    {
      "constant": true,
      "inputs": [
        {
          "internalType": "bytes32",
          "name": "_key",
          "type": "bytes32"
        }
      ],
      "name": "getModule",
      "outputs": [
        {
          "internalType": "address",
          "name": "addr",
          "type": "address"
        }
      ],
      "payable": false,
      "stateMutability": "view",
      "type": "function"
    }
  ],
  "bytecode": "0x6080604052600180546001600160a01b0319169055600060028190556003556008805460ff1916905534801561003457600080fd5b5060405162001ba238038062001ba28339818101604052602081101561005957600080fd5b5051600080546001600160a01b0319163317808255604051839262093a809284926001600160a01b0391909116919060008051602062001b82833981519152908290a36100ae816001600160e01b0361010f16565b5060008111610104576040805162461bcd60e51b815260206004820152601f60248201527f44656c6179206d7573742062652067726561746572207468616e207a65726f00604482015290519081900360640190fd5b600255506101b49050565b6001600160a01b03811661016a576040805162461bcd60e51b815260206004820152601f60248201527f474f563a206e657720476f7665726e6f72206973206164647265737328302900604482015290519081900360640190fd5b600080546040516001600160a01b038085169392169160008051602062001b8283398151915291a3600080546001600160a01b0319166001600160a01b0392909216919091179055565b6119be80620001c46000396000f3fe608060405234801561001057600080fd5b50600436106101585760003560e01c806385acd641116100c3578063b0b6cc1a1161007c578063b0b6cc1a1461049e578063c7af3352146104de578063d7e0842a146104e6578063d7fd0e7714610503578063e4c0aaf41461050b578063efa2f3a21461053157610158565b806385acd6411461042f5780638a11a3701461044c5780638c33c19c1461045457806394ccb1371461045c57806397f5fea614610479578063ad339d7a1461049657610158565b8063381042c811610115578063381042c81461023d57806347fe8b1d146103545780636921ea411461035c5780636a42b8f8146103ca5780636a89934b146103d25780636d4e19911461041257610158565b8063099c47bc1461015d57806309ea14aa146101855780630c340a24146101b1578063158ef93e146101d5578063165ed306146101f157806328066b8614610220575b600080fd5b6101836004803603602081101561017357600080fd5b50356001600160a01b031661054e565b005b6101836004803603604081101561019b57600080fd5b50803590602001356001600160a01b03166105a5565b6101b961082d565b604080516001600160a01b039092168252519081900360200190f35b6101dd61083c565b604080519115158252519081900360200190f35b61020e6004803603602081101561020757600080fd5b5035610845565b60408051918252519081900360200190f35b6101836004803603602081101561023657600080fd5b5035610857565b6101dd6004803603608081101561025357600080fd5b810190602081018135600160201b81111561026d57600080fd5b82018360208201111561027f57600080fd5b803590602001918460208302840111600160201b831117156102a057600080fd5b919390929091602081019035600160201b8111156102bd57600080fd5b8201836020820111156102cf57600080fd5b803590602001918460208302840111600160201b831117156102f057600080fd5b919390929091602081019035600160201b81111561030d57600080fd5b82018360208201111561031f57600080fd5b803590602001918460208302840111600160201b8311171561034057600080fd5b9193509150356001600160a01b03166108a7565b61020e610adc565b6101836004803603602081101561037257600080fd5b810190602081018135600160201b81111561038c57600080fd5b82018360208201111561039e57600080fd5b803590602001918460208302840111600160201b831117156103bf57600080fd5b509092509050610ae3565b61020e610ba4565b6103ef600480360360208110156103e857600080fd5b5035610baa565b604080516001600160a01b03909316835260208301919091528051918290030190f35b6101836004803603602081101561042857600080fd5b5035610bcf565b6101b96004803603602081101561044557600080fd5b5035610cc6565b6101b9610ce1565b610183610cf0565b6101dd6004803603602081101561047257600080fd5b5035610d46565b6101836004803603602081101561048f57600080fd5b5035610d83565b610183610f22565b6104bb600480360360208110156104b457600080fd5b5035610fea565b604080516001600160a01b03909316835290151560208301528051918290030190f35b6101dd611011565b610183600480360360208110156104fc57600080fd5b5035611022565b61020e61111a565b6101836004803603602081101561052157600080fd5b50356001600160a01b0316611120565b6101836004803603602081101561054757600080fd5b50356111b4565b610556611011565b610595576040805162461bcd60e51b815260206004820152601f602482015260008051602061196a833981519152604482015290519081900360640190fd5b426003556105a281611296565b50565b6105ad611011565b6105ec576040805162461bcd60e51b815260206004820152601f602482015260008051602061196a833981519152604482015290519081900360640190fd5b81610635576040805162461bcd60e51b81526020600482015260146024820152734b6579206d757374206e6f74206265207a65726f60601b604482015290519081900360640190fd5b6001600160a01b038116610690576040805162461bcd60e51b815260206004820152601c60248201527f4d6f64756c652061646472657373206d757374206e6f74206265203000000000604482015290519081900360640190fd5b600082815260046020526040902054600160a01b900460ff16156106f5576040805162461bcd60e51b8152602060048201526017602482015276135bd91d5b19481b5d5cdd081899481d5b9b1bd8dad959604a1b604482015290519081900360640190fd5b6000828152600460205260409020546001600160a01b0382811691161415610764576040805162461bcd60e51b815260206004820152601f60248201527f4d6f64756c6520616c7265616479206861732073616d65206164647265737300604482015290519081900360640190fd5b60008281526006602052604090206001810154156107c9576040805162461bcd60e51b815260206004820152601760248201527f4d6f64756c6520616c72656164792070726f706f736564000000000000000000604482015290519081900360640190fd5b80546001600160a01b0319166001600160a01b03831690811782554260018301819055604080519283526020830191909152805185927fa5917e6bf5563219e2772cffe6989d6f2ef8235ab280ab88f8c37479562e58a392908290030190a2505050565b6000546001600160a01b031690565b60085460ff1681565b60076020526000908152604090205481565b61085f611011565b61089e576040805162461bcd60e51b815260206004820152601f602482015260008051602061196a833981519152604482015290519081900360640190fd5b6105a2816113f4565b60006108b1611011565b6108f0576040805162461bcd60e51b815260206004820152601f602482015260008051602061196a833981519152604482015290519081900360640190fd5b60085460ff1615610948576040805162461bcd60e51b815260206004820152601c60248201527f4e6578757320697320616c726561647920696e697469616c697a656400000000604482015290519081900360640190fd5b868061098e576040805162461bcd60e51b815260206004820152601060248201526f139bc81ad95e5cc81c1c9bdd9a59195960821b604482015290519081900360640190fd5b8086146109e2576040805162461bcd60e51b815260206004820152601960248201527f496e73756666696369656e742061646472657373206461746100000000000000604482015290519081900360640190fd5b808414610a36576040805162461bcd60e51b815260206004820152601c60248201527f496e73756666696369656e74206c6f636b656420737461747573657300000000604482015290519081900360640190fd5b60005b81811015610a9557610a8d8a8a83818110610a5057fe5b90506020020135898984818110610a6357fe5b905060200201356001600160a01b0316888885818110610a7f57fe5b9050602002013515156114bc565b600101610a39565b50610a9e61082d565b6001600160a01b0316836001600160a01b031614610abf57610abf83611651565b50506008805460ff19166001908117909155979650505050505050565b62093a8081565b610aeb611011565b610b2a576040805162461bcd60e51b815260206004820152601f602482015260008051602061196a833981519152604482015290519081900360640190fd5b8080610b70576040805162461bcd60e51b815260206004820152601060248201526f4b65797320617272617920656d70747960801b604482015290519081900360640190fd5b60005b81811015610b9e57610b96848483818110610b8a57fe5b905060200201356113f4565b600101610b73565b50505050565b60025481565b600660205260009081526040902080546001909101546001600160a01b039091169082565b610bd7611011565b610c16576040805162461bcd60e51b815260206004820152601f602482015260008051602061196a833981519152604482015290519081900360640190fd5b600081815260076020526040902054610c2e90611707565b610c70576040805162461bcd60e51b815260206004820152600e60248201526d2232b630bc903737ba1037bb32b960911b604482015290519081900360640190fd5b6000818152600460209081526040808320805460ff60a01b1916600160a01b17905560079091528082208290555182917f097d0a4360ac95150faf267a7b4a999756a69238c2c7023cac729d81f0b733a391a250565b6000908152600460205260409020546001600160a01b031690565b6001546001600160a01b031681565b610cf8611011565b610d37576040805162461bcd60e51b815260206004820152601f602482015260008051602061196a833981519152604482015290519081900360640190fd5b6000600355610d44611734565b565b60008115801590610d6d57506000828152600460205260409020546001600160a01b031615155b15610d7a57506001610d7e565b5060005b919050565b610d8b611011565b610dca576040805162461bcd60e51b815260206004820152601f602482015260008051602061196a833981519152604482015290519081900360640190fd5b610dd381610d46565b610e18576040805162461bcd60e51b8152602060048201526011602482015270135bd91d5b19481b5d5cdd08195e1a5cdd607a1b604482015290519081900360640190fd5b600081815260046020526040902054600160a01b900460ff1615610e7d576040805162461bcd60e51b8152602060048201526017602482015276135bd91d5b19481b5d5cdd081899481d5b9b1bd8dad959604a1b604482015290519081900360640190fd5b60008181526007602052604090205415610ed6576040805162461bcd60e51b8152602060048201526015602482015274131bd8dac8185b1c9958591e481c1c9bdc1bdcd959605a1b604482015290519081900360640190fd5b60008181526007602090815260409182902042908190558251908152915183927f57456e8dc47899fbd8a75be3129514a3e4cca602e26b766d4bbb821975c4375892908290030190a250565b6001546001600160a01b03163314610f81576040805162461bcd60e51b815260206004820152601f60248201527f53656e646572206973206e6f742070726f706f73656420676f7665726e6f7200604482015290519081900360640190fd5b600254600354610f969163ffffffff61183316565b421015610fdb576040805162461bcd60e51b815260206004820152600e60248201526d2232b630bc903737ba1037bb32b960911b604482015290519081900360640190fd5b610fe3611894565b6000600355565b6004602052600090815260409020546001600160a01b03811690600160a01b900460ff1682565b6000546001600160a01b0316331490565b61102a611011565b611069576040805162461bcd60e51b815260206004820152601f602482015260008051602061196a833981519152604482015290519081900360640190fd5b600081815260066020526040902060010154806110cd576040805162461bcd60e51b815260206004820152601960248201527f50726f706f736564206d6f64756c65206e6f7420666f756e6400000000000000604482015290519081900360640190fd5b60008281526006602052604080822080546001600160a01b03191681556001018290555183917f4dd889c845f5a942b8304764283938168000b8f4903940690beb685ca2fc16cc91a25050565b60035481565b611128611011565b611167576040805162461bcd60e51b815260206004820152601f602482015260008051602061196a833981519152604482015290519081900360640190fd5b6040805162461bcd60e51b815260206004820152601960248201527f446972656374206368616e6765206e6f7420616c6c6f77656400000000000000604482015290519081900360640190fd5b6111bc611011565b6111fb576040805162461bcd60e51b815260206004820152601f602482015260008051602061196a833981519152604482015290519081900360640190fd5b60008181526007602052604090205461125b576040805162461bcd60e51b815260206004820152601d60248201527f4d6f64756c65206c6f636b2072657175657374206e6f7420666f756e64000000604482015290519081900360640190fd5b6000818152600760205260408082208290555182917f3d670309414f84151711e0ac2795a2b1686580ad9faca995492166a486255db391a250565b61129e611011565b6112dd576040805162461bcd60e51b815260206004820152601f602482015260008051602061196a833981519152604482015290519081900360640190fd5b6001600160a01b038116611338576040805162461bcd60e51b815260206004820152601f60248201527f50726f706f73656420676f7665726e6f72206973206164647265737328302900604482015290519081900360640190fd5b6001546001600160a01b031615611396576040805162461bcd60e51b815260206004820152601d60248201527f50726f706f73656420676f7665726e6f7220616c726561647920736574000000604482015290519081900360640190fd5b600180546001600160a01b0319166001600160a01b0383169081179091556113bc61082d565b6001600160a01b03167fa48c163cc46eb28aba8bdb525da18f15a83020cc18f439c933d79ea3ad9b50bb60405160405180910390a350565b6113fc611952565b50600081815260066020908152604091829020825180840190935280546001600160a01b031683526001015490820181905261143790611707565b611488576040805162461bcd60e51b815260206004820152601d60248201527f4d6f64756c6520757067726164652064656c6179206e6f74206f766572000000604482015290519081900360640190fd5b600082815260066020526040812080546001600160a01b031916815560010181905581516114b8918491906114bc565b5050565b6001600160a01b03821660009081526005602052604090205415611527576040805162461bcd60e51b815260206004820152601d60248201527f4d6f64756c6573206d757374206861766520756e697175652061646472000000604482015290519081900360640190fd5b600083815260046020526040902054600160a01b900460ff161561158c576040805162461bcd60e51b8152602060048201526017602482015276135bd91d5b19481b5d5cdd081899481d5b9b1bd8dad959604a1b604482015290519081900360640190fd5b6000838152600460205260409020546001600160a01b031680156115c4576001600160a01b0381166000908152600560205260408120555b60008481526004602090815260408083208054861515600160a01b810260ff60a01b196001600160a01b038b166001600160a01b0319909416841716179092558085526005845293829020889055815193845291830191909152805186927f7bf901a62d0edd068a4e74518eb8241133713d384171c7d0a3b7f6eb5c04095d92908290030190a250505050565b6001600160a01b0381166116ac576040805162461bcd60e51b815260206004820152601f60248201527f474f563a206e657720476f7665726e6f72206973206164647265737328302900604482015290519081900360640190fd5b600080546040516001600160a01b03808516939216917fde4b3f61490b74c0ed6237523974fe299126bbbf8a8a7482fd220104c59b0c8491a3600080546001600160a01b0319166001600160a01b0392909216919091179055565b60008082118015610d6d57506117268262093a8063ffffffff61183316565b4210610d7a57506001610d7e565b61173c611011565b61177b576040805162461bcd60e51b815260206004820152601f602482015260008051602061196a833981519152604482015290519081900360640190fd5b6001546001600160a01b03166117d8576040805162461bcd60e51b815260206004820152601960248201527f50726f706f73656420476f7665726e6f72206e6f742073657400000000000000604482015290519081900360640190fd5b6001546001600160a01b03166117ec61082d565b6001600160a01b03167f2f7bb10f75b8694ea78291d7ca4c9f2a75bc45f0f97046164ad3ee984bdf4bba60405160405180910390a3600180546001600160a01b0319169055565b60008282018381101561188d576040805162461bcd60e51b815260206004820152601b60248201527f536166654d6174683a206164646974696f6e206f766572666c6f770000000000604482015290519081900360640190fd5b9392505050565b6001546001600160a01b031633146118f3576040805162461bcd60e51b815260206004820152601f60248201527f53656e646572206973206e6f742070726f706f73656420676f7665726e6f7200604482015290519081900360640190fd5b600154611908906001600160a01b0316611651565b6001546040516001600160a01b03909116907f0ad714cb5607f3b529b5d3292190925ae992a77b291e39ec09c390d4787896ba90600090a2600180546001600160a01b0319169055565b60408051808201909152600080825260208201529056fe474f563a2063616c6c6572206973206e6f742074686520476f7665726e6f7200a265627a7a72315820a7b60251c9c81268fef2abc1c70e736e60ba5701cf463aea9d9889a74b41642e64736f6c63430005100032de4b3f61490b74c0ed6237523974fe299126bbbf8a8a7482fd220104c59b0c84",
  "source": "pragma solidity 0.5.16;\n\nimport { INexus } from \"../interfaces/INexus.sol\";\nimport { DelayedClaimableGovernor } from \"../governance/DelayedClaimableGovernor.sol\";\n\n/**\n * @title   Nexus\n * @author  Stability Labs Pty. Ltd.\n * @notice  Address provider and system kernel, also facilitates governance changes\n * @dev     The Nexus is mStable's Kernel, and allows the publishing and propagating\n *          of new system Modules. Other Modules will read from the Nexus\n */\ncontract Nexus is INexus, DelayedClaimableGovernor {\n\n    event ModuleProposed(bytes32 indexed key, address addr, uint256 timestamp);\n    event ModuleAdded(bytes32 indexed key, address addr, bool isLocked);\n    event ModuleCancelled(bytes32 indexed key);\n    event ModuleLockRequested(bytes32 indexed key, uint256 timestamp);\n    event ModuleLockEnabled(bytes32 indexed key);\n    event ModuleLockCancelled(bytes32 indexed key);\n\n    /** @dev Struct to store information about current modules */\n    struct Module {\n        address addr;       // Module address\n        bool isLocked;      // Module lock status\n    }\n\n    /** @dev Struct to store information about proposed modules */\n    struct Proposal {\n        address newAddress; // Proposed Module address\n        uint256 timestamp;  // Timestamp when module upgrade was proposed\n    }\n\n    // 1 week delayed upgrade period\n    uint256 public constant UPGRADE_DELAY = 1 weeks;\n\n    // Module-key => Module\n    mapping(bytes32 => Module) public modules;\n    // Module-address => Module-key\n    mapping(address => bytes32) private addressToModule;\n    // Module-key => Proposal\n    mapping(bytes32 => Proposal) public proposedModules;\n    // Module-key => Timestamp when lock was proposed\n    mapping(bytes32 => uint256) public proposedLockModules;\n\n    // Init flag to allow add modules at the time of deplyment without delay\n    bool public initialized = false;\n\n    /**\n     * @dev Modifier allows functions calls only when contract is not initialized.\n     */\n    modifier whenNotInitialized() {\n        require(!initialized, \"Nexus is already initialized\");\n        _;\n    }\n\n    /**\n     * @dev Initialises the Nexus and adds the core data to the Kernel (itself and governor)\n     * @param _governorAddr Governor address\n     */\n    constructor(address _governorAddr)\n        public\n        DelayedClaimableGovernor(_governorAddr, UPGRADE_DELAY)\n    {}\n\n    /**\n     * @dev Adds multiple new modules to the system to initialize the\n     *      Nexus contract with default modules. This should be called first\n     *      after deploying Nexus contract.\n     * @param _keys         Keys of the new modules in bytes32 form\n     * @param _addresses    Contract addresses of the new modules\n     * @param _isLocked     IsLocked flag for the new modules\n     * @param _governorAddr New Governor address\n     * @return bool         Success of publishing new Modules\n     */\n    function initialize(\n        bytes32[] calldata _keys,\n        address[] calldata _addresses,\n        bool[] calldata _isLocked,\n        address _governorAddr\n    )\n        external\n        onlyGovernor\n        whenNotInitialized\n        returns (bool)\n    {\n        uint256 len = _keys.length;\n        require(len > 0, \"No keys provided\");\n        require(len == _addresses.length, \"Insufficient address data\");\n        require(len == _isLocked.length, \"Insufficient locked statuses\");\n\n        for(uint256 i = 0 ; i < len; i++) {\n            _publishModule(_keys[i], _addresses[i], _isLocked[i]);\n        }\n\n        if(_governorAddr != governor()) _changeGovernor(_governorAddr);\n\n        initialized = true;\n        return true;\n    }\n\n    /***************************************\n                MODULE ADDING\n    ****************************************/\n\n    /**\n     * @dev Propose a new or update existing module\n     * @param _key  Key of the module\n     * @param _addr Address of the module\n     */\n    function proposeModule(bytes32 _key, address _addr)\n        external\n        onlyGovernor\n    {\n        require(_key != bytes32(0x0), \"Key must not be zero\");\n        require(_addr != address(0), \"Module address must not be 0\");\n        require(!modules[_key].isLocked, \"Module must be unlocked\");\n        require(modules[_key].addr != _addr, \"Module already has same address\");\n        Proposal storage p = proposedModules[_key];\n        require(p.timestamp == 0, \"Module already proposed\");\n\n        p.newAddress = _addr;\n        p.timestamp = now;\n        emit ModuleProposed(_key, _addr, now);\n    }\n\n    /**\n     * @dev Cancel a proposed module request\n     * @param _key Key of the module\n     */\n    function cancelProposedModule(bytes32 _key)\n        external\n        onlyGovernor\n    {\n        uint256 timestamp = proposedModules[_key].timestamp;\n        require(timestamp > 0, \"Proposed module not found\");\n\n        delete proposedModules[_key];\n        emit ModuleCancelled(_key);\n    }\n\n    /**\n     * @dev Accept and publish an already proposed module\n     * @param _key Key of the module\n     */\n    function acceptProposedModule(bytes32 _key)\n        external\n        onlyGovernor\n    {\n        _acceptProposedModule(_key);\n    }\n\n    /**\n     * @dev Accept and publish already proposed modules\n     * @param _keys Keys array of the modules\n     */\n    function acceptProposedModules(bytes32[] calldata _keys)\n        external\n        onlyGovernor\n    {\n        uint256 len = _keys.length;\n        require(len > 0, \"Keys array empty\");\n\n        for(uint256 i = 0 ; i < len; i++) {\n            _acceptProposedModule(_keys[i]);\n        }\n    }\n\n    /**\n     * @dev Accept a proposed module\n     * @param _key Key of the module\n     */\n    function _acceptProposedModule(bytes32 _key) internal {\n        Proposal memory p = proposedModules[_key];\n        require(_isDelayOver(p.timestamp), \"Module upgrade delay not over\");\n\n        delete proposedModules[_key];\n        _publishModule(_key, p.newAddress, false);\n    }\n\n    /**\n     * @dev Internal func to publish a module to kernel\n     * @param _key      Key of the new module in bytes32 form\n     * @param _addr     Contract address of the new module\n     * @param _isLocked Flag to lock a module\n     */\n    function _publishModule(bytes32 _key, address _addr, bool _isLocked) internal {\n        require(addressToModule[_addr] == bytes32(0x0), \"Modules must have unique addr\");\n        require(!modules[_key].isLocked, \"Module must be unlocked\");\n        // Old no longer points to a moduleAddress\n        address oldModuleAddr = modules[_key].addr;\n        if(oldModuleAddr != address(0x0)) {\n            addressToModule[oldModuleAddr] = bytes32(0x0);\n        }\n        modules[_key].addr = _addr;\n        modules[_key].isLocked = _isLocked;\n        addressToModule[_addr] = _key;\n        emit ModuleAdded(_key, _addr, _isLocked);\n    }\n\n    /***************************************\n                MODULE LOCKING\n    ****************************************/\n\n    /**\n     * @dev Request to lock an existing module\n     * @param _key Key of the module\n     */\n    function requestLockModule(bytes32 _key)\n        external\n        onlyGovernor\n    {\n        require(moduleExists(_key), \"Module must exist\");\n        require(!modules[_key].isLocked, \"Module must be unlocked\");\n        require(proposedLockModules[_key] == 0, \"Lock already proposed\");\n\n        proposedLockModules[_key] = now;\n        emit ModuleLockRequested(_key, now);\n    }\n\n    /**\n     * @dev Cancel a lock module request\n     * @param _key Key of the module\n     */\n    function cancelLockModule(bytes32 _key)\n        external\n        onlyGovernor\n    {\n        require(proposedLockModules[_key] > 0, \"Module lock request not found\");\n\n        delete proposedLockModules[_key];\n        emit ModuleLockCancelled(_key);\n    }\n\n    /**\n     * @dev Permanently lock a module to its current settings\n     * @param _key Bytes32 key of the module\n     */\n    function lockModule(bytes32 _key)\n        external\n        onlyGovernor\n    {\n        require(_isDelayOver(proposedLockModules[_key]), \"Delay not over\");\n\n        modules[_key].isLocked = true;\n        delete proposedLockModules[_key];\n        emit ModuleLockEnabled(_key);\n    }\n\n    /***************************************\n                HELPERS & GETTERS\n    ****************************************/\n\n    /**\n     * @dev Checks if a module exists\n     * @param _key  Key of the module\n     * @return      Returns 'true' when a module exists, otherwise 'false'\n     */\n    function moduleExists(bytes32 _key) public view returns (bool) {\n        if(_key != 0 && modules[_key].addr != address(0))\n            return true;\n        return false;\n    }\n\n    /**\n     * @dev Get the module address\n     * @param _key  Key of the module\n     * @return      Return the address of the module\n     */\n    function getModule(bytes32 _key) external view returns (address addr) {\n        addr = modules[_key].addr;\n    }\n\n    /**\n     * @dev Checks if upgrade delay over\n     * @param _timestamp    Timestamp to check\n     * @return              Return 'true' when delay is over, otherwise 'false'\n     */\n    function _isDelayOver(uint256 _timestamp) private view returns (bool) {\n        if(_timestamp > 0 && now >= _timestamp.add(UPGRADE_DELAY))\n            return true;\n        return false;\n    }\n}",
  "sourcePath": "/Volumes/sdxc/ETHEREUM/CODE/mStable-v1-edit/contracts/nexus/Nexus.sol",
  "compiler": {
    "name": "solc",
    "version": "0.5.16+commit.9c3226ce.Emscripten.clang"
  },
  "schemaVersion": "3.1.0",
  "updatedAt": "2021-03-11T05:43:15.867Z",
  "devdoc": {
    "author": "Stability Labs Pty. Ltd.",
    "details": "The Nexus is mStable's Kernel, and allows the publishing and propagating         of new system Modules. Other Modules will read from the Nexus",
    "methods": {
      "acceptProposedModule(bytes32)": {
        "details": "Accept and publish an already proposed module",
        "params": {
          "_key": "Key of the module"
        }
      },
      "acceptProposedModules(bytes32[])": {
        "details": "Accept and publish already proposed modules",
        "params": {
          "_keys": "Keys array of the modules"
        }
      },
      "cancelGovernorChange()": {
        "details": "Cancels an outstanding governor change request by resetting request time"
      },
      "cancelLockModule(bytes32)": {
        "details": "Cancel a lock module request",
        "params": {
          "_key": "Key of the module"
        }
      },
      "cancelProposedModule(bytes32)": {
        "details": "Cancel a proposed module request",
        "params": {
          "_key": "Key of the module"
        }
      },
      "claimGovernorChange()": {
        "details": "Proposed governor claims new position, callable after time elapsed"
      },
      "constructor": {
        "details": "Initialises the Nexus and adds the core data to the Kernel (itself and governor)",
        "params": {
          "_governorAddr": "Governor address"
        }
      },
      "getModule(bytes32)": {
        "details": "Get the module address",
        "params": {
          "_key": "Key of the module"
        },
        "return": "Return the address of the module"
      },
      "governor()": {
        "details": "Returns the address of the current Governor."
      },
      "initialize(bytes32[],address[],bool[],address)": {
        "details": "Adds multiple new modules to the system to initialize the     Nexus contract with default modules. This should be called first     after deploying Nexus contract.",
        "params": {
          "_addresses": "Contract addresses of the new modules",
          "_governorAddr": "New Governor address",
          "_isLocked": "IsLocked flag for the new modules",
          "_keys": "Keys of the new modules in bytes32 form"
        },
        "return": "bool         Success of publishing new Modules"
      },
      "isGovernor()": {
        "details": "Returns true if the caller is the current Governor."
      },
      "lockModule(bytes32)": {
        "details": "Permanently lock a module to its current settings",
        "params": {
          "_key": "Bytes32 key of the module"
        }
      },
      "moduleExists(bytes32)": {
        "details": "Checks if a module exists",
        "params": {
          "_key": "Key of the module"
        },
        "return": "Returns 'true' when a module exists, otherwise 'false'"
      },
      "proposeModule(bytes32,address)": {
        "details": "Propose a new or update existing module",
        "params": {
          "_addr": "Address of the module",
          "_key": "Key of the module"
        }
      },
      "requestGovernorChange(address)": {
        "details": "Requests change of governor and logs request time",
        "params": {
          "_proposedGovernor": "Address of the new governor"
        }
      },
      "requestLockModule(bytes32)": {
        "details": "Request to lock an existing module",
        "params": {
          "_key": "Key of the module"
        }
      }
    },
    "title": "Nexus"
  },
  "userdoc": {
    "methods": {},
    "notice": "Address provider and system kernel, also facilitates governance changes"
  }
}