{
  "contractName": "PlatformTokenVendor",
  "abi": [
    {
      "inputs": [
        {
          "internalType": "contract IERC20",
          "name": "_platformToken",
          "type": "address"
        }
      ],
      "payable": false,
      "stateMutability": "nonpayable",
      "type": "constructor"
    },
    {
      "constant": true,
      "inputs": [],
      "name": "parentStakingContract",
      "outputs": [
        {
          "internalType": "address",
          "name": "",
          "type": "address"
        }
      ],
      "payable": false,
      "stateMutability": "view",
      "type": "function"
    },
    {
      "constant": true,
      "inputs": [],
      "name": "platformToken",
      "outputs": [
        {
          "internalType": "contract IERC20",
          "name": "",
          "type": "address"
        }
      ],
      "payable": false,
      "stateMutability": "view",
      "type": "function"
    },
    {
      "constant": false,
      "inputs": [],
      "name": "reApproveOwner",
      "outputs": [],
      "payable": false,
      "stateMutability": "nonpayable",
      "type": "function"
    }
  ],
  "bytecode": "0x608060405234801561001057600080fd5b506040516108f53803806108f58339818101604052602081101561003357600080fd5b5051600180546001600160a01b0319908116331791829055600080546001600160a01b038086169190931617905561007b918391166100b8610081602090811b91909117901c565b506103ec565b6100a4816000846001600160a01b03166100cc60201b6100f3179092919060201c565b6100c881600019846001600160a01b03166100cc60201b6100f3179092919060201c565b5050565b801580610152575060408051636eb1769f60e11b81523060048201526001600160a01b03848116602483015291519185169163dd62ed3e91604480820192602092909190829003018186803b15801561012457600080fd5b505afa158015610138573d6000803e3d6000fd5b505050506040513d602081101561014e57600080fd5b5051155b61018d5760405162461bcd60e51b81526004018080602001828103825260368152602001806108bf6036913960400191505060405180910390fd5b604080516001600160a01b038416602482015260448082018490528251808303909101815260649091019091526020810180516001600160e01b0390811663095ea7b360e01b179091526101e39185916101e816565b505050565b610204826001600160a01b03166103b060201b6103c91760201c565b610255576040805162461bcd60e51b815260206004820152601f60248201527f5361666545524332303a2063616c6c20746f206e6f6e2d636f6e747261637400604482015290519081900360640190fd5b60006060836001600160a01b0316836040518082805190602001908083835b602083106102935780518252601f199092019160209182019101610274565b6001836020036101000a0380198251168184511680821785525050505050509050019150506000604051808303816000865af19150503d80600081146102f5576040519150601f19603f3d011682016040523d82523d6000602084013e6102fa565b606091505b509150915081610351576040805162461bcd60e51b815260206004820181905260248201527f5361666545524332303a206c6f772d6c6576656c2063616c6c206661696c6564604482015290519081900360640190fd5b8051156103aa5780806020019051602081101561036d57600080fd5b50516103aa5760405162461bcd60e51b815260040180806020018281038252602a815260200180610895602a913960400191505060405180910390fd5b50505050565b6000813f7fc5d2460186f7233c927e7db2dcc703c0e500b653ca82273b7bfad8045d85a4708181148015906103e457508115155b949350505050565b61049a806103fb6000396000f3fe608060405234801561001057600080fd5b50600436106100415760003560e01c8063488a49e314610046578063d1b812cd1461006a578063d8245bb914610072575b600080fd5b61004e61007c565b604080516001600160a01b039092168252519081900360200190f35b61004e61008b565b61007a61009a565b005b6001546001600160a01b031681565b6000546001600160a01b031681565b6000546001546100b6916001600160a01b0390811691166100b8565b565b6100d36001600160a01b03831682600063ffffffff6100f316565b6100ef6001600160a01b0383168260001963ffffffff6100f316565b5050565b801580610179575060408051636eb1769f60e11b81523060048201526001600160a01b03848116602483015291519185169163dd62ed3e91604480820192602092909190829003018186803b15801561014b57600080fd5b505afa15801561015f573d6000803e3d6000fd5b505050506040513d602081101561017557600080fd5b5051155b6101b45760405162461bcd60e51b81526004018080602001828103825260368152602001806104306036913960400191505060405180910390fd5b604080516001600160a01b038416602482015260448082018490528251808303909101815260649091019091526020810180516001600160e01b031663095ea7b360e01b17905261020690849061020b565b505050565b61021d826001600160a01b03166103c9565b61026e576040805162461bcd60e51b815260206004820152601f60248201527f5361666545524332303a2063616c6c20746f206e6f6e2d636f6e747261637400604482015290519081900360640190fd5b60006060836001600160a01b0316836040518082805190602001908083835b602083106102ac5780518252601f19909201916020918201910161028d565b6001836020036101000a0380198251168184511680821785525050505050509050019150506000604051808303816000865af19150503d806000811461030e576040519150601f19603f3d011682016040523d82523d6000602084013e610313565b606091505b50915091508161036a576040805162461bcd60e51b815260206004820181905260248201527f5361666545524332303a206c6f772d6c6576656c2063616c6c206661696c6564604482015290519081900360640190fd5b8051156103c35780806020019051602081101561038657600080fd5b50516103c35760405162461bcd60e51b815260040180806020018281038252602a815260200180610406602a913960400191505060405180910390fd5b50505050565b6000813f7fc5d2460186f7233c927e7db2dcc703c0e500b653ca82273b7bfad8045d85a4708181148015906103fd57508115155b94935050505056fe5361666545524332303a204552433230206f7065726174696f6e20646964206e6f7420737563636565645361666545524332303a20617070726f76652066726f6d206e6f6e2d7a65726f20746f206e6f6e2d7a65726f20616c6c6f77616e6365a265627a7a723158203ea36ec3f40de908a3ce1ae1551aed8d9231767d653cbfc8dc48b46baf2f49de64736f6c634300051000325361666545524332303a204552433230206f7065726174696f6e20646964206e6f7420737563636565645361666545524332303a20617070726f76652066726f6d206e6f6e2d7a65726f20746f206e6f6e2d7a65726f20616c6c6f77616e6365",
  "source": "pragma solidity 0.5.16;\n\nimport { IERC20 } from \"@openzeppelin/contracts/token/ERC20/SafeERC20.sol\";\nimport { MixHelpers } from \"../../mix/shared/MixHelpers.sol\";\n\n/**\n * @title  PlatformTokenVendor\n * @author Stability Labs Pty. Ltd.\n * @notice Stores platform tokens for distributing to StakingReward participants\n * @dev    Only deploy this during the constructor of a given StakingReward contract\n */\ncontract PlatformTokenVendor {\n\n    IERC20 public platformToken;\n    address public parentStakingContract;\n\n    /** @dev Simple constructor that stores the parent address */\n    constructor(IERC20 _platformToken) public {\n        parentStakingContract = msg.sender;\n        platformToken = _platformToken;\n        MixHelpers.safeInfiniteApprove(address(_platformToken), parentStakingContract);\n    }\n\n    /**\n     * @dev Re-approves the StakingReward contract to spend the platform token.\n     * Just incase for some reason approval has been reset.\n     */\n    function reApproveOwner() external {\n        MixHelpers.safeInfiniteApprove(address(platformToken), parentStakingContract);\n    }\n}\n",
  "sourcePath": "/Volumes/sdxc/ETHEREUM/CODE/mStable-v1-edit/contracts/rewards/staking/PlatformTokenVendor.sol",
  "compiler": {
    "name": "solc",
    "version": "0.5.16+commit.9c3226ce.Emscripten.clang"
  },
  "schemaVersion": "3.1.0",
  "updatedAt": "2021-03-11T05:43:15.929Z",
  "devdoc": {
    "author": "Stability Labs Pty. Ltd.",
    "details": "Only deploy this during the constructor of a given StakingReward contract",
    "methods": {
      "constructor": {
        "details": "Simple constructor that stores the parent address "
      },
      "reApproveOwner()": {
        "details": "Re-approves the StakingReward contract to spend the platform token. Just incase for some reason approval has been reset."
      }
    },
    "title": "PlatformTokenVendor"
  },
  "userdoc": {
    "methods": {},
    "notice": "Stores platform tokens for distributing to StakingReward participants"
  }
}