{
  "contractName": "SavingsContract",
  "abi": [
    {
      "anonymous": false,
      "inputs": [
        {
          "indexed": true,
          "internalType": "address",
          "name": "owner",
          "type": "address"
        },
        {
          "indexed": true,
          "internalType": "address",
          "name": "spender",
          "type": "address"
        },
        {
          "indexed": false,
          "internalType": "uint256",
          "name": "value",
          "type": "uint256"
        }
      ],
      "name": "Approval",
      "type": "event"
    },
    {
      "anonymous": false,
      "inputs": [
        {
          "indexed": false,
          "internalType": "bool",
          "name": "automationEnabled",
          "type": "bool"
        }
      ],
      "name": "AutomaticInterestCollectionSwitched",
      "type": "event"
    },
    {
      "anonymous": false,
      "inputs": [
        {
          "indexed": false,
          "internalType": "address",
          "name": "connector",
          "type": "address"
        }
      ],
      "name": "ConnectorUpdated",
      "type": "event"
    },
    {
      "anonymous": false,
      "inputs": [
        {
          "indexed": true,
          "internalType": "address",
          "name": "redeemer",
          "type": "address"
        },
        {
          "indexed": false,
          "internalType": "uint256",
          "name": "creditsRedeemed",
          "type": "uint256"
        },
        {
          "indexed": false,
          "internalType": "uint256",
          "name": "savingsCredited",
          "type": "uint256"
        }
      ],
      "name": "CreditsRedeemed",
      "type": "event"
    },
    {
      "anonymous": false,
      "inputs": [],
      "name": "EmergencyUpdate",
      "type": "event"
    },
    {
      "anonymous": false,
      "inputs": [
        {
          "indexed": false,
          "internalType": "uint256",
          "name": "newExchangeRate",
          "type": "uint256"
        },
        {
          "indexed": false,
          "internalType": "uint256",
          "name": "interestCollected",
          "type": "uint256"
        }
      ],
      "name": "ExchangeRateUpdated",
      "type": "event"
    },
    {
      "anonymous": false,
      "inputs": [
        {
          "indexed": false,
          "internalType": "uint256",
          "name": "fraction",
          "type": "uint256"
        }
      ],
      "name": "FractionUpdated",
      "type": "event"
    },
    {
      "anonymous": false,
      "inputs": [
        {
          "indexed": false,
          "internalType": "uint256",
          "name": "oldBalance",
          "type": "uint256"
        },
        {
          "indexed": false,
          "internalType": "uint256",
          "name": "newBalance",
          "type": "uint256"
        },
        {
          "indexed": false,
          "internalType": "uint256",
          "name": "interestDetected",
          "type": "uint256"
        }
      ],
      "name": "Poked",
      "type": "event"
    },
    {
      "anonymous": false,
      "inputs": [],
      "name": "PokedRaw",
      "type": "event"
    },
    {
      "anonymous": false,
      "inputs": [
        {
          "indexed": false,
          "internalType": "address",
          "name": "poker",
          "type": "address"
        }
      ],
      "name": "PokerUpdated",
      "type": "event"
    },
    {
      "anonymous": false,
      "inputs": [
        {
          "indexed": true,
          "internalType": "address",
          "name": "saver",
          "type": "address"
        },
        {
          "indexed": false,
          "internalType": "uint256",
          "name": "savingsDeposited",
          "type": "uint256"
        },
        {
          "indexed": false,
          "internalType": "uint256",
          "name": "creditsIssued",
          "type": "uint256"
        }
      ],
      "name": "SavingsDeposited",
      "type": "event"
    },
    {
      "anonymous": false,
      "inputs": [
        {
          "indexed": true,
          "internalType": "address",
          "name": "from",
          "type": "address"
        },
        {
          "indexed": true,
          "internalType": "address",
          "name": "to",
          "type": "address"
        },
        {
          "indexed": false,
          "internalType": "uint256",
          "name": "value",
          "type": "uint256"
        }
      ],
      "name": "Transfer",
      "type": "event"
    },
    {
      "constant": true,
      "inputs": [
        {
          "internalType": "address",
          "name": "owner",
          "type": "address"
        },
        {
          "internalType": "address",
          "name": "spender",
          "type": "address"
        }
      ],
      "name": "allowance",
      "outputs": [
        {
          "internalType": "uint256",
          "name": "",
          "type": "uint256"
        }
      ],
      "payable": false,
      "stateMutability": "view",
      "type": "function"
    },
    {
      "constant": false,
      "inputs": [
        {
          "internalType": "address",
          "name": "spender",
          "type": "address"
        },
        {
          "internalType": "uint256",
          "name": "amount",
          "type": "uint256"
        }
      ],
      "name": "approve",
      "outputs": [
        {
          "internalType": "bool",
          "name": "",
          "type": "bool"
        }
      ],
      "payable": false,
      "stateMutability": "nonpayable",
      "type": "function"
    },
    {
      "constant": true,
      "inputs": [
        {
          "internalType": "address",
          "name": "account",
          "type": "address"
        }
      ],
      "name": "balanceOf",
      "outputs": [
        {
          "internalType": "uint256",
          "name": "",
          "type": "uint256"
        }
      ],
      "payable": false,
      "stateMutability": "view",
      "type": "function"
    },
    {
      "constant": true,
      "inputs": [],
      "name": "connector",
      "outputs": [
        {
          "internalType": "contract IConnector",
          "name": "",
          "type": "address"
        }
      ],
      "payable": false,
      "stateMutability": "view",
      "type": "function"
    },
    {
      "constant": true,
      "inputs": [],
      "name": "decimals",
      "outputs": [
        {
          "internalType": "uint8",
          "name": "",
          "type": "uint8"
        }
      ],
      "payable": false,
      "stateMutability": "view",
      "type": "function"
    },
    {
      "constant": false,
      "inputs": [
        {
          "internalType": "address",
          "name": "spender",
          "type": "address"
        },
        {
          "internalType": "uint256",
          "name": "subtractedValue",
          "type": "uint256"
        }
      ],
      "name": "decreaseAllowance",
      "outputs": [
        {
          "internalType": "bool",
          "name": "",
          "type": "bool"
        }
      ],
      "payable": false,
      "stateMutability": "nonpayable",
      "type": "function"
    },
    {
      "constant": true,
      "inputs": [],
      "name": "exchangeRate",
      "outputs": [
        {
          "internalType": "uint256",
          "name": "",
          "type": "uint256"
        }
      ],
      "payable": false,
      "stateMutability": "view",
      "type": "function"
    },
    {
      "constant": true,
      "inputs": [],
      "name": "fraction",
      "outputs": [
        {
          "internalType": "uint256",
          "name": "",
          "type": "uint256"
        }
      ],
      "payable": false,
      "stateMutability": "view",
      "type": "function"
    },
    {
      "constant": false,
      "inputs": [
        {
          "internalType": "address",
          "name": "spender",
          "type": "address"
        },
        {
          "internalType": "uint256",
          "name": "addedValue",
          "type": "uint256"
        }
      ],
      "name": "increaseAllowance",
      "outputs": [
        {
          "internalType": "bool",
          "name": "",
          "type": "bool"
        }
      ],
      "payable": false,
      "stateMutability": "nonpayable",
      "type": "function"
    },
    {
      "constant": true,
      "inputs": [],
      "name": "lastBalance",
      "outputs": [
        {
          "internalType": "uint256",
          "name": "",
          "type": "uint256"
        }
      ],
      "payable": false,
      "stateMutability": "view",
      "type": "function"
    },
    {
      "constant": true,
      "inputs": [],
      "name": "lastPoke",
      "outputs": [
        {
          "internalType": "uint256",
          "name": "",
          "type": "uint256"
        }
      ],
      "payable": false,
      "stateMutability": "view",
      "type": "function"
    },
    {
      "constant": true,
      "inputs": [],
      "name": "name",
      "outputs": [
        {
          "internalType": "string",
          "name": "",
          "type": "string"
        }
      ],
      "payable": false,
      "stateMutability": "view",
      "type": "function"
    },
    {
      "constant": true,
      "inputs": [],
      "name": "nexus",
      "outputs": [
        {
          "internalType": "contract INexus",
          "name": "",
          "type": "address"
        }
      ],
      "payable": false,
      "stateMutability": "view",
      "type": "function"
    },
    {
      "constant": true,
      "inputs": [],
      "name": "poker",
      "outputs": [
        {
          "internalType": "address",
          "name": "",
          "type": "address"
        }
      ],
      "payable": false,
      "stateMutability": "view",
      "type": "function"
    },
    {
      "constant": true,
      "inputs": [],
      "name": "symbol",
      "outputs": [
        {
          "internalType": "string",
          "name": "",
          "type": "string"
        }
      ],
      "payable": false,
      "stateMutability": "view",
      "type": "function"
    },
    {
      "constant": true,
      "inputs": [],
      "name": "totalSupply",
      "outputs": [
        {
          "internalType": "uint256",
          "name": "",
          "type": "uint256"
        }
      ],
      "payable": false,
      "stateMutability": "view",
      "type": "function"
    },
    {
      "constant": false,
      "inputs": [
        {
          "internalType": "address",
          "name": "recipient",
          "type": "address"
        },
        {
          "internalType": "uint256",
          "name": "amount",
          "type": "uint256"
        }
      ],
      "name": "transfer",
      "outputs": [
        {
          "internalType": "bool",
          "name": "",
          "type": "bool"
        }
      ],
      "payable": false,
      "stateMutability": "nonpayable",
      "type": "function"
    },
    {
      "constant": false,
      "inputs": [
        {
          "internalType": "address",
          "name": "sender",
          "type": "address"
        },
        {
          "internalType": "address",
          "name": "recipient",
          "type": "address"
        },
        {
          "internalType": "uint256",
          "name": "amount",
          "type": "uint256"
        }
      ],
      "name": "transferFrom",
      "outputs": [
        {
          "internalType": "bool",
          "name": "",
          "type": "bool"
        }
      ],
      "payable": false,
      "stateMutability": "nonpayable",
      "type": "function"
    },
    {
      "constant": true,
      "inputs": [],
      "name": "underlying",
      "outputs": [
        {
          "internalType": "contract IERC20",
          "name": "",
          "type": "address"
        }
      ],
      "payable": false,
      "stateMutability": "view",
      "type": "function"
    },
    {
      "constant": false,
      "inputs": [
        {
          "internalType": "address",
          "name": "_nexus",
          "type": "address"
        },
        {
          "internalType": "address",
          "name": "_poker",
          "type": "address"
        },
        {
          "internalType": "contract IERC20",
          "name": "_underlying",
          "type": "address"
        },
        {
          "internalType": "string",
          "name": "_nameArg",
          "type": "string"
        },
        {
          "internalType": "string",
          "name": "_symbolArg",
          "type": "string"
        }
      ],
      "name": "initialize",
      "outputs": [],
      "payable": false,
      "stateMutability": "nonpayable",
      "type": "function"
    },
    {
      "constant": true,
      "inputs": [
        {
          "internalType": "address",
          "name": "_user",
          "type": "address"
        }
      ],
      "name": "balanceOfUnderlying",
      "outputs": [
        {
          "internalType": "uint256",
          "name": "balance",
          "type": "uint256"
        }
      ],
      "payable": false,
      "stateMutability": "view",
      "type": "function"
    },
    {
      "constant": true,
      "inputs": [
        {
          "internalType": "uint256",
          "name": "_underlying",
          "type": "uint256"
        }
      ],
      "name": "underlyingToCredits",
      "outputs": [
        {
          "internalType": "uint256",
          "name": "credits",
          "type": "uint256"
        }
      ],
      "payable": false,
      "stateMutability": "view",
      "type": "function"
    },
    {
      "constant": true,
      "inputs": [
        {
          "internalType": "uint256",
          "name": "_credits",
          "type": "uint256"
        }
      ],
      "name": "creditsToUnderlying",
      "outputs": [
        {
          "internalType": "uint256",
          "name": "amount",
          "type": "uint256"
        }
      ],
      "payable": false,
      "stateMutability": "view",
      "type": "function"
    },
    {
      "constant": true,
      "inputs": [
        {
          "internalType": "address",
          "name": "_user",
          "type": "address"
        }
      ],
      "name": "creditBalances",
      "outputs": [
        {
          "internalType": "uint256",
          "name": "",
          "type": "uint256"
        }
      ],
      "payable": false,
      "stateMutability": "view",
      "type": "function"
    },
    {
      "constant": false,
      "inputs": [
        {
          "internalType": "uint256",
          "name": "_amount",
          "type": "uint256"
        }
      ],
      "name": "depositInterest",
      "outputs": [],
      "payable": false,
      "stateMutability": "nonpayable",
      "type": "function"
    },
    {
      "constant": false,
      "inputs": [
        {
          "internalType": "bool",
          "name": "_enabled",
          "type": "bool"
        }
      ],
      "name": "automateInterestCollectionFlag",
      "outputs": [],
      "payable": false,
      "stateMutability": "nonpayable",
      "type": "function"
    },
    {
      "constant": false,
      "inputs": [
        {
          "internalType": "uint256",
          "name": "_underlying",
          "type": "uint256"
        },
        {
          "internalType": "address",
          "name": "_beneficiary",
          "type": "address"
        }
      ],
      "name": "preDeposit",
      "outputs": [
        {
          "internalType": "uint256",
          "name": "creditsIssued",
          "type": "uint256"
        }
      ],
      "payable": false,
      "stateMutability": "nonpayable",
      "type": "function"
    },
    {
      "constant": false,
      "inputs": [
        {
          "internalType": "uint256",
          "name": "_underlying",
          "type": "uint256"
        },
        {
          "internalType": "address",
          "name": "_beneficiary",
          "type": "address"
        }
      ],
      "name": "depositSavings",
      "outputs": [
        {
          "internalType": "uint256",
          "name": "creditsIssued",
          "type": "uint256"
        }
      ],
      "payable": false,
      "stateMutability": "nonpayable",
      "type": "function"
    },
    {
      "constant": false,
      "inputs": [
        {
          "internalType": "uint256",
          "name": "_underlying",
          "type": "uint256"
        }
      ],
      "name": "depositSavings",
      "outputs": [
        {
          "internalType": "uint256",
          "name": "creditsIssued",
          "type": "uint256"
        }
      ],
      "payable": false,
      "stateMutability": "nonpayable",
      "type": "function"
    },
    {
      "constant": false,
      "inputs": [
        {
          "internalType": "uint256",
          "name": "_credits",
          "type": "uint256"
        }
      ],
      "name": "redeem",
      "outputs": [
        {
          "internalType": "uint256",
          "name": "mixReturned",
          "type": "uint256"
        }
      ],
      "payable": false,
      "stateMutability": "nonpayable",
      "type": "function"
    },
    {
      "constant": false,
      "inputs": [
        {
          "internalType": "uint256",
          "name": "_credits",
          "type": "uint256"
        }
      ],
      "name": "redeemCredits",
      "outputs": [
        {
          "internalType": "uint256",
          "name": "mixReturned",
          "type": "uint256"
        }
      ],
      "payable": false,
      "stateMutability": "nonpayable",
      "type": "function"
    },
    {
      "constant": false,
      "inputs": [
        {
          "internalType": "uint256",
          "name": "_underlying",
          "type": "uint256"
        }
      ],
      "name": "redeemUnderlying",
      "outputs": [
        {
          "internalType": "uint256",
          "name": "creditsBurned",
          "type": "uint256"
        }
      ],
      "payable": false,
      "stateMutability": "nonpayable",
      "type": "function"
    },
    {
      "constant": false,
      "inputs": [],
      "name": "poke",
      "outputs": [],
      "payable": false,
      "stateMutability": "nonpayable",
      "type": "function"
    },
    {
      "constant": false,
      "inputs": [
        {
          "internalType": "address",
          "name": "_newPoker",
          "type": "address"
        }
      ],
      "name": "setPoker",
      "outputs": [],
      "payable": false,
      "stateMutability": "nonpayable",
      "type": "function"
    },
    {
      "constant": false,
      "inputs": [
        {
          "internalType": "uint256",
          "name": "_fraction",
          "type": "uint256"
        }
      ],
      "name": "setFraction",
      "outputs": [],
      "payable": false,
      "stateMutability": "nonpayable",
      "type": "function"
    },
    {
      "constant": false,
      "inputs": [
        {
          "internalType": "address",
          "name": "_newConnector",
          "type": "address"
        }
      ],
      "name": "setConnector",
      "outputs": [],
      "payable": false,
      "stateMutability": "nonpayable",
      "type": "function"
    },
    {
      "constant": false,
      "inputs": [
        {
          "internalType": "uint256",
          "name": "_withdrawAmount",
          "type": "uint256"
        }
      ],
      "name": "emergencyWithdraw",
      "outputs": [],
      "payable": false,
      "stateMutability": "nonpayable",
      "type": "function"
    }
  ],
  "bytecode": "0x6080604052613194806100136000396000f3fe608060405234801561001057600080fd5b50600436106102265760003560e01c80636f307dc311610130578063a453b6cf116100b8578063cbe541731161007c578063cbe54173146106fb578063d8894bb51461071a578063db006a7514610722578063dd62ed3e1461073f578063f4430dd81461076d57610226565b8063a453b6cf14610661578063a457c2d71461067e578063a9059cbb146106aa578063c4ec22ad146106d6578063c9f18ebd146106de57610226565b806383f3084f116100ff57806383f3084f14610624578063852a12e31461062c5780638f1c56bd1461064957806395d89b4114610651578063a3f5c1d21461065957610226565b80636f307dc3146104f657806370a08231146104fe5780637781b05a1461052457806383b435891461054157610226565b8063313ce567116101b357806343e38da81161018257806343e38da8146104465780634b6bdf1d146104635780635312ea8e14610487578063590745c5146104a45780636009a2d8146104d057610226565b8063313ce567146103ce57806339509351146103ec5780633af9e669146104185780633ba0b9a91461043e57610226565b806318160ddd116101fa57806318160ddd1461034e5780631817835814610356578063182815b01461035e578063220c5bbb1461037b57806323b872dd1461039857610226565b80625745991461022b57806306fdde0314610269578063095ea7b3146102e657806310188aef14610326575b600080fd5b6102576004803603604081101561024157600080fd5b50803590602001356001600160a01b0316610793565b60408051918252519081900360200190f35b6102716107f2565b6040805160208082528351818301528351919283929083019185019080838360005b838110156102ab578181015183820152602001610293565b50505050905090810190601f1680156102d85780820380516001836020036101000a031916815260200191505b509250505060405180910390f35b610312600480360360408110156102fc57600080fd5b506001600160a01b038135169060200135610889565b604080519115158252519081900360200190f35b61034c6004803603602081101561033c57600080fd5b50356001600160a01b03166108a6565b005b61025761099b565b61034c6109a1565b61034c6004803603602081101561037457600080fd5b5035610a19565b61034c6004803603602081101561039157600080fd5b5035610b2a565b610312600480360360608110156103ae57600080fd5b506001600160a01b03813581169160208101359091169060400135610d37565b6103d6610dc4565b6040805160ff9092168252519081900360200190f35b6103126004803603604081101561040257600080fd5b506001600160a01b038135169060200135610dcd565b6102576004803603602081101561042e57600080fd5b50356001600160a01b0316610e21565b610257610e3b565b6102576004803603602081101561045c57600080fd5b5035610e41565b61046b610e4c565b604080516001600160a01b039092168252519081900360200190f35b61034c6004803603602081101561049d57600080fd5b5035610e5b565b610257600480360360408110156104ba57600080fd5b50803590602001356001600160a01b0316610feb565b610257600480360360208110156104e657600080fd5b50356001600160a01b0316610ff9565b61046b611004565b6102576004803603602081101561051457600080fd5b50356001600160a01b0316611013565b6102576004803603602081101561053a57600080fd5b503561102e565b61034c600480360360a081101561055757600080fd5b6001600160a01b038235811692602081013582169260408201359092169181019060808101606082013564010000000081111561059357600080fd5b8201836020820111156105a557600080fd5b803590602001918460018302840111640100000000831117156105c757600080fd5b9193909290916020810190356401000000008111156105e557600080fd5b8201836020820111156105f757600080fd5b8035906020019184600183028401116401000000008311171561061957600080fd5b509092509050611039565b61046b611262565b6102576004803603602081101561064257600080fd5b5035611271565b61025761139a565b6102716113a0565b61046b611401565b6102576004803603602081101561067757600080fd5b5035611415565b6103126004803603604081101561069457600080fd5b506001600160a01b038135169060200135611423565b610312600480360360408110156106c057600080fd5b506001600160a01b038135169060200135611491565b6102576114a5565b610257600480360360208110156106f457600080fd5b50356114ab565b61034c6004803603602081101561071157600080fd5b50351515611592565b610257611640565b6102576004803603602081101561073857600080fd5b5035611646565b6102576004803603604081101561075557600080fd5b506001600160a01b038135811691602001351661172f565b61034c6004803603602081101561078357600080fd5b50356001600160a01b031661175a565b600067016345785d8a0000603954146107dd5760405162461bcd60e51b8152600401808060200182810382526030815260200180612f466030913960400191505060405180910390fd5b6107e983836000611870565b90505b92915050565b60368054604080516020601f600260001961010060018816150201909516949094049384018190048102820181019092528281526060939092909183018282801561087e5780601f106108535761010080835404028352916020019161087e565b820191906000526020600020905b81548152906001019060200180831161086157829003601f168201915b505050505090505b90565b600061089d610896611acd565b8484611ad1565b50600192915050565b6108ae611bbd565b6001600160a01b0316336001600160a01b031614610901576040805162461bcd60e51b8152602060048201526019602482015260008051602061300d833981519152604482015290519081900360640190fd5b610909612e4f565b610911611c3e565b600081529050610922816001611ce8565b61092a612e4f565b610932611c3e565b603f80546001600160a01b0319166001600160a01b038616179055905061095a816001611ce8565b604080516001600160a01b038516815290517fa69fcd183e7a93ec06820fdd33d015efbd84f4363ecd4c0ca0405c1220888a129181900360200190a1505050565b60355490565b603b546001600160a01b031633146109f9576040805162461bcd60e51b81526020600482015260166024820152754f6e6c7920706f6b65722063616e206578656375746560501b604482015290519081900360640190fd5b610a01612e4f565b610a09611c3e565b9050610a16816000611ce8565b50565b610a21611bbd565b6001600160a01b0316336001600160a01b031614610a74576040805162461bcd60e51b8152602060048201526019602482015260008051602061300d833981519152604482015290519081900360640190fd5b6706f05b59d3b20000811115610ad1576040805162461bcd60e51b815260206004820152601760248201527f4672616374696f6e206d757374206265203c3d20353025000000000000000000604482015290519081900360640190fd5b603e819055610ade612e4f565b610ae6611c3e565b9050610af3816001611ce8565b6040805183815290517f9e73ab667f43467c2a324114c461b2bd6fcf80f8e92918085a459d67438d62f39181900360200190a15050565b610b3261229f565b6001600160a01b0316336001600160a01b031614610b97576040805162461bcd60e51b815260206004820181905260248201527f4f6e6c7920736176696e6773206d616e616765722063616e2065786563757465604482015290519081900360640190fd5b60008111610be5576040805162461bcd60e51b81526020600482015260166024820152754d757374206465706f73697420736f6d657468696e6760501b604482015290519081900360640190fd5b603a54604080516323b872dd60e01b81523360048201523060248201526044810184905290516001600160a01b03909216916323b872dd916064808201926020929091908290030181600087803b158015610c3f57600080fd5b505af1158015610c53573d6000803e3d6000fd5b505050506040513d6020811015610c6957600080fd5b5051610cb2576040805162461bcd60e51b81526020600482015260136024820152724d757374207265636569766520746f6b656e7360681b604482015290519081900360640190fd5b6000610cbc61099b565b90508015610d33576000610ccf8261230f565b5090506000610ced610ce7838663ffffffff61232c16565b84612386565b6039819055604080518281526020810187905281519293507fc8d1043f24843c0a1c9251fdc30017d84e87498fbcf232af9f86816b5e182bde929081900390910190a150505b5050565b6000610d448484846123a9565b610dba84610d50611acd565b610db58560405180606001604052806028815260200161304e602891396001600160a01b038a16600090815260346020526040812090610d8e611acd565b6001600160a01b03168152602081019190915260400160002054919063ffffffff61250716565b611ad1565b5060019392505050565b60385460ff1690565b600061089d610dda611acd565b84610db58560346000610deb611acd565b6001600160a01b03908116825260208083019390935260409182016000908120918c16815292529020549063ffffffff61232c16565b6000610e34610e2f83611013565b61230f565b5092915050565b60395481565b6000610e348261259e565b603b546001600160a01b031681565b610e63611bbd565b6001600160a01b0316336001600160a01b031614610eb6576040805162461bcd60e51b8152602060048201526019602482015260008051602061300d833981519152604482015290519081900360640190fd5b603f5460408051632e1a7d4d60e01b81526004810184905290516001600160a01b0390921691632e1a7d4d9160248082019260009290919082900301818387803b158015610f0357600080fd5b505af1158015610f17573d6000803e3d6000fd5b5050603f80546001600160a01b03191690555050604080516000815290517fa69fcd183e7a93ec06820fdd33d015efbd84f4363ecd4c0ca0405c1220888a129181900360200190a16000603e81905560408051918252517f9e73ab667f43467c2a324114c461b2bd6fcf80f8e92918085a459d67438d62f39181900360200190a1610fa0612e4f565b610fa8611c3e565b9050610fbe8160200151826040015160016125c5565b6040517f834278d829ecf99d9ab0d75d6bdda3ed701c4ed9675f560e8f03de69240be76490600090a15050565b60006107e983836001611870565b60006107ec82611013565b603a546001600160a01b031681565b6001600160a01b031660009081526033602052604090205490565b6000610e348261230f565b600054610100900460ff168061105257506110526126a2565b80611060575060005460ff16155b61109b5760405162461bcd60e51b815260040180806020018281038252602e815260200180613076602e913960400191505060405180910390fd5b600054610100900460ff161580156110c6576000805460ff1961ff0019909116610100171660011790555b61113985858080601f01602080910402602001604051908101604052809392919081815260200183838082843760009201919091525050604080516020601f890181900481028201810190925287815292508791508690819084018382808284376000920191909152506126a892505050565b611142886126b4565b6001600160a01b038616611193576040805162461bcd60e51b81526020600482015260136024820152726d49782061646472657373206973207a65726f60681b604482015290519081900360640190fd5b603a80546001600160a01b0319166001600160a01b038881169190911790915587166111fe576040805162461bcd60e51b8152602060048201526015602482015274496e76616c696420706f6b6572206164647265737360581b604482015290519081900360640190fd5b603b80546001600160a01b0389166001600160a01b03199091161790556702c68af0bb140000603e55603a805460ff60a01b1916600160a01b17905567016345785d8a00006039558015611258576000805461ff00191690555b5050505050505050565b603f546001600160a01b031681565b60008082116112c1576040805162461bcd60e51b81526020600482015260176024820152764d75737420776974686472617720736f6d657468696e6760481b604482015290519081900360640190fd5b603a54600160a01b900460ff1615611343576112db61229f565b603a5460408051636515eff360e11b81526001600160a01b0392831660048201529051929091169163ca2bdfe69160248082019260009290919082900301818387803b15801561132a57600080fd5b505af115801561133e573d6000803e3d6000fd5b505050505b60008061135184600061272f565b91509150838114610e34576040805162461bcd60e51b815260206004820152600e60248201526d125b9d985b1a59081bdd5d1c1d5d60921b604482015290519081900360640190fd5b603d5481565b60378054604080516020601f600260001961010060018816150201909516949094049384018190048102820181019092528281526060939092909183018282801561087e5780601f106108535761010080835404028352916020019161087e565b60385461010090046001600160a01b031681565b60006107ec82336001611870565b600061089d611430611acd565b84610db58560405180606001604052806025815260200161313b602591396034600061145a611acd565b6001600160a01b03908116825260208083019390935260409182016000908120918d1681529252902054919063ffffffff61250716565b600061089d61149e611acd565b84846123a9565b603c5481565b60008082116114fb576040805162461bcd60e51b81526020600482015260176024820152764d75737420776974686472617720736f6d657468696e6760481b604482015290519081900360640190fd5b603a54600160a01b900460ff161561157d5761151561229f565b603a5460408051636515eff360e11b81526001600160a01b0392831660048201529051929091169163ca2bdfe69160248082019260009290919082900301818387803b15801561156457600080fd5b505af1158015611578573d6000803e3d6000fd5b505050505b600061158a83600161272f565b949350505050565b61159a611bbd565b6001600160a01b0316336001600160a01b0316146115ed576040805162461bcd60e51b8152602060048201526019602482015260008051602061300d833981519152604482015290519081900360640190fd5b603a8054821515600160a01b810260ff60a01b199092169190911790915560408051918252517fb9fdedbd8818c7929701eadc08c748a262fb39d9237b27537ae1809061e305f69181900360200190a150565b603e5481565b6000808211611696576040805162461bcd60e51b81526020600482015260176024820152764d75737420776974686472617720736f6d657468696e6760481b604482015290519081900360640190fd5b60006116a383600161272f565b603a54909250600160a01b900460ff161590506107ec576116c261229f565b603a5460408051636515eff360e11b81526001600160a01b0392831660048201529051929091169163ca2bdfe69160248082019260009290919082900301818387803b15801561171157600080fd5b505af1158015611725573d6000803e3d6000fd5b5050505092915050565b6001600160a01b03918216600090815260346020908152604080832093909416825291909152205490565b611762611bbd565b6001600160a01b0316336001600160a01b0316146117b5576040805162461bcd60e51b8152602060048201526019602482015260008051602061300d833981519152604482015290519081900360640190fd5b6001600160a01b038116158015906117db5750603b546001600160a01b03828116911614155b61181c576040805162461bcd60e51b815260206004820152600d60248201526c24b73b30b634b2103837b5b2b960991b604482015290519081900360640190fd5b603b80546001600160a01b0383166001600160a01b0319909116811790915560408051918252517f4324a90fd94048b85fa5a72fb447d1313da0a602723a297a1a550e910004aef49181900360200190a150565b60008084116118bf576040805162461bcd60e51b81526020600482015260166024820152754d757374206465706f73697420736f6d657468696e6760501b604482015290519081900360640190fd5b6001600160a01b03831661191a576040805162461bcd60e51b815260206004820152601b60248201527f496e76616c69642062656e656669636961727920616464726573730000000000604482015290519081900360640190fd5b603a546001600160a01b031682156119a45761193461229f565b6001600160a01b031663ca2bdfe6826040518263ffffffff1660e01b815260040180826001600160a01b03166001600160a01b03168152602001915050600060405180830381600087803b15801561198b57600080fd5b505af115801561199f573d6000803e3d6000fd5b505050505b604080516323b872dd60e01b81523360048201523060248201526044810187905290516001600160a01b038316916323b872dd9160648083019260209291908290030181600087803b1580156119f957600080fd5b505af1158015611a0d573d6000803e3d6000fd5b505050506040513d6020811015611a2357600080fd5b5051611a6c576040805162461bcd60e51b81526020600482015260136024820152724d757374207265636569766520746f6b656e7360681b604482015290519081900360640190fd5b611a758561259e565b509150611a8284836128bd565b604080518681526020810184905281516001600160a01b038716927f1a96ef469e332471886959f90a71ae924792a05ad7eea4e43a1c29becdf238ed928290030190a2509392505050565b3390565b6001600160a01b038316611b165760405162461bcd60e51b81526004018080602001828103825260248152602001806131176024913960400191505060405180910390fd5b6001600160a01b038216611b5b5760405162461bcd60e51b8152600401808060200182810382526022815260200180612f986022913960400191505060405180910390fd5b6001600160a01b03808416600081815260346020908152604080832094871680845294825291829020859055815185815291517f8c5be1e5ebec7d5bd14f71427d1e84f3dd0314c0f7b2291e5b200ac8c7c3b9259281900390910190a3505050565b6000603860019054906101000a90046001600160a01b03166001600160a01b0316630c340a246040518163ffffffff1660e01b815260040160206040518083038186803b158015611c0d57600080fd5b505afa158015611c21573d6000803e3d6000fd5b505050506040513d6020811015611c3757600080fd5b5051905090565b611c46612e4f565b603a54604080516370a0823160e01b815230600482015290516000926001600160a01b0316916370a08231916024808301926020929190829003018186803b158015611c9157600080fd5b505afa158015611ca5573d6000803e3d6000fd5b505050506040513d6020811015611cbb57600080fd5b505160408051606081018252603e548152602081018390529192508101611ce061099b565b905291505090565b6000826040015111611d41576040805162461bcd60e51b815260206004820152601b60248201527f4d757374206861766520736f6d657468696e6720746f20706f6b650000000000604482015290519081900360640190fd5b603c544290600090611d5a90839063ffffffff6129af16565b90508280611d69575061384081115b611dba576040805162461bcd60e51b815260206004820152601760248201527f4e6f7420656e6f7567682074696d6520656c6170736564000000000000000000604482015290519081900360640190fd5b603c829055603f546001600160a01b03168015612254576000603d5490506000826001600160a01b031663c71daccb6040518163ffffffff1660e01b815260040160206040518083038186803b158015611e1357600080fd5b505afa158015611e27573d6000803e3d6000fd5b505050506040513d6020811015611e3d57600080fd5b5051905081811015611e86576040805162461bcd60e51b815260206004820152600d60248201526c125b9d985b1a59081e5a595b19609a1b604482015290519081900360640190fd5b8015611ea857611ea681611ea0818563ffffffff6129af16565b866129f1565b505b6020870151600090611ec0908363ffffffff61232c16565b8851909150600090611ed990839063ffffffff612af816565b905082811115611fdf576000611ef5828563ffffffff6129af16565b603a546040805163095ea7b360e01b81526001600160a01b038a8116600483015260248201859052915193945091169163095ea7b3916044808201926020929091908290030181600087803b158015611f4d57600080fd5b505af1158015611f61573d6000803e3d6000fd5b505050506040513d6020811015611f7757600080fd5b50506040805163b6b55f2560e01b81526004810183905290516001600160a01b0388169163b6b55f2591602480830192600092919082900301818387803b158015611fc157600080fd5b505af1158015611fd5573d6000803e3d6000fd5b505050505061212b565b8083111561212b57806120bd57846001600160a01b031663853828b66040518163ffffffff1660e01b8152600401600060405180830381600087803b15801561202757600080fd5b505af115801561203b573d6000803e3d6000fd5b5050603a54604080516370a0823160e01b815230600482015290516001600160a01b0390921693506370a082319250602480820192602092909190829003018186803b15801561208a57600080fd5b505afa15801561209e573d6000803e3d6000fd5b505050506040513d60208110156120b457600080fd5b5051915061212b565b6001600160a01b038516632e1a7d4d6120dc858463ffffffff6129af16565b6040518263ffffffff1660e01b815260040180828152602001915050600060405180830381600087803b15801561211257600080fd5b505af1158015612126573d6000803e3d6000fd5b505050505b80856001600160a01b031663c71daccb6040518163ffffffff1660e01b815260040160206040518083038186803b15801561216557600080fd5b505afa158015612179573d6000803e3d6000fd5b505050506040513d602081101561218f57600080fd5b505110156121e4576040805162461bcd60e51b815260206004820152601860248201527f456e666f7263652073797374656d20696e76617269616e740000000000000000604482015290519081900360640190fd5b80603d819055506121fb828a6040015160006125c5565b7fd68aa1501d765a03d8e4d6897e6ad6719d0c4aef69497be7f0b3471d1fe8fcb6848261222e868363ffffffff6129af16565b60408051938452602084019290925282820152519081900360600190a150505050612298565b6000603d8190556020860151604087015161226e926125c5565b6040517f8c27968f65a3dbc27abc3cab9653365e9789a455e5ff479fa8aad2d63881cdae90600090a15b5050505050565b603854604080516385acd64160e01b81527f12fe936c77a1e196473c4314f3bed8eeac1d757b319abb85bdda70df35511bf16004820152905160009261010090046001600160a01b0316916385acd641916024808301926020929190829003018186803b158015611c0d57600080fd5b603954600090612325838263ffffffff612af816565b9150915091565b6000828201838110156107e9576040805162461bcd60e51b815260206004820152601b60248201527f536166654d6174683a206164646974696f6e206f766572666c6f770000000000604482015290519081900360640190fd5b60006107e961239c83600163ffffffff6129af16565b849063ffffffff612b0d16565b6001600160a01b0383166123ee5760405162461bcd60e51b81526004018080602001828103825260258152602001806130f26025913960400191505060405180910390fd5b6001600160a01b0382166124335760405162461bcd60e51b8152600401808060200182810382526023815260200180612f236023913960400191505060405180910390fd5b61247681604051806060016040528060268152602001612fba602691396001600160a01b038616600090815260336020526040902054919063ffffffff61250716565b6001600160a01b0380851660009081526033602052604080822093909355908416815220546124ab908263ffffffff61232c16565b6001600160a01b0380841660008181526033602090815260409182902094909455805185815290519193928716927fddf252ad1be2c89b69c2b068fc378daa952ba7f163c4a11628f55a4df523b3ef92918290030190a3505050565b600081848411156125965760405162461bcd60e51b81526004018080602001828103825283818151815260200191508051906020019080838360005b8381101561255b578181015183820152602001612543565b50505050905090810190601f1680156125885780820380516001836020036101000a031916815260200191505b509250505060405180910390fd5b505050900390565b60395460009061232560016125b9858463ffffffff612b0d16565b9063ffffffff61232c16565b60006125d08361230f565b50905081806125df5750808410155b612630576040805162461bcd60e51b815260206004820152601a60248201527f45786368616e676552617465206d75737420696e637265617365000000000000604482015290519081900360640190fd5b600061263c8585612386565b603981905590507fc8d1043f24843c0a1c9251fdc30017d84e87498fbcf232af9f86816b5e182bde81838711612673576000612683565b612683878563ffffffff6129af16565b6040805192835260208301919091528051918290030190a15050505050565b303b1590565b610d3382826012612b3a565b6001600160a01b038116612707576040805162461bcd60e51b81526020600482015260156024820152744e657875732061646472657373206973207a65726f60581b604482015290519081900360640190fd5b603880546001600160a01b0390921661010002610100600160a81b0319909216919091179055565b60008060008060008515612753578692506127498761230f565b9092509050612765565b86915061275f8761259e565b90935090505b61276f3384612b7a565b603a546040805163a9059cbb60e01b81523360048201526024810185905290516001600160a01b039092169163a9059cbb916044808201926020929091908290030181600087803b1580156127c357600080fd5b505af11580156127d7573d6000803e3d6000fd5b505050506040513d60208110156127ed57600080fd5b5051612833576040805162461bcd60e51b815260206004820152601060248201526f4d7573742073656e6420746f6b656e7360801b604482015290519081900360640190fd5b61283b612e4f565b612843611c3e565b905061284d612e70565b6128578284612c76565b905080600001518160200151111561287457612874826000611ce8565b6040805186815260208101869052815133927fa4feb388d266c39bec6f79f16c3a7dba32e12d9688ddbb14493d46ce4c1ce657928290030190a250929791965090945050505050565b6001600160a01b038216612918576040805162461bcd60e51b815260206004820152601f60248201527f45524332303a206d696e7420746f20746865207a65726f206164647265737300604482015290519081900360640190fd5b60355461292b908263ffffffff61232c16565b6035556001600160a01b038216600090815260336020526040902054612957908263ffffffff61232c16565b6001600160a01b03831660008181526033602090815260408083209490945583518581529351929391927fddf252ad1be2c89b69c2b068fc378daa952ba7f163c4a11628f55a4df523b3ef9281900390910190a35050565b60006107e983836040518060400160405280601e81526020017f536166654d6174683a207375627472616374696f6e206f766572666c6f770000815250612507565b6000806129ff600184612d10565b90506000612a13868663ffffffff6129af16565b90506000612a27868363ffffffff612b0d16565b90506000612a3f846301e1338063ffffffff612b0d16565b9050612a51828263ffffffff612b0d16565b9450610708841115612aa857673782dace9d9000008510612aa35760405162461bcd60e51b815260040180806020018281038252602d8152602001806130a4602d913960400191505060405180910390fd5b612aed565b66038d7ea4c680008210612aed5760405162461bcd60e51b815260040180806020018281038252602d815260200180612fe0602d913960400191505060405180910390fd5b505050509392505050565b60006107e98383670de0b6b3a7640000612d26565b600080612b2884670de0b6b3a764000063ffffffff612d5416565b905061158a818463ffffffff612dad16565b8251612b4d906036906020860190612e8a565b508151612b61906037906020850190612e8a565b506038805460ff191660ff929092169190911790555050565b6001600160a01b038216612bbf5760405162461bcd60e51b81526004018080602001828103825260218152602001806130d16021913960400191505060405180910390fd5b612c0281604051806060016040528060228152602001612f76602291396001600160a01b038516600090815260336020526040902054919063ffffffff61250716565b6001600160a01b038316600090815260336020526040902055603554612c2e908263ffffffff6129af16565b6035556040805182815290516000916001600160a01b038516917fddf252ad1be2c89b69c2b068fc378daa952ba7f163c4a11628f55a4df523b3ef9181900360200190a35050565b612c7e612e70565b6040830151600090612c96908463ffffffff612af816565b8451909150600090612cc790612cba906702c68af0bb14000063ffffffff61232c16565b839063ffffffff612af816565b905060008286602001511015612cf2576020860151612ced90849063ffffffff6129af16565b612cf5565b60005b60408051808201909152928352602083015250949350505050565b6000818311612d1f57816107e9565b5090919050565b600080612d39858563ffffffff612d5416565b9050612d4b818463ffffffff612dad16565b95945050505050565b600082612d63575060006107ec565b82820282848281612d7057fe5b04146107e95760405162461bcd60e51b815260040180806020018281038252602181526020018061302d6021913960400191505060405180910390fd5b60006107e983836040518060400160405280601a81526020017f536166654d6174683a206469766973696f6e206279207a65726f00000000000081525060008183612e395760405162461bcd60e51b815260206004820181815283516024840152835190928392604490910191908501908083836000831561255b578181015183820152602001612543565b506000838581612e4557fe5b0495945050505050565b60405180606001604052806000815260200160008152602001600081525090565b604051806040016040528060008152602001600081525090565b828054600181600116156101000203166002900490600052602060002090601f016020900481019282601f10612ecb57805160ff1916838001178555612ef8565b82800160010185558215612ef8579182015b82811115612ef8578251825591602001919060010190612edd565b50612f04929150612f08565b5090565b61088691905b80821115612f045760008155600101612f0e56fe45524332303a207472616e7366657220746f20746865207a65726f206164647265737343616e206f6e6c79207573652074686973206d6574686f64206265666f72652073747265616d696e6720626567696e7345524332303a206275726e20616d6f756e7420657863656564732062616c616e636545524332303a20617070726f766520746f20746865207a65726f206164647265737345524332303a207472616e7366657220616d6f756e7420657863656564732062616c616e6365496e7465726573742070726f7465637465642066726f6d20696e666c6174696e672070617374203130204270734f6e6c7920676f7665726e6f722063616e206578656375746500000000000000536166654d6174683a206d756c7469706c69636174696f6e206f766572666c6f7745524332303a207472616e7366657220616d6f756e74206578636565647320616c6c6f77616e6365436f6e747261637420696e7374616e63652068617320616c7265616479206265656e20696e697469616c697a6564496e7465726573742070726f7465637465642066726f6d20696e666c6174696e672070617374206d617841505945524332303a206275726e2066726f6d20746865207a65726f206164647265737345524332303a207472616e736665722066726f6d20746865207a65726f206164647265737345524332303a20617070726f76652066726f6d20746865207a65726f206164647265737345524332303a2064656372656173656420616c6c6f77616e63652062656c6f77207a65726fa265627a7a72315820bb8a55563f6d7a69d7580cb021b0da44590a5ab14dae35f8147159cba6dc484764736f6c63430005100032",
  "source": "pragma solidity 0.5.16;\n\n// External\nimport { ISavingsManager } from \"../interfaces/ISavingsManager.sol\";\n\n// Internal\nimport { ISavingsContractV1, ISavingsContractV2 } from \"../interfaces/ISavingsContract.sol\";\nimport { InitializableToken } from \"../shared/InitializableToken.sol\";\nimport { InitializableModule2 } from \"../shared/InitializableModule2.sol\";\nimport { IConnector } from \"./peripheral/IConnector.sol\";\nimport { Initializable } from \"@openzeppelin/upgrades/contracts/Initializable.sol\";\n\n// Libs\nimport { IERC20 } from \"@openzeppelin/contracts/token/ERC20/IERC20.sol\";\nimport { SafeMath } from \"@openzeppelin/contracts/math/SafeMath.sol\";\nimport { StableMath } from \"../shared/StableMath.sol\";\n\n\n/**\n * @title   SavingsContract\n * @author  Stability Labs Pty. Ltd.\n * @notice  Savings contract uses the ever increasing \"exchangeRate\" to increase\n *          the value of the Savers \"credits\" (ERC20) relative to the amount of additional\n *          underlying collateral that has been deposited into this contract (\"interest\")\n * @dev     VERSION: 2.0\n *          DATE:    2020-12-15\n */\ncontract SavingsContract is\n    ISavingsContractV1,\n    ISavingsContractV2,\n    Initializable,\n    InitializableToken,\n    InitializableModule2\n{\n    using SafeMath for uint256;\n    using StableMath for uint256;\n\n    // Core events for depositing and withdrawing\n    event ExchangeRateUpdated(uint256 newExchangeRate, uint256 interestCollected);\n    event SavingsDeposited(address indexed saver, uint256 savingsDeposited, uint256 creditsIssued);\n    event CreditsRedeemed(address indexed redeemer, uint256 creditsRedeemed, uint256 savingsCredited);\n\n    event AutomaticInterestCollectionSwitched(bool automationEnabled);\n\n    // Connector poking\n    event PokerUpdated(address poker);\n\n    event FractionUpdated(uint256 fraction);\n    event ConnectorUpdated(address connector);\n    event EmergencyUpdate();\n\n    event Poked(uint256 oldBalance, uint256 newBalance, uint256 interestDetected);\n    event PokedRaw();\n\n    // Rate between 'savings credits' and underlying\n    // e.g. 1 credit (1e17) mulTruncate(exchangeRate) = underlying, starts at 10:1\n    // exchangeRate increases over time\n    uint256 private constant startingRate = 1e17;\n    uint256 public exchangeRate;\n\n    // Underlying asset is underlying\n    IERC20 public underlying;\n    bool private automateInterestCollection;\n\n    // Yield\n    // Poker is responsible for depositing/withdrawing from connector\n    address public poker;\n    // Last time a poke was made\n    uint256 public lastPoke;\n    // Last known balance of the connector\n    uint256 public lastBalance;\n    // Fraction of capital assigned to the connector (100% = 1e18)\n    uint256 public fraction;\n    // Address of the current connector (all IConnectors are mStable validated)\n    IConnector public connector;\n    // How often do we allow pokes\n    uint256 constant private POKE_CADENCE = 4 hours;\n    // Max APY generated on the capital in the connector\n    uint256 constant private MAX_APY = 4e18;\n    uint256 constant private SECONDS_IN_YEAR = 365 days;\n\n    // Add these constants to bytecode at deploytime\n    function initialize(\n        address _nexus, // constant\n        address _poker,\n        IERC20 _underlying, // constant\n        string calldata _nameArg, // constant\n        string calldata _symbolArg // constant\n    )\n        external\n        initializer\n    {\n        InitializableToken._initialize(_nameArg, _symbolArg);\n        InitializableModule2._initialize(_nexus);\n\n        require(address(_underlying) != address(0), \"mIx address is zero\");\n        underlying = _underlying;\n\n        require(_poker != address(0), \"Invalid poker address\");\n        poker = _poker;\n\n        fraction = 2e17;\n        automateInterestCollection = true;\n        exchangeRate = startingRate;\n    }\n\n    /** @dev Only the savings managaer (pulled from Nexus) can execute this */\n    modifier onlySavingsManager() {\n        require(msg.sender == _savingsManager(), \"Only savings manager can execute\");\n        _;\n    }\n\n\n    /***************************************\n                    VIEW - E\n    ****************************************/\n\n    /**\n     * @dev Returns the underlying balance of a given user\n     * @param _user     Address of the user to check\n     * @return balance  Units of underlying owned by the user\n     */\n    function balanceOfUnderlying(address _user) external view returns (uint256 balance) {\n        (balance,) = _creditsToUnderlying(balanceOf(_user));\n    }\n\n    /**\n     * @dev Converts a given underlying amount into credits\n     * @param _underlying  Units of underlying\n     * @return credits     Credit units (a.k.a imUSD)\n     */\n    function underlyingToCredits(uint256 _underlying) external view returns (uint256 credits) {\n        (credits,) = _underlyingToCredits(_underlying);\n    }\n\n    /**\n     * @dev Converts a given credit amount into underlying\n     * @param _credits  Units of credits\n     * @return amount   Corresponding underlying amount\n     */\n    function creditsToUnderlying(uint256 _credits) external view returns (uint256 amount) {\n        (amount,) = _creditsToUnderlying(_credits);\n    }\n\n    // Deprecated in favour of `balanceOf(address)`\n    // Maintained for backwards compatibility\n    // Returns the credit balance of a given user\n    function creditBalances(address _user) external view returns (uint256) {\n        return balanceOf(_user);\n    }\n\n\n    /***************************************\n                    INTEREST\n    ****************************************/\n\n    /**\n     * @dev Deposit interest (add to savings) and update exchange rate of contract.\n     *      Exchange rate is calculated as the ratio between new savings q and credits:\n     *                    exchange rate = savings / credits\n     *\n     * @param _amount   Units of underlying to add to the savings vault\n     */\n    function depositInterest(uint256 _amount)\n        external\n        onlySavingsManager\n    {\n        require(_amount > 0, \"Must deposit something\");\n\n        // Transfer the interest from sender to here\n        require(underlying.transferFrom(msg.sender, address(this), _amount), \"Must receive tokens\");\n\n        // Calc new exchange rate, protect against initialisation case\n        uint256 totalCredits = totalSupply();\n        if(totalCredits > 0) {\n            // new exchange rate is relationship between _totalCredits & totalSavings\n            // _totalCredits * exchangeRate = totalSavings\n            // exchangeRate = totalSavings/_totalCredits\n            (uint256 totalCollat, ) = _creditsToUnderlying(totalCredits);\n            uint256 newExchangeRate = _calcExchangeRate(totalCollat.add(_amount), totalCredits);\n            exchangeRate = newExchangeRate;\n\n            emit ExchangeRateUpdated(newExchangeRate, _amount);\n        }\n    }\n\n    /** @dev Enable or disable the automation of fee collection during deposit process */\n    function automateInterestCollectionFlag(bool _enabled)\n        external\n        onlyGovernor\n    {\n        automateInterestCollection = _enabled;\n        emit AutomaticInterestCollectionSwitched(_enabled);\n    }\n\n    /***************************************\n                    DEPOSIT\n    ****************************************/\n\n    /**\n     * @dev During a migration period, allow savers to deposit underlying here before the interest has been redirected\n     * @param _underlying      Units of underlying to deposit into savings vault\n     * @param _beneficiary     Immediately transfer the imUSD token to this beneficiary address\n     * @return creditsIssued   Units of credits (imUSD) issued\n     */\n    function preDeposit(uint256 _underlying, address _beneficiary)\n        external\n        returns (uint256 creditsIssued)\n    {\n        require(exchangeRate == startingRate, \"Can only use this method before streaming begins\");\n        return _deposit(_underlying, _beneficiary, false);\n    }\n\n    /**\n     * @dev Deposit the senders savings to the vault, and credit them internally with \"credits\".\n     *      Credit amount is calculated as a ratio of deposit amount and exchange rate:\n     *                    credits = underlying / exchangeRate\n     *      We will first update the internal exchange rate by collecting any interest generated on the underlying.\n     * @param _underlying      Units of underlying to deposit into savings vault\n     * @return creditsIssued   Units of credits (imUSD) issued\n     */\n    function depositSavings(uint256 _underlying)\n        external\n        returns (uint256 creditsIssued)\n    {\n        return _deposit(_underlying, msg.sender, true);\n    }\n\n    /**\n     * @dev Deposit the senders savings to the vault, and credit them internally with \"credits\".\n     *      Credit amount is calculated as a ratio of deposit amount and exchange rate:\n     *                    credits = underlying / exchangeRate\n     *      We will first update the internal exchange rate by collecting any interest generated on the underlying.\n     * @param _underlying      Units of underlying to deposit into savings vault\n     * @param _beneficiary     Immediately transfer the imUSD token to this beneficiary address\n     * @return creditsIssued   Units of credits (imUSD) issued\n     */\n    function depositSavings(uint256 _underlying, address _beneficiary)\n        external\n        returns (uint256 creditsIssued)\n    {\n        return _deposit(_underlying, _beneficiary, true);\n    }\n\n    /**\n     * @dev Internally deposit the _underlying from the sender and credit the beneficiary with new imUSD\n     */\n    function _deposit(uint256 _underlying, address _beneficiary, bool _collectInterest)\n        internal\n        returns (uint256 creditsIssued)\n    {\n        require(_underlying > 0, \"Must deposit something\");\n        require(_beneficiary != address(0), \"Invalid beneficiary address\");\n\n        // Collect recent interest generated by basket and update exchange rate\n        IERC20 mIx = underlying;\n        if(_collectInterest){\n            ISavingsManager(_savingsManager()).collectAndDistributeInterest(address(mIx));\n        }\n\n        // Transfer tokens from sender to here\n        require(mIx.transferFrom(msg.sender, address(this), _underlying), \"Must receive tokens\");\n\n        // Calc how many credits they receive based on currentRatio\n        (creditsIssued,) = _underlyingToCredits(_underlying);\n\n        // add credits to ERC20 balances\n        _mint(_beneficiary, creditsIssued);\n\n        emit SavingsDeposited(_beneficiary, _underlying, creditsIssued);\n    }\n\n\n    /***************************************\n                    REDEEM\n    ****************************************/\n\n\n    // Deprecated in favour of redeemCredits\n    // Maintaining backwards compatibility, this fn minimics the old redeem fn, in which\n    // credits are redeemed but the interest from the underlying is not collected.\n    function redeem(uint256 _credits)\n        external\n        returns (uint256 mixReturned)\n    {\n        require(_credits > 0, \"Must withdraw something\");\n\n        (, uint256 payout) = _redeem(_credits, true);\n\n        // Collect recent interest generated by basket and update exchange rate\n        if(automateInterestCollection) {\n            ISavingsManager(_savingsManager()).collectAndDistributeInterest(address(underlying));\n        }\n\n        return payout;\n    }\n\n    /**\n     * @dev Redeem specific number of the senders \"credits\" in exchange for underlying.\n     *      Payout amount is calculated as a ratio of credits and exchange rate:\n     *                    payout = credits * exchangeRate\n     * @param _credits         Amount of credits to redeem\n     * @return mixReturned  Units of underlying mIx paid out\n     */\n    function redeemCredits(uint256 _credits)\n        external\n        returns (uint256 mixReturned)\n    {\n        require(_credits > 0, \"Must withdraw something\");\n\n        // Collect recent interest generated by basket and update exchange rate\n        if(automateInterestCollection) {\n            ISavingsManager(_savingsManager()).collectAndDistributeInterest(address(underlying));\n        }\n\n        (, uint256 payout) = _redeem(_credits, true);\n\n        return payout;\n    }\n\n    /**\n     * @dev Redeem credits into a specific amount of underlying.\n     *      Credits needed to burn is calculated using:\n     *                    credits = underlying / exchangeRate\n     * @param _underlying     Amount of underlying to redeem\n     * @return creditsBurned  Units of credits burned from sender\n     */\n    function redeemUnderlying(uint256 _underlying)\n        external\n        returns (uint256 creditsBurned)\n    {\n        require(_underlying > 0, \"Must withdraw something\");\n\n        // Collect recent interest generated by basket and update exchange rate\n        if(automateInterestCollection) {\n            ISavingsManager(_savingsManager()).collectAndDistributeInterest(address(underlying));\n        }\n\n        // Ensure that the payout was sufficient\n        (uint256 credits, uint256 mixReturned) = _redeem(_underlying, false);\n        require(mixReturned == _underlying, \"Invalid output\");\n\n        return credits;\n    }\n\n    /**\n     * @dev Internally burn the credits and send the underlying to msg.sender\n     */\n    function _redeem(uint256 _amt, bool _isCreditAmt)\n        internal\n        returns (uint256 creditsBurned, uint256 mixReturned)\n    {\n        // Centralise credit <> underlying calcs and minimise SLOAD count\n        uint256 credits_;\n        uint256 underlying_;\n        uint256 exchangeRate_;\n        // If the input is a credit amt, then calculate underlying payout and cache the exchangeRate\n        if(_isCreditAmt){\n            credits_ = _amt;\n            (underlying_, exchangeRate_) = _creditsToUnderlying(_amt);\n        }\n        // If the input is in underlying, then calculate credits needed to burn\n        else {\n            underlying_ = _amt;\n            (credits_, exchangeRate_) = _underlyingToCredits(_amt);\n        }\n\n        // Burn required credits from the sender FIRST\n        _burn(msg.sender, credits_);\n\n        // Transfer tokens from here to sender\n        require(underlying.transfer(msg.sender, underlying_), \"Must send tokens\");\n\n        // If this withdrawal pushes the portion of stored collateral in the `connector` over a certain\n        // threshold (fraction + 20%), then this should trigger a _poke on the connector. This is to avoid\n        // a situation in which there is a rush on withdrawals for some reason, causing the connector\n        // balance to go up and thus having too large an exposure.\n        CachedData memory cachedData = _cacheData();\n        ConnectorStatus memory status = _getConnectorStatus(cachedData, exchangeRate_);\n        if(status.inConnector > status.limit){\n            _poke(cachedData, false);\n        }\n\n        emit CreditsRedeemed(msg.sender, credits_, underlying_);\n\n        return (credits_, underlying_);\n    }\n\n\n    struct ConnectorStatus {\n        // Limit is the max amount of units allowed in the connector\n        uint256 limit;\n        // Derived balance of the connector\n        uint256 inConnector;\n    }\n\n    /**\n     * @dev Derives the units of collateral held in the connector\n     * @param _data         Struct containing data on balances\n     * @param _exchangeRate Current system exchange rate\n     * @return status       Contains max amount of assets allowed in connector\n     */\n    function _getConnectorStatus(CachedData memory _data, uint256 _exchangeRate)\n        internal\n        pure\n        returns (ConnectorStatus memory)\n    {\n        // Total units of underlying collateralised\n        uint256 totalCollat = _data.totalCredits.mulTruncate(_exchangeRate);\n        // Max amount of underlying that can be held in the connector\n        uint256 limit = totalCollat.mulTruncate(_data.fraction.add(2e17));\n        // Derives amount of underlying present in the connector\n        uint256 inConnector = _data.rawBalance >= totalCollat ? 0 : totalCollat.sub(_data.rawBalance);\n\n        return ConnectorStatus(limit, inConnector);\n    }\n\n    /***************************************\n                    YIELD - E\n    ****************************************/\n\n\n    /** @dev Modifier allowing only the designated poker to execute the fn */\n    modifier onlyPoker() {\n        require(msg.sender == poker, \"Only poker can execute\");\n        _;\n    }\n\n    /**\n     * @dev External poke function allows for the redistribution of collateral between here and the\n     * current connector, setting the ratio back to the defined optimal.\n     */\n    function poke()\n        external\n        onlyPoker\n    {\n        CachedData memory cachedData = _cacheData();\n        _poke(cachedData, false);\n    }\n\n    /**\n     * @dev Governance action to set the address of a new poker\n     * @param _newPoker     Address of the new poker\n     */\n    function setPoker(address _newPoker)\n        external\n        onlyGovernor\n    {\n        require(_newPoker != address(0) && _newPoker != poker, \"Invalid poker\");\n\n        poker = _newPoker;\n\n        emit PokerUpdated(_newPoker);\n    }\n\n    /**\n     * @dev Governance action to set the percentage of assets that should be held\n     * in the connector.\n     * @param _fraction     Percentage of assets that should be held there (where 20% == 2e17)\n     */\n    function setFraction(uint256 _fraction)\n        external\n        onlyGovernor\n    {\n        require(_fraction <= 5e17, \"Fraction must be <= 50%\");\n\n        fraction = _fraction;\n\n        CachedData memory cachedData = _cacheData();\n        _poke(cachedData, true);\n\n        emit FractionUpdated(_fraction);\n    }\n\n    /**\n     * @dev Governance action to set the address of a new connector, and move funds (if any) across.\n     * @param _newConnector     Address of the new connector\n     */\n    function setConnector(address _newConnector)\n        external\n        onlyGovernor\n    {\n        // Withdraw all from previous by setting target = 0\n        CachedData memory cachedData = _cacheData();\n        cachedData.fraction = 0;\n        _poke(cachedData, true);\n\n        // Set new connector\n        CachedData memory cachedDataNew = _cacheData();\n        connector = IConnector(_newConnector);\n        _poke(cachedDataNew, true);\n\n        emit ConnectorUpdated(_newConnector);\n    }\n\n    /**\n     * @dev Governance action to perform an emergency withdraw of the assets in the connector,\n     * should it be the case that some or all of the liquidity is trapped in. This causes the total\n     * collateral in the system to go down, causing a hard refresh.\n     */\n    function emergencyWithdraw(uint256 _withdrawAmount)\n        external\n        onlyGovernor\n    {\n        // withdraw _withdrawAmount from connection\n        connector.withdraw(_withdrawAmount);\n\n        // reset the connector\n        connector = IConnector(address(0));\n        emit ConnectorUpdated(address(0));\n\n        // set fraction to 0\n        fraction = 0;\n        emit FractionUpdated(0);\n\n        // check total collateralisation of credits\n        CachedData memory data = _cacheData();\n        // use rawBalance as the remaining liquidity in the connector is now written off\n        _refreshExchangeRate(data.rawBalance, data.totalCredits, true);\n\n        emit EmergencyUpdate();\n    }\n\n\n    /***************************************\n                    YIELD - I\n    ****************************************/\n\n    /** @dev Internal poke function to keep the balance between connector and raw balance healthy */\n    function _poke(CachedData memory _data, bool _ignoreCadence) internal {\n        require(_data.totalCredits > 0, \"Must have something to poke\");\n\n        // 1. Verify that poke cadence is valid, unless this is a manual action by governance\n        uint256 currentTime = uint256(now);\n        uint256 timeSinceLastPoke = currentTime.sub(lastPoke);\n        require(_ignoreCadence || timeSinceLastPoke > POKE_CADENCE, \"Not enough time elapsed\");\n        lastPoke = currentTime;\n\n        // If there is a connector, check the balance and settle to the specified fraction %\n        IConnector connector_ = connector;\n        if(address(connector_) != address(0)){\n\n            // 2. Check and verify new connector balance\n            uint256 lastBalance_ = lastBalance;\n            uint256 connectorBalance = connector_.checkBalance();\n            //      Always expect the collateral in the connector to increase in value\n            require(connectorBalance >= lastBalance_, \"Invalid yield\");\n            if(connectorBalance > 0){\n                //  Validate the collection by ensuring that the APY is not ridiculous\n                _validateCollection(connectorBalance, connectorBalance.sub(lastBalance_), timeSinceLastPoke);\n            }\n\n            // 3. Level the assets to Fraction (connector) & 100-fraction (raw)\n            uint256 sum = _data.rawBalance.add(connectorBalance);\n            uint256 ideal = sum.mulTruncate(_data.fraction);\n            //     If there is not enough mIx in the connector, then deposit\n            if(ideal > connectorBalance){\n                uint256 deposit = ideal.sub(connectorBalance);\n                underlying.approve(address(connector_), deposit);\n                connector_.deposit(deposit);\n            }\n            //     Else withdraw, if there is too much mIx in the connector\n            else if(connectorBalance > ideal) {\n                // If fraction == 0, then withdraw everything\n                if(ideal == 0){\n                    connector_.withdrawAll();\n                    sum = IERC20(underlying).balanceOf(address(this));\n                } else {\n                    connector_.withdraw(connectorBalance.sub(ideal));\n                }\n            }\n            //     Else ideal == connectorBalance (e.g. 0), do nothing\n            require(connector_.checkBalance() >= ideal, \"Enforce system invariant\");\n\n            // 4i. Refresh exchange rate and emit event\n            lastBalance = ideal;\n            _refreshExchangeRate(sum, _data.totalCredits, false);\n            emit Poked(lastBalance_, ideal, connectorBalance.sub(lastBalance_));\n\n        } else {\n\n            // 4ii. Refresh exchange rate and emit event\n            lastBalance = 0;\n            _refreshExchangeRate(_data.rawBalance, _data.totalCredits, false);\n            emit PokedRaw();\n\n        }\n    }\n\n\n    /**\n     * @dev Internal fn to refresh the exchange rate, based on the sum of collateral and the number of credits\n     * @param _realSum          Sum of collateral held by the contract\n     * @param _totalCredits     Total number of credits in the system\n     * @param _ignoreValidation This is for use in the emergency situation, and ignores a decreasing exchangeRate\n     */\n    function _refreshExchangeRate(uint256 _realSum, uint256 _totalCredits, bool _ignoreValidation) internal {\n        // Based on the current exchange rate, how much underlying is collateralised?\n        (uint256 totalCredited, ) = _creditsToUnderlying(_totalCredits);\n\n        // Require the amount of capital held to be greater than the previously credited units\n        require(_ignoreValidation || _realSum >= totalCredited, \"ExchangeRate must increase\");\n        // Work out the new exchange rate based on the current capital\n        uint256 newExchangeRate = _calcExchangeRate(_realSum, _totalCredits);\n        exchangeRate = newExchangeRate;\n\n        emit ExchangeRateUpdated(newExchangeRate, _realSum > totalCredited ? _realSum.sub(totalCredited) : 0);\n    }\n\n    /**\n     * FORKED DIRECTLY FROM SAVINGSMANAGER.sol\n     * ---------------------------------------\n     * @dev Validates that an interest collection does not exceed a maximum APY. If last collection\n     * was under 30 mins ago, simply check it does not exceed 10bps\n     * @param _newBalance              New balance of the underlying\n     * @param _interest                Increase in total supply since last collection\n     * @param _timeSinceLastCollection Seconds since last collection\n     */\n    function _validateCollection(uint256 _newBalance, uint256 _interest, uint256 _timeSinceLastCollection)\n        internal\n        pure\n        returns (uint256 extrapolatedAPY)\n    {\n        // Protect against division by 0\n        uint256 protectedTime = StableMath.max(1, _timeSinceLastCollection);\n\n        uint256 oldSupply = _newBalance.sub(_interest);\n        uint256 percentageIncrease = _interest.divPrecisely(oldSupply);\n\n        uint256 yearsSinceLastCollection =\n            protectedTime.divPrecisely(SECONDS_IN_YEAR);\n\n        extrapolatedAPY = percentageIncrease.divPrecisely(yearsSinceLastCollection);\n\n        if(protectedTime > 30 minutes) {\n            require(extrapolatedAPY < MAX_APY, \"Interest protected from inflating past maxAPY\");\n        } else {\n            require(percentageIncrease < 1e15, \"Interest protected from inflating past 10 Bps\");\n        }\n    }\n\n\n    /***************************************\n                    VIEW - I\n    ****************************************/\n\n    struct CachedData {\n        // SLOAD from 'fraction'\n        uint256 fraction;\n        // ERC20 balance of underlying, held by this contract\n        // underlying.balanceOf(address(this))\n        uint256 rawBalance;\n        // totalSupply()\n        uint256 totalCredits;\n    }\n\n    /**\n     * @dev Retrieves generic data to avoid duplicate SLOADs\n     */\n    function _cacheData() internal view returns (CachedData memory) {\n        uint256 balance = underlying.balanceOf(address(this));\n        return CachedData(fraction, balance, totalSupply());\n    }\n\n    /**\n     * @dev Converts mix amount into credits based on exchange rate\n     *               c = (mix / exchangeRate) + 1\n     */\n    function _underlyingToCredits(uint256 _underlying)\n        internal\n        view\n        returns (uint256 credits, uint256 exchangeRate_)\n    {\n        // e.g. (1e20 * 1e18) / 1e18 = 1e20\n        // e.g. (1e20 * 1e18) / 14e17 = 7.1429e19\n        // e.g. 1 * 1e18 / 1e17 + 1 = 11 => 11 * 1e17 / 1e18 = 1.1e18 / 1e18 = 1\n        exchangeRate_ = exchangeRate;\n        credits = _underlying.divPrecisely(exchangeRate_).add(1);\n    }\n\n    /**\n     * @dev Works out a new exchange rate, given an amount of collateral and total credits\n     *               e = underlying / (credits-1)\n     */\n    function _calcExchangeRate(uint256 _totalCollateral, uint256 _totalCredits)\n        internal\n        pure\n        returns (uint256 _exchangeRate)\n    {\n        _exchangeRate = _totalCollateral.divPrecisely(_totalCredits.sub(1));\n    }\n\n    /**\n     * @dev Converts credit amount into mix based on exchange rate\n     *               m = credits * exchangeRate\n     */\n    function _creditsToUnderlying(uint256 _credits)\n        internal\n        view\n        returns (uint256 underlyingAmount, uint256 exchangeRate_)\n    {\n        // e.g. (1e20 * 1e18) / 1e18 = 1e20\n        // e.g. (1e20 * 14e17) / 1e18 = 1.4e20\n        exchangeRate_ = exchangeRate;\n        underlyingAmount = _credits.mulTruncate(exchangeRate_);\n    }\n}\n",
  "sourcePath": "/Volumes/sdxc/ETHEREUM/CODE/mStable-v1-edit/contracts/savings/SavingsContract.sol",
  "compiler": {
    "name": "solc",
    "version": "0.5.16+commit.9c3226ce.Emscripten.clang"
  },
  "schemaVersion": "3.1.0",
  "updatedAt": "2021-03-11T05:43:16.072Z",
  "devdoc": {
    "author": "Stability Labs Pty. Ltd.",
    "details": "VERSION: 2.0         DATE:    2020-12-15",
    "methods": {
      "allowance(address,address)": {
        "details": "See {IERC20-allowance}."
      },
      "approve(address,uint256)": {
        "details": "See {IERC20-approve}.     * Requirements:     * - `spender` cannot be the zero address."
      },
      "automateInterestCollectionFlag(bool)": {
        "details": "Enable or disable the automation of fee collection during deposit process "
      },
      "balanceOf(address)": {
        "details": "See {IERC20-balanceOf}."
      },
      "balanceOfUnderlying(address)": {
        "details": "Returns the underlying balance of a given user",
        "params": {
          "_user": "Address of the user to check"
        },
        "return": "balance  Units of underlying owned by the user"
      },
      "creditsToUnderlying(uint256)": {
        "details": "Converts a given credit amount into underlying",
        "params": {
          "_credits": "Units of credits"
        },
        "return": "amount   Corresponding underlying amount"
      },
      "decimals()": {
        "details": "Returns the number of decimals used to get its user representation. For example, if `decimals` equals `2`, a balance of `505` tokens should be displayed to a user as `5,05` (`505 / 10 ** 2`).     * Tokens usually opt for a value of 18, imitating the relationship between Ether and Wei.     * NOTE: This information is only used for _display_ purposes: it in no way affects any of the arithmetic of the contract, including {IERC20-balanceOf} and {IERC20-transfer}."
      },
      "decreaseAllowance(address,uint256)": {
        "details": "Atomically decreases the allowance granted to `spender` by the caller.     * This is an alternative to {approve} that can be used as a mitigation for problems described in {IERC20-approve}.     * Emits an {Approval} event indicating the updated allowance.     * Requirements:     * - `spender` cannot be the zero address. - `spender` must have allowance for the caller of at least `subtractedValue`."
      },
      "depositInterest(uint256)": {
        "details": "Deposit interest (add to savings) and update exchange rate of contract.     Exchange rate is calculated as the ratio between new savings q and credits:                   exchange rate = savings / credits",
        "params": {
          "_amount": "Units of underlying to add to the savings vault"
        }
      },
      "depositSavings(uint256)": {
        "details": "Deposit the senders savings to the vault, and credit them internally with \"credits\".     Credit amount is calculated as a ratio of deposit amount and exchange rate:                   credits = underlying / exchangeRate     We will first update the internal exchange rate by collecting any interest generated on the underlying.",
        "params": {
          "_underlying": "Units of underlying to deposit into savings vault"
        },
        "return": "creditsIssued   Units of credits (imUSD) issued"
      },
      "depositSavings(uint256,address)": {
        "details": "Deposit the senders savings to the vault, and credit them internally with \"credits\".     Credit amount is calculated as a ratio of deposit amount and exchange rate:                   credits = underlying / exchangeRate     We will first update the internal exchange rate by collecting any interest generated on the underlying.",
        "params": {
          "_beneficiary": "Immediately transfer the imUSD token to this beneficiary address",
          "_underlying": "Units of underlying to deposit into savings vault"
        },
        "return": "creditsIssued   Units of credits (imUSD) issued"
      },
      "emergencyWithdraw(uint256)": {
        "details": "Governance action to perform an emergency withdraw of the assets in the connector, should it be the case that some or all of the liquidity is trapped in. This causes the total collateral in the system to go down, causing a hard refresh."
      },
      "increaseAllowance(address,uint256)": {
        "details": "Atomically increases the allowance granted to `spender` by the caller.     * This is an alternative to {approve} that can be used as a mitigation for problems described in {IERC20-approve}.     * Emits an {Approval} event indicating the updated allowance.     * Requirements:     * - `spender` cannot be the zero address."
      },
      "name()": {
        "details": "Returns the name of the token."
      },
      "poke()": {
        "details": "External poke function allows for the redistribution of collateral between here and the current connector, setting the ratio back to the defined optimal."
      },
      "preDeposit(uint256,address)": {
        "details": "During a migration period, allow savers to deposit underlying here before the interest has been redirected",
        "params": {
          "_beneficiary": "Immediately transfer the imUSD token to this beneficiary address",
          "_underlying": "Units of underlying to deposit into savings vault"
        },
        "return": "creditsIssued   Units of credits (imUSD) issued"
      },
      "redeemCredits(uint256)": {
        "details": "Redeem specific number of the senders \"credits\" in exchange for underlying.     Payout amount is calculated as a ratio of credits and exchange rate:                   payout = credits * exchangeRate",
        "params": {
          "_credits": "Amount of credits to redeem"
        },
        "return": "mixReturned  Units of underlying mIx paid out"
      },
      "redeemUnderlying(uint256)": {
        "details": "Redeem credits into a specific amount of underlying.     Credits needed to burn is calculated using:                   credits = underlying / exchangeRate",
        "params": {
          "_underlying": "Amount of underlying to redeem"
        },
        "return": "creditsBurned  Units of credits burned from sender"
      },
      "setConnector(address)": {
        "details": "Governance action to set the address of a new connector, and move funds (if any) across.",
        "params": {
          "_newConnector": "Address of the new connector"
        }
      },
      "setFraction(uint256)": {
        "details": "Governance action to set the percentage of assets that should be held in the connector.",
        "params": {
          "_fraction": "Percentage of assets that should be held there (where 20% == 2e17)"
        }
      },
      "setPoker(address)": {
        "details": "Governance action to set the address of a new poker",
        "params": {
          "_newPoker": "Address of the new poker"
        }
      },
      "symbol()": {
        "details": "Returns the symbol of the token, usually a shorter version of the name."
      },
      "totalSupply()": {
        "details": "See {IERC20-totalSupply}."
      },
      "transfer(address,uint256)": {
        "details": "See {IERC20-transfer}.     * Requirements:     * - `recipient` cannot be the zero address. - the caller must have a balance of at least `amount`."
      },
      "transferFrom(address,address,uint256)": {
        "details": "See {IERC20-transferFrom}.     * Emits an {Approval} event indicating the updated allowance. This is not required by the EIP. See the note at the beginning of {ERC20};     * Requirements: - `sender` and `recipient` cannot be the zero address. - `sender` must have a balance of at least `amount`. - the caller must have allowance for `sender`'s tokens of at least `amount`."
      },
      "underlyingToCredits(uint256)": {
        "details": "Converts a given underlying amount into credits",
        "params": {
          "_underlying": "Units of underlying"
        },
        "return": "credits     Credit units (a.k.a imUSD)"
      }
    },
    "title": "SavingsContract"
  },
  "userdoc": {
    "methods": {
      "redeem(uint256)": {
        "notice": "************************************* REDEEM***************************************"
      }
    },
    "notice": "Savings contract uses the ever increasing \"exchangeRate\" to increase         the value of the Savers \"credits\" (ERC20) relative to the amount of additional         underlying collateral that has been deposited into this contract (\"interest\")"
  }
}