{
  "contractName": "SavingsManager",
  "abi": [
    {
      "inputs": [
        {
          "internalType": "address",
          "name": "_nexus",
          "type": "address"
        },
        {
          "internalType": "address",
          "name": "_mUSD",
          "type": "address"
        },
        {
          "internalType": "address",
          "name": "_savingsContract",
          "type": "address"
        }
      ],
      "payable": false,
      "stateMutability": "nonpayable",
      "type": "constructor"
    },
    {
      "anonymous": false,
      "inputs": [
        {
          "indexed": true,
          "internalType": "address",
          "name": "mIx",
          "type": "address"
        },
        {
          "indexed": false,
          "internalType": "uint256",
          "name": "interest",
          "type": "uint256"
        },
        {
          "indexed": false,
          "internalType": "uint256",
          "name": "newTotalSupply",
          "type": "uint256"
        },
        {
          "indexed": false,
          "internalType": "uint256",
          "name": "apy",
          "type": "uint256"
        }
      ],
      "name": "InterestCollected",
      "type": "event"
    },
    {
      "anonymous": false,
      "inputs": [
        {
          "indexed": true,
          "internalType": "address",
          "name": "mIx",
          "type": "address"
        },
        {
          "indexed": false,
          "internalType": "uint256",
          "name": "amountSent",
          "type": "uint256"
        }
      ],
      "name": "InterestDistributed",
      "type": "event"
    },
    {
      "anonymous": false,
      "inputs": [
        {
          "indexed": true,
          "internalType": "address",
          "name": "mIx",
          "type": "address"
        },
        {
          "indexed": false,
          "internalType": "uint256",
          "name": "amount",
          "type": "uint256"
        }
      ],
      "name": "LiquidatorDeposited",
      "type": "event"
    },
    {
      "anonymous": false,
      "inputs": [
        {
          "indexed": false,
          "internalType": "address",
          "name": "account",
          "type": "address"
        }
      ],
      "name": "Paused",
      "type": "event"
    },
    {
      "anonymous": false,
      "inputs": [
        {
          "indexed": true,
          "internalType": "address",
          "name": "mIx",
          "type": "address"
        },
        {
          "indexed": false,
          "internalType": "address",
          "name": "recipient",
          "type": "address"
        }
      ],
      "name": "RevenueRecipientSet",
      "type": "event"
    },
    {
      "anonymous": false,
      "inputs": [
        {
          "indexed": true,
          "internalType": "address",
          "name": "mIx",
          "type": "address"
        },
        {
          "indexed": false,
          "internalType": "address",
          "name": "recipient",
          "type": "address"
        },
        {
          "indexed": false,
          "internalType": "uint256",
          "name": "amount",
          "type": "uint256"
        }
      ],
      "name": "RevenueRedistributed",
      "type": "event"
    },
    {
      "anonymous": false,
      "inputs": [
        {
          "indexed": true,
          "internalType": "address",
          "name": "mIx",
          "type": "address"
        },
        {
          "indexed": false,
          "internalType": "address",
          "name": "savingsContract",
          "type": "address"
        }
      ],
      "name": "SavingsContractAdded",
      "type": "event"
    },
    {
      "anonymous": false,
      "inputs": [
        {
          "indexed": true,
          "internalType": "address",
          "name": "mIx",
          "type": "address"
        },
        {
          "indexed": false,
          "internalType": "address",
          "name": "savingsContract",
          "type": "address"
        }
      ],
      "name": "SavingsContractUpdated",
      "type": "event"
    },
    {
      "anonymous": false,
      "inputs": [
        {
          "indexed": false,
          "internalType": "uint256",
          "name": "newSavingsRate",
          "type": "uint256"
        }
      ],
      "name": "SavingsRateChanged",
      "type": "event"
    },
    {
      "anonymous": false,
      "inputs": [],
      "name": "StreamsFrozen",
      "type": "event"
    },
    {
      "anonymous": false,
      "inputs": [
        {
          "indexed": false,
          "internalType": "address",
          "name": "account",
          "type": "address"
        }
      ],
      "name": "Unpaused",
      "type": "event"
    },
    {
      "constant": true,
      "inputs": [
        {
          "internalType": "address",
          "name": "",
          "type": "address"
        }
      ],
      "name": "lastBatchCollected",
      "outputs": [
        {
          "internalType": "uint256",
          "name": "",
          "type": "uint256"
        }
      ],
      "payable": false,
      "stateMutability": "view",
      "type": "function"
    },
    {
      "constant": true,
      "inputs": [
        {
          "internalType": "address",
          "name": "",
          "type": "address"
        }
      ],
      "name": "lastCollection",
      "outputs": [
        {
          "internalType": "uint256",
          "name": "",
          "type": "uint256"
        }
      ],
      "payable": false,
      "stateMutability": "view",
      "type": "function"
    },
    {
      "constant": true,
      "inputs": [
        {
          "internalType": "address",
          "name": "",
          "type": "address"
        }
      ],
      "name": "lastPeriodStart",
      "outputs": [
        {
          "internalType": "uint256",
          "name": "",
          "type": "uint256"
        }
      ],
      "payable": false,
      "stateMutability": "view",
      "type": "function"
    },
    {
      "constant": true,
      "inputs": [
        {
          "internalType": "address",
          "name": "",
          "type": "address"
        }
      ],
      "name": "liqStream",
      "outputs": [
        {
          "internalType": "uint256",
          "name": "end",
          "type": "uint256"
        },
        {
          "internalType": "uint256",
          "name": "rate",
          "type": "uint256"
        }
      ],
      "payable": false,
      "stateMutability": "view",
      "type": "function"
    },
    {
      "constant": true,
      "inputs": [],
      "name": "nexus",
      "outputs": [
        {
          "internalType": "contract INexus",
          "name": "",
          "type": "address"
        }
      ],
      "payable": false,
      "stateMutability": "view",
      "type": "function"
    },
    {
      "constant": false,
      "inputs": [],
      "name": "pause",
      "outputs": [],
      "payable": false,
      "stateMutability": "nonpayable",
      "type": "function"
    },
    {
      "constant": true,
      "inputs": [],
      "name": "paused",
      "outputs": [
        {
          "internalType": "bool",
          "name": "",
          "type": "bool"
        }
      ],
      "payable": false,
      "stateMutability": "view",
      "type": "function"
    },
    {
      "constant": true,
      "inputs": [
        {
          "internalType": "address",
          "name": "",
          "type": "address"
        }
      ],
      "name": "periodYield",
      "outputs": [
        {
          "internalType": "uint256",
          "name": "",
          "type": "uint256"
        }
      ],
      "payable": false,
      "stateMutability": "view",
      "type": "function"
    },
    {
      "constant": true,
      "inputs": [
        {
          "internalType": "address",
          "name": "",
          "type": "address"
        }
      ],
      "name": "revenueRecipients",
      "outputs": [
        {
          "internalType": "contract IRevenueRecipient",
          "name": "",
          "type": "address"
        }
      ],
      "payable": false,
      "stateMutability": "view",
      "type": "function"
    },
    {
      "constant": true,
      "inputs": [
        {
          "internalType": "address",
          "name": "",
          "type": "address"
        }
      ],
      "name": "savingsContracts",
      "outputs": [
        {
          "internalType": "contract ISavingsContractV1",
          "name": "",
          "type": "address"
        }
      ],
      "payable": false,
      "stateMutability": "view",
      "type": "function"
    },
    {
      "constant": false,
      "inputs": [],
      "name": "unpause",
      "outputs": [],
      "payable": false,
      "stateMutability": "nonpayable",
      "type": "function"
    },
    {
      "constant": true,
      "inputs": [
        {
          "internalType": "address",
          "name": "",
          "type": "address"
        }
      ],
      "name": "yieldStream",
      "outputs": [
        {
          "internalType": "uint256",
          "name": "end",
          "type": "uint256"
        },
        {
          "internalType": "uint256",
          "name": "rate",
          "type": "uint256"
        }
      ],
      "payable": false,
      "stateMutability": "view",
      "type": "function"
    },
    {
      "constant": false,
      "inputs": [
        {
          "internalType": "address",
          "name": "_mIx",
          "type": "address"
        },
        {
          "internalType": "address",
          "name": "_savingsContract",
          "type": "address"
        }
      ],
      "name": "addSavingsContract",
      "outputs": [],
      "payable": false,
      "stateMutability": "nonpayable",
      "type": "function"
    },
    {
      "constant": false,
      "inputs": [
        {
          "internalType": "address",
          "name": "_mIx",
          "type": "address"
        },
        {
          "internalType": "address",
          "name": "_savingsContract",
          "type": "address"
        }
      ],
      "name": "updateSavingsContract",
      "outputs": [],
      "payable": false,
      "stateMutability": "nonpayable",
      "type": "function"
    },
    {
      "constant": false,
      "inputs": [],
      "name": "freezeStreams",
      "outputs": [],
      "payable": false,
      "stateMutability": "nonpayable",
      "type": "function"
    },
    {
      "constant": false,
      "inputs": [
        {
          "internalType": "address",
          "name": "_mIx",
          "type": "address"
        },
        {
          "internalType": "address",
          "name": "_recipient",
          "type": "address"
        }
      ],
      "name": "setRevenueRecipient",
      "outputs": [],
      "payable": false,
      "stateMutability": "nonpayable",
      "type": "function"
    },
    {
      "constant": false,
      "inputs": [
        {
          "internalType": "uint256",
          "name": "_savingsRate",
          "type": "uint256"
        }
      ],
      "name": "setSavingsRate",
      "outputs": [],
      "payable": false,
      "stateMutability": "nonpayable",
      "type": "function"
    },
    {
      "constant": false,
      "inputs": [
        {
          "internalType": "address",
          "name": "_mIx",
          "type": "address"
        },
        {
          "internalType": "uint256",
          "name": "_liquidated",
          "type": "uint256"
        }
      ],
      "name": "depositLiquidation",
      "outputs": [],
      "payable": false,
      "stateMutability": "nonpayable",
      "type": "function"
    },
    {
      "constant": false,
      "inputs": [
        {
          "internalType": "address",
          "name": "_mIx",
          "type": "address"
        }
      ],
      "name": "collectAndStreamInterest",
      "outputs": [],
      "payable": false,
      "stateMutability": "nonpayable",
      "type": "function"
    },
    {
      "constant": false,
      "inputs": [
        {
          "internalType": "address",
          "name": "_mIx",
          "type": "address"
        }
      ],
      "name": "collectAndDistributeInterest",
      "outputs": [],
      "payable": false,
      "stateMutability": "nonpayable",
      "type": "function"
    },
    {
      "constant": false,
      "inputs": [
        {
          "internalType": "address",
          "name": "_mIx",
          "type": "address"
        }
      ],
      "name": "distributeUnallocatedInterest",
      "outputs": [],
      "payable": false,
      "stateMutability": "nonpayable",
      "type": "function"
    }
  ],
  "bytecode": "0x60806040526000805460ff60a01b19169055670de0b6b3a76400006006556007805460ff191690553480156200003457600080fd5b5060405162002b3938038062002b39833981810160405260608110156200005a57600080fd5b508051602082015160409092015190919082806001600160a01b038116620000c9576040805162461bcd60e51b815260206004820152601560248201527f4e65787573206973207a65726f20616464726573730000000000000000000000604482015290519081900360640190fd5b600080546001600160a01b0319166001600160a01b03929092169190911760ff60a01b1916905550620000fd828262000147565b604080516001600160a01b0383811682529151918416917f508defc317fd15db2b6ef034d39cf1d5db588a037dbd3515824e4baec4228b6c9181900360200190a250505062000563565b6001600160a01b038216158015906200016857506001600160a01b03811615155b620001ba576040805162461bcd60e51b815260206004820152601560248201527f4d7573742062652076616c696420616464726573730000000000000000000000604482015290519081900360640190fd5b6001600160a01b038281166000818152600160209081526040822080546001600160a01b0319169486169490941790935562000202928491906200022d811b62001e7317901c565b6200022981600019846001600160a01b03166200022d60201b62001e73179092919060201c565b5050565b801580620002b7575060408051636eb1769f60e11b81523060048201526001600160a01b03848116602483015291519185169163dd62ed3e91604480820192602092909190829003018186803b1580156200028757600080fd5b505afa1580156200029c573d6000803e3d6000fd5b505050506040513d6020811015620002b357600080fd5b5051155b620002f45760405162461bcd60e51b815260040180806020018281038252603681526020018062002b036036913960400191505060405180910390fd5b604080516001600160a01b038416602482015260448082018490528251808303909101815260649091019091526020810180516001600160e01b0390811663095ea7b360e01b179091526200034c9185916200035116565b505050565b62000370826001600160a01b03166200052660201b6200233c1760201c565b620003c2576040805162461bcd60e51b815260206004820152601f60248201527f5361666545524332303a2063616c6c20746f206e6f6e2d636f6e747261637400604482015290519081900360640190fd5b60006060836001600160a01b0316836040518082805190602001908083835b60208310620004025780518252601f199092019160209182019101620003e1565b6001836020036101000a0380198251168184511680821785525050505050509050019150506000604051808303816000865af19150503d806000811462000466576040519150601f19603f3d011682016040523d82523d6000602084013e6200046b565b606091505b509150915081620004c3576040805162461bcd60e51b815260206004820181905260248201527f5361666545524332303a206c6f772d6c6576656c2063616c6c206661696c6564604482015290519081900360640190fd5b8051156200052057808060200190516020811015620004e157600080fd5b5051620005205760405162461bcd60e51b815260040180806020018281038252602a81526020018062002ad9602a913960400191505060405180910390fd5b50505050565b6000813f7fc5d2460186f7233c927e7db2dcc703c0e500b653ca82273b7bfad8045d85a4708181148015906200055b57508115155b949350505050565b61256680620005736000396000f3fe608060405234801561001057600080fd5b50600436106101375760003560e01c80638456cb59116100b8578063c02d7b171161007c578063c02d7b171461034f578063ca2bdfe61461038e578063cf299ea9146103b4578063d176d5f7146103da578063d536818814610400578063e81441921461042e57610137565b80638456cb59146102cd578063882111fc146102d5578063a3f5c1d2146102fb578063ac431d7a14610303578063b75d76071461032957610137565b806340ed7333116100ff57806340ed7333146101ef5780634fa369c4146102315780635c975abb1461025d578063691ef66314610279578063717f2bc11461029f57610137565b806321aec84a1461013c5780633022dfeb1461016457806333bda1f7146101925780633be22149146101ca5780633f4ba83a146101e7575b600080fd5b6101626004803603602081101561015257600080fd5b50356001600160a01b0316610436565b005b6101626004803603604081101561017a57600080fd5b506001600160a01b0381358116916020013516610735565b6101b8600480360360208110156101a857600080fd5b50356001600160a01b031661084c565b60408051918252519081900360200190f35b610162600480360360208110156101e057600080fd5b503561085e565b61016261095c565b6102156004803603602081101561020557600080fd5b50356001600160a01b0316610a4e565b604080516001600160a01b039092168252519081900360200190f35b6101626004803603604081101561024757600080fd5b506001600160a01b038135169060200135610a69565b610265610c1e565b604080519115158252519081900360200190f35b6101b86004803603602081101561028f57600080fd5b50356001600160a01b0316610c2e565b610162600480360360408110156102b557600080fd5b506001600160a01b0381358116916020013516610c40565b610162610d56565b6101b8600480360360208110156102eb57600080fd5b50356001600160a01b0316610e4b565b610215610e5d565b6101626004803603602081101561031957600080fd5b50356001600160a01b0316610e6c565b6102156004803603602081101561033f57600080fd5b50356001600160a01b03166110ee565b6103756004803603602081101561036557600080fd5b50356001600160a01b0316611109565b6040805192835260208301919091528051918290030190f35b610162600480360360208110156103a457600080fd5b50356001600160a01b0316611122565b610375600480360360208110156103ca57600080fd5b50356001600160a01b0316611180565b6101b8600480360360208110156103f057600080fd5b50356001600160a01b0316611199565b6101626004803603604081101561041657600080fd5b506001600160a01b03813581169160200135166111ab565b61016261126f565b61043e61135a565b6001600160a01b0316336001600160a01b0316148061047557506104606113da565b6001600160a01b0316336001600160a01b0316145b6104c6576040805162461bcd60e51b815260206004820152601b60248201527f4f6e6c7920676f7665726e616e63652063616e20657865637574650000000000604482015290519081900360640190fd5b6001600160a01b038082166000908152600260205260409020541680610533576040805162461bcd60e51b815260206004820152601960248201527f4d75737420686176652076616c696420726563697069656e7400000000000000604482015290519081900360640190fd5b604080516370a0823160e01b8152306004820152905183916000916001600160a01b038416916370a08231916024808301926020929190829003018186803b15801561057e57600080fd5b505afa158015610592573d6000803e3d6000fd5b505050506040513d60208110156105a857600080fd5b5051905060006105b88582611446565b905060006105c7866001611446565b905060006105eb826105df868663ffffffff61150d16565b9063ffffffff61150d16565b9050846001600160a01b031663095ea7b387836040518363ffffffff1660e01b815260040180836001600160a01b03166001600160a01b0316815260200182815260200192505050602060405180830381600087803b15801561064d57600080fd5b505af1158015610661573d6000803e3d6000fd5b505050506040513d602081101561067757600080fd5b50506040805163383680c360e11b81526001600160a01b0389811660048301526024820184905291519188169163706d01869160448082019260009290919082900301818387803b1580156106cb57600080fd5b505af11580156106df573d6000803e3d6000fd5b5050604080516001600160a01b038a81168252602082018690528251908c1694507f25f038afe3b508b51eefbd7cb74df863b1f311ff2e404467a4223bdb353dcce493509081900390910190a250505050505050565b61073d61135a565b6001600160a01b0316336001600160a01b031614610790576040805162461bcd60e51b81526020600482015260196024820152600080516020612464833981519152604482015290519081900360640190fd5b6001600160a01b0382811660009081526001602052604090205416156107fd576040805162461bcd60e51b815260206004820152601f60248201527f536176696e677320636f6e747261637420616c72656164792065786973747300604482015290519081900360640190fd5b6108078282611556565b604080516001600160a01b0383811682529151918416917f508defc317fd15db2b6ef034d39cf1d5db588a037dbd3515824e4baec4228b6c9181900360200190a25050565b600a6020526000908152604090205481565b61086661135a565b6001600160a01b0316336001600160a01b0316146108b9576040805162461bcd60e51b81526020600482015260196024820152600080516020612464833981519152604482015290519081900360640190fd5b670853a0d2313c000081101580156108d95750670de0b6b3a76400008111155b610921576040805162461bcd60e51b81526020600482015260146024820152734d75737420626520612076616c6964207261746560601b604482015290519081900360640190fd5b60068190556040805182815290517faedfe3437b11d6c786a86e8c27ef98816e4fd031ee0613a4e5132ae857065e479181900360200190a150565b61096461135a565b6001600160a01b0316336001600160a01b0316146109b7576040805162461bcd60e51b81526020600482015260196024820152600080516020612464833981519152604482015290519081900360640190fd5b600054600160a01b900460ff16610a0c576040805162461bcd60e51b815260206004820152601460248201527314185d5cd8589b194e881b9bdd081c185d5cd95960621b604482015290519081900360640190fd5b6000805460ff60a01b191690556040805133815290517f5db9ee0a495bf2e6ff9c91a7834c1ba4fdd244a5e8aa4e537bd38aeae4b073aa9181900360200190a1565b6002602052600090815260409020546001600160a01b031681565b600054600160a01b900460ff1615610abb576040805162461bcd60e51b815260206004820152601060248201526f14185d5cd8589b194e881c185d5cd95960821b604482015290519081900360640190fd5b610ac3611619565b6001600160a01b0316336001600160a01b031614610b28576040805162461bcd60e51b815260206004820152601b60248201527f4f6e6c79206c697175696461746f722063616e20657865637574650000000000604482015290519081900360640190fd5b60075460ff1615610b80576040805162461bcd60e51b815260206004820152601d60248201527f53747265616d696e672069732063757272656e746c792066726f7a656e000000604482015290519081900360640190fd5b610b8982611685565b610bac610b94611619565b6001600160a01b03841690308463ffffffff611aac16565b6000610bb9836000611446565b9050610bda836000610bd1858563ffffffff611b0c16565b62093a80611b66565b6040805183815290516001600160a01b038516917f2031d123851984662d738ba6c766d26c120f8030f44ee35ab4ba0a784f7c71a7919081900360200190a2505050565b600054600160a01b900460ff1690565b60036020526000908152604090205481565b610c4861135a565b6001600160a01b0316336001600160a01b031614610c9b576040805162461bcd60e51b81526020600482015260196024820152600080516020612464833981519152604482015290519081900360640190fd5b6001600160a01b0382811660009081526001602052604090205416610d07576040805162461bcd60e51b815260206004820152601f60248201527f536176696e677320636f6e747261637420646f6573206e6f7420657869737400604482015290519081900360640190fd5b610d118282611556565b604080516001600160a01b0383811682529151918416917fa1f7f49e41e6da12e99cafaf80f4fd0a1a5dbd92eca85369d5597a1c140b5eab9181900360200190a25050565b610d5e61135a565b6001600160a01b0316336001600160a01b031614610db1576040805162461bcd60e51b81526020600482015260196024820152600080516020612464833981519152604482015290519081900360640190fd5b600054600160a01b900460ff1615610e03576040805162461bcd60e51b815260206004820152601060248201526f14185d5cd8589b194e881c185d5cd95960821b604482015290519081900360640190fd5b6000805460ff60a01b1916600160a01b1790556040805133815290517f62e78cea01bee320cd4e420270b5ea74000d11b0c9f74754ebdbfc544b05a2589181900360200190a1565b60056020526000908152604090205481565b6000546001600160a01b031681565b600054600160a01b900460ff1615610ebe576040805162461bcd60e51b815260206004820152601060248201526f14185d5cd8589b194e881c185d5cd95960821b604482015290519081900360640190fd5b60075460ff1615610f16576040805162461bcd60e51b815260206004820152601d60248201527f53747265616d696e672069732063757272656e746c792066726f7a656e000000604482015290519081900360640190fd5b610f1f81611685565b6001600160a01b0381166000908152600a60205260408120544291610f4a838363ffffffff61150d16565b90506154608111610fa2576040805162461bcd60e51b815260206004820152601f60248201527f43616e6e6f74206465706f73697420747769636520696e203620686f75727300604482015290519081900360640190fd5b6001600160a01b0384166000818152600a60205260408082208690558051633f4480f560e11b81528151929384939092637e8901ea926004808201939182900301818787803b158015610ff457600080fd5b505af1158015611008573d6000803e3d6000fd5b505050506040513d604081101561101e57600080fd5b508051602090910151909250905081156110ac57600061103f828486611c8c565b9050600061104e886001611446565b905061106f886001611066878563ffffffff611b0c16565b62015180611b66565b604080518581526020810185905280820184905290516001600160a01b038a16916000805160206123f5833981519152919081900360600190a250505b604080518381526020810183905260008183015290516001600160a01b038816916000805160206123f5833981519152919081900360600190a2505050505050565b6001602052600090815260409020546001600160a01b031681565b6009602052600090815260409020805460019091015482565b600054600160a01b900460ff1615611174576040805162461bcd60e51b815260206004820152601060248201526f14185d5cd8589b194e881c185d5cd95960821b604482015290519081900360640190fd5b61117d81611685565b50565b6008602052600090815260409020805460019091015482565b60046020526000908152604090205481565b6111b361135a565b6001600160a01b0316336001600160a01b031614611206576040805162461bcd60e51b81526020600482015260196024820152600080516020612464833981519152604482015290519081900360640190fd5b6001600160a01b0382811660008181526002602090815260409182902080546001600160a01b03191694861694851790558151938452905191927f8fca8811c9f2b99f3c43f36b80aedd3efebd97855e8fbb620f427806b0d257b1929081900390910190a25050565b61127761135a565b6001600160a01b0316336001600160a01b0316146112ca576040805162461bcd60e51b81526020600482015260196024820152600080516020612464833981519152604482015290519081900360640190fd5b60075460ff1615611322576040805162461bcd60e51b815260206004820152601d60248201527f53747265616d696e672069732063757272656e746c792066726f7a656e000000604482015290519081900360640190fd5b6007805460ff191660011790556040517fd91af312a230e76188294986220b0a066629d876bbbbc3b060d59499e6f750bf90600090a1565b60008060009054906101000a90046001600160a01b03166001600160a01b0316630c340a246040518163ffffffff1660e01b815260040160206040518083038186803b1580156113a957600080fd5b505afa1580156113bd573d6000803e3d6000fd5b505050506040513d60208110156113d357600080fd5b5051905090565b60008054604080516385acd64160e01b81527f9409903de1e6fd852dfc61c9dacb48196c48535b60e25abf92acc92dd689078d600482015290516001600160a01b03909216916385acd64191602480820192602092909190829003018186803b1580156113a957600080fd5b6001600160a01b0382166000908152600460205260408120546114676123da565b600084600181111561147557fe5b14611497576001600160a01b03851660009081526009602052604090206114b0565b6001600160a01b03851660009081526008602052604090205b604080518082019091528154808252600190920154602082015291506000908310156114eb5781516114e8908463ffffffff61150d16565b90505b602082015161150190829063ffffffff611d8316565b93505050505b92915050565b600061154f83836040518060400160405280601e81526020017f536166654d6174683a207375627472616374696f6e206f766572666c6f770000815250611ddc565b9392505050565b6001600160a01b0382161580159061157657506001600160a01b03811615155b6115bf576040805162461bcd60e51b81526020600482015260156024820152744d7573742062652076616c6964206164647265737360581b604482015290519081900360640190fd5b6001600160a01b03828116600081815260016020526040812080546001600160a01b031916938516939093179092556115f9918390611e73565b6116156001600160a01b0383168260001963ffffffff611e7316565b5050565b60008054604080516385acd64160e01b81527f1e9cb14d7560734a61fa5ff9273953e971ff3cd9283c03d8346e3264617933d4600482015290516001600160a01b03909216916385acd64191602480820192602092909190829003018186803b1580156113a957600080fd5b6001600160a01b0380821660009081526001602052604090205416806116dc5760405162461bcd60e51b81526004018080602001828103825260228152602001806124426022913960400191505060405180910390fd5b6001600160a01b0382166000818152600360209081526040808320546004928390528184208054429091558251631517d59160e11b8152835192969195899590948594632a2fab2293808401939082900301818787803b15801561173f57600080fd5b505af1158015611753573d6000803e3d6000fd5b505050506040513d604081101561176957600080fd5b50805160209091015190925090506000611793600161178e428963ffffffff61150d16565b611f8b565b905060006117ac600161178e428963ffffffff61150d16565b9050836107088211156117e4576001600160a01b038a1660009081526003602090815260408083204290556005909152812055611862565b61070883111561181b576001600160a01b038a1660009081526003602090815260408083208a905560059091529020859055611862565b6001600160a01b038a16600090815260056020526040902054611844908663ffffffff611b0c16565b6001600160a01b038b16600090815260056020526040902081905590505b600061186e8b89611fa1565b9050600086118061187f5750600081115b15611a6457611894868263ffffffff611b0c16565b604080516370a0823160e01b815230600482015290516001600160a01b038e16916370a08231916024808301926020929190829003018186803b1580156118da57600080fd5b505afa1580156118ee573d6000803e3d6000fd5b505050506040513d602081101561190457600080fd5b5051101561194d576040805162461bcd60e51b8152602060048201526011602482015270135d5cdd081c9958d95a5d99481b5554d1607a1b604482015290519081900360640190fd5b600061195a868486611c8c565b604080518981526020810189905280820183905290519192506001600160a01b038e16916000805160206123f58339815191529181900360600190a26006546000906119bc906119b08a8663ffffffff611b0c16565b9063ffffffff61209016565b90508b6001600160a01b031663220c5bbb826040518263ffffffff1660e01b815260040180828152602001915050600060405180830381600087803b158015611a0457600080fd5b505af1158015611a18573d6000803e3d6000fd5b505050508c6001600160a01b03167fffbd5470d1efa00ab4b8be8ae04ba319ee7926ffe943a91b8af15bea044ceaf3826040518082815260200191505060405180910390a25050611a9f565b604080516000808252602082018890528183015290516001600160a01b038d16916000805160206123f5833981519152919081900360600190a25b5050505050505050505050565b604080516001600160a01b0385811660248301528416604482015260648082018490528251808303909101815260849091019091526020810180516001600160e01b03166323b872dd60e01b179052611b069085906120a5565b50505050565b60008282018381101561154f576040805162461bcd60e51b815260206004820152601b60248201527f536166654d6174683a206164646974696f6e206f766572666c6f770000000000604482015290519081900360640190fd5b426000611b79848463ffffffff61225d16565b90506000611b8d838563ffffffff611b0c16565b90506000866001811115611b9d57fe5b1415611bdf5760408051808201825282815260208082018581526001600160a01b038b1660009081526008909252929020905181559051600190910155611c17565b60408051808201825282815260208082018581526001600160a01b038b16600090815260099092529290209051815590516001909101555b6001600160a01b0387166000908152600460205260409020548314611c83576040805162461bcd60e51b815260206004820152601e60248201527f53747265616d2064617461206d75737420626520757020746f20646174650000604482015290519081900360640190fd5b50505050505050565b600080611c9f858563ffffffff61150d16565b90506000611cb3858363ffffffff61229f16565b90506000611ccb856301e1338063ffffffff61229f16565b9050611cdd828263ffffffff61229f16565b9350610708851115611d345767d02ab486cedc00008410611d2f5760405162461bcd60e51b815260040180806020018281038252602d8152602001806124a5602d913960400191505060405180910390fd5b611d79565b66038d7ea4c680008210611d795760405162461bcd60e51b815260040180806020018281038252602d815260200180612415602d913960400191505060405180910390fd5b5050509392505050565b600082611d9257506000611507565b82820282848281611d9f57fe5b041461154f5760405162461bcd60e51b81526004018080602001828103825260218152602001806124846021913960400191505060405180910390fd5b60008184841115611e6b5760405162461bcd60e51b81526004018080602001828103825283818151815260200191508051906020019080838360005b83811015611e30578181015183820152602001611e18565b50505050905090810190601f168015611e5d5780820380516001836020036101000a031916815260200191505b509250505060405180910390fd5b505050900390565b801580611ef9575060408051636eb1769f60e11b81523060048201526001600160a01b03848116602483015291519185169163dd62ed3e91604480820192602092909190829003018186803b158015611ecb57600080fd5b505afa158015611edf573d6000803e3d6000fd5b505050506040513d6020811015611ef557600080fd5b5051155b611f345760405162461bcd60e51b81526004018080602001828103825260368152602001806124fc6036913960400191505060405180910390fd5b604080516001600160a01b038416602482015260448082018490528251808303909101815260649091019091526020810180516001600160e01b031663095ea7b360e01b179052611f869084906120a5565b505050565b6000818311611f9a578161154f565b5090919050565b6000611fab6123da565b506001600160a01b038316600090815260086020908152604080832081518083019092528054808352600190910154928201929092529190611fee9085906122d4565b90506000612009836020015183611d8390919063ffffffff16565b90506120136123da565b506001600160a01b0386166000908152600960209081526040808320815180830190925280548083526001909101549282019290925291906120569088906122d4565b90506000612071836020015183611d8390919063ffffffff16565b9050612083848263ffffffff611b0c16565b9998505050505050505050565b600061154f8383670de0b6b3a7640000612317565b6120b7826001600160a01b031661233c565b612108576040805162461bcd60e51b815260206004820152601f60248201527f5361666545524332303a2063616c6c20746f206e6f6e2d636f6e747261637400604482015290519081900360640190fd5b60006060836001600160a01b0316836040518082805190602001908083835b602083106121465780518252601f199092019160209182019101612127565b6001836020036101000a0380198251168184511680821785525050505050509050019150506000604051808303816000865af19150503d80600081146121a8576040519150601f19603f3d011682016040523d82523d6000602084013e6121ad565b606091505b509150915081612204576040805162461bcd60e51b815260206004820181905260248201527f5361666545524332303a206c6f772d6c6576656c2063616c6c206661696c6564604482015290519081900360640190fd5b805115611b065780806020019051602081101561222057600080fd5b5051611b065760405162461bcd60e51b815260040180806020018281038252602a8152602001806124d2602a913960400191505060405180910390fd5b600061154f83836040518060400160405280601a81526020017f536166654d6174683a206469766973696f6e206279207a65726f000000000000815250612375565b6000806122ba84670de0b6b3a764000063ffffffff611d8316565b90506122cc818463ffffffff61225d16565b949350505050565b600042818382116122f6576122ef828663ffffffff61150d16565b90506122cc565b838510156122cc5761230e848663ffffffff61150d16565b95945050505050565b60008061232a858563ffffffff611d8316565b905061230e818463ffffffff61225d16565b6000813f7fc5d2460186f7233c927e7db2dcc703c0e500b653ca82273b7bfad8045d85a4708181148015906122cc575050151592915050565b600081836123c45760405162461bcd60e51b8152602060048201818152835160248401528351909283926044909101919085019080838360008315611e30578181015183820152602001611e18565b5060008385816123d057fe5b0495945050505050565b60405180604001604052806000815260200160008152509056fe0abcfa9ece819bcdcfa052a818ce11f0b9fad8b3e3ccd98f120c40be689b690f496e7465726573742070726f7465637465642066726f6d20696e666c6174696e672070617374203130204270734d757374206861766520612076616c696420736176696e677320636f6e74726163744f6e6c7920676f7665726e6f722063616e206578656375746500000000000000536166654d6174683a206d756c7469706c69636174696f6e206f766572666c6f77496e7465726573742070726f7465637465642066726f6d20696e666c6174696e672070617374206d61784150595361666545524332303a204552433230206f7065726174696f6e20646964206e6f7420737563636565645361666545524332303a20617070726f76652066726f6d206e6f6e2d7a65726f20746f206e6f6e2d7a65726f20616c6c6f77616e6365a265627a7a723158209af35c7b5217d778ad2db56c07124a2d66501cc39c47ae25174873fcd8d3a01764736f6c634300051000325361666545524332303a204552433230206f7065726174696f6e20646964206e6f7420737563636565645361666545524332303a20617070726f76652066726f6d206e6f6e2d7a65726f20746f206e6f6e2d7a65726f20616c6c6f77616e6365",
  "source": "pragma solidity 0.5.16;\n\n// External\nimport { IMix } from \"../interfaces/IMix.sol\";\nimport { ISavingsContractV1 } from \"../interfaces/ISavingsContract.sol\";\n\n// Internal\nimport { ISavingsManager, IRevenueRecipient } from \"../interfaces/ISavingsManager.sol\";\nimport { PausableModule } from \"../shared/PausableModule.sol\";\n\n// Libs\nimport { IERC20 }     from \"@openzeppelin/contracts/token/ERC20/IERC20.sol\";\nimport { SafeERC20 }  from \"@openzeppelin/contracts/token/ERC20/SafeERC20.sol\";\nimport { SafeMath } from \"@openzeppelin/contracts/math/SafeMath.sol\";\nimport { StableMath } from \"../shared/StableMath.sol\";\n\n/**\n * @title   SavingsManager\n * @author  Stability Labs Pty. Ltd.\n * @notice  Savings Manager collects interest from mIxs and sends them to the\n *          corresponding Savings Contract, performing some validation in the process.\n * @dev     VERSION: 1.3\n *          DATE:    2020-12-09\n */\ncontract SavingsManager is ISavingsManager, PausableModule {\n\n    using SafeMath for uint256;\n    using StableMath for uint256;\n    using SafeERC20 for IERC20;\n\n\n    // Core admin events\n    event RevenueRecipientSet(address indexed mIx, address recipient);\n    event SavingsContractAdded(address indexed mIx, address savingsContract);\n    event SavingsContractUpdated(address indexed mIx, address savingsContract);\n    event SavingsRateChanged(uint256 newSavingsRate);\n    event StreamsFrozen();\n    // Interest collection\n    event LiquidatorDeposited(address indexed mIx, uint256 amount);\n    event InterestCollected(address indexed mIx, uint256 interest, uint256 newTotalSupply, uint256 apy);\n    event InterestDistributed(address indexed mIx, uint256 amountSent);\n    event RevenueRedistributed(address indexed mIx, address recipient, uint256 amount);\n\n    // Locations of each mIx savings contract\n    mapping(address => ISavingsContractV1) public savingsContracts;\n    mapping(address => IRevenueRecipient) public revenueRecipients;\n    // Time at which last collection was made\n    mapping(address => uint256) public lastPeriodStart;\n    mapping(address => uint256) public lastCollection;\n    mapping(address => uint256) public periodYield;\n\n    // Amount of collected interest that will be sent to Savings Contract (100%)\n    uint256 private savingsRate = 1e18;\n    // Utils to help keep interest under check\n    uint256 constant private SECONDS_IN_YEAR = 365 days;\n    // Theoretical cap on APY to avoid excess inflation\n    uint256 constant private MAX_APY = 15e18;\n    uint256 constant private TEN_BPS = 1e15;\n    // Streaming liquidated tokens\n    uint256 private constant DURATION = 7 days;\n    uint256 private constant ONE_DAY = 1 days;\n    uint256 constant private THIRTY_MINUTES = 30 minutes;\n    // Streams\n    bool private streamsFrozen = false;\n    // Liquidator\n    mapping(address => Stream) public liqStream;\n    // Platform\n    mapping(address => Stream) public yieldStream;\n    // Batches are for the platformInterest collection\n    mapping(address => uint256) public lastBatchCollected;\n\n    enum StreamType {\n        liquidator,\n        yield\n    }\n\n    struct Stream {\n        uint256 end;\n        uint256 rate;\n    }\n\n    constructor(\n        address _nexus,\n        address _mUSD,\n        address _savingsContract\n    )\n        public\n        PausableModule(_nexus)\n    {\n        _updateSavingsContract(_mUSD, _savingsContract);\n        emit SavingsContractAdded(_mUSD, _savingsContract);\n    }\n\n    modifier onlyLiquidator() {\n        require(msg.sender == _liquidator(), \"Only liquidator can execute\");\n        _;\n    }\n\n    modifier whenStreamsNotFrozen() {\n        require(!streamsFrozen, \"Streaming is currently frozen\");\n        _;\n    }\n\n    /***************************************\n                    STATE\n    ****************************************/\n\n    /**\n     * @dev Adds a new savings contract\n     * @param _mIx           Address of underlying mIx\n     * @param _savingsContract  Address of the savings contract\n     */\n    function addSavingsContract(address _mIx, address _savingsContract)\n        external\n        onlyGovernor\n    {\n        require(address(savingsContracts[_mIx]) == address(0), \"Savings contract already exists\");\n        _updateSavingsContract(_mIx, _savingsContract);\n        emit SavingsContractAdded(_mIx, _savingsContract);\n    }\n\n    /**\n     * @dev Updates an existing savings contract\n     * @param _mIx           Address of underlying mIx\n     * @param _savingsContract  Address of the savings contract\n     */\n    function updateSavingsContract(address _mIx, address _savingsContract)\n        external\n        onlyGovernor\n    {\n        require(address(savingsContracts[_mIx]) != address(0), \"Savings contract does not exist\");\n        _updateSavingsContract(_mIx, _savingsContract);\n        emit SavingsContractUpdated(_mIx, _savingsContract);\n    }\n\n    function _updateSavingsContract(address _mIx, address _savingsContract)\n        internal\n    {\n        require(_mIx != address(0) && _savingsContract != address(0), \"Must be valid address\");\n        savingsContracts[_mIx] = ISavingsContractV1(_savingsContract);\n\n        IERC20(_mIx).safeApprove(address(_savingsContract), 0);\n        IERC20(_mIx).safeApprove(address(_savingsContract), uint256(-1));\n    }\n\n    /**\n     * @dev Freezes streaming of mIxs\n     */\n    function freezeStreams()\n        external\n        onlyGovernor\n        whenStreamsNotFrozen\n    {\n        streamsFrozen = true;\n\n        emit StreamsFrozen();\n    }\n\n    /**\n     * @dev Sets the revenue recipient address\n     * @param _mIx           Address of underlying mIx\n     * @param _recipient        Address of the recipient\n     */\n    function setRevenueRecipient(address _mIx, address _recipient)\n        external\n        onlyGovernor\n    {\n        revenueRecipients[_mIx] = IRevenueRecipient(_recipient);\n\n        emit RevenueRecipientSet(_mIx, _recipient);\n    }\n\n\n    /**\n     * @dev Sets a new savings rate for interest distribution\n     * @param _savingsRate   Rate of savings sent to SavingsContract (100% = 1e18)\n     */\n    function setSavingsRate(uint256 _savingsRate)\n        external\n        onlyGovernor\n    {\n        // Greater than 60% upto 100%\n        require(_savingsRate >= 6e17 && _savingsRate <= 1e18, \"Must be a valid rate\");\n        savingsRate = _savingsRate;\n        emit SavingsRateChanged(_savingsRate);\n    }\n\n    /**\n     * @dev Allows the liquidator to deposit proceeds from iquidated gov tokens.\n     * Transfers proceeds on a second by second basis to the Savings Contract over 1 week.\n     * @param _mIx The mIx to transfer and distribute\n     * @param _liquidated Units of mIx to distribute\n     */\n    function depositLiquidation(address _mIx, uint256 _liquidated)\n        external\n        whenNotPaused\n        onlyLiquidator\n        whenStreamsNotFrozen\n    {\n        // Collect existing interest to ensure everything is up to date\n        _collectAndDistributeInterest(_mIx);\n\n        // transfer liquidated mUSD to here\n        IERC20(_mIx).safeTransferFrom(_liquidator(), address(this), _liquidated);\n\n        uint256 leftover = _unstreamedRewards(_mIx, StreamType.liquidator);\n        _initialiseStream(_mIx, StreamType.liquidator, _liquidated.add(leftover), DURATION);\n\n        emit LiquidatorDeposited(_mIx, _liquidated);\n    }\n\n    /**\n     * @dev Collects the platform interest from a given mIx and then adds capital to the\n     * stream. If there is > 24h left in current stream, just top it up, otherwise reset.\n     * @param _mIx The mIx to fetch interest\n     */\n    function collectAndStreamInterest(address _mIx)\n        external\n        whenNotPaused\n        whenStreamsNotFrozen\n    {\n        // Collect existing interest to ensure everything is up to date\n        _collectAndDistributeInterest(_mIx);\n\n        uint256 currentTime = now;\n        uint256 previousBatch = lastBatchCollected[_mIx];\n        uint256 timeSincePreviousBatch = currentTime.sub(previousBatch);\n        require(timeSincePreviousBatch > 6 hours, \"Cannot deposit twice in 6 hours\");\n        lastBatchCollected[_mIx] = currentTime;\n\n        // Batch collect\n        (uint256 interestCollected, uint256 totalSupply) =  IMix(_mIx).collectPlatformInterest();\n\n        if(interestCollected > 0){\n            // Validate APY\n            uint256 apy = _validateCollection(totalSupply, interestCollected, timeSincePreviousBatch);\n\n            // Get remaining rewards\n            uint256 leftover = _unstreamedRewards(_mIx, StreamType.yield);\n            _initialiseStream(_mIx, StreamType.yield, interestCollected.add(leftover), ONE_DAY);\n\n            emit InterestCollected(_mIx, interestCollected, totalSupply, apy);\n        }\n\n        emit InterestCollected(_mIx, interestCollected, totalSupply, 0);\n    }\n\n    /**\n     * @dev Calculates how many rewards from the stream are still to be distributed, from the\n     * last collection time to the end of the stream.\n     * @param _mIx The mIx in question\n     * @return leftover The total amount of mIx that is yet to be collected from a stream\n     */\n    function _unstreamedRewards(address _mIx, StreamType _stream) internal view returns (uint256 leftover) {\n        uint256 lastUpdate = lastCollection[_mIx];\n\n        Stream memory stream = _stream == StreamType.liquidator ? liqStream[_mIx] : yieldStream[_mIx];\n        uint256 unclaimedSeconds = 0;\n        if(lastUpdate < stream.end){\n            unclaimedSeconds = stream.end.sub(lastUpdate);\n        }\n        return unclaimedSeconds.mul(stream.rate);\n    }\n\n    /**\n     * @dev Simply sets up the stream\n     * @param _mIx The mIx in question\n     * @param _amount Amount of units to stream\n     * @param _duration Duration of the stream, from now\n     */\n    function _initialiseStream(address _mIx, StreamType _stream, uint256 _amount, uint256 _duration) internal {\n        uint256 currentTime = now;\n        // Distribute reward per second over X seconds\n        uint256 rate = _amount.div(_duration);\n        uint256 end = currentTime.add(_duration);\n        if(_stream == StreamType.liquidator){\n            liqStream[_mIx] = Stream(end, rate);\n        } else {\n            yieldStream[_mIx] = Stream(end, rate);\n        }\n\n        // Reset pool data to enable lastCollection usage twice\n        require(lastCollection[_mIx] == currentTime, \"Stream data must be up to date\");\n    }\n\n    /***************************************\n                COLLECTION\n    ****************************************/\n\n    /**\n     * @dev Collects interest from a target mIx and distributes to the SavingsContract.\n     *      Applies constraints such that the max APY since the last fee collection cannot\n     *      exceed the \"MAX_APY\" variable.\n     * @param _mIx       mIx for which the interest should be collected\n     */\n    function collectAndDistributeInterest(address _mIx)\n        external\n        whenNotPaused\n    {\n        _collectAndDistributeInterest(_mIx);\n    }\n\n    function _collectAndDistributeInterest(address _mIx)\n        internal\n    {\n        ISavingsContractV1 savingsContract = savingsContracts[_mIx];\n        require(address(savingsContract) != address(0), \"Must have a valid savings contract\");\n\n        // Get collection details\n        uint256 recentPeriodStart = lastPeriodStart[_mIx];\n        uint256 previousCollection = lastCollection[_mIx];\n        lastCollection[_mIx] = now;\n\n        // 1. Collect the new interest from the mIx\n        IMix mIx = IMix(_mIx);\n        (uint256 interestCollected, uint256 totalSupply) = mIx.collectInterest();\n\n        // 2. Update all the time stamps\n        //    Avoid division by 0 by adding a minimum elapsed time of 1 second\n        uint256 timeSincePeriodStart = StableMath.max(1, now.sub(recentPeriodStart));\n        uint256 timeSinceLastCollection = StableMath.max(1, now.sub(previousCollection));\n\n        uint256 inflationOperand = interestCollected;\n        //    If it has been 30 mins since last collection, reset period data\n        if(timeSinceLastCollection > THIRTY_MINUTES) {\n            lastPeriodStart[_mIx] = now;\n            periodYield[_mIx] = 0;\n        }\n        //    Else if period has elapsed, start a new period from the lastCollection time\n        else if(timeSincePeriodStart > THIRTY_MINUTES) {\n            lastPeriodStart[_mIx] = previousCollection;\n            periodYield[_mIx] = interestCollected;\n        }\n        //    Else add yield to period yield\n        else {\n            inflationOperand = periodYield[_mIx].add(interestCollected);\n            periodYield[_mIx] = inflationOperand;\n        }\n\n        //    Add on liquidated\n        uint256 newReward = _unclaimedRewards(_mIx, previousCollection);\n        // 3. Validate that interest is collected correctly and does not exceed max APY\n        if(interestCollected > 0 || newReward > 0) {\n            require(\n                IERC20(_mIx).balanceOf(address(this)) >= interestCollected.add(newReward),\n                \"Must receive mUSD\"\n            );\n\n            uint256 extrapolatedAPY = _validateCollection(totalSupply, inflationOperand, timeSinceLastCollection);\n\n            emit InterestCollected(_mIx, interestCollected, totalSupply, extrapolatedAPY);\n\n            // 4. Distribute the interest\n            //    Calculate the share for savers (95e16 or 95%)\n            uint256 saversShare = interestCollected.add(newReward).mulTruncate(savingsRate);\n\n            //    Call depositInterest on contract\n            savingsContract.depositInterest(saversShare);\n\n            emit InterestDistributed(_mIx, saversShare);\n        } else {\n            emit InterestCollected(_mIx, 0, totalSupply, 0);\n        }\n    }\n\n    /**\n     * @dev Calculates unclaimed rewards from the liquidation stream\n     * @param _mIx mIx key\n     * @param _previousCollection Time of previous collection\n     * @return Units of mIx that have been unlocked for distribution\n     */\n    function _unclaimedRewards(address _mIx, uint256 _previousCollection) internal view returns (uint256) {\n        Stream memory liq = liqStream[_mIx];\n        uint256 unclaimedSeconds_liq = _unclaimedSeconds(_previousCollection, liq.end);\n        uint256 subtotal_liq = unclaimedSeconds_liq.mul(liq.rate);\n\n        Stream memory yield = yieldStream[_mIx];\n        uint256 unclaimedSeconds_yield = _unclaimedSeconds(_previousCollection, yield.end);\n        uint256 subtotal_yield = unclaimedSeconds_yield.mul(yield.rate);\n\n        return subtotal_liq.add(subtotal_yield);\n    }\n\n    /**\n     * @dev Calculates the seconds of unclaimed rewards, based on period length\n     * @param _lastUpdate Time of last update\n     * @param _end End time of period\n     * @return Seconds of stream that should be compensated\n     */\n    function _unclaimedSeconds(uint256 _lastUpdate, uint256 _end) internal view returns (uint256) {\n        uint256 currentTime = block.timestamp;\n        uint256 unclaimedSeconds = 0;\n\n        if(currentTime <= _end){\n            unclaimedSeconds = currentTime.sub(_lastUpdate);\n        } else if(_lastUpdate < _end) {\n            unclaimedSeconds = _end.sub(_lastUpdate);\n        }\n        return unclaimedSeconds;\n    }\n\n    /**\n     * @dev Validates that an interest collection does not exceed a maximum APY. If last collection\n     * was under 30 mins ago, simply check it does not exceed 10bps\n     * @param _newSupply               New total supply of the mIx\n     * @param _interest                Increase in total supply since last collection\n     * @param _timeSinceLastCollection Seconds since last collection\n     */\n    function _validateCollection(uint256 _newSupply, uint256 _interest, uint256 _timeSinceLastCollection)\n        internal\n        pure\n        returns (uint256 extrapolatedAPY)\n    {\n        // Percentage increase in total supply\n        // e.g. (1e20 * 1e18) / 1e24 = 1e14 (or a 0.01% increase)\n        // e.g. (5e18 * 1e18) / 1.2e24 = 4.1667e12\n        // e.g. (1e19 * 1e18) / 1e21 = 1e16\n        uint256 oldSupply = _newSupply.sub(_interest);\n        uint256 percentageIncrease = _interest.divPrecisely(oldSupply);\n\n        //      If over 30 mins, extrapolate APY\n        // e.g. day: (86400 * 1e18) / 3.154e7 = 2.74..e15\n        // e.g. 30 mins: (1800 * 1e18) / 3.154e7 = 5.7..e13\n        // e.g. epoch: (1593596907 * 1e18) / 3.154e7 = 50.4..e18\n        uint256 yearsSinceLastCollection =\n            _timeSinceLastCollection.divPrecisely(SECONDS_IN_YEAR);\n\n        // e.g. 0.01% (1e14 * 1e18) / 2.74..e15 = 3.65e16 or 3.65% apr\n        // e.g. (4.1667e12 * 1e18) / 5.7..e13 = 7.1e16 or 7.1% apr\n        // e.g. (1e16 * 1e18) / 50e18 = 2e14\n        extrapolatedAPY = percentageIncrease.divPrecisely(yearsSinceLastCollection);\n\n        if(_timeSinceLastCollection > THIRTY_MINUTES) {\n            require(extrapolatedAPY < MAX_APY, \"Interest protected from inflating past maxAPY\");\n        } else {\n            require(percentageIncrease < TEN_BPS, \"Interest protected from inflating past 10 Bps\");\n        }\n    }\n\n\n    /***************************************\n            Revenue Redistribution\n    ****************************************/\n\n    /**\n     * @dev Redistributes the unallocated interest to the saved recipient, allowing\n     * the siphoned assets to be used elsewhere in the system\n     * @param _mIx  mIx to collect\n     */\n    function distributeUnallocatedInterest(address _mIx)\n        external\n        onlyGovernance\n    {\n        IRevenueRecipient recipient = revenueRecipients[_mIx];\n        require(address(recipient) != address(0), \"Must have valid recipient\");\n\n        IERC20 mIx = IERC20(_mIx);\n        uint256 balance = mIx.balanceOf(address(this));\n        uint256 leftover_liq = _unstreamedRewards(_mIx, StreamType.liquidator);\n        uint256 leftover_yield = _unstreamedRewards(_mIx, StreamType.yield);\n\n        uint256 unallocated = balance.sub(leftover_liq).sub(leftover_yield);\n\n        mIx.approve(address(recipient), unallocated);\n        recipient.notifyRedistributionAmount(_mIx, unallocated);\n\n        emit RevenueRedistributed(_mIx, address(recipient), unallocated);\n    }\n}\n",
  "sourcePath": "/Volumes/sdxc/ETHEREUM/CODE/mStable-v1-edit/contracts/savings/SavingsManager.sol",
  "compiler": {
    "name": "solc",
    "version": "0.5.16+commit.9c3226ce.Emscripten.clang"
  },
  "schemaVersion": "3.1.0",
  "updatedAt": "2021-03-11T05:43:16.117Z",
  "devdoc": {
    "author": "Stability Labs Pty. Ltd.",
    "details": "VERSION: 1.3         DATE:    2020-12-09",
    "methods": {
      "addSavingsContract(address,address)": {
        "details": "Adds a new savings contract",
        "params": {
          "_mIx": "Address of underlying mIx",
          "_savingsContract": "Address of the savings contract"
        }
      },
      "collectAndDistributeInterest(address)": {
        "details": "Collects interest from a target mIx and distributes to the SavingsContract.     Applies constraints such that the max APY since the last fee collection cannot     exceed the \"MAX_APY\" variable.",
        "params": {
          "_mIx": "mIx for which the interest should be collected"
        }
      },
      "collectAndStreamInterest(address)": {
        "details": "Collects the platform interest from a given mIx and then adds capital to the stream. If there is > 24h left in current stream, just top it up, otherwise reset.",
        "params": {
          "_mIx": "The mIx to fetch interest"
        }
      },
      "depositLiquidation(address,uint256)": {
        "details": "Allows the liquidator to deposit proceeds from iquidated gov tokens. Transfers proceeds on a second by second basis to the Savings Contract over 1 week.",
        "params": {
          "_liquidated": "Units of mIx to distribute",
          "_mIx": "The mIx to transfer and distribute"
        }
      },
      "distributeUnallocatedInterest(address)": {
        "details": "Redistributes the unallocated interest to the saved recipient, allowing the siphoned assets to be used elsewhere in the system",
        "params": {
          "_mIx": "mIx to collect"
        }
      },
      "freezeStreams()": {
        "details": "Freezes streaming of mIxs"
      },
      "pause()": {
        "details": "Called by the Governor to pause, triggers stopped state."
      },
      "paused()": {
        "details": "Returns true if the contract is paused, and false otherwise.",
        "return": "Returns `true` when paused, otherwise `false`"
      },
      "setRevenueRecipient(address,address)": {
        "details": "Sets the revenue recipient address",
        "params": {
          "_mIx": "Address of underlying mIx",
          "_recipient": "Address of the recipient"
        }
      },
      "setSavingsRate(uint256)": {
        "details": "Sets a new savings rate for interest distribution",
        "params": {
          "_savingsRate": "Rate of savings sent to SavingsContract (100% = 1e18)"
        }
      },
      "unpause()": {
        "details": "Called by Governor to unpause, returns to normal state."
      },
      "updateSavingsContract(address,address)": {
        "details": "Updates an existing savings contract",
        "params": {
          "_mIx": "Address of underlying mIx",
          "_savingsContract": "Address of the savings contract"
        }
      }
    },
    "title": "SavingsManager"
  },
  "userdoc": {
    "methods": {},
    "notice": "Savings Manager collects interest from mIxs and sends them to the         corresponding Savings Contract, performing some validation in the process."
  }
}