{
  "contractName": "StakingRewards",
  "abi": [
    {
      "inputs": [
        {
          "internalType": "address",
          "name": "_nexus",
          "type": "address"
        },
        {
          "internalType": "address",
          "name": "_stakingToken",
          "type": "address"
        },
        {
          "internalType": "address",
          "name": "_rewardsToken",
          "type": "address"
        },
        {
          "internalType": "address",
          "name": "_rewardsDistributor",
          "type": "address"
        }
      ],
      "payable": false,
      "stateMutability": "nonpayable",
      "type": "constructor"
    },
    {
      "anonymous": false,
      "inputs": [
        {
          "indexed": false,
          "internalType": "uint256",
          "name": "reward",
          "type": "uint256"
        }
      ],
      "name": "RewardAdded",
      "type": "event"
    },
    {
      "anonymous": false,
      "inputs": [
        {
          "indexed": true,
          "internalType": "address",
          "name": "user",
          "type": "address"
        },
        {
          "indexed": false,
          "internalType": "uint256",
          "name": "reward",
          "type": "uint256"
        }
      ],
      "name": "RewardPaid",
      "type": "event"
    },
    {
      "anonymous": false,
      "inputs": [
        {
          "indexed": true,
          "internalType": "address",
          "name": "user",
          "type": "address"
        },
        {
          "indexed": false,
          "internalType": "uint256",
          "name": "amount",
          "type": "uint256"
        },
        {
          "indexed": false,
          "internalType": "address",
          "name": "payer",
          "type": "address"
        }
      ],
      "name": "Staked",
      "type": "event"
    },
    {
      "anonymous": false,
      "inputs": [
        {
          "indexed": true,
          "internalType": "address",
          "name": "user",
          "type": "address"
        },
        {
          "indexed": false,
          "internalType": "uint256",
          "name": "amount",
          "type": "uint256"
        }
      ],
      "name": "Withdrawn",
      "type": "event"
    },
    {
      "constant": true,
      "inputs": [],
      "name": "DURATION",
      "outputs": [
        {
          "internalType": "uint256",
          "name": "",
          "type": "uint256"
        }
      ],
      "payable": false,
      "stateMutability": "view",
      "type": "function"
    },
    {
      "constant": true,
      "inputs": [
        {
          "internalType": "address",
          "name": "_account",
          "type": "address"
        }
      ],
      "name": "balanceOf",
      "outputs": [
        {
          "internalType": "uint256",
          "name": "",
          "type": "uint256"
        }
      ],
      "payable": false,
      "stateMutability": "view",
      "type": "function"
    },
    {
      "constant": true,
      "inputs": [],
      "name": "lastUpdateTime",
      "outputs": [
        {
          "internalType": "uint256",
          "name": "",
          "type": "uint256"
        }
      ],
      "payable": false,
      "stateMutability": "view",
      "type": "function"
    },
    {
      "constant": true,
      "inputs": [],
      "name": "nexus",
      "outputs": [
        {
          "internalType": "contract INexus",
          "name": "",
          "type": "address"
        }
      ],
      "payable": false,
      "stateMutability": "view",
      "type": "function"
    },
    {
      "constant": true,
      "inputs": [],
      "name": "periodFinish",
      "outputs": [
        {
          "internalType": "uint256",
          "name": "",
          "type": "uint256"
        }
      ],
      "payable": false,
      "stateMutability": "view",
      "type": "function"
    },
    {
      "constant": true,
      "inputs": [],
      "name": "rewardPerTokenStored",
      "outputs": [
        {
          "internalType": "uint256",
          "name": "",
          "type": "uint256"
        }
      ],
      "payable": false,
      "stateMutability": "view",
      "type": "function"
    },
    {
      "constant": true,
      "inputs": [],
      "name": "rewardRate",
      "outputs": [
        {
          "internalType": "uint256",
          "name": "",
          "type": "uint256"
        }
      ],
      "payable": false,
      "stateMutability": "view",
      "type": "function"
    },
    {
      "constant": true,
      "inputs": [
        {
          "internalType": "address",
          "name": "",
          "type": "address"
        }
      ],
      "name": "rewards",
      "outputs": [
        {
          "internalType": "uint256",
          "name": "",
          "type": "uint256"
        }
      ],
      "payable": false,
      "stateMutability": "view",
      "type": "function"
    },
    {
      "constant": true,
      "inputs": [],
      "name": "rewardsDistributor",
      "outputs": [
        {
          "internalType": "address",
          "name": "",
          "type": "address"
        }
      ],
      "payable": false,
      "stateMutability": "view",
      "type": "function"
    },
    {
      "constant": true,
      "inputs": [],
      "name": "rewardsToken",
      "outputs": [
        {
          "internalType": "contract IERC20",
          "name": "",
          "type": "address"
        }
      ],
      "payable": false,
      "stateMutability": "view",
      "type": "function"
    },
    {
      "constant": false,
      "inputs": [
        {
          "internalType": "address",
          "name": "_rewardsDistributor",
          "type": "address"
        }
      ],
      "name": "setRewardsDistribution",
      "outputs": [],
      "payable": false,
      "stateMutability": "nonpayable",
      "type": "function"
    },
    {
      "constant": true,
      "inputs": [],
      "name": "stakingToken",
      "outputs": [
        {
          "internalType": "contract IERC20",
          "name": "",
          "type": "address"
        }
      ],
      "payable": false,
      "stateMutability": "view",
      "type": "function"
    },
    {
      "constant": true,
      "inputs": [],
      "name": "totalSupply",
      "outputs": [
        {
          "internalType": "uint256",
          "name": "",
          "type": "uint256"
        }
      ],
      "payable": false,
      "stateMutability": "view",
      "type": "function"
    },
    {
      "constant": true,
      "inputs": [
        {
          "internalType": "address",
          "name": "",
          "type": "address"
        }
      ],
      "name": "userRewardPerTokenPaid",
      "outputs": [
        {
          "internalType": "uint256",
          "name": "",
          "type": "uint256"
        }
      ],
      "payable": false,
      "stateMutability": "view",
      "type": "function"
    },
    {
      "constant": false,
      "inputs": [
        {
          "internalType": "uint256",
          "name": "_amount",
          "type": "uint256"
        }
      ],
      "name": "stake",
      "outputs": [],
      "payable": false,
      "stateMutability": "nonpayable",
      "type": "function"
    },
    {
      "constant": false,
      "inputs": [
        {
          "internalType": "address",
          "name": "_beneficiary",
          "type": "address"
        },
        {
          "internalType": "uint256",
          "name": "_amount",
          "type": "uint256"
        }
      ],
      "name": "stake",
      "outputs": [],
      "payable": false,
      "stateMutability": "nonpayable",
      "type": "function"
    },
    {
      "constant": false,
      "inputs": [],
      "name": "exit",
      "outputs": [],
      "payable": false,
      "stateMutability": "nonpayable",
      "type": "function"
    },
    {
      "constant": false,
      "inputs": [
        {
          "internalType": "uint256",
          "name": "_amount",
          "type": "uint256"
        }
      ],
      "name": "withdraw",
      "outputs": [],
      "payable": false,
      "stateMutability": "nonpayable",
      "type": "function"
    },
    {
      "constant": false,
      "inputs": [],
      "name": "claimReward",
      "outputs": [],
      "payable": false,
      "stateMutability": "nonpayable",
      "type": "function"
    },
    {
      "constant": true,
      "inputs": [],
      "name": "getRewardToken",
      "outputs": [
        {
          "internalType": "contract IERC20",
          "name": "",
          "type": "address"
        }
      ],
      "payable": false,
      "stateMutability": "view",
      "type": "function"
    },
    {
      "constant": true,
      "inputs": [],
      "name": "lastTimeRewardApplicable",
      "outputs": [
        {
          "internalType": "uint256",
          "name": "",
          "type": "uint256"
        }
      ],
      "payable": false,
      "stateMutability": "view",
      "type": "function"
    },
    {
      "constant": true,
      "inputs": [],
      "name": "rewardPerToken",
      "outputs": [
        {
          "internalType": "uint256",
          "name": "",
          "type": "uint256"
        }
      ],
      "payable": false,
      "stateMutability": "view",
      "type": "function"
    },
    {
      "constant": true,
      "inputs": [
        {
          "internalType": "address",
          "name": "_account",
          "type": "address"
        }
      ],
      "name": "earned",
      "outputs": [
        {
          "internalType": "uint256",
          "name": "",
          "type": "uint256"
        }
      ],
      "payable": false,
      "stateMutability": "view",
      "type": "function"
    },
    {
      "constant": false,
      "inputs": [
        {
          "internalType": "uint256",
          "name": "_reward",
          "type": "uint256"
        }
      ],
      "name": "notifyRewardAmount",
      "outputs": [],
      "payable": false,
      "stateMutability": "nonpayable",
      "type": "function"
    }
  ],
  "bytecode": "0x6080604052600060065560006007556000600855600060095534801561002457600080fd5b506040516114803803806114808339818101604052608081101561004757600080fd5b50805160208201516040830151606090930151600080546001600160a01b0380851661010002610100600160a81b031960ff1990931660011792909216919091179091559293919284908290829081166100e8576040805162461bcd60e51b815260206004820152601560248201527f4e65787573206973207a65726f20616464726573730000000000000000000000604482015290519081900360640190fd5b600380546001600160a01b03199081166001600160a01b0393841617909155600480548216938316939093179092556005805490921694169390931790925550611343925082915061013d90506000396000f3fe608060405234801561001057600080fd5b50600436106101575760003560e01c806380faa57d116100c3578063c8f33c911161007c578063c8f33c9114610315578063cd3daf9d1461031d578063d1af0c7d14610325578063df136d651461032d578063e9fad8ee14610335578063ebe2b12b1461033d57610157565b806380faa57d1461028e5780638b87634714610296578063a3f5c1d2146102bc578063a694fc3a146102c4578063adc9772e146102e1578063b88a802f1461030d57610157565b80633c6b16ab116101155780633c6b16ab1461020f5780633f2a55401461022c57806369940d791461025057806370a082311461025857806372f702f31461027e5780637b0a47ee1461028657610157565b80628cc2621461015c5780630700037d1461019457806318160ddd146101ba57806319762143146101c25780631be05289146101ea5780632e1a7d4d146101f2575b600080fd5b6101826004803603602081101561017257600080fd5b50356001600160a01b0316610345565b60408051918252519081900360200190f35b610182600480360360208110156101aa57600080fd5b50356001600160a01b031661035e565b610182610370565b6101e8600480360360208110156101d857600080fd5b50356001600160a01b0316610376565b005b610182610405565b6101e86004803603602081101561020857600080fd5b503561040c565b6101e86004803603602081101561022557600080fd5b50356104fc565b6102346106db565b604080516001600160a01b039092168252519081900360200190f35b6102346106ea565b6101826004803603602081101561026e57600080fd5b50356001600160a01b03166106f9565b610234610714565b610182610728565b61018261072e565b610182600480360360208110156102ac57600080fd5b50356001600160a01b0316610741565b610234610753565b6101e8600480360360208110156102da57600080fd5b5035610762565b6101e8600480360360408110156102f757600080fd5b506001600160a01b03813516906020013561076f565b6101e861077d565b61018261085b565b610182610861565b610234610873565b610182610882565b6101e8610888565b6101826108a3565b600061035882610353610861565b6108a9565b92915050565b600b6020526000908152604090205481565b60015490565b61037e61094c565b6001600160a01b0316336001600160a01b0316146103e3576040805162461bcd60e51b815260206004820152601960248201527f4f6e6c7920676f7665726e6f722063616e206578656375746500000000000000604482015290519081900360640190fd5b600480546001600160a01b0319166001600160a01b0392909216919091179055565b62093a8081565b336000806104186109c2565b9092509050811561046e57600982905560088190556001600160a01b0383161561046e5761044683836108a9565b6001600160a01b0384166000908152600b6020908152604080832093909355600a9052208290555b600084116104b7576040805162461bcd60e51b8152602060048201526011602482015270043616e6e6f74207769746864726177203607c1b604482015290519081900360640190fd5b6104c084610a77565b60408051858152905133917f7084f5476618d8e60b11ef0d7d3f06914655adb8793e28ff7f018d4c76d505d5919081900360200190a250505050565b6004546001600160a01b0316331461055b576040805162461bcd60e51b815260206004820181905260248201527f43616c6c6572206973206e6f7420726577617264206469737472696275746f72604482015290519081900360640190fd5b60008060006105686109c2565b909250905081156105be57600982905560088190556001600160a01b038316156105be5761059683836108a9565b6001600160a01b0384166000908152600b6020908152604080832093909355600a9052208290555b69d3c21bcecceda100000084106106065760405162461bcd60e51b815260040180806020018281038252602c815260200180611298602c913960400191505060405180910390fd5b6006544290811061062c576106248562093a8063ffffffff610b5316565b600755610686565b600654600090610642908363ffffffff610b9c16565b9050600061065b60075483610bde90919063ffffffff16565b905061068062093a80610674898463ffffffff610c3716565b9063ffffffff610b5316565b60075550505b600881905561069e8162093a8063ffffffff610c3716565b6006556040805186815290517fde88a922e0d3b88b24e9623efeb464919c6bf9f66857a65e2bfcf2ce87a9433d9181900360200190a15050505050565b6004546001600160a01b031681565b6005546001600160a01b031690565b6001600160a01b031660009081526002602052604090205490565b60005461010090046001600160a01b031681565b60075481565b600061073c42600654610c91565b905090565b600a6020526000908152604090205481565b6003546001600160a01b031681565b61076c3382610ca6565b50565b6107798282610ca6565b5050565b336000806107896109c2565b909250905081156107df57600982905560088190556001600160a01b038316156107df576107b783836108a9565b6001600160a01b0384166000908152600b6020908152604080832093909355600a9052208290555b336000908152600b6020526040902054801561085557336000818152600b602052604081205560055461081e916001600160a01b039091169083610da1565b60408051828152905133917fe2403640ba68fed3a2f88b7557551d1993f84b99bb10ff833f0cf8db0c5e0486919081900360200190a25b50505050565b60085481565b60008061086c6109c2565b5091505090565b6005546001600160a01b031681565b60095481565b610899610894336106f9565b61040c565b6108a161077d565b565b60065481565b6001600160a01b0382166000908152600a602052604081205481906108d590849063ffffffff610b9c16565b9050806108fc5750506001600160a01b0382166000908152600b6020526040902054610358565b60006109178261090b876106f9565b9063ffffffff610df816565b6001600160a01b0386166000908152600b6020526040902054909150610943908263ffffffff610c3716565b95945050505050565b6003546040805163030d028960e21b815290516000926001600160a01b031691630c340a24916004808301926020929190829003018186803b15801561099157600080fd5b505afa1580156109a5573d6000803e3d6000fd5b505050506040513d60208110156109bb57600080fd5b5051905090565b60008060006109cf61072e565b905060006109e860085483610b9c90919063ffffffff16565b9050806109fc575060095492509050610a73565b600754600090610a12908363ffffffff610bde16565b90506000610a1e610370565b9050801580610a2b575081155b15610a4157600954849550955050505050610a73565b6000610a53838363ffffffff610e0d16565b600954909150610a69908263ffffffff610c3716565b9650939450505050505b9091565b60005460ff16610ace576040805162461bcd60e51b815260206004820152601f60248201527f5265656e7472616e637947756172643a207265656e7472616e742063616c6c00604482015290519081900360640190fd5b6000805460ff19169055600154610aeb908263ffffffff610b9c16565b60015533600090815260026020526040902054610b0e908263ffffffff610b9c16565b336000818152600260205260408120929092559054610b43916101009091046001600160a01b0316908363ffffffff610da116565b506000805460ff19166001179055565b6000610b9583836040518060400160405280601a81526020017f536166654d6174683a206469766973696f6e206279207a65726f000000000000815250610e42565b9392505050565b6000610b9583836040518060400160405280601e81526020017f536166654d6174683a207375627472616374696f6e206f766572666c6f770000815250610ee4565b600082610bed57506000610358565b82820282848281610bfa57fe5b0414610b955760405162461bcd60e51b81526004018080602001828103825260218152602001806112c46021913960400191505060405180910390fd5b600082820183811015610b95576040805162461bcd60e51b815260206004820152601b60248201527f536166654d6174683a206164646974696f6e206f766572666c6f770000000000604482015290519081900360640190fd5b6000818311610ca05782610b95565b50919050565b81600080610cb26109c2565b90925090508115610d0857600982905560088190556001600160a01b03831615610d0857610ce083836108a9565b6001600160a01b0384166000908152600b6020908152604080832093909355600a9052208290555b60008411610d4e576040805162461bcd60e51b815260206004820152600e60248201526d043616e6e6f74207374616b6520360941b604482015290519081900360640190fd5b610d588585610f3e565b6040805185815233602082015281516001600160a01b038816927f9f9e4044c5742cca66ca090b21552bac14645e68bad7a92364a9d9ff18111a1c928290030190a25050505050565b604080516001600160a01b038416602482015260448082018490528251808303909101815260649091019091526020810180516001600160e01b031663a9059cbb60e01b179052610df3908490611027565b505050565b6000610b958383670de0b6b3a76400006111df565b600080610e2884670de0b6b3a764000063ffffffff610bde16565b9050610e3a818463ffffffff610b5316565b949350505050565b60008183610ece5760405162461bcd60e51b81526004018080602001828103825283818151815260200191508051906020019080838360005b83811015610e93578181015183820152602001610e7b565b50505050905090810190601f168015610ec05780820380516001836020036101000a031916815260200191505b509250505060405180910390fd5b506000838581610eda57fe5b0495945050505050565b60008184841115610f365760405162461bcd60e51b8152602060048201818152835160248401528351909283926044909101919085019080838360008315610e93578181015183820152602001610e7b565b505050900390565b60005460ff16610f95576040805162461bcd60e51b815260206004820152601f60248201527f5265656e7472616e637947756172643a207265656e7472616e742063616c6c00604482015290519081900360640190fd5b6000805460ff19169055600154610fb2908263ffffffff610c3716565b6001556001600160a01b038216600090815260026020526040902054610fde908263ffffffff610c3716565b6001600160a01b038084166000908152600260205260408120929092559054611016916101009091041633308463ffffffff61120416565b50506000805460ff19166001179055565b611039826001600160a01b031661125e565b61108a576040805162461bcd60e51b815260206004820152601f60248201527f5361666545524332303a2063616c6c20746f206e6f6e2d636f6e747261637400604482015290519081900360640190fd5b60006060836001600160a01b0316836040518082805190602001908083835b602083106110c85780518252601f1990920191602091820191016110a9565b6001836020036101000a0380198251168184511680821785525050505050509050019150506000604051808303816000865af19150503d806000811461112a576040519150601f19603f3d011682016040523d82523d6000602084013e61112f565b606091505b509150915081611186576040805162461bcd60e51b815260206004820181905260248201527f5361666545524332303a206c6f772d6c6576656c2063616c6c206661696c6564604482015290519081900360640190fd5b805115610855578080602001905160208110156111a257600080fd5b50516108555760405162461bcd60e51b815260040180806020018281038252602a8152602001806112e5602a913960400191505060405180910390fd5b6000806111f2858563ffffffff610bde16565b9050610943818463ffffffff610b5316565b604080516001600160a01b0385811660248301528416604482015260648082018490528251808303909101815260849091019091526020810180516001600160e01b03166323b872dd60e01b179052610855908590611027565b6000813f7fc5d2460186f7233c927e7db2dcc703c0e500b653ca82273b7bfad8045d85a470818114801590610e3a57505015159291505056fe43616e6e6f74206e6f746966792077697468206d6f7265207468616e2061206d696c6c696f6e20756e697473536166654d6174683a206d756c7469706c69636174696f6e206f766572666c6f775361666545524332303a204552433230206f7065726174696f6e20646964206e6f742073756363656564a265627a7a72315820de706e98f45f41a6936a45c614bba010237b9eaa1859ed61243e9e1c4e5763fc64736f6c63430005100032",
  "source": "pragma solidity 0.5.16;\n\n// Internal\nimport { StakingTokenWrapper } from \"./StakingTokenWrapper.sol\";\nimport { RewardsDistributionRecipient } from \"../RewardsDistributionRecipient.sol\";\n\n// Libs\nimport { IERC20 } from \"@openzeppelin/contracts/token/ERC20/SafeERC20.sol\";\nimport { StableMath } from \"../../shared/StableMath.sol\";\n\n\n/**\n * @title  StakingRewards\n * @author Originally: Synthetix (forked from /Synthetixio/synthetix/contracts/StakingRewards.sol)\n *         Audit: https://github.com/sigp/public-audits/blob/master/synthetix/unipool/review.pdf\n *         Changes by: Stability Labs Pty. Ltd.\n * @notice Rewards stakers of a given LP token (a.k.a StakingToken) with RewardsToken, on a pro-rata basis\n * @dev    Uses an ever increasing 'rewardPerTokenStored' variable to distribute rewards\n * each time a write action is called in the contract. This allows for passive reward accrual.\n *         Changes:\n *           - Cosmetic (comments, readability)\n *           - Addition of getRewardToken()\n *           - Changing of `StakingTokenWrapper` funcs from `super.stake` to `_stake`\n *           - Introduced a `stake(_beneficiary)` function to enable contract wrappers to stake on behalf\n */\ncontract StakingRewards is StakingTokenWrapper, RewardsDistributionRecipient {\n\n    using StableMath for uint256;\n\n    IERC20 public rewardsToken;\n\n    uint256 public constant DURATION = 7 days;\n\n    // Timestamp for current period finish\n    uint256 public periodFinish = 0;\n    // RewardRate for the rest of the PERIOD\n    uint256 public rewardRate = 0;\n    // Last time any user took action\n    uint256 public lastUpdateTime = 0;\n    // Ever increasing rewardPerToken rate, based on % of total supply\n    uint256 public rewardPerTokenStored = 0;\n    mapping(address => uint256) public userRewardPerTokenPaid;\n    mapping(address => uint256) public rewards;\n\n    event RewardAdded(uint256 reward);\n    event Staked(address indexed user, uint256 amount, address payer);\n    event Withdrawn(address indexed user, uint256 amount);\n    event RewardPaid(address indexed user, uint256 reward);\n\n    /** @dev StakingRewards is a TokenWrapper and RewardRecipient */\n    constructor(\n        address _nexus,\n        address _stakingToken,\n        address _rewardsToken,\n        address _rewardsDistributor\n    )\n        public\n        StakingTokenWrapper(_stakingToken)\n        RewardsDistributionRecipient(_nexus, _rewardsDistributor)\n    {\n        rewardsToken = IERC20(_rewardsToken);\n    }\n\n    /** @dev Updates the reward for a given address, before executing function */\n    modifier updateReward(address _account) {\n        // Setting of global vars\n        (uint256 newRewardPerToken, uint256 lastApplicableTime) = _rewardPerToken();\n        // If statement protects against loss in initialisation case\n        if(newRewardPerToken > 0) {\n            rewardPerTokenStored = newRewardPerToken;\n            lastUpdateTime = lastApplicableTime;\n            // Setting of personal vars based on new globals\n            if (_account != address(0)) {\n                rewards[_account] = _earned(_account, newRewardPerToken);\n                userRewardPerTokenPaid[_account] = newRewardPerToken;\n            }\n        }\n        _;\n    }\n\n    /***************************************\n                    ACTIONS\n    ****************************************/\n\n    /**\n     * @dev Stakes a given amount of the StakingToken for the sender\n     * @param _amount Units of StakingToken\n     */\n    function stake(uint256 _amount)\n        external\n    {\n        _stake(msg.sender, _amount);\n    }\n\n    /**\n     * @dev Stakes a given amount of the StakingToken for a given beneficiary\n     * @param _beneficiary Staked tokens are credited to this address\n     * @param _amount      Units of StakingToken\n     */\n    function stake(address _beneficiary, uint256 _amount)\n        external\n    {\n        _stake(_beneficiary, _amount);\n    }\n\n    /**\n     * @dev Internally stakes an amount by depositing from sender,\n     * and crediting to the specified beneficiary\n     * @param _beneficiary Staked tokens are credited to this address\n     * @param _amount      Units of StakingToken\n     */\n    function _stake(address _beneficiary, uint256 _amount)\n        internal\n        updateReward(_beneficiary)\n    {\n        require(_amount > 0, \"Cannot stake 0\");\n        super._stake(_beneficiary, _amount);\n        emit Staked(_beneficiary, _amount, msg.sender);\n    }\n\n    /**\n     * @dev Withdraws stake from pool and claims any rewards\n     */\n    function exit() external {\n        withdraw(balanceOf(msg.sender));\n        claimReward();\n    }\n\n    /**\n     * @dev Withdraws given stake amount from the pool\n     * @param _amount Units of the staked token to withdraw\n     */\n    function withdraw(uint256 _amount)\n        public\n        updateReward(msg.sender)\n    {\n        require(_amount > 0, \"Cannot withdraw 0\");\n        _withdraw(_amount);\n        emit Withdrawn(msg.sender, _amount);\n    }\n\n    /**\n     * @dev Claims outstanding rewards for the sender.\n     * First updates outstanding reward allocation and then transfers.\n     */\n    function claimReward()\n        public\n        updateReward(msg.sender)\n    {\n        uint256 reward = rewards[msg.sender];\n        if (reward > 0) {\n            rewards[msg.sender] = 0;\n            rewardsToken.safeTransfer(msg.sender, reward);\n            emit RewardPaid(msg.sender, reward);\n        }\n    }\n\n\n    /***************************************\n                    GETTERS\n    ****************************************/\n\n    /**\n     * @dev Gets the RewardsToken\n     */\n    function getRewardToken()\n        external\n        view\n        returns (IERC20)\n    {\n        return rewardsToken;\n    }\n\n    /**\n     * @dev Gets the last applicable timestamp for this reward period\n     */\n    function lastTimeRewardApplicable()\n        public\n        view\n        returns (uint256)\n    {\n        return StableMath.min(block.timestamp, periodFinish);\n    }\n\n    /**\n     * @dev Calculates the amount of unclaimed rewards per token since last update,\n     * and sums with stored to give the new cumulative reward per token\n     * @return 'Reward' per staked token\n     */\n    function rewardPerToken()\n        public\n        view\n        returns (uint256)\n    {\n        (uint256 rewardPerToken_, ) = _rewardPerToken();\n        return rewardPerToken_;\n    }\n\n    function _rewardPerToken()\n        internal\n        view\n        returns (uint256 rewardPerToken_, uint256 lastTimeRewardApplicable_)\n    {\n        uint256 lastApplicableTime = lastTimeRewardApplicable(); // + 1 SLOAD\n        uint256 timeDelta = lastApplicableTime.sub(lastUpdateTime); // + 1 SLOAD\n        // If this has been called twice in the same block, shortcircuit to reduce gas\n        if(timeDelta == 0) {\n            return (rewardPerTokenStored, lastApplicableTime);\n        }\n        // new reward units to distribute = rewardRate * timeSinceLastUpdate\n        uint256 rewardUnitsToDistribute = rewardRate.mul(timeDelta); // + 1 SLOAD\n        uint256 supply = totalSupply(); // + 1 SLOAD\n        // If there is no StakingToken liquidity, avoid div(0)\n        // If there is nothing to distribute, short circuit\n        if (supply == 0 || rewardUnitsToDistribute == 0) {\n            return (rewardPerTokenStored, lastApplicableTime);\n        }\n        // new reward units per token = (rewardUnitsToDistribute * 1e18) / totalTokens\n        uint256 unitsToDistributePerToken = rewardUnitsToDistribute.divPrecisely(supply);\n        // return summed rate\n        return (rewardPerTokenStored.add(unitsToDistributePerToken), lastApplicableTime); // + 1 SLOAD\n    }\n\n    /**\n     * @dev Calculates the amount of unclaimed rewards a user has earned\n     * @param _account User address\n     * @return Total reward amount earned\n     */\n    function earned(address _account)\n        public\n        view\n        returns (uint256)\n    {\n        return _earned(_account, rewardPerToken());\n    }\n\n    function _earned(address _account, uint256 _currentRewardPerToken)\n        internal\n        view\n        returns (uint256)\n    {\n        // current rate per token - rate user previously received\n        uint256 userRewardDelta = _currentRewardPerToken.sub(userRewardPerTokenPaid[_account]); // + 1 SLOAD\n        // Short circuit if there is nothing new to distribute\n        if(userRewardDelta == 0){\n            return rewards[_account];\n        }\n        // new reward = staked tokens * difference in rate\n        uint256 userNewReward = balanceOf(_account).mulTruncate(userRewardDelta); // + 1 SLOAD\n        // add to previous rewards\n        return rewards[_account].add(userNewReward);\n    }\n\n\n    /***************************************\n                    ADMIN\n    ****************************************/\n\n    /**\n     * @dev Notifies the contract that new rewards have been added.\n     * Calculates an updated rewardRate based on the rewards in period.\n     * @param _reward Units of RewardToken that have been added to the pool\n     */\n    function notifyRewardAmount(uint256 _reward)\n        external\n        onlyRewardsDistributor\n        updateReward(address(0))\n    {\n        require(_reward < 1e24, \"Cannot notify with more than a million units\");\n\n        uint256 currentTime = block.timestamp;\n        // If previous period over, reset rewardRate\n        if (currentTime >= periodFinish) {\n            rewardRate = _reward.div(DURATION);\n        }\n        // If additional reward to existing period, calc sum\n        else {\n            uint256 remaining = periodFinish.sub(currentTime);\n            uint256 leftover = remaining.mul(rewardRate);\n            rewardRate = _reward.add(leftover).div(DURATION);\n        }\n\n        lastUpdateTime = currentTime;\n        periodFinish = currentTime.add(DURATION);\n\n        emit RewardAdded(_reward);\n    }\n}",
  "sourcePath": "/Volumes/sdxc/ETHEREUM/CODE/mStable-v1-edit/contracts/rewards/staking/StakingRewards.sol",
  "compiler": {
    "name": "solc",
    "version": "0.5.16+commit.9c3226ce.Emscripten.clang"
  },
  "schemaVersion": "3.1.0",
  "updatedAt": "2021-03-11T05:43:15.940Z",
  "devdoc": {
    "author": "Originally: Synthetix (forked from /Synthetixio/synthetix/contracts/StakingRewards.sol)        Audit: https://github.com/sigp/public-audits/blob/master/synthetix/unipool/review.pdf        Changes by: Stability Labs Pty. Ltd.",
    "details": "Uses an ever increasing 'rewardPerTokenStored' variable to distribute rewards each time a write action is called in the contract. This allows for passive reward accrual.        Changes:          - Cosmetic (comments, readability)          - Addition of getRewardToken()          - Changing of `StakingTokenWrapper` funcs from `super.stake` to `_stake`          - Introduced a `stake(_beneficiary)` function to enable contract wrappers to stake on behalf",
    "methods": {
      "balanceOf(address)": {
        "details": "Get the balance of a given account",
        "params": {
          "_account": "User for which to retrieve balance"
        }
      },
      "claimReward()": {
        "details": "Claims outstanding rewards for the sender. First updates outstanding reward allocation and then transfers."
      },
      "constructor": {
        "details": "StakingRewards is a TokenWrapper and RewardRecipient "
      },
      "earned(address)": {
        "details": "Calculates the amount of unclaimed rewards a user has earned",
        "params": {
          "_account": "User address"
        },
        "return": "Total reward amount earned"
      },
      "exit()": {
        "details": "Withdraws stake from pool and claims any rewards"
      },
      "getRewardToken()": {
        "details": "Gets the RewardsToken"
      },
      "lastTimeRewardApplicable()": {
        "details": "Gets the last applicable timestamp for this reward period"
      },
      "notifyRewardAmount(uint256)": {
        "details": "Notifies the contract that new rewards have been added. Calculates an updated rewardRate based on the rewards in period.",
        "params": {
          "_reward": "Units of RewardToken that have been added to the pool"
        }
      },
      "rewardPerToken()": {
        "details": "Calculates the amount of unclaimed rewards per token since last update, and sums with stored to give the new cumulative reward per token",
        "return": "'Reward' per staked token"
      },
      "setRewardsDistribution(address)": {
        "details": "Change the rewardsDistributor - only called by mStable governor",
        "params": {
          "_rewardsDistributor": "Address of the new distributor"
        }
      },
      "stake(address,uint256)": {
        "details": "Stakes a given amount of the StakingToken for a given beneficiary",
        "params": {
          "_amount": "Units of StakingToken",
          "_beneficiary": "Staked tokens are credited to this address"
        }
      },
      "stake(uint256)": {
        "details": "Stakes a given amount of the StakingToken for the sender",
        "params": {
          "_amount": "Units of StakingToken"
        }
      },
      "totalSupply()": {
        "details": "Get the total amount of the staked token",
        "return": "uint256 total supply"
      },
      "withdraw(uint256)": {
        "details": "Withdraws given stake amount from the pool",
        "params": {
          "_amount": "Units of the staked token to withdraw"
        }
      }
    },
    "title": "StakingRewards"
  },
  "userdoc": {
    "methods": {},
    "notice": "Rewards stakers of a given LP token (a.k.a StakingToken) with RewardsToken, on a pro-rata basis"
  }
}