{
  "contractName": "yvMUSD",
  "abi": [
    {
      "inputs": [
        {
          "internalType": "address",
          "name": "_token",
          "type": "address"
        }
      ],
      "payable": false,
      "stateMutability": "nonpayable",
      "type": "constructor"
    },
    {
      "anonymous": false,
      "inputs": [
        {
          "indexed": true,
          "internalType": "address",
          "name": "owner",
          "type": "address"
        },
        {
          "indexed": true,
          "internalType": "address",
          "name": "spender",
          "type": "address"
        },
        {
          "indexed": false,
          "internalType": "uint256",
          "name": "value",
          "type": "uint256"
        }
      ],
      "name": "Approval",
      "type": "event"
    },
    {
      "anonymous": false,
      "inputs": [
        {
          "indexed": true,
          "internalType": "address",
          "name": "from",
          "type": "address"
        },
        {
          "indexed": true,
          "internalType": "address",
          "name": "to",
          "type": "address"
        },
        {
          "indexed": false,
          "internalType": "uint256",
          "name": "value",
          "type": "uint256"
        }
      ],
      "name": "Transfer",
      "type": "event"
    },
    {
      "constant": true,
      "inputs": [
        {
          "internalType": "address",
          "name": "owner",
          "type": "address"
        },
        {
          "internalType": "address",
          "name": "spender",
          "type": "address"
        }
      ],
      "name": "allowance",
      "outputs": [
        {
          "internalType": "uint256",
          "name": "",
          "type": "uint256"
        }
      ],
      "payable": false,
      "stateMutability": "view",
      "type": "function"
    },
    {
      "constant": false,
      "inputs": [
        {
          "internalType": "address",
          "name": "spender",
          "type": "address"
        },
        {
          "internalType": "uint256",
          "name": "amount",
          "type": "uint256"
        }
      ],
      "name": "approve",
      "outputs": [
        {
          "internalType": "bool",
          "name": "",
          "type": "bool"
        }
      ],
      "payable": false,
      "stateMutability": "nonpayable",
      "type": "function"
    },
    {
      "constant": true,
      "inputs": [
        {
          "internalType": "address",
          "name": "account",
          "type": "address"
        }
      ],
      "name": "balanceOf",
      "outputs": [
        {
          "internalType": "uint256",
          "name": "",
          "type": "uint256"
        }
      ],
      "payable": false,
      "stateMutability": "view",
      "type": "function"
    },
    {
      "constant": true,
      "inputs": [],
      "name": "decimals",
      "outputs": [
        {
          "internalType": "uint8",
          "name": "",
          "type": "uint8"
        }
      ],
      "payable": false,
      "stateMutability": "view",
      "type": "function"
    },
    {
      "constant": false,
      "inputs": [
        {
          "internalType": "address",
          "name": "spender",
          "type": "address"
        },
        {
          "internalType": "uint256",
          "name": "subtractedValue",
          "type": "uint256"
        }
      ],
      "name": "decreaseAllowance",
      "outputs": [
        {
          "internalType": "bool",
          "name": "",
          "type": "bool"
        }
      ],
      "payable": false,
      "stateMutability": "nonpayable",
      "type": "function"
    },
    {
      "constant": false,
      "inputs": [
        {
          "internalType": "address",
          "name": "spender",
          "type": "address"
        },
        {
          "internalType": "uint256",
          "name": "addedValue",
          "type": "uint256"
        }
      ],
      "name": "increaseAllowance",
      "outputs": [
        {
          "internalType": "bool",
          "name": "",
          "type": "bool"
        }
      ],
      "payable": false,
      "stateMutability": "nonpayable",
      "type": "function"
    },
    {
      "constant": true,
      "inputs": [],
      "name": "name",
      "outputs": [
        {
          "internalType": "string",
          "name": "",
          "type": "string"
        }
      ],
      "payable": false,
      "stateMutability": "view",
      "type": "function"
    },
    {
      "constant": true,
      "inputs": [],
      "name": "symbol",
      "outputs": [
        {
          "internalType": "string",
          "name": "",
          "type": "string"
        }
      ],
      "payable": false,
      "stateMutability": "view",
      "type": "function"
    },
    {
      "constant": true,
      "inputs": [],
      "name": "token",
      "outputs": [
        {
          "internalType": "contract IERC20",
          "name": "",
          "type": "address"
        }
      ],
      "payable": false,
      "stateMutability": "view",
      "type": "function"
    },
    {
      "constant": true,
      "inputs": [],
      "name": "totalSupply",
      "outputs": [
        {
          "internalType": "uint256",
          "name": "",
          "type": "uint256"
        }
      ],
      "payable": false,
      "stateMutability": "view",
      "type": "function"
    },
    {
      "constant": false,
      "inputs": [
        {
          "internalType": "address",
          "name": "recipient",
          "type": "address"
        },
        {
          "internalType": "uint256",
          "name": "amount",
          "type": "uint256"
        }
      ],
      "name": "transfer",
      "outputs": [
        {
          "internalType": "bool",
          "name": "",
          "type": "bool"
        }
      ],
      "payable": false,
      "stateMutability": "nonpayable",
      "type": "function"
    },
    {
      "constant": false,
      "inputs": [
        {
          "internalType": "address",
          "name": "sender",
          "type": "address"
        },
        {
          "internalType": "address",
          "name": "recipient",
          "type": "address"
        },
        {
          "internalType": "uint256",
          "name": "amount",
          "type": "uint256"
        }
      ],
      "name": "transferFrom",
      "outputs": [
        {
          "internalType": "bool",
          "name": "",
          "type": "bool"
        }
      ],
      "payable": false,
      "stateMutability": "nonpayable",
      "type": "function"
    },
    {
      "constant": true,
      "inputs": [],
      "name": "balance",
      "outputs": [
        {
          "internalType": "uint256",
          "name": "",
          "type": "uint256"
        }
      ],
      "payable": false,
      "stateMutability": "view",
      "type": "function"
    },
    {
      "constant": false,
      "inputs": [],
      "name": "depositAll",
      "outputs": [],
      "payable": false,
      "stateMutability": "nonpayable",
      "type": "function"
    },
    {
      "constant": false,
      "inputs": [
        {
          "internalType": "uint256",
          "name": "_amount",
          "type": "uint256"
        }
      ],
      "name": "deposit",
      "outputs": [],
      "payable": false,
      "stateMutability": "nonpayable",
      "type": "function"
    },
    {
      "constant": false,
      "inputs": [],
      "name": "withdrawAll",
      "outputs": [],
      "payable": false,
      "stateMutability": "nonpayable",
      "type": "function"
    },
    {
      "constant": false,
      "inputs": [
        {
          "internalType": "uint256",
          "name": "_shares",
          "type": "uint256"
        }
      ],
      "name": "withdraw",
      "outputs": [],
      "payable": false,
      "stateMutability": "nonpayable",
      "type": "function"
    },
    {
      "constant": true,
      "inputs": [],
      "name": "getPricePerFullShare",
      "outputs": [
        {
          "internalType": "uint256",
          "name": "",
          "type": "uint256"
        }
      ],
      "payable": false,
      "stateMutability": "view",
      "type": "function"
    }
  ],
  "bytecode": "0x60806040523480156200001157600080fd5b506040516200186038038062001860833981810160405260208110156200003757600080fd5b5051604080516306fdde0360e01b815290516001600160a01b038316916306fdde03916004808301926000929190829003018186803b1580156200007a57600080fd5b505afa1580156200008f573d6000803e3d6000fd5b505050506040513d6000823e601f3d908101601f191682016040526020811015620000b957600080fd5b8101908080516040519392919084640100000000821115620000da57600080fd5b908301906020820185811115620000f057600080fd5b82516401000000008111828201881017156200010b57600080fd5b82525081516020918201929091019080838360005b838110156200013a57818101518382015260200162000120565b50505050905090810190601f168015620001685780820380516001836020036101000a031916815260200191505b5060405250505060405160200180806503cb2b0b937160d51b81525060060182805190602001908083835b60208310620001b45780518252601f19909201916020918201910162000193565b6001836020036101000a03801982511681845116808217855250505050505090500191505060405160208183030381529060405260049080519060200190620001ff9291906200045d565b50806001600160a01b03166395d89b416040518163ffffffff1660e01b815260040160006040518083038186803b1580156200023a57600080fd5b505afa1580156200024f573d6000803e3d6000fd5b505050506040513d6000823e601f3d908101601f1916820160405260208110156200027957600080fd5b81019080805160405193929190846401000000008211156200029a57600080fd5b908301906020820185811115620002b057600080fd5b8251640100000000811182820188101715620002cb57600080fd5b82525081516020918201929091019080838360005b83811015620002fa578181015183820152602001620002e0565b50505050905090810190601f168015620003285780820380516001836020036101000a031916815260200191505b506040525050506040516020018080613cbb60f11b81525060020182805190602001908083835b60208310620003705780518252601f1990920191602091820191016200034f565b6001836020036101000a03801982511681845116808217855250505050505090500191505060405160208183030381529060405260059080519060200190620003bb9291906200045d565b50806001600160a01b031663313ce5676040518163ffffffff1660e01b815260040160206040518083038186803b158015620003f657600080fd5b505afa1580156200040b573d6000803e3d6000fd5b505050506040513d60208110156200042257600080fd5b50516006805460ff191660ff909216919091179055600380546001600160a01b0319166001600160a01b039290921691909117905562000502565b828054600181600116156101000203166002900490600052602060002090601f016020900481019282601f10620004a057805160ff1916838001178555620004d0565b82800160010185558215620004d0579182015b82811115620004d0578251825591602001919060010190620004b3565b50620004de929150620004e2565b5090565b620004ff91905b80821115620004de5760008155600101620004e9565b90565b61134e80620005126000396000f3fe608060405234801561001057600080fd5b50600436106101165760003560e01c8063853828b6116100a2578063b69ef8a811610071578063b69ef8a814610327578063b6b55f251461032f578063dd62ed3e1461034c578063de5f62681461037a578063fc0c546a1461038257610116565b8063853828b6146102bf57806395d89b41146102c7578063a457c2d7146102cf578063a9059cbb146102fb57610116565b80632e1a7d4d116100e95780632e1a7d4d14610228578063313ce56714610247578063395093511461026557806370a082311461029157806377c7b8fc146102b757610116565b806306fdde031461011b578063095ea7b31461019857806318160ddd146101d857806323b872dd146101f2575b600080fd5b6101236103a6565b6040805160208082528351818301528351919283929083019185019080838360005b8381101561015d578181015183820152602001610145565b50505050905090810190601f16801561018a5780820380516001836020036101000a031916815260200191505b509250505060405180910390f35b6101c4600480360360408110156101ae57600080fd5b506001600160a01b038135169060200135610434565b604080519115158252519081900360200190f35b6101e0610452565b60408051918252519081900360200190f35b6101c46004803603606081101561020857600080fd5b506001600160a01b03813581169160208101359091169060400135610458565b6102456004803603602081101561023e57600080fd5b50356104e5565b005b61024f610543565b6040805160ff9092168252519081900360200190f35b6101c46004803603604081101561027b57600080fd5b506001600160a01b03813516906020013561054c565b6101e0600480360360208110156102a757600080fd5b50356001600160a01b03166105a0565b6101e06105bb565b6102456105e1565b6101236105f4565b6101c4600480360360408110156102e557600080fd5b506001600160a01b03813516906020013561064f565b6101c46004803603604081101561031157600080fd5b506001600160a01b0381351690602001356106bd565b6101e06106d1565b6102456004803603602081101561034557600080fd5b503561074d565b6101e06004803603604081101561036257600080fd5b506001600160a01b03813581169160200135166107bb565b6102456107e6565b61038a610863565b604080516001600160a01b039092168252519081900360200190f35b6004805460408051602060026001851615610100026000190190941693909304601f8101849004840282018401909252818152929183018282801561042c5780601f106104015761010080835404028352916020019161042c565b820191906000526020600020905b81548152906001019060200180831161040f57829003601f168201915b505050505081565b6000610448610441610872565b8484610876565b5060015b92915050565b60025490565b6000610465848484610962565b6104db84610471610872565b6104d685604051806060016040528060288152602001611239602891396001600160a01b038a166000908152600160205260408120906104af610872565b6001600160a01b03168152602081019190915260400160002054919063ffffffff610abe16565b610876565b5060019392505050565b60006105166104f2610452565b61050a846104fe6106d1565b9063ffffffff610b5516565b9063ffffffff610bb516565b90506105223383610bf7565b60035461053f906001600160a01b0316338363ffffffff610cf316565b5050565b60065460ff1681565b6000610448610559610872565b846104d6856001600061056a610872565b6001600160a01b03908116825260208083019390935260409182016000908120918c16815292529020549063ffffffff610d4516565b6001600160a01b031660009081526020819052604090205490565b60006105dc6105c8610452565b61050a670de0b6b3a76400006104fe6106d1565b905090565b6105f26105ed336105a0565b6104e5565b565b6005805460408051602060026001851615610100026000190190941693909304601f8101849004840282018401909252818152929183018282801561042c5780601f106104015761010080835404028352916020019161042c565b600061044861065c610872565b846104d6856040518060600160405280602581526020016112f56025913960016000610686610872565b6001600160a01b03908116825260208083019390935260409182016000908120918d1681529252902054919063ffffffff610abe16565b60006104486106ca610872565b8484610962565b600354604080516370a0823160e01b815230600482015290516000926001600160a01b0316916370a08231916024808301926020929190829003018186803b15801561071c57600080fd5b505afa158015610730573d6000803e3d6000fd5b505050506040513d602081101561074657600080fd5b5051905090565b60006107576106d1565b600354909150610778906001600160a01b031633308563ffffffff610d9f16565b6000610782610452565b61078d5750816107ac565b6107a98261050a61079c610452565b869063ffffffff610b5516565b90505b6107b63382610dff565b505050565b6001600160a01b03918216600090815260016020908152604080832093909416825291909152205490565b600354604080516370a0823160e01b815233600482015290516105f2926001600160a01b0316916370a08231916024808301926020929190829003018186803b15801561083257600080fd5b505afa158015610846573d6000803e3d6000fd5b505050506040513d602081101561085c57600080fd5b505161074d565b6003546001600160a01b031681565b3390565b6001600160a01b0383166108bb5760405162461bcd60e51b81526004018080602001828103825260248152602001806112a76024913960400191505060405180910390fd5b6001600160a01b0382166109005760405162461bcd60e51b81526004018080602001828103825260228152602001806111d06022913960400191505060405180910390fd5b6001600160a01b03808416600081815260016020908152604080832094871680845294825291829020859055815185815291517f8c5be1e5ebec7d5bd14f71427d1e84f3dd0314c0f7b2291e5b200ac8c7c3b9259281900390910190a3505050565b6001600160a01b0383166109a75760405162461bcd60e51b81526004018080602001828103825260258152602001806112826025913960400191505060405180910390fd5b6001600160a01b0382166109ec5760405162461bcd60e51b815260040180806020018281038252602381526020018061118b6023913960400191505060405180910390fd5b610a2f816040518060600160405280602681526020016111f2602691396001600160a01b038616600090815260208190526040902054919063ffffffff610abe16565b6001600160a01b038085166000908152602081905260408082209390935590841681522054610a64908263ffffffff610d4516565b6001600160a01b038084166000818152602081815260409182902094909455805185815290519193928716927fddf252ad1be2c89b69c2b068fc378daa952ba7f163c4a11628f55a4df523b3ef92918290030190a3505050565b60008184841115610b4d5760405162461bcd60e51b81526004018080602001828103825283818151815260200191508051906020019080838360005b83811015610b12578181015183820152602001610afa565b50505050905090810190601f168015610b3f5780820380516001836020036101000a031916815260200191505b509250505060405180910390fd5b505050900390565b600082610b645750600061044c565b82820282848281610b7157fe5b0414610bae5760405162461bcd60e51b81526004018080602001828103825260218152602001806112186021913960400191505060405180910390fd5b9392505050565b6000610bae83836040518060400160405280601a81526020017f536166654d6174683a206469766973696f6e206279207a65726f000000000000815250610eef565b6001600160a01b038216610c3c5760405162461bcd60e51b81526004018080602001828103825260218152602001806112616021913960400191505060405180910390fd5b610c7f816040518060600160405280602281526020016111ae602291396001600160a01b038516600090815260208190526040902054919063ffffffff610abe16565b6001600160a01b038316600090815260208190526040902055600254610cab908263ffffffff610f5416565b6002556040805182815290516000916001600160a01b038516917fddf252ad1be2c89b69c2b068fc378daa952ba7f163c4a11628f55a4df523b3ef9181900360200190a35050565b604080516001600160a01b038416602482015260448082018490528251808303909101815260649091019091526020810180516001600160e01b031663a9059cbb60e01b1790526107b6908490610f96565b600082820183811015610bae576040805162461bcd60e51b815260206004820152601b60248201527f536166654d6174683a206164646974696f6e206f766572666c6f770000000000604482015290519081900360640190fd5b604080516001600160a01b0385811660248301528416604482015260648082018490528251808303909101815260849091019091526020810180516001600160e01b03166323b872dd60e01b179052610df9908590610f96565b50505050565b6001600160a01b038216610e5a576040805162461bcd60e51b815260206004820152601f60248201527f45524332303a206d696e7420746f20746865207a65726f206164647265737300604482015290519081900360640190fd5b600254610e6d908263ffffffff610d4516565b6002556001600160a01b038216600090815260208190526040902054610e99908263ffffffff610d4516565b6001600160a01b0383166000818152602081815260408083209490945583518581529351929391927fddf252ad1be2c89b69c2b068fc378daa952ba7f163c4a11628f55a4df523b3ef9281900390910190a35050565b60008183610f3e5760405162461bcd60e51b8152602060048201818152835160248401528351909283926044909101919085019080838360008315610b12578181015183820152602001610afa565b506000838581610f4a57fe5b0495945050505050565b6000610bae83836040518060400160405280601e81526020017f536166654d6174683a207375627472616374696f6e206f766572666c6f770000815250610abe565b610fa8826001600160a01b031661114e565b610ff9576040805162461bcd60e51b815260206004820152601f60248201527f5361666545524332303a2063616c6c20746f206e6f6e2d636f6e747261637400604482015290519081900360640190fd5b60006060836001600160a01b0316836040518082805190602001908083835b602083106110375780518252601f199092019160209182019101611018565b6001836020036101000a0380198251168184511680821785525050505050509050019150506000604051808303816000865af19150503d8060008114611099576040519150601f19603f3d011682016040523d82523d6000602084013e61109e565b606091505b5091509150816110f5576040805162461bcd60e51b815260206004820181905260248201527f5361666545524332303a206c6f772d6c6576656c2063616c6c206661696c6564604482015290519081900360640190fd5b805115610df95780806020019051602081101561111157600080fd5b5051610df95760405162461bcd60e51b815260040180806020018281038252602a8152602001806112cb602a913960400191505060405180910390fd5b6000813f7fc5d2460186f7233c927e7db2dcc703c0e500b653ca82273b7bfad8045d85a47081811480159061118257508115155b94935050505056fe45524332303a207472616e7366657220746f20746865207a65726f206164647265737345524332303a206275726e20616d6f756e7420657863656564732062616c616e636545524332303a20617070726f766520746f20746865207a65726f206164647265737345524332303a207472616e7366657220616d6f756e7420657863656564732062616c616e6365536166654d6174683a206d756c7469706c69636174696f6e206f766572666c6f7745524332303a207472616e7366657220616d6f756e74206578636565647320616c6c6f77616e636545524332303a206275726e2066726f6d20746865207a65726f206164647265737345524332303a207472616e736665722066726f6d20746865207a65726f206164647265737345524332303a20617070726f76652066726f6d20746865207a65726f20616464726573735361666545524332303a204552433230206f7065726174696f6e20646964206e6f74207375636365656445524332303a2064656372656173656420616c6c6f77616e63652062656c6f77207a65726fa265627a7a72315820b1410c3da3c94ddb9ced0bcdcdf4ad797c5f68fc971dece6b8ed396b8550cc1264736f6c63430005100032",
  "source": "\npragma solidity ^0.5.16;\n\n\nimport { ERC20 } from \"@openzeppelin/contracts/token/ERC20/ERC20.sol\";\nimport { ERC20Detailed } from \"@openzeppelin/contracts/token/ERC20/ERC20Detailed.sol\";\nimport { SafeERC20, IERC20 } from \"@openzeppelin/contracts/token/ERC20/SafeERC20.sol\";\nimport { SafeMath } from \"@openzeppelin/contracts/math/SafeMath.sol\";\n\ncontract yvMUSD is ERC20 {\n    using SafeERC20 for IERC20;\n    using SafeMath for uint256;\n\n    IERC20 public token;\n    \n    string public name;\n    string public symbol;\n    uint8 public decimals;\n\n    constructor (address _token) public {\n        name = string(abi.encodePacked(\"yearn \", ERC20Detailed(_token).name()));\n        symbol = string(abi.encodePacked(\"yv\", ERC20Detailed(_token).symbol()));\n\n        decimals = ERC20Detailed(_token).decimals();\n        token = IERC20(_token);\n    }\n    \n\n    function balance() public view returns (uint) {\n        // todo - increase balance here to increase price per share\n        return token.balanceOf(address(this));\n    }\n\n    function depositAll() external {\n        deposit(token.balanceOf(msg.sender));\n    }\n\n    function deposit(uint _amount) public {\n        uint _pool = balance();\n        token.safeTransferFrom(msg.sender, address(this), _amount);\n        uint shares = 0;\n        if (totalSupply() == 0) {\n            shares = _amount;\n        } else {\n            shares = (_amount.mul(totalSupply())).div(_pool);\n        }\n        _mint(msg.sender, shares);\n    }\n\n    function withdrawAll() external {\n        withdraw(balanceOf(msg.sender));\n    }\n\n    function withdraw(uint _shares) public {\n        uint r = (balance().mul(_shares)).div(totalSupply());\n        _burn(msg.sender, _shares);\n        token.safeTransfer(msg.sender, r);\n    }\n\n    function getPricePerFullShare() public view returns (uint) {\n        return balance().mul(1e18).div(totalSupply());\n    }\n}",
  "sourcePath": "/Volumes/sdxc/ETHEREUM/CODE/mStable-v1-edit/contracts/z_mocks/savings/MockyvMUSD.sol",
  "compiler": {
    "name": "solc",
    "version": "0.5.16+commit.9c3226ce.Emscripten.clang"
  },
  "schemaVersion": "3.1.0",
  "updatedAt": "2021-03-11T05:43:17.340Z",
  "devdoc": {
    "methods": {
      "allowance(address,address)": {
        "details": "See {IERC20-allowance}."
      },
      "approve(address,uint256)": {
        "details": "See {IERC20-approve}.     * Requirements:     * - `spender` cannot be the zero address."
      },
      "balanceOf(address)": {
        "details": "See {IERC20-balanceOf}."
      },
      "decreaseAllowance(address,uint256)": {
        "details": "Atomically decreases the allowance granted to `spender` by the caller.     * This is an alternative to {approve} that can be used as a mitigation for problems described in {IERC20-approve}.     * Emits an {Approval} event indicating the updated allowance.     * Requirements:     * - `spender` cannot be the zero address. - `spender` must have allowance for the caller of at least `subtractedValue`."
      },
      "increaseAllowance(address,uint256)": {
        "details": "Atomically increases the allowance granted to `spender` by the caller.     * This is an alternative to {approve} that can be used as a mitigation for problems described in {IERC20-approve}.     * Emits an {Approval} event indicating the updated allowance.     * Requirements:     * - `spender` cannot be the zero address."
      },
      "totalSupply()": {
        "details": "See {IERC20-totalSupply}."
      },
      "transfer(address,uint256)": {
        "details": "See {IERC20-transfer}.     * Requirements:     * - `recipient` cannot be the zero address. - the caller must have a balance of at least `amount`."
      },
      "transferFrom(address,address,uint256)": {
        "details": "See {IERC20-transferFrom}.     * Emits an {Approval} event indicating the updated allowance. This is not required by the EIP. See the note at the beginning of {ERC20};     * Requirements: - `sender` and `recipient` cannot be the zero address. - `sender` must have a balance of at least `amount`. - the caller must have allowance for `sender`'s tokens of at least `amount`."
      }
    }
  },
  "userdoc": {
    "methods": {}
  }
}