{
  "_format": "hh-sol-artifact-1",
  "contractName": "MockInitializablePausableModule",
  "sourceName": "contracts/z_mocks/shared/MockInitializablePausableModule.sol",
  "abi": [
    {
      "anonymous": false,
      "inputs": [
        {
          "indexed": false,
          "internalType": "address",
          "name": "account",
          "type": "address"
        }
      ],
      "name": "Paused",
      "type": "event"
    },
    {
      "anonymous": false,
      "inputs": [
        {
          "indexed": false,
          "internalType": "address",
          "name": "account",
          "type": "address"
        }
      ],
      "name": "Unpaused",
      "type": "event"
    },
    {
      "constant": true,
      "inputs": [],
      "name": "bildToken",
      "outputs": [
        {
          "internalType": "address",
          "name": "",
          "type": "address"
        }
      ],
      "payable": false,
      "stateMutability": "view",
      "type": "function"
    },
    {
      "constant": true,
      "inputs": [],
      "name": "governance",
      "outputs": [
        {
          "internalType": "address",
          "name": "",
          "type": "address"
        }
      ],
      "payable": false,
      "stateMutability": "view",
      "type": "function"
    },
    {
      "constant": true,
      "inputs": [],
      "name": "governor",
      "outputs": [
        {
          "internalType": "address",
          "name": "",
          "type": "address"
        }
      ],
      "payable": false,
      "stateMutability": "view",
      "type": "function"
    },
    {
      "constant": false,
      "inputs": [
        {
          "internalType": "address",
          "name": "_nexus",
          "type": "address"
        }
      ],
      "name": "initialize",
      "outputs": [],
      "payable": false,
      "stateMutability": "nonpayable",
      "type": "function"
    },
    {
      "constant": true,
      "inputs": [],
      "name": "manager",
      "outputs": [
        {
          "internalType": "address",
          "name": "",
          "type": "address"
        }
      ],
      "payable": false,
      "stateMutability": "view",
      "type": "function"
    },
    {
      "constant": true,
      "inputs": [],
      "name": "nexus",
      "outputs": [
        {
          "internalType": "contract INexus",
          "name": "",
          "type": "address"
        }
      ],
      "payable": false,
      "stateMutability": "view",
      "type": "function"
    },
    {
      "constant": true,
      "inputs": [],
      "name": "oracleHub",
      "outputs": [
        {
          "internalType": "address",
          "name": "",
          "type": "address"
        }
      ],
      "payable": false,
      "stateMutability": "view",
      "type": "function"
    },
    {
      "constant": false,
      "inputs": [],
      "name": "pause",
      "outputs": [],
      "payable": false,
      "stateMutability": "nonpayable",
      "type": "function"
    },
    {
      "constant": true,
      "inputs": [],
      "name": "paused",
      "outputs": [
        {
          "internalType": "bool",
          "name": "",
          "type": "bool"
        }
      ],
      "payable": false,
      "stateMutability": "view",
      "type": "function"
    },
    {
      "constant": true,
      "inputs": [],
      "name": "proxyAdmin",
      "outputs": [
        {
          "internalType": "address",
          "name": "",
          "type": "address"
        }
      ],
      "payable": false,
      "stateMutability": "view",
      "type": "function"
    },
    {
      "constant": true,
      "inputs": [],
      "name": "recollateraliser",
      "outputs": [
        {
          "internalType": "address",
          "name": "",
          "type": "address"
        }
      ],
      "payable": false,
      "stateMutability": "view",
      "type": "function"
    },
    {
      "constant": true,
      "inputs": [],
      "name": "savingsManager",
      "outputs": [
        {
          "internalType": "address",
          "name": "",
          "type": "address"
        }
      ],
      "payable": false,
      "stateMutability": "view",
      "type": "function"
    },
    {
      "constant": false,
      "inputs": [],
      "name": "shouldAllowOnlyGovernance",
      "outputs": [],
      "payable": false,
      "stateMutability": "nonpayable",
      "type": "function"
    },
    {
      "constant": false,
      "inputs": [],
      "name": "shouldAllowOnlyGovernor",
      "outputs": [],
      "payable": false,
      "stateMutability": "nonpayable",
      "type": "function"
    },
    {
      "constant": false,
      "inputs": [],
      "name": "shouldAllowOnlyManager",
      "outputs": [],
      "payable": false,
      "stateMutability": "nonpayable",
      "type": "function"
    },
    {
      "constant": false,
      "inputs": [],
      "name": "shouldAllowOnlyProxyAdmin",
      "outputs": [],
      "payable": false,
      "stateMutability": "nonpayable",
      "type": "function"
    },
    {
      "constant": true,
      "inputs": [],
      "name": "staking",
      "outputs": [
        {
          "internalType": "address",
          "name": "",
          "type": "address"
        }
      ],
      "payable": false,
      "stateMutability": "view",
      "type": "function"
    },
    {
      "constant": true,
      "inputs": [],
      "name": "temp",
      "outputs": [
        {
          "internalType": "uint256",
          "name": "",
          "type": "uint256"
        }
      ],
      "payable": false,
      "stateMutability": "view",
      "type": "function"
    },
    {
      "constant": false,
      "inputs": [],
      "name": "unpause",
      "outputs": [],
      "payable": false,
      "stateMutability": "nonpayable",
      "type": "function"
    }
  ],
  "bytecode": "0x6080604052603b805460ff60a01b1916905534801561001d57600080fd5b50610c278061002d6000396000f3fe608060405234801561001057600080fd5b50600436106101215760003560e01c80635aa6e675116100ad578063a0f60ec211610071578063a0f60ec2146101da578063a3f5c1d2146101e2578063bcfb9012146101ea578063c4d66de8146101f2578063d6a4bffc1461021857610121565b80635aa6e6751461018c5780635c975abb14610194578063673402e5146101b057806373d62b46146101ca5780638456cb59146101d257610121565b80633e47158c116100f45780633e47158c146101645780633f4ba83a1461016c578063410c34b714610174578063481c6a751461017c5780634cf088d91461018457610121565b806308484f21146101265780630c340a241461014a5780630d0181d414610152578063212e46b61461015c575b600080fd5b61012e610220565b604080516001600160a01b039092168252519081900360200190f35b61012e61022f565b61015a610239565b005b61015a6102ad565b61012e610344565b61015a61034e565b61015a61044e565b61012e6104be565b61012e6104c8565b61012e6104d2565b61019c6104dc565b604080519115158252519081900360200190f35b6101b86104ec565b60408051918252519081900360200190f35b61012e6104f2565b61015a6104fc565b61012e6105ff565b61012e610609565b61015a610618565b61015a6004803603602081101561020857600080fd5b50356001600160a01b031661068c565b61012e610738565b600061022a610742565b905090565b600061022a6107c2565b610241610807565b6001600160a01b0316336001600160a01b0316146102a6576040805162461bcd60e51b815260206004820152601860248201527f4f6e6c79206d616e616765722063616e20657865637574650000000000000000604482015290519081900360640190fd5b6003603c55565b6102b56107c2565b6001600160a01b0316336001600160a01b031614806102ec57506102d7610856565b6001600160a01b0316336001600160a01b0316145b61033d576040805162461bcd60e51b815260206004820152601b60248201527f4f6e6c7920676f7665726e616e63652063616e20657865637574650000000000604482015290519081900360640190fd5b6002603c55565b600061022a6108a5565b6103566107c2565b6001600160a01b0316336001600160a01b0316146103b7576040805162461bcd60e51b81526020600482015260196024820152784f6e6c7920676f7665726e6f722063616e206578656375746560381b604482015290519081900360640190fd5b603b54600160a01b900460ff1661040c576040805162461bcd60e51b815260206004820152601460248201527314185d5cd8589b194e881b9bdd081c185d5cd95960621b604482015290519081900360640190fd5b603b805460ff60a01b191690556040805133815290517f5db9ee0a495bf2e6ff9c91a7834c1ba4fdd244a5e8aa4e537bd38aeae4b073aa9181900360200190a1565b6104566107c2565b6001600160a01b0316336001600160a01b0316146104b7576040805162461bcd60e51b81526020600482015260196024820152784f6e6c7920676f7665726e6f722063616e206578656375746560381b604482015290519081900360640190fd5b6001603c55565b600061022a610807565b600061022a6108f4565b600061022a610856565b603b54600160a01b900460ff1690565b603c5481565b600061022a610943565b6105046107c2565b6001600160a01b0316336001600160a01b031614610565576040805162461bcd60e51b81526020600482015260196024820152784f6e6c7920676f7665726e6f722063616e206578656375746560381b604482015290519081900360640190fd5b603b54600160a01b900460ff16156105b7576040805162461bcd60e51b815260206004820152601060248201526f14185d5cd8589b194e881c185d5cd95960821b604482015290519081900360640190fd5b603b805460ff60a01b1916600160a01b1790556040805133815290517f62e78cea01bee320cd4e420270b5ea74000d11b0c9f74754ebdbfc544b05a2589181900360200190a1565b600061022a610992565b603b546001600160a01b031681565b6106206108a5565b6001600160a01b0316336001600160a01b031614610685576040805162461bcd60e51b815260206004820152601b60248201527f4f6e6c792050726f787941646d696e2063616e20657865637574650000000000604482015290519081900360640190fd5b6004603c55565b600054610100900460ff16806106a557506106a56109e1565b806106b3575060005460ff16155b6106ee5760405162461bcd60e51b815260040180806020018281038252602e815260200180610bc5602e913960400191505060405180910390fd5b600054610100900460ff16158015610719576000805460ff1961ff0019909116610100171660011790555b610722826109e7565b8015610734576000805461ff00191690555b5050565b600061022a610a00565b603b54603854604080516385acd64160e01b81526004810192909252516000926001600160a01b0316916385acd641916024808301926020929190829003018186803b15801561079157600080fd5b505afa1580156107a5573d6000803e3d6000fd5b505050506040513d60208110156107bb57600080fd5b5051905090565b603b546040805163030d028960e21b815290516000926001600160a01b031691630c340a24916004808301926020929190829003018186803b15801561079157600080fd5b603b54603754604080516385acd64160e01b81526004810192909252516000926001600160a01b0316916385acd641916024808301926020929190829003018186803b15801561079157600080fd5b603b54603354604080516385acd64160e01b81526004810192909252516000926001600160a01b0316916385acd641916024808301926020929190829003018186803b15801561079157600080fd5b603b54603554604080516385acd64160e01b81526004810192909252516000926001600160a01b0316916385acd641916024808301926020929190829003018186803b15801561079157600080fd5b603b54603454604080516385acd64160e01b81526004810192909252516000926001600160a01b0316916385acd641916024808301926020929190829003018186803b15801561079157600080fd5b603b54603654604080516385acd64160e01b81526004810192909252516000926001600160a01b0316916385acd641916024808301926020929190829003018186803b15801561079157600080fd5b603b54603a54604080516385acd64160e01b81526004810192909252516000926001600160a01b0316916385acd641916024808301926020929190829003018186803b15801561079157600080fd5b303b1590565b6109f081610a4f565b50603b805460ff60a01b19169055565b603b54603954604080516385acd64160e01b81526004810192909252516000926001600160a01b0316916385acd641916024808301926020929190829003018186803b15801561079157600080fd5b6001600160a01b038116610aa2576040805162461bcd60e51b81526020600482015260156024820152744e657875732061646472657373206973207a65726f60581b604482015290519081900360640190fd5b603b80546001600160a01b0319166001600160a01b038316179055610ac5610ac8565b50565b6040805169476f7665726e616e636560b01b8152815190819003600a9081018220603355665374616b696e6760c81b82528251918290036007908101832060345569283937bc3ca0b236b4b760b11b835283519283900390910182206035556827b930b1b632a43ab160b91b8252825191829003600990810183206036556626b0b730b3b2b960c91b835283519283900390910182206037556f2932b1b7b63630ba32b930b634b9b2b960811b82528251918290036010018220603855682134b6322a37b5b2b760b91b82528251918290030181206039556d29b0bb34b733b9a6b0b730b3b2b960911b8152905190819003600e019020603a5556fe436f6e747261637420696e7374616e63652068617320616c7265616479206265656e20696e697469616c697a6564a265627a7a72315820f71a1ff876375de482b6a7f72b3f019894df2cc50933873a449a3f1e1d4c440b64736f6c63430005100032",
  "linkReferences": {},
  "deployedLinkReferences": {}
}